{
	"src/LPToken.sol": {
		"LPToken": {
			"abi": [
				{
					"anonymous": false,
					"inputs": [
						{
							"indexed": true,
							"internalType": "address",
							"name": "owner",
							"type": "address"
						},
						{
							"indexed": true,
							"internalType": "address",
							"name": "spender",
							"type": "address"
						},
						{
							"indexed": false,
							"internalType": "uint256",
							"name": "value",
							"type": "uint256"
						}
					],
					"name": "Approval",
					"type": "event"
				},
				{
					"anonymous": false,
					"inputs": [
						{
							"indexed": true,
							"internalType": "address",
							"name": "previousOwner",
							"type": "address"
						},
						{
							"indexed": true,
							"internalType": "address",
							"name": "newOwner",
							"type": "address"
						}
					],
					"name": "OwnershipTransferred",
					"type": "event"
				},
				{
					"anonymous": false,
					"inputs": [
						{
							"indexed": true,
							"internalType": "address",
							"name": "from",
							"type": "address"
						},
						{
							"indexed": true,
							"internalType": "address",
							"name": "to",
							"type": "address"
						},
						{
							"indexed": false,
							"internalType": "uint256",
							"name": "value",
							"type": "uint256"
						}
					],
					"name": "Transfer",
					"type": "event"
				},
				{
					"inputs": [],
					"name": "DOMAIN_SEPARATOR",
					"outputs": [
						{
							"internalType": "bytes32",
							"name": "",
							"type": "bytes32"
						}
					],
					"stateMutability": "view",
					"type": "function"
				},
				{
					"inputs": [
						{
							"internalType": "address",
							"name": "owner",
							"type": "address"
						},
						{
							"internalType": "address",
							"name": "spender",
							"type": "address"
						}
					],
					"name": "allowance",
					"outputs": [
						{
							"internalType": "uint256",
							"name": "",
							"type": "uint256"
						}
					],
					"stateMutability": "view",
					"type": "function"
				},
				{
					"inputs": [
						{
							"internalType": "address",
							"name": "spender",
							"type": "address"
						},
						{
							"internalType": "uint256",
							"name": "amount",
							"type": "uint256"
						}
					],
					"name": "approve",
					"outputs": [
						{
							"internalType": "bool",
							"name": "",
							"type": "bool"
						}
					],
					"stateMutability": "nonpayable",
					"type": "function"
				},
				{
					"inputs": [
						{
							"internalType": "address",
							"name": "account",
							"type": "address"
						}
					],
					"name": "balanceOf",
					"outputs": [
						{
							"internalType": "uint256",
							"name": "",
							"type": "uint256"
						}
					],
					"stateMutability": "view",
					"type": "function"
				},
				{
					"inputs": [
						{
							"internalType": "uint256",
							"name": "amount",
							"type": "uint256"
						}
					],
					"name": "burn",
					"outputs": [],
					"stateMutability": "nonpayable",
					"type": "function"
				},
				{
					"inputs": [
						{
							"internalType": "address",
							"name": "account",
							"type": "address"
						},
						{
							"internalType": "uint256",
							"name": "amount",
							"type": "uint256"
						}
					],
					"name": "burnFrom",
					"outputs": [],
					"stateMutability": "nonpayable",
					"type": "function"
				},
				{
					"inputs": [],
					"name": "decimals",
					"outputs": [
						{
							"internalType": "uint8",
							"name": "",
							"type": "uint8"
						}
					],
					"stateMutability": "view",
					"type": "function"
				},
				{
					"inputs": [
						{
							"internalType": "address",
							"name": "spender",
							"type": "address"
						},
						{
							"internalType": "uint256",
							"name": "subtractedValue",
							"type": "uint256"
						}
					],
					"name": "decreaseAllowance",
					"outputs": [
						{
							"internalType": "bool",
							"name": "",
							"type": "bool"
						}
					],
					"stateMutability": "nonpayable",
					"type": "function"
				},
				{
					"inputs": [
						{
							"internalType": "address",
							"name": "spender",
							"type": "address"
						},
						{
							"internalType": "uint256",
							"name": "addedValue",
							"type": "uint256"
						}
					],
					"name": "increaseAllowance",
					"outputs": [
						{
							"internalType": "bool",
							"name": "",
							"type": "bool"
						}
					],
					"stateMutability": "nonpayable",
					"type": "function"
				},
				{
					"inputs": [
						{
							"internalType": "string",
							"name": "name",
							"type": "string"
						},
						{
							"internalType": "string",
							"name": "symbol",
							"type": "string"
						}
					],
					"name": "initialize",
					"outputs": [
						{
							"internalType": "bool",
							"name": "",
							"type": "bool"
						}
					],
					"stateMutability": "nonpayable",
					"type": "function"
				},
				{
					"inputs": [
						{
							"internalType": "address",
							"name": "recipient",
							"type": "address"
						},
						{
							"internalType": "uint256",
							"name": "amount",
							"type": "uint256"
						}
					],
					"name": "mint",
					"outputs": [],
					"stateMutability": "nonpayable",
					"type": "function"
				},
				{
					"inputs": [],
					"name": "name",
					"outputs": [
						{
							"internalType": "string",
							"name": "",
							"type": "string"
						}
					],
					"stateMutability": "view",
					"type": "function"
				},
				{
					"inputs": [
						{
							"internalType": "address",
							"name": "owner",
							"type": "address"
						}
					],
					"name": "nonces",
					"outputs": [
						{
							"internalType": "uint256",
							"name": "",
							"type": "uint256"
						}
					],
					"stateMutability": "view",
					"type": "function"
				},
				{
					"inputs": [],
					"name": "owner",
					"outputs": [
						{
							"internalType": "address",
							"name": "",
							"type": "address"
						}
					],
					"stateMutability": "view",
					"type": "function"
				},
				{
					"inputs": [
						{
							"internalType": "address",
							"name": "owner",
							"type": "address"
						},
						{
							"internalType": "address",
							"name": "spender",
							"type": "address"
						},
						{
							"internalType": "uint256",
							"name": "value",
							"type": "uint256"
						},
						{
							"internalType": "uint256",
							"name": "deadline",
							"type": "uint256"
						},
						{
							"internalType": "uint8",
							"name": "v",
							"type": "uint8"
						},
						{
							"internalType": "bytes32",
							"name": "r",
							"type": "bytes32"
						},
						{
							"internalType": "bytes32",
							"name": "s",
							"type": "bytes32"
						}
					],
					"name": "permit",
					"outputs": [],
					"stateMutability": "nonpayable",
					"type": "function"
				},
				{
					"inputs": [],
					"name": "renounceOwnership",
					"outputs": [],
					"stateMutability": "nonpayable",
					"type": "function"
				},
				{
					"inputs": [],
					"name": "symbol",
					"outputs": [
						{
							"internalType": "string",
							"name": "",
							"type": "string"
						}
					],
					"stateMutability": "view",
					"type": "function"
				},
				{
					"inputs": [],
					"name": "totalSupply",
					"outputs": [
						{
							"internalType": "uint256",
							"name": "",
							"type": "uint256"
						}
					],
					"stateMutability": "view",
					"type": "function"
				},
				{
					"inputs": [
						{
							"internalType": "address",
							"name": "recipient",
							"type": "address"
						},
						{
							"internalType": "uint256",
							"name": "amount",
							"type": "uint256"
						}
					],
					"name": "transfer",
					"outputs": [
						{
							"internalType": "bool",
							"name": "",
							"type": "bool"
						}
					],
					"stateMutability": "nonpayable",
					"type": "function"
				},
				{
					"inputs": [
						{
							"internalType": "address",
							"name": "sender",
							"type": "address"
						},
						{
							"internalType": "address",
							"name": "recipient",
							"type": "address"
						},
						{
							"internalType": "uint256",
							"name": "amount",
							"type": "uint256"
						}
					],
					"name": "transferFrom",
					"outputs": [
						{
							"internalType": "bool",
							"name": "",
							"type": "bool"
						}
					],
					"stateMutability": "nonpayable",
					"type": "function"
				},
				{
					"inputs": [
						{
							"internalType": "address",
							"name": "newOwner",
							"type": "address"
						}
					],
					"name": "transferOwnership",
					"outputs": [],
					"stateMutability": "nonpayable",
					"type": "function"
				}
			],
			"devdoc": {
				"details": "Only Swap contracts should initialize and own LPToken contracts.",
				"kind": "dev",
				"methods": {
					"DOMAIN_SEPARATOR()": {
						"details": "See {IERC20Permit-DOMAIN_SEPARATOR}."
					},
					"allowance(address,address)": {
						"details": "See {IERC20-allowance}."
					},
					"approve(address,uint256)": {
						"details": "See {IERC20-approve}. Requirements: - `spender` cannot be the zero address."
					},
					"balanceOf(address)": {
						"details": "See {IERC20-balanceOf}."
					},
					"burn(uint256)": {
						"details": "Destroys `amount` tokens from the caller. See {ERC20-_burn}."
					},
					"burnFrom(address,uint256)": {
						"details": "Destroys `amount` tokens from `account`, deducting from the caller's allowance. See {ERC20-_burn} and {ERC20-allowance}. Requirements: - the caller must have allowance for ``accounts``'s tokens of at least `amount`."
					},
					"decimals()": {
						"details": "Returns the number of decimals used to get its user representation. For example, if `decimals` equals `2`, a balance of `505` tokens should be displayed to a user as `5,05` (`505 / 10 ** 2`). Tokens usually opt for a value of 18, imitating the relationship between Ether and Wei. This is the value {ERC20} uses, unless {_setupDecimals} is called. NOTE: This information is only used for _display_ purposes: it in no way affects any of the arithmetic of the contract, including {IERC20-balanceOf} and {IERC20-transfer}."
					},
					"decreaseAllowance(address,uint256)": {
						"details": "Atomically decreases the allowance granted to `spender` by the caller. This is an alternative to {approve} that can be used as a mitigation for problems described in {IERC20-approve}. Emits an {Approval} event indicating the updated allowance. Requirements: - `spender` cannot be the zero address. - `spender` must have allowance for the caller of at least `subtractedValue`."
					},
					"increaseAllowance(address,uint256)": {
						"details": "Atomically increases the allowance granted to `spender` by the caller. This is an alternative to {approve} that can be used as a mitigation for problems described in {IERC20-approve}. Emits an {Approval} event indicating the updated allowance. Requirements: - `spender` cannot be the zero address."
					},
					"initialize(string,string)": {
						"details": "The caller of this function will become the owner. A Swap contract should call this in its initializer function.",
						"params": {
							"name": "name of this token",
							"symbol": "symbol of this token"
						}
					},
					"mint(address,uint256)": {
						"details": "only owner can call this mint function",
						"params": {
							"amount": "amount of tokens to mint",
							"recipient": "address of account to receive the tokens"
						}
					},
					"name()": {
						"details": "Returns the name of the token."
					},
					"nonces(address)": {
						"details": "See {IERC20Permit-nonces}."
					},
					"owner()": {
						"details": "Returns the address of the current owner."
					},
					"permit(address,address,uint256,uint256,uint8,bytes32,bytes32)": {
						"details": "See {IERC20Permit-permit}."
					},
					"renounceOwnership()": {
						"details": "Leaves the contract without owner. It will not be possible to call `onlyOwner` functions anymore. Can only be called by the current owner. NOTE: Renouncing ownership will leave the contract without an owner, thereby removing any functionality that is only available to the owner."
					},
					"symbol()": {
						"details": "Returns the symbol of the token, usually a shorter version of the name."
					},
					"totalSupply()": {
						"details": "See {IERC20-totalSupply}."
					},
					"transfer(address,uint256)": {
						"details": "See {IERC20-transfer}. Requirements: - `recipient` cannot be the zero address. - the caller must have a balance of at least `amount`."
					},
					"transferFrom(address,address,uint256)": {
						"details": "See {IERC20-transferFrom}. Emits an {Approval} event indicating the updated allowance. This is not required by the EIP. See the note at the beginning of {ERC20}. Requirements: - `sender` and `recipient` cannot be the zero address. - `sender` must have a balance of at least `amount`. - the caller must have allowance for ``sender``'s tokens of at least `amount`."
					},
					"transferOwnership(address)": {
						"details": "Transfers ownership of the contract to a new account (`newOwner`). Can only be called by the current owner."
					}
				},
				"title": "Liquidity Provider Token",
				"version": 1
			},
			"evm": {
				"assembly": "    /* \"src/LPToken.sol\":570:2229  contract LPToken is ERC20PermitUpgradeable, ERC20BurnableUpgradeable, OwnableUpgradeable {... */\n  mstore(0x40, 0x80)\n  callvalue\n  dup1\n  iszero\n  tag_1\n  jumpi\n  0x00\n  dup1\n  revert\ntag_1:\n  pop\n  dataSize(sub_0)\n  dup1\n  dataOffset(sub_0)\n  0x00\n  codecopy\n  0x00\n  return\nstop\n\nsub_0: assembly {\n        /* \"src/LPToken.sol\":570:2229  contract LPToken is ERC20PermitUpgradeable, ERC20BurnableUpgradeable, OwnableUpgradeable {... */\n      mstore(0x40, 0x80)\n      callvalue\n      dup1\n      iszero\n      tag_1\n      jumpi\n      0x00\n      dup1\n      revert\n    tag_1:\n      pop\n      jumpi(tag_2, lt(calldatasize, 0x04))\n      shr(0xe0, calldataload(0x00))\n      dup1\n      0x70a08231\n      gt\n      tag_24\n      jumpi\n      dup1\n      0x95d89b41\n      gt\n      tag_25\n      jumpi\n      dup1\n      0x95d89b41\n      eq\n      tag_18\n      jumpi\n      dup1\n      0xa457c2d7\n      eq\n      tag_19\n      jumpi\n      dup1\n      0xa9059cbb\n      eq\n      tag_20\n      jumpi\n      dup1\n      0xd505accf\n      eq\n      tag_21\n      jumpi\n      dup1\n      0xdd62ed3e\n      eq\n      tag_22\n      jumpi\n      dup1\n      0xf2fde38b\n      eq\n      tag_23\n      jumpi\n      jump(tag_2)\n    tag_25:\n      dup1\n      0x70a08231\n      eq\n      tag_13\n      jumpi\n      dup1\n      0x715018a6\n      eq\n      tag_14\n      jumpi\n      dup1\n      0x79cc6790\n      eq\n      tag_15\n      jumpi\n      dup1\n      0x7ecebe00\n      eq\n      tag_16\n      jumpi\n      dup1\n      0x8da5cb5b\n      eq\n      tag_17\n      jumpi\n      jump(tag_2)\n    tag_24:\n      dup1\n      0x3644e515\n      gt\n      tag_26\n      jumpi\n      dup1\n      0x3644e515\n      eq\n      tag_8\n      jumpi\n      dup1\n      0x39509351\n      eq\n      tag_9\n      jumpi\n      dup1\n      0x40c10f19\n      eq\n      tag_10\n      jumpi\n      dup1\n      0x42966c68\n      eq\n      tag_11\n      jumpi\n      dup1\n      0x4cd88b76\n      eq\n      tag_12\n      jumpi\n      jump(tag_2)\n    tag_26:\n      dup1\n      0x06fdde03\n      eq\n      tag_3\n      jumpi\n      dup1\n      0x095ea7b3\n      eq\n      tag_4\n      jumpi\n      dup1\n      0x18160ddd\n      eq\n      tag_5\n      jumpi\n      dup1\n      0x23b872dd\n      eq\n      tag_6\n      jumpi\n      dup1\n      0x313ce567\n      eq\n      tag_7\n      jumpi\n    tag_2:\n      0x00\n      dup1\n      revert\n        /* \"src/libraries/ERC20Upgradeable.sol\":2507:2596  function name() public view virtual returns (string memory) {... */\n    tag_3:\n      tag_27\n      tag_28\n      jump\t// in\n    tag_27:\n      mload(0x40)\n      tag_29\n      swap2\n      swap1\n      tag_30\n      jump\t// in\n    tag_29:\n      mload(0x40)\n      dup1\n      swap2\n      sub\n      swap1\n      return\n        /* \"src/libraries/ERC20Upgradeable.sol\":4583:4749  function approve(address spender, uint256 amount) public virtual override returns (bool) {... */\n    tag_4:\n      tag_31\n      tag_32\n      calldatasize\n      0x04\n      tag_33\n      jump\t// in\n    tag_32:\n      tag_34\n      jump\t// in\n    tag_31:\n      mload(0x40)\n      tag_29\n      swap2\n      swap1\n      tag_36\n      jump\t// in\n        /* \"src/libraries/ERC20Upgradeable.sol\":3574:3680  function totalSupply() public view virtual override returns (uint256) {... */\n    tag_5:\n      tag_37\n      tag_38\n      jump\t// in\n    tag_37:\n      mload(0x40)\n      tag_29\n      swap2\n      swap1\n      tag_53\n      jump\t// in\n        /* \"src/libraries/ERC20Upgradeable.sol\":5216:5533  function transferFrom(address sender, address recipient, uint256 amount) public virtual override returns (bool) {... */\n    tag_6:\n      tag_31\n      tag_42\n      calldatasize\n      0x04\n      tag_43\n      jump\t// in\n    tag_42:\n      tag_44\n      jump\t// in\n        /* \"src/libraries/ERC20Upgradeable.sol\":3425:3514  function decimals() public view virtual returns (uint8) {... */\n    tag_7:\n      tag_46\n      tag_47\n      jump\t// in\n    tag_46:\n      mload(0x40)\n      tag_29\n      swap2\n      swap1\n      tag_49\n      jump\t// in\n        /* \"src/libraries/ERC20PermitUpgradeable.sol\":2972:3085  function DOMAIN_SEPARATOR() external view override returns (bytes32) {... */\n    tag_8:\n      tag_37\n      tag_51\n      jump\t// in\n        /* \"src/libraries/ERC20Upgradeable.sol\":5928:6143  function increaseAllowance(address spender, uint256 addedValue) public virtual returns (bool) {... */\n    tag_9:\n      tag_31\n      tag_55\n      calldatasize\n      0x04\n      tag_33\n      jump\t// in\n    tag_55:\n      tag_56\n      jump\t// in\n        /* \"src/LPToken.sol\":1574:1739  function mint(address recipient, uint256 amount) external onlyOwner {... */\n    tag_10:\n      tag_58\n      tag_59\n      calldatasize\n      0x04\n      tag_33\n      jump\t// in\n    tag_59:\n      tag_60\n      jump\t// in\n    tag_58:\n      stop\n        /* \"src/libraries/ERC20BurnableUpgradeable.sol\":851:940  function burn(uint256 amount) public virtual {... */\n    tag_11:\n      tag_58\n      tag_62\n      calldatasize\n      0x04\n      tag_63\n      jump\t// in\n    tag_62:\n      tag_64\n      jump\t// in\n        /* \"src/LPToken.sol\":1017:1323  function initialize(string memory name, string memory symbol)... */\n    tag_12:\n      tag_31\n      tag_66\n      calldatasize\n      0x04\n      tag_67\n      jump\t// in\n    tag_66:\n      tag_68\n      jump\t// in\n        /* \"src/libraries/ERC20Upgradeable.sol\":3738:3863  function balanceOf(address account) public view virtual override returns (uint256) {... */\n    tag_13:\n      tag_37\n      tag_71\n      calldatasize\n      0x04\n      tag_72\n      jump\t// in\n    tag_71:\n      tag_73\n      jump\t// in\n        /* \"src/OwnableUpgradeable.sol\":1969:2114  function renounceOwnership() public virtual onlyOwner {... */\n    tag_14:\n      tag_58\n      tag_76\n      jump\t// in\n        /* \"src/libraries/ERC20BurnableUpgradeable.sol\":1246:1536  function burnFrom(address account, uint256 amount) public virtual {... */\n    tag_15:\n      tag_58\n      tag_78\n      calldatasize\n      0x04\n      tag_33\n      jump\t// in\n    tag_78:\n      tag_79\n      jump\t// in\n        /* \"src/libraries/ERC20PermitUpgradeable.sol\":2730:2848  function nonces(address owner) public view override returns (uint256) {... */\n    tag_16:\n      tag_37\n      tag_81\n      calldatasize\n      0x04\n      tag_72\n      jump\t// in\n    tag_81:\n      tag_82\n      jump\t// in\n        /* \"src/OwnableUpgradeable.sol\":1337:1422  function owner() public view virtual returns (address) {... */\n    tag_17:\n      tag_84\n      tag_85\n      jump\t// in\n    tag_84:\n      mload(0x40)\n      tag_29\n      swap2\n      swap1\n      tag_87\n      jump\t// in\n        /* \"src/libraries/ERC20Upgradeable.sol\":2709:2802  function symbol() public view virtual returns (string memory) {... */\n    tag_18:\n      tag_27\n      tag_89\n      jump\t// in\n        /* \"src/libraries/ERC20Upgradeable.sol\":6630:6896  function decreaseAllowance(address spender, uint256 subtractedValue) public virtual returns (bool) {... */\n    tag_19:\n      tag_31\n      tag_92\n      calldatasize\n      0x04\n      tag_33\n      jump\t// in\n    tag_92:\n      tag_93\n      jump\t// in\n        /* \"src/libraries/ERC20Upgradeable.sol\":4066:4238  function transfer(address recipient, uint256 amount) public virtual override returns (bool) {... */\n    tag_20:\n      tag_31\n      tag_96\n      calldatasize\n      0x04\n      tag_33\n      jump\t// in\n    tag_96:\n      tag_97\n      jump\t// in\n        /* \"src/libraries/ERC20PermitUpgradeable.sol\":1864:2669  function permit(address owner, address spender, uint256 value, uint256 deadline, uint8 v, bytes32 r, bytes32 s) public virtual override {... */\n    tag_21:\n      tag_58\n      tag_100\n      calldatasize\n      0x04\n      tag_101\n      jump\t// in\n    tag_100:\n      tag_102\n      jump\t// in\n        /* \"src/libraries/ERC20Upgradeable.sol\":4296:4445  function allowance(address owner, address spender) public view virtual override returns (uint256) {... */\n    tag_22:\n      tag_37\n      tag_104\n      calldatasize\n      0x04\n      tag_105\n      jump\t// in\n    tag_104:\n      tag_106\n      jump\t// in\n        /* \"src/OwnableUpgradeable.sol\":2263:2503  function transferOwnership(address newOwner) public virtual onlyOwner {... */\n    tag_23:\n      tag_58\n      tag_109\n      calldatasize\n      0x04\n      tag_72\n      jump\t// in\n    tag_109:\n      tag_110\n      jump\t// in\n        /* \"src/libraries/ERC20Upgradeable.sol\":2507:2596  function name() public view virtual returns (string memory) {... */\n    tag_28:\n        /* \"src/libraries/ERC20Upgradeable.sol\":2552:2565  string memory */\n      0x60\n        /* \"src/libraries/ERC20Upgradeable.sol\":2584:2589  _name */\n      0x36\n        /* \"src/libraries/ERC20Upgradeable.sol\":2577:2589  return _name */\n      dup1\n      sload\n      tag_112\n      swap1\n      tag_113\n      jump\t// in\n    tag_112:\n      dup1\n      0x1f\n      add\n      0x20\n      dup1\n      swap2\n      div\n      mul\n      0x20\n      add\n      mload(0x40)\n      swap1\n      dup2\n      add\n      0x40\n      mstore\n      dup1\n      swap3\n      swap2\n      swap1\n      dup2\n      dup2\n      mstore\n      0x20\n      add\n      dup3\n      dup1\n      sload\n      tag_114\n      swap1\n      tag_113\n      jump\t// in\n    tag_114:\n      dup1\n      iszero\n      tag_115\n      jumpi\n      dup1\n      0x1f\n      lt\n      tag_116\n      jumpi\n      0x0100\n      dup1\n      dup4\n      sload\n      div\n      mul\n      dup4\n      mstore\n      swap2\n      0x20\n      add\n      swap2\n      jump(tag_115)\n    tag_116:\n      dup3\n      add\n      swap2\n      swap1\n      0x00\n      mstore\n      keccak256(0x00, 0x20)\n      swap1\n    tag_117:\n      dup2\n      sload\n      dup2\n      mstore\n      swap1\n      0x01\n      add\n      swap1\n      0x20\n      add\n      dup1\n      dup4\n      gt\n      tag_117\n      jumpi\n      dup3\n      swap1\n      sub\n      0x1f\n      and\n      dup3\n      add\n      swap2\n    tag_115:\n      pop\n      pop\n      pop\n      pop\n      pop\n      swap1\n      pop\n        /* \"src/libraries/ERC20Upgradeable.sol\":2507:2596  function name() public view virtual returns (string memory) {... */\n      swap1\n      jump\t// out\n        /* \"src/libraries/ERC20Upgradeable.sol\":4583:4749  function approve(address spender, uint256 amount) public virtual override returns (bool) {... */\n    tag_34:\n        /* \"src/libraries/ERC20Upgradeable.sol\":4666:4670  bool */\n      0x00\n        /* \"src/libraries/ERC20Upgradeable.sol\":4682:4721  _approve(_msgSender(), spender, amount) */\n      tag_119\n        /* \"src/libraries/ERC20Upgradeable.sol\":4691:4703  _msgSender() */\n      tag_120\n        /* \"src/libraries/ERC20Upgradeable.sol\":4691:4701  _msgSender */\n      tag_121\n        /* \"src/libraries/ERC20Upgradeable.sol\":4691:4703  _msgSender() */\n      jump\t// in\n    tag_120:\n        /* \"src/libraries/ERC20Upgradeable.sol\":4705:4712  spender */\n      dup5\n        /* \"src/libraries/ERC20Upgradeable.sol\":4714:4720  amount */\n      dup5\n        /* \"src/libraries/ERC20Upgradeable.sol\":4682:4690  _approve */\n      tag_122\n        /* \"src/libraries/ERC20Upgradeable.sol\":4682:4721  _approve(_msgSender(), spender, amount) */\n      jump\t// in\n    tag_119:\n      pop\n        /* \"src/libraries/ERC20Upgradeable.sol\":4738:4742  true */\n      0x01\n        /* \"src/libraries/ERC20Upgradeable.sol\":4583:4749  function approve(address spender, uint256 amount) public virtual override returns (bool) {... */\n      swap3\n      swap2\n      pop\n      pop\n      jump\t// out\n        /* \"src/libraries/ERC20Upgradeable.sol\":3574:3680  function totalSupply() public view virtual override returns (uint256) {... */\n    tag_38:\n        /* \"src/libraries/ERC20Upgradeable.sol\":3661:3673  _totalSupply */\n      sload(0x35)\n        /* \"src/libraries/ERC20Upgradeable.sol\":3574:3680  function totalSupply() public view virtual override returns (uint256) {... */\n      swap1\n      jump\t// out\n        /* \"src/libraries/ERC20Upgradeable.sol\":5216:5533  function transferFrom(address sender, address recipient, uint256 amount) public virtual override returns (bool) {... */\n    tag_44:\n        /* \"src/libraries/ERC20Upgradeable.sol\":5322:5326  bool */\n      0x00\n        /* \"src/libraries/ERC20Upgradeable.sol\":5338:5374  _transfer(sender, recipient, amount) */\n      tag_125\n        /* \"src/libraries/ERC20Upgradeable.sol\":5348:5354  sender */\n      dup5\n        /* \"src/libraries/ERC20Upgradeable.sol\":5356:5365  recipient */\n      dup5\n        /* \"src/libraries/ERC20Upgradeable.sol\":5367:5373  amount */\n      dup5\n        /* \"src/libraries/ERC20Upgradeable.sol\":5338:5347  _transfer */\n      tag_126\n        /* \"src/libraries/ERC20Upgradeable.sol\":5338:5374  _transfer(sender, recipient, amount) */\n      jump\t// in\n    tag_125:\n        /* \"src/libraries/ERC20Upgradeable.sol\":5384:5505  _approve(sender, _msgSender(), _allowances[sender][_msgSender()].sub(amount, \"ERC20: transfer amount exceeds allowance\")) */\n      tag_127\n        /* \"src/libraries/ERC20Upgradeable.sol\":5393:5399  sender */\n      dup5\n        /* \"src/libraries/ERC20Upgradeable.sol\":5401:5413  _msgSender() */\n      tag_128\n        /* \"src/libraries/ERC20Upgradeable.sol\":5401:5411  _msgSender */\n      tag_121\n        /* \"src/libraries/ERC20Upgradeable.sol\":5401:5413  _msgSender() */\n      jump\t// in\n    tag_128:\n        /* \"src/libraries/ERC20Upgradeable.sol\":5415:5504  _allowances[sender][_msgSender()].sub(amount, \"ERC20: transfer amount exceeds allowance\") */\n      tag_129\n        /* \"src/libraries/ERC20Upgradeable.sol\":5453:5459  amount */\n      dup6\n        /* \"src/libraries/ERC20Upgradeable.sol\":5415:5504  _allowances[sender][_msgSender()].sub(amount, \"ERC20: transfer amount exceeds allowance\") */\n      mload(0x40)\n      dup1\n      0x60\n      add\n      0x40\n      mstore\n      dup1\n      0x28\n      dup2\n      mstore\n      0x20\n      add\n      data_974d1b4421da69cc60b481194f0dad36a5bb4e23da810da7a7fb30cdba178330\n      0x28\n      swap2\n      codecopy\n      sub(shl(0xa0, 0x01), 0x01)\n        /* \"src/libraries/ERC20Upgradeable.sol\":5415:5434  _allowances[sender] */\n      dup11\n      and\n      0x00\n      swap1\n      dup2\n      mstore\n        /* \"src/libraries/ERC20Upgradeable.sol\":5415:5426  _allowances */\n      0x34\n        /* \"src/libraries/ERC20Upgradeable.sol\":5415:5434  _allowances[sender] */\n      0x20\n      mstore\n      0x40\n      dup2\n      keccak256\n      swap1\n        /* \"src/libraries/ERC20Upgradeable.sol\":5435:5447  _msgSender() */\n      tag_130\n        /* \"src/libraries/ERC20Upgradeable.sol\":5435:5445  _msgSender */\n      tag_121\n        /* \"src/libraries/ERC20Upgradeable.sol\":5435:5447  _msgSender() */\n      jump\t// in\n    tag_130:\n      sub(shl(0xa0, 0x01), 0x01)\n        /* \"src/libraries/ERC20Upgradeable.sol\":5415:5448  _allowances[sender][_msgSender()] */\n      and\n      dup2\n      mstore\n      0x20\n      dup2\n      add\n      swap2\n      swap1\n      swap2\n      mstore\n      0x40\n      add\n      0x00\n      keccak256\n      sload\n      swap2\n        /* \"src/libraries/ERC20Upgradeable.sol\":5415:5504  _allowances[sender][_msgSender()].sub(amount, \"ERC20: transfer amount exceeds allowance\") */\n      swap1\n        /* \"src/libraries/ERC20Upgradeable.sol\":5415:5452  _allowances[sender][_msgSender()].sub */\n      tag_131\n        /* \"src/libraries/ERC20Upgradeable.sol\":5415:5504  _allowances[sender][_msgSender()].sub(amount, \"ERC20: transfer amount exceeds allowance\") */\n      jump\t// in\n    tag_129:\n        /* \"src/libraries/ERC20Upgradeable.sol\":5384:5392  _approve */\n      tag_122\n        /* \"src/libraries/ERC20Upgradeable.sol\":5384:5505  _approve(sender, _msgSender(), _allowances[sender][_msgSender()].sub(amount, \"ERC20: transfer amount exceeds allowance\")) */\n      jump\t// in\n    tag_127:\n      pop\n        /* \"src/libraries/ERC20Upgradeable.sol\":5522:5526  true */\n      0x01\n        /* \"src/libraries/ERC20Upgradeable.sol\":5216:5533  function transferFrom(address sender, address recipient, uint256 amount) public virtual override returns (bool) {... */\n      swap4\n      swap3\n      pop\n      pop\n      pop\n      jump\t// out\n        /* \"src/libraries/ERC20Upgradeable.sol\":3425:3514  function decimals() public view virtual returns (uint8) {... */\n    tag_47:\n        /* \"src/libraries/ERC20Upgradeable.sol\":3498:3507  _decimals */\n      and(0xff, sload(0x38))\n        /* \"src/libraries/ERC20Upgradeable.sol\":3425:3514  function decimals() public view virtual returns (uint8) {... */\n      swap1\n      jump\t// out\n        /* \"src/libraries/ERC20PermitUpgradeable.sol\":2972:3085  function DOMAIN_SEPARATOR() external view override returns (bytes32) {... */\n    tag_51:\n        /* \"src/libraries/ERC20PermitUpgradeable.sol\":3032:3039  bytes32 */\n      0x00\n        /* \"src/libraries/ERC20PermitUpgradeable.sol\":3058:3078  _domainSeparatorV4() */\n      tag_134\n        /* \"src/libraries/ERC20PermitUpgradeable.sol\":3058:3076  _domainSeparatorV4 */\n      tag_135\n        /* \"src/libraries/ERC20PermitUpgradeable.sol\":3058:3078  _domainSeparatorV4() */\n      jump\t// in\n    tag_134:\n        /* \"src/libraries/ERC20PermitUpgradeable.sol\":3051:3078  return _domainSeparatorV4() */\n      swap1\n      pop\n        /* \"src/libraries/ERC20PermitUpgradeable.sol\":2972:3085  function DOMAIN_SEPARATOR() external view override returns (bytes32) {... */\n      swap1\n      jump\t// out\n        /* \"src/libraries/ERC20Upgradeable.sol\":5928:6143  function increaseAllowance(address spender, uint256 addedValue) public virtual returns (bool) {... */\n    tag_56:\n        /* \"src/libraries/ERC20Upgradeable.sol\":6016:6020  bool */\n      0x00\n        /* \"src/libraries/ERC20Upgradeable.sol\":6032:6115  _approve(_msgSender(), spender, _allowances[_msgSender()][spender].add(addedValue)) */\n      tag_119\n        /* \"src/libraries/ERC20Upgradeable.sol\":6041:6053  _msgSender() */\n      tag_138\n        /* \"src/libraries/ERC20Upgradeable.sol\":6041:6051  _msgSender */\n      tag_121\n        /* \"src/libraries/ERC20Upgradeable.sol\":6041:6053  _msgSender() */\n      jump\t// in\n    tag_138:\n        /* \"src/libraries/ERC20Upgradeable.sol\":6055:6062  spender */\n      dup5\n        /* \"src/libraries/ERC20Upgradeable.sol\":6064:6114  _allowances[_msgSender()][spender].add(addedValue) */\n      tag_129\n        /* \"src/libraries/ERC20Upgradeable.sol\":6103:6113  addedValue */\n      dup6\n        /* \"src/libraries/ERC20Upgradeable.sol\":6064:6075  _allowances */\n      0x34\n        /* \"src/libraries/ERC20Upgradeable.sol\":6064:6089  _allowances[_msgSender()] */\n      0x00\n        /* \"src/libraries/ERC20Upgradeable.sol\":6076:6088  _msgSender() */\n      tag_140\n        /* \"src/libraries/ERC20Upgradeable.sol\":6076:6086  _msgSender */\n      tag_121\n        /* \"src/libraries/ERC20Upgradeable.sol\":6076:6088  _msgSender() */\n      jump\t// in\n    tag_140:\n      sub(shl(0xa0, 0x01), 0x01)\n        /* \"src/libraries/ERC20Upgradeable.sol\":6064:6089  _allowances[_msgSender()] */\n      swap1\n      dup2\n      and\n      dup3\n      mstore\n      0x20\n      dup1\n      dup4\n      add\n      swap4\n      swap1\n      swap4\n      mstore\n      0x40\n      swap2\n      dup3\n      add\n      0x00\n      swap1\n      dup2\n      keccak256\n        /* \"src/libraries/ERC20Upgradeable.sol\":6064:6098  _allowances[_msgSender()][spender] */\n      swap2\n      dup13\n      and\n      dup2\n      mstore\n      swap3\n      mstore\n      swap1\n      keccak256\n      sload\n      swap1\n        /* \"src/libraries/ERC20Upgradeable.sol\":6064:6102  _allowances[_msgSender()][spender].add */\n      tag_141\n        /* \"src/libraries/ERC20Upgradeable.sol\":6064:6114  _allowances[_msgSender()][spender].add(addedValue) */\n      jump\t// in\n        /* \"src/LPToken.sol\":1574:1739  function mint(address recipient, uint256 amount) external onlyOwner {... */\n    tag_60:\n        /* \"src/OwnableUpgradeable.sol\":1560:1572  _msgSender() */\n      tag_143\n        /* \"src/OwnableUpgradeable.sol\":1560:1570  _msgSender */\n      tag_121\n        /* \"src/OwnableUpgradeable.sol\":1560:1572  _msgSender() */\n      jump\t// in\n    tag_143:\n      sub(shl(0xa0, 0x01), 0x01)\n        /* \"src/OwnableUpgradeable.sol\":1549:1572  owner() == _msgSender() */\n      and\n        /* \"src/OwnableUpgradeable.sol\":1549:1556  owner() */\n      tag_144\n        /* \"src/OwnableUpgradeable.sol\":1549:1554  owner */\n      tag_85\n        /* \"src/OwnableUpgradeable.sol\":1549:1556  owner() */\n      jump\t// in\n    tag_144:\n      sub(shl(0xa0, 0x01), 0x01)\n        /* \"src/OwnableUpgradeable.sol\":1549:1572  owner() == _msgSender() */\n      and\n      eq\n        /* \"src/OwnableUpgradeable.sol\":1541:1609  require(owner() == _msgSender(), \"Ownable: caller is not the owner\") */\n      tag_145\n      jumpi\n      mload(0x40)\n      shl(0xe5, 0x461bcd)\n      dup2\n      mstore\n      0x04\n      add\n      tag_146\n      swap1\n      tag_147\n      jump\t// in\n    tag_146:\n      mload(0x40)\n      dup1\n      swap2\n      sub\n      swap1\n      revert\n    tag_145:\n        /* \"src/LPToken.sol\":1660:1671  amount != 0 */\n      dup1\n        /* \"src/LPToken.sol\":1652:1698  require(amount != 0, \"LPToken: cannot mint 0\") */\n      tag_149\n      jumpi\n      mload(0x40)\n      shl(0xe5, 0x461bcd)\n      dup2\n      mstore\n      0x04\n      add\n      tag_146\n      swap1\n      tag_151\n      jump\t// in\n    tag_149:\n        /* \"src/LPToken.sol\":1708:1732  _mint(recipient, amount) */\n      tag_152\n        /* \"src/LPToken.sol\":1714:1723  recipient */\n      dup3\n        /* \"src/LPToken.sol\":1725:1731  amount */\n      dup3\n        /* \"src/LPToken.sol\":1708:1713  _mint */\n      tag_153\n        /* \"src/LPToken.sol\":1708:1732  _mint(recipient, amount) */\n      jump\t// in\n    tag_152:\n        /* \"src/LPToken.sol\":1574:1739  function mint(address recipient, uint256 amount) external onlyOwner {... */\n      pop\n      pop\n      jump\t// out\n        /* \"src/libraries/ERC20BurnableUpgradeable.sol\":851:940  function burn(uint256 amount) public virtual {... */\n    tag_64:\n        /* \"src/libraries/ERC20BurnableUpgradeable.sol\":906:933  _burn(_msgSender(), amount) */\n      tag_155\n        /* \"src/libraries/ERC20BurnableUpgradeable.sol\":912:924  _msgSender() */\n      tag_156\n        /* \"src/libraries/ERC20BurnableUpgradeable.sol\":912:922  _msgSender */\n      tag_121\n        /* \"src/libraries/ERC20BurnableUpgradeable.sol\":912:924  _msgSender() */\n      jump\t// in\n    tag_156:\n        /* \"src/libraries/ERC20BurnableUpgradeable.sol\":926:932  amount */\n      dup3\n        /* \"src/libraries/ERC20BurnableUpgradeable.sol\":906:911  _burn */\n      tag_157\n        /* \"src/libraries/ERC20BurnableUpgradeable.sol\":906:933  _burn(_msgSender(), amount) */\n      jump\t// in\n    tag_155:\n        /* \"src/libraries/ERC20BurnableUpgradeable.sol\":851:940  function burn(uint256 amount) public virtual {... */\n      pop\n      jump\t// out\n        /* \"src/LPToken.sol\":1017:1323  function initialize(string memory name, string memory symbol)... */\n    tag_68:\n        /* \"src/LPToken.sol\":1133:1137  bool */\n      0x00\n        /* \"src/proxy/Initializable.sol\":1512:1525  _initializing */\n      dup1\n      sload\n      0x0100\n      swap1\n      div\n      0xff\n      and\n      dup1\n        /* \"src/proxy/Initializable.sol\":1512:1545  _initializing || _isConstructor() */\n      tag_160\n      jumpi\n      pop\n        /* \"src/proxy/Initializable.sol\":1529:1545  _isConstructor() */\n      tag_160\n        /* \"src/proxy/Initializable.sol\":1529:1543  _isConstructor */\n      tag_161\n        /* \"src/proxy/Initializable.sol\":1529:1545  _isConstructor() */\n      jump\t// in\n    tag_160:\n        /* \"src/proxy/Initializable.sol\":1512:1562  _initializing || _isConstructor() || !_initialized */\n      dup1\n      tag_162\n      jumpi\n      pop\n        /* \"src/proxy/Initializable.sol\":1550:1562  _initialized */\n      and(0xff, sload(0x00))\n        /* \"src/proxy/Initializable.sol\":1549:1562  !_initialized */\n      iszero\n        /* \"src/proxy/Initializable.sol\":1512:1562  _initializing || _isConstructor() || !_initialized */\n    tag_162:\n        /* \"src/proxy/Initializable.sol\":1504:1613  require(_initializing || _isConstructor() || !_initialized, \"Initializable: contract is already initialized\") */\n      tag_163\n      jumpi\n      mload(0x40)\n      shl(0xe5, 0x461bcd)\n      dup2\n      mstore\n      0x04\n      add\n      tag_146\n      swap1\n      tag_165\n      jump\t// in\n    tag_163:\n        /* \"src/proxy/Initializable.sol\":1624:1643  bool isTopLevelCall */\n      0x00\n        /* \"src/proxy/Initializable.sol\":1647:1660  _initializing */\n      sload\n      0x0100\n      swap1\n      div\n      0xff\n      and\n        /* \"src/proxy/Initializable.sol\":1646:1660  !_initializing */\n      iszero\n        /* \"src/proxy/Initializable.sol\":1670:1768  if (isTopLevelCall) {... */\n      dup1\n      iszero\n      tag_166\n      jumpi\n        /* \"src/proxy/Initializable.sol\":1704:1717  _initializing */\n      0x00\n        /* \"src/proxy/Initializable.sol\":1704:1724  _initializing = true */\n      dup1\n      sload\n      not(0xff)\n      not(0xff00)\n      swap1\n      swap2\n      and\n      0x0100\n      or\n        /* \"src/proxy/Initializable.sol\":1738:1757  _initialized = true */\n      and\n        /* \"src/proxy/Initializable.sol\":1720:1724  true */\n      0x01\n        /* \"src/proxy/Initializable.sol\":1738:1757  _initialized = true */\n      or\n      swap1\n      sstore\n        /* \"src/proxy/Initializable.sol\":1670:1768  if (isTopLevelCall) {... */\n    tag_166:\n        /* \"src/LPToken.sol\":1153:1179  __Context_init_unchained() */\n      tag_168\n        /* \"src/LPToken.sol\":1153:1177  __Context_init_unchained */\n      tag_169\n        /* \"src/LPToken.sol\":1153:1179  __Context_init_unchained() */\n      jump\t// in\n    tag_168:\n        /* \"src/LPToken.sol\":1189:1225  __ERC20_init_unchained(name, symbol) */\n      tag_170\n        /* \"src/LPToken.sol\":1212:1216  name */\n      dup5\n        /* \"src/LPToken.sol\":1218:1224  symbol */\n      dup5\n        /* \"src/LPToken.sol\":1189:1211  __ERC20_init_unchained */\n      tag_171\n        /* \"src/LPToken.sol\":1189:1225  __ERC20_init_unchained(name, symbol) */\n      jump\t// in\n    tag_170:\n        /* \"src/LPToken.sol\":1235:1259  __ERC20Permit_init(name) */\n      tag_172\n        /* \"src/LPToken.sol\":1254:1258  name */\n      dup5\n        /* \"src/LPToken.sol\":1235:1253  __ERC20Permit_init */\n      tag_173\n        /* \"src/LPToken.sol\":1235:1259  __ERC20Permit_init(name) */\n      jump\t// in\n    tag_172:\n        /* \"src/LPToken.sol\":1269:1295  __Ownable_init_unchained() */\n      tag_174\n        /* \"src/LPToken.sol\":1269:1293  __Ownable_init_unchained */\n      tag_175\n        /* \"src/LPToken.sol\":1269:1295  __Ownable_init_unchained() */\n      jump\t// in\n    tag_174:\n        /* \"src/LPToken.sol\":1312:1316  true */\n      0x01\n        /* \"src/LPToken.sol\":1305:1316  return true */\n      swap2\n      pop\n        /* \"src/proxy/Initializable.sol\":1794:1808  isTopLevelCall */\n      dup1\n        /* \"src/proxy/Initializable.sol\":1790:1856  if (isTopLevelCall) {... */\n      iszero\n      tag_176\n      jumpi\n        /* \"src/proxy/Initializable.sol\":1840:1845  false */\n      0x00\n        /* \"src/proxy/Initializable.sol\":1824:1845  _initializing = false */\n      dup1\n      sload\n      not(0xff00)\n      and\n      swap1\n      sstore\n        /* \"src/proxy/Initializable.sol\":1790:1856  if (isTopLevelCall) {... */\n    tag_176:\n        /* \"src/LPToken.sol\":1017:1323  function initialize(string memory name, string memory symbol)... */\n      pop\n      swap3\n      swap2\n      pop\n      pop\n      jump\t// out\n        /* \"src/libraries/ERC20Upgradeable.sol\":3738:3863  function balanceOf(address account) public view virtual override returns (uint256) {... */\n    tag_73:\n      sub(shl(0xa0, 0x01), 0x01)\n        /* \"src/libraries/ERC20Upgradeable.sol\":3838:3856  _balances[account] */\n      dup2\n      and\n        /* \"src/libraries/ERC20Upgradeable.sol\":3812:3819  uint256 */\n      0x00\n        /* \"src/libraries/ERC20Upgradeable.sol\":3838:3856  _balances[account] */\n      swap1\n      dup2\n      mstore\n        /* \"src/libraries/ERC20Upgradeable.sol\":3838:3847  _balances */\n      0x33\n        /* \"src/libraries/ERC20Upgradeable.sol\":3838:3856  _balances[account] */\n      0x20\n      mstore\n      0x40\n      swap1\n      keccak256\n      sload\n        /* \"src/libraries/ERC20Upgradeable.sol\":3738:3863  function balanceOf(address account) public view virtual override returns (uint256) {... */\n    tag_177:\n      swap2\n      swap1\n      pop\n      jump\t// out\n        /* \"src/OwnableUpgradeable.sol\":1969:2114  function renounceOwnership() public virtual onlyOwner {... */\n    tag_76:\n        /* \"src/OwnableUpgradeable.sol\":1560:1572  _msgSender() */\n      tag_179\n        /* \"src/OwnableUpgradeable.sol\":1560:1570  _msgSender */\n      tag_121\n        /* \"src/OwnableUpgradeable.sol\":1560:1572  _msgSender() */\n      jump\t// in\n    tag_179:\n      sub(shl(0xa0, 0x01), 0x01)\n        /* \"src/OwnableUpgradeable.sol\":1549:1572  owner() == _msgSender() */\n      and\n        /* \"src/OwnableUpgradeable.sol\":1549:1556  owner() */\n      tag_180\n        /* \"src/OwnableUpgradeable.sol\":1549:1554  owner */\n      tag_85\n        /* \"src/OwnableUpgradeable.sol\":1549:1556  owner() */\n      jump\t// in\n    tag_180:\n      sub(shl(0xa0, 0x01), 0x01)\n        /* \"src/OwnableUpgradeable.sol\":1549:1572  owner() == _msgSender() */\n      and\n      eq\n        /* \"src/OwnableUpgradeable.sol\":1541:1609  require(owner() == _msgSender(), \"Ownable: caller is not the owner\") */\n      tag_181\n      jumpi\n      mload(0x40)\n      shl(0xe5, 0x461bcd)\n      dup2\n      mstore\n      0x04\n      add\n      tag_146\n      swap1\n      tag_147\n      jump\t// in\n    tag_181:\n        /* \"src/OwnableUpgradeable.sol\":2059:2065  _owner */\n      sload(0xfe)\n        /* \"src/OwnableUpgradeable.sol\":2038:2078  OwnershipTransferred(_owner, address(0)) */\n      mload(0x40)\n        /* \"src/OwnableUpgradeable.sol\":2075:2076  0 */\n      0x00\n      swap2\n      sub(shl(0xa0, 0x01), 0x01)\n        /* \"src/OwnableUpgradeable.sol\":2059:2065  _owner */\n      and\n      swap1\n        /* \"src/OwnableUpgradeable.sol\":2038:2078  OwnershipTransferred(_owner, address(0)) */\n      0x8be0079c531659141344cd1fd0a4f28419497f9722a3daafe3b4186f6b6457e0\n      swap1\n        /* \"src/OwnableUpgradeable.sol\":2075:2076  0 */\n      dup4\n      swap1\n        /* \"src/OwnableUpgradeable.sol\":2038:2078  OwnershipTransferred(_owner, address(0)) */\n      log3\n        /* \"src/OwnableUpgradeable.sol\":2088:2094  _owner */\n      0xfe\n        /* \"src/OwnableUpgradeable.sol\":2088:2107  _owner = address(0) */\n      dup1\n      sload\n      not(sub(shl(0xa0, 0x01), 0x01))\n      and\n      swap1\n      sstore\n        /* \"src/OwnableUpgradeable.sol\":1969:2114  function renounceOwnership() public virtual onlyOwner {... */\n      jump\t// out\n        /* \"src/libraries/ERC20BurnableUpgradeable.sol\":1246:1536  function burnFrom(address account, uint256 amount) public virtual {... */\n    tag_79:\n        /* \"src/libraries/ERC20BurnableUpgradeable.sol\":1322:1348  uint256 decreasedAllowance */\n      0x00\n        /* \"src/libraries/ERC20BurnableUpgradeable.sol\":1351:1435  allowance(account, _msgSender()).sub(amount, \"ERC20: burn amount exceeds allowance\") */\n      tag_185\n        /* \"src/libraries/ERC20BurnableUpgradeable.sol\":1388:1394  amount */\n      dup3\n        /* \"src/libraries/ERC20BurnableUpgradeable.sol\":1351:1435  allowance(account, _msgSender()).sub(amount, \"ERC20: burn amount exceeds allowance\") */\n      mload(0x40)\n      dup1\n      0x60\n      add\n      0x40\n      mstore\n      dup1\n      0x24\n      dup2\n      mstore\n      0x20\n      add\n      data_a287c363786607a1457a2d9d12fa61c0073358e02d76b4035fc2c2d86a19c0db\n      0x24\n      swap2\n      codecopy\n        /* \"src/libraries/ERC20BurnableUpgradeable.sol\":1351:1383  allowance(account, _msgSender()) */\n      tag_186\n        /* \"src/libraries/ERC20BurnableUpgradeable.sol\":1361:1368  account */\n      dup7\n        /* \"src/libraries/ERC20BurnableUpgradeable.sol\":1370:1382  _msgSender() */\n      tag_104\n        /* \"src/libraries/ERC20BurnableUpgradeable.sol\":1370:1380  _msgSender */\n      tag_121\n        /* \"src/libraries/ERC20BurnableUpgradeable.sol\":1370:1382  _msgSender() */\n      jump\t// in\n        /* \"src/libraries/ERC20BurnableUpgradeable.sol\":1351:1383  allowance(account, _msgSender()) */\n    tag_186:\n        /* \"src/libraries/ERC20BurnableUpgradeable.sol\":1351:1387  allowance(account, _msgSender()).sub */\n      swap2\n        /* \"src/libraries/ERC20BurnableUpgradeable.sol\":1351:1435  allowance(account, _msgSender()).sub(amount, \"ERC20: burn amount exceeds allowance\") */\n      swap1\n        /* \"src/libraries/ERC20BurnableUpgradeable.sol\":1351:1387  allowance(account, _msgSender()).sub */\n      tag_131\n        /* \"src/libraries/ERC20BurnableUpgradeable.sol\":1351:1435  allowance(account, _msgSender()).sub(amount, \"ERC20: burn amount exceeds allowance\") */\n      jump\t// in\n    tag_185:\n        /* \"src/libraries/ERC20BurnableUpgradeable.sol\":1322:1435  uint256 decreasedAllowance = allowance(account, _msgSender()).sub(amount, \"ERC20: burn amount exceeds allowance\") */\n      swap1\n      pop\n        /* \"src/libraries/ERC20BurnableUpgradeable.sol\":1446:1497  _approve(account, _msgSender(), decreasedAllowance) */\n      tag_188\n        /* \"src/libraries/ERC20BurnableUpgradeable.sol\":1455:1462  account */\n      dup4\n        /* \"src/libraries/ERC20BurnableUpgradeable.sol\":1464:1476  _msgSender() */\n      tag_189\n        /* \"src/libraries/ERC20BurnableUpgradeable.sol\":1464:1474  _msgSender */\n      tag_121\n        /* \"src/libraries/ERC20BurnableUpgradeable.sol\":1464:1476  _msgSender() */\n      jump\t// in\n    tag_189:\n        /* \"src/libraries/ERC20BurnableUpgradeable.sol\":1478:1496  decreasedAllowance */\n      dup4\n        /* \"src/libraries/ERC20BurnableUpgradeable.sol\":1446:1454  _approve */\n      tag_122\n        /* \"src/libraries/ERC20BurnableUpgradeable.sol\":1446:1497  _approve(account, _msgSender(), decreasedAllowance) */\n      jump\t// in\n    tag_188:\n        /* \"src/libraries/ERC20BurnableUpgradeable.sol\":1507:1529  _burn(account, amount) */\n      tag_190\n        /* \"src/libraries/ERC20BurnableUpgradeable.sol\":1513:1520  account */\n      dup4\n        /* \"src/libraries/ERC20BurnableUpgradeable.sol\":1522:1528  amount */\n      dup4\n        /* \"src/libraries/ERC20BurnableUpgradeable.sol\":1507:1512  _burn */\n      tag_157\n        /* \"src/libraries/ERC20BurnableUpgradeable.sol\":1507:1529  _burn(account, amount) */\n      jump\t// in\n    tag_190:\n        /* \"src/libraries/ERC20BurnableUpgradeable.sol\":1246:1536  function burnFrom(address account, uint256 amount) public virtual {... */\n      pop\n      pop\n      pop\n      jump\t// out\n        /* \"src/libraries/ERC20PermitUpgradeable.sol\":2730:2848  function nonces(address owner) public view override returns (uint256) {... */\n    tag_82:\n      sub(shl(0xa0, 0x01), 0x01)\n        /* \"src/libraries/ERC20PermitUpgradeable.sol\":2817:2831  _nonces[owner] */\n      dup2\n      and\n        /* \"src/libraries/ERC20PermitUpgradeable.sol\":2791:2798  uint256 */\n      0x00\n        /* \"src/libraries/ERC20PermitUpgradeable.sol\":2817:2831  _nonces[owner] */\n      swap1\n      dup2\n      mstore\n        /* \"src/libraries/ERC20PermitUpgradeable.sol\":2817:2824  _nonces */\n      0x99\n        /* \"src/libraries/ERC20PermitUpgradeable.sol\":2817:2831  _nonces[owner] */\n      0x20\n      mstore\n      0x40\n      dup2\n      keccak256\n        /* \"src/libraries/ERC20PermitUpgradeable.sol\":2817:2841  _nonces[owner].current() */\n      tag_192\n      swap1\n        /* \"src/libraries/ERC20PermitUpgradeable.sol\":2817:2839  _nonces[owner].current */\n      tag_193\n        /* \"src/libraries/ERC20PermitUpgradeable.sol\":2817:2841  _nonces[owner].current() */\n      jump\t// in\n    tag_192:\n        /* \"src/libraries/ERC20PermitUpgradeable.sol\":2810:2841  return _nonces[owner].current() */\n      swap3\n        /* \"src/libraries/ERC20PermitUpgradeable.sol\":2730:2848  function nonces(address owner) public view override returns (uint256) {... */\n      swap2\n      pop\n      pop\n      jump\t// out\n        /* \"src/OwnableUpgradeable.sol\":1337:1422  function owner() public view virtual returns (address) {... */\n    tag_85:\n        /* \"src/OwnableUpgradeable.sol\":1409:1415  _owner */\n      and(sub(shl(0xa0, 0x01), 0x01), sload(0xfe))\n        /* \"src/OwnableUpgradeable.sol\":1337:1422  function owner() public view virtual returns (address) {... */\n      swap1\n      jump\t// out\n        /* \"src/libraries/ERC20Upgradeable.sol\":2709:2802  function symbol() public view virtual returns (string memory) {... */\n    tag_89:\n        /* \"src/libraries/ERC20Upgradeable.sol\":2756:2769  string memory */\n      0x60\n        /* \"src/libraries/ERC20Upgradeable.sol\":2788:2795  _symbol */\n      0x37\n        /* \"src/libraries/ERC20Upgradeable.sol\":2781:2795  return _symbol */\n      dup1\n      sload\n      tag_112\n      swap1\n      tag_113\n      jump\t// in\n        /* \"src/libraries/ERC20Upgradeable.sol\":6630:6896  function decreaseAllowance(address spender, uint256 subtractedValue) public virtual returns (bool) {... */\n    tag_93:\n        /* \"src/libraries/ERC20Upgradeable.sol\":6723:6727  bool */\n      0x00\n        /* \"src/libraries/ERC20Upgradeable.sol\":6739:6868  _approve(_msgSender(), spender, _allowances[_msgSender()][spender].sub(subtractedValue, \"ERC20: decreased allowance below zero\")) */\n      tag_119\n        /* \"src/libraries/ERC20Upgradeable.sol\":6748:6760  _msgSender() */\n      tag_203\n        /* \"src/libraries/ERC20Upgradeable.sol\":6748:6758  _msgSender */\n      tag_121\n        /* \"src/libraries/ERC20Upgradeable.sol\":6748:6760  _msgSender() */\n      jump\t// in\n    tag_203:\n        /* \"src/libraries/ERC20Upgradeable.sol\":6762:6769  spender */\n      dup5\n        /* \"src/libraries/ERC20Upgradeable.sol\":6771:6867  _allowances[_msgSender()][spender].sub(subtractedValue, \"ERC20: decreased allowance below zero\") */\n      tag_129\n        /* \"src/libraries/ERC20Upgradeable.sol\":6810:6825  subtractedValue */\n      dup6\n        /* \"src/libraries/ERC20Upgradeable.sol\":6771:6867  _allowances[_msgSender()][spender].sub(subtractedValue, \"ERC20: decreased allowance below zero\") */\n      mload(0x40)\n      dup1\n      0x60\n      add\n      0x40\n      mstore\n      dup1\n      0x25\n      dup2\n      mstore\n      0x20\n      add\n      data_f8b476f7d28209d77d4a4ac1fe36b9f8259aa1bb6bddfa6e89de7e51615cf8a8\n      0x25\n      swap2\n      codecopy\n        /* \"src/libraries/ERC20Upgradeable.sol\":6771:6782  _allowances */\n      0x34\n        /* \"src/libraries/ERC20Upgradeable.sol\":6771:6796  _allowances[_msgSender()] */\n      0x00\n        /* \"src/libraries/ERC20Upgradeable.sol\":6783:6795  _msgSender() */\n      tag_205\n        /* \"src/libraries/ERC20Upgradeable.sol\":6783:6793  _msgSender */\n      tag_121\n        /* \"src/libraries/ERC20Upgradeable.sol\":6783:6795  _msgSender() */\n      jump\t// in\n    tag_205:\n      sub(shl(0xa0, 0x01), 0x01)\n        /* \"src/libraries/ERC20Upgradeable.sol\":6771:6796  _allowances[_msgSender()] */\n      swap1\n      dup2\n      and\n      dup3\n      mstore\n      0x20\n      dup1\n      dup4\n      add\n      swap4\n      swap1\n      swap4\n      mstore\n      0x40\n      swap2\n      dup3\n      add\n      0x00\n      swap1\n      dup2\n      keccak256\n        /* \"src/libraries/ERC20Upgradeable.sol\":6771:6805  _allowances[_msgSender()][spender] */\n      swap2\n      dup14\n      and\n      dup2\n      mstore\n      swap3\n      mstore\n      swap1\n      keccak256\n      sload\n      swap2\n        /* \"src/libraries/ERC20Upgradeable.sol\":6771:6867  _allowances[_msgSender()][spender].sub(subtractedValue, \"ERC20: decreased allowance below zero\") */\n      swap1\n        /* \"src/libraries/ERC20Upgradeable.sol\":6771:6809  _allowances[_msgSender()][spender].sub */\n      tag_131\n        /* \"src/libraries/ERC20Upgradeable.sol\":6771:6867  _allowances[_msgSender()][spender].sub(subtractedValue, \"ERC20: decreased allowance below zero\") */\n      jump\t// in\n        /* \"src/libraries/ERC20Upgradeable.sol\":4066:4238  function transfer(address recipient, uint256 amount) public virtual override returns (bool) {... */\n    tag_97:\n        /* \"src/libraries/ERC20Upgradeable.sol\":4152:4156  bool */\n      0x00\n        /* \"src/libraries/ERC20Upgradeable.sol\":4168:4210  _transfer(_msgSender(), recipient, amount) */\n      tag_119\n        /* \"src/libraries/ERC20Upgradeable.sol\":4178:4190  _msgSender() */\n      tag_208\n        /* \"src/libraries/ERC20Upgradeable.sol\":4178:4188  _msgSender */\n      tag_121\n        /* \"src/libraries/ERC20Upgradeable.sol\":4178:4190  _msgSender() */\n      jump\t// in\n    tag_208:\n        /* \"src/libraries/ERC20Upgradeable.sol\":4192:4201  recipient */\n      dup5\n        /* \"src/libraries/ERC20Upgradeable.sol\":4203:4209  amount */\n      dup5\n        /* \"src/libraries/ERC20Upgradeable.sol\":4168:4177  _transfer */\n      tag_126\n        /* \"src/libraries/ERC20Upgradeable.sol\":4168:4210  _transfer(_msgSender(), recipient, amount) */\n      jump\t// in\n        /* \"src/libraries/ERC20PermitUpgradeable.sol\":1864:2669  function permit(address owner, address spender, uint256 value, uint256 deadline, uint8 v, bytes32 r, bytes32 s) public virtual override {... */\n    tag_102:\n        /* \"src/libraries/ERC20PermitUpgradeable.sol\":2091:2099  deadline */\n      dup4\n        /* \"src/libraries/ERC20PermitUpgradeable.sol\":2072:2087  block.timestamp */\n      timestamp\n        /* \"src/libraries/ERC20PermitUpgradeable.sol\":2072:2099  block.timestamp <= deadline */\n      gt\n      iszero\n        /* \"src/libraries/ERC20PermitUpgradeable.sol\":2064:2133  require(block.timestamp <= deadline, \"ERC20Permit: expired deadline\") */\n      tag_210\n      jumpi\n      mload(0x40)\n      shl(0xe5, 0x461bcd)\n      dup2\n      mstore\n      0x04\n      add\n      tag_146\n      swap1\n      tag_212\n      jump\t// in\n    tag_210:\n        /* \"src/libraries/ERC20PermitUpgradeable.sol\":2144:2162  bytes32 structHash */\n      0x00\n        /* \"src/libraries/ERC20PermitUpgradeable.sol\":2216:2232  _PERMIT_TYPEHASH */\n      sload(0x9a)\n        /* \"src/libraries/ERC20PermitUpgradeable.sol\":2250:2255  owner */\n      dup9\n        /* \"src/libraries/ERC20PermitUpgradeable.sol\":2273:2280  spender */\n      dup9\n        /* \"src/libraries/ERC20PermitUpgradeable.sol\":2298:2303  value */\n      dup9\n        /* \"src/libraries/ERC20PermitUpgradeable.sol\":2321:2345  _nonces[owner].current() */\n      tag_213\n        /* \"src/libraries/ERC20PermitUpgradeable.sol\":2321:2328  _nonces */\n      0x99\n        /* \"src/libraries/ERC20PermitUpgradeable.sol\":2321:2335  _nonces[owner] */\n      0x00\n        /* \"src/libraries/ERC20PermitUpgradeable.sol\":2329:2334  owner */\n      dup15\n      sub(shl(0xa0, 0x01), 0x01)\n        /* \"src/libraries/ERC20PermitUpgradeable.sol\":2321:2335  _nonces[owner] */\n      and\n      sub(shl(0xa0, 0x01), 0x01)\n      and\n      dup2\n      mstore\n      0x20\n      add\n      swap1\n      dup2\n      mstore\n      0x20\n      add\n      0x00\n      keccak256\n        /* \"src/libraries/ERC20PermitUpgradeable.sol\":2321:2343  _nonces[owner].current */\n      tag_193\n        /* \"src/libraries/ERC20PermitUpgradeable.sol\":2321:2345  _nonces[owner].current() */\n      jump\t// in\n    tag_213:\n        /* \"src/libraries/ERC20PermitUpgradeable.sol\":2363:2371  deadline */\n      dup10\n        /* \"src/libraries/ERC20PermitUpgradeable.sol\":2188:2385  abi.encode(... */\n      add(0x20, mload(0x40))\n      tag_214\n      swap7\n      swap6\n      swap5\n      swap4\n      swap3\n      swap2\n      swap1\n      tag_215\n      jump\t// in\n    tag_214:\n      mload(0x40)\n      0x20\n      dup2\n      dup4\n      sub\n      sub\n      dup2\n      mstore\n      swap1\n      0x40\n      mstore\n        /* \"src/libraries/ERC20PermitUpgradeable.sol\":2165:2395  keccak256(... */\n      dup1\n      mload\n      swap1\n      0x20\n      add\n      keccak256\n        /* \"src/libraries/ERC20PermitUpgradeable.sol\":2144:2395  bytes32 structHash = keccak256(... */\n      swap1\n      pop\n        /* \"src/libraries/ERC20PermitUpgradeable.sol\":2406:2418  bytes32 hash */\n      0x00\n        /* \"src/libraries/ERC20PermitUpgradeable.sol\":2421:2449  _hashTypedDataV4(structHash) */\n      tag_216\n        /* \"src/libraries/ERC20PermitUpgradeable.sol\":2438:2448  structHash */\n      dup3\n        /* \"src/libraries/ERC20PermitUpgradeable.sol\":2421:2437  _hashTypedDataV4 */\n      tag_217\n        /* \"src/libraries/ERC20PermitUpgradeable.sol\":2421:2449  _hashTypedDataV4(structHash) */\n      jump\t// in\n    tag_216:\n        /* \"src/libraries/ERC20PermitUpgradeable.sol\":2406:2449  bytes32 hash = _hashTypedDataV4(structHash) */\n      swap1\n      pop\n        /* \"src/libraries/ERC20PermitUpgradeable.sol\":2460:2474  address signer */\n      0x00\n        /* \"src/libraries/ERC20PermitUpgradeable.sol\":2477:2516  ECDSAUpgradeable.recover(hash, v, r, s) */\n      tag_218\n        /* \"src/libraries/ERC20PermitUpgradeable.sol\":2502:2506  hash */\n      dup3\n        /* \"src/libraries/ERC20PermitUpgradeable.sol\":2508:2509  v */\n      dup8\n        /* \"src/libraries/ERC20PermitUpgradeable.sol\":2511:2512  r */\n      dup8\n        /* \"src/libraries/ERC20PermitUpgradeable.sol\":2514:2515  s */\n      dup8\n        /* \"src/libraries/ERC20PermitUpgradeable.sol\":2477:2501  ECDSAUpgradeable.recover */\n      tag_219\n        /* \"src/libraries/ERC20PermitUpgradeable.sol\":2477:2516  ECDSAUpgradeable.recover(hash, v, r, s) */\n      jump\t// in\n    tag_218:\n        /* \"src/libraries/ERC20PermitUpgradeable.sol\":2460:2516  address signer = ECDSAUpgradeable.recover(hash, v, r, s) */\n      swap1\n      pop\n        /* \"src/libraries/ERC20PermitUpgradeable.sol\":2544:2549  owner */\n      dup10\n      sub(shl(0xa0, 0x01), 0x01)\n        /* \"src/libraries/ERC20PermitUpgradeable.sol\":2534:2549  signer == owner */\n      and\n        /* \"src/libraries/ERC20PermitUpgradeable.sol\":2534:2540  signer */\n      dup2\n      sub(shl(0xa0, 0x01), 0x01)\n        /* \"src/libraries/ERC20PermitUpgradeable.sol\":2534:2549  signer == owner */\n      and\n      eq\n        /* \"src/libraries/ERC20PermitUpgradeable.sol\":2526:2584  require(signer == owner, \"ERC20Permit: invalid signature\") */\n      tag_220\n      jumpi\n      mload(0x40)\n      shl(0xe5, 0x461bcd)\n      dup2\n      mstore\n      0x04\n      add\n      tag_146\n      swap1\n      tag_222\n      jump\t// in\n    tag_220:\n      sub(shl(0xa0, 0x01), 0x01)\n        /* \"src/libraries/ERC20PermitUpgradeable.sol\":2595:2609  _nonces[owner] */\n      dup11\n      and\n      0x00\n      swap1\n      dup2\n      mstore\n        /* \"src/libraries/ERC20PermitUpgradeable.sol\":2595:2602  _nonces */\n      0x99\n        /* \"src/libraries/ERC20PermitUpgradeable.sol\":2595:2609  _nonces[owner] */\n      0x20\n      mstore\n      0x40\n      swap1\n      keccak256\n        /* \"src/libraries/ERC20PermitUpgradeable.sol\":2595:2621  _nonces[owner].increment() */\n      tag_223\n      swap1\n        /* \"src/libraries/ERC20PermitUpgradeable.sol\":2595:2619  _nonces[owner].increment */\n      tag_224\n        /* \"src/libraries/ERC20PermitUpgradeable.sol\":2595:2621  _nonces[owner].increment() */\n      jump\t// in\n    tag_223:\n        /* \"src/libraries/ERC20PermitUpgradeable.sol\":2631:2662  _approve(owner, spender, value) */\n      tag_225\n        /* \"src/libraries/ERC20PermitUpgradeable.sol\":2640:2645  owner */\n      dup11\n        /* \"src/libraries/ERC20PermitUpgradeable.sol\":2647:2654  spender */\n      dup11\n        /* \"src/libraries/ERC20PermitUpgradeable.sol\":2656:2661  value */\n      dup11\n        /* \"src/libraries/ERC20PermitUpgradeable.sol\":2631:2639  _approve */\n      tag_122\n        /* \"src/libraries/ERC20PermitUpgradeable.sol\":2631:2662  _approve(owner, spender, value) */\n      jump\t// in\n    tag_225:\n        /* \"src/libraries/ERC20PermitUpgradeable.sol\":1864:2669  function permit(address owner, address spender, uint256 value, uint256 deadline, uint8 v, bytes32 r, bytes32 s) public virtual override {... */\n      pop\n      pop\n      pop\n      pop\n      pop\n      pop\n      pop\n      pop\n      pop\n      pop\n      jump\t// out\n        /* \"src/libraries/ERC20Upgradeable.sol\":4296:4445  function allowance(address owner, address spender) public view virtual override returns (uint256) {... */\n    tag_106:\n      sub(shl(0xa0, 0x01), 0x01)\n        /* \"src/libraries/ERC20Upgradeable.sol\":4411:4429  _allowances[owner] */\n      swap2\n      dup3\n      and\n        /* \"src/libraries/ERC20Upgradeable.sol\":4385:4392  uint256 */\n      0x00\n        /* \"src/libraries/ERC20Upgradeable.sol\":4411:4429  _allowances[owner] */\n      swap1\n      dup2\n      mstore\n        /* \"src/libraries/ERC20Upgradeable.sol\":4411:4422  _allowances */\n      0x34\n        /* \"src/libraries/ERC20Upgradeable.sol\":4411:4429  _allowances[owner] */\n      0x20\n      swap1\n      dup2\n      mstore\n      0x40\n      dup1\n      dup4\n      keccak256\n        /* \"src/libraries/ERC20Upgradeable.sol\":4411:4438  _allowances[owner][spender] */\n      swap4\n      swap1\n      swap5\n      and\n      dup3\n      mstore\n      swap2\n      swap1\n      swap2\n      mstore\n      keccak256\n      sload\n      swap1\n        /* \"src/libraries/ERC20Upgradeable.sol\":4296:4445  function allowance(address owner, address spender) public view virtual override returns (uint256) {... */\n      jump\t// out\n        /* \"src/OwnableUpgradeable.sol\":2263:2503  function transferOwnership(address newOwner) public virtual onlyOwner {... */\n    tag_110:\n        /* \"src/OwnableUpgradeable.sol\":1560:1572  _msgSender() */\n      tag_228\n        /* \"src/OwnableUpgradeable.sol\":1560:1570  _msgSender */\n      tag_121\n        /* \"src/OwnableUpgradeable.sol\":1560:1572  _msgSender() */\n      jump\t// in\n    tag_228:\n      sub(shl(0xa0, 0x01), 0x01)\n        /* \"src/OwnableUpgradeable.sol\":1549:1572  owner() == _msgSender() */\n      and\n        /* \"src/OwnableUpgradeable.sol\":1549:1556  owner() */\n      tag_229\n        /* \"src/OwnableUpgradeable.sol\":1549:1554  owner */\n      tag_85\n        /* \"src/OwnableUpgradeable.sol\":1549:1556  owner() */\n      jump\t// in\n    tag_229:\n      sub(shl(0xa0, 0x01), 0x01)\n        /* \"src/OwnableUpgradeable.sol\":1549:1572  owner() == _msgSender() */\n      and\n      eq\n        /* \"src/OwnableUpgradeable.sol\":1541:1609  require(owner() == _msgSender(), \"Ownable: caller is not the owner\") */\n      tag_230\n      jumpi\n      mload(0x40)\n      shl(0xe5, 0x461bcd)\n      dup2\n      mstore\n      0x04\n      add\n      tag_146\n      swap1\n      tag_147\n      jump\t// in\n    tag_230:\n      sub(shl(0xa0, 0x01), 0x01)\n        /* \"src/OwnableUpgradeable.sol\":2351:2373  newOwner != address(0) */\n      dup2\n      and\n        /* \"src/OwnableUpgradeable.sol\":2343:2416  require(newOwner != address(0), \"Ownable: new owner is the zero address\") */\n      tag_233\n      jumpi\n      mload(0x40)\n      shl(0xe5, 0x461bcd)\n      dup2\n      mstore\n      0x04\n      add\n      tag_146\n      swap1\n      tag_235\n      jump\t// in\n    tag_233:\n        /* \"src/OwnableUpgradeable.sol\":2452:2458  _owner */\n      sload(0xfe)\n        /* \"src/OwnableUpgradeable.sol\":2431:2469  OwnershipTransferred(_owner, newOwner) */\n      mload(0x40)\n      sub(shl(0xa0, 0x01), 0x01)\n      dup1\n      dup5\n      and\n      swap3\n        /* \"src/OwnableUpgradeable.sol\":2452:2458  _owner */\n      and\n      swap1\n        /* \"src/OwnableUpgradeable.sol\":2431:2469  OwnershipTransferred(_owner, newOwner) */\n      0x8be0079c531659141344cd1fd0a4f28419497f9722a3daafe3b4186f6b6457e0\n      swap1\n        /* \"src/OwnableUpgradeable.sol\":2452:2458  _owner */\n      0x00\n      swap1\n        /* \"src/OwnableUpgradeable.sol\":2431:2469  OwnershipTransferred(_owner, newOwner) */\n      log3\n        /* \"src/OwnableUpgradeable.sol\":2479:2485  _owner */\n      0xfe\n        /* \"src/OwnableUpgradeable.sol\":2479:2496  _owner = newOwner */\n      dup1\n      sload\n      not(sub(shl(0xa0, 0x01), 0x01))\n      and\n      sub(shl(0xa0, 0x01), 0x01)\n      swap3\n      swap1\n      swap3\n      and\n      swap2\n      swap1\n      swap2\n      or\n      swap1\n      sstore\n        /* \"src/OwnableUpgradeable.sol\":2263:2503  function transferOwnership(address newOwner) public virtual onlyOwner {... */\n      jump\t// out\n        /* \"src/libraries/ContextUpgradeable.sol\":828:941  function _msgSender() internal view virtual returns (address payable) {... */\n    tag_121:\n        /* \"src/libraries/ContextUpgradeable.sol\":923:933  msg.sender */\n      caller\n        /* \"src/libraries/ContextUpgradeable.sol\":828:941  function _msgSender() internal view virtual returns (address payable) {... */\n      swap1\n      jump\t// out\n        /* \"src/libraries/ERC20Upgradeable.sol\":9694:10034  function _approve(address owner, address spender, uint256 amount) internal virtual {... */\n    tag_122:\n      sub(shl(0xa0, 0x01), 0x01)\n        /* \"src/libraries/ERC20Upgradeable.sol\":9795:9814  owner != address(0) */\n      dup4\n      and\n        /* \"src/libraries/ERC20Upgradeable.sol\":9787:9855  require(owner != address(0), \"ERC20: approve from the zero address\") */\n      tag_238\n      jumpi\n      mload(0x40)\n      shl(0xe5, 0x461bcd)\n      dup2\n      mstore\n      0x04\n      add\n      tag_146\n      swap1\n      tag_240\n      jump\t// in\n    tag_238:\n      sub(shl(0xa0, 0x01), 0x01)\n        /* \"src/libraries/ERC20Upgradeable.sol\":9873:9894  spender != address(0) */\n      dup3\n      and\n        /* \"src/libraries/ERC20Upgradeable.sol\":9865:9933  require(spender != address(0), \"ERC20: approve to the zero address\") */\n      tag_241\n      jumpi\n      mload(0x40)\n      shl(0xe5, 0x461bcd)\n      dup2\n      mstore\n      0x04\n      add\n      tag_146\n      swap1\n      tag_243\n      jump\t// in\n    tag_241:\n      sub(shl(0xa0, 0x01), 0x01)\n        /* \"src/libraries/ERC20Upgradeable.sol\":9944:9962  _allowances[owner] */\n      dup1\n      dup5\n      and\n      0x00\n      dup2\n      dup2\n      mstore\n        /* \"src/libraries/ERC20Upgradeable.sol\":9944:9955  _allowances */\n      0x34\n        /* \"src/libraries/ERC20Upgradeable.sol\":9944:9962  _allowances[owner] */\n      0x20\n      swap1\n      dup2\n      mstore\n      0x40\n      dup1\n      dup4\n      keccak256\n        /* \"src/libraries/ERC20Upgradeable.sol\":9944:9971  _allowances[owner][spender] */\n      swap5\n      dup8\n      and\n      dup1\n      dup5\n      mstore\n      swap5\n      swap1\n      swap2\n      mstore\n      swap1\n      dup2\n      swap1\n      keccak256\n        /* \"src/libraries/ERC20Upgradeable.sol\":9944:9980  _allowances[owner][spender] = amount */\n      dup5\n      swap1\n      sstore\n        /* \"src/libraries/ERC20Upgradeable.sol\":9995:10027  Approval(owner, spender, amount) */\n      mload\n      0x8c5be1e5ebec7d5bd14f71427d1e84f3dd0314c0f7b2291e5b200ac8c7c3b925\n      swap1\n      tag_244\n      swap1\n        /* \"src/libraries/ERC20Upgradeable.sol\":9974:9980  amount */\n      dup6\n      swap1\n        /* \"src/libraries/ERC20Upgradeable.sol\":9995:10027  Approval(owner, spender, amount) */\n      tag_53\n      jump\t// in\n    tag_244:\n      mload(0x40)\n      dup1\n      swap2\n      sub\n      swap1\n      log3\n        /* \"src/libraries/ERC20Upgradeable.sol\":9694:10034  function _approve(address owner, address spender, uint256 amount) internal virtual {... */\n      pop\n      pop\n      pop\n      jump\t// out\n        /* \"src/libraries/ERC20Upgradeable.sol\":7370:7900  function _transfer(address sender, address recipient, uint256 amount) internal virtual {... */\n    tag_126:\n      sub(shl(0xa0, 0x01), 0x01)\n        /* \"src/libraries/ERC20Upgradeable.sol\":7475:7495  sender != address(0) */\n      dup4\n      and\n        /* \"src/libraries/ERC20Upgradeable.sol\":7467:7537  require(sender != address(0), \"ERC20: transfer from the zero address\") */\n      tag_246\n      jumpi\n      mload(0x40)\n      shl(0xe5, 0x461bcd)\n      dup2\n      mstore\n      0x04\n      add\n      tag_146\n      swap1\n      tag_248\n      jump\t// in\n    tag_246:\n      sub(shl(0xa0, 0x01), 0x01)\n        /* \"src/libraries/ERC20Upgradeable.sol\":7555:7578  recipient != address(0) */\n      dup3\n      and\n        /* \"src/libraries/ERC20Upgradeable.sol\":7547:7618  require(recipient != address(0), \"ERC20: transfer to the zero address\") */\n      tag_249\n      jumpi\n      mload(0x40)\n      shl(0xe5, 0x461bcd)\n      dup2\n      mstore\n      0x04\n      add\n      tag_146\n      swap1\n      tag_251\n      jump\t// in\n    tag_249:\n        /* \"src/libraries/ERC20Upgradeable.sol\":7629:7676  _beforeTokenTransfer(sender, recipient, amount) */\n      tag_252\n        /* \"src/libraries/ERC20Upgradeable.sol\":7650:7656  sender */\n      dup4\n        /* \"src/libraries/ERC20Upgradeable.sol\":7658:7667  recipient */\n      dup4\n        /* \"src/libraries/ERC20Upgradeable.sol\":7669:7675  amount */\n      dup4\n        /* \"src/libraries/ERC20Upgradeable.sol\":7629:7649  _beforeTokenTransfer */\n      tag_253\n        /* \"src/libraries/ERC20Upgradeable.sol\":7629:7676  _beforeTokenTransfer(sender, recipient, amount) */\n      jump\t// in\n    tag_252:\n        /* \"src/libraries/ERC20Upgradeable.sol\":7707:7778  _balances[sender].sub(amount, \"ERC20: transfer amount exceeds balance\") */\n      tag_254\n        /* \"src/libraries/ERC20Upgradeable.sol\":7729:7735  amount */\n      dup2\n        /* \"src/libraries/ERC20Upgradeable.sol\":7707:7778  _balances[sender].sub(amount, \"ERC20: transfer amount exceeds balance\") */\n      mload(0x40)\n      dup1\n      0x60\n      add\n      0x40\n      mstore\n      dup1\n      0x26\n      dup2\n      mstore\n      0x20\n      add\n      data_4107e8a8b9e94bf8ff83080ddec1c0bffe897ebc2241b89d44f66b3d274088b6\n      0x26\n      swap2\n      codecopy\n      sub(shl(0xa0, 0x01), 0x01)\n        /* \"src/libraries/ERC20Upgradeable.sol\":7707:7724  _balances[sender] */\n      dup7\n      and\n      0x00\n      swap1\n      dup2\n      mstore\n        /* \"src/libraries/ERC20Upgradeable.sol\":7707:7716  _balances */\n      0x33\n        /* \"src/libraries/ERC20Upgradeable.sol\":7707:7724  _balances[sender] */\n      0x20\n      mstore\n      0x40\n      swap1\n      keccak256\n      sload\n      swap2\n        /* \"src/libraries/ERC20Upgradeable.sol\":7707:7778  _balances[sender].sub(amount, \"ERC20: transfer amount exceeds balance\") */\n      swap1\n        /* \"src/libraries/ERC20Upgradeable.sol\":7707:7728  _balances[sender].sub */\n      tag_131\n        /* \"src/libraries/ERC20Upgradeable.sol\":7707:7778  _balances[sender].sub(amount, \"ERC20: transfer amount exceeds balance\") */\n      jump\t// in\n    tag_254:\n      sub(shl(0xa0, 0x01), 0x01)\n        /* \"src/libraries/ERC20Upgradeable.sol\":7687:7704  _balances[sender] */\n      dup1\n      dup6\n      and\n      0x00\n      swap1\n      dup2\n      mstore\n        /* \"src/libraries/ERC20Upgradeable.sol\":7687:7696  _balances */\n      0x33\n        /* \"src/libraries/ERC20Upgradeable.sol\":7687:7704  _balances[sender] */\n      0x20\n      mstore\n      0x40\n      dup1\n      dup3\n      keccak256\n        /* \"src/libraries/ERC20Upgradeable.sol\":7687:7778  _balances[sender] = _balances[sender].sub(amount, \"ERC20: transfer amount exceeds balance\") */\n      swap4\n      swap1\n      swap4\n      sstore\n        /* \"src/libraries/ERC20Upgradeable.sol\":7811:7831  _balances[recipient] */\n      swap1\n      dup5\n      and\n      dup2\n      mstore\n      keccak256\n      sload\n        /* \"src/libraries/ERC20Upgradeable.sol\":7811:7843  _balances[recipient].add(amount) */\n      tag_255\n      swap1\n        /* \"src/libraries/ERC20Upgradeable.sol\":7836:7842  amount */\n      dup3\n        /* \"src/libraries/ERC20Upgradeable.sol\":7811:7835  _balances[recipient].add */\n      tag_141\n        /* \"src/libraries/ERC20Upgradeable.sol\":7811:7843  _balances[recipient].add(amount) */\n      jump\t// in\n    tag_255:\n      sub(shl(0xa0, 0x01), 0x01)\n        /* \"src/libraries/ERC20Upgradeable.sol\":7788:7808  _balances[recipient] */\n      dup1\n      dup5\n      and\n      0x00\n      dup2\n      dup2\n      mstore\n        /* \"src/libraries/ERC20Upgradeable.sol\":7788:7797  _balances */\n      0x33\n        /* \"src/libraries/ERC20Upgradeable.sol\":7788:7808  _balances[recipient] */\n      0x20\n      mstore\n      0x40\n      swap1\n      dup2\n      swap1\n      keccak256\n        /* \"src/libraries/ERC20Upgradeable.sol\":7788:7843  _balances[recipient] = _balances[recipient].add(amount) */\n      swap4\n      swap1\n      swap4\n      sstore\n        /* \"src/libraries/ERC20Upgradeable.sol\":7858:7893  Transfer(sender, recipient, amount) */\n      swap2\n      mload\n      swap1\n      dup6\n      and\n      swap1\n      0xddf252ad1be2c89b69c2b068fc378daa952ba7f163c4a11628f55a4df523b3ef\n      swap1\n      tag_244\n      swap1\n        /* \"src/libraries/ERC20Upgradeable.sol\":7886:7892  amount */\n      dup6\n      swap1\n        /* \"src/libraries/ERC20Upgradeable.sol\":7858:7893  Transfer(sender, recipient, amount) */\n      tag_53\n      jump\t// in\n        /* \"src/libraries/SafeMathUpgradeable.sol\":5443:5606  function sub(uint256 a, uint256 b, string memory errorMessage) internal pure returns (uint256) {... */\n    tag_131:\n        /* \"src/libraries/SafeMathUpgradeable.sol\":5529:5536  uint256 */\n      0x00\n        /* \"src/libraries/SafeMathUpgradeable.sol\":5564:5576  errorMessage */\n      dup2\n        /* \"src/libraries/SafeMathUpgradeable.sol\":5556:5562  b <= a */\n      dup5\n      dup5\n      gt\n      iszero\n        /* \"src/libraries/SafeMathUpgradeable.sol\":5548:5577  require(b <= a, errorMessage) */\n      tag_258\n      jumpi\n      mload(0x40)\n      shl(0xe5, 0x461bcd)\n      dup2\n      mstore\n      0x04\n      add\n      tag_146\n      swap2\n      swap1\n      tag_30\n      jump\t// in\n    tag_258:\n      pop\n        /* \"src/libraries/SafeMathUpgradeable.sol\":5594:5599  a - b */\n      tag_260\n        /* \"src/libraries/SafeMathUpgradeable.sol\":5598:5599  b */\n      dup4\n        /* \"src/libraries/SafeMathUpgradeable.sol\":5594:5595  a */\n      dup6\n        /* \"src/libraries/SafeMathUpgradeable.sol\":5594:5599  a - b */\n      tag_261\n      jump\t// in\n    tag_260:\n        /* \"src/libraries/SafeMathUpgradeable.sol\":5587:5599  return a - b */\n      swap5\n        /* \"src/libraries/SafeMathUpgradeable.sol\":5443:5606  function sub(uint256 a, uint256 b, string memory errorMessage) internal pure returns (uint256) {... */\n      swap4\n      pop\n      pop\n      pop\n      pop\n      jump\t// out\n        /* \"src/libraries/EIP712Upgradeable.sol\":2695:2855  function _domainSeparatorV4() internal view returns (bytes32) {... */\n    tag_135:\n        /* \"src/libraries/EIP712Upgradeable.sol\":2748:2755  bytes32 */\n      0x00\n        /* \"src/libraries/EIP712Upgradeable.sol\":2774:2848  _buildDomainSeparator(_TYPE_HASH, _EIP712NameHash(), _EIP712VersionHash()) */\n      tag_134\n        /* \"src/libraries/EIP712Upgradeable.sol\":1459:1554  keccak256(\"EIP712Domain(string name,string version,uint256 chainId,address verifyingContract)\") */\n      0x8b73c3c69bb8fe3d512ecc4cf759cc79239f7b179b0ffacaa9a75d522b39400f\n        /* \"src/libraries/EIP712Upgradeable.sol\":2808:2825  _EIP712NameHash() */\n      tag_264\n        /* \"src/libraries/EIP712Upgradeable.sol\":2808:2823  _EIP712NameHash */\n      tag_265\n        /* \"src/libraries/EIP712Upgradeable.sol\":2808:2825  _EIP712NameHash() */\n      jump\t// in\n    tag_264:\n        /* \"src/libraries/EIP712Upgradeable.sol\":2827:2847  _EIP712VersionHash() */\n      tag_266\n        /* \"src/libraries/EIP712Upgradeable.sol\":2827:2845  _EIP712VersionHash */\n      tag_267\n        /* \"src/libraries/EIP712Upgradeable.sol\":2827:2847  _EIP712VersionHash() */\n      jump\t// in\n    tag_266:\n        /* \"src/libraries/EIP712Upgradeable.sol\":2774:2795  _buildDomainSeparator */\n      tag_268\n        /* \"src/libraries/EIP712Upgradeable.sol\":2774:2848  _buildDomainSeparator(_TYPE_HASH, _EIP712NameHash(), _EIP712VersionHash()) */\n      jump\t// in\n        /* \"src/libraries/SafeMathUpgradeable.sol\":2701:2876  function add(uint256 a, uint256 b) internal pure returns (uint256) {... */\n    tag_141:\n        /* \"src/libraries/SafeMathUpgradeable.sol\":2759:2766  uint256 */\n      0x00\n      dup1\n        /* \"src/libraries/SafeMathUpgradeable.sol\":2790:2795  a + b */\n      tag_270\n        /* \"src/libraries/SafeMathUpgradeable.sol\":2794:2795  b */\n      dup4\n        /* \"src/libraries/SafeMathUpgradeable.sol\":2790:2791  a */\n      dup6\n        /* \"src/libraries/SafeMathUpgradeable.sol\":2790:2795  a + b */\n      tag_271\n      jump\t// in\n    tag_270:\n        /* \"src/libraries/SafeMathUpgradeable.sol\":2778:2795  uint256 c = a + b */\n      swap1\n      pop\n        /* \"src/libraries/SafeMathUpgradeable.sol\":2818:2819  a */\n      dup4\n        /* \"src/libraries/SafeMathUpgradeable.sol\":2813:2814  c */\n      dup2\n        /* \"src/libraries/SafeMathUpgradeable.sol\":2813:2819  c >= a */\n      lt\n      iszero\n        /* \"src/libraries/SafeMathUpgradeable.sol\":2805:2851  require(c >= a, \"SafeMath: addition overflow\") */\n      tag_272\n      jumpi\n      mload(0x40)\n      shl(0xe5, 0x461bcd)\n      dup2\n      mstore\n      0x04\n      add\n      tag_146\n      swap1\n      tag_274\n      jump\t// in\n    tag_272:\n        /* \"src/libraries/SafeMathUpgradeable.sol\":2868:2869  c */\n      swap4\n        /* \"src/libraries/SafeMathUpgradeable.sol\":2701:2876  function add(uint256 a, uint256 b) internal pure returns (uint256) {... */\n      swap3\n      pop\n      pop\n      pop\n      jump\t// out\n        /* \"src/libraries/ERC20Upgradeable.sol\":8171:8541  function _mint(address account, uint256 amount) internal virtual {... */\n    tag_153:\n      sub(shl(0xa0, 0x01), 0x01)\n        /* \"src/libraries/ERC20Upgradeable.sol\":8254:8275  account != address(0) */\n      dup3\n      and\n        /* \"src/libraries/ERC20Upgradeable.sol\":8246:8311  require(account != address(0), \"ERC20: mint to the zero address\") */\n      tag_276\n      jumpi\n      mload(0x40)\n      shl(0xe5, 0x461bcd)\n      dup2\n      mstore\n      0x04\n      add\n      tag_146\n      swap1\n      tag_278\n      jump\t// in\n    tag_276:\n        /* \"src/libraries/ERC20Upgradeable.sol\":8322:8371  _beforeTokenTransfer(address(0), account, amount) */\n      tag_279\n        /* \"src/libraries/ERC20Upgradeable.sol\":8351:8352  0 */\n      0x00\n        /* \"src/libraries/ERC20Upgradeable.sol\":8355:8362  account */\n      dup4\n        /* \"src/libraries/ERC20Upgradeable.sol\":8364:8370  amount */\n      dup4\n        /* \"src/libraries/ERC20Upgradeable.sol\":8322:8342  _beforeTokenTransfer */\n      tag_253\n        /* \"src/libraries/ERC20Upgradeable.sol\":8322:8371  _beforeTokenTransfer(address(0), account, amount) */\n      jump\t// in\n    tag_279:\n        /* \"src/libraries/ERC20Upgradeable.sol\":8397:8409  _totalSupply */\n      sload(0x35)\n        /* \"src/libraries/ERC20Upgradeable.sol\":8397:8421  _totalSupply.add(amount) */\n      tag_280\n      swap1\n        /* \"src/libraries/ERC20Upgradeable.sol\":8414:8420  amount */\n      dup3\n        /* \"src/libraries/ERC20Upgradeable.sol\":8397:8413  _totalSupply.add */\n      tag_141\n        /* \"src/libraries/ERC20Upgradeable.sol\":8397:8421  _totalSupply.add(amount) */\n      jump\t// in\n    tag_280:\n        /* \"src/libraries/ERC20Upgradeable.sol\":8382:8394  _totalSupply */\n      0x35\n        /* \"src/libraries/ERC20Upgradeable.sol\":8382:8421  _totalSupply = _totalSupply.add(amount) */\n      sstore\n      sub(shl(0xa0, 0x01), 0x01)\n        /* \"src/libraries/ERC20Upgradeable.sol\":8452:8470  _balances[account] */\n      dup3\n      and\n      0x00\n      swap1\n      dup2\n      mstore\n        /* \"src/libraries/ERC20Upgradeable.sol\":8452:8461  _balances */\n      0x33\n        /* \"src/libraries/ERC20Upgradeable.sol\":8452:8470  _balances[account] */\n      0x20\n      mstore\n      0x40\n      swap1\n      keccak256\n      sload\n        /* \"src/libraries/ERC20Upgradeable.sol\":8452:8482  _balances[account].add(amount) */\n      tag_281\n      swap1\n        /* \"src/libraries/ERC20Upgradeable.sol\":8475:8481  amount */\n      dup3\n        /* \"src/libraries/ERC20Upgradeable.sol\":8452:8474  _balances[account].add */\n      tag_141\n        /* \"src/libraries/ERC20Upgradeable.sol\":8452:8482  _balances[account].add(amount) */\n      jump\t// in\n    tag_281:\n      sub(shl(0xa0, 0x01), 0x01)\n        /* \"src/libraries/ERC20Upgradeable.sol\":8431:8449  _balances[account] */\n      dup4\n      and\n      0x00\n      dup2\n      dup2\n      mstore\n        /* \"src/libraries/ERC20Upgradeable.sol\":8431:8440  _balances */\n      0x33\n        /* \"src/libraries/ERC20Upgradeable.sol\":8431:8449  _balances[account] */\n      0x20\n      mstore\n      0x40\n      dup1\n      dup3\n      keccak256\n        /* \"src/libraries/ERC20Upgradeable.sol\":8431:8482  _balances[account] = _balances[account].add(amount) */\n      swap4\n      swap1\n      swap4\n      sstore\n        /* \"src/libraries/ERC20Upgradeable.sol\":8497:8534  Transfer(address(0), account, amount) */\n      swap2\n      mload\n        /* \"src/libraries/ERC20Upgradeable.sol\":8431:8449  _balances[account] */\n      swap1\n      swap2\n      swap1\n        /* \"src/libraries/ERC20Upgradeable.sol\":8497:8534  Transfer(address(0), account, amount) */\n      0xddf252ad1be2c89b69c2b068fc378daa952ba7f163c4a11628f55a4df523b3ef\n      swap1\n      tag_282\n      swap1\n        /* \"src/libraries/ERC20Upgradeable.sol\":8527:8533  amount */\n      dup6\n      swap1\n        /* \"src/libraries/ERC20Upgradeable.sol\":8497:8534  Transfer(address(0), account, amount) */\n      tag_53\n      jump\t// in\n    tag_282:\n      mload(0x40)\n      dup1\n      swap2\n      sub\n      swap1\n      log3\n        /* \"src/libraries/ERC20Upgradeable.sol\":8171:8541  function _mint(address account, uint256 amount) internal virtual {... */\n      pop\n      pop\n      jump\t// out\n        /* \"src/libraries/ERC20Upgradeable.sol\":8861:9271  function _burn(address account, uint256 amount) internal virtual {... */\n    tag_157:\n      sub(shl(0xa0, 0x01), 0x01)\n        /* \"src/libraries/ERC20Upgradeable.sol\":8944:8965  account != address(0) */\n      dup3\n      and\n        /* \"src/libraries/ERC20Upgradeable.sol\":8936:9003  require(account != address(0), \"ERC20: burn from the zero address\") */\n      tag_284\n      jumpi\n      mload(0x40)\n      shl(0xe5, 0x461bcd)\n      dup2\n      mstore\n      0x04\n      add\n      tag_146\n      swap1\n      tag_286\n      jump\t// in\n    tag_284:\n        /* \"src/libraries/ERC20Upgradeable.sol\":9014:9063  _beforeTokenTransfer(account, address(0), amount) */\n      tag_287\n        /* \"src/libraries/ERC20Upgradeable.sol\":9035:9042  account */\n      dup3\n        /* \"src/libraries/ERC20Upgradeable.sol\":9052:9053  0 */\n      0x00\n        /* \"src/libraries/ERC20Upgradeable.sol\":9056:9062  amount */\n      dup4\n        /* \"src/libraries/ERC20Upgradeable.sol\":9014:9034  _beforeTokenTransfer */\n      tag_253\n        /* \"src/libraries/ERC20Upgradeable.sol\":9014:9063  _beforeTokenTransfer(account, address(0), amount) */\n      jump\t// in\n    tag_287:\n        /* \"src/libraries/ERC20Upgradeable.sol\":9095:9163  _balances[account].sub(amount, \"ERC20: burn amount exceeds balance\") */\n      tag_288\n        /* \"src/libraries/ERC20Upgradeable.sol\":9118:9124  amount */\n      dup2\n        /* \"src/libraries/ERC20Upgradeable.sol\":9095:9163  _balances[account].sub(amount, \"ERC20: burn amount exceeds balance\") */\n      mload(0x40)\n      dup1\n      0x60\n      add\n      0x40\n      mstore\n      dup1\n      0x22\n      dup2\n      mstore\n      0x20\n      add\n      data_149b126e7125232b4200af45303d04fba8b74653b1a295a6a561a528c33fefdd\n      0x22\n      swap2\n      codecopy\n      sub(shl(0xa0, 0x01), 0x01)\n        /* \"src/libraries/ERC20Upgradeable.sol\":9095:9113  _balances[account] */\n      dup6\n      and\n      0x00\n      swap1\n      dup2\n      mstore\n        /* \"src/libraries/ERC20Upgradeable.sol\":9095:9104  _balances */\n      0x33\n        /* \"src/libraries/ERC20Upgradeable.sol\":9095:9113  _balances[account] */\n      0x20\n      mstore\n      0x40\n      swap1\n      keccak256\n      sload\n      swap2\n        /* \"src/libraries/ERC20Upgradeable.sol\":9095:9163  _balances[account].sub(amount, \"ERC20: burn amount exceeds balance\") */\n      swap1\n        /* \"src/libraries/ERC20Upgradeable.sol\":9095:9117  _balances[account].sub */\n      tag_131\n        /* \"src/libraries/ERC20Upgradeable.sol\":9095:9163  _balances[account].sub(amount, \"ERC20: burn amount exceeds balance\") */\n      jump\t// in\n    tag_288:\n      sub(shl(0xa0, 0x01), 0x01)\n        /* \"src/libraries/ERC20Upgradeable.sol\":9074:9092  _balances[account] */\n      dup4\n      and\n      0x00\n      swap1\n      dup2\n      mstore\n        /* \"src/libraries/ERC20Upgradeable.sol\":9074:9083  _balances */\n      0x33\n        /* \"src/libraries/ERC20Upgradeable.sol\":9074:9092  _balances[account] */\n      0x20\n      mstore\n      0x40\n      swap1\n      keccak256\n        /* \"src/libraries/ERC20Upgradeable.sol\":9074:9163  _balances[account] = _balances[account].sub(amount, \"ERC20: burn amount exceeds balance\") */\n      sstore\n        /* \"src/libraries/ERC20Upgradeable.sol\":9188:9200  _totalSupply */\n      sload(0x35)\n        /* \"src/libraries/ERC20Upgradeable.sol\":9188:9212  _totalSupply.sub(amount) */\n      tag_289\n      swap1\n        /* \"src/libraries/ERC20Upgradeable.sol\":9205:9211  amount */\n      dup3\n        /* \"src/libraries/ERC20Upgradeable.sol\":9188:9204  _totalSupply.sub */\n      tag_290\n        /* \"src/libraries/ERC20Upgradeable.sol\":9188:9212  _totalSupply.sub(amount) */\n      jump\t// in\n    tag_289:\n        /* \"src/libraries/ERC20Upgradeable.sol\":9173:9185  _totalSupply */\n      0x35\n        /* \"src/libraries/ERC20Upgradeable.sol\":9173:9212  _totalSupply = _totalSupply.sub(amount) */\n      sstore\n        /* \"src/libraries/ERC20Upgradeable.sol\":9227:9264  Transfer(account, address(0), amount) */\n      mload(0x40)\n        /* \"src/libraries/ERC20Upgradeable.sol\":9253:9254  0 */\n      0x00\n      swap1\n      sub(shl(0xa0, 0x01), 0x01)\n        /* \"src/libraries/ERC20Upgradeable.sol\":9227:9264  Transfer(account, address(0), amount) */\n      dup5\n      and\n      swap1\n      0xddf252ad1be2c89b69c2b068fc378daa952ba7f163c4a11628f55a4df523b3ef\n      swap1\n      tag_282\n      swap1\n        /* \"src/libraries/ERC20Upgradeable.sol\":9257:9263  amount */\n      dup6\n      swap1\n        /* \"src/libraries/ERC20Upgradeable.sol\":9227:9264  Transfer(account, address(0), amount) */\n      tag_53\n      jump\t// in\n        /* \"src/proxy/Initializable.sol\":1952:2075  function _isConstructor() private view returns (bool) {... */\n    tag_161:\n        /* \"src/proxy/Initializable.sol\":2000:2004  bool */\n      0x00\n        /* \"src/proxy/Initializable.sol\":2024:2068  AddressUpgradeable.isContract(address(this)) */\n      tag_293\n        /* \"src/proxy/Initializable.sol\":2062:2066  this */\n      address\n        /* \"src/proxy/Initializable.sol\":2024:2053  AddressUpgradeable.isContract */\n      tag_294\n        /* \"src/proxy/Initializable.sol\":2024:2068  AddressUpgradeable.isContract(address(this)) */\n      jump\t// in\n    tag_293:\n        /* \"src/proxy/Initializable.sol\":2023:2068  !AddressUpgradeable.isContract(address(this)) */\n      iszero\n        /* \"src/proxy/Initializable.sol\":2016:2068  return !AddressUpgradeable.isContract(address(this)) */\n      swap1\n      pop\n        /* \"src/proxy/Initializable.sol\":1952:2075  function _isConstructor() private view returns (bool) {... */\n      swap1\n      jump\t// out\n        /* \"src/libraries/ContextUpgradeable.sol\":759:823  function __Context_init_unchained() internal initializer {... */\n    tag_169:\n        /* \"src/proxy/Initializable.sol\":1512:1525  _initializing */\n      sload(0x00)\n      0x0100\n      swap1\n      div\n      0xff\n      and\n      dup1\n        /* \"src/proxy/Initializable.sol\":1512:1545  _initializing || _isConstructor() */\n      tag_297\n      jumpi\n      pop\n        /* \"src/proxy/Initializable.sol\":1529:1545  _isConstructor() */\n      tag_297\n        /* \"src/proxy/Initializable.sol\":1529:1543  _isConstructor */\n      tag_161\n        /* \"src/proxy/Initializable.sol\":1529:1545  _isConstructor() */\n      jump\t// in\n    tag_297:\n        /* \"src/proxy/Initializable.sol\":1512:1562  _initializing || _isConstructor() || !_initialized */\n      dup1\n      tag_298\n      jumpi\n      pop\n        /* \"src/proxy/Initializable.sol\":1550:1562  _initialized */\n      and(0xff, sload(0x00))\n        /* \"src/proxy/Initializable.sol\":1549:1562  !_initialized */\n      iszero\n        /* \"src/proxy/Initializable.sol\":1512:1562  _initializing || _isConstructor() || !_initialized */\n    tag_298:\n        /* \"src/proxy/Initializable.sol\":1504:1613  require(_initializing || _isConstructor() || !_initialized, \"Initializable: contract is already initialized\") */\n      tag_299\n      jumpi\n      mload(0x40)\n      shl(0xe5, 0x461bcd)\n      dup2\n      mstore\n      0x04\n      add\n      tag_146\n      swap1\n      tag_165\n      jump\t// in\n    tag_299:\n        /* \"src/proxy/Initializable.sol\":1624:1643  bool isTopLevelCall */\n      0x00\n        /* \"src/proxy/Initializable.sol\":1647:1660  _initializing */\n      sload\n      0x0100\n      swap1\n      div\n      0xff\n      and\n        /* \"src/proxy/Initializable.sol\":1646:1660  !_initializing */\n      iszero\n        /* \"src/proxy/Initializable.sol\":1670:1768  if (isTopLevelCall) {... */\n      dup1\n      iszero\n      tag_301\n      jumpi\n        /* \"src/proxy/Initializable.sol\":1704:1717  _initializing */\n      0x00\n        /* \"src/proxy/Initializable.sol\":1704:1724  _initializing = true */\n      dup1\n      sload\n      not(0xff)\n      not(0xff00)\n      swap1\n      swap2\n      and\n      0x0100\n      or\n        /* \"src/proxy/Initializable.sol\":1738:1757  _initialized = true */\n      and\n        /* \"src/proxy/Initializable.sol\":1720:1724  true */\n      0x01\n        /* \"src/proxy/Initializable.sol\":1738:1757  _initialized = true */\n      or\n      swap1\n      sstore\n        /* \"src/proxy/Initializable.sol\":1670:1768  if (isTopLevelCall) {... */\n    tag_301:\n        /* \"src/proxy/Initializable.sol\":1794:1808  isTopLevelCall */\n      dup1\n        /* \"src/proxy/Initializable.sol\":1790:1856  if (isTopLevelCall) {... */\n      iszero\n      tag_155\n      jumpi\n        /* \"src/proxy/Initializable.sol\":1840:1845  false */\n      0x00\n        /* \"src/proxy/Initializable.sol\":1824:1845  _initializing = false */\n      dup1\n      sload\n      not(0xff00)\n      and\n      swap1\n      sstore\n        /* \"src/libraries/ContextUpgradeable.sol\":759:823  function __Context_init_unchained() internal initializer {... */\n      pop\n      jump\t// out\n        /* \"src/libraries/ERC20Upgradeable.sol\":2264:2442  function __ERC20_init_unchained(string memory name_, string memory symbol_) internal initializer {... */\n    tag_171:\n        /* \"src/proxy/Initializable.sol\":1512:1525  _initializing */\n      sload(0x00)\n      0x0100\n      swap1\n      div\n      0xff\n      and\n      dup1\n        /* \"src/proxy/Initializable.sol\":1512:1545  _initializing || _isConstructor() */\n      tag_306\n      jumpi\n      pop\n        /* \"src/proxy/Initializable.sol\":1529:1545  _isConstructor() */\n      tag_306\n        /* \"src/proxy/Initializable.sol\":1529:1543  _isConstructor */\n      tag_161\n        /* \"src/proxy/Initializable.sol\":1529:1545  _isConstructor() */\n      jump\t// in\n    tag_306:\n        /* \"src/proxy/Initializable.sol\":1512:1562  _initializing || _isConstructor() || !_initialized */\n      dup1\n      tag_307\n      jumpi\n      pop\n        /* \"src/proxy/Initializable.sol\":1550:1562  _initialized */\n      and(0xff, sload(0x00))\n        /* \"src/proxy/Initializable.sol\":1549:1562  !_initialized */\n      iszero\n        /* \"src/proxy/Initializable.sol\":1512:1562  _initializing || _isConstructor() || !_initialized */\n    tag_307:\n        /* \"src/proxy/Initializable.sol\":1504:1613  require(_initializing || _isConstructor() || !_initialized, \"Initializable: contract is already initialized\") */\n      tag_308\n      jumpi\n      mload(0x40)\n      shl(0xe5, 0x461bcd)\n      dup2\n      mstore\n      0x04\n      add\n      tag_146\n      swap1\n      tag_165\n      jump\t// in\n    tag_308:\n        /* \"src/proxy/Initializable.sol\":1624:1643  bool isTopLevelCall */\n      0x00\n        /* \"src/proxy/Initializable.sol\":1647:1660  _initializing */\n      sload\n      0x0100\n      swap1\n      div\n      0xff\n      and\n        /* \"src/proxy/Initializable.sol\":1646:1660  !_initializing */\n      iszero\n        /* \"src/proxy/Initializable.sol\":1670:1768  if (isTopLevelCall) {... */\n      dup1\n      iszero\n      tag_310\n      jumpi\n        /* \"src/proxy/Initializable.sol\":1704:1717  _initializing */\n      0x00\n        /* \"src/proxy/Initializable.sol\":1704:1724  _initializing = true */\n      dup1\n      sload\n      not(0xff)\n      not(0xff00)\n      swap1\n      swap2\n      and\n      0x0100\n      or\n        /* \"src/proxy/Initializable.sol\":1738:1757  _initialized = true */\n      and\n        /* \"src/proxy/Initializable.sol\":1720:1724  true */\n      0x01\n        /* \"src/proxy/Initializable.sol\":1738:1757  _initialized = true */\n      or\n      swap1\n      sstore\n        /* \"src/proxy/Initializable.sol\":1670:1768  if (isTopLevelCall) {... */\n    tag_310:\n        /* \"src/libraries/ERC20Upgradeable.sol\":2371:2384  _name = name_ */\n      dup3\n      mload\n      tag_312\n      swap1\n        /* \"src/libraries/ERC20Upgradeable.sol\":2371:2376  _name */\n      0x36\n      swap1\n        /* \"src/libraries/ERC20Upgradeable.sol\":2371:2384  _name = name_ */\n      0x20\n      dup7\n      add\n      swap1\n      tag_313\n      jump\t// in\n    tag_312:\n      pop\n        /* \"src/libraries/ERC20Upgradeable.sol\":2394:2411  _symbol = symbol_ */\n      dup2\n      mload\n      tag_314\n      swap1\n        /* \"src/libraries/ERC20Upgradeable.sol\":2394:2401  _symbol */\n      0x37\n      swap1\n        /* \"src/libraries/ERC20Upgradeable.sol\":2394:2411  _symbol = symbol_ */\n      0x20\n      dup6\n      add\n      swap1\n      tag_313\n      jump\t// in\n    tag_314:\n      pop\n        /* \"src/libraries/ERC20Upgradeable.sol\":2421:2430  _decimals */\n      0x38\n        /* \"src/libraries/ERC20Upgradeable.sol\":2421:2435  _decimals = 18 */\n      dup1\n      sload\n      not(0xff)\n      and\n        /* \"src/libraries/ERC20Upgradeable.sol\":2433:2435  18 */\n      0x12\n        /* \"src/libraries/ERC20Upgradeable.sol\":2421:2435  _decimals = 18 */\n      or\n      swap1\n      sstore\n        /* \"src/proxy/Initializable.sol\":1790:1856  if (isTopLevelCall) {... */\n      dup1\n      iszero\n      tag_190\n      jumpi\n        /* \"src/proxy/Initializable.sol\":1840:1845  false */\n      0x00\n        /* \"src/proxy/Initializable.sol\":1824:1845  _initializing = false */\n      dup1\n      sload\n      not(0xff00)\n      and\n      swap1\n      sstore\n        /* \"src/libraries/ERC20Upgradeable.sol\":2264:2442  function __ERC20_init_unchained(string memory name_, string memory symbol_) internal initializer {... */\n      pop\n      pop\n      pop\n      jump\t// out\n        /* \"src/libraries/ERC20PermitUpgradeable.sol\":1387:1587  function __ERC20Permit_init(string memory name) internal initializer {... */\n    tag_173:\n        /* \"src/proxy/Initializable.sol\":1512:1525  _initializing */\n      sload(0x00)\n      0x0100\n      swap1\n      div\n      0xff\n      and\n      dup1\n        /* \"src/proxy/Initializable.sol\":1512:1545  _initializing || _isConstructor() */\n      tag_318\n      jumpi\n      pop\n        /* \"src/proxy/Initializable.sol\":1529:1545  _isConstructor() */\n      tag_318\n        /* \"src/proxy/Initializable.sol\":1529:1543  _isConstructor */\n      tag_161\n        /* \"src/proxy/Initializable.sol\":1529:1545  _isConstructor() */\n      jump\t// in\n    tag_318:\n        /* \"src/proxy/Initializable.sol\":1512:1562  _initializing || _isConstructor() || !_initialized */\n      dup1\n      tag_319\n      jumpi\n      pop\n        /* \"src/proxy/Initializable.sol\":1550:1562  _initialized */\n      and(0xff, sload(0x00))\n        /* \"src/proxy/Initializable.sol\":1549:1562  !_initialized */\n      iszero\n        /* \"src/proxy/Initializable.sol\":1512:1562  _initializing || _isConstructor() || !_initialized */\n    tag_319:\n        /* \"src/proxy/Initializable.sol\":1504:1613  require(_initializing || _isConstructor() || !_initialized, \"Initializable: contract is already initialized\") */\n      tag_320\n      jumpi\n      mload(0x40)\n      shl(0xe5, 0x461bcd)\n      dup2\n      mstore\n      0x04\n      add\n      tag_146\n      swap1\n      tag_165\n      jump\t// in\n    tag_320:\n        /* \"src/proxy/Initializable.sol\":1624:1643  bool isTopLevelCall */\n      0x00\n        /* \"src/proxy/Initializable.sol\":1647:1660  _initializing */\n      sload\n      0x0100\n      swap1\n      div\n      0xff\n      and\n        /* \"src/proxy/Initializable.sol\":1646:1660  !_initializing */\n      iszero\n        /* \"src/proxy/Initializable.sol\":1670:1768  if (isTopLevelCall) {... */\n      dup1\n      iszero\n      tag_322\n      jumpi\n        /* \"src/proxy/Initializable.sol\":1704:1717  _initializing */\n      0x00\n        /* \"src/proxy/Initializable.sol\":1704:1724  _initializing = true */\n      dup1\n      sload\n      not(0xff)\n      not(0xff00)\n      swap1\n      swap2\n      and\n      0x0100\n      or\n        /* \"src/proxy/Initializable.sol\":1738:1757  _initialized = true */\n      and\n        /* \"src/proxy/Initializable.sol\":1720:1724  true */\n      0x01\n        /* \"src/proxy/Initializable.sol\":1738:1757  _initialized = true */\n      or\n      swap1\n      sstore\n        /* \"src/proxy/Initializable.sol\":1670:1768  if (isTopLevelCall) {... */\n    tag_322:\n        /* \"src/libraries/ERC20PermitUpgradeable.sol\":1466:1492  __Context_init_unchained() */\n      tag_324\n        /* \"src/libraries/ERC20PermitUpgradeable.sol\":1466:1490  __Context_init_unchained */\n      tag_169\n        /* \"src/libraries/ERC20PermitUpgradeable.sol\":1466:1492  __Context_init_unchained() */\n      jump\t// in\n    tag_324:\n        /* \"src/libraries/ERC20PermitUpgradeable.sol\":1502:1536  __EIP712_init_unchained(name, \"1\") */\n      tag_325\n        /* \"src/libraries/ERC20PermitUpgradeable.sol\":1526:1530  name */\n      dup3\n        /* \"src/libraries/ERC20PermitUpgradeable.sol\":1502:1536  __EIP712_init_unchained(name, \"1\") */\n      mload(0x40)\n      dup1\n      0x40\n      add\n      0x40\n      mstore\n      dup1\n      0x01\n      dup2\n      mstore\n      0x20\n      add\n      shl(0xf8, 0x31)\n      dup2\n      mstore\n      pop\n        /* \"src/libraries/ERC20PermitUpgradeable.sol\":1502:1525  __EIP712_init_unchained */\n      tag_326\n        /* \"src/libraries/ERC20PermitUpgradeable.sol\":1502:1536  __EIP712_init_unchained(name, \"1\") */\n      jump\t// in\n    tag_325:\n        /* \"src/libraries/ERC20PermitUpgradeable.sol\":1546:1580  __ERC20Permit_init_unchained(name) */\n      tag_327\n        /* \"src/libraries/ERC20PermitUpgradeable.sol\":1575:1579  name */\n      dup3\n        /* \"src/libraries/ERC20PermitUpgradeable.sol\":1546:1574  __ERC20Permit_init_unchained */\n      tag_328\n        /* \"src/libraries/ERC20PermitUpgradeable.sol\":1546:1580  __ERC20Permit_init_unchained(name) */\n      jump\t// in\n    tag_327:\n        /* \"src/proxy/Initializable.sol\":1794:1808  isTopLevelCall */\n      dup1\n        /* \"src/proxy/Initializable.sol\":1790:1856  if (isTopLevelCall) {... */\n      iszero\n      tag_152\n      jumpi\n        /* \"src/proxy/Initializable.sol\":1840:1845  false */\n      0x00\n        /* \"src/proxy/Initializable.sol\":1824:1845  _initializing = false */\n      dup1\n      sload\n      not(0xff00)\n      and\n      swap1\n      sstore\n        /* \"src/libraries/ERC20PermitUpgradeable.sol\":1387:1587  function __ERC20Permit_init(string memory name) internal initializer {... */\n      pop\n      pop\n      jump\t// out\n        /* \"src/OwnableUpgradeable.sol\":1069:1261  function __Ownable_init_unchained() internal initializer {... */\n    tag_175:\n        /* \"src/proxy/Initializable.sol\":1512:1525  _initializing */\n      sload(0x00)\n      0x0100\n      swap1\n      div\n      0xff\n      and\n      dup1\n        /* \"src/proxy/Initializable.sol\":1512:1545  _initializing || _isConstructor() */\n      tag_332\n      jumpi\n      pop\n        /* \"src/proxy/Initializable.sol\":1529:1545  _isConstructor() */\n      tag_332\n        /* \"src/proxy/Initializable.sol\":1529:1543  _isConstructor */\n      tag_161\n        /* \"src/proxy/Initializable.sol\":1529:1545  _isConstructor() */\n      jump\t// in\n    tag_332:\n        /* \"src/proxy/Initializable.sol\":1512:1562  _initializing || _isConstructor() || !_initialized */\n      dup1\n      tag_333\n      jumpi\n      pop\n        /* \"src/proxy/Initializable.sol\":1550:1562  _initialized */\n      and(0xff, sload(0x00))\n        /* \"src/proxy/Initializable.sol\":1549:1562  !_initialized */\n      iszero\n        /* \"src/proxy/Initializable.sol\":1512:1562  _initializing || _isConstructor() || !_initialized */\n    tag_333:\n        /* \"src/proxy/Initializable.sol\":1504:1613  require(_initializing || _isConstructor() || !_initialized, \"Initializable: contract is already initialized\") */\n      tag_334\n      jumpi\n      mload(0x40)\n      shl(0xe5, 0x461bcd)\n      dup2\n      mstore\n      0x04\n      add\n      tag_146\n      swap1\n      tag_165\n      jump\t// in\n    tag_334:\n        /* \"src/proxy/Initializable.sol\":1624:1643  bool isTopLevelCall */\n      0x00\n        /* \"src/proxy/Initializable.sol\":1647:1660  _initializing */\n      sload\n      0x0100\n      swap1\n      div\n      0xff\n      and\n        /* \"src/proxy/Initializable.sol\":1646:1660  !_initializing */\n      iszero\n        /* \"src/proxy/Initializable.sol\":1670:1768  if (isTopLevelCall) {... */\n      dup1\n      iszero\n      tag_336\n      jumpi\n        /* \"src/proxy/Initializable.sol\":1704:1717  _initializing */\n      0x00\n        /* \"src/proxy/Initializable.sol\":1704:1724  _initializing = true */\n      dup1\n      sload\n      not(0xff)\n      not(0xff00)\n      swap1\n      swap2\n      and\n      0x0100\n      or\n        /* \"src/proxy/Initializable.sol\":1738:1757  _initialized = true */\n      and\n        /* \"src/proxy/Initializable.sol\":1720:1724  true */\n      0x01\n        /* \"src/proxy/Initializable.sol\":1738:1757  _initialized = true */\n      or\n      swap1\n      sstore\n        /* \"src/proxy/Initializable.sol\":1670:1768  if (isTopLevelCall) {... */\n    tag_336:\n        /* \"src/OwnableUpgradeable.sol\":1136:1153  address msgSender */\n      0x00\n        /* \"src/OwnableUpgradeable.sol\":1156:1168  _msgSender() */\n      tag_338\n        /* \"src/OwnableUpgradeable.sol\":1156:1166  _msgSender */\n      tag_121\n        /* \"src/OwnableUpgradeable.sol\":1156:1168  _msgSender() */\n      jump\t// in\n    tag_338:\n        /* \"src/OwnableUpgradeable.sol\":1178:1184  _owner */\n      0xfe\n        /* \"src/OwnableUpgradeable.sol\":1178:1196  _owner = msgSender */\n      dup1\n      sload\n      not(sub(shl(0xa0, 0x01), 0x01))\n      and\n      sub(shl(0xa0, 0x01), 0x01)\n      dup4\n      and\n      swap1\n      dup2\n      or\n      swap1\n      swap2\n      sstore\n        /* \"src/OwnableUpgradeable.sol\":1211:1254  OwnershipTransferred(address(0), msgSender) */\n      mload(0x40)\n        /* \"src/OwnableUpgradeable.sol\":1178:1196  _owner = msgSender */\n      swap2\n      swap3\n      pop\n      swap1\n      0x00\n      swap1\n        /* \"src/OwnableUpgradeable.sol\":1211:1254  OwnershipTransferred(address(0), msgSender) */\n      0x8be0079c531659141344cd1fd0a4f28419497f9722a3daafe3b4186f6b6457e0\n      swap1\n      dup3\n      swap1\n      log3\n        /* \"src/proxy/Initializable.sol\":1778:1779  _ */\n      pop\n        /* \"src/proxy/Initializable.sol\":1794:1808  isTopLevelCall */\n      dup1\n        /* \"src/proxy/Initializable.sol\":1790:1856  if (isTopLevelCall) {... */\n      iszero\n      tag_155\n      jumpi\n        /* \"src/proxy/Initializable.sol\":1840:1845  false */\n      0x00\n        /* \"src/proxy/Initializable.sol\":1824:1845  _initializing = false */\n      dup1\n      sload\n      not(0xff00)\n      and\n      swap1\n      sstore\n        /* \"src/OwnableUpgradeable.sol\":1069:1261  function __Ownable_init_unchained() internal initializer {... */\n      pop\n      jump\t// out\n        /* \"src/libraries/CountersUpgradeable.sol\":1133:1245  function current(Counter storage counter) internal view returns (uint256) {... */\n    tag_193:\n        /* \"src/libraries/CountersUpgradeable.sol\":1224:1238  counter._value */\n      sload\n      swap1\n        /* \"src/libraries/CountersUpgradeable.sol\":1133:1245  function current(Counter storage counter) internal view returns (uint256) {... */\n      jump\t// out\n        /* \"src/libraries/EIP712Upgradeable.sol\":3813:3996  function _hashTypedDataV4(bytes32 structHash) internal view virtual returns (bytes32) {... */\n    tag_217:\n        /* \"src/libraries/EIP712Upgradeable.sol\":3890:3897  bytes32 */\n      0x00\n        /* \"src/libraries/EIP712Upgradeable.sol\":3955:3975  _domainSeparatorV4() */\n      tag_342\n        /* \"src/libraries/EIP712Upgradeable.sol\":3955:3973  _domainSeparatorV4 */\n      tag_135\n        /* \"src/libraries/EIP712Upgradeable.sol\":3955:3975  _domainSeparatorV4() */\n      jump\t// in\n    tag_342:\n        /* \"src/libraries/EIP712Upgradeable.sol\":3977:3987  structHash */\n      dup3\n        /* \"src/libraries/EIP712Upgradeable.sol\":3926:3988  abi.encodePacked(\"\\x19\\x01\", _domainSeparatorV4(), structHash) */\n      add(0x20, mload(0x40))\n      tag_343\n      swap3\n      swap2\n      swap1\n      tag_344\n      jump\t// in\n    tag_343:\n      mload(0x40)\n      0x20\n      dup2\n      dup4\n      sub\n      sub\n      dup2\n      mstore\n      swap1\n      0x40\n      mstore\n        /* \"src/libraries/EIP712Upgradeable.sol\":3916:3989  keccak256(abi.encodePacked(\"\\x19\\x01\", _domainSeparatorV4(), structHash)) */\n      dup1\n      mload\n      swap1\n      0x20\n      add\n      keccak256\n        /* \"src/libraries/EIP712Upgradeable.sol\":3909:3989  return keccak256(abi.encodePacked(\"\\x19\\x01\", _domainSeparatorV4(), structHash)) */\n      swap1\n      pop\n        /* \"src/libraries/EIP712Upgradeable.sol\":3813:3996  function _hashTypedDataV4(bytes32 structHash) internal view virtual returns (bytes32) {... */\n      swap2\n      swap1\n      pop\n      jump\t// out\n        /* \"src/libraries/ECDSAUpgradeable.sol\":1971:3385  function recover(bytes32 hash, uint8 v, bytes32 r, bytes32 s) internal pure returns (address) {... */\n    tag_219:\n        /* \"src/libraries/ECDSAUpgradeable.sol\":2056:2063  address */\n      0x00\n        /* \"src/libraries/ECDSAUpgradeable.sol\":2971:3037  0x7FFFFFFFFFFFFFFFFFFFFFFFFFFFFFFF5D576E7357A4501DDFE92F46681B20A0 */\n      0x7fffffffffffffffffffffffffffffff5d576e7357a4501ddfe92f46681b20a0\n        /* \"src/libraries/ECDSAUpgradeable.sol\":2957:3037  uint256(s) <= 0x7FFFFFFFFFFFFFFFFFFFFFFFFFFFFFFF5D576E7357A4501DDFE92F46681B20A0 */\n      dup3\n      gt\n      iszero\n        /* \"src/libraries/ECDSAUpgradeable.sol\":2949:3076  require(uint256(s) <= 0x7FFFFFFFFFFFFFFFFFFFFFFFFFFFFFFF5D576E7357A4501DDFE92F46681B20A0, \"ECDSA: invalid signature 's' value\") */\n      tag_346\n      jumpi\n      mload(0x40)\n      shl(0xe5, 0x461bcd)\n      dup2\n      mstore\n      0x04\n      add\n      tag_146\n      swap1\n      tag_348\n      jump\t// in\n    tag_346:\n        /* \"src/libraries/ECDSAUpgradeable.sol\":3094:3095  v */\n      dup4\n        /* \"src/libraries/ECDSAUpgradeable.sol\":3094:3101  v == 27 */\n      0xff\n      and\n        /* \"src/libraries/ECDSAUpgradeable.sol\":3099:3101  27 */\n      0x1b\n        /* \"src/libraries/ECDSAUpgradeable.sol\":3094:3101  v == 27 */\n      eq\n        /* \"src/libraries/ECDSAUpgradeable.sol\":3094:3112  v == 27 || v == 28 */\n      dup1\n      tag_349\n      jumpi\n      pop\n        /* \"src/libraries/ECDSAUpgradeable.sol\":3105:3106  v */\n      dup4\n        /* \"src/libraries/ECDSAUpgradeable.sol\":3105:3112  v == 28 */\n      0xff\n      and\n        /* \"src/libraries/ECDSAUpgradeable.sol\":3110:3112  28 */\n      0x1c\n        /* \"src/libraries/ECDSAUpgradeable.sol\":3105:3112  v == 28 */\n      eq\n        /* \"src/libraries/ECDSAUpgradeable.sol\":3094:3112  v == 27 || v == 28 */\n    tag_349:\n        /* \"src/libraries/ECDSAUpgradeable.sol\":3086:3151  require(v == 27 || v == 28, \"ECDSA: invalid signature 'v' value\") */\n      tag_350\n      jumpi\n      mload(0x40)\n      shl(0xe5, 0x461bcd)\n      dup2\n      mstore\n      0x04\n      add\n      tag_146\n      swap1\n      tag_352\n      jump\t// in\n    tag_350:\n        /* \"src/libraries/ECDSAUpgradeable.sol\":3246:3260  address signer */\n      0x00\n        /* \"src/libraries/ECDSAUpgradeable.sol\":3263:3287  ecrecover(hash, v, r, s) */\n      0x01\n        /* \"src/libraries/ECDSAUpgradeable.sol\":3273:3277  hash */\n      dup7\n        /* \"src/libraries/ECDSAUpgradeable.sol\":3279:3280  v */\n      dup7\n        /* \"src/libraries/ECDSAUpgradeable.sol\":3282:3283  r */\n      dup7\n        /* \"src/libraries/ECDSAUpgradeable.sol\":3285:3286  s */\n      dup7\n        /* \"src/libraries/ECDSAUpgradeable.sol\":3263:3287  ecrecover(hash, v, r, s) */\n      mload(0x40)\n      0x00\n      dup2\n      mstore\n      0x20\n      add\n      0x40\n      mstore\n      mload(0x40)\n      tag_353\n      swap5\n      swap4\n      swap3\n      swap2\n      swap1\n      tag_354\n      jump\t// in\n    tag_353:\n      0x20\n      mload(0x40)\n      0x20\n      dup2\n      sub\n      swap1\n      dup1\n      dup5\n      sub\n      swap1\n      dup6\n      gas\n      staticcall\n      iszero\n      dup1\n      iszero\n      tag_356\n      jumpi\n      returndatasize\n      0x00\n      dup1\n      returndatacopy\n      revert(0x00, returndatasize)\n    tag_356:\n      pop\n      pop\n      mload(add(not(0x1f), mload(0x40)))\n      swap2\n      pop\n      pop\n      sub(shl(0xa0, 0x01), 0x01)\n        /* \"src/libraries/ECDSAUpgradeable.sol\":3305:3325  signer != address(0) */\n      dup2\n      and\n        /* \"src/libraries/ECDSAUpgradeable.sol\":3297:3354  require(signer != address(0), \"ECDSA: invalid signature\") */\n      tag_357\n      jumpi\n      mload(0x40)\n      shl(0xe5, 0x461bcd)\n      dup2\n      mstore\n      0x04\n      add\n      tag_146\n      swap1\n      tag_359\n      jump\t// in\n    tag_357:\n        /* \"src/libraries/ECDSAUpgradeable.sol\":3372:3378  signer */\n      swap6\n        /* \"src/libraries/ECDSAUpgradeable.sol\":1971:3385  function recover(bytes32 hash, uint8 v, bytes32 r, bytes32 s) internal pure returns (address) {... */\n      swap5\n      pop\n      pop\n      pop\n      pop\n      pop\n      jump\t// out\n        /* \"src/libraries/CountersUpgradeable.sol\":1251:1429  function increment(Counter storage counter) internal {... */\n    tag_224:\n        /* \"src/libraries/CountersUpgradeable.sol\":1421:1422  1 */\n      0x01\n        /* \"src/libraries/CountersUpgradeable.sol\":1403:1410  counter */\n      dup2\n        /* \"src/libraries/CountersUpgradeable.sol\":1403:1417  counter._value */\n      0x00\n      add\n      0x00\n        /* \"src/libraries/CountersUpgradeable.sol\":1403:1422  counter._value += 1 */\n      dup3\n      dup3\n      sload\n      tag_361\n      swap2\n      swap1\n      tag_271\n      jump\t// in\n    tag_361:\n      swap1\n      swap2\n      sstore\n      pop\n      pop\n      pop\n        /* \"src/libraries/CountersUpgradeable.sol\":1251:1429  function increment(Counter storage counter) internal {... */\n      jump\t// out\n        /* \"src/LPToken.sol\":1948:2227  function _beforeTokenTransfer(... */\n    tag_253:\n        /* \"src/LPToken.sol\":2104:2148  super._beforeTokenTransfer(from, to, amount) */\n      tag_363\n        /* \"src/LPToken.sol\":2131:2135  from */\n      dup4\n        /* \"src/LPToken.sol\":2137:2139  to */\n      dup4\n        /* \"src/LPToken.sol\":2141:2147  amount */\n      dup4\n        /* \"src/LPToken.sol\":2104:2130  super._beforeTokenTransfer */\n      tag_190\n        /* \"src/LPToken.sol\":2104:2148  super._beforeTokenTransfer(from, to, amount) */\n      jump\t// in\n    tag_363:\n      sub(shl(0xa0, 0x01), 0x01)\n        /* \"src/LPToken.sol\":2166:2185  to != address(this) */\n      dup3\n      and\n        /* \"src/LPToken.sol\":2180:2184  this */\n      address\n        /* \"src/LPToken.sol\":2166:2185  to != address(this) */\n      eq\n      iszero\n        /* \"src/LPToken.sol\":2158:2220  require(to != address(this), \"LPToken: cannot send to itself\") */\n      tag_190\n      jumpi\n      mload(0x40)\n      shl(0xe5, 0x461bcd)\n      dup2\n      mstore\n      0x04\n      add\n      tag_146\n      swap1\n      tag_367\n      jump\t// in\n        /* \"src/libraries/EIP712Upgradeable.sol\":4558:4661  function _EIP712NameHash() internal virtual view returns (bytes32) {... */\n    tag_265:\n        /* \"src/libraries/EIP712Upgradeable.sol\":4642:4654  _HASHED_NAME */\n      sload(0x65)\n        /* \"src/libraries/EIP712Upgradeable.sol\":4558:4661  function _EIP712NameHash() internal virtual view returns (bytes32) {... */\n      swap1\n      jump\t// out\n        /* \"src/libraries/EIP712Upgradeable.sol\":4900:5009  function _EIP712VersionHash() internal virtual view returns (bytes32) {... */\n    tag_267:\n        /* \"src/libraries/EIP712Upgradeable.sol\":4987:5002  _HASHED_VERSION */\n      sload(0x66)\n        /* \"src/libraries/EIP712Upgradeable.sol\":4900:5009  function _EIP712VersionHash() internal virtual view returns (bytes32) {... */\n      swap1\n      jump\t// out\n        /* \"src/libraries/EIP712Upgradeable.sol\":2861:3188  function _buildDomainSeparator(bytes32 typeHash, bytes32 name, bytes32 version) private view returns (bytes32) {... */\n    tag_268:\n        /* \"src/libraries/EIP712Upgradeable.sol\":2963:2970  bytes32 */\n      0x00\n        /* \"src/libraries/EIP712Upgradeable.sol\":3040:3048  typeHash */\n      dup4\n        /* \"src/libraries/EIP712Upgradeable.sol\":3066:3070  name */\n      dup4\n        /* \"src/libraries/EIP712Upgradeable.sol\":3088:3095  version */\n      dup4\n        /* \"src/libraries/EIP712Upgradeable.sol\":3113:3126  _getChainId() */\n      tag_371\n        /* \"src/libraries/EIP712Upgradeable.sol\":3113:3124  _getChainId */\n      tag_372\n        /* \"src/libraries/EIP712Upgradeable.sol\":3113:3126  _getChainId() */\n      jump\t// in\n    tag_371:\n        /* \"src/libraries/EIP712Upgradeable.sol\":3152:3156  this */\n      address\n        /* \"src/libraries/EIP712Upgradeable.sol\":3012:3171  abi.encode(... */\n      add(0x20, mload(0x40))\n      tag_373\n      swap6\n      swap5\n      swap4\n      swap3\n      swap2\n      swap1\n      tag_374\n      jump\t// in\n    tag_373:\n      mload(0x40)\n      0x20\n      dup2\n      dup4\n      sub\n      sub\n      dup2\n      mstore\n      swap1\n      0x40\n      mstore\n        /* \"src/libraries/EIP712Upgradeable.sol\":2989:3181  keccak256(... */\n      dup1\n      mload\n      swap1\n      0x20\n      add\n      keccak256\n        /* \"src/libraries/EIP712Upgradeable.sol\":2982:3181  return keccak256(... */\n      swap1\n      pop\n        /* \"src/libraries/EIP712Upgradeable.sol\":2861:3188  function _buildDomainSeparator(bytes32 typeHash, bytes32 name, bytes32 version) private view returns (bytes32) {... */\n      swap4\n      swap3\n      pop\n      pop\n      pop\n      jump\t// out\n        /* \"src/libraries/SafeMathUpgradeable.sol\":3147:3302  function sub(uint256 a, uint256 b) internal pure returns (uint256) {... */\n    tag_290:\n        /* \"src/libraries/SafeMathUpgradeable.sol\":3205:3212  uint256 */\n      0x00\n        /* \"src/libraries/SafeMathUpgradeable.sol\":3237:3238  a */\n      dup3\n        /* \"src/libraries/SafeMathUpgradeable.sol\":3232:3233  b */\n      dup3\n        /* \"src/libraries/SafeMathUpgradeable.sol\":3232:3238  b <= a */\n      gt\n      iszero\n        /* \"src/libraries/SafeMathUpgradeable.sol\":3224:3273  require(b <= a, \"SafeMath: subtraction overflow\") */\n      tag_376\n      jumpi\n      mload(0x40)\n      shl(0xe5, 0x461bcd)\n      dup2\n      mstore\n      0x04\n      add\n      tag_146\n      swap1\n      tag_378\n      jump\t// in\n    tag_376:\n        /* \"src/libraries/SafeMathUpgradeable.sol\":3290:3295  a - b */\n      tag_272\n        /* \"src/libraries/SafeMathUpgradeable.sol\":3294:3295  b */\n      dup3\n        /* \"src/libraries/SafeMathUpgradeable.sol\":3290:3291  a */\n      dup5\n        /* \"src/libraries/SafeMathUpgradeable.sol\":3290:3295  a - b */\n      tag_261\n      jump\t// in\n        /* \"src/utils/AddressUpgradeable.sol\":737:1150  function isContract(address account) internal view returns (bool) {... */\n    tag_294:\n        /* \"src/utils/AddressUpgradeable.sol\":1097:1117  extcodesize(account) */\n      extcodesize\n        /* \"src/utils/AddressUpgradeable.sol\":1135:1143  size > 0 */\n      iszero\n      iszero\n      swap1\n        /* \"src/utils/AddressUpgradeable.sol\":737:1150  function isContract(address account) internal view returns (bool) {... */\n      jump\t// out\n        /* \"src/libraries/EIP712Upgradeable.sol\":2317:2609  function __EIP712_init_unchained(string memory name, string memory version) internal initializer {... */\n    tag_326:\n        /* \"src/proxy/Initializable.sol\":1512:1525  _initializing */\n      sload(0x00)\n      0x0100\n      swap1\n      div\n      0xff\n      and\n      dup1\n        /* \"src/proxy/Initializable.sol\":1512:1545  _initializing || _isConstructor() */\n      tag_383\n      jumpi\n      pop\n        /* \"src/proxy/Initializable.sol\":1529:1545  _isConstructor() */\n      tag_383\n        /* \"src/proxy/Initializable.sol\":1529:1543  _isConstructor */\n      tag_161\n        /* \"src/proxy/Initializable.sol\":1529:1545  _isConstructor() */\n      jump\t// in\n    tag_383:\n        /* \"src/proxy/Initializable.sol\":1512:1562  _initializing || _isConstructor() || !_initialized */\n      dup1\n      tag_384\n      jumpi\n      pop\n        /* \"src/proxy/Initializable.sol\":1550:1562  _initialized */\n      and(0xff, sload(0x00))\n        /* \"src/proxy/Initializable.sol\":1549:1562  !_initialized */\n      iszero\n        /* \"src/proxy/Initializable.sol\":1512:1562  _initializing || _isConstructor() || !_initialized */\n    tag_384:\n        /* \"src/proxy/Initializable.sol\":1504:1613  require(_initializing || _isConstructor() || !_initialized, \"Initializable: contract is already initialized\") */\n      tag_385\n      jumpi\n      mload(0x40)\n      shl(0xe5, 0x461bcd)\n      dup2\n      mstore\n      0x04\n      add\n      tag_146\n      swap1\n      tag_165\n      jump\t// in\n    tag_385:\n        /* \"src/proxy/Initializable.sol\":1624:1643  bool isTopLevelCall */\n      0x00\n        /* \"src/proxy/Initializable.sol\":1647:1660  _initializing */\n      sload\n      0x0100\n      swap1\n      div\n      0xff\n      and\n        /* \"src/proxy/Initializable.sol\":1646:1660  !_initializing */\n      iszero\n        /* \"src/proxy/Initializable.sol\":1670:1768  if (isTopLevelCall) {... */\n      dup1\n      iszero\n      tag_387\n      jumpi\n        /* \"src/proxy/Initializable.sol\":1704:1717  _initializing */\n      0x00\n        /* \"src/proxy/Initializable.sol\":1704:1724  _initializing = true */\n      dup1\n      sload\n      not(0xff)\n      not(0xff00)\n      swap1\n      swap2\n      and\n      0x0100\n      or\n        /* \"src/proxy/Initializable.sol\":1738:1757  _initialized = true */\n      and\n        /* \"src/proxy/Initializable.sol\":1720:1724  true */\n      0x01\n        /* \"src/proxy/Initializable.sol\":1738:1757  _initialized = true */\n      or\n      swap1\n      sstore\n        /* \"src/proxy/Initializable.sol\":1670:1768  if (isTopLevelCall) {... */\n    tag_387:\n        /* \"src/libraries/EIP712Upgradeable.sol\":2445:2467  keccak256(bytes(name)) */\n      dup3\n      mload\n      0x20\n      dup1\n      dup6\n      add\n      swap2\n      swap1\n      swap2\n      keccak256\n        /* \"src/libraries/EIP712Upgradeable.sol\":2501:2526  keccak256(bytes(version)) */\n      dup4\n      mload\n      swap2\n      dup5\n      add\n      swap2\n      swap1\n      swap2\n      keccak256\n        /* \"src/libraries/EIP712Upgradeable.sol\":2536:2548  _HASHED_NAME */\n      0x65\n        /* \"src/libraries/EIP712Upgradeable.sol\":2536:2561  _HASHED_NAME = hashedName */\n      swap2\n      swap1\n      swap2\n      sstore\n        /* \"src/libraries/EIP712Upgradeable.sol\":2571:2586  _HASHED_VERSION */\n      0x66\n        /* \"src/libraries/EIP712Upgradeable.sol\":2571:2602  _HASHED_VERSION = hashedVersion */\n      sstore\n        /* \"src/proxy/Initializable.sol\":1790:1856  if (isTopLevelCall) {... */\n      dup1\n      iszero\n      tag_190\n      jumpi\n        /* \"src/proxy/Initializable.sol\":1840:1845  false */\n      0x00\n        /* \"src/proxy/Initializable.sol\":1824:1845  _initializing = false */\n      dup1\n      sload\n      not(0xff00)\n      and\n      swap1\n      sstore\n        /* \"src/libraries/EIP712Upgradeable.sol\":2317:2609  function __EIP712_init_unchained(string memory name, string memory version) internal initializer {... */\n      pop\n      pop\n      pop\n      jump\t// out\n        /* \"src/libraries/ERC20PermitUpgradeable.sol\":1593:1803  function __ERC20Permit_init_unchained(string memory name) internal initializer {... */\n    tag_328:\n        /* \"src/proxy/Initializable.sol\":1512:1525  _initializing */\n      sload(0x00)\n      0x0100\n      swap1\n      div\n      0xff\n      and\n      dup1\n        /* \"src/proxy/Initializable.sol\":1512:1545  _initializing || _isConstructor() */\n      tag_392\n      jumpi\n      pop\n        /* \"src/proxy/Initializable.sol\":1529:1545  _isConstructor() */\n      tag_392\n        /* \"src/proxy/Initializable.sol\":1529:1543  _isConstructor */\n      tag_161\n        /* \"src/proxy/Initializable.sol\":1529:1545  _isConstructor() */\n      jump\t// in\n    tag_392:\n        /* \"src/proxy/Initializable.sol\":1512:1562  _initializing || _isConstructor() || !_initialized */\n      dup1\n      tag_393\n      jumpi\n      pop\n        /* \"src/proxy/Initializable.sol\":1550:1562  _initialized */\n      and(0xff, sload(0x00))\n        /* \"src/proxy/Initializable.sol\":1549:1562  !_initialized */\n      iszero\n        /* \"src/proxy/Initializable.sol\":1512:1562  _initializing || _isConstructor() || !_initialized */\n    tag_393:\n        /* \"src/proxy/Initializable.sol\":1504:1613  require(_initializing || _isConstructor() || !_initialized, \"Initializable: contract is already initialized\") */\n      tag_394\n      jumpi\n      mload(0x40)\n      shl(0xe5, 0x461bcd)\n      dup2\n      mstore\n      0x04\n      add\n      tag_146\n      swap1\n      tag_165\n      jump\t// in\n    tag_394:\n        /* \"src/proxy/Initializable.sol\":1624:1643  bool isTopLevelCall */\n      0x00\n        /* \"src/proxy/Initializable.sol\":1647:1660  _initializing */\n      sload\n      0x0100\n      swap1\n      div\n      0xff\n      and\n        /* \"src/proxy/Initializable.sol\":1646:1660  !_initializing */\n      iszero\n        /* \"src/proxy/Initializable.sol\":1670:1768  if (isTopLevelCall) {... */\n      dup1\n      iszero\n      tag_396\n      jumpi\n        /* \"src/proxy/Initializable.sol\":1704:1717  _initializing */\n      0x00\n        /* \"src/proxy/Initializable.sol\":1704:1724  _initializing = true */\n      dup1\n      sload\n      not(0xff)\n      not(0xff00)\n      swap1\n      swap2\n      and\n      0x0100\n      or\n        /* \"src/proxy/Initializable.sol\":1738:1757  _initialized = true */\n      and\n        /* \"src/proxy/Initializable.sol\":1720:1724  true */\n      0x01\n        /* \"src/proxy/Initializable.sol\":1738:1757  _initialized = true */\n      or\n      swap1\n      sstore\n        /* \"src/proxy/Initializable.sol\":1670:1768  if (isTopLevelCall) {... */\n    tag_396:\n        /* \"src/libraries/ERC20PermitUpgradeable.sol\":1701:1796  keccak256(\"Permit(address owner,address spender,uint256 value,uint256 nonce,uint256 deadline)\") */\n      0x6e71edae12b1b97f4d1f60370fef10105fa2faae0126114a169c64845d6126c9\n        /* \"src/libraries/ERC20PermitUpgradeable.sol\":1682:1698  _PERMIT_TYPEHASH */\n      0x9a\n        /* \"src/libraries/ERC20PermitUpgradeable.sol\":1682:1796  _PERMIT_TYPEHASH = keccak256(\"Permit(address owner,address spender,uint256 value,uint256 nonce,uint256 deadline)\") */\n      sstore\n        /* \"src/proxy/Initializable.sol\":1790:1856  if (isTopLevelCall) {... */\n      dup1\n      iszero\n      tag_152\n      jumpi\n        /* \"src/proxy/Initializable.sol\":1840:1845  false */\n      0x00\n        /* \"src/proxy/Initializable.sol\":1824:1845  _initializing = false */\n      dup1\n      sload\n      not(0xff00)\n      and\n      swap1\n      sstore\n        /* \"src/libraries/ERC20PermitUpgradeable.sol\":1593:1803  function __ERC20Permit_init_unchained(string memory name) internal initializer {... */\n      pop\n      pop\n      jump\t// out\n        /* \"src/libraries/EIP712Upgradeable.sol\":4002:4322  function _getChainId() private view returns (uint256 chainId) {... */\n    tag_372:\n        /* \"src/libraries/EIP712Upgradeable.sol\":4297:4306  chainid() */\n      chainid\n      swap1\n        /* \"src/libraries/EIP712Upgradeable.sol\":4272:4316  {... */\n      jump\t// out\n    tag_313:\n      dup3\n      dup1\n      sload\n      tag_401\n      swap1\n      tag_113\n      jump\t// in\n    tag_401:\n      swap1\n      0x00\n      mstore\n      keccak256(0x00, 0x20)\n      swap1\n      0x1f\n      add\n      0x20\n      swap1\n      div\n      dup2\n      add\n      swap3\n      dup3\n      tag_403\n      jumpi\n      0x00\n      dup6\n      sstore\n      jump(tag_406)\n    tag_403:\n      dup3\n      0x1f\n      lt\n      tag_404\n      jumpi\n      dup1\n      mload\n      not(0xff)\n      and\n      dup4\n      dup1\n      add\n      or\n      dup6\n      sstore\n      jump(tag_406)\n    tag_404:\n      dup3\n      dup1\n      add\n      0x01\n      add\n      dup6\n      sstore\n      dup3\n      iszero\n      tag_406\n      jumpi\n      swap2\n      dup3\n      add\n    tag_405:\n      dup3\n      dup2\n      gt\n      iszero\n      tag_406\n      jumpi\n      dup3\n      mload\n      dup3\n      sstore\n      swap2\n      0x20\n      add\n      swap2\n      swap1\n      0x01\n      add\n      swap1\n      jump(tag_405)\n    tag_406:\n      pop\n      tag_407\n      swap3\n      swap2\n      pop\n      tag_408\n      jump\t// in\n    tag_407:\n      pop\n      swap1\n      jump\t// out\n    tag_408:\n    tag_409:\n      dup1\n      dup3\n      gt\n      iszero\n      tag_407\n      jumpi\n      0x00\n      dup2\n      sstore\n      0x01\n      add\n      jump(tag_409)\n        /* \"#utility.yul\":14:189   */\n    tag_412:\n        /* \"#utility.yul\":84:104   */\n      dup1\n      calldataload\n      sub(shl(0xa0, 0x01), 0x01)\n        /* \"#utility.yul\":133:164   */\n      dup2\n      and\n        /* \"#utility.yul\":123:165   */\n      dup2\n      eq\n        /* \"#utility.yul\":113:115   */\n      tag_177\n      jumpi\n        /* \"#utility.yul\":179:180   */\n      0x00\n        /* \"#utility.yul\":176:177   */\n      dup1\n        /* \"#utility.yul\":169:181   */\n      revert\n        /* \"#utility.yul\":194:907   */\n    tag_415:\n      0x00\n        /* \"#utility.yul\":292:295   */\n      dup3\n        /* \"#utility.yul\":285:289   */\n      0x1f\n        /* \"#utility.yul\":277:283   */\n      dup4\n        /* \"#utility.yul\":273:290   */\n      add\n        /* \"#utility.yul\":269:296   */\n      slt\n        /* \"#utility.yul\":259:261   */\n      tag_417\n      jumpi\n        /* \"#utility.yul\":314:319   */\n      dup1\n        /* \"#utility.yul\":307:312   */\n      dup2\n        /* \"#utility.yul\":300:320   */\n      revert\n        /* \"#utility.yul\":259:261   */\n    tag_417:\n        /* \"#utility.yul\":354:360   */\n      dup2\n        /* \"#utility.yul\":341:361   */\n      calldataload\n        /* \"#utility.yul\":380:398   */\n      0xffffffffffffffff\n        /* \"#utility.yul\":417:419   */\n      dup1\n        /* \"#utility.yul\":413:415   */\n      dup3\n        /* \"#utility.yul\":410:420   */\n      gt\n        /* \"#utility.yul\":407:409   */\n      iszero\n      tag_419\n      jumpi\n        /* \"#utility.yul\":423:441   */\n      tag_419\n      tag_420\n      jump\t// in\n    tag_419:\n        /* \"#utility.yul\":472:474   */\n      0x40\n        /* \"#utility.yul\":466:475   */\n      mload\n        /* \"#utility.yul\":541:543   */\n      0x1f\n        /* \"#utility.yul\":522:535   */\n      dup4\n      add\n      not(0x1f)\n        /* \"#utility.yul\":518:545   */\n      and\n        /* \"#utility.yul\":506:546   */\n      dup2\n      add\n        /* \"#utility.yul\":548:552   */\n      0x20\n        /* \"#utility.yul\":502:553   */\n      add\n        /* \"#utility.yul\":568:586   */\n      dup3\n      dup2\n      gt\n        /* \"#utility.yul\":588:610   */\n      dup3\n      dup3\n      lt\n        /* \"#utility.yul\":565:611   */\n      or\n        /* \"#utility.yul\":562:564   */\n      iszero\n      tag_422\n      jumpi\n        /* \"#utility.yul\":614:632   */\n      tag_422\n      tag_420\n      jump\t// in\n    tag_422:\n        /* \"#utility.yul\":650:652   */\n      0x40\n        /* \"#utility.yul\":643:665   */\n      mstore\n        /* \"#utility.yul\":674:692   */\n      dup3\n      dup2\n      mstore\n        /* \"#utility.yul\":711:726   */\n      dup5\n      dup4\n      add\n        /* \"#utility.yul\":728:732   */\n      0x20\n        /* \"#utility.yul\":707:733   */\n      add\n        /* \"#utility.yul\":704:739   */\n      dup7\n      lt\n        /* \"#utility.yul\":701:703   */\n      iszero\n      tag_423\n      jumpi\n        /* \"#utility.yul\":756:761   */\n      dup4\n        /* \"#utility.yul\":749:754   */\n      dup5\n        /* \"#utility.yul\":742:762   */\n      revert\n        /* \"#utility.yul\":701:703   */\n    tag_423:\n        /* \"#utility.yul\":824:826   */\n      dup3\n        /* \"#utility.yul\":817:821   */\n      0x20\n        /* \"#utility.yul\":809:815   */\n      dup7\n        /* \"#utility.yul\":805:822   */\n      add\n        /* \"#utility.yul\":798:802   */\n      0x20\n        /* \"#utility.yul\":790:796   */\n      dup4\n        /* \"#utility.yul\":786:803   */\n      add\n        /* \"#utility.yul\":773:827   */\n      calldatacopy\n        /* \"#utility.yul\":847:862   */\n      swap2\n      dup3\n      add\n        /* \"#utility.yul\":864:868   */\n      0x20\n        /* \"#utility.yul\":843:869   */\n      add\n        /* \"#utility.yul\":836:877   */\n      swap3\n      swap1\n      swap3\n      mstore\n        /* \"#utility.yul\":851:857   */\n      swap4\n        /* \"#utility.yul\":249:907   */\n      swap3\n      pop\n      pop\n      pop\n      jump\t// out\n        /* \"#utility.yul\":912:1110   */\n    tag_72:\n      0x00\n        /* \"#utility.yul\":1024:1026   */\n      0x20\n        /* \"#utility.yul\":1012:1021   */\n      dup3\n        /* \"#utility.yul\":1003:1010   */\n      dup5\n        /* \"#utility.yul\":999:1022   */\n      sub\n        /* \"#utility.yul\":995:1027   */\n      slt\n        /* \"#utility.yul\":992:994   */\n      iszero\n      tag_425\n      jumpi\n        /* \"#utility.yul\":1045:1051   */\n      dup1\n        /* \"#utility.yul\":1037:1043   */\n      dup2\n        /* \"#utility.yul\":1030:1052   */\n      revert\n        /* \"#utility.yul\":992:994   */\n    tag_425:\n        /* \"#utility.yul\":1073:1104   */\n      tag_272\n        /* \"#utility.yul\":1094:1103   */\n      dup3\n        /* \"#utility.yul\":1073:1104   */\n      tag_412\n      jump\t// in\n        /* \"#utility.yul\":1115:1389   */\n    tag_105:\n      0x00\n      dup1\n        /* \"#utility.yul\":1244:1246   */\n      0x40\n        /* \"#utility.yul\":1232:1241   */\n      dup4\n        /* \"#utility.yul\":1223:1230   */\n      dup6\n        /* \"#utility.yul\":1219:1242   */\n      sub\n        /* \"#utility.yul\":1215:1247   */\n      slt\n        /* \"#utility.yul\":1212:1214   */\n      iszero\n      tag_428\n      jumpi\n        /* \"#utility.yul\":1265:1271   */\n      dup1\n        /* \"#utility.yul\":1257:1263   */\n      dup2\n        /* \"#utility.yul\":1250:1272   */\n      revert\n        /* \"#utility.yul\":1212:1214   */\n    tag_428:\n        /* \"#utility.yul\":1293:1324   */\n      tag_429\n        /* \"#utility.yul\":1314:1323   */\n      dup4\n        /* \"#utility.yul\":1293:1324   */\n      tag_412\n      jump\t// in\n    tag_429:\n        /* \"#utility.yul\":1283:1324   */\n      swap2\n      pop\n        /* \"#utility.yul\":1343:1383   */\n      tag_430\n        /* \"#utility.yul\":1379:1381   */\n      0x20\n        /* \"#utility.yul\":1368:1377   */\n      dup5\n        /* \"#utility.yul\":1364:1382   */\n      add\n        /* \"#utility.yul\":1343:1383   */\n      tag_412\n      jump\t// in\n    tag_430:\n        /* \"#utility.yul\":1333:1383   */\n      swap1\n      pop\n        /* \"#utility.yul\":1202:1389   */\n      swap3\n      pop\n      swap3\n      swap1\n      pop\n      jump\t// out\n        /* \"#utility.yul\":1394:1736   */\n    tag_43:\n      0x00\n      dup1\n      0x00\n        /* \"#utility.yul\":1540:1542   */\n      0x60\n        /* \"#utility.yul\":1528:1537   */\n      dup5\n        /* \"#utility.yul\":1519:1526   */\n      dup7\n        /* \"#utility.yul\":1515:1538   */\n      sub\n        /* \"#utility.yul\":1511:1543   */\n      slt\n        /* \"#utility.yul\":1508:1510   */\n      iszero\n      tag_432\n      jumpi\n        /* \"#utility.yul\":1561:1567   */\n      dup1\n        /* \"#utility.yul\":1553:1559   */\n      dup2\n        /* \"#utility.yul\":1546:1568   */\n      revert\n        /* \"#utility.yul\":1508:1510   */\n    tag_432:\n        /* \"#utility.yul\":1589:1620   */\n      tag_433\n        /* \"#utility.yul\":1610:1619   */\n      dup5\n        /* \"#utility.yul\":1589:1620   */\n      tag_412\n      jump\t// in\n    tag_433:\n        /* \"#utility.yul\":1579:1620   */\n      swap3\n      pop\n        /* \"#utility.yul\":1639:1679   */\n      tag_434\n        /* \"#utility.yul\":1675:1677   */\n      0x20\n        /* \"#utility.yul\":1664:1673   */\n      dup6\n        /* \"#utility.yul\":1660:1678   */\n      add\n        /* \"#utility.yul\":1639:1679   */\n      tag_412\n      jump\t// in\n    tag_434:\n        /* \"#utility.yul\":1629:1679   */\n      swap2\n      pop\n        /* \"#utility.yul\":1726:1728   */\n      0x40\n        /* \"#utility.yul\":1715:1724   */\n      dup5\n        /* \"#utility.yul\":1711:1729   */\n      add\n        /* \"#utility.yul\":1698:1730   */\n      calldataload\n        /* \"#utility.yul\":1688:1730   */\n      swap1\n      pop\n        /* \"#utility.yul\":1498:1736   */\n      swap3\n      pop\n      swap3\n      pop\n      swap3\n      jump\t// out\n        /* \"#utility.yul\":1741:2458   */\n    tag_101:\n      0x00\n      dup1\n      0x00\n      dup1\n      0x00\n      dup1\n      0x00\n        /* \"#utility.yul\":1953:1956   */\n      0xe0\n        /* \"#utility.yul\":1941:1950   */\n      dup9\n        /* \"#utility.yul\":1932:1939   */\n      dup11\n        /* \"#utility.yul\":1928:1951   */\n      sub\n        /* \"#utility.yul\":1924:1957   */\n      slt\n        /* \"#utility.yul\":1921:1923   */\n      iszero\n      tag_436\n      jumpi\n        /* \"#utility.yul\":1975:1981   */\n      dup3\n        /* \"#utility.yul\":1967:1973   */\n      dup4\n        /* \"#utility.yul\":1960:1982   */\n      revert\n        /* \"#utility.yul\":1921:1923   */\n    tag_436:\n        /* \"#utility.yul\":2003:2034   */\n      tag_437\n        /* \"#utility.yul\":2024:2033   */\n      dup9\n        /* \"#utility.yul\":2003:2034   */\n      tag_412\n      jump\t// in\n    tag_437:\n        /* \"#utility.yul\":1993:2034   */\n      swap7\n      pop\n        /* \"#utility.yul\":2053:2093   */\n      tag_438\n        /* \"#utility.yul\":2089:2091   */\n      0x20\n        /* \"#utility.yul\":2078:2087   */\n      dup10\n        /* \"#utility.yul\":2074:2092   */\n      add\n        /* \"#utility.yul\":2053:2093   */\n      tag_412\n      jump\t// in\n    tag_438:\n        /* \"#utility.yul\":2043:2093   */\n      swap6\n      pop\n        /* \"#utility.yul\":2140:2142   */\n      0x40\n        /* \"#utility.yul\":2129:2138   */\n      dup9\n        /* \"#utility.yul\":2125:2143   */\n      add\n        /* \"#utility.yul\":2112:2144   */\n      calldataload\n        /* \"#utility.yul\":2102:2144   */\n      swap5\n      pop\n        /* \"#utility.yul\":2191:2193   */\n      0x60\n        /* \"#utility.yul\":2180:2189   */\n      dup9\n        /* \"#utility.yul\":2176:2194   */\n      add\n        /* \"#utility.yul\":2163:2195   */\n      calldataload\n        /* \"#utility.yul\":2153:2195   */\n      swap4\n      pop\n        /* \"#utility.yul\":2245:2248   */\n      0x80\n        /* \"#utility.yul\":2234:2243   */\n      dup9\n        /* \"#utility.yul\":2230:2249   */\n      add\n        /* \"#utility.yul\":2217:2250   */\n      calldataload\n        /* \"#utility.yul\":2290:2294   */\n      0xff\n        /* \"#utility.yul\":2283:2288   */\n      dup2\n        /* \"#utility.yul\":2279:2295   */\n      and\n        /* \"#utility.yul\":2272:2277   */\n      dup2\n        /* \"#utility.yul\":2269:2296   */\n      eq\n        /* \"#utility.yul\":2259:2261   */\n      tag_439\n      jumpi\n        /* \"#utility.yul\":2315:2321   */\n      dup4\n        /* \"#utility.yul\":2307:2313   */\n      dup5\n        /* \"#utility.yul\":2300:2322   */\n      revert\n        /* \"#utility.yul\":2259:2261   */\n    tag_439:\n        /* \"#utility.yul\":1911:2458   */\n      swap7\n      swap10\n      swap6\n      swap9\n      pop\n      swap4\n      swap7\n      swap3\n      swap6\n        /* \"#utility.yul\":2343:2348   */\n      swap5\n        /* \"#utility.yul\":2395:2398   */\n      0xa0\n        /* \"#utility.yul\":2380:2399   */\n      dup5\n      add\n        /* \"#utility.yul\":2367:2400   */\n      calldataload\n      swap5\n      pop\n        /* \"#utility.yul\":2447:2450   */\n      0xc0\n        /* \"#utility.yul\":2432:2451   */\n      swap1\n      swap4\n      add\n        /* \"#utility.yul\":2419:2452   */\n      calldataload\n      swap3\n        /* \"#utility.yul\":1911:2458   */\n      swap2\n      pop\n      pop\n      jump\t// out\n        /* \"#utility.yul\":2463:2729   */\n    tag_33:\n      0x00\n      dup1\n        /* \"#utility.yul\":2592:2594   */\n      0x40\n        /* \"#utility.yul\":2580:2589   */\n      dup4\n        /* \"#utility.yul\":2571:2578   */\n      dup6\n        /* \"#utility.yul\":2567:2590   */\n      sub\n        /* \"#utility.yul\":2563:2595   */\n      slt\n        /* \"#utility.yul\":2560:2562   */\n      iszero\n      tag_441\n      jumpi\n        /* \"#utility.yul\":2613:2619   */\n      dup2\n        /* \"#utility.yul\":2605:2611   */\n      dup3\n        /* \"#utility.yul\":2598:2620   */\n      revert\n        /* \"#utility.yul\":2560:2562   */\n    tag_441:\n        /* \"#utility.yul\":2641:2672   */\n      tag_442\n        /* \"#utility.yul\":2662:2671   */\n      dup4\n        /* \"#utility.yul\":2641:2672   */\n      tag_412\n      jump\t// in\n    tag_442:\n        /* \"#utility.yul\":2631:2672   */\n      swap5\n        /* \"#utility.yul\":2719:2721   */\n      0x20\n        /* \"#utility.yul\":2704:2722   */\n      swap4\n      swap1\n      swap4\n      add\n        /* \"#utility.yul\":2691:2723   */\n      calldataload\n      swap4\n      pop\n      pop\n      pop\n        /* \"#utility.yul\":2550:2729   */\n      jump\t// out\n        /* \"#utility.yul\":2734:3311   */\n    tag_67:\n      0x00\n      dup1\n        /* \"#utility.yul\":2883:2885   */\n      0x40\n        /* \"#utility.yul\":2871:2880   */\n      dup4\n        /* \"#utility.yul\":2862:2869   */\n      dup6\n        /* \"#utility.yul\":2858:2881   */\n      sub\n        /* \"#utility.yul\":2854:2886   */\n      slt\n        /* \"#utility.yul\":2851:2853   */\n      iszero\n      tag_444\n      jumpi\n        /* \"#utility.yul\":2904:2910   */\n      dup2\n        /* \"#utility.yul\":2896:2902   */\n      dup3\n        /* \"#utility.yul\":2889:2911   */\n      revert\n        /* \"#utility.yul\":2851:2853   */\n    tag_444:\n        /* \"#utility.yul\":2949:2958   */\n      dup3\n        /* \"#utility.yul\":2936:2959   */\n      calldataload\n        /* \"#utility.yul\":2978:2996   */\n      0xffffffffffffffff\n        /* \"#utility.yul\":3019:3021   */\n      dup1\n        /* \"#utility.yul\":3011:3017   */\n      dup3\n        /* \"#utility.yul\":3008:3022   */\n      gt\n        /* \"#utility.yul\":3005:3007   */\n      iszero\n      tag_445\n      jumpi\n        /* \"#utility.yul\":3040:3046   */\n      dup4\n        /* \"#utility.yul\":3032:3038   */\n      dup5\n        /* \"#utility.yul\":3025:3047   */\n      revert\n        /* \"#utility.yul\":3005:3007   */\n    tag_445:\n        /* \"#utility.yul\":3068:3120   */\n      tag_446\n        /* \"#utility.yul\":3112:3119   */\n      dup7\n        /* \"#utility.yul\":3103:3109   */\n      dup4\n        /* \"#utility.yul\":3092:3101   */\n      dup8\n        /* \"#utility.yul\":3088:3110   */\n      add\n        /* \"#utility.yul\":3068:3120   */\n      tag_415\n      jump\t// in\n    tag_446:\n        /* \"#utility.yul\":3058:3120   */\n      swap4\n      pop\n        /* \"#utility.yul\":3173:3175   */\n      0x20\n        /* \"#utility.yul\":3162:3171   */\n      dup6\n        /* \"#utility.yul\":3158:3176   */\n      add\n        /* \"#utility.yul\":3145:3177   */\n      calldataload\n        /* \"#utility.yul\":3129:3177   */\n      swap2\n      pop\n        /* \"#utility.yul\":3202:3204   */\n      dup1\n        /* \"#utility.yul\":3192:3200   */\n      dup3\n        /* \"#utility.yul\":3189:3205   */\n      gt\n        /* \"#utility.yul\":3186:3188   */\n      iszero\n      tag_447\n      jumpi\n        /* \"#utility.yul\":3223:3229   */\n      dup3\n        /* \"#utility.yul\":3215:3221   */\n      dup4\n        /* \"#utility.yul\":3208:3230   */\n      revert\n        /* \"#utility.yul\":3186:3188   */\n    tag_447:\n      pop\n        /* \"#utility.yul\":3251:3305   */\n      tag_448\n        /* \"#utility.yul\":3297:3304   */\n      dup6\n        /* \"#utility.yul\":3286:3294   */\n      dup3\n        /* \"#utility.yul\":3275:3284   */\n      dup7\n        /* \"#utility.yul\":3271:3295   */\n      add\n        /* \"#utility.yul\":3251:3305   */\n      tag_415\n      jump\t// in\n    tag_448:\n        /* \"#utility.yul\":3241:3305   */\n      swap2\n      pop\n      pop\n        /* \"#utility.yul\":2841:3311   */\n      swap3\n      pop\n      swap3\n      swap1\n      pop\n      jump\t// out\n        /* \"#utility.yul\":3316:3506   */\n    tag_63:\n      0x00\n        /* \"#utility.yul\":3428:3430   */\n      0x20\n        /* \"#utility.yul\":3416:3425   */\n      dup3\n        /* \"#utility.yul\":3407:3414   */\n      dup5\n        /* \"#utility.yul\":3403:3426   */\n      sub\n        /* \"#utility.yul\":3399:3431   */\n      slt\n        /* \"#utility.yul\":3396:3398   */\n      iszero\n      tag_450\n      jumpi\n        /* \"#utility.yul\":3449:3455   */\n      dup1\n        /* \"#utility.yul\":3441:3447   */\n      dup2\n        /* \"#utility.yul\":3434:3456   */\n      revert\n        /* \"#utility.yul\":3396:3398   */\n    tag_450:\n      pop\n        /* \"#utility.yul\":3477:3500   */\n      calldataload\n      swap2\n        /* \"#utility.yul\":3386:3506   */\n      swap1\n      pop\n      jump\t// out\n        /* \"#utility.yul\":3511:3903   */\n    tag_344:\n      shl(0xf0, 0x1901)\n        /* \"#utility.yul\":3769:3796   */\n      dup2\n      mstore\n        /* \"#utility.yul\":3821:3822   */\n      0x02\n        /* \"#utility.yul\":3812:3823   */\n      dup2\n      add\n        /* \"#utility.yul\":3805:3832   */\n      swap3\n      swap1\n      swap3\n      mstore\n        /* \"#utility.yul\":3857:3859   */\n      0x22\n        /* \"#utility.yul\":3848:3860   */\n      dup3\n      add\n        /* \"#utility.yul\":3841:3869   */\n      mstore\n        /* \"#utility.yul\":3894:3896   */\n      0x42\n        /* \"#utility.yul\":3885:3897   */\n      add\n      swap1\n        /* \"#utility.yul\":3759:3903   */\n      jump\t// out\n        /* \"#utility.yul\":3908:4111   */\n    tag_87:\n      sub(shl(0xa0, 0x01), 0x01)\n        /* \"#utility.yul\":4072:4104   */\n      swap2\n      swap1\n      swap2\n      and\n        /* \"#utility.yul\":4054:4105   */\n      dup2\n      mstore\n        /* \"#utility.yul\":4042:4044   */\n      0x20\n        /* \"#utility.yul\":4027:4045   */\n      add\n      swap1\n        /* \"#utility.yul\":4009:4111   */\n      jump\t// out\n        /* \"#utility.yul\":4116:4303   */\n    tag_36:\n        /* \"#utility.yul\":4281:4295   */\n      swap1\n      iszero\n        /* \"#utility.yul\":4274:4296   */\n      iszero\n        /* \"#utility.yul\":4256:4297   */\n      dup2\n      mstore\n        /* \"#utility.yul\":4244:4246   */\n      0x20\n        /* \"#utility.yul\":4229:4247   */\n      add\n      swap1\n        /* \"#utility.yul\":4211:4303   */\n      jump\t// out\n        /* \"#utility.yul\":4308:4485   */\n    tag_53:\n        /* \"#utility.yul\":4454:4479   */\n      swap1\n      dup2\n      mstore\n        /* \"#utility.yul\":4442:4444   */\n      0x20\n        /* \"#utility.yul\":4427:4445   */\n      add\n      swap1\n        /* \"#utility.yul\":4409:4485   */\n      jump\t// out\n        /* \"#utility.yul\":4490:5081   */\n    tag_215:\n        /* \"#utility.yul\":4777:4802   */\n      swap6\n      dup7\n      mstore\n      sub(shl(0xa0, 0x01), 0x01)\n        /* \"#utility.yul\":4876:4891   */\n      swap5\n      dup6\n      and\n        /* \"#utility.yul\":4871:4873   */\n      0x20\n        /* \"#utility.yul\":4856:4874   */\n      dup8\n      add\n        /* \"#utility.yul\":4849:4892   */\n      mstore\n        /* \"#utility.yul\":4928:4943   */\n      swap3\n      swap1\n      swap4\n      and\n        /* \"#utility.yul\":4923:4925   */\n      0x40\n        /* \"#utility.yul\":4908:4926   */\n      dup6\n      add\n        /* \"#utility.yul\":4901:4944   */\n      mstore\n        /* \"#utility.yul\":4975:4977   */\n      0x60\n        /* \"#utility.yul\":4960:4978   */\n      dup5\n      add\n        /* \"#utility.yul\":4953:4987   */\n      mstore\n        /* \"#utility.yul\":5018:5021   */\n      0x80\n        /* \"#utility.yul\":5003:5022   */\n      dup4\n      add\n        /* \"#utility.yul\":4996:5031   */\n      swap2\n      swap1\n      swap2\n      mstore\n        /* \"#utility.yul\":4829:4832   */\n      0xa0\n        /* \"#utility.yul\":5047:5066   */\n      dup3\n      add\n        /* \"#utility.yul\":5040:5075   */\n      mstore\n        /* \"#utility.yul\":4764:4767   */\n      0xc0\n        /* \"#utility.yul\":4749:4768   */\n      add\n      swap1\n        /* \"#utility.yul\":4731:5081   */\n      jump\t// out\n        /* \"#utility.yul\":5086:5575   */\n    tag_374:\n        /* \"#utility.yul\":5345:5370   */\n      swap5\n      dup6\n      mstore\n        /* \"#utility.yul\":5401:5403   */\n      0x20\n        /* \"#utility.yul\":5386:5404   */\n      dup6\n      add\n        /* \"#utility.yul\":5379:5413   */\n      swap4\n      swap1\n      swap4\n      mstore\n        /* \"#utility.yul\":5444:5446   */\n      0x40\n        /* \"#utility.yul\":5429:5447   */\n      dup5\n      add\n        /* \"#utility.yul\":5422:5456   */\n      swap2\n      swap1\n      swap2\n      mstore\n        /* \"#utility.yul\":5487:5489   */\n      0x60\n        /* \"#utility.yul\":5472:5490   */\n      dup4\n      add\n        /* \"#utility.yul\":5465:5499   */\n      mstore\n      sub(shl(0xa0, 0x01), 0x01)\n        /* \"#utility.yul\":5536:5568   */\n      and\n        /* \"#utility.yul\":5530:5533   */\n      0x80\n        /* \"#utility.yul\":5515:5534   */\n      dup3\n      add\n        /* \"#utility.yul\":5508:5569   */\n      mstore\n        /* \"#utility.yul\":5332:5335   */\n      0xa0\n        /* \"#utility.yul\":5317:5336   */\n      add\n      swap1\n        /* \"#utility.yul\":5299:5575   */\n      jump\t// out\n        /* \"#utility.yul\":5580:5978   */\n    tag_354:\n        /* \"#utility.yul\":5807:5832   */\n      swap4\n      dup5\n      mstore\n        /* \"#utility.yul\":5880:5884   */\n      0xff\n        /* \"#utility.yul\":5868:5885   */\n      swap3\n      swap1\n      swap3\n      and\n        /* \"#utility.yul\":5863:5865   */\n      0x20\n        /* \"#utility.yul\":5848:5866   */\n      dup5\n      add\n        /* \"#utility.yul\":5841:5886   */\n      mstore\n        /* \"#utility.yul\":5917:5919   */\n      0x40\n        /* \"#utility.yul\":5902:5920   */\n      dup4\n      add\n        /* \"#utility.yul\":5895:5929   */\n      mstore\n        /* \"#utility.yul\":5960:5962   */\n      0x60\n        /* \"#utility.yul\":5945:5963   */\n      dup3\n      add\n        /* \"#utility.yul\":5938:5972   */\n      mstore\n        /* \"#utility.yul\":5794:5797   */\n      0x80\n        /* \"#utility.yul\":5779:5798   */\n      add\n      swap1\n        /* \"#utility.yul\":5761:5978   */\n      jump\t// out\n        /* \"#utility.yul\":5983:6586   */\n    tag_30:\n      0x00\n        /* \"#utility.yul\":6124:6126   */\n      0x20\n        /* \"#utility.yul\":6153:6155   */\n      dup1\n        /* \"#utility.yul\":6142:6151   */\n      dup4\n        /* \"#utility.yul\":6135:6156   */\n      mstore\n        /* \"#utility.yul\":6185:6191   */\n      dup4\n        /* \"#utility.yul\":6179:6192   */\n      mload\n        /* \"#utility.yul\":6228:6234   */\n      dup1\n        /* \"#utility.yul\":6223:6225   */\n      dup3\n        /* \"#utility.yul\":6212:6221   */\n      dup6\n        /* \"#utility.yul\":6208:6226   */\n      add\n        /* \"#utility.yul\":6201:6235   */\n      mstore\n        /* \"#utility.yul\":6253:6257   */\n      dup3\n        /* \"#utility.yul\":6266:6406   */\n    tag_459:\n        /* \"#utility.yul\":6280:6286   */\n      dup2\n        /* \"#utility.yul\":6277:6278   */\n      dup2\n        /* \"#utility.yul\":6274:6287   */\n      lt\n        /* \"#utility.yul\":6266:6406   */\n      iszero\n      tag_461\n      jumpi\n        /* \"#utility.yul\":6375:6389   */\n      dup6\n      dup2\n      add\n        /* \"#utility.yul\":6371:6394   */\n      dup4\n      add\n        /* \"#utility.yul\":6365:6395   */\n      mload\n        /* \"#utility.yul\":6341:6358   */\n      dup6\n      dup3\n      add\n        /* \"#utility.yul\":6360:6362   */\n      0x40\n        /* \"#utility.yul\":6337:6363   */\n      add\n        /* \"#utility.yul\":6330:6396   */\n      mstore\n        /* \"#utility.yul\":6295:6305   */\n      dup3\n      add\n        /* \"#utility.yul\":6266:6406   */\n      jump(tag_459)\n    tag_461:\n        /* \"#utility.yul\":6424:6430   */\n      dup2\n        /* \"#utility.yul\":6421:6422   */\n      dup2\n        /* \"#utility.yul\":6418:6431   */\n      gt\n        /* \"#utility.yul\":6415:6417   */\n      iszero\n      tag_462\n      jumpi\n        /* \"#utility.yul\":6494:6498   */\n      dup4\n        /* \"#utility.yul\":6489:6491   */\n      0x40\n        /* \"#utility.yul\":6480:6486   */\n      dup4\n        /* \"#utility.yul\":6469:6478   */\n      dup8\n        /* \"#utility.yul\":6465:6487   */\n      add\n        /* \"#utility.yul\":6461:6492   */\n      add\n        /* \"#utility.yul\":6454:6499   */\n      mstore\n        /* \"#utility.yul\":6415:6417   */\n    tag_462:\n      pop\n        /* \"#utility.yul\":6570:6572   */\n      0x1f\n        /* \"#utility.yul\":6549:6564   */\n      add\n      not(0x1f)\n        /* \"#utility.yul\":6545:6574   */\n      and\n        /* \"#utility.yul\":6530:6575   */\n      swap3\n      swap1\n      swap3\n      add\n        /* \"#utility.yul\":6577:6579   */\n      0x40\n        /* \"#utility.yul\":6526:6580   */\n      add\n      swap4\n        /* \"#utility.yul\":6104:6586   */\n      swap3\n      pop\n      pop\n      pop\n      jump\t// out\n        /* \"#utility.yul\":6591:6939   */\n    tag_359:\n        /* \"#utility.yul\":6793:6795   */\n      0x20\n        /* \"#utility.yul\":6775:6796   */\n      dup1\n      dup3\n      mstore\n        /* \"#utility.yul\":6832:6834   */\n      0x18\n        /* \"#utility.yul\":6812:6830   */\n      swap1\n      dup3\n      add\n        /* \"#utility.yul\":6805:6835   */\n      mstore\n        /* \"#utility.yul\":6871:6897   */\n      0x45434453413a20696e76616c6964207369676e61747572650000000000000000\n        /* \"#utility.yul\":6866:6868   */\n      0x40\n        /* \"#utility.yul\":6851:6869   */\n      dup3\n      add\n        /* \"#utility.yul\":6844:6898   */\n      mstore\n        /* \"#utility.yul\":6930:6932   */\n      0x60\n        /* \"#utility.yul\":6915:6933   */\n      add\n      swap1\n        /* \"#utility.yul\":6765:6939   */\n      jump\t// out\n        /* \"#utility.yul\":6944:7343   */\n    tag_251:\n        /* \"#utility.yul\":7146:7148   */\n      0x20\n        /* \"#utility.yul\":7128:7149   */\n      dup1\n      dup3\n      mstore\n        /* \"#utility.yul\":7185:7187   */\n      0x23\n        /* \"#utility.yul\":7165:7183   */\n      swap1\n      dup3\n      add\n        /* \"#utility.yul\":7158:7188   */\n      mstore\n        /* \"#utility.yul\":7224:7258   */\n      0x45524332303a207472616e7366657220746f20746865207a65726f2061646472\n        /* \"#utility.yul\":7219:7221   */\n      0x40\n        /* \"#utility.yul\":7204:7222   */\n      dup3\n      add\n        /* \"#utility.yul\":7197:7259   */\n      mstore\n      shl(0xe8, 0x657373)\n        /* \"#utility.yul\":7290:7292   */\n      0x60\n        /* \"#utility.yul\":7275:7293   */\n      dup3\n      add\n        /* \"#utility.yul\":7268:7301   */\n      mstore\n        /* \"#utility.yul\":7333:7336   */\n      0x80\n        /* \"#utility.yul\":7318:7337   */\n      add\n      swap1\n        /* \"#utility.yul\":7118:7343   */\n      jump\t// out\n        /* \"#utility.yul\":7348:7750   */\n    tag_235:\n        /* \"#utility.yul\":7550:7552   */\n      0x20\n        /* \"#utility.yul\":7532:7553   */\n      dup1\n      dup3\n      mstore\n        /* \"#utility.yul\":7589:7591   */\n      0x26\n        /* \"#utility.yul\":7569:7587   */\n      swap1\n      dup3\n      add\n        /* \"#utility.yul\":7562:7592   */\n      mstore\n        /* \"#utility.yul\":7628:7662   */\n      0x4f776e61626c653a206e6577206f776e657220697320746865207a65726f2061\n        /* \"#utility.yul\":7623:7625   */\n      0x40\n        /* \"#utility.yul\":7608:7626   */\n      dup3\n      add\n        /* \"#utility.yul\":7601:7663   */\n      mstore\n      shl(0xd0, 0x646472657373)\n        /* \"#utility.yul\":7694:7696   */\n      0x60\n        /* \"#utility.yul\":7679:7697   */\n      dup3\n      add\n        /* \"#utility.yul\":7672:7708   */\n      mstore\n        /* \"#utility.yul\":7740:7743   */\n      0x80\n        /* \"#utility.yul\":7725:7744   */\n      add\n      swap1\n        /* \"#utility.yul\":7522:7750   */\n      jump\t// out\n        /* \"#utility.yul\":7755:8153   */\n    tag_243:\n        /* \"#utility.yul\":7957:7959   */\n      0x20\n        /* \"#utility.yul\":7939:7960   */\n      dup1\n      dup3\n      mstore\n        /* \"#utility.yul\":7996:7998   */\n      0x22\n        /* \"#utility.yul\":7976:7994   */\n      swap1\n      dup3\n      add\n        /* \"#utility.yul\":7969:7999   */\n      mstore\n        /* \"#utility.yul\":8035:8069   */\n      0x45524332303a20617070726f766520746f20746865207a65726f206164647265\n        /* \"#utility.yul\":8030:8032   */\n      0x40\n        /* \"#utility.yul\":8015:8033   */\n      dup3\n      add\n        /* \"#utility.yul\":8008:8070   */\n      mstore\n      shl(0xf0, 0x7373)\n        /* \"#utility.yul\":8101:8103   */\n      0x60\n        /* \"#utility.yul\":8086:8104   */\n      dup3\n      add\n        /* \"#utility.yul\":8079:8111   */\n      mstore\n        /* \"#utility.yul\":8143:8146   */\n      0x80\n        /* \"#utility.yul\":8128:8147   */\n      add\n      swap1\n        /* \"#utility.yul\":7929:8153   */\n      jump\t// out\n        /* \"#utility.yul\":8158:8509   */\n    tag_274:\n        /* \"#utility.yul\":8360:8362   */\n      0x20\n        /* \"#utility.yul\":8342:8363   */\n      dup1\n      dup3\n      mstore\n        /* \"#utility.yul\":8399:8401   */\n      0x1b\n        /* \"#utility.yul\":8379:8397   */\n      swap1\n      dup3\n      add\n        /* \"#utility.yul\":8372:8402   */\n      mstore\n        /* \"#utility.yul\":8438:8467   */\n      0x536166654d6174683a206164646974696f6e206f766572666c6f770000000000\n        /* \"#utility.yul\":8433:8435   */\n      0x40\n        /* \"#utility.yul\":8418:8436   */\n      dup3\n      add\n        /* \"#utility.yul\":8411:8468   */\n      mstore\n        /* \"#utility.yul\":8500:8502   */\n      0x60\n        /* \"#utility.yul\":8485:8503   */\n      add\n      swap1\n        /* \"#utility.yul\":8332:8509   */\n      jump\t// out\n        /* \"#utility.yul\":8514:8867   */\n    tag_212:\n        /* \"#utility.yul\":8716:8718   */\n      0x20\n        /* \"#utility.yul\":8698:8719   */\n      dup1\n      dup3\n      mstore\n        /* \"#utility.yul\":8755:8757   */\n      0x1d\n        /* \"#utility.yul\":8735:8753   */\n      swap1\n      dup3\n      add\n        /* \"#utility.yul\":8728:8758   */\n      mstore\n        /* \"#utility.yul\":8794:8825   */\n      0x45524332305065726d69743a206578706972656420646561646c696e65000000\n        /* \"#utility.yul\":8789:8791   */\n      0x40\n        /* \"#utility.yul\":8774:8792   */\n      dup3\n      add\n        /* \"#utility.yul\":8767:8826   */\n      mstore\n        /* \"#utility.yul\":8858:8860   */\n      0x60\n        /* \"#utility.yul\":8843:8861   */\n      add\n      swap1\n        /* \"#utility.yul\":8688:8867   */\n      jump\t// out\n        /* \"#utility.yul\":8872:9226   */\n    tag_378:\n        /* \"#utility.yul\":9074:9076   */\n      0x20\n        /* \"#utility.yul\":9056:9077   */\n      dup1\n      dup3\n      mstore\n        /* \"#utility.yul\":9113:9115   */\n      0x1e\n        /* \"#utility.yul\":9093:9111   */\n      swap1\n      dup3\n      add\n        /* \"#utility.yul\":9086:9116   */\n      mstore\n        /* \"#utility.yul\":9152:9184   */\n      0x536166654d6174683a207375627472616374696f6e206f766572666c6f770000\n        /* \"#utility.yul\":9147:9149   */\n      0x40\n        /* \"#utility.yul\":9132:9150   */\n      dup3\n      add\n        /* \"#utility.yul\":9125:9185   */\n      mstore\n        /* \"#utility.yul\":9217:9219   */\n      0x60\n        /* \"#utility.yul\":9202:9220   */\n      add\n      swap1\n        /* \"#utility.yul\":9046:9226   */\n      jump\t// out\n        /* \"#utility.yul\":9231:9629   */\n    tag_348:\n        /* \"#utility.yul\":9433:9435   */\n      0x20\n        /* \"#utility.yul\":9415:9436   */\n      dup1\n      dup3\n      mstore\n        /* \"#utility.yul\":9472:9474   */\n      0x22\n        /* \"#utility.yul\":9452:9470   */\n      swap1\n      dup3\n      add\n        /* \"#utility.yul\":9445:9475   */\n      mstore\n        /* \"#utility.yul\":9511:9545   */\n      0x45434453413a20696e76616c6964207369676e6174757265202773272076616c\n        /* \"#utility.yul\":9506:9508   */\n      0x40\n        /* \"#utility.yul\":9491:9509   */\n      dup3\n      add\n        /* \"#utility.yul\":9484:9546   */\n      mstore\n      shl(0xf0, 0x7565)\n        /* \"#utility.yul\":9577:9579   */\n      0x60\n        /* \"#utility.yul\":9562:9580   */\n      dup3\n      add\n        /* \"#utility.yul\":9555:9587   */\n      mstore\n        /* \"#utility.yul\":9619:9622   */\n      0x80\n        /* \"#utility.yul\":9604:9623   */\n      add\n      swap1\n        /* \"#utility.yul\":9405:9629   */\n      jump\t// out\n        /* \"#utility.yul\":9634:10044   */\n    tag_165:\n        /* \"#utility.yul\":9836:9838   */\n      0x20\n        /* \"#utility.yul\":9818:9839   */\n      dup1\n      dup3\n      mstore\n        /* \"#utility.yul\":9875:9877   */\n      0x2e\n        /* \"#utility.yul\":9855:9873   */\n      swap1\n      dup3\n      add\n        /* \"#utility.yul\":9848:9878   */\n      mstore\n        /* \"#utility.yul\":9914:9948   */\n      0x496e697469616c697a61626c653a20636f6e747261637420697320616c726561\n        /* \"#utility.yul\":9909:9911   */\n      0x40\n        /* \"#utility.yul\":9894:9912   */\n      dup3\n      add\n        /* \"#utility.yul\":9887:9949   */\n      mstore\n      shl(0x92, 0x191e481a5b9a5d1a585b1a5e9959)\n        /* \"#utility.yul\":9980:9982   */\n      0x60\n        /* \"#utility.yul\":9965:9983   */\n      dup3\n      add\n        /* \"#utility.yul\":9958:10002   */\n      mstore\n        /* \"#utility.yul\":10034:10037   */\n      0x80\n        /* \"#utility.yul\":10019:10038   */\n      add\n      swap1\n        /* \"#utility.yul\":9808:10044   */\n      jump\t// out\n        /* \"#utility.yul\":10049:10447   */\n    tag_352:\n        /* \"#utility.yul\":10251:10253   */\n      0x20\n        /* \"#utility.yul\":10233:10254   */\n      dup1\n      dup3\n      mstore\n        /* \"#utility.yul\":10290:10292   */\n      0x22\n        /* \"#utility.yul\":10270:10288   */\n      swap1\n      dup3\n      add\n        /* \"#utility.yul\":10263:10293   */\n      mstore\n        /* \"#utility.yul\":10329:10363   */\n      0x45434453413a20696e76616c6964207369676e6174757265202776272076616c\n        /* \"#utility.yul\":10324:10326   */\n      0x40\n        /* \"#utility.yul\":10309:10327   */\n      dup3\n      add\n        /* \"#utility.yul\":10302:10364   */\n      mstore\n      shl(0xf0, 0x7565)\n        /* \"#utility.yul\":10395:10397   */\n      0x60\n        /* \"#utility.yul\":10380:10398   */\n      dup3\n      add\n        /* \"#utility.yul\":10373:10405   */\n      mstore\n        /* \"#utility.yul\":10437:10440   */\n      0x80\n        /* \"#utility.yul\":10422:10441   */\n      add\n      swap1\n        /* \"#utility.yul\":10223:10447   */\n      jump\t// out\n        /* \"#utility.yul\":10452:10806   */\n    tag_222:\n        /* \"#utility.yul\":10654:10656   */\n      0x20\n        /* \"#utility.yul\":10636:10657   */\n      dup1\n      dup3\n      mstore\n        /* \"#utility.yul\":10693:10695   */\n      0x1e\n        /* \"#utility.yul\":10673:10691   */\n      swap1\n      dup3\n      add\n        /* \"#utility.yul\":10666:10696   */\n      mstore\n        /* \"#utility.yul\":10732:10764   */\n      0x45524332305065726d69743a20696e76616c6964207369676e61747572650000\n        /* \"#utility.yul\":10727:10729   */\n      0x40\n        /* \"#utility.yul\":10712:10730   */\n      dup3\n      add\n        /* \"#utility.yul\":10705:10765   */\n      mstore\n        /* \"#utility.yul\":10797:10799   */\n      0x60\n        /* \"#utility.yul\":10782:10800   */\n      add\n      swap1\n        /* \"#utility.yul\":10626:10806   */\n      jump\t// out\n        /* \"#utility.yul\":10811:11167   */\n    tag_147:\n        /* \"#utility.yul\":11013:11015   */\n      0x20\n        /* \"#utility.yul\":10995:11016   */\n      dup1\n      dup3\n      mstore\n        /* \"#utility.yul\":11032:11050   */\n      dup2\n      dup2\n      add\n        /* \"#utility.yul\":11025:11055   */\n      mstore\n        /* \"#utility.yul\":11091:11125   */\n      0x4f776e61626c653a2063616c6c6572206973206e6f7420746865206f776e6572\n        /* \"#utility.yul\":11086:11088   */\n      0x40\n        /* \"#utility.yul\":11071:11089   */\n      dup3\n      add\n        /* \"#utility.yul\":11064:11126   */\n      mstore\n        /* \"#utility.yul\":11158:11160   */\n      0x60\n        /* \"#utility.yul\":11143:11161   */\n      add\n      swap1\n        /* \"#utility.yul\":10985:11167   */\n      jump\t// out\n        /* \"#utility.yul\":11172:11569   */\n    tag_286:\n        /* \"#utility.yul\":11374:11376   */\n      0x20\n        /* \"#utility.yul\":11356:11377   */\n      dup1\n      dup3\n      mstore\n        /* \"#utility.yul\":11413:11415   */\n      0x21\n        /* \"#utility.yul\":11393:11411   */\n      swap1\n      dup3\n      add\n        /* \"#utility.yul\":11386:11416   */\n      mstore\n        /* \"#utility.yul\":11452:11486   */\n      0x45524332303a206275726e2066726f6d20746865207a65726f20616464726573\n        /* \"#utility.yul\":11447:11449   */\n      0x40\n        /* \"#utility.yul\":11432:11450   */\n      dup3\n      add\n        /* \"#utility.yul\":11425:11487   */\n      mstore\n      shl(0xf8, 0x73)\n        /* \"#utility.yul\":11518:11520   */\n      0x60\n        /* \"#utility.yul\":11503:11521   */\n      dup3\n      add\n        /* \"#utility.yul\":11496:11527   */\n      mstore\n        /* \"#utility.yul\":11559:11562   */\n      0x80\n        /* \"#utility.yul\":11544:11563   */\n      add\n      swap1\n        /* \"#utility.yul\":11346:11569   */\n      jump\t// out\n        /* \"#utility.yul\":11574:11975   */\n    tag_248:\n        /* \"#utility.yul\":11776:11778   */\n      0x20\n        /* \"#utility.yul\":11758:11779   */\n      dup1\n      dup3\n      mstore\n        /* \"#utility.yul\":11815:11817   */\n      0x25\n        /* \"#utility.yul\":11795:11813   */\n      swap1\n      dup3\n      add\n        /* \"#utility.yul\":11788:11818   */\n      mstore\n        /* \"#utility.yul\":11854:11888   */\n      0x45524332303a207472616e736665722066726f6d20746865207a65726f206164\n        /* \"#utility.yul\":11849:11851   */\n      0x40\n        /* \"#utility.yul\":11834:11852   */\n      dup3\n      add\n        /* \"#utility.yul\":11827:11889   */\n      mstore\n      shl(0xd8, 0x6472657373)\n        /* \"#utility.yul\":11920:11922   */\n      0x60\n        /* \"#utility.yul\":11905:11923   */\n      dup3\n      add\n        /* \"#utility.yul\":11898:11933   */\n      mstore\n        /* \"#utility.yul\":11965:11968   */\n      0x80\n        /* \"#utility.yul\":11950:11969   */\n      add\n      swap1\n        /* \"#utility.yul\":11748:11975   */\n      jump\t// out\n        /* \"#utility.yul\":11980:12380   */\n    tag_240:\n        /* \"#utility.yul\":12182:12184   */\n      0x20\n        /* \"#utility.yul\":12164:12185   */\n      dup1\n      dup3\n      mstore\n        /* \"#utility.yul\":12221:12223   */\n      0x24\n        /* \"#utility.yul\":12201:12219   */\n      swap1\n      dup3\n      add\n        /* \"#utility.yul\":12194:12224   */\n      mstore\n        /* \"#utility.yul\":12260:12294   */\n      0x45524332303a20617070726f76652066726f6d20746865207a65726f20616464\n        /* \"#utility.yul\":12255:12257   */\n      0x40\n        /* \"#utility.yul\":12240:12258   */\n      dup3\n      add\n        /* \"#utility.yul\":12233:12295   */\n      mstore\n      shl(0xe0, 0x72657373)\n        /* \"#utility.yul\":12326:12328   */\n      0x60\n        /* \"#utility.yul\":12311:12329   */\n      dup3\n      add\n        /* \"#utility.yul\":12304:12338   */\n      mstore\n        /* \"#utility.yul\":12370:12373   */\n      0x80\n        /* \"#utility.yul\":12355:12374   */\n      add\n      swap1\n        /* \"#utility.yul\":12154:12380   */\n      jump\t// out\n        /* \"#utility.yul\":12385:12731   */\n    tag_151:\n        /* \"#utility.yul\":12587:12589   */\n      0x20\n        /* \"#utility.yul\":12569:12590   */\n      dup1\n      dup3\n      mstore\n        /* \"#utility.yul\":12626:12628   */\n      0x16\n        /* \"#utility.yul\":12606:12624   */\n      swap1\n      dup3\n      add\n        /* \"#utility.yul\":12599:12629   */\n      mstore\n      shl(0x54, 0x04c50546f6b656e3a2063616e6e6f74206d696e74203)\n        /* \"#utility.yul\":12660:12662   */\n      0x40\n        /* \"#utility.yul\":12645:12663   */\n      dup3\n      add\n        /* \"#utility.yul\":12638:12690   */\n      mstore\n        /* \"#utility.yul\":12722:12724   */\n      0x60\n        /* \"#utility.yul\":12707:12725   */\n      add\n      swap1\n        /* \"#utility.yul\":12559:12731   */\n      jump\t// out\n        /* \"#utility.yul\":12736:13090   */\n    tag_367:\n        /* \"#utility.yul\":12938:12940   */\n      0x20\n        /* \"#utility.yul\":12920:12941   */\n      dup1\n      dup3\n      mstore\n        /* \"#utility.yul\":12977:12979   */\n      0x1e\n        /* \"#utility.yul\":12957:12975   */\n      swap1\n      dup3\n      add\n        /* \"#utility.yul\":12950:12980   */\n      mstore\n        /* \"#utility.yul\":13016:13048   */\n      0x4c50546f6b656e3a2063616e6e6f742073656e6420746f20697473656c660000\n        /* \"#utility.yul\":13011:13013   */\n      0x40\n        /* \"#utility.yul\":12996:13014   */\n      dup3\n      add\n        /* \"#utility.yul\":12989:13049   */\n      mstore\n        /* \"#utility.yul\":13081:13083   */\n      0x60\n        /* \"#utility.yul\":13066:13084   */\n      add\n      swap1\n        /* \"#utility.yul\":12910:13090   */\n      jump\t// out\n        /* \"#utility.yul\":13095:13450   */\n    tag_278:\n        /* \"#utility.yul\":13297:13299   */\n      0x20\n        /* \"#utility.yul\":13279:13300   */\n      dup1\n      dup3\n      mstore\n        /* \"#utility.yul\":13336:13338   */\n      0x1f\n        /* \"#utility.yul\":13316:13334   */\n      swap1\n      dup3\n      add\n        /* \"#utility.yul\":13309:13339   */\n      mstore\n        /* \"#utility.yul\":13375:13408   */\n      0x45524332303a206d696e7420746f20746865207a65726f206164647265737300\n        /* \"#utility.yul\":13370:13372   */\n      0x40\n        /* \"#utility.yul\":13355:13373   */\n      dup3\n      add\n        /* \"#utility.yul\":13348:13409   */\n      mstore\n        /* \"#utility.yul\":13441:13443   */\n      0x60\n        /* \"#utility.yul\":13426:13444   */\n      add\n      swap1\n        /* \"#utility.yul\":13269:13450   */\n      jump\t// out\n        /* \"#utility.yul\":13637:13821   */\n    tag_49:\n        /* \"#utility.yul\":13809:13813   */\n      0xff\n        /* \"#utility.yul\":13797:13814   */\n      swap2\n      swap1\n      swap2\n      and\n        /* \"#utility.yul\":13779:13815   */\n      dup2\n      mstore\n        /* \"#utility.yul\":13767:13769   */\n      0x20\n        /* \"#utility.yul\":13752:13770   */\n      add\n      swap1\n        /* \"#utility.yul\":13734:13821   */\n      jump\t// out\n        /* \"#utility.yul\":13826:13954   */\n    tag_271:\n      0x00\n        /* \"#utility.yul\":13897:13898   */\n      dup3\n        /* \"#utility.yul\":13893:13899   */\n      not\n        /* \"#utility.yul\":13890:13891   */\n      dup3\n        /* \"#utility.yul\":13887:13900   */\n      gt\n        /* \"#utility.yul\":13884:13886   */\n      iszero\n      tag_485\n      jumpi\n        /* \"#utility.yul\":13903:13921   */\n      tag_485\n      tag_486\n      jump\t// in\n    tag_485:\n      pop\n        /* \"#utility.yul\":13939:13948   */\n      add\n      swap1\n        /* \"#utility.yul\":13874:13954   */\n      jump\t// out\n        /* \"#utility.yul\":13959:14084   */\n    tag_261:\n      0x00\n        /* \"#utility.yul\":14027:14028   */\n      dup3\n        /* \"#utility.yul\":14024:14025   */\n      dup3\n        /* \"#utility.yul\":14021:14029   */\n      lt\n        /* \"#utility.yul\":14018:14020   */\n      iszero\n      tag_489\n      jumpi\n        /* \"#utility.yul\":14032:14050   */\n      tag_489\n      tag_486\n      jump\t// in\n    tag_489:\n      pop\n        /* \"#utility.yul\":14069:14078   */\n      sub\n      swap1\n        /* \"#utility.yul\":14008:14084   */\n      jump\t// out\n        /* \"#utility.yul\":14089:14469   */\n    tag_113:\n        /* \"#utility.yul\":14174:14175   */\n      0x02\n        /* \"#utility.yul\":14164:14176   */\n      dup2\n      div\n        /* \"#utility.yul\":14221:14222   */\n      0x01\n        /* \"#utility.yul\":14211:14223   */\n      dup3\n      and\n      dup1\n        /* \"#utility.yul\":14232:14234   */\n      tag_491\n      jumpi\n        /* \"#utility.yul\":14286:14290   */\n      0x7f\n        /* \"#utility.yul\":14278:14284   */\n      dup3\n        /* \"#utility.yul\":14274:14291   */\n      and\n        /* \"#utility.yul\":14264:14291   */\n      swap2\n      pop\n        /* \"#utility.yul\":14232:14234   */\n    tag_491:\n        /* \"#utility.yul\":14339:14341   */\n      0x20\n        /* \"#utility.yul\":14331:14337   */\n      dup3\n        /* \"#utility.yul\":14328:14342   */\n      lt\n        /* \"#utility.yul\":14308:14326   */\n      dup2\n        /* \"#utility.yul\":14305:14343   */\n      eq\n        /* \"#utility.yul\":14302:14304   */\n      iszero\n      tag_492\n      jumpi\n        /* \"#utility.yul\":14385:14395   */\n      0x4e487b71\n        /* \"#utility.yul\":14380:14383   */\n      0xe0\n        /* \"#utility.yul\":14376:14396   */\n      shl\n        /* \"#utility.yul\":14373:14374   */\n      0x00\n        /* \"#utility.yul\":14366:14397   */\n      mstore\n        /* \"#utility.yul\":14420:14424   */\n      0x22\n        /* \"#utility.yul\":14417:14418   */\n      0x04\n        /* \"#utility.yul\":14410:14425   */\n      mstore\n        /* \"#utility.yul\":14448:14452   */\n      0x24\n        /* \"#utility.yul\":14445:14446   */\n      0x00\n        /* \"#utility.yul\":14438:14453   */\n      revert\n        /* \"#utility.yul\":14302:14304   */\n    tag_492:\n      pop\n        /* \"#utility.yul\":14144:14469   */\n      swap2\n      swap1\n      pop\n      jump\t// out\n        /* \"#utility.yul\":14474:14601   */\n    tag_486:\n        /* \"#utility.yul\":14535:14545   */\n      0x4e487b71\n        /* \"#utility.yul\":14530:14533   */\n      0xe0\n        /* \"#utility.yul\":14526:14546   */\n      shl\n        /* \"#utility.yul\":14523:14524   */\n      0x00\n        /* \"#utility.yul\":14516:14547   */\n      mstore\n        /* \"#utility.yul\":14566:14570   */\n      0x11\n        /* \"#utility.yul\":14563:14564   */\n      0x04\n        /* \"#utility.yul\":14556:14571   */\n      mstore\n        /* \"#utility.yul\":14590:14594   */\n      0x24\n        /* \"#utility.yul\":14587:14588   */\n      0x00\n        /* \"#utility.yul\":14580:14595   */\n      revert\n        /* \"#utility.yul\":14606:14733   */\n    tag_420:\n        /* \"#utility.yul\":14667:14677   */\n      0x4e487b71\n        /* \"#utility.yul\":14662:14665   */\n      0xe0\n        /* \"#utility.yul\":14658:14678   */\n      shl\n        /* \"#utility.yul\":14655:14656   */\n      0x00\n        /* \"#utility.yul\":14648:14679   */\n      mstore\n        /* \"#utility.yul\":14698:14702   */\n      0x41\n        /* \"#utility.yul\":14695:14696   */\n      0x04\n        /* \"#utility.yul\":14688:14703   */\n      mstore\n        /* \"#utility.yul\":14722:14726   */\n      0x24\n        /* \"#utility.yul\":14719:14720   */\n      0x00\n        /* \"#utility.yul\":14712:14727   */\n      revert\n    stop\n    data_149b126e7125232b4200af45303d04fba8b74653b1a295a6a561a528c33fefdd 45524332303a206275726e20616d6f756e7420657863656564732062616c616e6365\n    data_4107e8a8b9e94bf8ff83080ddec1c0bffe897ebc2241b89d44f66b3d274088b6 45524332303a207472616e7366657220616d6f756e7420657863656564732062616c616e6365\n    data_974d1b4421da69cc60b481194f0dad36a5bb4e23da810da7a7fb30cdba178330 45524332303a207472616e7366657220616d6f756e74206578636565647320616c6c6f77616e6365\n    data_a287c363786607a1457a2d9d12fa61c0073358e02d76b4035fc2c2d86a19c0db 45524332303a206275726e20616d6f756e74206578636565647320616c6c6f77616e6365\n    data_f8b476f7d28209d77d4a4ac1fe36b9f8259aa1bb6bddfa6e89de7e51615cf8a8 45524332303a2064656372656173656420616c6c6f77616e63652062656c6f77207a65726f\n\n    auxdata: 0xa26469706673582212206645b07de9eccc99d460bc716b01c134617a86ce9dd34cddef8fa63c03a68d2164736f6c63430008000033\n}\n",
				"bytecode": {
					"linkReferences": {},
					"object": "608060405234801561001057600080fd5b50611d4b806100206000396000f3fe608060405234801561001057600080fd5b50600436106101375760003560e01c806370a08231116100b857806395d89b411161007c57806395d89b4114610263578063a457c2d71461026b578063a9059cbb1461027e578063d505accf14610291578063dd62ed3e146102a4578063f2fde38b146102b757610137565b806370a082311461020d578063715018a61461022057806379cc6790146102285780637ecebe001461023b5780638da5cb5b1461024e57610137565b80633644e515116100ff5780633644e515146101b757806339509351146101bf57806340c10f19146101d257806342966c68146101e75780634cd88b76146101fa57610137565b806306fdde031461013c578063095ea7b31461015a57806318160ddd1461017a57806323b872dd1461018f578063313ce567146101a2575b600080fd5b6101446102ca565b6040516101519190611718565b60405180910390f35b61016d6101683660046115b5565b61035c565b6040516101519190611686565b610182610379565b6040516101519190611691565b61016d61019d366004611509565b61037f565b6101aa610406565b6040516101519190611bb8565b61018261040f565b61016d6101cd3660046115b5565b61041e565b6101e56101e03660046115b5565b61046c565b005b6101e56101f536600461163f565b6104df565b61016d6102083660046115de565b6104f3565b61018261021b3660046114bd565b6105a2565b6101e56105c1565b6101e56102363660046115b5565b61064a565b6101826102493660046114bd565b61069f565b6102566106c6565b6040516101519190611672565b6101446106d5565b61016d6102793660046115b5565b6106e4565b61016d61028c3660046115b5565b61074c565b6101e561029f366004611544565b610760565b6101826102b23660046114d7565b610869565b6101e56102c53660046114bd565b610894565b6060603680546102d990611bf5565b80601f016020809104026020016040519081016040528092919081815260200182805461030590611bf5565b80156103525780601f1061032757610100808354040283529160200191610352565b820191906000526020600020905b81548152906001019060200180831161033557829003601f168201915b5050505050905090565b6000610370610369610955565b8484610959565b50600192915050565b60355490565b600061038c848484610a0d565b6103fc84610398610955565b6103f785604051806060016040528060288152602001611ca5602891396001600160a01b038a166000908152603460205260408120906103d6610955565b6001600160a01b031681526020810191909152604001600020549190610b22565b610959565b5060019392505050565b60385460ff1690565b6000610419610b59565b905090565b600061037061042b610955565b846103f7856034600061043c610955565b6001600160a01b03908116825260208083019390935260409182016000908120918c168152925290205490610b94565b610474610955565b6001600160a01b03166104856106c6565b6001600160a01b0316146104b45760405162461bcd60e51b81526004016104ab90611a1b565b60405180910390fd5b806104d15760405162461bcd60e51b81526004016104ab90611b1a565b6104db8282610bca565b5050565b6104f06104ea610955565b82610c8a565b50565b60008054610100900460ff168061050d575061050d610d60565b8061051b575060005460ff16155b6105375760405162461bcd60e51b81526004016104ab90611954565b600054610100900460ff16158015610562576000805460ff1961ff0019909116610100171660011790555b61056a610d71565b6105748484610df3565b61057d84610eac565b610585610f63565b60019150801561059b576000805461ff00191690555b5092915050565b6001600160a01b0381166000908152603360205260409020545b919050565b6105c9610955565b6001600160a01b03166105da6106c6565b6001600160a01b0316146106005760405162461bcd60e51b81526004016104ab90611a1b565b60fe546040516000916001600160a01b0316907f8be0079c531659141344cd1fd0a4f28419497f9722a3daafe3b4186f6b6457e0908390a360fe80546001600160a01b0319169055565b600061067c82604051806060016040528060248152602001611ccd60249139610675866102b2610955565b9190610b22565b90506106908361068a610955565b83610959565b61069a8383610c8a565b505050565b6001600160a01b03811660009081526099602052604081206106c09061103d565b92915050565b60fe546001600160a01b031690565b6060603780546102d990611bf5565b60006103706106f1610955565b846103f785604051806060016040528060258152602001611cf1602591396034600061071b610955565b6001600160a01b03908116825260208083019390935260409182016000908120918d16815292529020549190610b22565b6000610370610759610955565b8484610a0d565b834211156107805760405162461bcd60e51b81526004016104ab906118a4565b6000609a548888886107b5609960008e6001600160a01b03166001600160a01b0316815260200190815260200160002061103d565b896040516020016107cb9695949392919061169a565b60405160208183030381529060405280519060200120905060006107ee82611041565b905060006107fe8287878761107a565b9050896001600160a01b0316816001600160a01b0316146108315760405162461bcd60e51b81526004016104ab906119e4565b6001600160a01b038a16600090815260996020526040902061085290611170565b61085d8a8a8a610959565b50505050505050505050565b6001600160a01b03918216600090815260346020908152604080832093909416825291909152205490565b61089c610955565b6001600160a01b03166108ad6106c6565b6001600160a01b0316146108d35760405162461bcd60e51b81526004016104ab90611a1b565b6001600160a01b0381166108f95760405162461bcd60e51b81526004016104ab906117e5565b60fe546040516001600160a01b038084169216907f8be0079c531659141344cd1fd0a4f28419497f9722a3daafe3b4186f6b6457e090600090a360fe80546001600160a01b0319166001600160a01b0392909216919091179055565b3390565b6001600160a01b03831661097f5760405162461bcd60e51b81526004016104ab90611ad6565b6001600160a01b0382166109a55760405162461bcd60e51b81526004016104ab9061182b565b6001600160a01b0380841660008181526034602090815260408083209487168084529490915290819020849055517f8c5be1e5ebec7d5bd14f71427d1e84f3dd0314c0f7b2291e5b200ac8c7c3b92590610a00908590611691565b60405180910390a3505050565b6001600160a01b038316610a335760405162461bcd60e51b81526004016104ab90611a91565b6001600160a01b038216610a595760405162461bcd60e51b81526004016104ab906117a2565b610a6483838361118d565b610aa181604051806060016040528060268152602001611c7f602691396001600160a01b0386166000908152603360205260409020549190610b22565b6001600160a01b038085166000908152603360205260408082209390935590841681522054610ad09082610b94565b6001600160a01b0380841660008181526033602052604090819020939093559151908516907fddf252ad1be2c89b69c2b068fc378daa952ba7f163c4a11628f55a4df523b3ef90610a00908590611691565b60008184841115610b465760405162461bcd60e51b81526004016104ab9190611718565b50610b518385611bde565b949350505050565b60006104197f8b73c3c69bb8fe3d512ecc4cf759cc79239f7b179b0ffacaa9a75d522b39400f610b876111c1565b610b8f6111c7565b6111cd565b600080610ba18385611bc6565b905083811015610bc35760405162461bcd60e51b81526004016104ab9061186d565b9392505050565b6001600160a01b038216610bf05760405162461bcd60e51b81526004016104ab90611b81565b610bfc6000838361118d565b603554610c099082610b94565b6035556001600160a01b038216600090815260336020526040902054610c2f9082610b94565b6001600160a01b0383166000818152603360205260408082209390935591519091907fddf252ad1be2c89b69c2b068fc378daa952ba7f163c4a11628f55a4df523b3ef90610c7e908590611691565b60405180910390a35050565b6001600160a01b038216610cb05760405162461bcd60e51b81526004016104ab90611a50565b610cbc8260008361118d565b610cf981604051806060016040528060228152602001611c5d602291396001600160a01b0385166000908152603360205260409020549190610b22565b6001600160a01b038316600090815260336020526040902055603554610d1f908261120e565b6035556040516000906001600160a01b038416907fddf252ad1be2c89b69c2b068fc378daa952ba7f163c4a11628f55a4df523b3ef90610c7e908590611691565b6000610d6b3061123a565b15905090565b600054610100900460ff1680610d8a5750610d8a610d60565b80610d98575060005460ff16155b610db45760405162461bcd60e51b81526004016104ab90611954565b600054610100900460ff16158015610ddf576000805460ff1961ff0019909116610100171660011790555b80156104f0576000805461ff001916905550565b600054610100900460ff1680610e0c5750610e0c610d60565b80610e1a575060005460ff16155b610e365760405162461bcd60e51b81526004016104ab90611954565b600054610100900460ff16158015610e61576000805460ff1961ff0019909116610100171660011790555b8251610e7490603690602086019061138c565b508151610e8890603790602085019061138c565b506038805460ff19166012179055801561069a576000805461ff0019169055505050565b600054610100900460ff1680610ec55750610ec5610d60565b80610ed3575060005460ff16155b610eef5760405162461bcd60e51b81526004016104ab90611954565b600054610100900460ff16158015610f1a576000805460ff1961ff0019909116610100171660011790555b610f22610d71565b610f4582604051806040016040528060018152602001603160f81b815250611240565b610f4e826112e1565b80156104db576000805461ff00191690555050565b600054610100900460ff1680610f7c5750610f7c610d60565b80610f8a575060005460ff16155b610fa65760405162461bcd60e51b81526004016104ab90611954565b600054610100900460ff16158015610fd1576000805460ff1961ff0019909116610100171660011790555b6000610fdb610955565b60fe80546001600160a01b0319166001600160a01b038316908117909155604051919250906000907f8be0079c531659141344cd1fd0a4f28419497f9722a3daafe3b4186f6b6457e0908290a35080156104f0576000805461ff001916905550565b5490565b600061104b610b59565b8260405160200161105d929190611657565b604051602081830303815290604052805190602001209050919050565b60007f7fffffffffffffffffffffffffffffff5d576e7357a4501ddfe92f46681b20a08211156110bc5760405162461bcd60e51b81526004016104ab90611912565b8360ff16601b14806110d157508360ff16601c145b6110ed5760405162461bcd60e51b81526004016104ab906119a2565b60006001868686866040516000815260200160405260405161111294939291906116fa565b6020604051602081039080840390855afa158015611134573d6000803e3d6000fd5b5050604051601f1901519150506001600160a01b0381166111675760405162461bcd60e51b81526004016104ab9061176b565b95945050505050565b60018160000160008282546111859190611bc6565b909155505050565b61119883838361069a565b6001600160a01b03821630141561069a5760405162461bcd60e51b81526004016104ab90611b4a565b60655490565b60665490565b60008383836111da611388565b306040516020016111ef9594939291906116ce565b6040516020818303038152906040528051906020012090509392505050565b6000828211156112305760405162461bcd60e51b81526004016104ab906118db565b610bc38284611bde565b3b151590565b600054610100900460ff16806112595750611259610d60565b80611267575060005460ff16155b6112835760405162461bcd60e51b81526004016104ab90611954565b600054610100900460ff161580156112ae576000805460ff1961ff0019909116610100171660011790555b8251602080850191909120835191840191909120606591909155606655801561069a576000805461ff0019169055505050565b600054610100900460ff16806112fa57506112fa610d60565b80611308575060005460ff16155b6113245760405162461bcd60e51b81526004016104ab90611954565b600054610100900460ff1615801561134f576000805460ff1961ff0019909116610100171660011790555b7f6e71edae12b1b97f4d1f60370fef10105fa2faae0126114a169c64845d6126c9609a5580156104db576000805461ff00191690555050565b4690565b82805461139890611bf5565b90600052602060002090601f0160209004810192826113ba5760008555611400565b82601f106113d357805160ff1916838001178555611400565b82800160010185558215611400579182015b828111156114005782518255916020019190600101906113e5565b5061140c929150611410565b5090565b5b8082111561140c5760008155600101611411565b80356001600160a01b03811681146105bc57600080fd5b600082601f83011261144c578081fd5b813567ffffffffffffffff8082111561146757611467611c46565b604051601f8301601f19168101602001828111828210171561148b5761148b611c46565b6040528281528483016020018610156114a2578384fd5b82602086016020830137918201602001929092529392505050565b6000602082840312156114ce578081fd5b610bc382611425565b600080604083850312156114e9578081fd5b6114f283611425565b915061150060208401611425565b90509250929050565b60008060006060848603121561151d578081fd5b61152684611425565b925061153460208501611425565b9150604084013590509250925092565b600080600080600080600060e0888a03121561155e578283fd5b61156788611425565b965061157560208901611425565b95506040880135945060608801359350608088013560ff81168114611598578384fd5b9699959850939692959460a0840135945060c09093013592915050565b600080604083850312156115c7578182fd5b6115d083611425565b946020939093013593505050565b600080604083850312156115f0578182fd5b823567ffffffffffffffff80821115611607578384fd5b6116138683870161143c565b93506020850135915080821115611628578283fd5b506116358582860161143c565b9150509250929050565b600060208284031215611650578081fd5b5035919050565b61190160f01b81526002810192909252602282015260420190565b6001600160a01b0391909116815260200190565b901515815260200190565b90815260200190565b9586526001600160a01b0394851660208701529290931660408501526060840152608083019190915260a082015260c00190565b9485526020850193909352604084019190915260608301526001600160a01b0316608082015260a00190565b93845260ff9290921660208401526040830152606082015260800190565b6000602080835283518082850152825b8181101561174457858101830151858201604001528201611728565b818111156117555783604083870101525b50601f01601f1916929092016040019392505050565b60208082526018908201527f45434453413a20696e76616c6964207369676e61747572650000000000000000604082015260600190565b60208082526023908201527f45524332303a207472616e7366657220746f20746865207a65726f206164647260408201526265737360e81b606082015260800190565b60208082526026908201527f4f776e61626c653a206e6577206f776e657220697320746865207a65726f206160408201526564647265737360d01b606082015260800190565b60208082526022908201527f45524332303a20617070726f766520746f20746865207a65726f206164647265604082015261737360f01b606082015260800190565b6020808252601b908201527f536166654d6174683a206164646974696f6e206f766572666c6f770000000000604082015260600190565b6020808252601d908201527f45524332305065726d69743a206578706972656420646561646c696e65000000604082015260600190565b6020808252601e908201527f536166654d6174683a207375627472616374696f6e206f766572666c6f770000604082015260600190565b60208082526022908201527f45434453413a20696e76616c6964207369676e6174757265202773272076616c604082015261756560f01b606082015260800190565b6020808252602e908201527f496e697469616c697a61626c653a20636f6e747261637420697320616c72656160408201526d191e481a5b9a5d1a585b1a5e995960921b606082015260800190565b60208082526022908201527f45434453413a20696e76616c6964207369676e6174757265202776272076616c604082015261756560f01b606082015260800190565b6020808252601e908201527f45524332305065726d69743a20696e76616c6964207369676e61747572650000604082015260600190565b6020808252818101527f4f776e61626c653a2063616c6c6572206973206e6f7420746865206f776e6572604082015260600190565b60208082526021908201527f45524332303a206275726e2066726f6d20746865207a65726f206164647265736040820152607360f81b606082015260800190565b60208082526025908201527f45524332303a207472616e736665722066726f6d20746865207a65726f206164604082015264647265737360d81b606082015260800190565b60208082526024908201527f45524332303a20617070726f76652066726f6d20746865207a65726f206164646040820152637265737360e01b606082015260800190565b60208082526016908201527504c50546f6b656e3a2063616e6e6f74206d696e7420360541b604082015260600190565b6020808252601e908201527f4c50546f6b656e3a2063616e6e6f742073656e6420746f20697473656c660000604082015260600190565b6020808252601f908201527f45524332303a206d696e7420746f20746865207a65726f206164647265737300604082015260600190565b60ff91909116815260200190565b60008219821115611bd957611bd9611c30565b500190565b600082821015611bf057611bf0611c30565b500390565b600281046001821680611c0957607f821691505b60208210811415611c2a57634e487b7160e01b600052602260045260246000fd5b50919050565b634e487b7160e01b600052601160045260246000fd5b634e487b7160e01b600052604160045260246000fdfe45524332303a206275726e20616d6f756e7420657863656564732062616c616e636545524332303a207472616e7366657220616d6f756e7420657863656564732062616c616e636545524332303a207472616e7366657220616d6f756e74206578636565647320616c6c6f77616e636545524332303a206275726e20616d6f756e74206578636565647320616c6c6f77616e636545524332303a2064656372656173656420616c6c6f77616e63652062656c6f77207a65726fa26469706673582212206645b07de9eccc99d460bc716b01c134617a86ce9dd34cddef8fa63c03a68d2164736f6c63430008000033",
					"opcodes": "PUSH1 0x80 PUSH1 0x40 MSTORE CALLVALUE DUP1 ISZERO PUSH2 0x10 JUMPI PUSH1 0x0 DUP1 REVERT JUMPDEST POP PUSH2 0x1D4B DUP1 PUSH2 0x20 PUSH1 0x0 CODECOPY PUSH1 0x0 RETURN INVALID PUSH1 0x80 PUSH1 0x40 MSTORE CALLVALUE DUP1 ISZERO PUSH2 0x10 JUMPI PUSH1 0x0 DUP1 REVERT JUMPDEST POP PUSH1 0x4 CALLDATASIZE LT PUSH2 0x137 JUMPI PUSH1 0x0 CALLDATALOAD PUSH1 0xE0 SHR DUP1 PUSH4 0x70A08231 GT PUSH2 0xB8 JUMPI DUP1 PUSH4 0x95D89B41 GT PUSH2 0x7C JUMPI DUP1 PUSH4 0x95D89B41 EQ PUSH2 0x263 JUMPI DUP1 PUSH4 0xA457C2D7 EQ PUSH2 0x26B JUMPI DUP1 PUSH4 0xA9059CBB EQ PUSH2 0x27E JUMPI DUP1 PUSH4 0xD505ACCF EQ PUSH2 0x291 JUMPI DUP1 PUSH4 0xDD62ED3E EQ PUSH2 0x2A4 JUMPI DUP1 PUSH4 0xF2FDE38B EQ PUSH2 0x2B7 JUMPI PUSH2 0x137 JUMP JUMPDEST DUP1 PUSH4 0x70A08231 EQ PUSH2 0x20D JUMPI DUP1 PUSH4 0x715018A6 EQ PUSH2 0x220 JUMPI DUP1 PUSH4 0x79CC6790 EQ PUSH2 0x228 JUMPI DUP1 PUSH4 0x7ECEBE00 EQ PUSH2 0x23B JUMPI DUP1 PUSH4 0x8DA5CB5B EQ PUSH2 0x24E JUMPI PUSH2 0x137 JUMP JUMPDEST DUP1 PUSH4 0x3644E515 GT PUSH2 0xFF JUMPI DUP1 PUSH4 0x3644E515 EQ PUSH2 0x1B7 JUMPI DUP1 PUSH4 0x39509351 EQ PUSH2 0x1BF JUMPI DUP1 PUSH4 0x40C10F19 EQ PUSH2 0x1D2 JUMPI DUP1 PUSH4 0x42966C68 EQ PUSH2 0x1E7 JUMPI DUP1 PUSH4 0x4CD88B76 EQ PUSH2 0x1FA JUMPI PUSH2 0x137 JUMP JUMPDEST DUP1 PUSH4 0x6FDDE03 EQ PUSH2 0x13C JUMPI DUP1 PUSH4 0x95EA7B3 EQ PUSH2 0x15A JUMPI DUP1 PUSH4 0x18160DDD EQ PUSH2 0x17A JUMPI DUP1 PUSH4 0x23B872DD EQ PUSH2 0x18F JUMPI DUP1 PUSH4 0x313CE567 EQ PUSH2 0x1A2 JUMPI JUMPDEST PUSH1 0x0 DUP1 REVERT JUMPDEST PUSH2 0x144 PUSH2 0x2CA JUMP JUMPDEST PUSH1 0x40 MLOAD PUSH2 0x151 SWAP2 SWAP1 PUSH2 0x1718 JUMP JUMPDEST PUSH1 0x40 MLOAD DUP1 SWAP2 SUB SWAP1 RETURN JUMPDEST PUSH2 0x16D PUSH2 0x168 CALLDATASIZE PUSH1 0x4 PUSH2 0x15B5 JUMP JUMPDEST PUSH2 0x35C JUMP JUMPDEST PUSH1 0x40 MLOAD PUSH2 0x151 SWAP2 SWAP1 PUSH2 0x1686 JUMP JUMPDEST PUSH2 0x182 PUSH2 0x379 JUMP JUMPDEST PUSH1 0x40 MLOAD PUSH2 0x151 SWAP2 SWAP1 PUSH2 0x1691 JUMP JUMPDEST PUSH2 0x16D PUSH2 0x19D CALLDATASIZE PUSH1 0x4 PUSH2 0x1509 JUMP JUMPDEST PUSH2 0x37F JUMP JUMPDEST PUSH2 0x1AA PUSH2 0x406 JUMP JUMPDEST PUSH1 0x40 MLOAD PUSH2 0x151 SWAP2 SWAP1 PUSH2 0x1BB8 JUMP JUMPDEST PUSH2 0x182 PUSH2 0x40F JUMP JUMPDEST PUSH2 0x16D PUSH2 0x1CD CALLDATASIZE PUSH1 0x4 PUSH2 0x15B5 JUMP JUMPDEST PUSH2 0x41E JUMP JUMPDEST PUSH2 0x1E5 PUSH2 0x1E0 CALLDATASIZE PUSH1 0x4 PUSH2 0x15B5 JUMP JUMPDEST PUSH2 0x46C JUMP JUMPDEST STOP JUMPDEST PUSH2 0x1E5 PUSH2 0x1F5 CALLDATASIZE PUSH1 0x4 PUSH2 0x163F JUMP JUMPDEST PUSH2 0x4DF JUMP JUMPDEST PUSH2 0x16D PUSH2 0x208 CALLDATASIZE PUSH1 0x4 PUSH2 0x15DE JUMP JUMPDEST PUSH2 0x4F3 JUMP JUMPDEST PUSH2 0x182 PUSH2 0x21B CALLDATASIZE PUSH1 0x4 PUSH2 0x14BD JUMP JUMPDEST PUSH2 0x5A2 JUMP JUMPDEST PUSH2 0x1E5 PUSH2 0x5C1 JUMP JUMPDEST PUSH2 0x1E5 PUSH2 0x236 CALLDATASIZE PUSH1 0x4 PUSH2 0x15B5 JUMP JUMPDEST PUSH2 0x64A JUMP JUMPDEST PUSH2 0x182 PUSH2 0x249 CALLDATASIZE PUSH1 0x4 PUSH2 0x14BD JUMP JUMPDEST PUSH2 0x69F JUMP JUMPDEST PUSH2 0x256 PUSH2 0x6C6 JUMP JUMPDEST PUSH1 0x40 MLOAD PUSH2 0x151 SWAP2 SWAP1 PUSH2 0x1672 JUMP JUMPDEST PUSH2 0x144 PUSH2 0x6D5 JUMP JUMPDEST PUSH2 0x16D PUSH2 0x279 CALLDATASIZE PUSH1 0x4 PUSH2 0x15B5 JUMP JUMPDEST PUSH2 0x6E4 JUMP JUMPDEST PUSH2 0x16D PUSH2 0x28C CALLDATASIZE PUSH1 0x4 PUSH2 0x15B5 JUMP JUMPDEST PUSH2 0x74C JUMP JUMPDEST PUSH2 0x1E5 PUSH2 0x29F CALLDATASIZE PUSH1 0x4 PUSH2 0x1544 JUMP JUMPDEST PUSH2 0x760 JUMP JUMPDEST PUSH2 0x182 PUSH2 0x2B2 CALLDATASIZE PUSH1 0x4 PUSH2 0x14D7 JUMP JUMPDEST PUSH2 0x869 JUMP JUMPDEST PUSH2 0x1E5 PUSH2 0x2C5 CALLDATASIZE PUSH1 0x4 PUSH2 0x14BD JUMP JUMPDEST PUSH2 0x894 JUMP JUMPDEST PUSH1 0x60 PUSH1 0x36 DUP1 SLOAD PUSH2 0x2D9 SWAP1 PUSH2 0x1BF5 JUMP JUMPDEST DUP1 PUSH1 0x1F ADD PUSH1 0x20 DUP1 SWAP2 DIV MUL PUSH1 0x20 ADD PUSH1 0x40 MLOAD SWAP1 DUP2 ADD PUSH1 0x40 MSTORE DUP1 SWAP3 SWAP2 SWAP1 DUP2 DUP2 MSTORE PUSH1 0x20 ADD DUP3 DUP1 SLOAD PUSH2 0x305 SWAP1 PUSH2 0x1BF5 JUMP JUMPDEST DUP1 ISZERO PUSH2 0x352 JUMPI DUP1 PUSH1 0x1F LT PUSH2 0x327 JUMPI PUSH2 0x100 DUP1 DUP4 SLOAD DIV MUL DUP4 MSTORE SWAP2 PUSH1 0x20 ADD SWAP2 PUSH2 0x352 JUMP JUMPDEST DUP3 ADD SWAP2 SWAP1 PUSH1 0x0 MSTORE PUSH1 0x20 PUSH1 0x0 KECCAK256 SWAP1 JUMPDEST DUP2 SLOAD DUP2 MSTORE SWAP1 PUSH1 0x1 ADD SWAP1 PUSH1 0x20 ADD DUP1 DUP4 GT PUSH2 0x335 JUMPI DUP3 SWAP1 SUB PUSH1 0x1F AND DUP3 ADD SWAP2 JUMPDEST POP POP POP POP POP SWAP1 POP SWAP1 JUMP JUMPDEST PUSH1 0x0 PUSH2 0x370 PUSH2 0x369 PUSH2 0x955 JUMP JUMPDEST DUP5 DUP5 PUSH2 0x959 JUMP JUMPDEST POP PUSH1 0x1 SWAP3 SWAP2 POP POP JUMP JUMPDEST PUSH1 0x35 SLOAD SWAP1 JUMP JUMPDEST PUSH1 0x0 PUSH2 0x38C DUP5 DUP5 DUP5 PUSH2 0xA0D JUMP JUMPDEST PUSH2 0x3FC DUP5 PUSH2 0x398 PUSH2 0x955 JUMP JUMPDEST PUSH2 0x3F7 DUP6 PUSH1 0x40 MLOAD DUP1 PUSH1 0x60 ADD PUSH1 0x40 MSTORE DUP1 PUSH1 0x28 DUP2 MSTORE PUSH1 0x20 ADD PUSH2 0x1CA5 PUSH1 0x28 SWAP2 CODECOPY PUSH1 0x1 PUSH1 0x1 PUSH1 0xA0 SHL SUB DUP11 AND PUSH1 0x0 SWAP1 DUP2 MSTORE PUSH1 0x34 PUSH1 0x20 MSTORE PUSH1 0x40 DUP2 KECCAK256 SWAP1 PUSH2 0x3D6 PUSH2 0x955 JUMP JUMPDEST PUSH1 0x1 PUSH1 0x1 PUSH1 0xA0 SHL SUB AND DUP2 MSTORE PUSH1 0x20 DUP2 ADD SWAP2 SWAP1 SWAP2 MSTORE PUSH1 0x40 ADD PUSH1 0x0 KECCAK256 SLOAD SWAP2 SWAP1 PUSH2 0xB22 JUMP JUMPDEST PUSH2 0x959 JUMP JUMPDEST POP PUSH1 0x1 SWAP4 SWAP3 POP POP POP JUMP JUMPDEST PUSH1 0x38 SLOAD PUSH1 0xFF AND SWAP1 JUMP JUMPDEST PUSH1 0x0 PUSH2 0x419 PUSH2 0xB59 JUMP JUMPDEST SWAP1 POP SWAP1 JUMP JUMPDEST PUSH1 0x0 PUSH2 0x370 PUSH2 0x42B PUSH2 0x955 JUMP JUMPDEST DUP5 PUSH2 0x3F7 DUP6 PUSH1 0x34 PUSH1 0x0 PUSH2 0x43C PUSH2 0x955 JUMP JUMPDEST PUSH1 0x1 PUSH1 0x1 PUSH1 0xA0 SHL SUB SWAP1 DUP2 AND DUP3 MSTORE PUSH1 0x20 DUP1 DUP4 ADD SWAP4 SWAP1 SWAP4 MSTORE PUSH1 0x40 SWAP2 DUP3 ADD PUSH1 0x0 SWAP1 DUP2 KECCAK256 SWAP2 DUP13 AND DUP2 MSTORE SWAP3 MSTORE SWAP1 KECCAK256 SLOAD SWAP1 PUSH2 0xB94 JUMP JUMPDEST PUSH2 0x474 PUSH2 0x955 JUMP JUMPDEST PUSH1 0x1 PUSH1 0x1 PUSH1 0xA0 SHL SUB AND PUSH2 0x485 PUSH2 0x6C6 JUMP JUMPDEST PUSH1 0x1 PUSH1 0x1 PUSH1 0xA0 SHL SUB AND EQ PUSH2 0x4B4 JUMPI PUSH1 0x40 MLOAD PUSH3 0x461BCD PUSH1 0xE5 SHL DUP2 MSTORE PUSH1 0x4 ADD PUSH2 0x4AB SWAP1 PUSH2 0x1A1B JUMP JUMPDEST PUSH1 0x40 MLOAD DUP1 SWAP2 SUB SWAP1 REVERT JUMPDEST DUP1 PUSH2 0x4D1 JUMPI PUSH1 0x40 MLOAD PUSH3 0x461BCD PUSH1 0xE5 SHL DUP2 MSTORE PUSH1 0x4 ADD PUSH2 0x4AB SWAP1 PUSH2 0x1B1A JUMP JUMPDEST PUSH2 0x4DB DUP3 DUP3 PUSH2 0xBCA JUMP JUMPDEST POP POP JUMP JUMPDEST PUSH2 0x4F0 PUSH2 0x4EA PUSH2 0x955 JUMP JUMPDEST DUP3 PUSH2 0xC8A JUMP JUMPDEST POP JUMP JUMPDEST PUSH1 0x0 DUP1 SLOAD PUSH2 0x100 SWAP1 DIV PUSH1 0xFF AND DUP1 PUSH2 0x50D JUMPI POP PUSH2 0x50D PUSH2 0xD60 JUMP JUMPDEST DUP1 PUSH2 0x51B JUMPI POP PUSH1 0x0 SLOAD PUSH1 0xFF AND ISZERO JUMPDEST PUSH2 0x537 JUMPI PUSH1 0x40 MLOAD PUSH3 0x461BCD PUSH1 0xE5 SHL DUP2 MSTORE PUSH1 0x4 ADD PUSH2 0x4AB SWAP1 PUSH2 0x1954 JUMP JUMPDEST PUSH1 0x0 SLOAD PUSH2 0x100 SWAP1 DIV PUSH1 0xFF AND ISZERO DUP1 ISZERO PUSH2 0x562 JUMPI PUSH1 0x0 DUP1 SLOAD PUSH1 0xFF NOT PUSH2 0xFF00 NOT SWAP1 SWAP2 AND PUSH2 0x100 OR AND PUSH1 0x1 OR SWAP1 SSTORE JUMPDEST PUSH2 0x56A PUSH2 0xD71 JUMP JUMPDEST PUSH2 0x574 DUP5 DUP5 PUSH2 0xDF3 JUMP JUMPDEST PUSH2 0x57D DUP5 PUSH2 0xEAC JUMP JUMPDEST PUSH2 0x585 PUSH2 0xF63 JUMP JUMPDEST PUSH1 0x1 SWAP2 POP DUP1 ISZERO PUSH2 0x59B JUMPI PUSH1 0x0 DUP1 SLOAD PUSH2 0xFF00 NOT AND SWAP1 SSTORE JUMPDEST POP SWAP3 SWAP2 POP POP JUMP JUMPDEST PUSH1 0x1 PUSH1 0x1 PUSH1 0xA0 SHL SUB DUP2 AND PUSH1 0x0 SWAP1 DUP2 MSTORE PUSH1 0x33 PUSH1 0x20 MSTORE PUSH1 0x40 SWAP1 KECCAK256 SLOAD JUMPDEST SWAP2 SWAP1 POP JUMP JUMPDEST PUSH2 0x5C9 PUSH2 0x955 JUMP JUMPDEST PUSH1 0x1 PUSH1 0x1 PUSH1 0xA0 SHL SUB AND PUSH2 0x5DA PUSH2 0x6C6 JUMP JUMPDEST PUSH1 0x1 PUSH1 0x1 PUSH1 0xA0 SHL SUB AND EQ PUSH2 0x600 JUMPI PUSH1 0x40 MLOAD PUSH3 0x461BCD PUSH1 0xE5 SHL DUP2 MSTORE PUSH1 0x4 ADD PUSH2 0x4AB SWAP1 PUSH2 0x1A1B JUMP JUMPDEST PUSH1 0xFE SLOAD PUSH1 0x40 MLOAD PUSH1 0x0 SWAP2 PUSH1 0x1 PUSH1 0x1 PUSH1 0xA0 SHL SUB AND SWAP1 PUSH32 0x8BE0079C531659141344CD1FD0A4F28419497F9722A3DAAFE3B4186F6B6457E0 SWAP1 DUP4 SWAP1 LOG3 PUSH1 0xFE DUP1 SLOAD PUSH1 0x1 PUSH1 0x1 PUSH1 0xA0 SHL SUB NOT AND SWAP1 SSTORE JUMP JUMPDEST PUSH1 0x0 PUSH2 0x67C DUP3 PUSH1 0x40 MLOAD DUP1 PUSH1 0x60 ADD PUSH1 0x40 MSTORE DUP1 PUSH1 0x24 DUP2 MSTORE PUSH1 0x20 ADD PUSH2 0x1CCD PUSH1 0x24 SWAP2 CODECOPY PUSH2 0x675 DUP7 PUSH2 0x2B2 PUSH2 0x955 JUMP JUMPDEST SWAP2 SWAP1 PUSH2 0xB22 JUMP JUMPDEST SWAP1 POP PUSH2 0x690 DUP4 PUSH2 0x68A PUSH2 0x955 JUMP JUMPDEST DUP4 PUSH2 0x959 JUMP JUMPDEST PUSH2 0x69A DUP4 DUP4 PUSH2 0xC8A JUMP JUMPDEST POP POP POP JUMP JUMPDEST PUSH1 0x1 PUSH1 0x1 PUSH1 0xA0 SHL SUB DUP2 AND PUSH1 0x0 SWAP1 DUP2 MSTORE PUSH1 0x99 PUSH1 0x20 MSTORE PUSH1 0x40 DUP2 KECCAK256 PUSH2 0x6C0 SWAP1 PUSH2 0x103D JUMP JUMPDEST SWAP3 SWAP2 POP POP JUMP JUMPDEST PUSH1 0xFE SLOAD PUSH1 0x1 PUSH1 0x1 PUSH1 0xA0 SHL SUB AND SWAP1 JUMP JUMPDEST PUSH1 0x60 PUSH1 0x37 DUP1 SLOAD PUSH2 0x2D9 SWAP1 PUSH2 0x1BF5 JUMP JUMPDEST PUSH1 0x0 PUSH2 0x370 PUSH2 0x6F1 PUSH2 0x955 JUMP JUMPDEST DUP5 PUSH2 0x3F7 DUP6 PUSH1 0x40 MLOAD DUP1 PUSH1 0x60 ADD PUSH1 0x40 MSTORE DUP1 PUSH1 0x25 DUP2 MSTORE PUSH1 0x20 ADD PUSH2 0x1CF1 PUSH1 0x25 SWAP2 CODECOPY PUSH1 0x34 PUSH1 0x0 PUSH2 0x71B PUSH2 0x955 JUMP JUMPDEST PUSH1 0x1 PUSH1 0x1 PUSH1 0xA0 SHL SUB SWAP1 DUP2 AND DUP3 MSTORE PUSH1 0x20 DUP1 DUP4 ADD SWAP4 SWAP1 SWAP4 MSTORE PUSH1 0x40 SWAP2 DUP3 ADD PUSH1 0x0 SWAP1 DUP2 KECCAK256 SWAP2 DUP14 AND DUP2 MSTORE SWAP3 MSTORE SWAP1 KECCAK256 SLOAD SWAP2 SWAP1 PUSH2 0xB22 JUMP JUMPDEST PUSH1 0x0 PUSH2 0x370 PUSH2 0x759 PUSH2 0x955 JUMP JUMPDEST DUP5 DUP5 PUSH2 0xA0D JUMP JUMPDEST DUP4 TIMESTAMP GT ISZERO PUSH2 0x780 JUMPI PUSH1 0x40 MLOAD PUSH3 0x461BCD PUSH1 0xE5 SHL DUP2 MSTORE PUSH1 0x4 ADD PUSH2 0x4AB SWAP1 PUSH2 0x18A4 JUMP JUMPDEST PUSH1 0x0 PUSH1 0x9A SLOAD DUP9 DUP9 DUP9 PUSH2 0x7B5 PUSH1 0x99 PUSH1 0x0 DUP15 PUSH1 0x1 PUSH1 0x1 PUSH1 0xA0 SHL SUB AND PUSH1 0x1 PUSH1 0x1 PUSH1 0xA0 SHL SUB AND DUP2 MSTORE PUSH1 0x20 ADD SWAP1 DUP2 MSTORE PUSH1 0x20 ADD PUSH1 0x0 KECCAK256 PUSH2 0x103D JUMP JUMPDEST DUP10 PUSH1 0x40 MLOAD PUSH1 0x20 ADD PUSH2 0x7CB SWAP7 SWAP6 SWAP5 SWAP4 SWAP3 SWAP2 SWAP1 PUSH2 0x169A JUMP JUMPDEST PUSH1 0x40 MLOAD PUSH1 0x20 DUP2 DUP4 SUB SUB DUP2 MSTORE SWAP1 PUSH1 0x40 MSTORE DUP1 MLOAD SWAP1 PUSH1 0x20 ADD KECCAK256 SWAP1 POP PUSH1 0x0 PUSH2 0x7EE DUP3 PUSH2 0x1041 JUMP JUMPDEST SWAP1 POP PUSH1 0x0 PUSH2 0x7FE DUP3 DUP8 DUP8 DUP8 PUSH2 0x107A JUMP JUMPDEST SWAP1 POP DUP10 PUSH1 0x1 PUSH1 0x1 PUSH1 0xA0 SHL SUB AND DUP2 PUSH1 0x1 PUSH1 0x1 PUSH1 0xA0 SHL SUB AND EQ PUSH2 0x831 JUMPI PUSH1 0x40 MLOAD PUSH3 0x461BCD PUSH1 0xE5 SHL DUP2 MSTORE PUSH1 0x4 ADD PUSH2 0x4AB SWAP1 PUSH2 0x19E4 JUMP JUMPDEST PUSH1 0x1 PUSH1 0x1 PUSH1 0xA0 SHL SUB DUP11 AND PUSH1 0x0 SWAP1 DUP2 MSTORE PUSH1 0x99 PUSH1 0x20 MSTORE PUSH1 0x40 SWAP1 KECCAK256 PUSH2 0x852 SWAP1 PUSH2 0x1170 JUMP JUMPDEST PUSH2 0x85D DUP11 DUP11 DUP11 PUSH2 0x959 JUMP JUMPDEST POP POP POP POP POP POP POP POP POP POP JUMP JUMPDEST PUSH1 0x1 PUSH1 0x1 PUSH1 0xA0 SHL SUB SWAP2 DUP3 AND PUSH1 0x0 SWAP1 DUP2 MSTORE PUSH1 0x34 PUSH1 0x20 SWAP1 DUP2 MSTORE PUSH1 0x40 DUP1 DUP4 KECCAK256 SWAP4 SWAP1 SWAP5 AND DUP3 MSTORE SWAP2 SWAP1 SWAP2 MSTORE KECCAK256 SLOAD SWAP1 JUMP JUMPDEST PUSH2 0x89C PUSH2 0x955 JUMP JUMPDEST PUSH1 0x1 PUSH1 0x1 PUSH1 0xA0 SHL SUB AND PUSH2 0x8AD PUSH2 0x6C6 JUMP JUMPDEST PUSH1 0x1 PUSH1 0x1 PUSH1 0xA0 SHL SUB AND EQ PUSH2 0x8D3 JUMPI PUSH1 0x40 MLOAD PUSH3 0x461BCD PUSH1 0xE5 SHL DUP2 MSTORE PUSH1 0x4 ADD PUSH2 0x4AB SWAP1 PUSH2 0x1A1B JUMP JUMPDEST PUSH1 0x1 PUSH1 0x1 PUSH1 0xA0 SHL SUB DUP2 AND PUSH2 0x8F9 JUMPI PUSH1 0x40 MLOAD PUSH3 0x461BCD PUSH1 0xE5 SHL DUP2 MSTORE PUSH1 0x4 ADD PUSH2 0x4AB SWAP1 PUSH2 0x17E5 JUMP JUMPDEST PUSH1 0xFE SLOAD PUSH1 0x40 MLOAD PUSH1 0x1 PUSH1 0x1 PUSH1 0xA0 SHL SUB DUP1 DUP5 AND SWAP3 AND SWAP1 PUSH32 0x8BE0079C531659141344CD1FD0A4F28419497F9722A3DAAFE3B4186F6B6457E0 SWAP1 PUSH1 0x0 SWAP1 LOG3 PUSH1 0xFE DUP1 SLOAD PUSH1 0x1 PUSH1 0x1 PUSH1 0xA0 SHL SUB NOT AND PUSH1 0x1 PUSH1 0x1 PUSH1 0xA0 SHL SUB SWAP3 SWAP1 SWAP3 AND SWAP2 SWAP1 SWAP2 OR SWAP1 SSTORE JUMP JUMPDEST CALLER SWAP1 JUMP JUMPDEST PUSH1 0x1 PUSH1 0x1 PUSH1 0xA0 SHL SUB DUP4 AND PUSH2 0x97F JUMPI PUSH1 0x40 MLOAD PUSH3 0x461BCD PUSH1 0xE5 SHL DUP2 MSTORE PUSH1 0x4 ADD PUSH2 0x4AB SWAP1 PUSH2 0x1AD6 JUMP JUMPDEST PUSH1 0x1 PUSH1 0x1 PUSH1 0xA0 SHL SUB DUP3 AND PUSH2 0x9A5 JUMPI PUSH1 0x40 MLOAD PUSH3 0x461BCD PUSH1 0xE5 SHL DUP2 MSTORE PUSH1 0x4 ADD PUSH2 0x4AB SWAP1 PUSH2 0x182B JUMP JUMPDEST PUSH1 0x1 PUSH1 0x1 PUSH1 0xA0 SHL SUB DUP1 DUP5 AND PUSH1 0x0 DUP2 DUP2 MSTORE PUSH1 0x34 PUSH1 0x20 SWAP1 DUP2 MSTORE PUSH1 0x40 DUP1 DUP4 KECCAK256 SWAP5 DUP8 AND DUP1 DUP5 MSTORE SWAP5 SWAP1 SWAP2 MSTORE SWAP1 DUP2 SWAP1 KECCAK256 DUP5 SWAP1 SSTORE MLOAD PUSH32 0x8C5BE1E5EBEC7D5BD14F71427D1E84F3DD0314C0F7B2291E5B200AC8C7C3B925 SWAP1 PUSH2 0xA00 SWAP1 DUP6 SWAP1 PUSH2 0x1691 JUMP JUMPDEST PUSH1 0x40 MLOAD DUP1 SWAP2 SUB SWAP1 LOG3 POP POP POP JUMP JUMPDEST PUSH1 0x1 PUSH1 0x1 PUSH1 0xA0 SHL SUB DUP4 AND PUSH2 0xA33 JUMPI PUSH1 0x40 MLOAD PUSH3 0x461BCD PUSH1 0xE5 SHL DUP2 MSTORE PUSH1 0x4 ADD PUSH2 0x4AB SWAP1 PUSH2 0x1A91 JUMP JUMPDEST PUSH1 0x1 PUSH1 0x1 PUSH1 0xA0 SHL SUB DUP3 AND PUSH2 0xA59 JUMPI PUSH1 0x40 MLOAD PUSH3 0x461BCD PUSH1 0xE5 SHL DUP2 MSTORE PUSH1 0x4 ADD PUSH2 0x4AB SWAP1 PUSH2 0x17A2 JUMP JUMPDEST PUSH2 0xA64 DUP4 DUP4 DUP4 PUSH2 0x118D JUMP JUMPDEST PUSH2 0xAA1 DUP2 PUSH1 0x40 MLOAD DUP1 PUSH1 0x60 ADD PUSH1 0x40 MSTORE DUP1 PUSH1 0x26 DUP2 MSTORE PUSH1 0x20 ADD PUSH2 0x1C7F PUSH1 0x26 SWAP2 CODECOPY PUSH1 0x1 PUSH1 0x1 PUSH1 0xA0 SHL SUB DUP7 AND PUSH1 0x0 SWAP1 DUP2 MSTORE PUSH1 0x33 PUSH1 0x20 MSTORE PUSH1 0x40 SWAP1 KECCAK256 SLOAD SWAP2 SWAP1 PUSH2 0xB22 JUMP JUMPDEST PUSH1 0x1 PUSH1 0x1 PUSH1 0xA0 SHL SUB DUP1 DUP6 AND PUSH1 0x0 SWAP1 DUP2 MSTORE PUSH1 0x33 PUSH1 0x20 MSTORE PUSH1 0x40 DUP1 DUP3 KECCAK256 SWAP4 SWAP1 SWAP4 SSTORE SWAP1 DUP5 AND DUP2 MSTORE KECCAK256 SLOAD PUSH2 0xAD0 SWAP1 DUP3 PUSH2 0xB94 JUMP JUMPDEST PUSH1 0x1 PUSH1 0x1 PUSH1 0xA0 SHL SUB DUP1 DUP5 AND PUSH1 0x0 DUP2 DUP2 MSTORE PUSH1 0x33 PUSH1 0x20 MSTORE PUSH1 0x40 SWAP1 DUP2 SWAP1 KECCAK256 SWAP4 SWAP1 SWAP4 SSTORE SWAP2 MLOAD SWAP1 DUP6 AND SWAP1 PUSH32 0xDDF252AD1BE2C89B69C2B068FC378DAA952BA7F163C4A11628F55A4DF523B3EF SWAP1 PUSH2 0xA00 SWAP1 DUP6 SWAP1 PUSH2 0x1691 JUMP JUMPDEST PUSH1 0x0 DUP2 DUP5 DUP5 GT ISZERO PUSH2 0xB46 JUMPI PUSH1 0x40 MLOAD PUSH3 0x461BCD PUSH1 0xE5 SHL DUP2 MSTORE PUSH1 0x4 ADD PUSH2 0x4AB SWAP2 SWAP1 PUSH2 0x1718 JUMP JUMPDEST POP PUSH2 0xB51 DUP4 DUP6 PUSH2 0x1BDE JUMP JUMPDEST SWAP5 SWAP4 POP POP POP POP JUMP JUMPDEST PUSH1 0x0 PUSH2 0x419 PUSH32 0x8B73C3C69BB8FE3D512ECC4CF759CC79239F7B179B0FFACAA9A75D522B39400F PUSH2 0xB87 PUSH2 0x11C1 JUMP JUMPDEST PUSH2 0xB8F PUSH2 0x11C7 JUMP JUMPDEST PUSH2 0x11CD JUMP JUMPDEST PUSH1 0x0 DUP1 PUSH2 0xBA1 DUP4 DUP6 PUSH2 0x1BC6 JUMP JUMPDEST SWAP1 POP DUP4 DUP2 LT ISZERO PUSH2 0xBC3 JUMPI PUSH1 0x40 MLOAD PUSH3 0x461BCD PUSH1 0xE5 SHL DUP2 MSTORE PUSH1 0x4 ADD PUSH2 0x4AB SWAP1 PUSH2 0x186D JUMP JUMPDEST SWAP4 SWAP3 POP POP POP JUMP JUMPDEST PUSH1 0x1 PUSH1 0x1 PUSH1 0xA0 SHL SUB DUP3 AND PUSH2 0xBF0 JUMPI PUSH1 0x40 MLOAD PUSH3 0x461BCD PUSH1 0xE5 SHL DUP2 MSTORE PUSH1 0x4 ADD PUSH2 0x4AB SWAP1 PUSH2 0x1B81 JUMP JUMPDEST PUSH2 0xBFC PUSH1 0x0 DUP4 DUP4 PUSH2 0x118D JUMP JUMPDEST PUSH1 0x35 SLOAD PUSH2 0xC09 SWAP1 DUP3 PUSH2 0xB94 JUMP JUMPDEST PUSH1 0x35 SSTORE PUSH1 0x1 PUSH1 0x1 PUSH1 0xA0 SHL SUB DUP3 AND PUSH1 0x0 SWAP1 DUP2 MSTORE PUSH1 0x33 PUSH1 0x20 MSTORE PUSH1 0x40 SWAP1 KECCAK256 SLOAD PUSH2 0xC2F SWAP1 DUP3 PUSH2 0xB94 JUMP JUMPDEST PUSH1 0x1 PUSH1 0x1 PUSH1 0xA0 SHL SUB DUP4 AND PUSH1 0x0 DUP2 DUP2 MSTORE PUSH1 0x33 PUSH1 0x20 MSTORE PUSH1 0x40 DUP1 DUP3 KECCAK256 SWAP4 SWAP1 SWAP4 SSTORE SWAP2 MLOAD SWAP1 SWAP2 SWAP1 PUSH32 0xDDF252AD1BE2C89B69C2B068FC378DAA952BA7F163C4A11628F55A4DF523B3EF SWAP1 PUSH2 0xC7E SWAP1 DUP6 SWAP1 PUSH2 0x1691 JUMP JUMPDEST PUSH1 0x40 MLOAD DUP1 SWAP2 SUB SWAP1 LOG3 POP POP JUMP JUMPDEST PUSH1 0x1 PUSH1 0x1 PUSH1 0xA0 SHL SUB DUP3 AND PUSH2 0xCB0 JUMPI PUSH1 0x40 MLOAD PUSH3 0x461BCD PUSH1 0xE5 SHL DUP2 MSTORE PUSH1 0x4 ADD PUSH2 0x4AB SWAP1 PUSH2 0x1A50 JUMP JUMPDEST PUSH2 0xCBC DUP3 PUSH1 0x0 DUP4 PUSH2 0x118D JUMP JUMPDEST PUSH2 0xCF9 DUP2 PUSH1 0x40 MLOAD DUP1 PUSH1 0x60 ADD PUSH1 0x40 MSTORE DUP1 PUSH1 0x22 DUP2 MSTORE PUSH1 0x20 ADD PUSH2 0x1C5D PUSH1 0x22 SWAP2 CODECOPY PUSH1 0x1 PUSH1 0x1 PUSH1 0xA0 SHL SUB DUP6 AND PUSH1 0x0 SWAP1 DUP2 MSTORE PUSH1 0x33 PUSH1 0x20 MSTORE PUSH1 0x40 SWAP1 KECCAK256 SLOAD SWAP2 SWAP1 PUSH2 0xB22 JUMP JUMPDEST PUSH1 0x1 PUSH1 0x1 PUSH1 0xA0 SHL SUB DUP4 AND PUSH1 0x0 SWAP1 DUP2 MSTORE PUSH1 0x33 PUSH1 0x20 MSTORE PUSH1 0x40 SWAP1 KECCAK256 SSTORE PUSH1 0x35 SLOAD PUSH2 0xD1F SWAP1 DUP3 PUSH2 0x120E JUMP JUMPDEST PUSH1 0x35 SSTORE PUSH1 0x40 MLOAD PUSH1 0x0 SWAP1 PUSH1 0x1 PUSH1 0x1 PUSH1 0xA0 SHL SUB DUP5 AND SWAP1 PUSH32 0xDDF252AD1BE2C89B69C2B068FC378DAA952BA7F163C4A11628F55A4DF523B3EF SWAP1 PUSH2 0xC7E SWAP1 DUP6 SWAP1 PUSH2 0x1691 JUMP JUMPDEST PUSH1 0x0 PUSH2 0xD6B ADDRESS PUSH2 0x123A JUMP JUMPDEST ISZERO SWAP1 POP SWAP1 JUMP JUMPDEST PUSH1 0x0 SLOAD PUSH2 0x100 SWAP1 DIV PUSH1 0xFF AND DUP1 PUSH2 0xD8A JUMPI POP PUSH2 0xD8A PUSH2 0xD60 JUMP JUMPDEST DUP1 PUSH2 0xD98 JUMPI POP PUSH1 0x0 SLOAD PUSH1 0xFF AND ISZERO JUMPDEST PUSH2 0xDB4 JUMPI PUSH1 0x40 MLOAD PUSH3 0x461BCD PUSH1 0xE5 SHL DUP2 MSTORE PUSH1 0x4 ADD PUSH2 0x4AB SWAP1 PUSH2 0x1954 JUMP JUMPDEST PUSH1 0x0 SLOAD PUSH2 0x100 SWAP1 DIV PUSH1 0xFF AND ISZERO DUP1 ISZERO PUSH2 0xDDF JUMPI PUSH1 0x0 DUP1 SLOAD PUSH1 0xFF NOT PUSH2 0xFF00 NOT SWAP1 SWAP2 AND PUSH2 0x100 OR AND PUSH1 0x1 OR SWAP1 SSTORE JUMPDEST DUP1 ISZERO PUSH2 0x4F0 JUMPI PUSH1 0x0 DUP1 SLOAD PUSH2 0xFF00 NOT AND SWAP1 SSTORE POP JUMP JUMPDEST PUSH1 0x0 SLOAD PUSH2 0x100 SWAP1 DIV PUSH1 0xFF AND DUP1 PUSH2 0xE0C JUMPI POP PUSH2 0xE0C PUSH2 0xD60 JUMP JUMPDEST DUP1 PUSH2 0xE1A JUMPI POP PUSH1 0x0 SLOAD PUSH1 0xFF AND ISZERO JUMPDEST PUSH2 0xE36 JUMPI PUSH1 0x40 MLOAD PUSH3 0x461BCD PUSH1 0xE5 SHL DUP2 MSTORE PUSH1 0x4 ADD PUSH2 0x4AB SWAP1 PUSH2 0x1954 JUMP JUMPDEST PUSH1 0x0 SLOAD PUSH2 0x100 SWAP1 DIV PUSH1 0xFF AND ISZERO DUP1 ISZERO PUSH2 0xE61 JUMPI PUSH1 0x0 DUP1 SLOAD PUSH1 0xFF NOT PUSH2 0xFF00 NOT SWAP1 SWAP2 AND PUSH2 0x100 OR AND PUSH1 0x1 OR SWAP1 SSTORE JUMPDEST DUP3 MLOAD PUSH2 0xE74 SWAP1 PUSH1 0x36 SWAP1 PUSH1 0x20 DUP7 ADD SWAP1 PUSH2 0x138C JUMP JUMPDEST POP DUP2 MLOAD PUSH2 0xE88 SWAP1 PUSH1 0x37 SWAP1 PUSH1 0x20 DUP6 ADD SWAP1 PUSH2 0x138C JUMP JUMPDEST POP PUSH1 0x38 DUP1 SLOAD PUSH1 0xFF NOT AND PUSH1 0x12 OR SWAP1 SSTORE DUP1 ISZERO PUSH2 0x69A JUMPI PUSH1 0x0 DUP1 SLOAD PUSH2 0xFF00 NOT AND SWAP1 SSTORE POP POP POP JUMP JUMPDEST PUSH1 0x0 SLOAD PUSH2 0x100 SWAP1 DIV PUSH1 0xFF AND DUP1 PUSH2 0xEC5 JUMPI POP PUSH2 0xEC5 PUSH2 0xD60 JUMP JUMPDEST DUP1 PUSH2 0xED3 JUMPI POP PUSH1 0x0 SLOAD PUSH1 0xFF AND ISZERO JUMPDEST PUSH2 0xEEF JUMPI PUSH1 0x40 MLOAD PUSH3 0x461BCD PUSH1 0xE5 SHL DUP2 MSTORE PUSH1 0x4 ADD PUSH2 0x4AB SWAP1 PUSH2 0x1954 JUMP JUMPDEST PUSH1 0x0 SLOAD PUSH2 0x100 SWAP1 DIV PUSH1 0xFF AND ISZERO DUP1 ISZERO PUSH2 0xF1A JUMPI PUSH1 0x0 DUP1 SLOAD PUSH1 0xFF NOT PUSH2 0xFF00 NOT SWAP1 SWAP2 AND PUSH2 0x100 OR AND PUSH1 0x1 OR SWAP1 SSTORE JUMPDEST PUSH2 0xF22 PUSH2 0xD71 JUMP JUMPDEST PUSH2 0xF45 DUP3 PUSH1 0x40 MLOAD DUP1 PUSH1 0x40 ADD PUSH1 0x40 MSTORE DUP1 PUSH1 0x1 DUP2 MSTORE PUSH1 0x20 ADD PUSH1 0x31 PUSH1 0xF8 SHL DUP2 MSTORE POP PUSH2 0x1240 JUMP JUMPDEST PUSH2 0xF4E DUP3 PUSH2 0x12E1 JUMP JUMPDEST DUP1 ISZERO PUSH2 0x4DB JUMPI PUSH1 0x0 DUP1 SLOAD PUSH2 0xFF00 NOT AND SWAP1 SSTORE POP POP JUMP JUMPDEST PUSH1 0x0 SLOAD PUSH2 0x100 SWAP1 DIV PUSH1 0xFF AND DUP1 PUSH2 0xF7C JUMPI POP PUSH2 0xF7C PUSH2 0xD60 JUMP JUMPDEST DUP1 PUSH2 0xF8A JUMPI POP PUSH1 0x0 SLOAD PUSH1 0xFF AND ISZERO JUMPDEST PUSH2 0xFA6 JUMPI PUSH1 0x40 MLOAD PUSH3 0x461BCD PUSH1 0xE5 SHL DUP2 MSTORE PUSH1 0x4 ADD PUSH2 0x4AB SWAP1 PUSH2 0x1954 JUMP JUMPDEST PUSH1 0x0 SLOAD PUSH2 0x100 SWAP1 DIV PUSH1 0xFF AND ISZERO DUP1 ISZERO PUSH2 0xFD1 JUMPI PUSH1 0x0 DUP1 SLOAD PUSH1 0xFF NOT PUSH2 0xFF00 NOT SWAP1 SWAP2 AND PUSH2 0x100 OR AND PUSH1 0x1 OR SWAP1 SSTORE JUMPDEST PUSH1 0x0 PUSH2 0xFDB PUSH2 0x955 JUMP JUMPDEST PUSH1 0xFE DUP1 SLOAD PUSH1 0x1 PUSH1 0x1 PUSH1 0xA0 SHL SUB NOT AND PUSH1 0x1 PUSH1 0x1 PUSH1 0xA0 SHL SUB DUP4 AND SWAP1 DUP2 OR SWAP1 SWAP2 SSTORE PUSH1 0x40 MLOAD SWAP2 SWAP3 POP SWAP1 PUSH1 0x0 SWAP1 PUSH32 0x8BE0079C531659141344CD1FD0A4F28419497F9722A3DAAFE3B4186F6B6457E0 SWAP1 DUP3 SWAP1 LOG3 POP DUP1 ISZERO PUSH2 0x4F0 JUMPI PUSH1 0x0 DUP1 SLOAD PUSH2 0xFF00 NOT AND SWAP1 SSTORE POP JUMP JUMPDEST SLOAD SWAP1 JUMP JUMPDEST PUSH1 0x0 PUSH2 0x104B PUSH2 0xB59 JUMP JUMPDEST DUP3 PUSH1 0x40 MLOAD PUSH1 0x20 ADD PUSH2 0x105D SWAP3 SWAP2 SWAP1 PUSH2 0x1657 JUMP JUMPDEST PUSH1 0x40 MLOAD PUSH1 0x20 DUP2 DUP4 SUB SUB DUP2 MSTORE SWAP1 PUSH1 0x40 MSTORE DUP1 MLOAD SWAP1 PUSH1 0x20 ADD KECCAK256 SWAP1 POP SWAP2 SWAP1 POP JUMP JUMPDEST PUSH1 0x0 PUSH32 0x7FFFFFFFFFFFFFFFFFFFFFFFFFFFFFFF5D576E7357A4501DDFE92F46681B20A0 DUP3 GT ISZERO PUSH2 0x10BC JUMPI PUSH1 0x40 MLOAD PUSH3 0x461BCD PUSH1 0xE5 SHL DUP2 MSTORE PUSH1 0x4 ADD PUSH2 0x4AB SWAP1 PUSH2 0x1912 JUMP JUMPDEST DUP4 PUSH1 0xFF AND PUSH1 0x1B EQ DUP1 PUSH2 0x10D1 JUMPI POP DUP4 PUSH1 0xFF AND PUSH1 0x1C EQ JUMPDEST PUSH2 0x10ED JUMPI PUSH1 0x40 MLOAD PUSH3 0x461BCD PUSH1 0xE5 SHL DUP2 MSTORE PUSH1 0x4 ADD PUSH2 0x4AB SWAP1 PUSH2 0x19A2 JUMP JUMPDEST PUSH1 0x0 PUSH1 0x1 DUP7 DUP7 DUP7 DUP7 PUSH1 0x40 MLOAD PUSH1 0x0 DUP2 MSTORE PUSH1 0x20 ADD PUSH1 0x40 MSTORE PUSH1 0x40 MLOAD PUSH2 0x1112 SWAP5 SWAP4 SWAP3 SWAP2 SWAP1 PUSH2 0x16FA JUMP JUMPDEST PUSH1 0x20 PUSH1 0x40 MLOAD PUSH1 0x20 DUP2 SUB SWAP1 DUP1 DUP5 SUB SWAP1 DUP6 GAS STATICCALL ISZERO DUP1 ISZERO PUSH2 0x1134 JUMPI RETURNDATASIZE PUSH1 0x0 DUP1 RETURNDATACOPY RETURNDATASIZE PUSH1 0x0 REVERT JUMPDEST POP POP PUSH1 0x40 MLOAD PUSH1 0x1F NOT ADD MLOAD SWAP2 POP POP PUSH1 0x1 PUSH1 0x1 PUSH1 0xA0 SHL SUB DUP2 AND PUSH2 0x1167 JUMPI PUSH1 0x40 MLOAD PUSH3 0x461BCD PUSH1 0xE5 SHL DUP2 MSTORE PUSH1 0x4 ADD PUSH2 0x4AB SWAP1 PUSH2 0x176B JUMP JUMPDEST SWAP6 SWAP5 POP POP POP POP POP JUMP JUMPDEST PUSH1 0x1 DUP2 PUSH1 0x0 ADD PUSH1 0x0 DUP3 DUP3 SLOAD PUSH2 0x1185 SWAP2 SWAP1 PUSH2 0x1BC6 JUMP JUMPDEST SWAP1 SWAP2 SSTORE POP POP POP JUMP JUMPDEST PUSH2 0x1198 DUP4 DUP4 DUP4 PUSH2 0x69A JUMP JUMPDEST PUSH1 0x1 PUSH1 0x1 PUSH1 0xA0 SHL SUB DUP3 AND ADDRESS EQ ISZERO PUSH2 0x69A JUMPI PUSH1 0x40 MLOAD PUSH3 0x461BCD PUSH1 0xE5 SHL DUP2 MSTORE PUSH1 0x4 ADD PUSH2 0x4AB SWAP1 PUSH2 0x1B4A JUMP JUMPDEST PUSH1 0x65 SLOAD SWAP1 JUMP JUMPDEST PUSH1 0x66 SLOAD SWAP1 JUMP JUMPDEST PUSH1 0x0 DUP4 DUP4 DUP4 PUSH2 0x11DA PUSH2 0x1388 JUMP JUMPDEST ADDRESS PUSH1 0x40 MLOAD PUSH1 0x20 ADD PUSH2 0x11EF SWAP6 SWAP5 SWAP4 SWAP3 SWAP2 SWAP1 PUSH2 0x16CE JUMP JUMPDEST PUSH1 0x40 MLOAD PUSH1 0x20 DUP2 DUP4 SUB SUB DUP2 MSTORE SWAP1 PUSH1 0x40 MSTORE DUP1 MLOAD SWAP1 PUSH1 0x20 ADD KECCAK256 SWAP1 POP SWAP4 SWAP3 POP POP POP JUMP JUMPDEST PUSH1 0x0 DUP3 DUP3 GT ISZERO PUSH2 0x1230 JUMPI PUSH1 0x40 MLOAD PUSH3 0x461BCD PUSH1 0xE5 SHL DUP2 MSTORE PUSH1 0x4 ADD PUSH2 0x4AB SWAP1 PUSH2 0x18DB JUMP JUMPDEST PUSH2 0xBC3 DUP3 DUP5 PUSH2 0x1BDE JUMP JUMPDEST EXTCODESIZE ISZERO ISZERO SWAP1 JUMP JUMPDEST PUSH1 0x0 SLOAD PUSH2 0x100 SWAP1 DIV PUSH1 0xFF AND DUP1 PUSH2 0x1259 JUMPI POP PUSH2 0x1259 PUSH2 0xD60 JUMP JUMPDEST DUP1 PUSH2 0x1267 JUMPI POP PUSH1 0x0 SLOAD PUSH1 0xFF AND ISZERO JUMPDEST PUSH2 0x1283 JUMPI PUSH1 0x40 MLOAD PUSH3 0x461BCD PUSH1 0xE5 SHL DUP2 MSTORE PUSH1 0x4 ADD PUSH2 0x4AB SWAP1 PUSH2 0x1954 JUMP JUMPDEST PUSH1 0x0 SLOAD PUSH2 0x100 SWAP1 DIV PUSH1 0xFF AND ISZERO DUP1 ISZERO PUSH2 0x12AE JUMPI PUSH1 0x0 DUP1 SLOAD PUSH1 0xFF NOT PUSH2 0xFF00 NOT SWAP1 SWAP2 AND PUSH2 0x100 OR AND PUSH1 0x1 OR SWAP1 SSTORE JUMPDEST DUP3 MLOAD PUSH1 0x20 DUP1 DUP6 ADD SWAP2 SWAP1 SWAP2 KECCAK256 DUP4 MLOAD SWAP2 DUP5 ADD SWAP2 SWAP1 SWAP2 KECCAK256 PUSH1 0x65 SWAP2 SWAP1 SWAP2 SSTORE PUSH1 0x66 SSTORE DUP1 ISZERO PUSH2 0x69A JUMPI PUSH1 0x0 DUP1 SLOAD PUSH2 0xFF00 NOT AND SWAP1 SSTORE POP POP POP JUMP JUMPDEST PUSH1 0x0 SLOAD PUSH2 0x100 SWAP1 DIV PUSH1 0xFF AND DUP1 PUSH2 0x12FA JUMPI POP PUSH2 0x12FA PUSH2 0xD60 JUMP JUMPDEST DUP1 PUSH2 0x1308 JUMPI POP PUSH1 0x0 SLOAD PUSH1 0xFF AND ISZERO JUMPDEST PUSH2 0x1324 JUMPI PUSH1 0x40 MLOAD PUSH3 0x461BCD PUSH1 0xE5 SHL DUP2 MSTORE PUSH1 0x4 ADD PUSH2 0x4AB SWAP1 PUSH2 0x1954 JUMP JUMPDEST PUSH1 0x0 SLOAD PUSH2 0x100 SWAP1 DIV PUSH1 0xFF AND ISZERO DUP1 ISZERO PUSH2 0x134F JUMPI PUSH1 0x0 DUP1 SLOAD PUSH1 0xFF NOT PUSH2 0xFF00 NOT SWAP1 SWAP2 AND PUSH2 0x100 OR AND PUSH1 0x1 OR SWAP1 SSTORE JUMPDEST PUSH32 0x6E71EDAE12B1B97F4D1F60370FEF10105FA2FAAE0126114A169C64845D6126C9 PUSH1 0x9A SSTORE DUP1 ISZERO PUSH2 0x4DB JUMPI PUSH1 0x0 DUP1 SLOAD PUSH2 0xFF00 NOT AND SWAP1 SSTORE POP POP JUMP JUMPDEST CHAINID SWAP1 JUMP JUMPDEST DUP3 DUP1 SLOAD PUSH2 0x1398 SWAP1 PUSH2 0x1BF5 JUMP JUMPDEST SWAP1 PUSH1 0x0 MSTORE PUSH1 0x20 PUSH1 0x0 KECCAK256 SWAP1 PUSH1 0x1F ADD PUSH1 0x20 SWAP1 DIV DUP2 ADD SWAP3 DUP3 PUSH2 0x13BA JUMPI PUSH1 0x0 DUP6 SSTORE PUSH2 0x1400 JUMP JUMPDEST DUP3 PUSH1 0x1F LT PUSH2 0x13D3 JUMPI DUP1 MLOAD PUSH1 0xFF NOT AND DUP4 DUP1 ADD OR DUP6 SSTORE PUSH2 0x1400 JUMP JUMPDEST DUP3 DUP1 ADD PUSH1 0x1 ADD DUP6 SSTORE DUP3 ISZERO PUSH2 0x1400 JUMPI SWAP2 DUP3 ADD JUMPDEST DUP3 DUP2 GT ISZERO PUSH2 0x1400 JUMPI DUP3 MLOAD DUP3 SSTORE SWAP2 PUSH1 0x20 ADD SWAP2 SWAP1 PUSH1 0x1 ADD SWAP1 PUSH2 0x13E5 JUMP JUMPDEST POP PUSH2 0x140C SWAP3 SWAP2 POP PUSH2 0x1410 JUMP JUMPDEST POP SWAP1 JUMP JUMPDEST JUMPDEST DUP1 DUP3 GT ISZERO PUSH2 0x140C JUMPI PUSH1 0x0 DUP2 SSTORE PUSH1 0x1 ADD PUSH2 0x1411 JUMP JUMPDEST DUP1 CALLDATALOAD PUSH1 0x1 PUSH1 0x1 PUSH1 0xA0 SHL SUB DUP2 AND DUP2 EQ PUSH2 0x5BC JUMPI PUSH1 0x0 DUP1 REVERT JUMPDEST PUSH1 0x0 DUP3 PUSH1 0x1F DUP4 ADD SLT PUSH2 0x144C JUMPI DUP1 DUP2 REVERT JUMPDEST DUP2 CALLDATALOAD PUSH8 0xFFFFFFFFFFFFFFFF DUP1 DUP3 GT ISZERO PUSH2 0x1467 JUMPI PUSH2 0x1467 PUSH2 0x1C46 JUMP JUMPDEST PUSH1 0x40 MLOAD PUSH1 0x1F DUP4 ADD PUSH1 0x1F NOT AND DUP2 ADD PUSH1 0x20 ADD DUP3 DUP2 GT DUP3 DUP3 LT OR ISZERO PUSH2 0x148B JUMPI PUSH2 0x148B PUSH2 0x1C46 JUMP JUMPDEST PUSH1 0x40 MSTORE DUP3 DUP2 MSTORE DUP5 DUP4 ADD PUSH1 0x20 ADD DUP7 LT ISZERO PUSH2 0x14A2 JUMPI DUP4 DUP5 REVERT JUMPDEST DUP3 PUSH1 0x20 DUP7 ADD PUSH1 0x20 DUP4 ADD CALLDATACOPY SWAP2 DUP3 ADD PUSH1 0x20 ADD SWAP3 SWAP1 SWAP3 MSTORE SWAP4 SWAP3 POP POP POP JUMP JUMPDEST PUSH1 0x0 PUSH1 0x20 DUP3 DUP5 SUB SLT ISZERO PUSH2 0x14CE JUMPI DUP1 DUP2 REVERT JUMPDEST PUSH2 0xBC3 DUP3 PUSH2 0x1425 JUMP JUMPDEST PUSH1 0x0 DUP1 PUSH1 0x40 DUP4 DUP6 SUB SLT ISZERO PUSH2 0x14E9 JUMPI DUP1 DUP2 REVERT JUMPDEST PUSH2 0x14F2 DUP4 PUSH2 0x1425 JUMP JUMPDEST SWAP2 POP PUSH2 0x1500 PUSH1 0x20 DUP5 ADD PUSH2 0x1425 JUMP JUMPDEST SWAP1 POP SWAP3 POP SWAP3 SWAP1 POP JUMP JUMPDEST PUSH1 0x0 DUP1 PUSH1 0x0 PUSH1 0x60 DUP5 DUP7 SUB SLT ISZERO PUSH2 0x151D JUMPI DUP1 DUP2 REVERT JUMPDEST PUSH2 0x1526 DUP5 PUSH2 0x1425 JUMP JUMPDEST SWAP3 POP PUSH2 0x1534 PUSH1 0x20 DUP6 ADD PUSH2 0x1425 JUMP JUMPDEST SWAP2 POP PUSH1 0x40 DUP5 ADD CALLDATALOAD SWAP1 POP SWAP3 POP SWAP3 POP SWAP3 JUMP JUMPDEST PUSH1 0x0 DUP1 PUSH1 0x0 DUP1 PUSH1 0x0 DUP1 PUSH1 0x0 PUSH1 0xE0 DUP9 DUP11 SUB SLT ISZERO PUSH2 0x155E JUMPI DUP3 DUP4 REVERT JUMPDEST PUSH2 0x1567 DUP9 PUSH2 0x1425 JUMP JUMPDEST SWAP7 POP PUSH2 0x1575 PUSH1 0x20 DUP10 ADD PUSH2 0x1425 JUMP JUMPDEST SWAP6 POP PUSH1 0x40 DUP9 ADD CALLDATALOAD SWAP5 POP PUSH1 0x60 DUP9 ADD CALLDATALOAD SWAP4 POP PUSH1 0x80 DUP9 ADD CALLDATALOAD PUSH1 0xFF DUP2 AND DUP2 EQ PUSH2 0x1598 JUMPI DUP4 DUP5 REVERT JUMPDEST SWAP7 SWAP10 SWAP6 SWAP9 POP SWAP4 SWAP7 SWAP3 SWAP6 SWAP5 PUSH1 0xA0 DUP5 ADD CALLDATALOAD SWAP5 POP PUSH1 0xC0 SWAP1 SWAP4 ADD CALLDATALOAD SWAP3 SWAP2 POP POP JUMP JUMPDEST PUSH1 0x0 DUP1 PUSH1 0x40 DUP4 DUP6 SUB SLT ISZERO PUSH2 0x15C7 JUMPI DUP2 DUP3 REVERT JUMPDEST PUSH2 0x15D0 DUP4 PUSH2 0x1425 JUMP JUMPDEST SWAP5 PUSH1 0x20 SWAP4 SWAP1 SWAP4 ADD CALLDATALOAD SWAP4 POP POP POP JUMP JUMPDEST PUSH1 0x0 DUP1 PUSH1 0x40 DUP4 DUP6 SUB SLT ISZERO PUSH2 0x15F0 JUMPI DUP2 DUP3 REVERT JUMPDEST DUP3 CALLDATALOAD PUSH8 0xFFFFFFFFFFFFFFFF DUP1 DUP3 GT ISZERO PUSH2 0x1607 JUMPI DUP4 DUP5 REVERT JUMPDEST PUSH2 0x1613 DUP7 DUP4 DUP8 ADD PUSH2 0x143C JUMP JUMPDEST SWAP4 POP PUSH1 0x20 DUP6 ADD CALLDATALOAD SWAP2 POP DUP1 DUP3 GT ISZERO PUSH2 0x1628 JUMPI DUP3 DUP4 REVERT JUMPDEST POP PUSH2 0x1635 DUP6 DUP3 DUP7 ADD PUSH2 0x143C JUMP JUMPDEST SWAP2 POP POP SWAP3 POP SWAP3 SWAP1 POP JUMP JUMPDEST PUSH1 0x0 PUSH1 0x20 DUP3 DUP5 SUB SLT ISZERO PUSH2 0x1650 JUMPI DUP1 DUP2 REVERT JUMPDEST POP CALLDATALOAD SWAP2 SWAP1 POP JUMP JUMPDEST PUSH2 0x1901 PUSH1 0xF0 SHL DUP2 MSTORE PUSH1 0x2 DUP2 ADD SWAP3 SWAP1 SWAP3 MSTORE PUSH1 0x22 DUP3 ADD MSTORE PUSH1 0x42 ADD SWAP1 JUMP JUMPDEST PUSH1 0x1 PUSH1 0x1 PUSH1 0xA0 SHL SUB SWAP2 SWAP1 SWAP2 AND DUP2 MSTORE PUSH1 0x20 ADD SWAP1 JUMP JUMPDEST SWAP1 ISZERO ISZERO DUP2 MSTORE PUSH1 0x20 ADD SWAP1 JUMP JUMPDEST SWAP1 DUP2 MSTORE PUSH1 0x20 ADD SWAP1 JUMP JUMPDEST SWAP6 DUP7 MSTORE PUSH1 0x1 PUSH1 0x1 PUSH1 0xA0 SHL SUB SWAP5 DUP6 AND PUSH1 0x20 DUP8 ADD MSTORE SWAP3 SWAP1 SWAP4 AND PUSH1 0x40 DUP6 ADD MSTORE PUSH1 0x60 DUP5 ADD MSTORE PUSH1 0x80 DUP4 ADD SWAP2 SWAP1 SWAP2 MSTORE PUSH1 0xA0 DUP3 ADD MSTORE PUSH1 0xC0 ADD SWAP1 JUMP JUMPDEST SWAP5 DUP6 MSTORE PUSH1 0x20 DUP6 ADD SWAP4 SWAP1 SWAP4 MSTORE PUSH1 0x40 DUP5 ADD SWAP2 SWAP1 SWAP2 MSTORE PUSH1 0x60 DUP4 ADD MSTORE PUSH1 0x1 PUSH1 0x1 PUSH1 0xA0 SHL SUB AND PUSH1 0x80 DUP3 ADD MSTORE PUSH1 0xA0 ADD SWAP1 JUMP JUMPDEST SWAP4 DUP5 MSTORE PUSH1 0xFF SWAP3 SWAP1 SWAP3 AND PUSH1 0x20 DUP5 ADD MSTORE PUSH1 0x40 DUP4 ADD MSTORE PUSH1 0x60 DUP3 ADD MSTORE PUSH1 0x80 ADD SWAP1 JUMP JUMPDEST PUSH1 0x0 PUSH1 0x20 DUP1 DUP4 MSTORE DUP4 MLOAD DUP1 DUP3 DUP6 ADD MSTORE DUP3 JUMPDEST DUP2 DUP2 LT ISZERO PUSH2 0x1744 JUMPI DUP6 DUP2 ADD DUP4 ADD MLOAD DUP6 DUP3 ADD PUSH1 0x40 ADD MSTORE DUP3 ADD PUSH2 0x1728 JUMP JUMPDEST DUP2 DUP2 GT ISZERO PUSH2 0x1755 JUMPI DUP4 PUSH1 0x40 DUP4 DUP8 ADD ADD MSTORE JUMPDEST POP PUSH1 0x1F ADD PUSH1 0x1F NOT AND SWAP3 SWAP1 SWAP3 ADD PUSH1 0x40 ADD SWAP4 SWAP3 POP POP POP JUMP JUMPDEST PUSH1 0x20 DUP1 DUP3 MSTORE PUSH1 0x18 SWAP1 DUP3 ADD MSTORE PUSH32 0x45434453413A20696E76616C6964207369676E61747572650000000000000000 PUSH1 0x40 DUP3 ADD MSTORE PUSH1 0x60 ADD SWAP1 JUMP JUMPDEST PUSH1 0x20 DUP1 DUP3 MSTORE PUSH1 0x23 SWAP1 DUP3 ADD MSTORE PUSH32 0x45524332303A207472616E7366657220746F20746865207A65726F2061646472 PUSH1 0x40 DUP3 ADD MSTORE PUSH3 0x657373 PUSH1 0xE8 SHL PUSH1 0x60 DUP3 ADD MSTORE PUSH1 0x80 ADD SWAP1 JUMP JUMPDEST PUSH1 0x20 DUP1 DUP3 MSTORE PUSH1 0x26 SWAP1 DUP3 ADD MSTORE PUSH32 0x4F776E61626C653A206E6577206F776E657220697320746865207A65726F2061 PUSH1 0x40 DUP3 ADD MSTORE PUSH6 0x646472657373 PUSH1 0xD0 SHL PUSH1 0x60 DUP3 ADD MSTORE PUSH1 0x80 ADD SWAP1 JUMP JUMPDEST PUSH1 0x20 DUP1 DUP3 MSTORE PUSH1 0x22 SWAP1 DUP3 ADD MSTORE PUSH32 0x45524332303A20617070726F766520746F20746865207A65726F206164647265 PUSH1 0x40 DUP3 ADD MSTORE PUSH2 0x7373 PUSH1 0xF0 SHL PUSH1 0x60 DUP3 ADD MSTORE PUSH1 0x80 ADD SWAP1 JUMP JUMPDEST PUSH1 0x20 DUP1 DUP3 MSTORE PUSH1 0x1B SWAP1 DUP3 ADD MSTORE PUSH32 0x536166654D6174683A206164646974696F6E206F766572666C6F770000000000 PUSH1 0x40 DUP3 ADD MSTORE PUSH1 0x60 ADD SWAP1 JUMP JUMPDEST PUSH1 0x20 DUP1 DUP3 MSTORE PUSH1 0x1D SWAP1 DUP3 ADD MSTORE PUSH32 0x45524332305065726D69743A206578706972656420646561646C696E65000000 PUSH1 0x40 DUP3 ADD MSTORE PUSH1 0x60 ADD SWAP1 JUMP JUMPDEST PUSH1 0x20 DUP1 DUP3 MSTORE PUSH1 0x1E SWAP1 DUP3 ADD MSTORE PUSH32 0x536166654D6174683A207375627472616374696F6E206F766572666C6F770000 PUSH1 0x40 DUP3 ADD MSTORE PUSH1 0x60 ADD SWAP1 JUMP JUMPDEST PUSH1 0x20 DUP1 DUP3 MSTORE PUSH1 0x22 SWAP1 DUP3 ADD MSTORE PUSH32 0x45434453413A20696E76616C6964207369676E6174757265202773272076616C PUSH1 0x40 DUP3 ADD MSTORE PUSH2 0x7565 PUSH1 0xF0 SHL PUSH1 0x60 DUP3 ADD MSTORE PUSH1 0x80 ADD SWAP1 JUMP JUMPDEST PUSH1 0x20 DUP1 DUP3 MSTORE PUSH1 0x2E SWAP1 DUP3 ADD MSTORE PUSH32 0x496E697469616C697A61626C653A20636F6E747261637420697320616C726561 PUSH1 0x40 DUP3 ADD MSTORE PUSH14 0x191E481A5B9A5D1A585B1A5E9959 PUSH1 0x92 SHL PUSH1 0x60 DUP3 ADD MSTORE PUSH1 0x80 ADD SWAP1 JUMP JUMPDEST PUSH1 0x20 DUP1 DUP3 MSTORE PUSH1 0x22 SWAP1 DUP3 ADD MSTORE PUSH32 0x45434453413A20696E76616C6964207369676E6174757265202776272076616C PUSH1 0x40 DUP3 ADD MSTORE PUSH2 0x7565 PUSH1 0xF0 SHL PUSH1 0x60 DUP3 ADD MSTORE PUSH1 0x80 ADD SWAP1 JUMP JUMPDEST PUSH1 0x20 DUP1 DUP3 MSTORE PUSH1 0x1E SWAP1 DUP3 ADD MSTORE PUSH32 0x45524332305065726D69743A20696E76616C6964207369676E61747572650000 PUSH1 0x40 DUP3 ADD MSTORE PUSH1 0x60 ADD SWAP1 JUMP JUMPDEST PUSH1 0x20 DUP1 DUP3 MSTORE DUP2 DUP2 ADD MSTORE PUSH32 0x4F776E61626C653A2063616C6C6572206973206E6F7420746865206F776E6572 PUSH1 0x40 DUP3 ADD MSTORE PUSH1 0x60 ADD SWAP1 JUMP JUMPDEST PUSH1 0x20 DUP1 DUP3 MSTORE PUSH1 0x21 SWAP1 DUP3 ADD MSTORE PUSH32 0x45524332303A206275726E2066726F6D20746865207A65726F20616464726573 PUSH1 0x40 DUP3 ADD MSTORE PUSH1 0x73 PUSH1 0xF8 SHL PUSH1 0x60 DUP3 ADD MSTORE PUSH1 0x80 ADD SWAP1 JUMP JUMPDEST PUSH1 0x20 DUP1 DUP3 MSTORE PUSH1 0x25 SWAP1 DUP3 ADD MSTORE PUSH32 0x45524332303A207472616E736665722066726F6D20746865207A65726F206164 PUSH1 0x40 DUP3 ADD MSTORE PUSH5 0x6472657373 PUSH1 0xD8 SHL PUSH1 0x60 DUP3 ADD MSTORE PUSH1 0x80 ADD SWAP1 JUMP JUMPDEST PUSH1 0x20 DUP1 DUP3 MSTORE PUSH1 0x24 SWAP1 DUP3 ADD MSTORE PUSH32 0x45524332303A20617070726F76652066726F6D20746865207A65726F20616464 PUSH1 0x40 DUP3 ADD MSTORE PUSH4 0x72657373 PUSH1 0xE0 SHL PUSH1 0x60 DUP3 ADD MSTORE PUSH1 0x80 ADD SWAP1 JUMP JUMPDEST PUSH1 0x20 DUP1 DUP3 MSTORE PUSH1 0x16 SWAP1 DUP3 ADD MSTORE PUSH22 0x4C50546F6B656E3A2063616E6E6F74206D696E74203 PUSH1 0x54 SHL PUSH1 0x40 DUP3 ADD MSTORE PUSH1 0x60 ADD SWAP1 JUMP JUMPDEST PUSH1 0x20 DUP1 DUP3 MSTORE PUSH1 0x1E SWAP1 DUP3 ADD MSTORE PUSH32 0x4C50546F6B656E3A2063616E6E6F742073656E6420746F20697473656C660000 PUSH1 0x40 DUP3 ADD MSTORE PUSH1 0x60 ADD SWAP1 JUMP JUMPDEST PUSH1 0x20 DUP1 DUP3 MSTORE PUSH1 0x1F SWAP1 DUP3 ADD MSTORE PUSH32 0x45524332303A206D696E7420746F20746865207A65726F206164647265737300 PUSH1 0x40 DUP3 ADD MSTORE PUSH1 0x60 ADD SWAP1 JUMP JUMPDEST PUSH1 0xFF SWAP2 SWAP1 SWAP2 AND DUP2 MSTORE PUSH1 0x20 ADD SWAP1 JUMP JUMPDEST PUSH1 0x0 DUP3 NOT DUP3 GT ISZERO PUSH2 0x1BD9 JUMPI PUSH2 0x1BD9 PUSH2 0x1C30 JUMP JUMPDEST POP ADD SWAP1 JUMP JUMPDEST PUSH1 0x0 DUP3 DUP3 LT ISZERO PUSH2 0x1BF0 JUMPI PUSH2 0x1BF0 PUSH2 0x1C30 JUMP JUMPDEST POP SUB SWAP1 JUMP JUMPDEST PUSH1 0x2 DUP2 DIV PUSH1 0x1 DUP3 AND DUP1 PUSH2 0x1C09 JUMPI PUSH1 0x7F DUP3 AND SWAP2 POP JUMPDEST PUSH1 0x20 DUP3 LT DUP2 EQ ISZERO PUSH2 0x1C2A JUMPI PUSH4 0x4E487B71 PUSH1 0xE0 SHL PUSH1 0x0 MSTORE PUSH1 0x22 PUSH1 0x4 MSTORE PUSH1 0x24 PUSH1 0x0 REVERT JUMPDEST POP SWAP2 SWAP1 POP JUMP JUMPDEST PUSH4 0x4E487B71 PUSH1 0xE0 SHL PUSH1 0x0 MSTORE PUSH1 0x11 PUSH1 0x4 MSTORE PUSH1 0x24 PUSH1 0x0 REVERT JUMPDEST PUSH4 0x4E487B71 PUSH1 0xE0 SHL PUSH1 0x0 MSTORE PUSH1 0x41 PUSH1 0x4 MSTORE PUSH1 0x24 PUSH1 0x0 REVERT INVALID GASLIMIT MSTORE NUMBER ORIGIN ADDRESS GASPRICE KECCAK256 PUSH3 0x75726E KECCAK256 PUSH2 0x6D6F PUSH22 0x6E7420657863656564732062616C616E636545524332 ADDRESS GASPRICE KECCAK256 PUSH21 0x72616E7366657220616D6F756E7420657863656564 PUSH20 0x2062616C616E636545524332303A207472616E73 PUSH7 0x657220616D6F75 PUSH15 0x74206578636565647320616C6C6F77 PUSH2 0x6E63 PUSH6 0x45524332303A KECCAK256 PUSH3 0x75726E KECCAK256 PUSH2 0x6D6F PUSH22 0x6E74206578636565647320616C6C6F77616E63654552 NUMBER ORIGIN ADDRESS GASPRICE KECCAK256 PUSH5 0x6563726561 PUSH20 0x656420616C6C6F77616E63652062656C6F77207A PUSH6 0x726FA2646970 PUSH7 0x73582212206645 0xB0 PUSH30 0xE9ECCC99D460BC716B01C134617A86CE9DD34CDDEF8FA63C03A68D216473 PUSH16 0x6C634300080000330000000000000000 "
				},
				"gasEstimates": {
					"creation": {
						"codeDepositCost": "1499800",
						"executionCost": "1568",
						"totalCost": "1501368"
					},
					"external": {
						"DOMAIN_SEPARATOR()": "infinite",
						"allowance(address,address)": "infinite",
						"approve(address,uint256)": "22629",
						"balanceOf(address)": "infinite",
						"burn(uint256)": "infinite",
						"burnFrom(address,uint256)": "infinite",
						"decimals()": "1158",
						"decreaseAllowance(address,uint256)": "infinite",
						"increaseAllowance(address,uint256)": "infinite",
						"initialize(string,string)": "infinite",
						"mint(address,uint256)": "infinite",
						"name()": "infinite",
						"nonces(address)": "1399",
						"owner()": "1181",
						"permit(address,address,uint256,uint256,uint8,bytes32,bytes32)": "infinite",
						"renounceOwnership()": "24297",
						"symbol()": "infinite",
						"totalSupply()": "1096",
						"transfer(address,uint256)": "infinite",
						"transferFrom(address,address,uint256)": "infinite",
						"transferOwnership(address)": "24622"
					},
					"internal": {
						"_beforeTokenTransfer(address,address,uint256)": "infinite"
					}
				},
				"methodIdentifiers": {
					"DOMAIN_SEPARATOR()": "3644e515",
					"allowance(address,address)": "dd62ed3e",
					"approve(address,uint256)": "095ea7b3",
					"balanceOf(address)": "70a08231",
					"burn(uint256)": "42966c68",
					"burnFrom(address,uint256)": "79cc6790",
					"decimals()": "313ce567",
					"decreaseAllowance(address,uint256)": "a457c2d7",
					"increaseAllowance(address,uint256)": "39509351",
					"initialize(string,string)": "4cd88b76",
					"mint(address,uint256)": "40c10f19",
					"name()": "06fdde03",
					"nonces(address)": "7ecebe00",
					"owner()": "8da5cb5b",
					"permit(address,address,uint256,uint256,uint8,bytes32,bytes32)": "d505accf",
					"renounceOwnership()": "715018a6",
					"symbol()": "95d89b41",
					"totalSupply()": "18160ddd",
					"transfer(address,uint256)": "a9059cbb",
					"transferFrom(address,address,uint256)": "23b872dd",
					"transferOwnership(address)": "f2fde38b"
				}
			},
			"storageLayout": {
				"storage": [
					{
						"astId": 2131,
						"contract": "src/LPToken.sol:LPToken",
						"label": "_initialized",
						"offset": 0,
						"slot": "0",
						"type": "t_bool"
					},
					{
						"astId": 2134,
						"contract": "src/LPToken.sol:LPToken",
						"label": "_initializing",
						"offset": 1,
						"slot": "0",
						"type": "t_bool"
					},
					{
						"astId": 649,
						"contract": "src/LPToken.sol:LPToken",
						"label": "__gap",
						"offset": 0,
						"slot": "1",
						"type": "t_array(t_uint256)50_storage"
					},
					{
						"astId": 1259,
						"contract": "src/LPToken.sol:LPToken",
						"label": "_balances",
						"offset": 0,
						"slot": "51",
						"type": "t_mapping(t_address,t_uint256)"
					},
					{
						"astId": 1265,
						"contract": "src/LPToken.sol:LPToken",
						"label": "_allowances",
						"offset": 0,
						"slot": "52",
						"type": "t_mapping(t_address,t_mapping(t_address,t_uint256))"
					},
					{
						"astId": 1267,
						"contract": "src/LPToken.sol:LPToken",
						"label": "_totalSupply",
						"offset": 0,
						"slot": "53",
						"type": "t_uint256"
					},
					{
						"astId": 1269,
						"contract": "src/LPToken.sol:LPToken",
						"label": "_name",
						"offset": 0,
						"slot": "54",
						"type": "t_string_storage"
					},
					{
						"astId": 1271,
						"contract": "src/LPToken.sol:LPToken",
						"label": "_symbol",
						"offset": 0,
						"slot": "55",
						"type": "t_string_storage"
					},
					{
						"astId": 1273,
						"contract": "src/LPToken.sol:LPToken",
						"label": "_decimals",
						"offset": 0,
						"slot": "56",
						"type": "t_uint8"
					},
					{
						"astId": 1768,
						"contract": "src/LPToken.sol:LPToken",
						"label": "__gap",
						"offset": 0,
						"slot": "57",
						"type": "t_array(t_uint256)44_storage"
					},
					{
						"astId": 827,
						"contract": "src/LPToken.sol:LPToken",
						"label": "_HASHED_NAME",
						"offset": 0,
						"slot": "101",
						"type": "t_bytes32"
					},
					{
						"astId": 829,
						"contract": "src/LPToken.sol:LPToken",
						"label": "_HASHED_VERSION",
						"offset": 0,
						"slot": "102",
						"type": "t_bytes32"
					},
					{
						"astId": 978,
						"contract": "src/LPToken.sol:LPToken",
						"label": "__gap",
						"offset": 0,
						"slot": "103",
						"type": "t_array(t_uint256)50_storage"
					},
					{
						"astId": 1089,
						"contract": "src/LPToken.sol:LPToken",
						"label": "_nonces",
						"offset": 0,
						"slot": "153",
						"type": "t_mapping(t_address,t_struct(Counter)660_storage)"
					},
					{
						"astId": 1091,
						"contract": "src/LPToken.sol:LPToken",
						"label": "_PERMIT_TYPEHASH",
						"offset": 0,
						"slot": "154",
						"type": "t_bytes32"
					},
					{
						"astId": 1238,
						"contract": "src/LPToken.sol:LPToken",
						"label": "__gap",
						"offset": 0,
						"slot": "155",
						"type": "t_array(t_uint256)49_storage"
					},
					{
						"astId": 1062,
						"contract": "src/LPToken.sol:LPToken",
						"label": "__gap",
						"offset": 0,
						"slot": "204",
						"type": "t_array(t_uint256)50_storage"
					},
					{
						"astId": 112,
						"contract": "src/LPToken.sol:LPToken",
						"label": "_owner",
						"offset": 0,
						"slot": "254",
						"type": "t_address"
					},
					{
						"astId": 231,
						"contract": "src/LPToken.sol:LPToken",
						"label": "__gap",
						"offset": 0,
						"slot": "255",
						"type": "t_array(t_uint256)49_storage"
					}
				],
				"types": {
					"t_address": {
						"encoding": "inplace",
						"label": "address",
						"numberOfBytes": "20"
					},
					"t_array(t_uint256)44_storage": {
						"base": "t_uint256",
						"encoding": "inplace",
						"label": "uint256[44]",
						"numberOfBytes": "1408"
					},
					"t_array(t_uint256)49_storage": {
						"base": "t_uint256",
						"encoding": "inplace",
						"label": "uint256[49]",
						"numberOfBytes": "1568"
					},
					"t_array(t_uint256)50_storage": {
						"base": "t_uint256",
						"encoding": "inplace",
						"label": "uint256[50]",
						"numberOfBytes": "1600"
					},
					"t_bool": {
						"encoding": "inplace",
						"label": "bool",
						"numberOfBytes": "1"
					},
					"t_bytes32": {
						"encoding": "inplace",
						"label": "bytes32",
						"numberOfBytes": "32"
					},
					"t_mapping(t_address,t_mapping(t_address,t_uint256))": {
						"encoding": "mapping",
						"key": "t_address",
						"label": "mapping(address => mapping(address => uint256))",
						"numberOfBytes": "32",
						"value": "t_mapping(t_address,t_uint256)"
					},
					"t_mapping(t_address,t_struct(Counter)660_storage)": {
						"encoding": "mapping",
						"key": "t_address",
						"label": "mapping(address => struct CountersUpgradeable.Counter)",
						"numberOfBytes": "32",
						"value": "t_struct(Counter)660_storage"
					},
					"t_mapping(t_address,t_uint256)": {
						"encoding": "mapping",
						"key": "t_address",
						"label": "mapping(address => uint256)",
						"numberOfBytes": "32",
						"value": "t_uint256"
					},
					"t_string_storage": {
						"encoding": "bytes",
						"label": "string",
						"numberOfBytes": "32"
					},
					"t_struct(Counter)660_storage": {
						"encoding": "inplace",
						"label": "struct CountersUpgradeable.Counter",
						"members": [
							{
								"astId": 659,
								"contract": "src/LPToken.sol:LPToken",
								"label": "_value",
								"offset": 0,
								"slot": "0",
								"type": "t_uint256"
							}
						],
						"numberOfBytes": "32"
					},
					"t_uint256": {
						"encoding": "inplace",
						"label": "uint256",
						"numberOfBytes": "32"
					},
					"t_uint8": {
						"encoding": "inplace",
						"label": "uint8",
						"numberOfBytes": "1"
					}
				}
			},
			"userdoc": {
				"kind": "user",
				"methods": {
					"initialize(string,string)": {
						"notice": "Initializes this LPToken contract with the given name and symbol"
					},
					"mint(address,uint256)": {
						"notice": "Mints the given amount of LPToken to the recipient."
					}
				},
				"notice": "This token is an ERC20 detailed token with added capability to be minted by the owner. It is used to represent user's shares when providing liquidity to swap contracts.",
				"version": 1
			}
		}
	}
}