{
	"src/SwapDeployer.sol": {
		"SwapDeployer": {
			"abi": [
				{
					"inputs": [],
					"stateMutability": "nonpayable",
					"type": "constructor"
				},
				{
					"anonymous": false,
					"inputs": [
						{
							"indexed": true,
							"internalType": "address",
							"name": "target",
							"type": "address"
						},
						{
							"indexed": false,
							"internalType": "address",
							"name": "cloneAddress",
							"type": "address"
						}
					],
					"name": "NewClone",
					"type": "event"
				},
				{
					"anonymous": false,
					"inputs": [
						{
							"indexed": true,
							"internalType": "address",
							"name": "deployer",
							"type": "address"
						},
						{
							"indexed": false,
							"internalType": "address",
							"name": "swapAddress",
							"type": "address"
						},
						{
							"indexed": false,
							"internalType": "contract IERC20[]",
							"name": "pooledTokens",
							"type": "address[]"
						}
					],
					"name": "NewSwapPool",
					"type": "event"
				},
				{
					"anonymous": false,
					"inputs": [
						{
							"indexed": true,
							"internalType": "address",
							"name": "previousOwner",
							"type": "address"
						},
						{
							"indexed": true,
							"internalType": "address",
							"name": "newOwner",
							"type": "address"
						}
					],
					"name": "OwnershipTransferred",
					"type": "event"
				},
				{
					"inputs": [
						{
							"internalType": "address",
							"name": "target",
							"type": "address"
						}
					],
					"name": "clone",
					"outputs": [
						{
							"internalType": "address",
							"name": "",
							"type": "address"
						}
					],
					"stateMutability": "nonpayable",
					"type": "function"
				},
				{
					"inputs": [
						{
							"internalType": "address",
							"name": "swapAddress",
							"type": "address"
						},
						{
							"internalType": "contract IERC20[]",
							"name": "_pooledTokens",
							"type": "address[]"
						},
						{
							"internalType": "uint8[]",
							"name": "decimals",
							"type": "uint8[]"
						},
						{
							"internalType": "string",
							"name": "lpTokenName",
							"type": "string"
						},
						{
							"internalType": "string",
							"name": "lpTokenSymbol",
							"type": "string"
						},
						{
							"internalType": "uint256",
							"name": "_a",
							"type": "uint256"
						},
						{
							"internalType": "uint256",
							"name": "_fee",
							"type": "uint256"
						},
						{
							"internalType": "uint256",
							"name": "_adminFee",
							"type": "uint256"
						},
						{
							"internalType": "address",
							"name": "lpTokenTargetAddress",
							"type": "address"
						}
					],
					"name": "deploy",
					"outputs": [
						{
							"internalType": "address",
							"name": "",
							"type": "address"
						}
					],
					"stateMutability": "nonpayable",
					"type": "function"
				},
				{
					"inputs": [],
					"name": "owner",
					"outputs": [
						{
							"internalType": "address",
							"name": "",
							"type": "address"
						}
					],
					"stateMutability": "view",
					"type": "function"
				},
				{
					"inputs": [],
					"name": "renounceOwnership",
					"outputs": [],
					"stateMutability": "nonpayable",
					"type": "function"
				},
				{
					"inputs": [
						{
							"internalType": "address",
							"name": "newOwner",
							"type": "address"
						}
					],
					"name": "transferOwnership",
					"outputs": [],
					"stateMutability": "nonpayable",
					"type": "function"
				}
			],
			"devdoc": {
				"kind": "dev",
				"methods": {
					"owner()": {
						"details": "Returns the address of the current owner."
					},
					"renounceOwnership()": {
						"details": "Leaves the contract without owner. It will not be possible to call `onlyOwner` functions anymore. Can only be called by the current owner. NOTE: Renouncing ownership will leave the contract without an owner, thereby removing any functionality that is only available to the owner."
					},
					"transferOwnership(address)": {
						"details": "Transfers ownership of the contract to a new account (`newOwner`). Can only be called by the current owner."
					}
				},
				"version": 1
			},
			"evm": {
				"assembly": "    /* \"src/SwapDeployer.sol\":219:1548  contract SwapDeployer is Ownable {... */\n  mstore(0x40, 0x80)\n    /* \"src/SwapDeployer.sol\":448:481  constructor() public Ownable() {} */\n  callvalue\n  dup1\n  iszero\n  tag_1\n  jumpi\n  0x00\n  dup1\n  revert\ntag_1:\n  pop\n    /* \"src/.deps/npm/@openzeppelin/contracts/access/Ownable.sol\":1139:1171  _transferOwnership(_msgSender()) */\n  tag_5\n    /* \"src/.deps/npm/@openzeppelin/contracts/access/Ownable.sol\":1158:1170  _msgSender() */\n  tag_6\n    /* \"src/.deps/npm/@openzeppelin/contracts/access/Ownable.sol\":1158:1168  _msgSender */\n  tag_7\n    /* \"src/.deps/npm/@openzeppelin/contracts/access/Ownable.sol\":1158:1170  _msgSender() */\n  jump\t// in\ntag_6:\n    /* \"src/.deps/npm/@openzeppelin/contracts/access/Ownable.sol\":1139:1157  _transferOwnership */\n  tag_8\n    /* \"src/.deps/npm/@openzeppelin/contracts/access/Ownable.sol\":1139:1171  _transferOwnership(_msgSender()) */\n  jump\t// in\ntag_5:\n    /* \"src/SwapDeployer.sol\":219:1548  contract SwapDeployer is Ownable {... */\n  jump(tag_10)\n    /* \"src/.deps/npm/@openzeppelin/contracts/access/Ownable.sol\":158:254  function _msgSender() internal view virtual returns (address) {... */\ntag_7:\n    /* \"src/.deps/npm/@openzeppelin/contracts/access/Ownable.sol\":237:247  msg.sender */\n  caller\n    /* \"src/.deps/npm/@openzeppelin/contracts/access/Ownable.sol\":158:254  function _msgSender() internal view virtual returns (address) {... */\n  swap1\n  jump\t// out\n    /* \"src/.deps/npm/@openzeppelin/contracts/access/Ownable.sol\":2636:2823  function _transferOwnership(address newOwner) internal virtual {... */\ntag_8:\n    /* \"src/.deps/npm/@openzeppelin/contracts/access/Ownable.sol\":2709:2725  address oldOwner */\n  0x00\n    /* \"src/.deps/npm/@openzeppelin/contracts/access/Ownable.sol\":2728:2734  _owner */\n  dup1\n  sload\n  sub(shl(0xa0, 0x01), 0x01)\n    /* \"src/.deps/npm/@openzeppelin/contracts/access/Ownable.sol\":2744:2761  _owner = newOwner */\n  dup4\n  dup2\n  and\n  not(sub(shl(0xa0, 0x01), 0x01))\n  dup4\n  and\n  dup2\n  or\n  dup5\n  sstore\n    /* \"src/.deps/npm/@openzeppelin/contracts/access/Ownable.sol\":2776:2816  OwnershipTransferred(oldOwner, newOwner) */\n  mload(0x40)\n    /* \"src/.deps/npm/@openzeppelin/contracts/access/Ownable.sol\":2728:2734  _owner */\n  swap2\n  swap1\n  swap3\n  and\n  swap3\n  dup4\n  swap2\n    /* \"src/.deps/npm/@openzeppelin/contracts/access/Ownable.sol\":2776:2816  OwnershipTransferred(oldOwner, newOwner) */\n  0x8be0079c531659141344cd1fd0a4f28419497f9722a3daafe3b4186f6b6457e0\n  swap2\n    /* \"src/.deps/npm/@openzeppelin/contracts/access/Ownable.sol\":2709:2725  address oldOwner */\n  swap1\n    /* \"src/.deps/npm/@openzeppelin/contracts/access/Ownable.sol\":2776:2816  OwnershipTransferred(oldOwner, newOwner) */\n  log3\n    /* \"src/.deps/npm/@openzeppelin/contracts/access/Ownable.sol\":2636:2823  function _transferOwnership(address newOwner) internal virtual {... */\n  pop\n  pop\n  jump\t// out\n    /* \"src/SwapDeployer.sol\":219:1548  contract SwapDeployer is Ownable {... */\ntag_10:\n  dataSize(sub_0)\n  dup1\n  dataOffset(sub_0)\n  0x00\n  codecopy\n  0x00\n  return\nstop\n\nsub_0: assembly {\n        /* \"src/SwapDeployer.sol\":219:1548  contract SwapDeployer is Ownable {... */\n      mstore(0x40, 0x80)\n      callvalue\n      dup1\n      iszero\n      tag_1\n      jumpi\n      0x00\n      dup1\n      revert\n    tag_1:\n      pop\n      jumpi(tag_2, lt(calldatasize, 0x04))\n      shr(0xe0, calldataload(0x00))\n      dup1\n      0x0e64a45e\n      eq\n      tag_3\n      jumpi\n      dup1\n      0x715018a6\n      eq\n      tag_4\n      jumpi\n      dup1\n      0x8124b78e\n      eq\n      tag_5\n      jumpi\n      dup1\n      0x8da5cb5b\n      eq\n      tag_6\n      jumpi\n      dup1\n      0xf2fde38b\n      eq\n      tag_7\n      jumpi\n    tag_2:\n      0x00\n      dup1\n      revert\n        /* \"src/SwapDeployer.sol\":777:1546  function deploy(... */\n    tag_3:\n      tag_8\n      tag_9\n      calldatasize\n      0x04\n      tag_10\n      jump\t// in\n    tag_9:\n      tag_11\n      jump\t// in\n    tag_8:\n      mload(0x40)\n      tag_12\n      swap2\n      swap1\n      tag_13\n      jump\t// in\n    tag_12:\n      mload(0x40)\n      dup1\n      swap2\n      sub\n      swap1\n      return\n        /* \"src/.deps/npm/@openzeppelin/contracts/access/Ownable.sol\":2034:2135  function renounceOwnership() public virtual onlyOwner {... */\n    tag_4:\n      tag_14\n      tag_15\n      jump\t// in\n    tag_14:\n      stop\n        /* \"src/SwapDeployer.sol\":487:662  function clone(address target) external returns (address) {... */\n    tag_5:\n      tag_8\n      tag_17\n      calldatasize\n      0x04\n      tag_18\n      jump\t// in\n    tag_17:\n      tag_19\n      jump\t// in\n        /* \"src/.deps/npm/@openzeppelin/contracts/access/Ownable.sol\":1404:1489  function owner() public view virtual returns (address) {... */\n    tag_6:\n      tag_8\n      tag_22\n      jump\t// in\n        /* \"src/.deps/npm/@openzeppelin/contracts/access/Ownable.sol\":2284:2482  function transferOwnership(address newOwner) public virtual onlyOwner {... */\n    tag_7:\n      tag_14\n      tag_25\n      calldatasize\n      0x04\n      tag_18\n      jump\t// in\n    tag_25:\n      tag_26\n      jump\t// in\n        /* \"src/SwapDeployer.sol\":777:1546  function deploy(... */\n    tag_11:\n        /* \"src/SwapDeployer.sol\":1097:1104  address */\n      0x00\n        /* \"src/SwapDeployer.sol\":1116:1133  address swapClone */\n      dup1\n        /* \"src/SwapDeployer.sol\":1136:1155  _clone(swapAddress) */\n      tag_28\n        /* \"src/SwapDeployer.sol\":1143:1154  swapAddress */\n      dup12\n        /* \"src/SwapDeployer.sol\":1136:1142  _clone */\n      tag_29\n        /* \"src/SwapDeployer.sol\":1136:1155  _clone(swapAddress) */\n      jump\t// in\n    tag_28:\n        /* \"src/SwapDeployer.sol\":1165:1394  ISwap(swapClone).initialize(... */\n      mload(0x40)\n      shl(0xe2, 0x2ca32db7)\n      dup2\n      mstore\n        /* \"src/SwapDeployer.sol\":1116:1155  address swapClone = _clone(swapAddress) */\n      swap1\n      swap2\n      pop\n      sub(shl(0xa0, 0x01), 0x01)\n        /* \"src/SwapDeployer.sol\":1165:1192  ISwap(swapClone).initialize */\n      dup3\n      and\n      swap1\n      0xb28cb6dc\n      swap1\n        /* \"src/SwapDeployer.sol\":1165:1394  ISwap(swapClone).initialize(... */\n      tag_30\n      swap1\n        /* \"src/SwapDeployer.sol\":1206:1219  _pooledTokens */\n      dup14\n      swap1\n        /* \"src/SwapDeployer.sol\":1233:1241  decimals */\n      dup14\n      swap1\n        /* \"src/SwapDeployer.sol\":1255:1266  lpTokenName */\n      dup14\n      swap1\n        /* \"src/SwapDeployer.sol\":1280:1293  lpTokenSymbol */\n      dup14\n      swap1\n        /* \"src/SwapDeployer.sol\":1307:1309  _a */\n      dup14\n      swap1\n        /* \"src/SwapDeployer.sol\":1323:1327  _fee */\n      dup14\n      swap1\n        /* \"src/SwapDeployer.sol\":1341:1350  _adminFee */\n      dup14\n      swap1\n        /* \"src/SwapDeployer.sol\":1364:1384  lpTokenTargetAddress */\n      dup14\n      swap1\n        /* \"src/SwapDeployer.sol\":1165:1394  ISwap(swapClone).initialize(... */\n      0x04\n      add\n      tag_31\n      jump\t// in\n    tag_30:\n      0x00\n      mload(0x40)\n      dup1\n      dup4\n      sub\n      dup2\n      0x00\n      dup8\n      dup1\n      extcodesize\n      iszero\n      dup1\n      iszero\n      tag_32\n      jumpi\n      0x00\n      dup1\n      revert\n    tag_32:\n      pop\n      gas\n      call\n      iszero\n      dup1\n      iszero\n      tag_34\n      jumpi\n      returndatasize\n      0x00\n      dup1\n      returndatacopy\n      revert(0x00, returndatasize)\n    tag_34:\n      pop\n      pop\n      pop\n      pop\n        /* \"src/SwapDeployer.sol\":1412:1421  swapClone */\n      dup1\n      sub(shl(0xa0, 0x01), 0x01)\n        /* \"src/SwapDeployer.sol\":1404:1440  Ownable(swapClone).transferOwnership */\n      and\n      0xf2fde38b\n        /* \"src/SwapDeployer.sol\":1441:1448  owner() */\n      tag_35\n        /* \"src/SwapDeployer.sol\":1441:1446  owner */\n      tag_22\n        /* \"src/SwapDeployer.sol\":1441:1448  owner() */\n      jump\t// in\n    tag_35:\n        /* \"src/SwapDeployer.sol\":1404:1449  Ownable(swapClone).transferOwnership(owner()) */\n      mload(0x40)\n      dup3\n      0xffffffff\n      and\n      0xe0\n      shl\n      dup2\n      mstore\n      0x04\n      add\n      tag_36\n      swap2\n      swap1\n      tag_13\n      jump\t// in\n    tag_36:\n      0x00\n      mload(0x40)\n      dup1\n      dup4\n      sub\n      dup2\n      0x00\n      dup8\n      dup1\n      extcodesize\n      iszero\n      dup1\n      iszero\n      tag_37\n      jumpi\n      0x00\n      dup1\n      revert\n    tag_37:\n      pop\n      gas\n      call\n      iszero\n      dup1\n      iszero\n      tag_39\n      jumpi\n      returndatasize\n      0x00\n      dup1\n      returndatacopy\n      revert(0x00, returndatasize)\n    tag_39:\n      pop\n      pop\n      pop\n      pop\n        /* \"src/SwapDeployer.sol\":1476:1486  msg.sender */\n      caller\n      sub(shl(0xa0, 0x01), 0x01)\n        /* \"src/SwapDeployer.sol\":1464:1513  NewSwapPool(msg.sender, swapClone, _pooledTokens) */\n      and\n      0x0838512b7934222cec571cf3fde1cf3e9e864bbc431bd5d1ef4d9ed3079093d9\n        /* \"src/SwapDeployer.sol\":1488:1497  swapClone */\n      dup3\n        /* \"src/SwapDeployer.sol\":1499:1512  _pooledTokens */\n      dup13\n        /* \"src/SwapDeployer.sol\":1464:1513  NewSwapPool(msg.sender, swapClone, _pooledTokens) */\n      mload(0x40)\n      tag_40\n      swap3\n      swap2\n      swap1\n      tag_41\n      jump\t// in\n    tag_40:\n      mload(0x40)\n      dup1\n      swap2\n      sub\n      swap1\n      log2\n        /* \"src/SwapDeployer.sol\":1530:1539  swapClone */\n      swap1\n      pop\n        /* \"src/SwapDeployer.sol\":777:1546  function deploy(... */\n    tag_27:\n      swap10\n      swap9\n      pop\n      pop\n      pop\n      pop\n      pop\n      pop\n      pop\n      pop\n      pop\n      jump\t// out\n        /* \"src/.deps/npm/@openzeppelin/contracts/access/Ownable.sol\":2034:2135  function renounceOwnership() public virtual onlyOwner {... */\n    tag_15:\n        /* \"src/.deps/npm/@openzeppelin/contracts/access/Ownable.sol\":1297:1310  _checkOwner() */\n      tag_43\n        /* \"src/.deps/npm/@openzeppelin/contracts/access/Ownable.sol\":1297:1308  _checkOwner */\n      tag_44\n        /* \"src/.deps/npm/@openzeppelin/contracts/access/Ownable.sol\":1297:1310  _checkOwner() */\n      jump\t// in\n    tag_43:\n        /* \"src/.deps/npm/@openzeppelin/contracts/access/Ownable.sol\":2098:2128  _transferOwnership(address(0)) */\n      tag_46\n        /* \"src/.deps/npm/@openzeppelin/contracts/access/Ownable.sol\":2125:2126  0 */\n      0x00\n        /* \"src/.deps/npm/@openzeppelin/contracts/access/Ownable.sol\":2098:2116  _transferOwnership */\n      tag_47\n        /* \"src/.deps/npm/@openzeppelin/contracts/access/Ownable.sol\":2098:2128  _transferOwnership(address(0)) */\n      jump\t// in\n    tag_46:\n        /* \"src/.deps/npm/@openzeppelin/contracts/access/Ownable.sol\":2034:2135  function renounceOwnership() public virtual onlyOwner {... */\n      jump\t// out\n        /* \"src/SwapDeployer.sol\":487:662  function clone(address target) external returns (address) {... */\n    tag_19:\n        /* \"src/SwapDeployer.sol\":536:543  address */\n      0x00\n        /* \"src/SwapDeployer.sol\":555:571  address newClone */\n      dup1\n        /* \"src/SwapDeployer.sol\":574:588  _clone(target) */\n      tag_49\n        /* \"src/SwapDeployer.sol\":581:587  target */\n      dup4\n        /* \"src/SwapDeployer.sol\":574:580  _clone */\n      tag_29\n        /* \"src/SwapDeployer.sol\":574:588  _clone(target) */\n      jump\t// in\n    tag_49:\n        /* \"src/SwapDeployer.sol\":555:588  address newClone = _clone(target) */\n      swap1\n      pop\n        /* \"src/SwapDeployer.sol\":612:618  target */\n      dup3\n      sub(shl(0xa0, 0x01), 0x01)\n        /* \"src/SwapDeployer.sol\":603:629  NewClone(target, newClone) */\n      and\n      0x3bf919a220a0f12ddcaf77fd06ffa4b9c728617774936f0d78b452010319c824\n        /* \"src/SwapDeployer.sol\":620:628  newClone */\n      dup3\n        /* \"src/SwapDeployer.sol\":603:629  NewClone(target, newClone) */\n      mload(0x40)\n      tag_50\n      swap2\n      swap1\n      tag_13\n      jump\t// in\n    tag_50:\n      mload(0x40)\n      dup1\n      swap2\n      sub\n      swap1\n      log2\n        /* \"src/SwapDeployer.sol\":647:655  newClone */\n      swap1\n      pop\n        /* \"src/SwapDeployer.sol\":487:662  function clone(address target) external returns (address) {... */\n    tag_48:\n      swap2\n      swap1\n      pop\n      jump\t// out\n        /* \"src/.deps/npm/@openzeppelin/contracts/access/Ownable.sol\":1404:1489  function owner() public view virtual returns (address) {... */\n    tag_22:\n        /* \"src/.deps/npm/@openzeppelin/contracts/access/Ownable.sol\":1450:1457  address */\n      0x00\n        /* \"src/.deps/npm/@openzeppelin/contracts/access/Ownable.sol\":1476:1482  _owner */\n      sload\n      sub(shl(0xa0, 0x01), 0x01)\n      and\n        /* \"src/.deps/npm/@openzeppelin/contracts/access/Ownable.sol\":1404:1489  function owner() public view virtual returns (address) {... */\n      swap1\n      jump\t// out\n        /* \"src/.deps/npm/@openzeppelin/contracts/access/Ownable.sol\":2284:2482  function transferOwnership(address newOwner) public virtual onlyOwner {... */\n    tag_26:\n        /* \"src/.deps/npm/@openzeppelin/contracts/access/Ownable.sol\":1297:1310  _checkOwner() */\n      tag_53\n        /* \"src/.deps/npm/@openzeppelin/contracts/access/Ownable.sol\":1297:1308  _checkOwner */\n      tag_44\n        /* \"src/.deps/npm/@openzeppelin/contracts/access/Ownable.sol\":1297:1310  _checkOwner() */\n      jump\t// in\n    tag_53:\n      sub(shl(0xa0, 0x01), 0x01)\n        /* \"src/.deps/npm/@openzeppelin/contracts/access/Ownable.sol\":2372:2394  newOwner != address(0) */\n      dup2\n      and\n        /* \"src/.deps/npm/@openzeppelin/contracts/access/Ownable.sol\":2364:2437  require(newOwner != address(0), \"Ownable: new owner is the zero address\") */\n      tag_55\n      jumpi\n      mload(0x40)\n      shl(0xe5, 0x461bcd)\n      dup2\n      mstore\n      0x04\n      add\n      tag_56\n      swap1\n      tag_57\n      jump\t// in\n    tag_56:\n      mload(0x40)\n      dup1\n      swap2\n      sub\n      swap1\n      revert\n    tag_55:\n        /* \"src/.deps/npm/@openzeppelin/contracts/access/Ownable.sol\":2447:2475  _transferOwnership(newOwner) */\n      tag_58\n        /* \"src/.deps/npm/@openzeppelin/contracts/access/Ownable.sol\":2466:2474  newOwner */\n      dup2\n        /* \"src/.deps/npm/@openzeppelin/contracts/access/Ownable.sol\":2447:2465  _transferOwnership */\n      tag_47\n        /* \"src/.deps/npm/@openzeppelin/contracts/access/Ownable.sol\":2447:2475  _transferOwnership(newOwner) */\n      jump\t// in\n    tag_58:\n        /* \"src/.deps/npm/@openzeppelin/contracts/access/Ownable.sol\":2284:2482  function transferOwnership(address newOwner) public virtual onlyOwner {... */\n      pop\n      jump\t// out\n        /* \"src/SwapDeployer.sol\":668:771  function _clone(address target) internal returns (address) {... */\n    tag_29:\n        /* \"src/SwapDeployer.sol\":718:725  address */\n      0x00\n        /* \"src/SwapDeployer.sol\":744:764  Clones.clone(target) */\n      tag_60\n        /* \"src/SwapDeployer.sol\":757:763  target */\n      dup3\n        /* \"src/SwapDeployer.sol\":744:756  Clones.clone */\n      tag_61\n        /* \"src/SwapDeployer.sol\":744:764  Clones.clone(target) */\n      jump\t// in\n    tag_60:\n        /* \"src/SwapDeployer.sol\":737:764  return Clones.clone(target) */\n      swap3\n        /* \"src/SwapDeployer.sol\":668:771  function _clone(address target) internal returns (address) {... */\n      swap2\n      pop\n      pop\n      jump\t// out\n        /* \"src/.deps/npm/@openzeppelin/contracts/access/Ownable.sol\":1562:1692  function _checkOwner() internal view virtual {... */\n    tag_44:\n        /* \"src/.deps/npm/@openzeppelin/contracts/access/Ownable.sol\":1636:1648  _msgSender() */\n      tag_63\n        /* \"src/.deps/npm/@openzeppelin/contracts/access/Ownable.sol\":1636:1646  _msgSender */\n      tag_64\n        /* \"src/.deps/npm/@openzeppelin/contracts/access/Ownable.sol\":1636:1648  _msgSender() */\n      jump\t// in\n    tag_63:\n      sub(shl(0xa0, 0x01), 0x01)\n        /* \"src/.deps/npm/@openzeppelin/contracts/access/Ownable.sol\":1625:1648  owner() == _msgSender() */\n      and\n        /* \"src/.deps/npm/@openzeppelin/contracts/access/Ownable.sol\":1625:1632  owner() */\n      tag_65\n        /* \"src/.deps/npm/@openzeppelin/contracts/access/Ownable.sol\":1625:1630  owner */\n      tag_22\n        /* \"src/.deps/npm/@openzeppelin/contracts/access/Ownable.sol\":1625:1632  owner() */\n      jump\t// in\n    tag_65:\n      sub(shl(0xa0, 0x01), 0x01)\n        /* \"src/.deps/npm/@openzeppelin/contracts/access/Ownable.sol\":1625:1648  owner() == _msgSender() */\n      and\n      eq\n        /* \"src/.deps/npm/@openzeppelin/contracts/access/Ownable.sol\":1617:1685  require(owner() == _msgSender(), \"Ownable: caller is not the owner\") */\n      tag_46\n      jumpi\n      mload(0x40)\n      shl(0xe5, 0x461bcd)\n      dup2\n      mstore\n      0x04\n      add\n      tag_56\n      swap1\n      tag_68\n      jump\t// in\n        /* \"src/.deps/npm/@openzeppelin/contracts/access/Ownable.sol\":2636:2823  function _transferOwnership(address newOwner) internal virtual {... */\n    tag_47:\n        /* \"src/.deps/npm/@openzeppelin/contracts/access/Ownable.sol\":2709:2725  address oldOwner */\n      0x00\n        /* \"src/.deps/npm/@openzeppelin/contracts/access/Ownable.sol\":2728:2734  _owner */\n      dup1\n      sload\n      sub(shl(0xa0, 0x01), 0x01)\n        /* \"src/.deps/npm/@openzeppelin/contracts/access/Ownable.sol\":2744:2761  _owner = newOwner */\n      dup4\n      dup2\n      and\n      not(sub(shl(0xa0, 0x01), 0x01))\n      dup4\n      and\n      dup2\n      or\n      dup5\n      sstore\n        /* \"src/.deps/npm/@openzeppelin/contracts/access/Ownable.sol\":2776:2816  OwnershipTransferred(oldOwner, newOwner) */\n      mload(0x40)\n        /* \"src/.deps/npm/@openzeppelin/contracts/access/Ownable.sol\":2728:2734  _owner */\n      swap2\n      swap1\n      swap3\n      and\n      swap3\n      dup4\n      swap2\n        /* \"src/.deps/npm/@openzeppelin/contracts/access/Ownable.sol\":2776:2816  OwnershipTransferred(oldOwner, newOwner) */\n      0x8be0079c531659141344cd1fd0a4f28419497f9722a3daafe3b4186f6b6457e0\n      swap2\n        /* \"src/.deps/npm/@openzeppelin/contracts/access/Ownable.sol\":2709:2725  address oldOwner */\n      swap1\n        /* \"src/.deps/npm/@openzeppelin/contracts/access/Ownable.sol\":2776:2816  OwnershipTransferred(oldOwner, newOwner) */\n      log3\n        /* \"src/.deps/npm/@openzeppelin/contracts/access/Ownable.sol\":2636:2823  function _transferOwnership(address newOwner) internal virtual {... */\n      pop\n      pop\n      jump\t// out\n        /* \"src/.deps/npm/@openzeppelin/contracts/proxy/Clones.sol\":973:1531  function clone(address implementation) internal returns (address instance) {... */\n    tag_61:\n        /* \"src/.deps/npm/@openzeppelin/contracts/proxy/Clones.sol\":1030:1046  address instance */\n      0x00\n        /* \"src/.deps/npm/@openzeppelin/contracts/proxy/Clones.sol\":1141:1145  0x40 */\n      0x40\n        /* \"src/.deps/npm/@openzeppelin/contracts/proxy/Clones.sol\":1135:1146  mload(0x40) */\n      mload\n      shl(0x60, 0x3d602d80600a3d3981f3363d3d373d3d3d363d73)\n        /* \"src/.deps/npm/@openzeppelin/contracts/proxy/Clones.sol\":1166:1169  ptr */\n      dup2\n        /* \"src/.deps/npm/@openzeppelin/contracts/proxy/Clones.sol\":1159:1238  mstore(ptr, 0x3d602d80600a3d3981f3363d3d373d3d3d363d73000000000000000000000000) */\n      mstore\n        /* \"src/.deps/npm/@openzeppelin/contracts/proxy/Clones.sol\":1284:1298  implementation */\n      dup3\n        /* \"src/.deps/npm/@openzeppelin/contracts/proxy/Clones.sol\":1278:1282  0x60 */\n      0x60\n        /* \"src/.deps/npm/@openzeppelin/contracts/proxy/Clones.sol\":1274:1299  shl(0x60, implementation) */\n      shl\n        /* \"src/.deps/npm/@openzeppelin/contracts/proxy/Clones.sol\":1267:1271  0x14 */\n      0x14\n        /* \"src/.deps/npm/@openzeppelin/contracts/proxy/Clones.sol\":1262:1265  ptr */\n      dup3\n        /* \"src/.deps/npm/@openzeppelin/contracts/proxy/Clones.sol\":1258:1272  add(ptr, 0x14) */\n      add\n        /* \"src/.deps/npm/@openzeppelin/contracts/proxy/Clones.sol\":1251:1300  mstore(add(ptr, 0x14), shl(0x60, implementation)) */\n      mstore\n      shl(0x88, 0x5af43d82803e903d91602b57fd5bf3)\n        /* \"src/.deps/npm/@openzeppelin/contracts/proxy/Clones.sol\":1329:1333  0x28 */\n      0x28\n        /* \"src/.deps/npm/@openzeppelin/contracts/proxy/Clones.sol\":1324:1327  ptr */\n      dup3\n        /* \"src/.deps/npm/@openzeppelin/contracts/proxy/Clones.sol\":1320:1334  add(ptr, 0x28) */\n      add\n        /* \"src/.deps/npm/@openzeppelin/contracts/proxy/Clones.sol\":1313:1403  mstore(add(ptr, 0x28), 0x5af43d82803e903d91602b57fd5bf30000000000000000000000000000000000) */\n      mstore\n        /* \"src/.deps/npm/@openzeppelin/contracts/proxy/Clones.sol\":1443:1447  0x37 */\n      0x37\n        /* \"src/.deps/npm/@openzeppelin/contracts/proxy/Clones.sol\":1438:1441  ptr */\n      dup2\n        /* \"src/.deps/npm/@openzeppelin/contracts/proxy/Clones.sol\":1435:1436  0 */\n      0x00\n        /* \"src/.deps/npm/@openzeppelin/contracts/proxy/Clones.sol\":1428:1448  create(0, ptr, 0x37) */\n      create\n        /* \"src/.deps/npm/@openzeppelin/contracts/proxy/Clones.sol\":1416:1448  instance := create(0, ptr, 0x37) */\n      swap2\n      pop\n      pop\n      sub(shl(0xa0, 0x01), 0x01)\n        /* \"src/.deps/npm/@openzeppelin/contracts/proxy/Clones.sol\":1475:1497  instance != address(0) */\n      dup2\n      and\n        /* \"src/.deps/npm/@openzeppelin/contracts/proxy/Clones.sol\":1467:1524  require(instance != address(0), \"ERC1167: create failed\") */\n      tag_48\n      jumpi\n      mload(0x40)\n      shl(0xe5, 0x461bcd)\n      dup2\n      mstore\n      0x04\n      add\n      tag_56\n      swap1\n      tag_73\n      jump\t// in\n        /* \"src/.deps/npm/@openzeppelin/contracts/access/Ownable.sol\":158:254  function _msgSender() internal view virtual returns (address) {... */\n    tag_64:\n        /* \"src/.deps/npm/@openzeppelin/contracts/access/Ownable.sol\":237:247  msg.sender */\n      caller\n        /* \"src/.deps/npm/@openzeppelin/contracts/access/Ownable.sol\":158:254  function _msgSender() internal view virtual returns (address) {... */\n      swap1\n      jump\t// out\n        /* \"#utility.yul\":14:152   */\n    tag_76:\n        /* \"#utility.yul\":84:104   */\n      dup1\n      calldataload\n        /* \"#utility.yul\":113:146   */\n      tag_48\n        /* \"#utility.yul\":84:104   */\n      dup2\n        /* \"#utility.yul\":113:146   */\n      tag_79\n      jump\t// in\n        /* \"#utility.yul\":157:933   */\n    tag_80:\n      0x00\n        /* \"#utility.yul\":267:270   */\n      dup3\n        /* \"#utility.yul\":260:264   */\n      0x1f\n        /* \"#utility.yul\":252:258   */\n      dup4\n        /* \"#utility.yul\":248:265   */\n      add\n        /* \"#utility.yul\":244:271   */\n      slt\n        /* \"#utility.yul\":234:236   */\n      tag_82\n      jumpi\n        /* \"#utility.yul\":289:294   */\n      dup1\n        /* \"#utility.yul\":282:287   */\n      dup2\n        /* \"#utility.yul\":275:295   */\n      revert\n        /* \"#utility.yul\":234:236   */\n    tag_82:\n        /* \"#utility.yul\":329:335   */\n      dup2\n        /* \"#utility.yul\":316:336   */\n      calldataload\n        /* \"#utility.yul\":355:359   */\n      0x20\n        /* \"#utility.yul\":379:441   */\n      tag_83\n        /* \"#utility.yul\":394:440   */\n      tag_84\n        /* \"#utility.yul\":437:439   */\n      dup4\n        /* \"#utility.yul\":394:440   */\n      tag_85\n      jump\t// in\n    tag_84:\n        /* \"#utility.yul\":379:441   */\n      tag_86\n      jump\t// in\n    tag_83:\n        /* \"#utility.yul\":475:490   */\n      dup3\n      dup2\n      mstore\n        /* \"#utility.yul\":506:518   */\n      dup2\n      dup2\n      add\n      swap1\n        /* \"#utility.yul\":538:553   */\n      dup6\n      dup4\n      add\n        /* \"#utility.yul\":584:595   */\n      dup4\n      dup6\n      mul\n        /* \"#utility.yul\":572:596   */\n      dup8\n      add\n        /* \"#utility.yul\":568:601   */\n      dup5\n      add\n        /* \"#utility.yul\":565:607   */\n      dup9\n      lt\n        /* \"#utility.yul\":562:564   */\n      iszero\n      tag_87\n      jumpi\n        /* \"#utility.yul\":624:629   */\n      dup6\n        /* \"#utility.yul\":617:622   */\n      dup7\n        /* \"#utility.yul\":610:630   */\n      revert\n        /* \"#utility.yul\":562:564   */\n    tag_87:\n        /* \"#utility.yul\":650:655   */\n      dup6\n        /* \"#utility.yul\":664:904   */\n    tag_88:\n        /* \"#utility.yul\":678:680   */\n      dup6\n        /* \"#utility.yul\":675:676   */\n      dup2\n        /* \"#utility.yul\":672:681   */\n      lt\n        /* \"#utility.yul\":664:904   */\n      iszero\n      tag_90\n      jumpi\n        /* \"#utility.yul\":749:752   */\n      dup2\n        /* \"#utility.yul\":736:753   */\n      calldataload\n        /* \"#utility.yul\":766:799   */\n      tag_91\n        /* \"#utility.yul\":793:798   */\n      dup2\n        /* \"#utility.yul\":766:799   */\n      tag_79\n      jump\t// in\n    tag_91:\n        /* \"#utility.yul\":812:830   */\n      dup5\n      mstore\n        /* \"#utility.yul\":850:862   */\n      swap3\n      dup5\n      add\n      swap3\n        /* \"#utility.yul\":882:894   */\n      swap1\n      dup5\n      add\n      swap1\n        /* \"#utility.yul\":696:697   */\n      0x01\n        /* \"#utility.yul\":689:698   */\n      add\n        /* \"#utility.yul\":664:904   */\n      jump(tag_88)\n    tag_90:\n      pop\n        /* \"#utility.yul\":922:927   */\n      swap1\n      swap8\n        /* \"#utility.yul\":224:933   */\n      swap7\n      pop\n      pop\n      pop\n      pop\n      pop\n      pop\n      pop\n      jump\t// out\n        /* \"#utility.yul\":938:1745   */\n    tag_92:\n      0x00\n        /* \"#utility.yul\":1049:1052   */\n      dup3\n        /* \"#utility.yul\":1042:1046   */\n      0x1f\n        /* \"#utility.yul\":1034:1040   */\n      dup4\n        /* \"#utility.yul\":1030:1047   */\n      add\n        /* \"#utility.yul\":1026:1053   */\n      slt\n        /* \"#utility.yul\":1016:1018   */\n      tag_94\n      jumpi\n        /* \"#utility.yul\":1071:1076   */\n      dup1\n        /* \"#utility.yul\":1064:1069   */\n      dup2\n        /* \"#utility.yul\":1057:1077   */\n      revert\n        /* \"#utility.yul\":1016:1018   */\n    tag_94:\n        /* \"#utility.yul\":1111:1117   */\n      dup2\n        /* \"#utility.yul\":1098:1118   */\n      calldataload\n        /* \"#utility.yul\":1137:1141   */\n      0x20\n        /* \"#utility.yul\":1161:1223   */\n      tag_95\n        /* \"#utility.yul\":1176:1222   */\n      tag_84\n        /* \"#utility.yul\":1219:1221   */\n      dup4\n        /* \"#utility.yul\":1176:1222   */\n      tag_85\n      jump\t// in\n        /* \"#utility.yul\":1161:1223   */\n    tag_95:\n        /* \"#utility.yul\":1257:1272   */\n      dup3\n      dup2\n      mstore\n        /* \"#utility.yul\":1288:1300   */\n      dup2\n      dup2\n      add\n      swap1\n        /* \"#utility.yul\":1320:1335   */\n      dup6\n      dup4\n      add\n        /* \"#utility.yul\":1366:1377   */\n      dup4\n      dup6\n      mul\n        /* \"#utility.yul\":1354:1378   */\n      dup8\n      add\n        /* \"#utility.yul\":1350:1383   */\n      dup5\n      add\n        /* \"#utility.yul\":1347:1389   */\n      dup9\n      lt\n        /* \"#utility.yul\":1344:1346   */\n      iszero\n      tag_97\n      jumpi\n        /* \"#utility.yul\":1406:1411   */\n      dup6\n        /* \"#utility.yul\":1399:1404   */\n      dup7\n        /* \"#utility.yul\":1392:1412   */\n      revert\n        /* \"#utility.yul\":1344:1346   */\n    tag_97:\n        /* \"#utility.yul\":1432:1437   */\n      dup6\n        /* \"#utility.yul\":1446:1716   */\n    tag_98:\n        /* \"#utility.yul\":1460:1462   */\n      dup6\n        /* \"#utility.yul\":1457:1458   */\n      dup2\n        /* \"#utility.yul\":1454:1463   */\n      lt\n        /* \"#utility.yul\":1446:1716   */\n      iszero\n      tag_90\n      jumpi\n        /* \"#utility.yul\":1531:1534   */\n      dup2\n        /* \"#utility.yul\":1518:1535   */\n      calldataload\n        /* \"#utility.yul\":1579:1583   */\n      0xff\n        /* \"#utility.yul\":1572:1577   */\n      dup2\n        /* \"#utility.yul\":1568:1584   */\n      and\n        /* \"#utility.yul\":1561:1566   */\n      dup2\n        /* \"#utility.yul\":1558:1585   */\n      eq\n        /* \"#utility.yul\":1548:1550   */\n      tag_101\n      jumpi\n        /* \"#utility.yul\":1603:1608   */\n      dup8\n        /* \"#utility.yul\":1596:1601   */\n      dup9\n        /* \"#utility.yul\":1589:1609   */\n      revert\n        /* \"#utility.yul\":1548:1550   */\n    tag_101:\n        /* \"#utility.yul\":1624:1642   */\n      dup5\n      mstore\n        /* \"#utility.yul\":1662:1674   */\n      swap3\n      dup5\n      add\n      swap3\n        /* \"#utility.yul\":1694:1706   */\n      swap1\n      dup5\n      add\n      swap1\n        /* \"#utility.yul\":1478:1479   */\n      0x01\n        /* \"#utility.yul\":1471:1480   */\n      add\n        /* \"#utility.yul\":1446:1716   */\n      jump(tag_98)\n        /* \"#utility.yul\":1750:2302   */\n    tag_102:\n      0x00\n        /* \"#utility.yul\":1848:1851   */\n      dup3\n        /* \"#utility.yul\":1841:1845   */\n      0x1f\n        /* \"#utility.yul\":1833:1839   */\n      dup4\n        /* \"#utility.yul\":1829:1846   */\n      add\n        /* \"#utility.yul\":1825:1852   */\n      slt\n        /* \"#utility.yul\":1815:1817   */\n      tag_104\n      jumpi\n        /* \"#utility.yul\":1870:1875   */\n      dup1\n        /* \"#utility.yul\":1863:1868   */\n      dup2\n        /* \"#utility.yul\":1856:1876   */\n      revert\n        /* \"#utility.yul\":1815:1817   */\n    tag_104:\n        /* \"#utility.yul\":1910:1916   */\n      dup2\n        /* \"#utility.yul\":1897:1917   */\n      calldataload\n        /* \"#utility.yul\":1936:1954   */\n      0xffffffffffffffff\n        /* \"#utility.yul\":1932:1934   */\n      dup2\n        /* \"#utility.yul\":1929:1955   */\n      gt\n        /* \"#utility.yul\":1926:1928   */\n      iszero\n      tag_106\n      jumpi\n        /* \"#utility.yul\":1958:1976   */\n      tag_106\n      tag_107\n      jump\t// in\n    tag_106:\n        /* \"#utility.yul\":2002:2056   */\n      tag_108\n        /* \"#utility.yul\":2044:2046   */\n      0x1f\n        /* \"#utility.yul\":2025:2038   */\n      dup3\n      add\n      not(0x1f)\n        /* \"#utility.yul\":2021:2048   */\n      and\n        /* \"#utility.yul\":2050:2054   */\n      0x20\n        /* \"#utility.yul\":2017:2055   */\n      add\n        /* \"#utility.yul\":2002:2056   */\n      tag_86\n      jump\t// in\n    tag_108:\n        /* \"#utility.yul\":2081:2083   */\n      dup2\n        /* \"#utility.yul\":2072:2079   */\n      dup2\n        /* \"#utility.yul\":2065:2084   */\n      mstore\n        /* \"#utility.yul\":2127:2130   */\n      dup5\n        /* \"#utility.yul\":2120:2124   */\n      0x20\n        /* \"#utility.yul\":2115:2117   */\n      dup4\n        /* \"#utility.yul\":2107:2113   */\n      dup7\n        /* \"#utility.yul\":2103:2118   */\n      add\n        /* \"#utility.yul\":2099:2125   */\n      add\n        /* \"#utility.yul\":2096:2131   */\n      gt\n        /* \"#utility.yul\":2093:2095   */\n      iszero\n      tag_109\n      jumpi\n        /* \"#utility.yul\":2148:2153   */\n      dup3\n        /* \"#utility.yul\":2141:2146   */\n      dup4\n        /* \"#utility.yul\":2134:2154   */\n      revert\n        /* \"#utility.yul\":2093:2095   */\n    tag_109:\n        /* \"#utility.yul\":2217:2219   */\n      dup2\n        /* \"#utility.yul\":2210:2214   */\n      0x20\n        /* \"#utility.yul\":2202:2208   */\n      dup6\n        /* \"#utility.yul\":2198:2215   */\n      add\n        /* \"#utility.yul\":2191:2195   */\n      0x20\n        /* \"#utility.yul\":2182:2189   */\n      dup4\n        /* \"#utility.yul\":2178:2196   */\n      add\n        /* \"#utility.yul\":2165:2220   */\n      calldatacopy\n        /* \"#utility.yul\":2240:2256   */\n      swap1\n      dup2\n      add\n        /* \"#utility.yul\":2258:2262   */\n      0x20\n        /* \"#utility.yul\":2236:2263   */\n      add\n        /* \"#utility.yul\":2229:2271   */\n      swap2\n      swap1\n      swap2\n      mstore\n        /* \"#utility.yul\":2244:2251   */\n      swap3\n        /* \"#utility.yul\":1805:2302   */\n      swap2\n      pop\n      pop\n      jump\t// out\n        /* \"#utility.yul\":2307:2566   */\n    tag_18:\n      0x00\n        /* \"#utility.yul\":2419:2421   */\n      0x20\n        /* \"#utility.yul\":2407:2416   */\n      dup3\n        /* \"#utility.yul\":2398:2405   */\n      dup5\n        /* \"#utility.yul\":2394:2417   */\n      sub\n        /* \"#utility.yul\":2390:2422   */\n      slt\n        /* \"#utility.yul\":2387:2389   */\n      iszero\n      tag_111\n      jumpi\n        /* \"#utility.yul\":2440:2446   */\n      dup1\n        /* \"#utility.yul\":2432:2438   */\n      dup2\n        /* \"#utility.yul\":2425:2447   */\n      revert\n        /* \"#utility.yul\":2387:2389   */\n    tag_111:\n        /* \"#utility.yul\":2484:2493   */\n      dup2\n        /* \"#utility.yul\":2471:2494   */\n      calldataload\n        /* \"#utility.yul\":2503:2536   */\n      tag_112\n        /* \"#utility.yul\":2530:2535   */\n      dup2\n        /* \"#utility.yul\":2503:2536   */\n      tag_79\n      jump\t// in\n    tag_112:\n        /* \"#utility.yul\":2555:2560   */\n      swap4\n        /* \"#utility.yul\":2377:2566   */\n      swap3\n      pop\n      pop\n      pop\n      jump\t// out\n        /* \"#utility.yul\":2571:4001   */\n    tag_10:\n      0x00\n      dup1\n      0x00\n      dup1\n      0x00\n      dup1\n      0x00\n      dup1\n      0x00\n        /* \"#utility.yul\":2901:2904   */\n      0x0120\n        /* \"#utility.yul\":2889:2898   */\n      dup11\n        /* \"#utility.yul\":2880:2887   */\n      dup13\n        /* \"#utility.yul\":2876:2899   */\n      sub\n        /* \"#utility.yul\":2872:2905   */\n      slt\n        /* \"#utility.yul\":2869:2871   */\n      iszero\n      tag_114\n      jumpi\n        /* \"#utility.yul\":2923:2929   */\n      dup5\n        /* \"#utility.yul\":2915:2921   */\n      dup6\n        /* \"#utility.yul\":2908:2930   */\n      revert\n        /* \"#utility.yul\":2869:2871   */\n    tag_114:\n        /* \"#utility.yul\":2951:2982   */\n      tag_115\n        /* \"#utility.yul\":2972:2981   */\n      dup11\n        /* \"#utility.yul\":2951:2982   */\n      tag_76\n      jump\t// in\n    tag_115:\n        /* \"#utility.yul\":2941:2982   */\n      swap9\n      pop\n        /* \"#utility.yul\":3033:3035   */\n      0x20\n        /* \"#utility.yul\":3022:3031   */\n      dup11\n        /* \"#utility.yul\":3018:3036   */\n      add\n        /* \"#utility.yul\":3005:3037   */\n      calldataload\n        /* \"#utility.yul\":3056:3074   */\n      0xffffffffffffffff\n        /* \"#utility.yul\":3097:3099   */\n      dup1\n        /* \"#utility.yul\":3089:3095   */\n      dup3\n        /* \"#utility.yul\":3086:3100   */\n      gt\n        /* \"#utility.yul\":3083:3085   */\n      iszero\n      tag_116\n      jumpi\n        /* \"#utility.yul\":3118:3124   */\n      dup7\n        /* \"#utility.yul\":3110:3116   */\n      dup8\n        /* \"#utility.yul\":3103:3125   */\n      revert\n        /* \"#utility.yul\":3083:3085   */\n    tag_116:\n        /* \"#utility.yul\":3146:3210   */\n      tag_117\n        /* \"#utility.yul\":3202:3209   */\n      dup14\n        /* \"#utility.yul\":3193:3199   */\n      dup4\n        /* \"#utility.yul\":3182:3191   */\n      dup15\n        /* \"#utility.yul\":3178:3200   */\n      add\n        /* \"#utility.yul\":3146:3210   */\n      tag_80\n      jump\t// in\n    tag_117:\n        /* \"#utility.yul\":3136:3210   */\n      swap10\n      pop\n        /* \"#utility.yul\":3263:3265   */\n      0x40\n        /* \"#utility.yul\":3252:3261   */\n      dup13\n        /* \"#utility.yul\":3248:3266   */\n      add\n        /* \"#utility.yul\":3235:3267   */\n      calldataload\n        /* \"#utility.yul\":3219:3267   */\n      swap2\n      pop\n        /* \"#utility.yul\":3292:3294   */\n      dup1\n        /* \"#utility.yul\":3282:3290   */\n      dup3\n        /* \"#utility.yul\":3279:3295   */\n      gt\n        /* \"#utility.yul\":3276:3278   */\n      iszero\n      tag_118\n      jumpi\n        /* \"#utility.yul\":3313:3319   */\n      dup7\n        /* \"#utility.yul\":3305:3311   */\n      dup8\n        /* \"#utility.yul\":3298:3320   */\n      revert\n        /* \"#utility.yul\":3276:3278   */\n    tag_118:\n        /* \"#utility.yul\":3341:3408   */\n      tag_119\n        /* \"#utility.yul\":3400:3407   */\n      dup14\n        /* \"#utility.yul\":3389:3397   */\n      dup4\n        /* \"#utility.yul\":3378:3387   */\n      dup15\n        /* \"#utility.yul\":3374:3398   */\n      add\n        /* \"#utility.yul\":3341:3408   */\n      tag_92\n      jump\t// in\n    tag_119:\n        /* \"#utility.yul\":3331:3408   */\n      swap9\n      pop\n        /* \"#utility.yul\":3461:3463   */\n      0x60\n        /* \"#utility.yul\":3450:3459   */\n      dup13\n        /* \"#utility.yul\":3446:3464   */\n      add\n        /* \"#utility.yul\":3433:3465   */\n      calldataload\n        /* \"#utility.yul\":3417:3465   */\n      swap2\n      pop\n        /* \"#utility.yul\":3490:3492   */\n      dup1\n        /* \"#utility.yul\":3480:3488   */\n      dup3\n        /* \"#utility.yul\":3477:3493   */\n      gt\n        /* \"#utility.yul\":3474:3476   */\n      iszero\n      tag_120\n      jumpi\n        /* \"#utility.yul\":3511:3517   */\n      dup7\n        /* \"#utility.yul\":3503:3509   */\n      dup8\n        /* \"#utility.yul\":3496:3518   */\n      revert\n        /* \"#utility.yul\":3474:3476   */\n    tag_120:\n        /* \"#utility.yul\":3539:3593   */\n      tag_121\n        /* \"#utility.yul\":3585:3592   */\n      dup14\n        /* \"#utility.yul\":3574:3582   */\n      dup4\n        /* \"#utility.yul\":3563:3572   */\n      dup15\n        /* \"#utility.yul\":3559:3583   */\n      add\n        /* \"#utility.yul\":3539:3593   */\n      tag_102\n      jump\t// in\n    tag_121:\n        /* \"#utility.yul\":3529:3593   */\n      swap8\n      pop\n        /* \"#utility.yul\":3646:3649   */\n      0x80\n        /* \"#utility.yul\":3635:3644   */\n      dup13\n        /* \"#utility.yul\":3631:3650   */\n      add\n        /* \"#utility.yul\":3618:3651   */\n      calldataload\n        /* \"#utility.yul\":3602:3651   */\n      swap2\n      pop\n        /* \"#utility.yul\":3676:3678   */\n      dup1\n        /* \"#utility.yul\":3666:3674   */\n      dup3\n        /* \"#utility.yul\":3663:3679   */\n      gt\n        /* \"#utility.yul\":3660:3662   */\n      iszero\n      tag_122\n      jumpi\n        /* \"#utility.yul\":3697:3703   */\n      dup7\n        /* \"#utility.yul\":3689:3695   */\n      dup8\n        /* \"#utility.yul\":3682:3704   */\n      revert\n        /* \"#utility.yul\":3660:3662   */\n    tag_122:\n      pop\n        /* \"#utility.yul\":3725:3779   */\n      tag_123\n        /* \"#utility.yul\":3771:3778   */\n      dup13\n        /* \"#utility.yul\":3760:3768   */\n      dup3\n        /* \"#utility.yul\":3749:3758   */\n      dup14\n        /* \"#utility.yul\":3745:3769   */\n      add\n        /* \"#utility.yul\":3725:3779   */\n      tag_102\n      jump\t// in\n    tag_123:\n        /* \"#utility.yul\":3715:3779   */\n      swap6\n      pop\n      pop\n        /* \"#utility.yul\":3826:3829   */\n      0xa0\n        /* \"#utility.yul\":3815:3824   */\n      dup11\n        /* \"#utility.yul\":3811:3830   */\n      add\n        /* \"#utility.yul\":3798:3831   */\n      calldataload\n        /* \"#utility.yul\":3788:3831   */\n      swap4\n      pop\n        /* \"#utility.yul\":3878:3881   */\n      0xc0\n        /* \"#utility.yul\":3867:3876   */\n      dup11\n        /* \"#utility.yul\":3863:3882   */\n      add\n        /* \"#utility.yul\":3850:3883   */\n      calldataload\n        /* \"#utility.yul\":3840:3883   */\n      swap3\n      pop\n        /* \"#utility.yul\":3930:3933   */\n      0xe0\n        /* \"#utility.yul\":3919:3928   */\n      dup11\n        /* \"#utility.yul\":3915:3934   */\n      add\n        /* \"#utility.yul\":3902:3935   */\n      calldataload\n        /* \"#utility.yul\":3892:3935   */\n      swap2\n      pop\n        /* \"#utility.yul\":3954:3995   */\n      tag_124\n        /* \"#utility.yul\":3990:3993   */\n      0x0100\n        /* \"#utility.yul\":3979:3988   */\n      dup12\n        /* \"#utility.yul\":3975:3994   */\n      add\n        /* \"#utility.yul\":3954:3995   */\n      tag_76\n      jump\t// in\n    tag_124:\n        /* \"#utility.yul\":3944:3995   */\n      swap1\n      pop\n        /* \"#utility.yul\":2859:4001   */\n      swap3\n      swap6\n      swap9\n      pop\n      swap3\n      swap6\n      swap9\n      pop\n      swap3\n      swap6\n      swap9\n      jump\t// out\n        /* \"#utility.yul\":4006:4112   */\n    tag_125:\n      sub(shl(0xa0, 0x01), 0x01)\n        /* \"#utility.yul\":4074:4105   */\n      and\n        /* \"#utility.yul\":4062:4106   */\n      swap1\n      mstore\n        /* \"#utility.yul\":4052:4112   */\n      jump\t// out\n        /* \"#utility.yul\":4117:4583   */\n    tag_127:\n      0x00\n        /* \"#utility.yul\":4211:4216   */\n      dup2\n        /* \"#utility.yul\":4205:4217   */\n      mload\n        /* \"#utility.yul\":4238:4244   */\n      dup1\n        /* \"#utility.yul\":4233:4236   */\n      dup5\n        /* \"#utility.yul\":4226:4245   */\n      mstore\n        /* \"#utility.yul\":4264:4268   */\n      0x20\n        /* \"#utility.yul\":4293:4295   */\n      dup1\n        /* \"#utility.yul\":4288:4291   */\n      dup6\n        /* \"#utility.yul\":4284:4296   */\n      add\n        /* \"#utility.yul\":4277:4296   */\n      swap5\n      pop\n        /* \"#utility.yul\":4330:4332   */\n      dup1\n        /* \"#utility.yul\":4323:4328   */\n      dup5\n        /* \"#utility.yul\":4319:4333   */\n      add\n        /* \"#utility.yul\":4351:4354   */\n      dup4\n        /* \"#utility.yul\":4363:4558   */\n    tag_129:\n        /* \"#utility.yul\":4377:4383   */\n      dup4\n        /* \"#utility.yul\":4374:4375   */\n      dup2\n        /* \"#utility.yul\":4371:4384   */\n      lt\n        /* \"#utility.yul\":4363:4558   */\n      iszero\n      tag_131\n      jumpi\n        /* \"#utility.yul\":4442:4455   */\n      dup2\n      mload\n      sub(shl(0xa0, 0x01), 0x01)\n        /* \"#utility.yul\":4438:4477   */\n      and\n        /* \"#utility.yul\":4426:4478   */\n      dup8\n      mstore\n        /* \"#utility.yul\":4498:4510   */\n      swap6\n      dup3\n      add\n      swap6\n        /* \"#utility.yul\":4533:4548   */\n      swap1\n      dup3\n      add\n      swap1\n        /* \"#utility.yul\":4474:4475   */\n      0x01\n        /* \"#utility.yul\":4392:4401   */\n      add\n        /* \"#utility.yul\":4363:4558   */\n      jump(tag_129)\n    tag_131:\n      pop\n        /* \"#utility.yul\":4574:4577   */\n      swap5\n      swap6\n        /* \"#utility.yul\":4181:4583   */\n      swap5\n      pop\n      pop\n      pop\n      pop\n      pop\n      jump\t// out\n        /* \"#utility.yul\":4588:5066   */\n    tag_132:\n      0x00\n        /* \"#utility.yul\":4670:4675   */\n      dup2\n        /* \"#utility.yul\":4664:4676   */\n      mload\n        /* \"#utility.yul\":4697:4703   */\n      dup1\n        /* \"#utility.yul\":4692:4695   */\n      dup5\n        /* \"#utility.yul\":4685:4704   */\n      mstore\n        /* \"#utility.yul\":4722:4725   */\n      dup2\n        /* \"#utility.yul\":4734:4896   */\n    tag_134:\n        /* \"#utility.yul\":4748:4754   */\n      dup2\n        /* \"#utility.yul\":4745:4746   */\n      dup2\n        /* \"#utility.yul\":4742:4755   */\n      lt\n        /* \"#utility.yul\":4734:4896   */\n      iszero\n      tag_136\n      jumpi\n        /* \"#utility.yul\":4810:4814   */\n      0x20\n        /* \"#utility.yul\":4866:4879   */\n      dup2\n      dup6\n      add\n        /* \"#utility.yul\":4862:4884   */\n      dup2\n      add\n        /* \"#utility.yul\":4856:4885   */\n      mload\n        /* \"#utility.yul\":4838:4849   */\n      dup7\n      dup4\n      add\n        /* \"#utility.yul\":4834:4854   */\n      dup3\n      add\n        /* \"#utility.yul\":4827:4886   */\n      mstore\n        /* \"#utility.yul\":4763:4775   */\n      add\n        /* \"#utility.yul\":4734:4896   */\n      jump(tag_134)\n    tag_136:\n        /* \"#utility.yul\":4914:4920   */\n      dup2\n        /* \"#utility.yul\":4911:4912   */\n      dup2\n        /* \"#utility.yul\":4908:4921   */\n      gt\n        /* \"#utility.yul\":4905:4907   */\n      iszero\n      tag_137\n      jumpi\n        /* \"#utility.yul\":4980:4983   */\n      dup3\n        /* \"#utility.yul\":4973:4977   */\n      0x20\n        /* \"#utility.yul\":4964:4970   */\n      dup4\n        /* \"#utility.yul\":4959:4962   */\n      dup8\n        /* \"#utility.yul\":4955:4971   */\n      add\n        /* \"#utility.yul\":4951:4978   */\n      add\n        /* \"#utility.yul\":4944:4984   */\n      mstore\n        /* \"#utility.yul\":4905:4907   */\n    tag_137:\n      pop\n        /* \"#utility.yul\":5048:5050   */\n      0x1f\n        /* \"#utility.yul\":5027:5042   */\n      add\n      not(0x1f)\n        /* \"#utility.yul\":5023:5052   */\n      and\n        /* \"#utility.yul\":5014:5053   */\n      swap3\n      swap1\n      swap3\n      add\n        /* \"#utility.yul\":5055:5059   */\n      0x20\n        /* \"#utility.yul\":5010:5060   */\n      add\n      swap3\n        /* \"#utility.yul\":4640:5066   */\n      swap2\n      pop\n      pop\n      jump\t// out\n        /* \"#utility.yul\":5071:5274   */\n    tag_13:\n      sub(shl(0xa0, 0x01), 0x01)\n        /* \"#utility.yul\":5235:5267   */\n      swap2\n      swap1\n      swap2\n      and\n        /* \"#utility.yul\":5217:5268   */\n      dup2\n      mstore\n        /* \"#utility.yul\":5205:5207   */\n      0x20\n        /* \"#utility.yul\":5190:5208   */\n      add\n      swap1\n        /* \"#utility.yul\":5172:5274   */\n      jump\t// out\n        /* \"#utility.yul\":5279:5654   */\n    tag_41:\n      sub(shl(0xa0, 0x01), 0x01)\n        /* \"#utility.yul\":5500:5532   */\n      dup4\n      and\n        /* \"#utility.yul\":5482:5533   */\n      dup2\n      mstore\n        /* \"#utility.yul\":5569:5571   */\n      0x40\n        /* \"#utility.yul\":5564:5566   */\n      0x20\n        /* \"#utility.yul\":5549:5567   */\n      dup3\n      add\n        /* \"#utility.yul\":5542:5572   */\n      dup2\n      swap1\n      mstore\n        /* \"#utility.yul\":5279:5654   */\n      0x00\n      swap1\n        /* \"#utility.yul\":5589:5648   */\n      tag_140\n      swap1\n        /* \"#utility.yul\":5629:5647   */\n      dup4\n      add\n        /* \"#utility.yul\":5621:5627   */\n      dup5\n        /* \"#utility.yul\":5589:5648   */\n      tag_127\n      jump\t// in\n    tag_140:\n        /* \"#utility.yul\":5581:5648   */\n      swap5\n        /* \"#utility.yul\":5472:5654   */\n      swap4\n      pop\n      pop\n      pop\n      pop\n      jump\t// out\n        /* \"#utility.yul\":5659:7112   */\n    tag_31:\n      0x00\n        /* \"#utility.yul\":6126:6129   */\n      0x0100\n        /* \"#utility.yul\":6156:6158   */\n      dup1\n        /* \"#utility.yul\":6145:6154   */\n      dup4\n        /* \"#utility.yul\":6138:6159   */\n      mstore\n        /* \"#utility.yul\":6182:6241   */\n      tag_142\n        /* \"#utility.yul\":6237:6239   */\n      dup2\n        /* \"#utility.yul\":6226:6235   */\n      dup5\n        /* \"#utility.yul\":6222:6240   */\n      add\n        /* \"#utility.yul\":6214:6220   */\n      dup13\n        /* \"#utility.yul\":6182:6241   */\n      tag_127\n      jump\t// in\n    tag_142:\n        /* \"#utility.yul\":6168:6241   */\n      swap1\n      pop\n        /* \"#utility.yul\":6260:6262   */\n      0x20\n        /* \"#utility.yul\":6310:6319   */\n      dup4\n        /* \"#utility.yul\":6302:6308   */\n      dup3\n        /* \"#utility.yul\":6298:6320   */\n      sub\n        /* \"#utility.yul\":6293:6295   */\n      dup2\n        /* \"#utility.yul\":6282:6291   */\n      dup6\n        /* \"#utility.yul\":6278:6296   */\n      add\n        /* \"#utility.yul\":6271:6321   */\n      mstore\n        /* \"#utility.yul\":6341:6347   */\n      dup2\n        /* \"#utility.yul\":6376:6382   */\n      dup12\n        /* \"#utility.yul\":6370:6383   */\n      mload\n        /* \"#utility.yul\":6407:6413   */\n      dup1\n        /* \"#utility.yul\":6399:6405   */\n      dup5\n        /* \"#utility.yul\":6392:6414   */\n      mstore\n        /* \"#utility.yul\":6442:6444   */\n      dup3\n        /* \"#utility.yul\":6434:6440   */\n      dup5\n        /* \"#utility.yul\":6430:6445   */\n      add\n        /* \"#utility.yul\":6423:6445   */\n      swap2\n      pop\n        /* \"#utility.yul\":6480:6482   */\n      dup3\n        /* \"#utility.yul\":6472:6478   */\n      dup14\n        /* \"#utility.yul\":6468:6483   */\n      add\n        /* \"#utility.yul\":6454:6483   */\n      swap4\n      pop\n        /* \"#utility.yul\":6501:6505   */\n      dup5\n        /* \"#utility.yul\":6514:6694   */\n    tag_143:\n        /* \"#utility.yul\":6528:6534   */\n      dup2\n        /* \"#utility.yul\":6525:6526   */\n      dup2\n        /* \"#utility.yul\":6522:6535   */\n      lt\n        /* \"#utility.yul\":6514:6694   */\n      iszero\n      tag_145\n      jumpi\n        /* \"#utility.yul\":6593:6606   */\n      dup5\n      mload\n        /* \"#utility.yul\":6608:6612   */\n      0xff\n        /* \"#utility.yul\":6589:6613   */\n      and\n        /* \"#utility.yul\":6577:6614   */\n      dup4\n      mstore\n        /* \"#utility.yul\":6669:6684   */\n      swap4\n      dup4\n      add\n      swap4\n        /* \"#utility.yul\":6634:6646   */\n      swap2\n      dup4\n      add\n      swap2\n        /* \"#utility.yul\":6550:6551   */\n      0x01\n        /* \"#utility.yul\":6543:6552   */\n      add\n        /* \"#utility.yul\":6514:6694   */\n      jump(tag_143)\n    tag_145:\n        /* \"#utility.yul\":6518:6521   */\n      pop\n      pop\n        /* \"#utility.yul\":6739:6748   */\n      dup5\n        /* \"#utility.yul\":6734:6737   */\n      dup2\n        /* \"#utility.yul\":6730:6749   */\n      sub\n        /* \"#utility.yul\":6725:6727   */\n      0x40\n        /* \"#utility.yul\":6714:6723   */\n      dup7\n        /* \"#utility.yul\":6710:6728   */\n      add\n        /* \"#utility.yul\":6703:6750   */\n      mstore\n        /* \"#utility.yul\":6773:6805   */\n      tag_146\n        /* \"#utility.yul\":6801:6804   */\n      dup2\n        /* \"#utility.yul\":6793:6799   */\n      dup13\n        /* \"#utility.yul\":6773:6805   */\n      tag_132\n      jump\t// in\n    tag_146:\n        /* \"#utility.yul\":6759:6805   */\n      swap3\n      pop\n      pop\n      pop\n        /* \"#utility.yul\":6853:6862   */\n      dup3\n        /* \"#utility.yul\":6845:6851   */\n      dup2\n        /* \"#utility.yul\":6841:6863   */\n      sub\n        /* \"#utility.yul\":6836:6838   */\n      0x60\n        /* \"#utility.yul\":6825:6834   */\n      dup5\n        /* \"#utility.yul\":6821:6839   */\n      add\n        /* \"#utility.yul\":6814:6864   */\n      mstore\n        /* \"#utility.yul\":6881:6916   */\n      tag_147\n        /* \"#utility.yul\":6909:6915   */\n      dup2\n        /* \"#utility.yul\":6901:6907   */\n      dup10\n        /* \"#utility.yul\":6881:6916   */\n      tag_132\n      jump\t// in\n    tag_147:\n        /* \"#utility.yul\":6873:6916   */\n      swap2\n      pop\n      pop\n        /* \"#utility.yul\":6953:6959   */\n      dup6\n        /* \"#utility.yul\":6947:6950   */\n      0x80\n        /* \"#utility.yul\":6936:6945   */\n      dup4\n        /* \"#utility.yul\":6932:6951   */\n      add\n        /* \"#utility.yul\":6925:6960   */\n      mstore\n        /* \"#utility.yul\":6997:7003   */\n      dup5\n        /* \"#utility.yul\":6991:6994   */\n      0xa0\n        /* \"#utility.yul\":6980:6989   */\n      dup4\n        /* \"#utility.yul\":6976:6995   */\n      add\n        /* \"#utility.yul\":6969:7004   */\n      mstore\n        /* \"#utility.yul\":7041:7047   */\n      dup4\n        /* \"#utility.yul\":7035:7038   */\n      0xc0\n        /* \"#utility.yul\":7024:7033   */\n      dup4\n        /* \"#utility.yul\":7020:7039   */\n      add\n        /* \"#utility.yul\":7013:7048   */\n      mstore\n        /* \"#utility.yul\":7057:7106   */\n      tag_27\n        /* \"#utility.yul\":7101:7104   */\n      0xe0\n        /* \"#utility.yul\":7090:7099   */\n      dup4\n        /* \"#utility.yul\":7086:7105   */\n      add\n        /* \"#utility.yul\":7078:7084   */\n      dup5\n        /* \"#utility.yul\":7057:7106   */\n      tag_125\n      jump\t// in\n        /* \"#utility.yul\":7117:7519   */\n    tag_57:\n        /* \"#utility.yul\":7319:7321   */\n      0x20\n        /* \"#utility.yul\":7301:7322   */\n      dup1\n      dup3\n      mstore\n        /* \"#utility.yul\":7358:7360   */\n      0x26\n        /* \"#utility.yul\":7338:7356   */\n      swap1\n      dup3\n      add\n        /* \"#utility.yul\":7331:7361   */\n      mstore\n        /* \"#utility.yul\":7397:7431   */\n      0x4f776e61626c653a206e6577206f776e657220697320746865207a65726f2061\n        /* \"#utility.yul\":7392:7394   */\n      0x40\n        /* \"#utility.yul\":7377:7395   */\n      dup3\n      add\n        /* \"#utility.yul\":7370:7432   */\n      mstore\n      shl(0xd0, 0x646472657373)\n        /* \"#utility.yul\":7463:7465   */\n      0x60\n        /* \"#utility.yul\":7448:7466   */\n      dup3\n      add\n        /* \"#utility.yul\":7441:7477   */\n      mstore\n        /* \"#utility.yul\":7509:7512   */\n      0x80\n        /* \"#utility.yul\":7494:7513   */\n      add\n      swap1\n        /* \"#utility.yul\":7291:7519   */\n      jump\t// out\n        /* \"#utility.yul\":7524:7870   */\n    tag_73:\n        /* \"#utility.yul\":7726:7728   */\n      0x20\n        /* \"#utility.yul\":7708:7729   */\n      dup1\n      dup3\n      mstore\n        /* \"#utility.yul\":7765:7767   */\n      0x16\n        /* \"#utility.yul\":7745:7763   */\n      swap1\n      dup3\n      add\n        /* \"#utility.yul\":7738:7768   */\n      mstore\n      shl(0x52, 0x115490cc4c4d8dce8818dc99585d194819985a5b1959)\n        /* \"#utility.yul\":7799:7801   */\n      0x40\n        /* \"#utility.yul\":7784:7802   */\n      dup3\n      add\n        /* \"#utility.yul\":7777:7829   */\n      mstore\n        /* \"#utility.yul\":7861:7863   */\n      0x60\n        /* \"#utility.yul\":7846:7864   */\n      add\n      swap1\n        /* \"#utility.yul\":7698:7870   */\n      jump\t// out\n        /* \"#utility.yul\":7875:8231   */\n    tag_68:\n        /* \"#utility.yul\":8077:8079   */\n      0x20\n        /* \"#utility.yul\":8059:8080   */\n      dup1\n      dup3\n      mstore\n        /* \"#utility.yul\":8096:8114   */\n      dup2\n      dup2\n      add\n        /* \"#utility.yul\":8089:8119   */\n      mstore\n        /* \"#utility.yul\":8155:8189   */\n      0x4f776e61626c653a2063616c6c6572206973206e6f7420746865206f776e6572\n        /* \"#utility.yul\":8150:8152   */\n      0x40\n        /* \"#utility.yul\":8135:8153   */\n      dup3\n      add\n        /* \"#utility.yul\":8128:8190   */\n      mstore\n        /* \"#utility.yul\":8222:8224   */\n      0x60\n        /* \"#utility.yul\":8207:8225   */\n      add\n      swap1\n        /* \"#utility.yul\":8049:8231   */\n      jump\t// out\n        /* \"#utility.yul\":8236:8487   */\n    tag_86:\n        /* \"#utility.yul\":8306:8308   */\n      0x40\n        /* \"#utility.yul\":8300:8309   */\n      mload\n        /* \"#utility.yul\":8336:8353   */\n      dup2\n      dup2\n      add\n        /* \"#utility.yul\":8383:8401   */\n      0xffffffffffffffff\n        /* \"#utility.yul\":8368:8402   */\n      dup2\n      gt\n        /* \"#utility.yul\":8404:8426   */\n      dup3\n      dup3\n      lt\n        /* \"#utility.yul\":8365:8427   */\n      or\n        /* \"#utility.yul\":8362:8364   */\n      iszero\n      tag_154\n      jumpi\n        /* \"#utility.yul\":8430:8448   */\n      tag_154\n      tag_107\n      jump\t// in\n    tag_154:\n        /* \"#utility.yul\":8466:8468   */\n      0x40\n        /* \"#utility.yul\":8459:8481   */\n      mstore\n        /* \"#utility.yul\":8280:8487   */\n      swap2\n      swap1\n      pop\n      jump\t// out\n        /* \"#utility.yul\":8492:8681   */\n    tag_85:\n      0x00\n        /* \"#utility.yul\":8588:8606   */\n      0xffffffffffffffff\n        /* \"#utility.yul\":8580:8586   */\n      dup3\n        /* \"#utility.yul\":8577:8607   */\n      gt\n        /* \"#utility.yul\":8574:8576   */\n      iszero\n      tag_157\n      jumpi\n        /* \"#utility.yul\":8610:8628   */\n      tag_157\n      tag_107\n      jump\t// in\n    tag_157:\n      pop\n        /* \"#utility.yul\":8670:8674   */\n      0x20\n        /* \"#utility.yul\":8651:8668   */\n      swap1\n      dup2\n      mul\n        /* \"#utility.yul\":8647:8675   */\n      add\n      swap1\n        /* \"#utility.yul\":8564:8681   */\n      jump\t// out\n        /* \"#utility.yul\":8686:8813   */\n    tag_107:\n        /* \"#utility.yul\":8747:8757   */\n      0x4e487b71\n        /* \"#utility.yul\":8742:8745   */\n      0xe0\n        /* \"#utility.yul\":8738:8758   */\n      shl\n        /* \"#utility.yul\":8735:8736   */\n      0x00\n        /* \"#utility.yul\":8728:8759   */\n      mstore\n        /* \"#utility.yul\":8778:8782   */\n      0x41\n        /* \"#utility.yul\":8775:8776   */\n      0x04\n        /* \"#utility.yul\":8768:8783   */\n      mstore\n        /* \"#utility.yul\":8802:8806   */\n      0x24\n        /* \"#utility.yul\":8799:8800   */\n      0x00\n        /* \"#utility.yul\":8792:8807   */\n      revert\n        /* \"#utility.yul\":8818:8951   */\n    tag_79:\n      sub(shl(0xa0, 0x01), 0x01)\n        /* \"#utility.yul\":8895:8926   */\n      dup2\n      and\n        /* \"#utility.yul\":8885:8927   */\n      dup2\n      eq\n        /* \"#utility.yul\":8875:8877   */\n      tag_58\n      jumpi\n        /* \"#utility.yul\":8941:8942   */\n      0x00\n        /* \"#utility.yul\":8938:8939   */\n      dup1\n        /* \"#utility.yul\":8931:8943   */\n      revert\n\n    auxdata: 0xa264697066735822122012b07ad46abaee0a8ffc7449e44307629bb414caca51f27cebd870634ed4dee064736f6c63430008000033\n}\n",
				"bytecode": {
					"linkReferences": {},
					"object": "608060405234801561001057600080fd5b5061002161001c610026565b61002a565b61007a565b3390565b600080546001600160a01b038381166001600160a01b0319831681178455604051919092169283917f8be0079c531659141344cd1fd0a4f28419497f9722a3daafe3b4186f6b6457e09190a35050565b6108ee806100896000396000f3fe608060405234801561001057600080fd5b50600436106100575760003560e01c80630e64a45e1461005c578063715018a6146100855780638124b78e1461008f5780638da5cb5b146100a2578063f2fde38b146100aa575b600080fd5b61006f61006a366004610536565b6100bd565b60405161007c91906106b8565b60405180910390f35b61008d6101f0565b005b61006f61009d366004610513565b610204565b61006f61025b565b61008d6100b8366004610513565b61026a565b6000806100c98b6102ad565b604051632ca32db760e21b81529091506001600160a01b0382169063b28cb6dc90610106908d908d908d908d908d908d908d908d906004016106f8565b600060405180830381600087803b15801561012057600080fd5b505af1158015610134573d6000803e3d6000fd5b50505050806001600160a01b031663f2fde38b61014f61025b565b6040518263ffffffff1660e01b815260040161016b91906106b8565b600060405180830381600087803b15801561018557600080fd5b505af1158015610199573d6000803e3d6000fd5b50505050336001600160a01b03167f0838512b7934222cec571cf3fde1cf3e9e864bbc431bd5d1ef4d9ed3079093d9828c6040516101d89291906106cc565b60405180910390a290505b9998505050505050505050565b6101f86102be565b61020260006102fd565b565b600080610210836102ad565b9050826001600160a01b03167f3bf919a220a0f12ddcaf77fd06ffa4b9c728617774936f0d78b452010319c8248260405161024b91906106b8565b60405180910390a290505b919050565b6000546001600160a01b031690565b6102726102be565b6001600160a01b0381166102a15760405162461bcd60e51b815260040161029890610794565b60405180910390fd5b6102aa816102fd565b50565b60006102b88261034d565b92915050565b6102c66103bc565b6001600160a01b03166102d761025b565b6001600160a01b0316146102025760405162461bcd60e51b81526004016102989061080a565b600080546001600160a01b038381166001600160a01b0319831681178455604051919092169283917f8be0079c531659141344cd1fd0a4f28419497f9722a3daafe3b4186f6b6457e09190a35050565b6000604051733d602d80600a3d3981f3363d3d373d3d3d363d7360601b81528260601b60148201526e5af43d82803e903d91602b57fd5bf360881b60288201526037816000f09150506001600160a01b0381166102565760405162461bcd60e51b8152600401610298906107da565b3390565b8035610256816108a3565b600082601f8301126103db578081fd5b813560206103f06103eb83610869565b61083f565b828152818101908583018385028701840188101561040c578586fd5b855b85811015610433578135610421816108a3565b8452928401929084019060010161040e565b5090979650505050505050565b600082601f830112610450578081fd5b813560206104606103eb83610869565b828152818101908583018385028701840188101561047c578586fd5b855b8581101561043357813560ff81168114610496578788fd5b8452928401929084019060010161047e565b600082601f8301126104b8578081fd5b813567ffffffffffffffff8111156104d2576104d261088d565b6104e5601f8201601f191660200161083f565b8181528460208386010111156104f9578283fd5b816020850160208301379081016020019190915292915050565b600060208284031215610524578081fd5b813561052f816108a3565b9392505050565b60008060008060008060008060006101208a8c031215610554578485fd5b61055d8a6103c0565b985060208a013567ffffffffffffffff80821115610579578687fd5b6105858d838e016103cb565b995060408c013591508082111561059a578687fd5b6105a68d838e01610440565b985060608c01359150808211156105bb578687fd5b6105c78d838e016104a8565b975060808c01359150808211156105dc578687fd5b506105e98c828d016104a8565b95505060a08a0135935060c08a0135925060e08a0135915061060e6101008b016103c0565b90509295985092959850929598565b6001600160a01b03169052565b6000815180845260208085019450808401835b838110156106625781516001600160a01b03168752958201959082019060010161063d565b509495945050505050565b60008151808452815b8181101561069257602081850181015186830182015201610676565b818111156106a35782602083870101525b50601f01601f19169290920160200192915050565b6001600160a01b0391909116815260200190565b6001600160a01b03831681526040602082018190526000906106f09083018461062a565b949350505050565b600061010080835261070c8184018c61062a565b9050602083820381850152818b518084528284019150828d019350845b8181101561074857845160ff1683529383019391830191600101610729565b5050848103604086015261075c818c61066d565b925050508281036060840152610772818961066d565b9150508560808301528460a08301528360c08301526101e360e083018461061d565b60208082526026908201527f4f776e61626c653a206e6577206f776e657220697320746865207a65726f206160408201526564647265737360d01b606082015260800190565b602080825260169082015275115490cc4c4d8dce8818dc99585d194819985a5b195960521b604082015260600190565b6020808252818101527f4f776e61626c653a2063616c6c6572206973206e6f7420746865206f776e6572604082015260600190565b60405181810167ffffffffffffffff811182821017156108615761086161088d565b604052919050565b600067ffffffffffffffff8211156108835761088361088d565b5060209081020190565b634e487b7160e01b600052604160045260246000fd5b6001600160a01b03811681146102aa57600080fdfea264697066735822122012b07ad46abaee0a8ffc7449e44307629bb414caca51f27cebd870634ed4dee064736f6c63430008000033",
					"opcodes": "PUSH1 0x80 PUSH1 0x40 MSTORE CALLVALUE DUP1 ISZERO PUSH2 0x10 JUMPI PUSH1 0x0 DUP1 REVERT JUMPDEST POP PUSH2 0x21 PUSH2 0x1C PUSH2 0x26 JUMP JUMPDEST PUSH2 0x2A JUMP JUMPDEST PUSH2 0x7A JUMP JUMPDEST CALLER SWAP1 JUMP JUMPDEST PUSH1 0x0 DUP1 SLOAD PUSH1 0x1 PUSH1 0x1 PUSH1 0xA0 SHL SUB DUP4 DUP2 AND PUSH1 0x1 PUSH1 0x1 PUSH1 0xA0 SHL SUB NOT DUP4 AND DUP2 OR DUP5 SSTORE PUSH1 0x40 MLOAD SWAP2 SWAP1 SWAP3 AND SWAP3 DUP4 SWAP2 PUSH32 0x8BE0079C531659141344CD1FD0A4F28419497F9722A3DAAFE3B4186F6B6457E0 SWAP2 SWAP1 LOG3 POP POP JUMP JUMPDEST PUSH2 0x8EE DUP1 PUSH2 0x89 PUSH1 0x0 CODECOPY PUSH1 0x0 RETURN INVALID PUSH1 0x80 PUSH1 0x40 MSTORE CALLVALUE DUP1 ISZERO PUSH2 0x10 JUMPI PUSH1 0x0 DUP1 REVERT JUMPDEST POP PUSH1 0x4 CALLDATASIZE LT PUSH2 0x57 JUMPI PUSH1 0x0 CALLDATALOAD PUSH1 0xE0 SHR DUP1 PUSH4 0xE64A45E EQ PUSH2 0x5C JUMPI DUP1 PUSH4 0x715018A6 EQ PUSH2 0x85 JUMPI DUP1 PUSH4 0x8124B78E EQ PUSH2 0x8F JUMPI DUP1 PUSH4 0x8DA5CB5B EQ PUSH2 0xA2 JUMPI DUP1 PUSH4 0xF2FDE38B EQ PUSH2 0xAA JUMPI JUMPDEST PUSH1 0x0 DUP1 REVERT JUMPDEST PUSH2 0x6F PUSH2 0x6A CALLDATASIZE PUSH1 0x4 PUSH2 0x536 JUMP JUMPDEST PUSH2 0xBD JUMP JUMPDEST PUSH1 0x40 MLOAD PUSH2 0x7C SWAP2 SWAP1 PUSH2 0x6B8 JUMP JUMPDEST PUSH1 0x40 MLOAD DUP1 SWAP2 SUB SWAP1 RETURN JUMPDEST PUSH2 0x8D PUSH2 0x1F0 JUMP JUMPDEST STOP JUMPDEST PUSH2 0x6F PUSH2 0x9D CALLDATASIZE PUSH1 0x4 PUSH2 0x513 JUMP JUMPDEST PUSH2 0x204 JUMP JUMPDEST PUSH2 0x6F PUSH2 0x25B JUMP JUMPDEST PUSH2 0x8D PUSH2 0xB8 CALLDATASIZE PUSH1 0x4 PUSH2 0x513 JUMP JUMPDEST PUSH2 0x26A JUMP JUMPDEST PUSH1 0x0 DUP1 PUSH2 0xC9 DUP12 PUSH2 0x2AD JUMP JUMPDEST PUSH1 0x40 MLOAD PUSH4 0x2CA32DB7 PUSH1 0xE2 SHL DUP2 MSTORE SWAP1 SWAP2 POP PUSH1 0x1 PUSH1 0x1 PUSH1 0xA0 SHL SUB DUP3 AND SWAP1 PUSH4 0xB28CB6DC SWAP1 PUSH2 0x106 SWAP1 DUP14 SWAP1 DUP14 SWAP1 DUP14 SWAP1 DUP14 SWAP1 DUP14 SWAP1 DUP14 SWAP1 DUP14 SWAP1 DUP14 SWAP1 PUSH1 0x4 ADD PUSH2 0x6F8 JUMP JUMPDEST PUSH1 0x0 PUSH1 0x40 MLOAD DUP1 DUP4 SUB DUP2 PUSH1 0x0 DUP8 DUP1 EXTCODESIZE ISZERO DUP1 ISZERO PUSH2 0x120 JUMPI PUSH1 0x0 DUP1 REVERT JUMPDEST POP GAS CALL ISZERO DUP1 ISZERO PUSH2 0x134 JUMPI RETURNDATASIZE PUSH1 0x0 DUP1 RETURNDATACOPY RETURNDATASIZE PUSH1 0x0 REVERT JUMPDEST POP POP POP POP DUP1 PUSH1 0x1 PUSH1 0x1 PUSH1 0xA0 SHL SUB AND PUSH4 0xF2FDE38B PUSH2 0x14F PUSH2 0x25B JUMP JUMPDEST PUSH1 0x40 MLOAD DUP3 PUSH4 0xFFFFFFFF AND PUSH1 0xE0 SHL DUP2 MSTORE PUSH1 0x4 ADD PUSH2 0x16B SWAP2 SWAP1 PUSH2 0x6B8 JUMP JUMPDEST PUSH1 0x0 PUSH1 0x40 MLOAD DUP1 DUP4 SUB DUP2 PUSH1 0x0 DUP8 DUP1 EXTCODESIZE ISZERO DUP1 ISZERO PUSH2 0x185 JUMPI PUSH1 0x0 DUP1 REVERT JUMPDEST POP GAS CALL ISZERO DUP1 ISZERO PUSH2 0x199 JUMPI RETURNDATASIZE PUSH1 0x0 DUP1 RETURNDATACOPY RETURNDATASIZE PUSH1 0x0 REVERT JUMPDEST POP POP POP POP CALLER PUSH1 0x1 PUSH1 0x1 PUSH1 0xA0 SHL SUB AND PUSH32 0x838512B7934222CEC571CF3FDE1CF3E9E864BBC431BD5D1EF4D9ED3079093D9 DUP3 DUP13 PUSH1 0x40 MLOAD PUSH2 0x1D8 SWAP3 SWAP2 SWAP1 PUSH2 0x6CC JUMP JUMPDEST PUSH1 0x40 MLOAD DUP1 SWAP2 SUB SWAP1 LOG2 SWAP1 POP JUMPDEST SWAP10 SWAP9 POP POP POP POP POP POP POP POP POP JUMP JUMPDEST PUSH2 0x1F8 PUSH2 0x2BE JUMP JUMPDEST PUSH2 0x202 PUSH1 0x0 PUSH2 0x2FD JUMP JUMPDEST JUMP JUMPDEST PUSH1 0x0 DUP1 PUSH2 0x210 DUP4 PUSH2 0x2AD JUMP JUMPDEST SWAP1 POP DUP3 PUSH1 0x1 PUSH1 0x1 PUSH1 0xA0 SHL SUB AND PUSH32 0x3BF919A220A0F12DDCAF77FD06FFA4B9C728617774936F0D78B452010319C824 DUP3 PUSH1 0x40 MLOAD PUSH2 0x24B SWAP2 SWAP1 PUSH2 0x6B8 JUMP JUMPDEST PUSH1 0x40 MLOAD DUP1 SWAP2 SUB SWAP1 LOG2 SWAP1 POP JUMPDEST SWAP2 SWAP1 POP JUMP JUMPDEST PUSH1 0x0 SLOAD PUSH1 0x1 PUSH1 0x1 PUSH1 0xA0 SHL SUB AND SWAP1 JUMP JUMPDEST PUSH2 0x272 PUSH2 0x2BE JUMP JUMPDEST PUSH1 0x1 PUSH1 0x1 PUSH1 0xA0 SHL SUB DUP2 AND PUSH2 0x2A1 JUMPI PUSH1 0x40 MLOAD PUSH3 0x461BCD PUSH1 0xE5 SHL DUP2 MSTORE PUSH1 0x4 ADD PUSH2 0x298 SWAP1 PUSH2 0x794 JUMP JUMPDEST PUSH1 0x40 MLOAD DUP1 SWAP2 SUB SWAP1 REVERT JUMPDEST PUSH2 0x2AA DUP2 PUSH2 0x2FD JUMP JUMPDEST POP JUMP JUMPDEST PUSH1 0x0 PUSH2 0x2B8 DUP3 PUSH2 0x34D JUMP JUMPDEST SWAP3 SWAP2 POP POP JUMP JUMPDEST PUSH2 0x2C6 PUSH2 0x3BC JUMP JUMPDEST PUSH1 0x1 PUSH1 0x1 PUSH1 0xA0 SHL SUB AND PUSH2 0x2D7 PUSH2 0x25B JUMP JUMPDEST PUSH1 0x1 PUSH1 0x1 PUSH1 0xA0 SHL SUB AND EQ PUSH2 0x202 JUMPI PUSH1 0x40 MLOAD PUSH3 0x461BCD PUSH1 0xE5 SHL DUP2 MSTORE PUSH1 0x4 ADD PUSH2 0x298 SWAP1 PUSH2 0x80A JUMP JUMPDEST PUSH1 0x0 DUP1 SLOAD PUSH1 0x1 PUSH1 0x1 PUSH1 0xA0 SHL SUB DUP4 DUP2 AND PUSH1 0x1 PUSH1 0x1 PUSH1 0xA0 SHL SUB NOT DUP4 AND DUP2 OR DUP5 SSTORE PUSH1 0x40 MLOAD SWAP2 SWAP1 SWAP3 AND SWAP3 DUP4 SWAP2 PUSH32 0x8BE0079C531659141344CD1FD0A4F28419497F9722A3DAAFE3B4186F6B6457E0 SWAP2 SWAP1 LOG3 POP POP JUMP JUMPDEST PUSH1 0x0 PUSH1 0x40 MLOAD PUSH20 0x3D602D80600A3D3981F3363D3D373D3D3D363D73 PUSH1 0x60 SHL DUP2 MSTORE DUP3 PUSH1 0x60 SHL PUSH1 0x14 DUP3 ADD MSTORE PUSH15 0x5AF43D82803E903D91602B57FD5BF3 PUSH1 0x88 SHL PUSH1 0x28 DUP3 ADD MSTORE PUSH1 0x37 DUP2 PUSH1 0x0 CREATE SWAP2 POP POP PUSH1 0x1 PUSH1 0x1 PUSH1 0xA0 SHL SUB DUP2 AND PUSH2 0x256 JUMPI PUSH1 0x40 MLOAD PUSH3 0x461BCD PUSH1 0xE5 SHL DUP2 MSTORE PUSH1 0x4 ADD PUSH2 0x298 SWAP1 PUSH2 0x7DA JUMP JUMPDEST CALLER SWAP1 JUMP JUMPDEST DUP1 CALLDATALOAD PUSH2 0x256 DUP2 PUSH2 0x8A3 JUMP JUMPDEST PUSH1 0x0 DUP3 PUSH1 0x1F DUP4 ADD SLT PUSH2 0x3DB JUMPI DUP1 DUP2 REVERT JUMPDEST DUP2 CALLDATALOAD PUSH1 0x20 PUSH2 0x3F0 PUSH2 0x3EB DUP4 PUSH2 0x869 JUMP JUMPDEST PUSH2 0x83F JUMP JUMPDEST DUP3 DUP2 MSTORE DUP2 DUP2 ADD SWAP1 DUP6 DUP4 ADD DUP4 DUP6 MUL DUP8 ADD DUP5 ADD DUP9 LT ISZERO PUSH2 0x40C JUMPI DUP6 DUP7 REVERT JUMPDEST DUP6 JUMPDEST DUP6 DUP2 LT ISZERO PUSH2 0x433 JUMPI DUP2 CALLDATALOAD PUSH2 0x421 DUP2 PUSH2 0x8A3 JUMP JUMPDEST DUP5 MSTORE SWAP3 DUP5 ADD SWAP3 SWAP1 DUP5 ADD SWAP1 PUSH1 0x1 ADD PUSH2 0x40E JUMP JUMPDEST POP SWAP1 SWAP8 SWAP7 POP POP POP POP POP POP POP JUMP JUMPDEST PUSH1 0x0 DUP3 PUSH1 0x1F DUP4 ADD SLT PUSH2 0x450 JUMPI DUP1 DUP2 REVERT JUMPDEST DUP2 CALLDATALOAD PUSH1 0x20 PUSH2 0x460 PUSH2 0x3EB DUP4 PUSH2 0x869 JUMP JUMPDEST DUP3 DUP2 MSTORE DUP2 DUP2 ADD SWAP1 DUP6 DUP4 ADD DUP4 DUP6 MUL DUP8 ADD DUP5 ADD DUP9 LT ISZERO PUSH2 0x47C JUMPI DUP6 DUP7 REVERT JUMPDEST DUP6 JUMPDEST DUP6 DUP2 LT ISZERO PUSH2 0x433 JUMPI DUP2 CALLDATALOAD PUSH1 0xFF DUP2 AND DUP2 EQ PUSH2 0x496 JUMPI DUP8 DUP9 REVERT JUMPDEST DUP5 MSTORE SWAP3 DUP5 ADD SWAP3 SWAP1 DUP5 ADD SWAP1 PUSH1 0x1 ADD PUSH2 0x47E JUMP JUMPDEST PUSH1 0x0 DUP3 PUSH1 0x1F DUP4 ADD SLT PUSH2 0x4B8 JUMPI DUP1 DUP2 REVERT JUMPDEST DUP2 CALLDATALOAD PUSH8 0xFFFFFFFFFFFFFFFF DUP2 GT ISZERO PUSH2 0x4D2 JUMPI PUSH2 0x4D2 PUSH2 0x88D JUMP JUMPDEST PUSH2 0x4E5 PUSH1 0x1F DUP3 ADD PUSH1 0x1F NOT AND PUSH1 0x20 ADD PUSH2 0x83F JUMP JUMPDEST DUP2 DUP2 MSTORE DUP5 PUSH1 0x20 DUP4 DUP7 ADD ADD GT ISZERO PUSH2 0x4F9 JUMPI DUP3 DUP4 REVERT JUMPDEST DUP2 PUSH1 0x20 DUP6 ADD PUSH1 0x20 DUP4 ADD CALLDATACOPY SWAP1 DUP2 ADD PUSH1 0x20 ADD SWAP2 SWAP1 SWAP2 MSTORE SWAP3 SWAP2 POP POP JUMP JUMPDEST PUSH1 0x0 PUSH1 0x20 DUP3 DUP5 SUB SLT ISZERO PUSH2 0x524 JUMPI DUP1 DUP2 REVERT JUMPDEST DUP2 CALLDATALOAD PUSH2 0x52F DUP2 PUSH2 0x8A3 JUMP JUMPDEST SWAP4 SWAP3 POP POP POP JUMP JUMPDEST PUSH1 0x0 DUP1 PUSH1 0x0 DUP1 PUSH1 0x0 DUP1 PUSH1 0x0 DUP1 PUSH1 0x0 PUSH2 0x120 DUP11 DUP13 SUB SLT ISZERO PUSH2 0x554 JUMPI DUP5 DUP6 REVERT JUMPDEST PUSH2 0x55D DUP11 PUSH2 0x3C0 JUMP JUMPDEST SWAP9 POP PUSH1 0x20 DUP11 ADD CALLDATALOAD PUSH8 0xFFFFFFFFFFFFFFFF DUP1 DUP3 GT ISZERO PUSH2 0x579 JUMPI DUP7 DUP8 REVERT JUMPDEST PUSH2 0x585 DUP14 DUP4 DUP15 ADD PUSH2 0x3CB JUMP JUMPDEST SWAP10 POP PUSH1 0x40 DUP13 ADD CALLDATALOAD SWAP2 POP DUP1 DUP3 GT ISZERO PUSH2 0x59A JUMPI DUP7 DUP8 REVERT JUMPDEST PUSH2 0x5A6 DUP14 DUP4 DUP15 ADD PUSH2 0x440 JUMP JUMPDEST SWAP9 POP PUSH1 0x60 DUP13 ADD CALLDATALOAD SWAP2 POP DUP1 DUP3 GT ISZERO PUSH2 0x5BB JUMPI DUP7 DUP8 REVERT JUMPDEST PUSH2 0x5C7 DUP14 DUP4 DUP15 ADD PUSH2 0x4A8 JUMP JUMPDEST SWAP8 POP PUSH1 0x80 DUP13 ADD CALLDATALOAD SWAP2 POP DUP1 DUP3 GT ISZERO PUSH2 0x5DC JUMPI DUP7 DUP8 REVERT JUMPDEST POP PUSH2 0x5E9 DUP13 DUP3 DUP14 ADD PUSH2 0x4A8 JUMP JUMPDEST SWAP6 POP POP PUSH1 0xA0 DUP11 ADD CALLDATALOAD SWAP4 POP PUSH1 0xC0 DUP11 ADD CALLDATALOAD SWAP3 POP PUSH1 0xE0 DUP11 ADD CALLDATALOAD SWAP2 POP PUSH2 0x60E PUSH2 0x100 DUP12 ADD PUSH2 0x3C0 JUMP JUMPDEST SWAP1 POP SWAP3 SWAP6 SWAP9 POP SWAP3 SWAP6 SWAP9 POP SWAP3 SWAP6 SWAP9 JUMP JUMPDEST PUSH1 0x1 PUSH1 0x1 PUSH1 0xA0 SHL SUB AND SWAP1 MSTORE JUMP JUMPDEST PUSH1 0x0 DUP2 MLOAD DUP1 DUP5 MSTORE PUSH1 0x20 DUP1 DUP6 ADD SWAP5 POP DUP1 DUP5 ADD DUP4 JUMPDEST DUP4 DUP2 LT ISZERO PUSH2 0x662 JUMPI DUP2 MLOAD PUSH1 0x1 PUSH1 0x1 PUSH1 0xA0 SHL SUB AND DUP8 MSTORE SWAP6 DUP3 ADD SWAP6 SWAP1 DUP3 ADD SWAP1 PUSH1 0x1 ADD PUSH2 0x63D JUMP JUMPDEST POP SWAP5 SWAP6 SWAP5 POP POP POP POP POP JUMP JUMPDEST PUSH1 0x0 DUP2 MLOAD DUP1 DUP5 MSTORE DUP2 JUMPDEST DUP2 DUP2 LT ISZERO PUSH2 0x692 JUMPI PUSH1 0x20 DUP2 DUP6 ADD DUP2 ADD MLOAD DUP7 DUP4 ADD DUP3 ADD MSTORE ADD PUSH2 0x676 JUMP JUMPDEST DUP2 DUP2 GT ISZERO PUSH2 0x6A3 JUMPI DUP3 PUSH1 0x20 DUP4 DUP8 ADD ADD MSTORE JUMPDEST POP PUSH1 0x1F ADD PUSH1 0x1F NOT AND SWAP3 SWAP1 SWAP3 ADD PUSH1 0x20 ADD SWAP3 SWAP2 POP POP JUMP JUMPDEST PUSH1 0x1 PUSH1 0x1 PUSH1 0xA0 SHL SUB SWAP2 SWAP1 SWAP2 AND DUP2 MSTORE PUSH1 0x20 ADD SWAP1 JUMP JUMPDEST PUSH1 0x1 PUSH1 0x1 PUSH1 0xA0 SHL SUB DUP4 AND DUP2 MSTORE PUSH1 0x40 PUSH1 0x20 DUP3 ADD DUP2 SWAP1 MSTORE PUSH1 0x0 SWAP1 PUSH2 0x6F0 SWAP1 DUP4 ADD DUP5 PUSH2 0x62A JUMP JUMPDEST SWAP5 SWAP4 POP POP POP POP JUMP JUMPDEST PUSH1 0x0 PUSH2 0x100 DUP1 DUP4 MSTORE PUSH2 0x70C DUP2 DUP5 ADD DUP13 PUSH2 0x62A JUMP JUMPDEST SWAP1 POP PUSH1 0x20 DUP4 DUP3 SUB DUP2 DUP6 ADD MSTORE DUP2 DUP12 MLOAD DUP1 DUP5 MSTORE DUP3 DUP5 ADD SWAP2 POP DUP3 DUP14 ADD SWAP4 POP DUP5 JUMPDEST DUP2 DUP2 LT ISZERO PUSH2 0x748 JUMPI DUP5 MLOAD PUSH1 0xFF AND DUP4 MSTORE SWAP4 DUP4 ADD SWAP4 SWAP2 DUP4 ADD SWAP2 PUSH1 0x1 ADD PUSH2 0x729 JUMP JUMPDEST POP POP DUP5 DUP2 SUB PUSH1 0x40 DUP7 ADD MSTORE PUSH2 0x75C DUP2 DUP13 PUSH2 0x66D JUMP JUMPDEST SWAP3 POP POP POP DUP3 DUP2 SUB PUSH1 0x60 DUP5 ADD MSTORE PUSH2 0x772 DUP2 DUP10 PUSH2 0x66D JUMP JUMPDEST SWAP2 POP POP DUP6 PUSH1 0x80 DUP4 ADD MSTORE DUP5 PUSH1 0xA0 DUP4 ADD MSTORE DUP4 PUSH1 0xC0 DUP4 ADD MSTORE PUSH2 0x1E3 PUSH1 0xE0 DUP4 ADD DUP5 PUSH2 0x61D JUMP JUMPDEST PUSH1 0x20 DUP1 DUP3 MSTORE PUSH1 0x26 SWAP1 DUP3 ADD MSTORE PUSH32 0x4F776E61626C653A206E6577206F776E657220697320746865207A65726F2061 PUSH1 0x40 DUP3 ADD MSTORE PUSH6 0x646472657373 PUSH1 0xD0 SHL PUSH1 0x60 DUP3 ADD MSTORE PUSH1 0x80 ADD SWAP1 JUMP JUMPDEST PUSH1 0x20 DUP1 DUP3 MSTORE PUSH1 0x16 SWAP1 DUP3 ADD MSTORE PUSH22 0x115490CC4C4D8DCE8818DC99585D194819985A5B1959 PUSH1 0x52 SHL PUSH1 0x40 DUP3 ADD MSTORE PUSH1 0x60 ADD SWAP1 JUMP JUMPDEST PUSH1 0x20 DUP1 DUP3 MSTORE DUP2 DUP2 ADD MSTORE PUSH32 0x4F776E61626C653A2063616C6C6572206973206E6F7420746865206F776E6572 PUSH1 0x40 DUP3 ADD MSTORE PUSH1 0x60 ADD SWAP1 JUMP JUMPDEST PUSH1 0x40 MLOAD DUP2 DUP2 ADD PUSH8 0xFFFFFFFFFFFFFFFF DUP2 GT DUP3 DUP3 LT OR ISZERO PUSH2 0x861 JUMPI PUSH2 0x861 PUSH2 0x88D JUMP JUMPDEST PUSH1 0x40 MSTORE SWAP2 SWAP1 POP JUMP JUMPDEST PUSH1 0x0 PUSH8 0xFFFFFFFFFFFFFFFF DUP3 GT ISZERO PUSH2 0x883 JUMPI PUSH2 0x883 PUSH2 0x88D JUMP JUMPDEST POP PUSH1 0x20 SWAP1 DUP2 MUL ADD SWAP1 JUMP JUMPDEST PUSH4 0x4E487B71 PUSH1 0xE0 SHL PUSH1 0x0 MSTORE PUSH1 0x41 PUSH1 0x4 MSTORE PUSH1 0x24 PUSH1 0x0 REVERT JUMPDEST PUSH1 0x1 PUSH1 0x1 PUSH1 0xA0 SHL SUB DUP2 AND DUP2 EQ PUSH2 0x2AA JUMPI PUSH1 0x0 DUP1 REVERT INVALID LOG2 PUSH5 0x6970667358 0x22 SLT KECCAK256 SLT 0xB0 PUSH27 0xD46ABAEE0A8FFC7449E44307629BB414CACA51F27CEBD870634ED4 0xDE 0xE0 PUSH5 0x736F6C6343 STOP ADDMOD STOP STOP CALLER "
				},
				"gasEstimates": {
					"creation": {
						"codeDepositCost": "457200",
						"executionCost": "22961",
						"totalCost": "480161"
					},
					"external": {
						"clone(address)": "infinite",
						"deploy(address,address[],uint8[],string,string,uint256,uint256,uint256,address)": "infinite",
						"owner()": "1114",
						"renounceOwnership()": "infinite",
						"transferOwnership(address)": "infinite"
					},
					"internal": {
						"_clone(address)": "infinite"
					}
				},
				"methodIdentifiers": {
					"clone(address)": "8124b78e",
					"deploy(address,address[],uint8[],string,string,uint256,uint256,uint256,address)": "0e64a45e",
					"owner()": "8da5cb5b",
					"renounceOwnership()": "715018a6",
					"transferOwnership(address)": "f2fde38b"
				}
			},
			"storageLayout": {
				"storage": [
					{
						"astId": 25,
						"contract": "src/SwapDeployer.sol:SwapDeployer",
						"label": "_owner",
						"offset": 0,
						"slot": "0",
						"type": "t_address"
					}
				],
				"types": {
					"t_address": {
						"encoding": "inplace",
						"label": "address",
						"numberOfBytes": "20"
					}
				}
			},
			"userdoc": {
				"kind": "user",
				"methods": {},
				"version": 1
			}
		}
	}
}