{
	"data": {
		"bytecode": {
			"linkReferences": {},
			"object": "6107dc61003a600b82828239805160001a60731461002d57634e487b7160e01b600052600060045260246000fd5b30600052607381538281f3fe730000000000000000000000000000000000000000301460806040526004361061006c5760003560e01c8063396984151461007157806358fdd79b1461008f578063b0a14cfc146100b1578063c9b64dcb146100c4578063d011f918146100d7578063f14e211e146100df575b600080fd5b6100796100ff565b60405161008691906106f0565b60405180910390f35b81801561009b57600080fd5b506100af6100aa3660046104ae565b610106565b005b6100796100bf366004610496565b610273565b6100796100d2366004610496565b610291565b61007961029c565b8180156100eb57600080fd5b506100af6100fa366004610496565b6102a1565b620f424081565b60028301546101189062015180610327565b4210156101405760405162461bcd60e51b815260040161013790610510565b60405180910390fd5b61014d4262093a80610327565b81101561016c5760405162461bcd60e51b8152600401610137906105ad565b60008211801561017e5750620f424082105b61019a5760405162461bcd60e51b8152600401610137906106bb565b60006101a58461035f565b905060006101b48460646103fa565b9050818110156101ed57816101ca8260026103fa565b10156101e85760405162461bcd60e51b81526004016101379061064b565b610217565b6101f88260026103fa565b8111156102175760405162461bcd60e51b815260040161013790610547565b818555600185018190554260028601819055600386018490556040517fa2b71ec6df949300b59aab36b55e189697b750119dd349fcfa8c0f779e83c2549161026491859185918890610707565b60405180910390a15050505050565b600061028960646102838461035f565b9061043f565b90505b919050565b60006102898261035f565b606481565b428160030154116102c45760405162461bcd60e51b8152600401610137906104d9565b60006102cf8261035f565b808355600183018190554260028401819055600384018190556040519192507f46e22fb3709ad289f62ce63d469248536dbc78d82b84a3d7e74ad606dc2019389161031b9184916106f9565b60405180910390a15050565b6000806103348385610722565b9050838110156103565760405162461bcd60e51b815260040161013790610576565b90505b92915050565b6003810154600182015460009190428211156103f15760028401548454808311156103c3576103b86103b1610394868561046a565b6102836103a1428761046a565b6103ab888761046a565b906103fa565b8290610327565b94505050505061028c565b6103b86103ea6103d3868561046a565b6102836103e0428761046a565b6103ab868961046a565b829061046a565b915061028c9050565b60008261040957506000610359565b6000610415838561075a565b905082610422858361073a565b146103565760405162461bcd60e51b81526004016101379061067a565b60008082116104605760405162461bcd60e51b815260040161013790610614565b610356828461073a565b60008282111561048c5760405162461bcd60e51b8152600401610137906105dd565b6103568284610779565b6000602082840312156104a7578081fd5b5035919050565b6000806000606084860312156104c2578182fd5b505081359360208301359350604090920135919050565b60208082526017908201527f52616d7020697320616c72656164792073746f70706564000000000000000000604082015260600190565b6020808252601f908201527f57616974203120646179206265666f7265207374617274696e672072616d7000604082015260600190565b602080825260159082015274667574757265415f20697320746f6f206c6172676560581b604082015260600190565b6020808252601b908201527f536166654d6174683a206164646974696f6e206f766572666c6f770000000000604082015260600190565b602080825260169082015275496e73756666696369656e742072616d702074696d6560501b604082015260600190565b6020808252601e908201527f536166654d6174683a207375627472616374696f6e206f766572666c6f770000604082015260600190565b6020808252601a908201527f536166654d6174683a206469766973696f6e206279207a65726f000000000000604082015260600190565b602080825260159082015274199d5d1d5c995057c81a5cc81d1bdbc81cdb585b1b605a1b604082015260600190565b60208082526021908201527f536166654d6174683a206d756c7469706c69636174696f6e206f766572666c6f6040820152607760f81b606082015260800190565b6020808252818101527f667574757265415f206d757374206265203e203020616e64203c204d41585f41604082015260600190565b90815260200190565b918252602082015260400190565b93845260208401929092526040830152606082015260800190565b6000821982111561073557610735610790565b500190565b60008261075557634e487b7160e01b81526012600452602481fd5b500490565b600081600019048311821515161561077457610774610790565b500290565b60008282101561078b5761078b610790565b500390565b634e487b7160e01b600052601160045260246000fdfea2646970667358221220bb173fd96af8600075cb2ea46cbeedbf2dcbd39734a2d5ea5116fd83fb88f5b564736f6c63430008000033",
			"opcodes": "PUSH2 0x7DC PUSH2 0x3A PUSH1 0xB DUP3 DUP3 DUP3 CODECOPY DUP1 MLOAD PUSH1 0x0 BYTE PUSH1 0x73 EQ PUSH2 0x2D JUMPI PUSH4 0x4E487B71 PUSH1 0xE0 SHL PUSH1 0x0 MSTORE PUSH1 0x0 PUSH1 0x4 MSTORE PUSH1 0x24 PUSH1 0x0 REVERT JUMPDEST ADDRESS PUSH1 0x0 MSTORE PUSH1 0x73 DUP2 MSTORE8 DUP3 DUP2 RETURN INVALID PUSH20 0x0 ADDRESS EQ PUSH1 0x80 PUSH1 0x40 MSTORE PUSH1 0x4 CALLDATASIZE LT PUSH2 0x6C JUMPI PUSH1 0x0 CALLDATALOAD PUSH1 0xE0 SHR DUP1 PUSH4 0x39698415 EQ PUSH2 0x71 JUMPI DUP1 PUSH4 0x58FDD79B EQ PUSH2 0x8F JUMPI DUP1 PUSH4 0xB0A14CFC EQ PUSH2 0xB1 JUMPI DUP1 PUSH4 0xC9B64DCB EQ PUSH2 0xC4 JUMPI DUP1 PUSH4 0xD011F918 EQ PUSH2 0xD7 JUMPI DUP1 PUSH4 0xF14E211E EQ PUSH2 0xDF JUMPI JUMPDEST PUSH1 0x0 DUP1 REVERT JUMPDEST PUSH2 0x79 PUSH2 0xFF JUMP JUMPDEST PUSH1 0x40 MLOAD PUSH2 0x86 SWAP2 SWAP1 PUSH2 0x6F0 JUMP JUMPDEST PUSH1 0x40 MLOAD DUP1 SWAP2 SUB SWAP1 RETURN JUMPDEST DUP2 DUP1 ISZERO PUSH2 0x9B JUMPI PUSH1 0x0 DUP1 REVERT JUMPDEST POP PUSH2 0xAF PUSH2 0xAA CALLDATASIZE PUSH1 0x4 PUSH2 0x4AE JUMP JUMPDEST PUSH2 0x106 JUMP JUMPDEST STOP JUMPDEST PUSH2 0x79 PUSH2 0xBF CALLDATASIZE PUSH1 0x4 PUSH2 0x496 JUMP JUMPDEST PUSH2 0x273 JUMP JUMPDEST PUSH2 0x79 PUSH2 0xD2 CALLDATASIZE PUSH1 0x4 PUSH2 0x496 JUMP JUMPDEST PUSH2 0x291 JUMP JUMPDEST PUSH2 0x79 PUSH2 0x29C JUMP JUMPDEST DUP2 DUP1 ISZERO PUSH2 0xEB JUMPI PUSH1 0x0 DUP1 REVERT JUMPDEST POP PUSH2 0xAF PUSH2 0xFA CALLDATASIZE PUSH1 0x4 PUSH2 0x496 JUMP JUMPDEST PUSH2 0x2A1 JUMP JUMPDEST PUSH3 0xF4240 DUP2 JUMP JUMPDEST PUSH1 0x2 DUP4 ADD SLOAD PUSH2 0x118 SWAP1 PUSH3 0x15180 PUSH2 0x327 JUMP JUMPDEST TIMESTAMP LT ISZERO PUSH2 0x140 JUMPI PUSH1 0x40 MLOAD PUSH3 0x461BCD PUSH1 0xE5 SHL DUP2 MSTORE PUSH1 0x4 ADD PUSH2 0x137 SWAP1 PUSH2 0x510 JUMP JUMPDEST PUSH1 0x40 MLOAD DUP1 SWAP2 SUB SWAP1 REVERT JUMPDEST PUSH2 0x14D TIMESTAMP PUSH3 0x93A80 PUSH2 0x327 JUMP JUMPDEST DUP2 LT ISZERO PUSH2 0x16C JUMPI PUSH1 0x40 MLOAD PUSH3 0x461BCD PUSH1 0xE5 SHL DUP2 MSTORE PUSH1 0x4 ADD PUSH2 0x137 SWAP1 PUSH2 0x5AD JUMP JUMPDEST PUSH1 0x0 DUP3 GT DUP1 ISZERO PUSH2 0x17E JUMPI POP PUSH3 0xF4240 DUP3 LT JUMPDEST PUSH2 0x19A JUMPI PUSH1 0x40 MLOAD PUSH3 0x461BCD PUSH1 0xE5 SHL DUP2 MSTORE PUSH1 0x4 ADD PUSH2 0x137 SWAP1 PUSH2 0x6BB JUMP JUMPDEST PUSH1 0x0 PUSH2 0x1A5 DUP5 PUSH2 0x35F JUMP JUMPDEST SWAP1 POP PUSH1 0x0 PUSH2 0x1B4 DUP5 PUSH1 0x64 PUSH2 0x3FA JUMP JUMPDEST SWAP1 POP DUP2 DUP2 LT ISZERO PUSH2 0x1ED JUMPI DUP2 PUSH2 0x1CA DUP3 PUSH1 0x2 PUSH2 0x3FA JUMP JUMPDEST LT ISZERO PUSH2 0x1E8 JUMPI PUSH1 0x40 MLOAD PUSH3 0x461BCD PUSH1 0xE5 SHL DUP2 MSTORE PUSH1 0x4 ADD PUSH2 0x137 SWAP1 PUSH2 0x64B JUMP JUMPDEST PUSH2 0x217 JUMP JUMPDEST PUSH2 0x1F8 DUP3 PUSH1 0x2 PUSH2 0x3FA JUMP JUMPDEST DUP2 GT ISZERO PUSH2 0x217 JUMPI PUSH1 0x40 MLOAD PUSH3 0x461BCD PUSH1 0xE5 SHL DUP2 MSTORE PUSH1 0x4 ADD PUSH2 0x137 SWAP1 PUSH2 0x547 JUMP JUMPDEST DUP2 DUP6 SSTORE PUSH1 0x1 DUP6 ADD DUP2 SWAP1 SSTORE TIMESTAMP PUSH1 0x2 DUP7 ADD DUP2 SWAP1 SSTORE PUSH1 0x3 DUP7 ADD DUP5 SWAP1 SSTORE PUSH1 0x40 MLOAD PUSH32 0xA2B71EC6DF949300B59AAB36B55E189697B750119DD349FCFA8C0F779E83C254 SWAP2 PUSH2 0x264 SWAP2 DUP6 SWAP2 DUP6 SWAP2 DUP9 SWAP1 PUSH2 0x707 JUMP JUMPDEST PUSH1 0x40 MLOAD DUP1 SWAP2 SUB SWAP1 LOG1 POP POP POP POP POP JUMP JUMPDEST PUSH1 0x0 PUSH2 0x289 PUSH1 0x64 PUSH2 0x283 DUP5 PUSH2 0x35F JUMP JUMPDEST SWAP1 PUSH2 0x43F JUMP JUMPDEST SWAP1 POP JUMPDEST SWAP2 SWAP1 POP JUMP JUMPDEST PUSH1 0x0 PUSH2 0x289 DUP3 PUSH2 0x35F JUMP JUMPDEST PUSH1 0x64 DUP2 JUMP JUMPDEST TIMESTAMP DUP2 PUSH1 0x3 ADD SLOAD GT PUSH2 0x2C4 JUMPI PUSH1 0x40 MLOAD PUSH3 0x461BCD PUSH1 0xE5 SHL DUP2 MSTORE PUSH1 0x4 ADD PUSH2 0x137 SWAP1 PUSH2 0x4D9 JUMP JUMPDEST PUSH1 0x0 PUSH2 0x2CF DUP3 PUSH2 0x35F JUMP JUMPDEST DUP1 DUP4 SSTORE PUSH1 0x1 DUP4 ADD DUP2 SWAP1 SSTORE TIMESTAMP PUSH1 0x2 DUP5 ADD DUP2 SWAP1 SSTORE PUSH1 0x3 DUP5 ADD DUP2 SWAP1 SSTORE PUSH1 0x40 MLOAD SWAP2 SWAP3 POP PUSH32 0x46E22FB3709AD289F62CE63D469248536DBC78D82B84A3D7E74AD606DC201938 SWAP2 PUSH2 0x31B SWAP2 DUP5 SWAP2 PUSH2 0x6F9 JUMP JUMPDEST PUSH1 0x40 MLOAD DUP1 SWAP2 SUB SWAP1 LOG1 POP POP JUMP JUMPDEST PUSH1 0x0 DUP1 PUSH2 0x334 DUP4 DUP6 PUSH2 0x722 JUMP JUMPDEST SWAP1 POP DUP4 DUP2 LT ISZERO PUSH2 0x356 JUMPI PUSH1 0x40 MLOAD PUSH3 0x461BCD PUSH1 0xE5 SHL DUP2 MSTORE PUSH1 0x4 ADD PUSH2 0x137 SWAP1 PUSH2 0x576 JUMP JUMPDEST SWAP1 POP JUMPDEST SWAP3 SWAP2 POP POP JUMP JUMPDEST PUSH1 0x3 DUP2 ADD SLOAD PUSH1 0x1 DUP3 ADD SLOAD PUSH1 0x0 SWAP2 SWAP1 TIMESTAMP DUP3 GT ISZERO PUSH2 0x3F1 JUMPI PUSH1 0x2 DUP5 ADD SLOAD DUP5 SLOAD DUP1 DUP4 GT ISZERO PUSH2 0x3C3 JUMPI PUSH2 0x3B8 PUSH2 0x3B1 PUSH2 0x394 DUP7 DUP6 PUSH2 0x46A JUMP JUMPDEST PUSH2 0x283 PUSH2 0x3A1 TIMESTAMP DUP8 PUSH2 0x46A JUMP JUMPDEST PUSH2 0x3AB DUP9 DUP8 PUSH2 0x46A JUMP JUMPDEST SWAP1 PUSH2 0x3FA JUMP JUMPDEST DUP3 SWAP1 PUSH2 0x327 JUMP JUMPDEST SWAP5 POP POP POP POP POP PUSH2 0x28C JUMP JUMPDEST PUSH2 0x3B8 PUSH2 0x3EA PUSH2 0x3D3 DUP7 DUP6 PUSH2 0x46A JUMP JUMPDEST PUSH2 0x283 PUSH2 0x3E0 TIMESTAMP DUP8 PUSH2 0x46A JUMP JUMPDEST PUSH2 0x3AB DUP7 DUP10 PUSH2 0x46A JUMP JUMPDEST DUP3 SWAP1 PUSH2 0x46A JUMP JUMPDEST SWAP2 POP PUSH2 0x28C SWAP1 POP JUMP JUMPDEST PUSH1 0x0 DUP3 PUSH2 0x409 JUMPI POP PUSH1 0x0 PUSH2 0x359 JUMP JUMPDEST PUSH1 0x0 PUSH2 0x415 DUP4 DUP6 PUSH2 0x75A JUMP JUMPDEST SWAP1 POP DUP3 PUSH2 0x422 DUP6 DUP4 PUSH2 0x73A JUMP JUMPDEST EQ PUSH2 0x356 JUMPI PUSH1 0x40 MLOAD PUSH3 0x461BCD PUSH1 0xE5 SHL DUP2 MSTORE PUSH1 0x4 ADD PUSH2 0x137 SWAP1 PUSH2 0x67A JUMP JUMPDEST PUSH1 0x0 DUP1 DUP3 GT PUSH2 0x460 JUMPI PUSH1 0x40 MLOAD PUSH3 0x461BCD PUSH1 0xE5 SHL DUP2 MSTORE PUSH1 0x4 ADD PUSH2 0x137 SWAP1 PUSH2 0x614 JUMP JUMPDEST PUSH2 0x356 DUP3 DUP5 PUSH2 0x73A JUMP JUMPDEST PUSH1 0x0 DUP3 DUP3 GT ISZERO PUSH2 0x48C JUMPI PUSH1 0x40 MLOAD PUSH3 0x461BCD PUSH1 0xE5 SHL DUP2 MSTORE PUSH1 0x4 ADD PUSH2 0x137 SWAP1 PUSH2 0x5DD JUMP JUMPDEST PUSH2 0x356 DUP3 DUP5 PUSH2 0x779 JUMP JUMPDEST PUSH1 0x0 PUSH1 0x20 DUP3 DUP5 SUB SLT ISZERO PUSH2 0x4A7 JUMPI DUP1 DUP2 REVERT JUMPDEST POP CALLDATALOAD SWAP2 SWAP1 POP JUMP JUMPDEST PUSH1 0x0 DUP1 PUSH1 0x0 PUSH1 0x60 DUP5 DUP7 SUB SLT ISZERO PUSH2 0x4C2 JUMPI DUP2 DUP3 REVERT JUMPDEST POP POP DUP2 CALLDATALOAD SWAP4 PUSH1 0x20 DUP4 ADD CALLDATALOAD SWAP4 POP PUSH1 0x40 SWAP1 SWAP3 ADD CALLDATALOAD SWAP2 SWAP1 POP JUMP JUMPDEST PUSH1 0x20 DUP1 DUP3 MSTORE PUSH1 0x17 SWAP1 DUP3 ADD MSTORE PUSH32 0x52616D7020697320616C72656164792073746F70706564000000000000000000 PUSH1 0x40 DUP3 ADD MSTORE PUSH1 0x60 ADD SWAP1 JUMP JUMPDEST PUSH1 0x20 DUP1 DUP3 MSTORE PUSH1 0x1F SWAP1 DUP3 ADD MSTORE PUSH32 0x57616974203120646179206265666F7265207374617274696E672072616D7000 PUSH1 0x40 DUP3 ADD MSTORE PUSH1 0x60 ADD SWAP1 JUMP JUMPDEST PUSH1 0x20 DUP1 DUP3 MSTORE PUSH1 0x15 SWAP1 DUP3 ADD MSTORE PUSH21 0x667574757265415F20697320746F6F206C61726765 PUSH1 0x58 SHL PUSH1 0x40 DUP3 ADD MSTORE PUSH1 0x60 ADD SWAP1 JUMP JUMPDEST PUSH1 0x20 DUP1 DUP3 MSTORE PUSH1 0x1B SWAP1 DUP3 ADD MSTORE PUSH32 0x536166654D6174683A206164646974696F6E206F766572666C6F770000000000 PUSH1 0x40 DUP3 ADD MSTORE PUSH1 0x60 ADD SWAP1 JUMP JUMPDEST PUSH1 0x20 DUP1 DUP3 MSTORE PUSH1 0x16 SWAP1 DUP3 ADD MSTORE PUSH22 0x496E73756666696369656E742072616D702074696D65 PUSH1 0x50 SHL PUSH1 0x40 DUP3 ADD MSTORE PUSH1 0x60 ADD SWAP1 JUMP JUMPDEST PUSH1 0x20 DUP1 DUP3 MSTORE PUSH1 0x1E SWAP1 DUP3 ADD MSTORE PUSH32 0x536166654D6174683A207375627472616374696F6E206F766572666C6F770000 PUSH1 0x40 DUP3 ADD MSTORE PUSH1 0x60 ADD SWAP1 JUMP JUMPDEST PUSH1 0x20 DUP1 DUP3 MSTORE PUSH1 0x1A SWAP1 DUP3 ADD MSTORE PUSH32 0x536166654D6174683A206469766973696F6E206279207A65726F000000000000 PUSH1 0x40 DUP3 ADD MSTORE PUSH1 0x60 ADD SWAP1 JUMP JUMPDEST PUSH1 0x20 DUP1 DUP3 MSTORE PUSH1 0x15 SWAP1 DUP3 ADD MSTORE PUSH21 0x199D5D1D5C995057C81A5CC81D1BDBC81CDB585B1B PUSH1 0x5A SHL PUSH1 0x40 DUP3 ADD MSTORE PUSH1 0x60 ADD SWAP1 JUMP JUMPDEST PUSH1 0x20 DUP1 DUP3 MSTORE PUSH1 0x21 SWAP1 DUP3 ADD MSTORE PUSH32 0x536166654D6174683A206D756C7469706C69636174696F6E206F766572666C6F PUSH1 0x40 DUP3 ADD MSTORE PUSH1 0x77 PUSH1 0xF8 SHL PUSH1 0x60 DUP3 ADD MSTORE PUSH1 0x80 ADD SWAP1 JUMP JUMPDEST PUSH1 0x20 DUP1 DUP3 MSTORE DUP2 DUP2 ADD MSTORE PUSH32 0x667574757265415F206D757374206265203E203020616E64203C204D41585F41 PUSH1 0x40 DUP3 ADD MSTORE PUSH1 0x60 ADD SWAP1 JUMP JUMPDEST SWAP1 DUP2 MSTORE PUSH1 0x20 ADD SWAP1 JUMP JUMPDEST SWAP2 DUP3 MSTORE PUSH1 0x20 DUP3 ADD MSTORE PUSH1 0x40 ADD SWAP1 JUMP JUMPDEST SWAP4 DUP5 MSTORE PUSH1 0x20 DUP5 ADD SWAP3 SWAP1 SWAP3 MSTORE PUSH1 0x40 DUP4 ADD MSTORE PUSH1 0x60 DUP3 ADD MSTORE PUSH1 0x80 ADD SWAP1 JUMP JUMPDEST PUSH1 0x0 DUP3 NOT DUP3 GT ISZERO PUSH2 0x735 JUMPI PUSH2 0x735 PUSH2 0x790 JUMP JUMPDEST POP ADD SWAP1 JUMP JUMPDEST PUSH1 0x0 DUP3 PUSH2 0x755 JUMPI PUSH4 0x4E487B71 PUSH1 0xE0 SHL DUP2 MSTORE PUSH1 0x12 PUSH1 0x4 MSTORE PUSH1 0x24 DUP2 REVERT JUMPDEST POP DIV SWAP1 JUMP JUMPDEST PUSH1 0x0 DUP2 PUSH1 0x0 NOT DIV DUP4 GT DUP3 ISZERO ISZERO AND ISZERO PUSH2 0x774 JUMPI PUSH2 0x774 PUSH2 0x790 JUMP JUMPDEST POP MUL SWAP1 JUMP JUMPDEST PUSH1 0x0 DUP3 DUP3 LT ISZERO PUSH2 0x78B JUMPI PUSH2 0x78B PUSH2 0x790 JUMP JUMPDEST POP SUB SWAP1 JUMP JUMPDEST PUSH4 0x4E487B71 PUSH1 0xE0 SHL PUSH1 0x0 MSTORE PUSH1 0x11 PUSH1 0x4 MSTORE PUSH1 0x24 PUSH1 0x0 REVERT INVALID LOG2 PUSH5 0x6970667358 0x22 SLT KECCAK256 0xBB OR EXTCODEHASH 0xD9 PUSH11 0xF8600075CB2EA46CBEEDBF 0x2D 0xCB 0xD3 SWAP8 CALLVALUE LOG2 0xD5 0xEA MLOAD AND REVERT DUP4 0xFB DUP9 CREATE2 0xB5 PUSH5 0x736F6C6343 STOP ADDMOD STOP STOP CALLER "
		},
		"gasEstimates": {
			"creation": {
				"codeDepositCost": "402400",
				"executionCost": "471",
				"totalCost": "402871"
			},
			"external": {
				"A_PRECISION()": "278",
				"MAX_A()": "190",
				"getA(SwapUtils.Swap storage)": "infinite",
				"getAPrecise(SwapUtils.Swap storage)": "infinite",
				"rampA(SwapUtils.Swap storage,uint256,uint256)": "infinite",
				"stopRampA(SwapUtils.Swap storage)": "infinite"
			},
			"internal": {
				"_getAPrecise(struct SwapUtils.Swap storage pointer)": "infinite"
			}
		},
		"methodIdentifiers": {
			"A_PRECISION()": "d011f918",
			"MAX_A()": "39698415",
			"getA(SwapUtils.Swap storage)": "b0a14cfc",
			"getAPrecise(SwapUtils.Swap storage)": "c9b64dcb",
			"rampA(SwapUtils.Swap storage,uint256,uint256)": "58fdd79b",
			"stopRampA(SwapUtils.Swap storage)": "f14e211e"
		}
	},
	"abi": [
		{
			"anonymous": false,
			"inputs": [
				{
					"indexed": false,
					"internalType": "uint256",
					"name": "oldA",
					"type": "uint256"
				},
				{
					"indexed": false,
					"internalType": "uint256",
					"name": "newA",
					"type": "uint256"
				},
				{
					"indexed": false,
					"internalType": "uint256",
					"name": "initialTime",
					"type": "uint256"
				},
				{
					"indexed": false,
					"internalType": "uint256",
					"name": "futureTime",
					"type": "uint256"
				}
			],
			"name": "RampA",
			"type": "event"
		},
		{
			"anonymous": false,
			"inputs": [
				{
					"indexed": false,
					"internalType": "uint256",
					"name": "currentA",
					"type": "uint256"
				},
				{
					"indexed": false,
					"internalType": "uint256",
					"name": "time",
					"type": "uint256"
				}
			],
			"name": "StopRampA",
			"type": "event"
		},
		{
			"inputs": [],
			"name": "A_PRECISION",
			"outputs": [
				{
					"internalType": "uint256",
					"name": "",
					"type": "uint256"
				}
			],
			"stateMutability": "view",
			"type": "function"
		},
		{
			"inputs": [],
			"name": "MAX_A",
			"outputs": [
				{
					"internalType": "uint256",
					"name": "",
					"type": "uint256"
				}
			],
			"stateMutability": "view",
			"type": "function"
		}
	]
}