{
	"data": {
		"bytecode": {
			"linkReferences": {
				"src/AmplificationUtils.sol": {
					"AmplificationUtils": [
						{
							"length": 20,
							"start": 1533
						},
						{
							"length": 20,
							"start": 3183
						},
						{
							"length": 20,
							"start": 5898
						},
						{
							"length": 20,
							"start": 6046
						}
					]
				},
				"src/SwapUtils.sol": {
					"SwapUtils": [
						{
							"length": 20,
							"start": 1402
						},
						{
							"length": 20,
							"start": 1773
						},
						{
							"length": 20,
							"start": 2052
						},
						{
							"length": 20,
							"start": 2216
						},
						{
							"length": 20,
							"start": 2428
						},
						{
							"length": 20,
							"start": 2649
						},
						{
							"length": 20,
							"start": 3058
						},
						{
							"length": 20,
							"start": 4751
						},
						{
							"length": 20,
							"start": 4876
						},
						{
							"length": 20,
							"start": 5061
						},
						{
							"length": 20,
							"start": 5409
						},
						{
							"length": 20,
							"start": 6105
						},
						{
							"length": 20,
							"start": 6164
						},
						{
							"length": 20,
							"start": 6235
						},
						{
							"length": 20,
							"start": 6516
						}
					]
				}
			},
			"object": "608060405260d6805460ff1916905534801561001a57600080fd5b50613bd58061002a6000396000f3fe608060405234801561001057600080fd5b506004361061025e5760003560e01c80638beb60b611610146578063d41f6568116100c3578063ef0a712f11610087578063ef0a712f146104aa578063ef815967146104bd578063efeecb51146104d0578063f2fad2b6146104d8578063f2fde38b146104eb578063fd967f47146104fe5761025e565b8063d41f656814610477578063d46300fd1461047f578063e25aa5fa14610487578063e6ab28061461048f578063e8cc7fb6146104a25761025e565b8063a95b089f1161010a578063a95b089f1461042c578063aa6ca8081461043f578063ae3fcb1f14610454578063b28cb6dc1461045c578063c4db7fa01461046f5761025e565b80638beb60b6146103e35780638da5cb5b146103f657806391695586146103fe57806391ceb3eb14610411578063a1dc9031146104245761025e565b8063593d132c116101df578063715018a6116101a3578063715018a6146103905780637f1c825a146103985780638214f5a4146103a057806382b86600146103b55780638456cb59146103c857806384cdd9bc146103d05761025e565b8063593d132c1461031a5780635c975abb1461032d5780635cffe9de146103425780635fd65f0f1461035557806366c0bd24146103705761025e565b806334e199071161022657806334e19907146102c65780633e3a1560146102d95780633f4ba83a146102ec5780634bcdafac146102f45780634d49e87d146103075761025e565b80630419b45a146102635780630ba819591461026d57806318f52ce21461028b57806331cd52b0146102a0578063342a87a1146102b3575b600080fd5b61026b610506565b005b6102756105c1565b604051610282919061376f565b60405180910390f35b610293610651565b6040516102829190613003565b6102936102ae366004612d5c565b610780565b6102756102c1366004612dcd565b61086c565b61026b6102d4366004612d2c565b610904565b6102756102e7366004612df8565b6109b0565b61026b610aae565b61026b610302366004612cf4565b610af7565b610275610315366004612c17565b610b49565b61026b610328366004612dac565b610bf7565b610335610ca6565b604051610282919061303b565b61026b610350366004612a72565b610caf565b61035d611021565b60405161028297969594939291906138b4565b61038361037e366004612a56565b611042565b60405161028291906138ed565b61026b61109a565b610275611123565b6103a8611129565b6040516102829190612f4f565b6103a86103c3366004612e32565b611138565b61026b61119f565b6102756103de366004612c17565b6111e6565b61026b6103f1366004612d2c565b611294565b6103a861130d565b61027561040c366004612e87565b61131c565b61027561041f366004612e32565b61142c565b61029361148a565b61027561043a366004612e4c565b6114e5565b610447611580565b6040516102829190612fb6565b6103356115e4565b61026b61046a366004612aee565b6115ed565b61026b611692565b610293611709565b610275611762565b61027561179d565b61027561049d366004612bc3565b6117d8565b610275611819565b6102756104b8366004612d2c565b61181f565b61026b6104cb366004612dac565b6118ac565b610275611932565b6102936104e6366004612d2c565b611938565b61026b6104f9366004612a56565b6119c9565b610275611a8a565b61050e611a90565b6001600160a01b031661051f61130d565b6001600160a01b03161461054e5760405162461bcd60e51b815260040161054590613533565b60405180910390fd5b73__$892bb870cba8df26b5d6cd3a584e1d10df$__6324c5c75160c961057261130d565b6040518363ffffffff1660e01b815260040161058f929190613778565b60006040518083038186803b1580156105a757600080fd5b505af41580156105bb573d6000803e3d6000fd5b50505050565b60405163c9b64dcb60e01b815260009073__$80ddb8a79fc565350c83212369544ca930$__9063c9b64dcb906105fc9060c99060040161376f565b60206040518083038186803b15801561061457600080fd5b505af4158015610628573d6000803e3d6000fd5b505050506040513d601f19601f8201168201806040525081019061064c9190612d44565b905090565b60d054606090806001600160401b0381111561067d57634e487b7160e01b600052604160045260246000fd5b6040519080825280602002602001820160405280156106a6578160200160208202803683370190505b50915060005b8181101561077b576040516303e8240b60e51b815273__$892bb870cba8df26b5d6cd3a584e1d10df$__90637d048160906106ee9060c99085906004016137e7565b60206040518083038186803b15801561070657600080fd5b505af415801561071a573d6000803e3d6000fd5b505050506040513d601f19601f8201168201806040525081019061073e9190612d44565b83828151811061075e57634e487b7160e01b600052603260045260246000fd5b60209081029190910101528061077381613b15565b9150506106ac565b505090565b6060600260975414156107a55760405162461bcd60e51b815260040161054590613701565b600260975581428110156107cb5760405162461bcd60e51b815260040161054590613568565b6040516339feb59f60e11b815273__$892bb870cba8df26b5d6cd3a584e1d10df$__906373fd6b3e906108099060c9908a908a908a906004016137f5565b60006040518083038186803b15801561082157600080fd5b505af4158015610835573d6000803e3d6000fd5b505050506040513d6000823e601f3d908101601f1916820160405261085d9190810190612c65565b60016097559695505050505050565b60405163703493a160e11b815260009073__$892bb870cba8df26b5d6cd3a584e1d10df$__9063e0692742906108ab9060c99087908790600401613835565b60206040518083038186803b1580156108c357600080fd5b505af41580156108d7573d6000803e3d6000fd5b505050506040513d601f19601f820116820180604052508101906108fb9190612d44565b90505b92915050565b61090c611a90565b6001600160a01b031661091d61130d565b6001600160a01b0316146109435760405162461bcd60e51b815260040161054590613533565b60405163119f861b60e21b815273__$892bb870cba8df26b5d6cd3a584e1d10df$__9063467e186c9061097d9060c99085906004016137e7565b60006040518083038186803b15801561099557600080fd5b505af41580156109a9573d6000803e3d6000fd5b5050505050565b6000600260975414156109d55760405162461bcd60e51b815260040161054590613701565b60026097556109e2610ca6565b156109ff5760405162461bcd60e51b815260040161054590613379565b8180421115610a205760405162461bcd60e51b815260040161054590613568565b60405163e7a4db8160e01b815273__$892bb870cba8df26b5d6cd3a584e1d10df$__9063e7a4db8190610a5e9060c9908a908a908a9060040161384e565b60206040518083038186803b158015610a7657600080fd5b505af4158015610a8a573d6000803e3d6000fd5b505050506040513d601f19601f8201168201806040525081019061085d9190612d44565b610ab6611a90565b6001600160a01b0316610ac761130d565b6001600160a01b031614610aed5760405162461bcd60e51b815260040161054590613533565b610af5611a94565b565b610aff611a90565b6001600160a01b0316610b1061130d565b6001600160a01b031614610b365760405162461bcd60e51b815260040161054590613533565b60d6805460ff1916911515919091179055565b600060026097541415610b6e5760405162461bcd60e51b815260040161054590613701565b6002609755610b7b610ca6565b15610b985760405162461bcd60e51b815260040161054590613379565b8180421115610bb95760405162461bcd60e51b815260040161054590613568565b6040516340370edf60e01b815273__$892bb870cba8df26b5d6cd3a584e1d10df$__906340370edf90610a5e9060c9908a908a908a906004016137bc565b610bff611a90565b6001600160a01b0316610c1061130d565b6001600160a01b031614610c365760405162461bcd60e51b815260040161054590613533565b6040516358fdd79b60e01b815273__$80ddb8a79fc565350c83212369544ca930$__906358fdd79b90610c729060c9908690869060040161381f565b60006040518083038186803b158015610c8a57600080fd5b505af4158015610c9e573d6000803e3d6000fd5b505050505050565b60655460ff1690565b60026097541415610cd25760405162461bcd60e51b815260040161054590613701565b600260975560d65460ff16610cf95760405162461bcd60e51b815260040161054590613592565b6000610d0484611042565b90506000846001600160a01b03166370a08231306040518263ffffffff1660e01b8152600401610d349190612f4f565b60206040518083038186803b158015610d4c57600080fd5b505afa158015610d60573d6000803e3d6000fd5b505050506040513d601f19601f82011682018060405250810190610d849190612d44565b90506000610dcc60c96009018460ff1681548110610db257634e487b7160e01b600052603260045260246000fd5b906000526020600020015483611b0290919063ffffffff16565b9050600085118015610dde5750848210155b610dfa5760405162461bcd60e51b815260040161054590613169565b6000610e1d612710610e1760d45489611b2e90919063ffffffff16565b90611b73565b90506000610e3c612710610e1760d55485611b2e90919063ffffffff16565b905060008211610e5e5760405162461bcd60e51b81526004016105459061344d565b610e726001600160a01b0389168a89611b9e565b60405163405b019d60e01b81526001600160a01b038a169063405b019d90610ea69030908c908c9088908d90600401612f63565b600060405180830381600087803b158015610ec057600080fd5b505af1158015610ed4573d6000803e3d6000fd5b50506040516370a0823160e01b8152600092506001600160a01b038b1691506370a0823190610f07903090600401612f4f565b60206040518083038186803b158015610f1f57600080fd5b505afa158015610f33573d6000803e3d6000fd5b505050506040513d601f19601f82011682018060405250810190610f579190612d44565b9050610f638584611bf9565b811015610f825760405162461bcd60e51b81526004016105459061329d565b610f9682610f908387611b02565b90611b02565b60d2805460ff8916908110610fbb57634e487b7160e01b600052603260045260246000fd5b9060005260206000200181905550896001600160a01b03167f7c186b2827b23e9024e7b29869cba58a97a4bac6567802a8ea6a8afa7b8c22f0878a868660405161100894939291906138fb565b60405180910390a2505060016097555050505050505050565b60c95460ca5460cb5460cc5460cd5460ce5460cf546001600160a01b031687565b6001600160a01b038116600081815260d36020526040812054909160ff9091169061106c82611138565b6001600160a01b0316146110925760405162461bcd60e51b8152600401610545906131f2565b90505b919050565b6110a2611a90565b6001600160a01b03166110b361130d565b6001600160a01b0316146110d95760405162461bcd60e51b815260040161054590613533565b6033546040516000916001600160a01b0316907f8be0079c531659141344cd1fd0a4f28419497f9722a3daafe3b4186f6b6457e0908390a3603380546001600160a01b0319169055565b60d45481565b60cf546001600160a01b031690565b60d05460009060ff83161061115f5760405162461bcd60e51b81526004016105459061362e565b60d0805460ff841690811061118457634e487b7160e01b600052603260045260246000fd5b6000918252602090912001546001600160a01b031692915050565b6111a7611a90565b6001600160a01b03166111b861130d565b6001600160a01b0316146111de5760405162461bcd60e51b815260040161054590613533565b610af5611c28565b60006002609754141561120b5760405162461bcd60e51b815260040161054590613701565b6002609755611218610ca6565b156112355760405162461bcd60e51b815260040161054590613379565b81804211156112565760405162461bcd60e51b815260040161054590613568565b6040516320dc8e1360e11b815273__$892bb870cba8df26b5d6cd3a584e1d10df$__906341b91c2690610a5e9060c9908a908a908a906004016137bc565b61129c611a90565b6001600160a01b03166112ad61130d565b6001600160a01b0316146112d35760405162461bcd60e51b815260040161054590613533565b604051633823393b60e11b815273__$892bb870cba8df26b5d6cd3a584e1d10df$__9063704672769061097d9060c99085906004016137e7565b6033546001600160a01b031690565b6000600260975414156113415760405162461bcd60e51b815260040161054590613701565b600260975561134e610ca6565b1561136b5760405162461bcd60e51b815260040161054590613379565b818042111561138c5760405162461bcd60e51b815260040161054590613568565b60405163529cbd9160e11b815273__$892bb870cba8df26b5d6cd3a584e1d10df$__9063a5397b22906113cc9060c9908b908b908b908b9060040161388b565b60206040518083038186803b1580156113e457600080fd5b505af41580156113f8573d6000803e3d6000fd5b505050506040513d601f19601f8201168201806040525081019061141c9190612d44565b6001609755979650505050505050565b60d05460009060ff8316106114535760405162461bcd60e51b815260040161054590613654565b60d2805460ff841690811061147857634e487b7160e01b600052603260045260246000fd5b90600052602060002001549050919050565b606060c96009018054806020026020016040519081016040528092919081815260200182805480156114db57602002820191906000526020600020905b8154815260200190600101908083116114c7575b5050505050905090565b6040516312c8d80f60e21b815260009073__$892bb870cba8df26b5d6cd3a584e1d10df$__90634b23603c906115269060c99088908890889060040161386c565b60206040518083038186803b15801561153e57600080fd5b505af4158015611552573d6000803e3d6000fd5b505050506040513d601f19601f820116820180604052508101906115769190612d44565b90505b9392505050565b606060c96007018054806020026020016040519081016040528092919081815260200182805480156114db57602002820191906000526020600020905b81546001600160a01b031681526001909101906020018083116115bd575050505050905090565b60d65460ff1681565b600054610100900460ff16806116065750611606611c83565b80611614575060005460ff16155b6116305760405162461bcd60e51b8152600401610545906133ff565b600054610100900460ff1615801561165b576000805460ff1961ff0019909116610100171660011790555b61166b8989898989898989611c94565b600860d455600060d5558015611687576000805461ff00191690555b505050505050505050565b61169a611a90565b6001600160a01b03166116ab61130d565b6001600160a01b0316146116d15760405162461bcd60e51b815260040161054590613533565b6040516378a7108f60e11b815273__$80ddb8a79fc565350c83212369544ca930$__9063f14e211e9061058f9060c99060040161376f565b606060c96008018054806020026020016040519081016040528092919081815260200182805480156114db57602002820191906000526020600020908154815260200190600101908083116114c7575050505050905090565b604051632c28533f60e21b815260009073__$80ddb8a79fc565350c83212369544ca930$__9063b0a14cfc906105fc9060c99060040161376f565b604051631c641b0b60e21b815260009073__$892bb870cba8df26b5d6cd3a584e1d10df$__906371906c2c906105fc9060c99060040161376f565b604051630834b49160e41b815260009073__$892bb870cba8df26b5d6cd3a584e1d10df$__9063834b4910906115269060c99088908890889060040161378f565b60d55481565b6040516303e8240b60e51b815260009073__$892bb870cba8df26b5d6cd3a584e1d10df$__90637d0481609061185c9060c99086906004016137e7565b60206040518083038186803b15801561187457600080fd5b505af4158015611888573d6000803e3d6000fd5b505050506040513d601f19601f820116820180604052508101906110929190612d44565b6118b4611a90565b6001600160a01b03166118c561130d565b6001600160a01b0316146118eb5760405162461bcd60e51b815260040161054590613533565b6000821180156118fd57506127108211155b801561190b57506127108111155b6119275760405162461bcd60e51b8152600401610545906132d4565b60d49190915560d555565b60d05490565b6040516338381f2560e11b815260609073__$892bb870cba8df26b5d6cd3a584e1d10df$__906370703e4a906119759060c99086906004016137e7565b60006040518083038186803b15801561198d57600080fd5b505af41580156119a1573d6000803e3d6000fd5b505050506040513d6000823e601f3d908101601f191682016040526110929190810190612c65565b6119d1611a90565b6001600160a01b03166119e261130d565b6001600160a01b031614611a085760405162461bcd60e51b815260040161054590613533565b6001600160a01b038116611a2e5760405162461bcd60e51b8152600401610545906130b5565b6033546040516001600160a01b038084169216907f8be0079c531659141344cd1fd0a4f28419497f9722a3daafe3b4186f6b6457e090600090a3603380546001600160a01b0319166001600160a01b0392909216919091179055565b61271081565b3390565b611a9c610ca6565b611ab85760405162461bcd60e51b815260040161054590613087565b6065805460ff191690557f5db9ee0a495bf2e6ff9c91a7834c1ba4fdd244a5e8aa4e537bd38aeae4b073aa611aeb611a90565b604051611af89190612f4f565b60405180910390a1565b600082821115611b245760405162461bcd60e51b8152600401610545906131bb565b6108fb8284613ad2565b600082611b3d575060006108fe565b6000611b498385613ab3565b905082611b56858361397f565b146108fb5760405162461bcd60e51b815260040161054590613484565b6000808211611b945760405162461bcd60e51b815260040161054590613266565b6108fb828461397f565b611bf48363a9059cbb60e01b8484604051602401611bbd929190612f9d565b60408051601f198184030181529190526020810180516001600160e01b03166001600160e01b031990931692909217909152612266565b505050565b600080611c068385613967565b9050838110156108fb5760405162461bcd60e51b8152600401610545906130fb565b611c30610ca6565b15611c4d5760405162461bcd60e51b815260040161054590613379565b6065805460ff191660011790557f62e78cea01bee320cd4e420270b5ea74000d11b0c9f74754ebdbfc544b05a258611aeb611a90565b6000611c8e306122f5565b15905090565b600054610100900460ff1680611cad5750611cad611c83565b80611cbb575060005460ff16155b611cd75760405162461bcd60e51b8152600401610545906133ff565b600054610100900460ff16158015611d02576000805460ff1961ff0019909116610100171660011790555b611d0a6122fb565b611d12612396565b6001895111611d335760405162461bcd60e51b8152600401610545906134fc565b602089511115611d555760405162461bcd60e51b81526004016105459061330b565b8751895114611d765760405162461bcd60e51b8152600401610545906134c5565b600088516001600160401b03811115611d9f57634e487b7160e01b600052604160045260246000fd5b604051908082528060200260200182016040528015611dc8578160200160208202803683370190505b50905060005b8a518160ff1610156120655760ff811615611ebe5760d360008c8360ff1681518110611e0a57634e487b7160e01b600052603260045260246000fd5b6020908102919091018101516001600160a01b031682528101919091526040016000205460ff16158015611ea257508a8160ff1681518110611e5c57634e487b7160e01b600052603260045260246000fd5b60200260200101516001600160a01b03168b600081518110611e8e57634e487b7160e01b600052603260045260246000fd5b60200260200101516001600160a01b031614155b611ebe5760405162461bcd60e51b815260040161054590613191565b60006001600160a01b03168b8260ff1681518110611eec57634e487b7160e01b600052603260045260246000fd5b60200260200101516001600160a01b03161415611f1b5760405162461bcd60e51b8152600401610545906135c9565b601260ff168a8260ff1681518110611f4357634e487b7160e01b600052603260045260246000fd5b602002602001015160ff161115611f6c5760405162461bcd60e51b815260040161054590613132565b611fb08a8260ff1681518110611f9257634e487b7160e01b600052603260045260246000fd5b602002602001015160ff16601260ff16611b0290919063ffffffff16565b611fbb90600a6139e5565b828260ff1681518110611fde57634e487b7160e01b600052603260045260246000fd5b6020026020010181815250508060d360008d8460ff168151811061201257634e487b7160e01b600052603260045260246000fd5b60200260200101516001600160a01b03166001600160a01b0316815260200190815260200160002060006101000a81548160ff021916908360ff160217905550808061205d90613b30565b915050611dce565b50620f424086106120885760405162461bcd60e51b8152600401610545906133d3565b6305f5e10085106120ab5760405162461bcd60e51b815260040161054590613600565b6402540be40084106120cf5760405162461bcd60e51b815260040161054590613342565b60006120da8461240c565b60405163266c45bb60e11b81529091506001600160a01b03821690634cd88b769061210b908c908c90600401613059565b602060405180830381600087803b15801561212557600080fd5b505af1158015612139573d6000803e3d6000fd5b505050506040513d601f19601f8201168201806040525081019061215d9190612d10565b6121795760405162461bcd60e51b815260040161054590613738565b60cf80546001600160a01b0319166001600160a01b0383161790558a516121a79060d09060208e01906127f1565b5081516121bb9060d1906020850190612856565b508a516001600160401b038111156121e357634e487b7160e01b600052604160045260246000fd5b60405190808252806020026020018201604052801561220c578160200160208202803683370190505b5080516122219160d291602090910190612856565b5061222d876064611b2e565b60c95561223b876064611b2e565b60ca55505060cd84905560ce8390558015611687576000805461ff0019169055505050505050505050565b60006122bb826040518060400160405280602081526020017f5361666545524332303a206c6f772d6c6576656c2063616c6c206661696c6564815250856001600160a01b031661247b9092919063ffffffff16565b805190915015611bf457808060200190518101906122d99190612d10565b611bf45760405162461bcd60e51b8152600401610545906136b7565b3b151590565b600054610100900460ff16806123145750612314611c83565b80612322575060005460ff16155b61233e5760405162461bcd60e51b8152600401610545906133ff565b600054610100900460ff16158015612369576000805460ff1961ff0019909116610100171660011790555b61237161248a565b61237961250b565b6123816125e5565b8015612393576000805461ff00191690555b50565b600054610100900460ff16806123af57506123af611c83565b806123bd575060005460ff16155b6123d95760405162461bcd60e51b8152600401610545906133ff565b600054610100900460ff16158015612404576000805460ff1961ff0019909116610100171660011790555b612381612671565b6000604051733d602d80600a3d3981f3363d3d373d3d3d363d7360601b81528260601b60148201526e5af43d82803e903d91602b57fd5bf360881b60288201526037816000f09150506001600160a01b0381166110955760405162461bcd60e51b8152600401610545906133a3565b606061157684846000856126f8565b600054610100900460ff16806124a357506124a3611c83565b806124b1575060005460ff16155b6124cd5760405162461bcd60e51b8152600401610545906133ff565b600054610100900460ff16158015612381576000805460ff1961ff0019909116610100171660011790558015612393576000805461ff001916905550565b600054610100900460ff16806125245750612524611c83565b80612532575060005460ff16155b61254e5760405162461bcd60e51b8152600401610545906133ff565b600054610100900460ff16158015612579576000805460ff1961ff0019909116610100171660011790555b6000612583611a90565b603380546001600160a01b0319166001600160a01b038316908117909155604051919250906000907f8be0079c531659141344cd1fd0a4f28419497f9722a3daafe3b4186f6b6457e0908290a3508015612393576000805461ff001916905550565b600054610100900460ff16806125fe57506125fe611c83565b8061260c575060005460ff16155b6126285760405162461bcd60e51b8152600401610545906133ff565b600054610100900460ff16158015612653576000805460ff1961ff0019909116610100171660011790555b6065805460ff191690558015612393576000805461ff001916905550565b600054610100900460ff168061268a575061268a611c83565b80612698575060005460ff16155b6126b45760405162461bcd60e51b8152600401610545906133ff565b600054610100900460ff161580156126df576000805460ff1961ff0019909116610100171660011790555b60016097558015612393576000805461ff001916905550565b60608247101561271a5760405162461bcd60e51b815260040161054590613220565b612723856122f5565b61273f5760405162461bcd60e51b815260040161054590613680565b600080866001600160a01b0316858760405161275b9190612f33565b60006040518083038185875af1925050503d8060008114612798576040519150601f19603f3d011682016040523d82523d6000602084013e61279d565b606091505b50915091506127ad8282866127b8565b979650505050505050565b606083156127c7575081611579565b8251156127d75782518084602001fd5b8160405162461bcd60e51b81526004016105459190613046565b828054828255906000526020600020908101928215612846579160200282015b8281111561284657825182546001600160a01b0319166001600160a01b03909116178255602090920191600190910190612811565b50612852929150612891565b5090565b828054828255906000526020600020908101928215612846579160200282015b82811115612846578251825591602001919060010190612876565b5b808211156128525760008155600101612892565b60006001600160401b038311156128bf576128bf613b66565b6128d2601f8401601f191660200161391b565b90508281528383830111156128e657600080fd5b828260208301376000602084830101529392505050565b803561109581613b7c565b600082601f830112612918578081fd5b8135602061292d61292883613944565b61391b565b8281528181019085830183850287018401881015612949578586fd5b855b8581101561297057813561295e81613b7c565b8452928401929084019060010161294b565b5090979650505050505050565b60008083601f84011261298e578182fd5b5081356001600160401b038111156129a4578182fd5b60208301915083602080830285010111156129be57600080fd5b9250929050565b600082601f8301126129d5578081fd5b813560206129e561292883613944565b8281528181019085830183850287018401881015612a01578586fd5b855b8581101561297057612a1482612a45565b84529284019290840190600101612a03565b600082601f830112612a36578081fd5b6108fb838335602085016128a6565b803560ff8116811461109557600080fd5b600060208284031215612a67578081fd5b81356108fb81613b7c565b60008060008060808587031215612a87578283fd5b8435612a9281613b7c565b93506020850135612aa281613b7c565b92506040850135915060608501356001600160401b03811115612ac3578182fd5b8501601f81018713612ad3578182fd5b612ae2878235602084016128a6565b91505092959194509250565b600080600080600080600080610100898b031215612b0a578384fd5b88356001600160401b0380821115612b20578586fd5b612b2c8c838d01612908565b995060208b0135915080821115612b41578586fd5b612b4d8c838d016129c5565b985060408b0135915080821115612b62578586fd5b612b6e8c838d01612a26565b975060608b0135915080821115612b83578586fd5b50612b908b828c01612a26565b9550506080890135935060a0890135925060c08901359150612bb460e08a016128fd565b90509295985092959890939650565b600080600060408486031215612bd7578283fd5b83356001600160401b03811115612bec578384fd5b612bf88682870161297d565b9094509250506020840135612c0c81613b91565b809150509250925092565b60008060008060608587031215612c2c578182fd5b84356001600160401b03811115612c41578283fd5b612c4d8782880161297d565b90989097506020870135966040013595509350505050565b60006020808385031215612c77578182fd5b82516001600160401b03811115612c8c578283fd5b8301601f81018513612c9c578283fd5b8051612caa61292882613944565b8181528381019083850185840285018601891015612cc6578687fd5b8694505b83851015612ce8578051835260019490940193918501918501612cca565b50979650505050505050565b600060208284031215612d05578081fd5b81356108fb81613b91565b600060208284031215612d21578081fd5b81516108fb81613b91565b600060208284031215612d3d578081fd5b5035919050565b600060208284031215612d55578081fd5b5051919050565b60008060008060608587031215612d71578182fd5b8435935060208501356001600160401b03811115612d8d578283fd5b612d998782880161297d565b9598909750949560400135949350505050565b60008060408385031215612dbe578182fd5b50508035926020909101359150565b60008060408385031215612ddf578182fd5b82359150612def60208401612a45565b90509250929050565b60008060008060808587031215612e0d578182fd5b84359350612e1d60208601612a45565b93969395505050506040820135916060013590565b600060208284031215612e43578081fd5b6108fb82612a45565b600080600060608486031215612e60578081fd5b612e6984612a45565b9250612e7760208501612a45565b9150604084013590509250925092565b600080600080600060a08688031215612e9e578283fd5b612ea786612a45565b9450612eb560208701612a45565b94979496505050506040830135926060810135926080909101359150565b81835260006001600160fb1b03831115612eeb578081fd5b6020830280836020870137939093016020019283525090919050565b60008151808452612f1f816020860160208601613ae9565b601f01601f19169290920160200192915050565b60008251612f45818460208701613ae9565b9190910192915050565b6001600160a01b0391909116815260200190565b6001600160a01b03868116825285166020820152604081018490526060810183905260a0608082018190526000906127ad90830184612f07565b6001600160a01b03929092168252602082015260400190565b6020808252825182820181905260009190848201906040850190845b81811015612ff75783516001600160a01b031683529284019291840191600101612fd2565b50909695505050505050565b6020808252825182820181905260009190848201906040850190845b81811015612ff75783518352928401929184019160010161301f565b901515815260200190565b6000602082526108fb6020830184612f07565b60006040825261306c6040830185612f07565b828103602084015261307e8185612f07565b95945050505050565b60208082526014908201527314185d5cd8589b194e881b9bdd081c185d5cd95960621b604082015260600190565b60208082526026908201527f4f776e61626c653a206e6577206f776e657220697320746865207a65726f206160408201526564647265737360d01b606082015260800190565b6020808252601b908201527f536166654d6174683a206164646974696f6e206f766572666c6f770000000000604082015260600190565b6020808252601a908201527f546f6b656e20646563696d616c732065786365656473206d6178000000000000604082015260600190565b6020808252600e908201526d1a5b9d985b1a5908185b5bdd5b9d60921b604082015260600190565b60208082526010908201526f4475706c696361746520746f6b656e7360801b604082015260600190565b6020808252601e908201527f536166654d6174683a207375627472616374696f6e206f766572666c6f770000604082015260600190565b602080825260149082015273151bdad95b88191bd95cc81b9bdd08195e1a5cdd60621b604082015260600190565b60208082526026908201527f416464726573733a20696e73756666696369656e742062616c616e636520666f6040820152651c8818d85b1b60d21b606082015260800190565b6020808252601a908201527f536166654d6174683a206469766973696f6e206279207a65726f000000000000604082015260600190565b60208082526018908201527f666c6173684c6f616e20666565206973206e6f74206d65740000000000000000604082015260600190565b6020808252601b908201527f6665657320617265206e6f7420696e2076616c69642072616e67650000000000604082015260600190565b60208082526019908201527f5f706f6f6c6564546f6b656e732e6c656e677468203e20333200000000000000604082015260600190565b60208082526019908201527f5f61646d696e4665652065786365656473206d6178696d756d00000000000000604082015260600190565b60208082526010908201526f14185d5cd8589b194e881c185d5cd95960821b604082015260600190565b602080825260169082015275115490cc4c4d8dce8818dc99585d194819985a5b195960521b604082015260600190565b6020808252601290820152715f612065786365656473206d6178696d756d60701b604082015260600190565b6020808252602e908201527f496e697469616c697a61626c653a20636f6e747261637420697320616c72656160408201526d191e481a5b9a5d1a585b1a5e995960921b606082015260800190565b6020808252601f908201527f616d6f756e7420697320736d616c6c20666f72206120666c6173684c6f616e00604082015260600190565b60208082526021908201527f536166654d6174683a206d756c7469706c69636174696f6e206f766572666c6f6040820152607760f81b606082015260800190565b6020808252601f908201527f5f706f6f6c6564546f6b656e7320646563696d616c73206d69736d6174636800604082015260600190565b60208082526019908201527f5f706f6f6c6564546f6b656e732e6c656e677468203c3d203100000000000000604082015260600190565b6020808252818101527f4f776e61626c653a2063616c6c6572206973206e6f7420746865206f776e6572604082015260600190565b60208082526010908201526f111958591b1a5b99481b9bdd081b595d60821b604082015260600190565b6020808252601c908201527f466c6173686c6f616e206973206e6f7420656e61626c65642079657400000000604082015260600190565b6020808252601d908201527f546865203020616464726573732069736e277420616e204552432d3230000000604082015260600190565b6020808252601490820152735f6665652065786365656473206d6178696d756d60601b604082015260600190565b6020808252600c908201526b4f7574206f662072616e676560a01b604082015260600190565b602080825260129082015271496e646578206f7574206f662072616e676560701b604082015260600190565b6020808252601d908201527f416464726573733a2063616c6c20746f206e6f6e2d636f6e7472616374000000604082015260600190565b6020808252602a908201527f5361666545524332303a204552433230206f7065726174696f6e20646964206e6040820152691bdd081cdd58d8d9595960b21b606082015260800190565b6020808252601f908201527f5265656e7472616e637947756172643a207265656e7472616e742063616c6c00604082015260600190565b6020808252601c908201527f636f756c64206e6f7420696e6974206c70546f6b656e20636c6f6e6500000000604082015260600190565b90815260200190565b9182526001600160a01b0316602082015260400190565b6000858252606060208301526137a9606083018587612ed3565b9050821515604083015295945050505050565b6000858252606060208301526137d6606083018587612ed3565b905082604083015295945050505050565b918252602082015260400190565b600085825284602083015260606040830152613815606083018486612ed3565b9695505050505050565b9283526020830191909152604082015260600190565b928352602083019190915260ff16604082015260600190565b938452602084019290925260ff166040830152606082015260800190565b93845260ff928316602085015291166040830152606082015260800190565b94855260ff93841660208601529190921660408401526060830191909152608082015260a00190565b968752602087019590955260408601939093526060850191909152608084015260a08301526001600160a01b031660c082015260e00190565b60ff91909116815260200190565b60ff94909416845260208401929092526040830152606082015260800190565b6040518181016001600160401b038111828210171561393c5761393c613b66565b604052919050565b60006001600160401b0382111561395d5761395d613b66565b5060209081020190565b6000821982111561397a5761397a613b50565b500190565b60008261399a57634e487b7160e01b81526012600452602481fd5b500490565b80825b60018086116139b157506139dc565b8187048211156139c3576139c3613b50565b808616156139d057918102915b9490941c9380026139a2565b94509492505050565b60006108fb60001984846000826139fe57506001611579565b81613a0b57506000611579565b8160018114613a215760028114613a2b57613a58565b6001915050611579565b60ff841115613a3c57613a3c613b50565b6001841b915084821115613a5257613a52613b50565b50611579565b5060208310610133831016604e8410600b8410161715613a8b575081810a83811115613a8657613a86613b50565b611579565b613a98848484600161399f565b808604821115613aaa57613aaa613b50565b02949350505050565b6000816000190483118215151615613acd57613acd613b50565b500290565b600082821015613ae457613ae4613b50565b500390565b60005b83811015613b04578181015183820152602001613aec565b838111156105bb5750506000910152565b6000600019821415613b2957613b29613b50565b5060010190565b600060ff821660ff811415613b4757613b47613b50565b60010192915050565b634e487b7160e01b600052601160045260246000fd5b634e487b7160e01b600052604160045260246000fd5b6001600160a01b038116811461239357600080fd5b801515811461239357600080fdfea26469706673582212206a24eed70c4b2a7df2a7b08e7cdc669113984ebdb24036eff270318eb106e05664736f6c63430008000033",
			"opcodes": "PUSH1 0x80 PUSH1 0x40 MSTORE PUSH1 0xD6 DUP1 SLOAD PUSH1 0xFF NOT AND SWAP1 SSTORE CALLVALUE DUP1 ISZERO PUSH2 0x1A JUMPI PUSH1 0x0 DUP1 REVERT JUMPDEST POP PUSH2 0x3BD5 DUP1 PUSH2 0x2A PUSH1 0x0 CODECOPY PUSH1 0x0 RETURN INVALID PUSH1 0x80 PUSH1 0x40 MSTORE CALLVALUE DUP1 ISZERO PUSH2 0x10 JUMPI PUSH1 0x0 DUP1 REVERT JUMPDEST POP PUSH1 0x4 CALLDATASIZE LT PUSH2 0x25E JUMPI PUSH1 0x0 CALLDATALOAD PUSH1 0xE0 SHR DUP1 PUSH4 0x8BEB60B6 GT PUSH2 0x146 JUMPI DUP1 PUSH4 0xD41F6568 GT PUSH2 0xC3 JUMPI DUP1 PUSH4 0xEF0A712F GT PUSH2 0x87 JUMPI DUP1 PUSH4 0xEF0A712F EQ PUSH2 0x4AA JUMPI DUP1 PUSH4 0xEF815967 EQ PUSH2 0x4BD JUMPI DUP1 PUSH4 0xEFEECB51 EQ PUSH2 0x4D0 JUMPI DUP1 PUSH4 0xF2FAD2B6 EQ PUSH2 0x4D8 JUMPI DUP1 PUSH4 0xF2FDE38B EQ PUSH2 0x4EB JUMPI DUP1 PUSH4 0xFD967F47 EQ PUSH2 0x4FE JUMPI PUSH2 0x25E JUMP JUMPDEST DUP1 PUSH4 0xD41F6568 EQ PUSH2 0x477 JUMPI DUP1 PUSH4 0xD46300FD EQ PUSH2 0x47F JUMPI DUP1 PUSH4 0xE25AA5FA EQ PUSH2 0x487 JUMPI DUP1 PUSH4 0xE6AB2806 EQ PUSH2 0x48F JUMPI DUP1 PUSH4 0xE8CC7FB6 EQ PUSH2 0x4A2 JUMPI PUSH2 0x25E JUMP JUMPDEST DUP1 PUSH4 0xA95B089F GT PUSH2 0x10A JUMPI DUP1 PUSH4 0xA95B089F EQ PUSH2 0x42C JUMPI DUP1 PUSH4 0xAA6CA808 EQ PUSH2 0x43F JUMPI DUP1 PUSH4 0xAE3FCB1F EQ PUSH2 0x454 JUMPI DUP1 PUSH4 0xB28CB6DC EQ PUSH2 0x45C JUMPI DUP1 PUSH4 0xC4DB7FA0 EQ PUSH2 0x46F JUMPI PUSH2 0x25E JUMP JUMPDEST DUP1 PUSH4 0x8BEB60B6 EQ PUSH2 0x3E3 JUMPI DUP1 PUSH4 0x8DA5CB5B EQ PUSH2 0x3F6 JUMPI DUP1 PUSH4 0x91695586 EQ PUSH2 0x3FE JUMPI DUP1 PUSH4 0x91CEB3EB EQ PUSH2 0x411 JUMPI DUP1 PUSH4 0xA1DC9031 EQ PUSH2 0x424 JUMPI PUSH2 0x25E JUMP JUMPDEST DUP1 PUSH4 0x593D132C GT PUSH2 0x1DF JUMPI DUP1 PUSH4 0x715018A6 GT PUSH2 0x1A3 JUMPI DUP1 PUSH4 0x715018A6 EQ PUSH2 0x390 JUMPI DUP1 PUSH4 0x7F1C825A EQ PUSH2 0x398 JUMPI DUP1 PUSH4 0x8214F5A4 EQ PUSH2 0x3A0 JUMPI DUP1 PUSH4 0x82B86600 EQ PUSH2 0x3B5 JUMPI DUP1 PUSH4 0x8456CB59 EQ PUSH2 0x3C8 JUMPI DUP1 PUSH4 0x84CDD9BC EQ PUSH2 0x3D0 JUMPI PUSH2 0x25E JUMP JUMPDEST DUP1 PUSH4 0x593D132C EQ PUSH2 0x31A JUMPI DUP1 PUSH4 0x5C975ABB EQ PUSH2 0x32D JUMPI DUP1 PUSH4 0x5CFFE9DE EQ PUSH2 0x342 JUMPI DUP1 PUSH4 0x5FD65F0F EQ PUSH2 0x355 JUMPI DUP1 PUSH4 0x66C0BD24 EQ PUSH2 0x370 JUMPI PUSH2 0x25E JUMP JUMPDEST DUP1 PUSH4 0x34E19907 GT PUSH2 0x226 JUMPI DUP1 PUSH4 0x34E19907 EQ PUSH2 0x2C6 JUMPI DUP1 PUSH4 0x3E3A1560 EQ PUSH2 0x2D9 JUMPI DUP1 PUSH4 0x3F4BA83A EQ PUSH2 0x2EC JUMPI DUP1 PUSH4 0x4BCDAFAC EQ PUSH2 0x2F4 JUMPI DUP1 PUSH4 0x4D49E87D EQ PUSH2 0x307 JUMPI PUSH2 0x25E JUMP JUMPDEST DUP1 PUSH4 0x419B45A EQ PUSH2 0x263 JUMPI DUP1 PUSH4 0xBA81959 EQ PUSH2 0x26D JUMPI DUP1 PUSH4 0x18F52CE2 EQ PUSH2 0x28B JUMPI DUP1 PUSH4 0x31CD52B0 EQ PUSH2 0x2A0 JUMPI DUP1 PUSH4 0x342A87A1 EQ PUSH2 0x2B3 JUMPI JUMPDEST PUSH1 0x0 DUP1 REVERT JUMPDEST PUSH2 0x26B PUSH2 0x506 JUMP JUMPDEST STOP JUMPDEST PUSH2 0x275 PUSH2 0x5C1 JUMP JUMPDEST PUSH1 0x40 MLOAD PUSH2 0x282 SWAP2 SWAP1 PUSH2 0x376F JUMP JUMPDEST PUSH1 0x40 MLOAD DUP1 SWAP2 SUB SWAP1 RETURN JUMPDEST PUSH2 0x293 PUSH2 0x651 JUMP JUMPDEST PUSH1 0x40 MLOAD PUSH2 0x282 SWAP2 SWAP1 PUSH2 0x3003 JUMP JUMPDEST PUSH2 0x293 PUSH2 0x2AE CALLDATASIZE PUSH1 0x4 PUSH2 0x2D5C JUMP JUMPDEST PUSH2 0x780 JUMP JUMPDEST PUSH2 0x275 PUSH2 0x2C1 CALLDATASIZE PUSH1 0x4 PUSH2 0x2DCD JUMP JUMPDEST PUSH2 0x86C JUMP JUMPDEST PUSH2 0x26B PUSH2 0x2D4 CALLDATASIZE PUSH1 0x4 PUSH2 0x2D2C JUMP JUMPDEST PUSH2 0x904 JUMP JUMPDEST PUSH2 0x275 PUSH2 0x2E7 CALLDATASIZE PUSH1 0x4 PUSH2 0x2DF8 JUMP JUMPDEST PUSH2 0x9B0 JUMP JUMPDEST PUSH2 0x26B PUSH2 0xAAE JUMP JUMPDEST PUSH2 0x26B PUSH2 0x302 CALLDATASIZE PUSH1 0x4 PUSH2 0x2CF4 JUMP JUMPDEST PUSH2 0xAF7 JUMP JUMPDEST PUSH2 0x275 PUSH2 0x315 CALLDATASIZE PUSH1 0x4 PUSH2 0x2C17 JUMP JUMPDEST PUSH2 0xB49 JUMP JUMPDEST PUSH2 0x26B PUSH2 0x328 CALLDATASIZE PUSH1 0x4 PUSH2 0x2DAC JUMP JUMPDEST PUSH2 0xBF7 JUMP JUMPDEST PUSH2 0x335 PUSH2 0xCA6 JUMP JUMPDEST PUSH1 0x40 MLOAD PUSH2 0x282 SWAP2 SWAP1 PUSH2 0x303B JUMP JUMPDEST PUSH2 0x26B PUSH2 0x350 CALLDATASIZE PUSH1 0x4 PUSH2 0x2A72 JUMP JUMPDEST PUSH2 0xCAF JUMP JUMPDEST PUSH2 0x35D PUSH2 0x1021 JUMP JUMPDEST PUSH1 0x40 MLOAD PUSH2 0x282 SWAP8 SWAP7 SWAP6 SWAP5 SWAP4 SWAP3 SWAP2 SWAP1 PUSH2 0x38B4 JUMP JUMPDEST PUSH2 0x383 PUSH2 0x37E CALLDATASIZE PUSH1 0x4 PUSH2 0x2A56 JUMP JUMPDEST PUSH2 0x1042 JUMP JUMPDEST PUSH1 0x40 MLOAD PUSH2 0x282 SWAP2 SWAP1 PUSH2 0x38ED JUMP JUMPDEST PUSH2 0x26B PUSH2 0x109A JUMP JUMPDEST PUSH2 0x275 PUSH2 0x1123 JUMP JUMPDEST PUSH2 0x3A8 PUSH2 0x1129 JUMP JUMPDEST PUSH1 0x40 MLOAD PUSH2 0x282 SWAP2 SWAP1 PUSH2 0x2F4F JUMP JUMPDEST PUSH2 0x3A8 PUSH2 0x3C3 CALLDATASIZE PUSH1 0x4 PUSH2 0x2E32 JUMP JUMPDEST PUSH2 0x1138 JUMP JUMPDEST PUSH2 0x26B PUSH2 0x119F JUMP JUMPDEST PUSH2 0x275 PUSH2 0x3DE CALLDATASIZE PUSH1 0x4 PUSH2 0x2C17 JUMP JUMPDEST PUSH2 0x11E6 JUMP JUMPDEST PUSH2 0x26B PUSH2 0x3F1 CALLDATASIZE PUSH1 0x4 PUSH2 0x2D2C JUMP JUMPDEST PUSH2 0x1294 JUMP JUMPDEST PUSH2 0x3A8 PUSH2 0x130D JUMP JUMPDEST PUSH2 0x275 PUSH2 0x40C CALLDATASIZE PUSH1 0x4 PUSH2 0x2E87 JUMP JUMPDEST PUSH2 0x131C JUMP JUMPDEST PUSH2 0x275 PUSH2 0x41F CALLDATASIZE PUSH1 0x4 PUSH2 0x2E32 JUMP JUMPDEST PUSH2 0x142C JUMP JUMPDEST PUSH2 0x293 PUSH2 0x148A JUMP JUMPDEST PUSH2 0x275 PUSH2 0x43A CALLDATASIZE PUSH1 0x4 PUSH2 0x2E4C JUMP JUMPDEST PUSH2 0x14E5 JUMP JUMPDEST PUSH2 0x447 PUSH2 0x1580 JUMP JUMPDEST PUSH1 0x40 MLOAD PUSH2 0x282 SWAP2 SWAP1 PUSH2 0x2FB6 JUMP JUMPDEST PUSH2 0x335 PUSH2 0x15E4 JUMP JUMPDEST PUSH2 0x26B PUSH2 0x46A CALLDATASIZE PUSH1 0x4 PUSH2 0x2AEE JUMP JUMPDEST PUSH2 0x15ED JUMP JUMPDEST PUSH2 0x26B PUSH2 0x1692 JUMP JUMPDEST PUSH2 0x293 PUSH2 0x1709 JUMP JUMPDEST PUSH2 0x275 PUSH2 0x1762 JUMP JUMPDEST PUSH2 0x275 PUSH2 0x179D JUMP JUMPDEST PUSH2 0x275 PUSH2 0x49D CALLDATASIZE PUSH1 0x4 PUSH2 0x2BC3 JUMP JUMPDEST PUSH2 0x17D8 JUMP JUMPDEST PUSH2 0x275 PUSH2 0x1819 JUMP JUMPDEST PUSH2 0x275 PUSH2 0x4B8 CALLDATASIZE PUSH1 0x4 PUSH2 0x2D2C JUMP JUMPDEST PUSH2 0x181F JUMP JUMPDEST PUSH2 0x26B PUSH2 0x4CB CALLDATASIZE PUSH1 0x4 PUSH2 0x2DAC JUMP JUMPDEST PUSH2 0x18AC JUMP JUMPDEST PUSH2 0x275 PUSH2 0x1932 JUMP JUMPDEST PUSH2 0x293 PUSH2 0x4E6 CALLDATASIZE PUSH1 0x4 PUSH2 0x2D2C JUMP JUMPDEST PUSH2 0x1938 JUMP JUMPDEST PUSH2 0x26B PUSH2 0x4F9 CALLDATASIZE PUSH1 0x4 PUSH2 0x2A56 JUMP JUMPDEST PUSH2 0x19C9 JUMP JUMPDEST PUSH2 0x275 PUSH2 0x1A8A JUMP JUMPDEST PUSH2 0x50E PUSH2 0x1A90 JUMP JUMPDEST PUSH1 0x1 PUSH1 0x1 PUSH1 0xA0 SHL SUB AND PUSH2 0x51F PUSH2 0x130D JUMP JUMPDEST PUSH1 0x1 PUSH1 0x1 PUSH1 0xA0 SHL SUB AND EQ PUSH2 0x54E JUMPI PUSH1 0x40 MLOAD PUSH3 0x461BCD PUSH1 0xE5 SHL DUP2 MSTORE PUSH1 0x4 ADD PUSH2 0x545 SWAP1 PUSH2 0x3533 JUMP JUMPDEST PUSH1 0x40 MLOAD DUP1 SWAP2 SUB SWAP1 REVERT JUMPDEST PUSH20 0x0 PUSH4 0x24C5C751 PUSH1 0xC9 PUSH2 0x572 PUSH2 0x130D JUMP JUMPDEST PUSH1 0x40 MLOAD DUP4 PUSH4 0xFFFFFFFF AND PUSH1 0xE0 SHL DUP2 MSTORE PUSH1 0x4 ADD PUSH2 0x58F SWAP3 SWAP2 SWAP1 PUSH2 0x3778 JUMP JUMPDEST PUSH1 0x0 PUSH1 0x40 MLOAD DUP1 DUP4 SUB DUP2 DUP7 DUP1 EXTCODESIZE ISZERO DUP1 ISZERO PUSH2 0x5A7 JUMPI PUSH1 0x0 DUP1 REVERT JUMPDEST POP GAS DELEGATECALL ISZERO DUP1 ISZERO PUSH2 0x5BB JUMPI RETURNDATASIZE PUSH1 0x0 DUP1 RETURNDATACOPY RETURNDATASIZE PUSH1 0x0 REVERT JUMPDEST POP POP POP POP JUMP JUMPDEST PUSH1 0x40 MLOAD PUSH4 0xC9B64DCB PUSH1 0xE0 SHL DUP2 MSTORE PUSH1 0x0 SWAP1 PUSH20 0x0 SWAP1 PUSH4 0xC9B64DCB SWAP1 PUSH2 0x5FC SWAP1 PUSH1 0xC9 SWAP1 PUSH1 0x4 ADD PUSH2 0x376F JUMP JUMPDEST PUSH1 0x20 PUSH1 0x40 MLOAD DUP1 DUP4 SUB DUP2 DUP7 DUP1 EXTCODESIZE ISZERO DUP1 ISZERO PUSH2 0x614 JUMPI PUSH1 0x0 DUP1 REVERT JUMPDEST POP GAS DELEGATECALL ISZERO DUP1 ISZERO PUSH2 0x628 JUMPI RETURNDATASIZE PUSH1 0x0 DUP1 RETURNDATACOPY RETURNDATASIZE PUSH1 0x0 REVERT JUMPDEST POP POP POP POP PUSH1 0x40 MLOAD RETURNDATASIZE PUSH1 0x1F NOT PUSH1 0x1F DUP3 ADD AND DUP3 ADD DUP1 PUSH1 0x40 MSTORE POP DUP2 ADD SWAP1 PUSH2 0x64C SWAP2 SWAP1 PUSH2 0x2D44 JUMP JUMPDEST SWAP1 POP SWAP1 JUMP JUMPDEST PUSH1 0xD0 SLOAD PUSH1 0x60 SWAP1 DUP1 PUSH1 0x1 PUSH1 0x1 PUSH1 0x40 SHL SUB DUP2 GT ISZERO PUSH2 0x67D JUMPI PUSH4 0x4E487B71 PUSH1 0xE0 SHL PUSH1 0x0 MSTORE PUSH1 0x41 PUSH1 0x4 MSTORE PUSH1 0x24 PUSH1 0x0 REVERT JUMPDEST PUSH1 0x40 MLOAD SWAP1 DUP1 DUP3 MSTORE DUP1 PUSH1 0x20 MUL PUSH1 0x20 ADD DUP3 ADD PUSH1 0x40 MSTORE DUP1 ISZERO PUSH2 0x6A6 JUMPI DUP2 PUSH1 0x20 ADD PUSH1 0x20 DUP3 MUL DUP1 CALLDATASIZE DUP4 CALLDATACOPY ADD SWAP1 POP JUMPDEST POP SWAP2 POP PUSH1 0x0 JUMPDEST DUP2 DUP2 LT ISZERO PUSH2 0x77B JUMPI PUSH1 0x40 MLOAD PUSH4 0x3E8240B PUSH1 0xE5 SHL DUP2 MSTORE PUSH20 0x0 SWAP1 PUSH4 0x7D048160 SWAP1 PUSH2 0x6EE SWAP1 PUSH1 0xC9 SWAP1 DUP6 SWAP1 PUSH1 0x4 ADD PUSH2 0x37E7 JUMP JUMPDEST PUSH1 0x20 PUSH1 0x40 MLOAD DUP1 DUP4 SUB DUP2 DUP7 DUP1 EXTCODESIZE ISZERO DUP1 ISZERO PUSH2 0x706 JUMPI PUSH1 0x0 DUP1 REVERT JUMPDEST POP GAS DELEGATECALL ISZERO DUP1 ISZERO PUSH2 0x71A JUMPI RETURNDATASIZE PUSH1 0x0 DUP1 RETURNDATACOPY RETURNDATASIZE PUSH1 0x0 REVERT JUMPDEST POP POP POP POP PUSH1 0x40 MLOAD RETURNDATASIZE PUSH1 0x1F NOT PUSH1 0x1F DUP3 ADD AND DUP3 ADD DUP1 PUSH1 0x40 MSTORE POP DUP2 ADD SWAP1 PUSH2 0x73E SWAP2 SWAP1 PUSH2 0x2D44 JUMP JUMPDEST DUP4 DUP3 DUP2 MLOAD DUP2 LT PUSH2 0x75E JUMPI PUSH4 0x4E487B71 PUSH1 0xE0 SHL PUSH1 0x0 MSTORE PUSH1 0x32 PUSH1 0x4 MSTORE PUSH1 0x24 PUSH1 0x0 REVERT JUMPDEST PUSH1 0x20 SWAP1 DUP2 MUL SWAP2 SWAP1 SWAP2 ADD ADD MSTORE DUP1 PUSH2 0x773 DUP2 PUSH2 0x3B15 JUMP JUMPDEST SWAP2 POP POP PUSH2 0x6AC JUMP JUMPDEST POP POP SWAP1 JUMP JUMPDEST PUSH1 0x60 PUSH1 0x2 PUSH1 0x97 SLOAD EQ ISZERO PUSH2 0x7A5 JUMPI PUSH1 0x40 MLOAD PUSH3 0x461BCD PUSH1 0xE5 SHL DUP2 MSTORE PUSH1 0x4 ADD PUSH2 0x545 SWAP1 PUSH2 0x3701 JUMP JUMPDEST PUSH1 0x2 PUSH1 0x97 SSTORE DUP2 TIMESTAMP DUP2 LT ISZERO PUSH2 0x7CB JUMPI PUSH1 0x40 MLOAD PUSH3 0x461BCD PUSH1 0xE5 SHL DUP2 MSTORE PUSH1 0x4 ADD PUSH2 0x545 SWAP1 PUSH2 0x3568 JUMP JUMPDEST PUSH1 0x40 MLOAD PUSH4 0x39FEB59F PUSH1 0xE1 SHL DUP2 MSTORE PUSH20 0x0 SWAP1 PUSH4 0x73FD6B3E SWAP1 PUSH2 0x809 SWAP1 PUSH1 0xC9 SWAP1 DUP11 SWAP1 DUP11 SWAP1 DUP11 SWAP1 PUSH1 0x4 ADD PUSH2 0x37F5 JUMP JUMPDEST PUSH1 0x0 PUSH1 0x40 MLOAD DUP1 DUP4 SUB DUP2 DUP7 DUP1 EXTCODESIZE ISZERO DUP1 ISZERO PUSH2 0x821 JUMPI PUSH1 0x0 DUP1 REVERT JUMPDEST POP GAS DELEGATECALL ISZERO DUP1 ISZERO PUSH2 0x835 JUMPI RETURNDATASIZE PUSH1 0x0 DUP1 RETURNDATACOPY RETURNDATASIZE PUSH1 0x0 REVERT JUMPDEST POP POP POP POP PUSH1 0x40 MLOAD RETURNDATASIZE PUSH1 0x0 DUP3 RETURNDATACOPY PUSH1 0x1F RETURNDATASIZE SWAP1 DUP2 ADD PUSH1 0x1F NOT AND DUP3 ADD PUSH1 0x40 MSTORE PUSH2 0x85D SWAP2 SWAP1 DUP2 ADD SWAP1 PUSH2 0x2C65 JUMP JUMPDEST PUSH1 0x1 PUSH1 0x97 SSTORE SWAP7 SWAP6 POP POP POP POP POP POP JUMP JUMPDEST PUSH1 0x40 MLOAD PUSH4 0x703493A1 PUSH1 0xE1 SHL DUP2 MSTORE PUSH1 0x0 SWAP1 PUSH20 0x0 SWAP1 PUSH4 0xE0692742 SWAP1 PUSH2 0x8AB SWAP1 PUSH1 0xC9 SWAP1 DUP8 SWAP1 DUP8 SWAP1 PUSH1 0x4 ADD PUSH2 0x3835 JUMP JUMPDEST PUSH1 0x20 PUSH1 0x40 MLOAD DUP1 DUP4 SUB DUP2 DUP7 DUP1 EXTCODESIZE ISZERO DUP1 ISZERO PUSH2 0x8C3 JUMPI PUSH1 0x0 DUP1 REVERT JUMPDEST POP GAS DELEGATECALL ISZERO DUP1 ISZERO PUSH2 0x8D7 JUMPI RETURNDATASIZE PUSH1 0x0 DUP1 RETURNDATACOPY RETURNDATASIZE PUSH1 0x0 REVERT JUMPDEST POP POP POP POP PUSH1 0x40 MLOAD RETURNDATASIZE PUSH1 0x1F NOT PUSH1 0x1F DUP3 ADD AND DUP3 ADD DUP1 PUSH1 0x40 MSTORE POP DUP2 ADD SWAP1 PUSH2 0x8FB SWAP2 SWAP1 PUSH2 0x2D44 JUMP JUMPDEST SWAP1 POP JUMPDEST SWAP3 SWAP2 POP POP JUMP JUMPDEST PUSH2 0x90C PUSH2 0x1A90 JUMP JUMPDEST PUSH1 0x1 PUSH1 0x1 PUSH1 0xA0 SHL SUB AND PUSH2 0x91D PUSH2 0x130D JUMP JUMPDEST PUSH1 0x1 PUSH1 0x1 PUSH1 0xA0 SHL SUB AND EQ PUSH2 0x943 JUMPI PUSH1 0x40 MLOAD PUSH3 0x461BCD PUSH1 0xE5 SHL DUP2 MSTORE PUSH1 0x4 ADD PUSH2 0x545 SWAP1 PUSH2 0x3533 JUMP JUMPDEST PUSH1 0x40 MLOAD PUSH4 0x119F861B PUSH1 0xE2 SHL DUP2 MSTORE PUSH20 0x0 SWAP1 PUSH4 0x467E186C SWAP1 PUSH2 0x97D SWAP1 PUSH1 0xC9 SWAP1 DUP6 SWAP1 PUSH1 0x4 ADD PUSH2 0x37E7 JUMP JUMPDEST PUSH1 0x0 PUSH1 0x40 MLOAD DUP1 DUP4 SUB DUP2 DUP7 DUP1 EXTCODESIZE ISZERO DUP1 ISZERO PUSH2 0x995 JUMPI PUSH1 0x0 DUP1 REVERT JUMPDEST POP GAS DELEGATECALL ISZERO DUP1 ISZERO PUSH2 0x9A9 JUMPI RETURNDATASIZE PUSH1 0x0 DUP1 RETURNDATACOPY RETURNDATASIZE PUSH1 0x0 REVERT JUMPDEST POP POP POP POP POP JUMP JUMPDEST PUSH1 0x0 PUSH1 0x2 PUSH1 0x97 SLOAD EQ ISZERO PUSH2 0x9D5 JUMPI PUSH1 0x40 MLOAD PUSH3 0x461BCD PUSH1 0xE5 SHL DUP2 MSTORE PUSH1 0x4 ADD PUSH2 0x545 SWAP1 PUSH2 0x3701 JUMP JUMPDEST PUSH1 0x2 PUSH1 0x97 SSTORE PUSH2 0x9E2 PUSH2 0xCA6 JUMP JUMPDEST ISZERO PUSH2 0x9FF JUMPI PUSH1 0x40 MLOAD PUSH3 0x461BCD PUSH1 0xE5 SHL DUP2 MSTORE PUSH1 0x4 ADD PUSH2 0x545 SWAP1 PUSH2 0x3379 JUMP JUMPDEST DUP2 DUP1 TIMESTAMP GT ISZERO PUSH2 0xA20 JUMPI PUSH1 0x40 MLOAD PUSH3 0x461BCD PUSH1 0xE5 SHL DUP2 MSTORE PUSH1 0x4 ADD PUSH2 0x545 SWAP1 PUSH2 0x3568 JUMP JUMPDEST PUSH1 0x40 MLOAD PUSH4 0xE7A4DB81 PUSH1 0xE0 SHL DUP2 MSTORE PUSH20 0x0 SWAP1 PUSH4 0xE7A4DB81 SWAP1 PUSH2 0xA5E SWAP1 PUSH1 0xC9 SWAP1 DUP11 SWAP1 DUP11 SWAP1 DUP11 SWAP1 PUSH1 0x4 ADD PUSH2 0x384E JUMP JUMPDEST PUSH1 0x20 PUSH1 0x40 MLOAD DUP1 DUP4 SUB DUP2 DUP7 DUP1 EXTCODESIZE ISZERO DUP1 ISZERO PUSH2 0xA76 JUMPI PUSH1 0x0 DUP1 REVERT JUMPDEST POP GAS DELEGATECALL ISZERO DUP1 ISZERO PUSH2 0xA8A JUMPI RETURNDATASIZE PUSH1 0x0 DUP1 RETURNDATACOPY RETURNDATASIZE PUSH1 0x0 REVERT JUMPDEST POP POP POP POP PUSH1 0x40 MLOAD RETURNDATASIZE PUSH1 0x1F NOT PUSH1 0x1F DUP3 ADD AND DUP3 ADD DUP1 PUSH1 0x40 MSTORE POP DUP2 ADD SWAP1 PUSH2 0x85D SWAP2 SWAP1 PUSH2 0x2D44 JUMP JUMPDEST PUSH2 0xAB6 PUSH2 0x1A90 JUMP JUMPDEST PUSH1 0x1 PUSH1 0x1 PUSH1 0xA0 SHL SUB AND PUSH2 0xAC7 PUSH2 0x130D JUMP JUMPDEST PUSH1 0x1 PUSH1 0x1 PUSH1 0xA0 SHL SUB AND EQ PUSH2 0xAED JUMPI PUSH1 0x40 MLOAD PUSH3 0x461BCD PUSH1 0xE5 SHL DUP2 MSTORE PUSH1 0x4 ADD PUSH2 0x545 SWAP1 PUSH2 0x3533 JUMP JUMPDEST PUSH2 0xAF5 PUSH2 0x1A94 JUMP JUMPDEST JUMP JUMPDEST PUSH2 0xAFF PUSH2 0x1A90 JUMP JUMPDEST PUSH1 0x1 PUSH1 0x1 PUSH1 0xA0 SHL SUB AND PUSH2 0xB10 PUSH2 0x130D JUMP JUMPDEST PUSH1 0x1 PUSH1 0x1 PUSH1 0xA0 SHL SUB AND EQ PUSH2 0xB36 JUMPI PUSH1 0x40 MLOAD PUSH3 0x461BCD PUSH1 0xE5 SHL DUP2 MSTORE PUSH1 0x4 ADD PUSH2 0x545 SWAP1 PUSH2 0x3533 JUMP JUMPDEST PUSH1 0xD6 DUP1 SLOAD PUSH1 0xFF NOT AND SWAP2 ISZERO ISZERO SWAP2 SWAP1 SWAP2 OR SWAP1 SSTORE JUMP JUMPDEST PUSH1 0x0 PUSH1 0x2 PUSH1 0x97 SLOAD EQ ISZERO PUSH2 0xB6E JUMPI PUSH1 0x40 MLOAD PUSH3 0x461BCD PUSH1 0xE5 SHL DUP2 MSTORE PUSH1 0x4 ADD PUSH2 0x545 SWAP1 PUSH2 0x3701 JUMP JUMPDEST PUSH1 0x2 PUSH1 0x97 SSTORE PUSH2 0xB7B PUSH2 0xCA6 JUMP JUMPDEST ISZERO PUSH2 0xB98 JUMPI PUSH1 0x40 MLOAD PUSH3 0x461BCD PUSH1 0xE5 SHL DUP2 MSTORE PUSH1 0x4 ADD PUSH2 0x545 SWAP1 PUSH2 0x3379 JUMP JUMPDEST DUP2 DUP1 TIMESTAMP GT ISZERO PUSH2 0xBB9 JUMPI PUSH1 0x40 MLOAD PUSH3 0x461BCD PUSH1 0xE5 SHL DUP2 MSTORE PUSH1 0x4 ADD PUSH2 0x545 SWAP1 PUSH2 0x3568 JUMP JUMPDEST PUSH1 0x40 MLOAD PUSH4 0x40370EDF PUSH1 0xE0 SHL DUP2 MSTORE PUSH20 0x0 SWAP1 PUSH4 0x40370EDF SWAP1 PUSH2 0xA5E SWAP1 PUSH1 0xC9 SWAP1 DUP11 SWAP1 DUP11 SWAP1 DUP11 SWAP1 PUSH1 0x4 ADD PUSH2 0x37BC JUMP JUMPDEST PUSH2 0xBFF PUSH2 0x1A90 JUMP JUMPDEST PUSH1 0x1 PUSH1 0x1 PUSH1 0xA0 SHL SUB AND PUSH2 0xC10 PUSH2 0x130D JUMP JUMPDEST PUSH1 0x1 PUSH1 0x1 PUSH1 0xA0 SHL SUB AND EQ PUSH2 0xC36 JUMPI PUSH1 0x40 MLOAD PUSH3 0x461BCD PUSH1 0xE5 SHL DUP2 MSTORE PUSH1 0x4 ADD PUSH2 0x545 SWAP1 PUSH2 0x3533 JUMP JUMPDEST PUSH1 0x40 MLOAD PUSH4 0x58FDD79B PUSH1 0xE0 SHL DUP2 MSTORE PUSH20 0x0 SWAP1 PUSH4 0x58FDD79B SWAP1 PUSH2 0xC72 SWAP1 PUSH1 0xC9 SWAP1 DUP7 SWAP1 DUP7 SWAP1 PUSH1 0x4 ADD PUSH2 0x381F JUMP JUMPDEST PUSH1 0x0 PUSH1 0x40 MLOAD DUP1 DUP4 SUB DUP2 DUP7 DUP1 EXTCODESIZE ISZERO DUP1 ISZERO PUSH2 0xC8A JUMPI PUSH1 0x0 DUP1 REVERT JUMPDEST POP GAS DELEGATECALL ISZERO DUP1 ISZERO PUSH2 0xC9E JUMPI RETURNDATASIZE PUSH1 0x0 DUP1 RETURNDATACOPY RETURNDATASIZE PUSH1 0x0 REVERT JUMPDEST POP POP POP POP POP POP JUMP JUMPDEST PUSH1 0x65 SLOAD PUSH1 0xFF AND SWAP1 JUMP JUMPDEST PUSH1 0x2 PUSH1 0x97 SLOAD EQ ISZERO PUSH2 0xCD2 JUMPI PUSH1 0x40 MLOAD PUSH3 0x461BCD PUSH1 0xE5 SHL DUP2 MSTORE PUSH1 0x4 ADD PUSH2 0x545 SWAP1 PUSH2 0x3701 JUMP JUMPDEST PUSH1 0x2 PUSH1 0x97 SSTORE PUSH1 0xD6 SLOAD PUSH1 0xFF AND PUSH2 0xCF9 JUMPI PUSH1 0x40 MLOAD PUSH3 0x461BCD PUSH1 0xE5 SHL DUP2 MSTORE PUSH1 0x4 ADD PUSH2 0x545 SWAP1 PUSH2 0x3592 JUMP JUMPDEST PUSH1 0x0 PUSH2 0xD04 DUP5 PUSH2 0x1042 JUMP JUMPDEST SWAP1 POP PUSH1 0x0 DUP5 PUSH1 0x1 PUSH1 0x1 PUSH1 0xA0 SHL SUB AND PUSH4 0x70A08231 ADDRESS PUSH1 0x40 MLOAD DUP3 PUSH4 0xFFFFFFFF AND PUSH1 0xE0 SHL DUP2 MSTORE PUSH1 0x4 ADD PUSH2 0xD34 SWAP2 SWAP1 PUSH2 0x2F4F JUMP JUMPDEST PUSH1 0x20 PUSH1 0x40 MLOAD DUP1 DUP4 SUB DUP2 DUP7 DUP1 EXTCODESIZE ISZERO DUP1 ISZERO PUSH2 0xD4C JUMPI PUSH1 0x0 DUP1 REVERT JUMPDEST POP GAS STATICCALL ISZERO DUP1 ISZERO PUSH2 0xD60 JUMPI RETURNDATASIZE PUSH1 0x0 DUP1 RETURNDATACOPY RETURNDATASIZE PUSH1 0x0 REVERT JUMPDEST POP POP POP POP PUSH1 0x40 MLOAD RETURNDATASIZE PUSH1 0x1F NOT PUSH1 0x1F DUP3 ADD AND DUP3 ADD DUP1 PUSH1 0x40 MSTORE POP DUP2 ADD SWAP1 PUSH2 0xD84 SWAP2 SWAP1 PUSH2 0x2D44 JUMP JUMPDEST SWAP1 POP PUSH1 0x0 PUSH2 0xDCC PUSH1 0xC9 PUSH1 0x9 ADD DUP5 PUSH1 0xFF AND DUP2 SLOAD DUP2 LT PUSH2 0xDB2 JUMPI PUSH4 0x4E487B71 PUSH1 0xE0 SHL PUSH1 0x0 MSTORE PUSH1 0x32 PUSH1 0x4 MSTORE PUSH1 0x24 PUSH1 0x0 REVERT JUMPDEST SWAP1 PUSH1 0x0 MSTORE PUSH1 0x20 PUSH1 0x0 KECCAK256 ADD SLOAD DUP4 PUSH2 0x1B02 SWAP1 SWAP2 SWAP1 PUSH4 0xFFFFFFFF AND JUMP JUMPDEST SWAP1 POP PUSH1 0x0 DUP6 GT DUP1 ISZERO PUSH2 0xDDE JUMPI POP DUP5 DUP3 LT ISZERO JUMPDEST PUSH2 0xDFA JUMPI PUSH1 0x40 MLOAD PUSH3 0x461BCD PUSH1 0xE5 SHL DUP2 MSTORE PUSH1 0x4 ADD PUSH2 0x545 SWAP1 PUSH2 0x3169 JUMP JUMPDEST PUSH1 0x0 PUSH2 0xE1D PUSH2 0x2710 PUSH2 0xE17 PUSH1 0xD4 SLOAD DUP10 PUSH2 0x1B2E SWAP1 SWAP2 SWAP1 PUSH4 0xFFFFFFFF AND JUMP JUMPDEST SWAP1 PUSH2 0x1B73 JUMP JUMPDEST SWAP1 POP PUSH1 0x0 PUSH2 0xE3C PUSH2 0x2710 PUSH2 0xE17 PUSH1 0xD5 SLOAD DUP6 PUSH2 0x1B2E SWAP1 SWAP2 SWAP1 PUSH4 0xFFFFFFFF AND JUMP JUMPDEST SWAP1 POP PUSH1 0x0 DUP3 GT PUSH2 0xE5E JUMPI PUSH1 0x40 MLOAD PUSH3 0x461BCD PUSH1 0xE5 SHL DUP2 MSTORE PUSH1 0x4 ADD PUSH2 0x545 SWAP1 PUSH2 0x344D JUMP JUMPDEST PUSH2 0xE72 PUSH1 0x1 PUSH1 0x1 PUSH1 0xA0 SHL SUB DUP10 AND DUP11 DUP10 PUSH2 0x1B9E JUMP JUMPDEST PUSH1 0x40 MLOAD PUSH4 0x405B019D PUSH1 0xE0 SHL DUP2 MSTORE PUSH1 0x1 PUSH1 0x1 PUSH1 0xA0 SHL SUB DUP11 AND SWAP1 PUSH4 0x405B019D SWAP1 PUSH2 0xEA6 SWAP1 ADDRESS SWAP1 DUP13 SWAP1 DUP13 SWAP1 DUP9 SWAP1 DUP14 SWAP1 PUSH1 0x4 ADD PUSH2 0x2F63 JUMP JUMPDEST PUSH1 0x0 PUSH1 0x40 MLOAD DUP1 DUP4 SUB DUP2 PUSH1 0x0 DUP8 DUP1 EXTCODESIZE ISZERO DUP1 ISZERO PUSH2 0xEC0 JUMPI PUSH1 0x0 DUP1 REVERT JUMPDEST POP GAS CALL ISZERO DUP1 ISZERO PUSH2 0xED4 JUMPI RETURNDATASIZE PUSH1 0x0 DUP1 RETURNDATACOPY RETURNDATASIZE PUSH1 0x0 REVERT JUMPDEST POP POP PUSH1 0x40 MLOAD PUSH4 0x70A08231 PUSH1 0xE0 SHL DUP2 MSTORE PUSH1 0x0 SWAP3 POP PUSH1 0x1 PUSH1 0x1 PUSH1 0xA0 SHL SUB DUP12 AND SWAP2 POP PUSH4 0x70A08231 SWAP1 PUSH2 0xF07 SWAP1 ADDRESS SWAP1 PUSH1 0x4 ADD PUSH2 0x2F4F JUMP JUMPDEST PUSH1 0x20 PUSH1 0x40 MLOAD DUP1 DUP4 SUB DUP2 DUP7 DUP1 EXTCODESIZE ISZERO DUP1 ISZERO PUSH2 0xF1F JUMPI PUSH1 0x0 DUP1 REVERT JUMPDEST POP GAS STATICCALL ISZERO DUP1 ISZERO PUSH2 0xF33 JUMPI RETURNDATASIZE PUSH1 0x0 DUP1 RETURNDATACOPY RETURNDATASIZE PUSH1 0x0 REVERT JUMPDEST POP POP POP POP PUSH1 0x40 MLOAD RETURNDATASIZE PUSH1 0x1F NOT PUSH1 0x1F DUP3 ADD AND DUP3 ADD DUP1 PUSH1 0x40 MSTORE POP DUP2 ADD SWAP1 PUSH2 0xF57 SWAP2 SWAP1 PUSH2 0x2D44 JUMP JUMPDEST SWAP1 POP PUSH2 0xF63 DUP6 DUP5 PUSH2 0x1BF9 JUMP JUMPDEST DUP2 LT ISZERO PUSH2 0xF82 JUMPI PUSH1 0x40 MLOAD PUSH3 0x461BCD PUSH1 0xE5 SHL DUP2 MSTORE PUSH1 0x4 ADD PUSH2 0x545 SWAP1 PUSH2 0x329D JUMP JUMPDEST PUSH2 0xF96 DUP3 PUSH2 0xF90 DUP4 DUP8 PUSH2 0x1B02 JUMP JUMPDEST SWAP1 PUSH2 0x1B02 JUMP JUMPDEST PUSH1 0xD2 DUP1 SLOAD PUSH1 0xFF DUP10 AND SWAP1 DUP2 LT PUSH2 0xFBB JUMPI PUSH4 0x4E487B71 PUSH1 0xE0 SHL PUSH1 0x0 MSTORE PUSH1 0x32 PUSH1 0x4 MSTORE PUSH1 0x24 PUSH1 0x0 REVERT JUMPDEST SWAP1 PUSH1 0x0 MSTORE PUSH1 0x20 PUSH1 0x0 KECCAK256 ADD DUP2 SWAP1 SSTORE POP DUP10 PUSH1 0x1 PUSH1 0x1 PUSH1 0xA0 SHL SUB AND PUSH32 0x7C186B2827B23E9024E7B29869CBA58A97A4BAC6567802A8EA6A8AFA7B8C22F0 DUP8 DUP11 DUP7 DUP7 PUSH1 0x40 MLOAD PUSH2 0x1008 SWAP5 SWAP4 SWAP3 SWAP2 SWAP1 PUSH2 0x38FB JUMP JUMPDEST PUSH1 0x40 MLOAD DUP1 SWAP2 SUB SWAP1 LOG2 POP POP PUSH1 0x1 PUSH1 0x97 SSTORE POP POP POP POP POP POP POP POP JUMP JUMPDEST PUSH1 0xC9 SLOAD PUSH1 0xCA SLOAD PUSH1 0xCB SLOAD PUSH1 0xCC SLOAD PUSH1 0xCD SLOAD PUSH1 0xCE SLOAD PUSH1 0xCF SLOAD PUSH1 0x1 PUSH1 0x1 PUSH1 0xA0 SHL SUB AND DUP8 JUMP JUMPDEST PUSH1 0x1 PUSH1 0x1 PUSH1 0xA0 SHL SUB DUP2 AND PUSH1 0x0 DUP2 DUP2 MSTORE PUSH1 0xD3 PUSH1 0x20 MSTORE PUSH1 0x40 DUP2 KECCAK256 SLOAD SWAP1 SWAP2 PUSH1 0xFF SWAP1 SWAP2 AND SWAP1 PUSH2 0x106C DUP3 PUSH2 0x1138 JUMP JUMPDEST PUSH1 0x1 PUSH1 0x1 PUSH1 0xA0 SHL SUB AND EQ PUSH2 0x1092 JUMPI PUSH1 0x40 MLOAD PUSH3 0x461BCD PUSH1 0xE5 SHL DUP2 MSTORE PUSH1 0x4 ADD PUSH2 0x545 SWAP1 PUSH2 0x31F2 JUMP JUMPDEST SWAP1 POP JUMPDEST SWAP2 SWAP1 POP JUMP JUMPDEST PUSH2 0x10A2 PUSH2 0x1A90 JUMP JUMPDEST PUSH1 0x1 PUSH1 0x1 PUSH1 0xA0 SHL SUB AND PUSH2 0x10B3 PUSH2 0x130D JUMP JUMPDEST PUSH1 0x1 PUSH1 0x1 PUSH1 0xA0 SHL SUB AND EQ PUSH2 0x10D9 JUMPI PUSH1 0x40 MLOAD PUSH3 0x461BCD PUSH1 0xE5 SHL DUP2 MSTORE PUSH1 0x4 ADD PUSH2 0x545 SWAP1 PUSH2 0x3533 JUMP JUMPDEST PUSH1 0x33 SLOAD PUSH1 0x40 MLOAD PUSH1 0x0 SWAP2 PUSH1 0x1 PUSH1 0x1 PUSH1 0xA0 SHL SUB AND SWAP1 PUSH32 0x8BE0079C531659141344CD1FD0A4F28419497F9722A3DAAFE3B4186F6B6457E0 SWAP1 DUP4 SWAP1 LOG3 PUSH1 0x33 DUP1 SLOAD PUSH1 0x1 PUSH1 0x1 PUSH1 0xA0 SHL SUB NOT AND SWAP1 SSTORE JUMP JUMPDEST PUSH1 0xD4 SLOAD DUP2 JUMP JUMPDEST PUSH1 0xCF SLOAD PUSH1 0x1 PUSH1 0x1 PUSH1 0xA0 SHL SUB AND SWAP1 JUMP JUMPDEST PUSH1 0xD0 SLOAD PUSH1 0x0 SWAP1 PUSH1 0xFF DUP4 AND LT PUSH2 0x115F JUMPI PUSH1 0x40 MLOAD PUSH3 0x461BCD PUSH1 0xE5 SHL DUP2 MSTORE PUSH1 0x4 ADD PUSH2 0x545 SWAP1 PUSH2 0x362E JUMP JUMPDEST PUSH1 0xD0 DUP1 SLOAD PUSH1 0xFF DUP5 AND SWAP1 DUP2 LT PUSH2 0x1184 JUMPI PUSH4 0x4E487B71 PUSH1 0xE0 SHL PUSH1 0x0 MSTORE PUSH1 0x32 PUSH1 0x4 MSTORE PUSH1 0x24 PUSH1 0x0 REVERT JUMPDEST PUSH1 0x0 SWAP2 DUP3 MSTORE PUSH1 0x20 SWAP1 SWAP2 KECCAK256 ADD SLOAD PUSH1 0x1 PUSH1 0x1 PUSH1 0xA0 SHL SUB AND SWAP3 SWAP2 POP POP JUMP JUMPDEST PUSH2 0x11A7 PUSH2 0x1A90 JUMP JUMPDEST PUSH1 0x1 PUSH1 0x1 PUSH1 0xA0 SHL SUB AND PUSH2 0x11B8 PUSH2 0x130D JUMP JUMPDEST PUSH1 0x1 PUSH1 0x1 PUSH1 0xA0 SHL SUB AND EQ PUSH2 0x11DE JUMPI PUSH1 0x40 MLOAD PUSH3 0x461BCD PUSH1 0xE5 SHL DUP2 MSTORE PUSH1 0x4 ADD PUSH2 0x545 SWAP1 PUSH2 0x3533 JUMP JUMPDEST PUSH2 0xAF5 PUSH2 0x1C28 JUMP JUMPDEST PUSH1 0x0 PUSH1 0x2 PUSH1 0x97 SLOAD EQ ISZERO PUSH2 0x120B JUMPI PUSH1 0x40 MLOAD PUSH3 0x461BCD PUSH1 0xE5 SHL DUP2 MSTORE PUSH1 0x4 ADD PUSH2 0x545 SWAP1 PUSH2 0x3701 JUMP JUMPDEST PUSH1 0x2 PUSH1 0x97 SSTORE PUSH2 0x1218 PUSH2 0xCA6 JUMP JUMPDEST ISZERO PUSH2 0x1235 JUMPI PUSH1 0x40 MLOAD PUSH3 0x461BCD PUSH1 0xE5 SHL DUP2 MSTORE PUSH1 0x4 ADD PUSH2 0x545 SWAP1 PUSH2 0x3379 JUMP JUMPDEST DUP2 DUP1 TIMESTAMP GT ISZERO PUSH2 0x1256 JUMPI PUSH1 0x40 MLOAD PUSH3 0x461BCD PUSH1 0xE5 SHL DUP2 MSTORE PUSH1 0x4 ADD PUSH2 0x545 SWAP1 PUSH2 0x3568 JUMP JUMPDEST PUSH1 0x40 MLOAD PUSH4 0x20DC8E13 PUSH1 0xE1 SHL DUP2 MSTORE PUSH20 0x0 SWAP1 PUSH4 0x41B91C26 SWAP1 PUSH2 0xA5E SWAP1 PUSH1 0xC9 SWAP1 DUP11 SWAP1 DUP11 SWAP1 DUP11 SWAP1 PUSH1 0x4 ADD PUSH2 0x37BC JUMP JUMPDEST PUSH2 0x129C PUSH2 0x1A90 JUMP JUMPDEST PUSH1 0x1 PUSH1 0x1 PUSH1 0xA0 SHL SUB AND PUSH2 0x12AD PUSH2 0x130D JUMP JUMPDEST PUSH1 0x1 PUSH1 0x1 PUSH1 0xA0 SHL SUB AND EQ PUSH2 0x12D3 JUMPI PUSH1 0x40 MLOAD PUSH3 0x461BCD PUSH1 0xE5 SHL DUP2 MSTORE PUSH1 0x4 ADD PUSH2 0x545 SWAP1 PUSH2 0x3533 JUMP JUMPDEST PUSH1 0x40 MLOAD PUSH4 0x3823393B PUSH1 0xE1 SHL DUP2 MSTORE PUSH20 0x0 SWAP1 PUSH4 0x70467276 SWAP1 PUSH2 0x97D SWAP1 PUSH1 0xC9 SWAP1 DUP6 SWAP1 PUSH1 0x4 ADD PUSH2 0x37E7 JUMP JUMPDEST PUSH1 0x33 SLOAD PUSH1 0x1 PUSH1 0x1 PUSH1 0xA0 SHL SUB AND SWAP1 JUMP JUMPDEST PUSH1 0x0 PUSH1 0x2 PUSH1 0x97 SLOAD EQ ISZERO PUSH2 0x1341 JUMPI PUSH1 0x40 MLOAD PUSH3 0x461BCD PUSH1 0xE5 SHL DUP2 MSTORE PUSH1 0x4 ADD PUSH2 0x545 SWAP1 PUSH2 0x3701 JUMP JUMPDEST PUSH1 0x2 PUSH1 0x97 SSTORE PUSH2 0x134E PUSH2 0xCA6 JUMP JUMPDEST ISZERO PUSH2 0x136B JUMPI PUSH1 0x40 MLOAD PUSH3 0x461BCD PUSH1 0xE5 SHL DUP2 MSTORE PUSH1 0x4 ADD PUSH2 0x545 SWAP1 PUSH2 0x3379 JUMP JUMPDEST DUP2 DUP1 TIMESTAMP GT ISZERO PUSH2 0x138C JUMPI PUSH1 0x40 MLOAD PUSH3 0x461BCD PUSH1 0xE5 SHL DUP2 MSTORE PUSH1 0x4 ADD PUSH2 0x545 SWAP1 PUSH2 0x3568 JUMP JUMPDEST PUSH1 0x40 MLOAD PUSH4 0x529CBD91 PUSH1 0xE1 SHL DUP2 MSTORE PUSH20 0x0 SWAP1 PUSH4 0xA5397B22 SWAP1 PUSH2 0x13CC SWAP1 PUSH1 0xC9 SWAP1 DUP12 SWAP1 DUP12 SWAP1 DUP12 SWAP1 DUP12 SWAP1 PUSH1 0x4 ADD PUSH2 0x388B JUMP JUMPDEST PUSH1 0x20 PUSH1 0x40 MLOAD DUP1 DUP4 SUB DUP2 DUP7 DUP1 EXTCODESIZE ISZERO DUP1 ISZERO PUSH2 0x13E4 JUMPI PUSH1 0x0 DUP1 REVERT JUMPDEST POP GAS DELEGATECALL ISZERO DUP1 ISZERO PUSH2 0x13F8 JUMPI RETURNDATASIZE PUSH1 0x0 DUP1 RETURNDATACOPY RETURNDATASIZE PUSH1 0x0 REVERT JUMPDEST POP POP POP POP PUSH1 0x40 MLOAD RETURNDATASIZE PUSH1 0x1F NOT PUSH1 0x1F DUP3 ADD AND DUP3 ADD DUP1 PUSH1 0x40 MSTORE POP DUP2 ADD SWAP1 PUSH2 0x141C SWAP2 SWAP1 PUSH2 0x2D44 JUMP JUMPDEST PUSH1 0x1 PUSH1 0x97 SSTORE SWAP8 SWAP7 POP POP POP POP POP POP POP JUMP JUMPDEST PUSH1 0xD0 SLOAD PUSH1 0x0 SWAP1 PUSH1 0xFF DUP4 AND LT PUSH2 0x1453 JUMPI PUSH1 0x40 MLOAD PUSH3 0x461BCD PUSH1 0xE5 SHL DUP2 MSTORE PUSH1 0x4 ADD PUSH2 0x545 SWAP1 PUSH2 0x3654 JUMP JUMPDEST PUSH1 0xD2 DUP1 SLOAD PUSH1 0xFF DUP5 AND SWAP1 DUP2 LT PUSH2 0x1478 JUMPI PUSH4 0x4E487B71 PUSH1 0xE0 SHL PUSH1 0x0 MSTORE PUSH1 0x32 PUSH1 0x4 MSTORE PUSH1 0x24 PUSH1 0x0 REVERT JUMPDEST SWAP1 PUSH1 0x0 MSTORE PUSH1 0x20 PUSH1 0x0 KECCAK256 ADD SLOAD SWAP1 POP SWAP2 SWAP1 POP JUMP JUMPDEST PUSH1 0x60 PUSH1 0xC9 PUSH1 0x9 ADD DUP1 SLOAD DUP1 PUSH1 0x20 MUL PUSH1 0x20 ADD PUSH1 0x40 MLOAD SWAP1 DUP2 ADD PUSH1 0x40 MSTORE DUP1 SWAP3 SWAP2 SWAP1 DUP2 DUP2 MSTORE PUSH1 0x20 ADD DUP3 DUP1 SLOAD DUP1 ISZERO PUSH2 0x14DB JUMPI PUSH1 0x20 MUL DUP3 ADD SWAP2 SWAP1 PUSH1 0x0 MSTORE PUSH1 0x20 PUSH1 0x0 KECCAK256 SWAP1 JUMPDEST DUP2 SLOAD DUP2 MSTORE PUSH1 0x20 ADD SWAP1 PUSH1 0x1 ADD SWAP1 DUP1 DUP4 GT PUSH2 0x14C7 JUMPI JUMPDEST POP POP POP POP POP SWAP1 POP SWAP1 JUMP JUMPDEST PUSH1 0x40 MLOAD PUSH4 0x12C8D80F PUSH1 0xE2 SHL DUP2 MSTORE PUSH1 0x0 SWAP1 PUSH20 0x0 SWAP1 PUSH4 0x4B23603C SWAP1 PUSH2 0x1526 SWAP1 PUSH1 0xC9 SWAP1 DUP9 SWAP1 DUP9 SWAP1 DUP9 SWAP1 PUSH1 0x4 ADD PUSH2 0x386C JUMP JUMPDEST PUSH1 0x20 PUSH1 0x40 MLOAD DUP1 DUP4 SUB DUP2 DUP7 DUP1 EXTCODESIZE ISZERO DUP1 ISZERO PUSH2 0x153E JUMPI PUSH1 0x0 DUP1 REVERT JUMPDEST POP GAS DELEGATECALL ISZERO DUP1 ISZERO PUSH2 0x1552 JUMPI RETURNDATASIZE PUSH1 0x0 DUP1 RETURNDATACOPY RETURNDATASIZE PUSH1 0x0 REVERT JUMPDEST POP POP POP POP PUSH1 0x40 MLOAD RETURNDATASIZE PUSH1 0x1F NOT PUSH1 0x1F DUP3 ADD AND DUP3 ADD DUP1 PUSH1 0x40 MSTORE POP DUP2 ADD SWAP1 PUSH2 0x1576 SWAP2 SWAP1 PUSH2 0x2D44 JUMP JUMPDEST SWAP1 POP JUMPDEST SWAP4 SWAP3 POP POP POP JUMP JUMPDEST PUSH1 0x60 PUSH1 0xC9 PUSH1 0x7 ADD DUP1 SLOAD DUP1 PUSH1 0x20 MUL PUSH1 0x20 ADD PUSH1 0x40 MLOAD SWAP1 DUP2 ADD PUSH1 0x40 MSTORE DUP1 SWAP3 SWAP2 SWAP1 DUP2 DUP2 MSTORE PUSH1 0x20 ADD DUP3 DUP1 SLOAD DUP1 ISZERO PUSH2 0x14DB JUMPI PUSH1 0x20 MUL DUP3 ADD SWAP2 SWAP1 PUSH1 0x0 MSTORE PUSH1 0x20 PUSH1 0x0 KECCAK256 SWAP1 JUMPDEST DUP2 SLOAD PUSH1 0x1 PUSH1 0x1 PUSH1 0xA0 SHL SUB AND DUP2 MSTORE PUSH1 0x1 SWAP1 SWAP2 ADD SWAP1 PUSH1 0x20 ADD DUP1 DUP4 GT PUSH2 0x15BD JUMPI POP POP POP POP POP SWAP1 POP SWAP1 JUMP JUMPDEST PUSH1 0xD6 SLOAD PUSH1 0xFF AND DUP2 JUMP JUMPDEST PUSH1 0x0 SLOAD PUSH2 0x100 SWAP1 DIV PUSH1 0xFF AND DUP1 PUSH2 0x1606 JUMPI POP PUSH2 0x1606 PUSH2 0x1C83 JUMP JUMPDEST DUP1 PUSH2 0x1614 JUMPI POP PUSH1 0x0 SLOAD PUSH1 0xFF AND ISZERO JUMPDEST PUSH2 0x1630 JUMPI PUSH1 0x40 MLOAD PUSH3 0x461BCD PUSH1 0xE5 SHL DUP2 MSTORE PUSH1 0x4 ADD PUSH2 0x545 SWAP1 PUSH2 0x33FF JUMP JUMPDEST PUSH1 0x0 SLOAD PUSH2 0x100 SWAP1 DIV PUSH1 0xFF AND ISZERO DUP1 ISZERO PUSH2 0x165B JUMPI PUSH1 0x0 DUP1 SLOAD PUSH1 0xFF NOT PUSH2 0xFF00 NOT SWAP1 SWAP2 AND PUSH2 0x100 OR AND PUSH1 0x1 OR SWAP1 SSTORE JUMPDEST PUSH2 0x166B DUP10 DUP10 DUP10 DUP10 DUP10 DUP10 DUP10 DUP10 PUSH2 0x1C94 JUMP JUMPDEST PUSH1 0x8 PUSH1 0xD4 SSTORE PUSH1 0x0 PUSH1 0xD5 SSTORE DUP1 ISZERO PUSH2 0x1687 JUMPI PUSH1 0x0 DUP1 SLOAD PUSH2 0xFF00 NOT AND SWAP1 SSTORE JUMPDEST POP POP POP POP POP POP POP POP POP JUMP JUMPDEST PUSH2 0x169A PUSH2 0x1A90 JUMP JUMPDEST PUSH1 0x1 PUSH1 0x1 PUSH1 0xA0 SHL SUB AND PUSH2 0x16AB PUSH2 0x130D JUMP JUMPDEST PUSH1 0x1 PUSH1 0x1 PUSH1 0xA0 SHL SUB AND EQ PUSH2 0x16D1 JUMPI PUSH1 0x40 MLOAD PUSH3 0x461BCD PUSH1 0xE5 SHL DUP2 MSTORE PUSH1 0x4 ADD PUSH2 0x545 SWAP1 PUSH2 0x3533 JUMP JUMPDEST PUSH1 0x40 MLOAD PUSH4 0x78A7108F PUSH1 0xE1 SHL DUP2 MSTORE PUSH20 0x0 SWAP1 PUSH4 0xF14E211E SWAP1 PUSH2 0x58F SWAP1 PUSH1 0xC9 SWAP1 PUSH1 0x4 ADD PUSH2 0x376F JUMP JUMPDEST PUSH1 0x60 PUSH1 0xC9 PUSH1 0x8 ADD DUP1 SLOAD DUP1 PUSH1 0x20 MUL PUSH1 0x20 ADD PUSH1 0x40 MLOAD SWAP1 DUP2 ADD PUSH1 0x40 MSTORE DUP1 SWAP3 SWAP2 SWAP1 DUP2 DUP2 MSTORE PUSH1 0x20 ADD DUP3 DUP1 SLOAD DUP1 ISZERO PUSH2 0x14DB JUMPI PUSH1 0x20 MUL DUP3 ADD SWAP2 SWAP1 PUSH1 0x0 MSTORE PUSH1 0x20 PUSH1 0x0 KECCAK256 SWAP1 DUP2 SLOAD DUP2 MSTORE PUSH1 0x20 ADD SWAP1 PUSH1 0x1 ADD SWAP1 DUP1 DUP4 GT PUSH2 0x14C7 JUMPI POP POP POP POP POP SWAP1 POP SWAP1 JUMP JUMPDEST PUSH1 0x40 MLOAD PUSH4 0x2C28533F PUSH1 0xE2 SHL DUP2 MSTORE PUSH1 0x0 SWAP1 PUSH20 0x0 SWAP1 PUSH4 0xB0A14CFC SWAP1 PUSH2 0x5FC SWAP1 PUSH1 0xC9 SWAP1 PUSH1 0x4 ADD PUSH2 0x376F JUMP JUMPDEST PUSH1 0x40 MLOAD PUSH4 0x1C641B0B PUSH1 0xE2 SHL DUP2 MSTORE PUSH1 0x0 SWAP1 PUSH20 0x0 SWAP1 PUSH4 0x71906C2C SWAP1 PUSH2 0x5FC SWAP1 PUSH1 0xC9 SWAP1 PUSH1 0x4 ADD PUSH2 0x376F JUMP JUMPDEST PUSH1 0x40 MLOAD PUSH4 0x834B491 PUSH1 0xE4 SHL DUP2 MSTORE PUSH1 0x0 SWAP1 PUSH20 0x0 SWAP1 PUSH4 0x834B4910 SWAP1 PUSH2 0x1526 SWAP1 PUSH1 0xC9 SWAP1 DUP9 SWAP1 DUP9 SWAP1 DUP9 SWAP1 PUSH1 0x4 ADD PUSH2 0x378F JUMP JUMPDEST PUSH1 0xD5 SLOAD DUP2 JUMP JUMPDEST PUSH1 0x40 MLOAD PUSH4 0x3E8240B PUSH1 0xE5 SHL DUP2 MSTORE PUSH1 0x0 SWAP1 PUSH20 0x0 SWAP1 PUSH4 0x7D048160 SWAP1 PUSH2 0x185C SWAP1 PUSH1 0xC9 SWAP1 DUP7 SWAP1 PUSH1 0x4 ADD PUSH2 0x37E7 JUMP JUMPDEST PUSH1 0x20 PUSH1 0x40 MLOAD DUP1 DUP4 SUB DUP2 DUP7 DUP1 EXTCODESIZE ISZERO DUP1 ISZERO PUSH2 0x1874 JUMPI PUSH1 0x0 DUP1 REVERT JUMPDEST POP GAS DELEGATECALL ISZERO DUP1 ISZERO PUSH2 0x1888 JUMPI RETURNDATASIZE PUSH1 0x0 DUP1 RETURNDATACOPY RETURNDATASIZE PUSH1 0x0 REVERT JUMPDEST POP POP POP POP PUSH1 0x40 MLOAD RETURNDATASIZE PUSH1 0x1F NOT PUSH1 0x1F DUP3 ADD AND DUP3 ADD DUP1 PUSH1 0x40 MSTORE POP DUP2 ADD SWAP1 PUSH2 0x1092 SWAP2 SWAP1 PUSH2 0x2D44 JUMP JUMPDEST PUSH2 0x18B4 PUSH2 0x1A90 JUMP JUMPDEST PUSH1 0x1 PUSH1 0x1 PUSH1 0xA0 SHL SUB AND PUSH2 0x18C5 PUSH2 0x130D JUMP JUMPDEST PUSH1 0x1 PUSH1 0x1 PUSH1 0xA0 SHL SUB AND EQ PUSH2 0x18EB JUMPI PUSH1 0x40 MLOAD PUSH3 0x461BCD PUSH1 0xE5 SHL DUP2 MSTORE PUSH1 0x4 ADD PUSH2 0x545 SWAP1 PUSH2 0x3533 JUMP JUMPDEST PUSH1 0x0 DUP3 GT DUP1 ISZERO PUSH2 0x18FD JUMPI POP PUSH2 0x2710 DUP3 GT ISZERO JUMPDEST DUP1 ISZERO PUSH2 0x190B JUMPI POP PUSH2 0x2710 DUP2 GT ISZERO JUMPDEST PUSH2 0x1927 JUMPI PUSH1 0x40 MLOAD PUSH3 0x461BCD PUSH1 0xE5 SHL DUP2 MSTORE PUSH1 0x4 ADD PUSH2 0x545 SWAP1 PUSH2 0x32D4 JUMP JUMPDEST PUSH1 0xD4 SWAP2 SWAP1 SWAP2 SSTORE PUSH1 0xD5 SSTORE JUMP JUMPDEST PUSH1 0xD0 SLOAD SWAP1 JUMP JUMPDEST PUSH1 0x40 MLOAD PUSH4 0x38381F25 PUSH1 0xE1 SHL DUP2 MSTORE PUSH1 0x60 SWAP1 PUSH20 0x0 SWAP1 PUSH4 0x70703E4A SWAP1 PUSH2 0x1975 SWAP1 PUSH1 0xC9 SWAP1 DUP7 SWAP1 PUSH1 0x4 ADD PUSH2 0x37E7 JUMP JUMPDEST PUSH1 0x0 PUSH1 0x40 MLOAD DUP1 DUP4 SUB DUP2 DUP7 DUP1 EXTCODESIZE ISZERO DUP1 ISZERO PUSH2 0x198D JUMPI PUSH1 0x0 DUP1 REVERT JUMPDEST POP GAS DELEGATECALL ISZERO DUP1 ISZERO PUSH2 0x19A1 JUMPI RETURNDATASIZE PUSH1 0x0 DUP1 RETURNDATACOPY RETURNDATASIZE PUSH1 0x0 REVERT JUMPDEST POP POP POP POP PUSH1 0x40 MLOAD RETURNDATASIZE PUSH1 0x0 DUP3 RETURNDATACOPY PUSH1 0x1F RETURNDATASIZE SWAP1 DUP2 ADD PUSH1 0x1F NOT AND DUP3 ADD PUSH1 0x40 MSTORE PUSH2 0x1092 SWAP2 SWAP1 DUP2 ADD SWAP1 PUSH2 0x2C65 JUMP JUMPDEST PUSH2 0x19D1 PUSH2 0x1A90 JUMP JUMPDEST PUSH1 0x1 PUSH1 0x1 PUSH1 0xA0 SHL SUB AND PUSH2 0x19E2 PUSH2 0x130D JUMP JUMPDEST PUSH1 0x1 PUSH1 0x1 PUSH1 0xA0 SHL SUB AND EQ PUSH2 0x1A08 JUMPI PUSH1 0x40 MLOAD PUSH3 0x461BCD PUSH1 0xE5 SHL DUP2 MSTORE PUSH1 0x4 ADD PUSH2 0x545 SWAP1 PUSH2 0x3533 JUMP JUMPDEST PUSH1 0x1 PUSH1 0x1 PUSH1 0xA0 SHL SUB DUP2 AND PUSH2 0x1A2E JUMPI PUSH1 0x40 MLOAD PUSH3 0x461BCD PUSH1 0xE5 SHL DUP2 MSTORE PUSH1 0x4 ADD PUSH2 0x545 SWAP1 PUSH2 0x30B5 JUMP JUMPDEST PUSH1 0x33 SLOAD PUSH1 0x40 MLOAD PUSH1 0x1 PUSH1 0x1 PUSH1 0xA0 SHL SUB DUP1 DUP5 AND SWAP3 AND SWAP1 PUSH32 0x8BE0079C531659141344CD1FD0A4F28419497F9722A3DAAFE3B4186F6B6457E0 SWAP1 PUSH1 0x0 SWAP1 LOG3 PUSH1 0x33 DUP1 SLOAD PUSH1 0x1 PUSH1 0x1 PUSH1 0xA0 SHL SUB NOT AND PUSH1 0x1 PUSH1 0x1 PUSH1 0xA0 SHL SUB SWAP3 SWAP1 SWAP3 AND SWAP2 SWAP1 SWAP2 OR SWAP1 SSTORE JUMP JUMPDEST PUSH2 0x2710 DUP2 JUMP JUMPDEST CALLER SWAP1 JUMP JUMPDEST PUSH2 0x1A9C PUSH2 0xCA6 JUMP JUMPDEST PUSH2 0x1AB8 JUMPI PUSH1 0x40 MLOAD PUSH3 0x461BCD PUSH1 0xE5 SHL DUP2 MSTORE PUSH1 0x4 ADD PUSH2 0x545 SWAP1 PUSH2 0x3087 JUMP JUMPDEST PUSH1 0x65 DUP1 SLOAD PUSH1 0xFF NOT AND SWAP1 SSTORE PUSH32 0x5DB9EE0A495BF2E6FF9C91A7834C1BA4FDD244A5E8AA4E537BD38AEAE4B073AA PUSH2 0x1AEB PUSH2 0x1A90 JUMP JUMPDEST PUSH1 0x40 MLOAD PUSH2 0x1AF8 SWAP2 SWAP1 PUSH2 0x2F4F JUMP JUMPDEST PUSH1 0x40 MLOAD DUP1 SWAP2 SUB SWAP1 LOG1 JUMP JUMPDEST PUSH1 0x0 DUP3 DUP3 GT ISZERO PUSH2 0x1B24 JUMPI PUSH1 0x40 MLOAD PUSH3 0x461BCD PUSH1 0xE5 SHL DUP2 MSTORE PUSH1 0x4 ADD PUSH2 0x545 SWAP1 PUSH2 0x31BB JUMP JUMPDEST PUSH2 0x8FB DUP3 DUP5 PUSH2 0x3AD2 JUMP JUMPDEST PUSH1 0x0 DUP3 PUSH2 0x1B3D JUMPI POP PUSH1 0x0 PUSH2 0x8FE JUMP JUMPDEST PUSH1 0x0 PUSH2 0x1B49 DUP4 DUP6 PUSH2 0x3AB3 JUMP JUMPDEST SWAP1 POP DUP3 PUSH2 0x1B56 DUP6 DUP4 PUSH2 0x397F JUMP JUMPDEST EQ PUSH2 0x8FB JUMPI PUSH1 0x40 MLOAD PUSH3 0x461BCD PUSH1 0xE5 SHL DUP2 MSTORE PUSH1 0x4 ADD PUSH2 0x545 SWAP1 PUSH2 0x3484 JUMP JUMPDEST PUSH1 0x0 DUP1 DUP3 GT PUSH2 0x1B94 JUMPI PUSH1 0x40 MLOAD PUSH3 0x461BCD PUSH1 0xE5 SHL DUP2 MSTORE PUSH1 0x4 ADD PUSH2 0x545 SWAP1 PUSH2 0x3266 JUMP JUMPDEST PUSH2 0x8FB DUP3 DUP5 PUSH2 0x397F JUMP JUMPDEST PUSH2 0x1BF4 DUP4 PUSH4 0xA9059CBB PUSH1 0xE0 SHL DUP5 DUP5 PUSH1 0x40 MLOAD PUSH1 0x24 ADD PUSH2 0x1BBD SWAP3 SWAP2 SWAP1 PUSH2 0x2F9D JUMP JUMPDEST PUSH1 0x40 DUP1 MLOAD PUSH1 0x1F NOT DUP2 DUP5 SUB ADD DUP2 MSTORE SWAP2 SWAP1 MSTORE PUSH1 0x20 DUP2 ADD DUP1 MLOAD PUSH1 0x1 PUSH1 0x1 PUSH1 0xE0 SHL SUB AND PUSH1 0x1 PUSH1 0x1 PUSH1 0xE0 SHL SUB NOT SWAP1 SWAP4 AND SWAP3 SWAP1 SWAP3 OR SWAP1 SWAP2 MSTORE PUSH2 0x2266 JUMP JUMPDEST POP POP POP JUMP JUMPDEST PUSH1 0x0 DUP1 PUSH2 0x1C06 DUP4 DUP6 PUSH2 0x3967 JUMP JUMPDEST SWAP1 POP DUP4 DUP2 LT ISZERO PUSH2 0x8FB JUMPI PUSH1 0x40 MLOAD PUSH3 0x461BCD PUSH1 0xE5 SHL DUP2 MSTORE PUSH1 0x4 ADD PUSH2 0x545 SWAP1 PUSH2 0x30FB JUMP JUMPDEST PUSH2 0x1C30 PUSH2 0xCA6 JUMP JUMPDEST ISZERO PUSH2 0x1C4D JUMPI PUSH1 0x40 MLOAD PUSH3 0x461BCD PUSH1 0xE5 SHL DUP2 MSTORE PUSH1 0x4 ADD PUSH2 0x545 SWAP1 PUSH2 0x3379 JUMP JUMPDEST PUSH1 0x65 DUP1 SLOAD PUSH1 0xFF NOT AND PUSH1 0x1 OR SWAP1 SSTORE PUSH32 0x62E78CEA01BEE320CD4E420270B5EA74000D11B0C9F74754EBDBFC544B05A258 PUSH2 0x1AEB PUSH2 0x1A90 JUMP JUMPDEST PUSH1 0x0 PUSH2 0x1C8E ADDRESS PUSH2 0x22F5 JUMP JUMPDEST ISZERO SWAP1 POP SWAP1 JUMP JUMPDEST PUSH1 0x0 SLOAD PUSH2 0x100 SWAP1 DIV PUSH1 0xFF AND DUP1 PUSH2 0x1CAD JUMPI POP PUSH2 0x1CAD PUSH2 0x1C83 JUMP JUMPDEST DUP1 PUSH2 0x1CBB JUMPI POP PUSH1 0x0 SLOAD PUSH1 0xFF AND ISZERO JUMPDEST PUSH2 0x1CD7 JUMPI PUSH1 0x40 MLOAD PUSH3 0x461BCD PUSH1 0xE5 SHL DUP2 MSTORE PUSH1 0x4 ADD PUSH2 0x545 SWAP1 PUSH2 0x33FF JUMP JUMPDEST PUSH1 0x0 SLOAD PUSH2 0x100 SWAP1 DIV PUSH1 0xFF AND ISZERO DUP1 ISZERO PUSH2 0x1D02 JUMPI PUSH1 0x0 DUP1 SLOAD PUSH1 0xFF NOT PUSH2 0xFF00 NOT SWAP1 SWAP2 AND PUSH2 0x100 OR AND PUSH1 0x1 OR SWAP1 SSTORE JUMPDEST PUSH2 0x1D0A PUSH2 0x22FB JUMP JUMPDEST PUSH2 0x1D12 PUSH2 0x2396 JUMP JUMPDEST PUSH1 0x1 DUP10 MLOAD GT PUSH2 0x1D33 JUMPI PUSH1 0x40 MLOAD PUSH3 0x461BCD PUSH1 0xE5 SHL DUP2 MSTORE PUSH1 0x4 ADD PUSH2 0x545 SWAP1 PUSH2 0x34FC JUMP JUMPDEST PUSH1 0x20 DUP10 MLOAD GT ISZERO PUSH2 0x1D55 JUMPI PUSH1 0x40 MLOAD PUSH3 0x461BCD PUSH1 0xE5 SHL DUP2 MSTORE PUSH1 0x4 ADD PUSH2 0x545 SWAP1 PUSH2 0x330B JUMP JUMPDEST DUP8 MLOAD DUP10 MLOAD EQ PUSH2 0x1D76 JUMPI PUSH1 0x40 MLOAD PUSH3 0x461BCD PUSH1 0xE5 SHL DUP2 MSTORE PUSH1 0x4 ADD PUSH2 0x545 SWAP1 PUSH2 0x34C5 JUMP JUMPDEST PUSH1 0x0 DUP9 MLOAD PUSH1 0x1 PUSH1 0x1 PUSH1 0x40 SHL SUB DUP2 GT ISZERO PUSH2 0x1D9F JUMPI PUSH4 0x4E487B71 PUSH1 0xE0 SHL PUSH1 0x0 MSTORE PUSH1 0x41 PUSH1 0x4 MSTORE PUSH1 0x24 PUSH1 0x0 REVERT JUMPDEST PUSH1 0x40 MLOAD SWAP1 DUP1 DUP3 MSTORE DUP1 PUSH1 0x20 MUL PUSH1 0x20 ADD DUP3 ADD PUSH1 0x40 MSTORE DUP1 ISZERO PUSH2 0x1DC8 JUMPI DUP2 PUSH1 0x20 ADD PUSH1 0x20 DUP3 MUL DUP1 CALLDATASIZE DUP4 CALLDATACOPY ADD SWAP1 POP JUMPDEST POP SWAP1 POP PUSH1 0x0 JUMPDEST DUP11 MLOAD DUP2 PUSH1 0xFF AND LT ISZERO PUSH2 0x2065 JUMPI PUSH1 0xFF DUP2 AND ISZERO PUSH2 0x1EBE JUMPI PUSH1 0xD3 PUSH1 0x0 DUP13 DUP4 PUSH1 0xFF AND DUP2 MLOAD DUP2 LT PUSH2 0x1E0A JUMPI PUSH4 0x4E487B71 PUSH1 0xE0 SHL PUSH1 0x0 MSTORE PUSH1 0x32 PUSH1 0x4 MSTORE PUSH1 0x24 PUSH1 0x0 REVERT JUMPDEST PUSH1 0x20 SWAP1 DUP2 MUL SWAP2 SWAP1 SWAP2 ADD DUP2 ADD MLOAD PUSH1 0x1 PUSH1 0x1 PUSH1 0xA0 SHL SUB AND DUP3 MSTORE DUP2 ADD SWAP2 SWAP1 SWAP2 MSTORE PUSH1 0x40 ADD PUSH1 0x0 KECCAK256 SLOAD PUSH1 0xFF AND ISZERO DUP1 ISZERO PUSH2 0x1EA2 JUMPI POP DUP11 DUP2 PUSH1 0xFF AND DUP2 MLOAD DUP2 LT PUSH2 0x1E5C JUMPI PUSH4 0x4E487B71 PUSH1 0xE0 SHL PUSH1 0x0 MSTORE PUSH1 0x32 PUSH1 0x4 MSTORE PUSH1 0x24 PUSH1 0x0 REVERT JUMPDEST PUSH1 0x20 MUL PUSH1 0x20 ADD ADD MLOAD PUSH1 0x1 PUSH1 0x1 PUSH1 0xA0 SHL SUB AND DUP12 PUSH1 0x0 DUP2 MLOAD DUP2 LT PUSH2 0x1E8E JUMPI PUSH4 0x4E487B71 PUSH1 0xE0 SHL PUSH1 0x0 MSTORE PUSH1 0x32 PUSH1 0x4 MSTORE PUSH1 0x24 PUSH1 0x0 REVERT JUMPDEST PUSH1 0x20 MUL PUSH1 0x20 ADD ADD MLOAD PUSH1 0x1 PUSH1 0x1 PUSH1 0xA0 SHL SUB AND EQ ISZERO JUMPDEST PUSH2 0x1EBE JUMPI PUSH1 0x40 MLOAD PUSH3 0x461BCD PUSH1 0xE5 SHL DUP2 MSTORE PUSH1 0x4 ADD PUSH2 0x545 SWAP1 PUSH2 0x3191 JUMP JUMPDEST PUSH1 0x0 PUSH1 0x1 PUSH1 0x1 PUSH1 0xA0 SHL SUB AND DUP12 DUP3 PUSH1 0xFF AND DUP2 MLOAD DUP2 LT PUSH2 0x1EEC JUMPI PUSH4 0x4E487B71 PUSH1 0xE0 SHL PUSH1 0x0 MSTORE PUSH1 0x32 PUSH1 0x4 MSTORE PUSH1 0x24 PUSH1 0x0 REVERT JUMPDEST PUSH1 0x20 MUL PUSH1 0x20 ADD ADD MLOAD PUSH1 0x1 PUSH1 0x1 PUSH1 0xA0 SHL SUB AND EQ ISZERO PUSH2 0x1F1B JUMPI PUSH1 0x40 MLOAD PUSH3 0x461BCD PUSH1 0xE5 SHL DUP2 MSTORE PUSH1 0x4 ADD PUSH2 0x545 SWAP1 PUSH2 0x35C9 JUMP JUMPDEST PUSH1 0x12 PUSH1 0xFF AND DUP11 DUP3 PUSH1 0xFF AND DUP2 MLOAD DUP2 LT PUSH2 0x1F43 JUMPI PUSH4 0x4E487B71 PUSH1 0xE0 SHL PUSH1 0x0 MSTORE PUSH1 0x32 PUSH1 0x4 MSTORE PUSH1 0x24 PUSH1 0x0 REVERT JUMPDEST PUSH1 0x20 MUL PUSH1 0x20 ADD ADD MLOAD PUSH1 0xFF AND GT ISZERO PUSH2 0x1F6C JUMPI PUSH1 0x40 MLOAD PUSH3 0x461BCD PUSH1 0xE5 SHL DUP2 MSTORE PUSH1 0x4 ADD PUSH2 0x545 SWAP1 PUSH2 0x3132 JUMP JUMPDEST PUSH2 0x1FB0 DUP11 DUP3 PUSH1 0xFF AND DUP2 MLOAD DUP2 LT PUSH2 0x1F92 JUMPI PUSH4 0x4E487B71 PUSH1 0xE0 SHL PUSH1 0x0 MSTORE PUSH1 0x32 PUSH1 0x4 MSTORE PUSH1 0x24 PUSH1 0x0 REVERT JUMPDEST PUSH1 0x20 MUL PUSH1 0x20 ADD ADD MLOAD PUSH1 0xFF AND PUSH1 0x12 PUSH1 0xFF AND PUSH2 0x1B02 SWAP1 SWAP2 SWAP1 PUSH4 0xFFFFFFFF AND JUMP JUMPDEST PUSH2 0x1FBB SWAP1 PUSH1 0xA PUSH2 0x39E5 JUMP JUMPDEST DUP3 DUP3 PUSH1 0xFF AND DUP2 MLOAD DUP2 LT PUSH2 0x1FDE JUMPI PUSH4 0x4E487B71 PUSH1 0xE0 SHL PUSH1 0x0 MSTORE PUSH1 0x32 PUSH1 0x4 MSTORE PUSH1 0x24 PUSH1 0x0 REVERT JUMPDEST PUSH1 0x20 MUL PUSH1 0x20 ADD ADD DUP2 DUP2 MSTORE POP POP DUP1 PUSH1 0xD3 PUSH1 0x0 DUP14 DUP5 PUSH1 0xFF AND DUP2 MLOAD DUP2 LT PUSH2 0x2012 JUMPI PUSH4 0x4E487B71 PUSH1 0xE0 SHL PUSH1 0x0 MSTORE PUSH1 0x32 PUSH1 0x4 MSTORE PUSH1 0x24 PUSH1 0x0 REVERT JUMPDEST PUSH1 0x20 MUL PUSH1 0x20 ADD ADD MLOAD PUSH1 0x1 PUSH1 0x1 PUSH1 0xA0 SHL SUB AND PUSH1 0x1 PUSH1 0x1 PUSH1 0xA0 SHL SUB AND DUP2 MSTORE PUSH1 0x20 ADD SWAP1 DUP2 MSTORE PUSH1 0x20 ADD PUSH1 0x0 KECCAK256 PUSH1 0x0 PUSH2 0x100 EXP DUP2 SLOAD DUP2 PUSH1 0xFF MUL NOT AND SWAP1 DUP4 PUSH1 0xFF AND MUL OR SWAP1 SSTORE POP DUP1 DUP1 PUSH2 0x205D SWAP1 PUSH2 0x3B30 JUMP JUMPDEST SWAP2 POP POP PUSH2 0x1DCE JUMP JUMPDEST POP PUSH3 0xF4240 DUP7 LT PUSH2 0x2088 JUMPI PUSH1 0x40 MLOAD PUSH3 0x461BCD PUSH1 0xE5 SHL DUP2 MSTORE PUSH1 0x4 ADD PUSH2 0x545 SWAP1 PUSH2 0x33D3 JUMP JUMPDEST PUSH4 0x5F5E100 DUP6 LT PUSH2 0x20AB JUMPI PUSH1 0x40 MLOAD PUSH3 0x461BCD PUSH1 0xE5 SHL DUP2 MSTORE PUSH1 0x4 ADD PUSH2 0x545 SWAP1 PUSH2 0x3600 JUMP JUMPDEST PUSH5 0x2540BE400 DUP5 LT PUSH2 0x20CF JUMPI PUSH1 0x40 MLOAD PUSH3 0x461BCD PUSH1 0xE5 SHL DUP2 MSTORE PUSH1 0x4 ADD PUSH2 0x545 SWAP1 PUSH2 0x3342 JUMP JUMPDEST PUSH1 0x0 PUSH2 0x20DA DUP5 PUSH2 0x240C JUMP JUMPDEST PUSH1 0x40 MLOAD PUSH4 0x266C45BB PUSH1 0xE1 SHL DUP2 MSTORE SWAP1 SWAP2 POP PUSH1 0x1 PUSH1 0x1 PUSH1 0xA0 SHL SUB DUP3 AND SWAP1 PUSH4 0x4CD88B76 SWAP1 PUSH2 0x210B SWAP1 DUP13 SWAP1 DUP13 SWAP1 PUSH1 0x4 ADD PUSH2 0x3059 JUMP JUMPDEST PUSH1 0x20 PUSH1 0x40 MLOAD DUP1 DUP4 SUB DUP2 PUSH1 0x0 DUP8 DUP1 EXTCODESIZE ISZERO DUP1 ISZERO PUSH2 0x2125 JUMPI PUSH1 0x0 DUP1 REVERT JUMPDEST POP GAS CALL ISZERO DUP1 ISZERO PUSH2 0x2139 JUMPI RETURNDATASIZE PUSH1 0x0 DUP1 RETURNDATACOPY RETURNDATASIZE PUSH1 0x0 REVERT JUMPDEST POP POP POP POP PUSH1 0x40 MLOAD RETURNDATASIZE PUSH1 0x1F NOT PUSH1 0x1F DUP3 ADD AND DUP3 ADD DUP1 PUSH1 0x40 MSTORE POP DUP2 ADD SWAP1 PUSH2 0x215D SWAP2 SWAP1 PUSH2 0x2D10 JUMP JUMPDEST PUSH2 0x2179 JUMPI PUSH1 0x40 MLOAD PUSH3 0x461BCD PUSH1 0xE5 SHL DUP2 MSTORE PUSH1 0x4 ADD PUSH2 0x545 SWAP1 PUSH2 0x3738 JUMP JUMPDEST PUSH1 0xCF DUP1 SLOAD PUSH1 0x1 PUSH1 0x1 PUSH1 0xA0 SHL SUB NOT AND PUSH1 0x1 PUSH1 0x1 PUSH1 0xA0 SHL SUB DUP4 AND OR SWAP1 SSTORE DUP11 MLOAD PUSH2 0x21A7 SWAP1 PUSH1 0xD0 SWAP1 PUSH1 0x20 DUP15 ADD SWAP1 PUSH2 0x27F1 JUMP JUMPDEST POP DUP2 MLOAD PUSH2 0x21BB SWAP1 PUSH1 0xD1 SWAP1 PUSH1 0x20 DUP6 ADD SWAP1 PUSH2 0x2856 JUMP JUMPDEST POP DUP11 MLOAD PUSH1 0x1 PUSH1 0x1 PUSH1 0x40 SHL SUB DUP2 GT ISZERO PUSH2 0x21E3 JUMPI PUSH4 0x4E487B71 PUSH1 0xE0 SHL PUSH1 0x0 MSTORE PUSH1 0x41 PUSH1 0x4 MSTORE PUSH1 0x24 PUSH1 0x0 REVERT JUMPDEST PUSH1 0x40 MLOAD SWAP1 DUP1 DUP3 MSTORE DUP1 PUSH1 0x20 MUL PUSH1 0x20 ADD DUP3 ADD PUSH1 0x40 MSTORE DUP1 ISZERO PUSH2 0x220C JUMPI DUP2 PUSH1 0x20 ADD PUSH1 0x20 DUP3 MUL DUP1 CALLDATASIZE DUP4 CALLDATACOPY ADD SWAP1 POP JUMPDEST POP DUP1 MLOAD PUSH2 0x2221 SWAP2 PUSH1 0xD2 SWAP2 PUSH1 0x20 SWAP1 SWAP2 ADD SWAP1 PUSH2 0x2856 JUMP JUMPDEST POP PUSH2 0x222D DUP8 PUSH1 0x64 PUSH2 0x1B2E JUMP JUMPDEST PUSH1 0xC9 SSTORE PUSH2 0x223B DUP8 PUSH1 0x64 PUSH2 0x1B2E JUMP JUMPDEST PUSH1 0xCA SSTORE POP POP PUSH1 0xCD DUP5 SWAP1 SSTORE PUSH1 0xCE DUP4 SWAP1 SSTORE DUP1 ISZERO PUSH2 0x1687 JUMPI PUSH1 0x0 DUP1 SLOAD PUSH2 0xFF00 NOT AND SWAP1 SSTORE POP POP POP POP POP POP POP POP POP JUMP JUMPDEST PUSH1 0x0 PUSH2 0x22BB DUP3 PUSH1 0x40 MLOAD DUP1 PUSH1 0x40 ADD PUSH1 0x40 MSTORE DUP1 PUSH1 0x20 DUP2 MSTORE PUSH1 0x20 ADD PUSH32 0x5361666545524332303A206C6F772D6C6576656C2063616C6C206661696C6564 DUP2 MSTORE POP DUP6 PUSH1 0x1 PUSH1 0x1 PUSH1 0xA0 SHL SUB AND PUSH2 0x247B SWAP1 SWAP3 SWAP2 SWAP1 PUSH4 0xFFFFFFFF AND JUMP JUMPDEST DUP1 MLOAD SWAP1 SWAP2 POP ISZERO PUSH2 0x1BF4 JUMPI DUP1 DUP1 PUSH1 0x20 ADD SWAP1 MLOAD DUP2 ADD SWAP1 PUSH2 0x22D9 SWAP2 SWAP1 PUSH2 0x2D10 JUMP JUMPDEST PUSH2 0x1BF4 JUMPI PUSH1 0x40 MLOAD PUSH3 0x461BCD PUSH1 0xE5 SHL DUP2 MSTORE PUSH1 0x4 ADD PUSH2 0x545 SWAP1 PUSH2 0x36B7 JUMP JUMPDEST EXTCODESIZE ISZERO ISZERO SWAP1 JUMP JUMPDEST PUSH1 0x0 SLOAD PUSH2 0x100 SWAP1 DIV PUSH1 0xFF AND DUP1 PUSH2 0x2314 JUMPI POP PUSH2 0x2314 PUSH2 0x1C83 JUMP JUMPDEST DUP1 PUSH2 0x2322 JUMPI POP PUSH1 0x0 SLOAD PUSH1 0xFF AND ISZERO JUMPDEST PUSH2 0x233E JUMPI PUSH1 0x40 MLOAD PUSH3 0x461BCD PUSH1 0xE5 SHL DUP2 MSTORE PUSH1 0x4 ADD PUSH2 0x545 SWAP1 PUSH2 0x33FF JUMP JUMPDEST PUSH1 0x0 SLOAD PUSH2 0x100 SWAP1 DIV PUSH1 0xFF AND ISZERO DUP1 ISZERO PUSH2 0x2369 JUMPI PUSH1 0x0 DUP1 SLOAD PUSH1 0xFF NOT PUSH2 0xFF00 NOT SWAP1 SWAP2 AND PUSH2 0x100 OR AND PUSH1 0x1 OR SWAP1 SSTORE JUMPDEST PUSH2 0x2371 PUSH2 0x248A JUMP JUMPDEST PUSH2 0x2379 PUSH2 0x250B JUMP JUMPDEST PUSH2 0x2381 PUSH2 0x25E5 JUMP JUMPDEST DUP1 ISZERO PUSH2 0x2393 JUMPI PUSH1 0x0 DUP1 SLOAD PUSH2 0xFF00 NOT AND SWAP1 SSTORE JUMPDEST POP JUMP JUMPDEST PUSH1 0x0 SLOAD PUSH2 0x100 SWAP1 DIV PUSH1 0xFF AND DUP1 PUSH2 0x23AF JUMPI POP PUSH2 0x23AF PUSH2 0x1C83 JUMP JUMPDEST DUP1 PUSH2 0x23BD JUMPI POP PUSH1 0x0 SLOAD PUSH1 0xFF AND ISZERO JUMPDEST PUSH2 0x23D9 JUMPI PUSH1 0x40 MLOAD PUSH3 0x461BCD PUSH1 0xE5 SHL DUP2 MSTORE PUSH1 0x4 ADD PUSH2 0x545 SWAP1 PUSH2 0x33FF JUMP JUMPDEST PUSH1 0x0 SLOAD PUSH2 0x100 SWAP1 DIV PUSH1 0xFF AND ISZERO DUP1 ISZERO PUSH2 0x2404 JUMPI PUSH1 0x0 DUP1 SLOAD PUSH1 0xFF NOT PUSH2 0xFF00 NOT SWAP1 SWAP2 AND PUSH2 0x100 OR AND PUSH1 0x1 OR SWAP1 SSTORE JUMPDEST PUSH2 0x2381 PUSH2 0x2671 JUMP JUMPDEST PUSH1 0x0 PUSH1 0x40 MLOAD PUSH20 0x3D602D80600A3D3981F3363D3D373D3D3D363D73 PUSH1 0x60 SHL DUP2 MSTORE DUP3 PUSH1 0x60 SHL PUSH1 0x14 DUP3 ADD MSTORE PUSH15 0x5AF43D82803E903D91602B57FD5BF3 PUSH1 0x88 SHL PUSH1 0x28 DUP3 ADD MSTORE PUSH1 0x37 DUP2 PUSH1 0x0 CREATE SWAP2 POP POP PUSH1 0x1 PUSH1 0x1 PUSH1 0xA0 SHL SUB DUP2 AND PUSH2 0x1095 JUMPI PUSH1 0x40 MLOAD PUSH3 0x461BCD PUSH1 0xE5 SHL DUP2 MSTORE PUSH1 0x4 ADD PUSH2 0x545 SWAP1 PUSH2 0x33A3 JUMP JUMPDEST PUSH1 0x60 PUSH2 0x1576 DUP5 DUP5 PUSH1 0x0 DUP6 PUSH2 0x26F8 JUMP JUMPDEST PUSH1 0x0 SLOAD PUSH2 0x100 SWAP1 DIV PUSH1 0xFF AND DUP1 PUSH2 0x24A3 JUMPI POP PUSH2 0x24A3 PUSH2 0x1C83 JUMP JUMPDEST DUP1 PUSH2 0x24B1 JUMPI POP PUSH1 0x0 SLOAD PUSH1 0xFF AND ISZERO JUMPDEST PUSH2 0x24CD JUMPI PUSH1 0x40 MLOAD PUSH3 0x461BCD PUSH1 0xE5 SHL DUP2 MSTORE PUSH1 0x4 ADD PUSH2 0x545 SWAP1 PUSH2 0x33FF JUMP JUMPDEST PUSH1 0x0 SLOAD PUSH2 0x100 SWAP1 DIV PUSH1 0xFF AND ISZERO DUP1 ISZERO PUSH2 0x2381 JUMPI PUSH1 0x0 DUP1 SLOAD PUSH1 0xFF NOT PUSH2 0xFF00 NOT SWAP1 SWAP2 AND PUSH2 0x100 OR AND PUSH1 0x1 OR SWAP1 SSTORE DUP1 ISZERO PUSH2 0x2393 JUMPI PUSH1 0x0 DUP1 SLOAD PUSH2 0xFF00 NOT AND SWAP1 SSTORE POP JUMP JUMPDEST PUSH1 0x0 SLOAD PUSH2 0x100 SWAP1 DIV PUSH1 0xFF AND DUP1 PUSH2 0x2524 JUMPI POP PUSH2 0x2524 PUSH2 0x1C83 JUMP JUMPDEST DUP1 PUSH2 0x2532 JUMPI POP PUSH1 0x0 SLOAD PUSH1 0xFF AND ISZERO JUMPDEST PUSH2 0x254E JUMPI PUSH1 0x40 MLOAD PUSH3 0x461BCD PUSH1 0xE5 SHL DUP2 MSTORE PUSH1 0x4 ADD PUSH2 0x545 SWAP1 PUSH2 0x33FF JUMP JUMPDEST PUSH1 0x0 SLOAD PUSH2 0x100 SWAP1 DIV PUSH1 0xFF AND ISZERO DUP1 ISZERO PUSH2 0x2579 JUMPI PUSH1 0x0 DUP1 SLOAD PUSH1 0xFF NOT PUSH2 0xFF00 NOT SWAP1 SWAP2 AND PUSH2 0x100 OR AND PUSH1 0x1 OR SWAP1 SSTORE JUMPDEST PUSH1 0x0 PUSH2 0x2583 PUSH2 0x1A90 JUMP JUMPDEST PUSH1 0x33 DUP1 SLOAD PUSH1 0x1 PUSH1 0x1 PUSH1 0xA0 SHL SUB NOT AND PUSH1 0x1 PUSH1 0x1 PUSH1 0xA0 SHL SUB DUP4 AND SWAP1 DUP2 OR SWAP1 SWAP2 SSTORE PUSH1 0x40 MLOAD SWAP2 SWAP3 POP SWAP1 PUSH1 0x0 SWAP1 PUSH32 0x8BE0079C531659141344CD1FD0A4F28419497F9722A3DAAFE3B4186F6B6457E0 SWAP1 DUP3 SWAP1 LOG3 POP DUP1 ISZERO PUSH2 0x2393 JUMPI PUSH1 0x0 DUP1 SLOAD PUSH2 0xFF00 NOT AND SWAP1 SSTORE POP JUMP JUMPDEST PUSH1 0x0 SLOAD PUSH2 0x100 SWAP1 DIV PUSH1 0xFF AND DUP1 PUSH2 0x25FE JUMPI POP PUSH2 0x25FE PUSH2 0x1C83 JUMP JUMPDEST DUP1 PUSH2 0x260C JUMPI POP PUSH1 0x0 SLOAD PUSH1 0xFF AND ISZERO JUMPDEST PUSH2 0x2628 JUMPI PUSH1 0x40 MLOAD PUSH3 0x461BCD PUSH1 0xE5 SHL DUP2 MSTORE PUSH1 0x4 ADD PUSH2 0x545 SWAP1 PUSH2 0x33FF JUMP JUMPDEST PUSH1 0x0 SLOAD PUSH2 0x100 SWAP1 DIV PUSH1 0xFF AND ISZERO DUP1 ISZERO PUSH2 0x2653 JUMPI PUSH1 0x0 DUP1 SLOAD PUSH1 0xFF NOT PUSH2 0xFF00 NOT SWAP1 SWAP2 AND PUSH2 0x100 OR AND PUSH1 0x1 OR SWAP1 SSTORE JUMPDEST PUSH1 0x65 DUP1 SLOAD PUSH1 0xFF NOT AND SWAP1 SSTORE DUP1 ISZERO PUSH2 0x2393 JUMPI PUSH1 0x0 DUP1 SLOAD PUSH2 0xFF00 NOT AND SWAP1 SSTORE POP JUMP JUMPDEST PUSH1 0x0 SLOAD PUSH2 0x100 SWAP1 DIV PUSH1 0xFF AND DUP1 PUSH2 0x268A JUMPI POP PUSH2 0x268A PUSH2 0x1C83 JUMP JUMPDEST DUP1 PUSH2 0x2698 JUMPI POP PUSH1 0x0 SLOAD PUSH1 0xFF AND ISZERO JUMPDEST PUSH2 0x26B4 JUMPI PUSH1 0x40 MLOAD PUSH3 0x461BCD PUSH1 0xE5 SHL DUP2 MSTORE PUSH1 0x4 ADD PUSH2 0x545 SWAP1 PUSH2 0x33FF JUMP JUMPDEST PUSH1 0x0 SLOAD PUSH2 0x100 SWAP1 DIV PUSH1 0xFF AND ISZERO DUP1 ISZERO PUSH2 0x26DF JUMPI PUSH1 0x0 DUP1 SLOAD PUSH1 0xFF NOT PUSH2 0xFF00 NOT SWAP1 SWAP2 AND PUSH2 0x100 OR AND PUSH1 0x1 OR SWAP1 SSTORE JUMPDEST PUSH1 0x1 PUSH1 0x97 SSTORE DUP1 ISZERO PUSH2 0x2393 JUMPI PUSH1 0x0 DUP1 SLOAD PUSH2 0xFF00 NOT AND SWAP1 SSTORE POP JUMP JUMPDEST PUSH1 0x60 DUP3 SELFBALANCE LT ISZERO PUSH2 0x271A JUMPI PUSH1 0x40 MLOAD PUSH3 0x461BCD PUSH1 0xE5 SHL DUP2 MSTORE PUSH1 0x4 ADD PUSH2 0x545 SWAP1 PUSH2 0x3220 JUMP JUMPDEST PUSH2 0x2723 DUP6 PUSH2 0x22F5 JUMP JUMPDEST PUSH2 0x273F JUMPI PUSH1 0x40 MLOAD PUSH3 0x461BCD PUSH1 0xE5 SHL DUP2 MSTORE PUSH1 0x4 ADD PUSH2 0x545 SWAP1 PUSH2 0x3680 JUMP JUMPDEST PUSH1 0x0 DUP1 DUP7 PUSH1 0x1 PUSH1 0x1 PUSH1 0xA0 SHL SUB AND DUP6 DUP8 PUSH1 0x40 MLOAD PUSH2 0x275B SWAP2 SWAP1 PUSH2 0x2F33 JUMP JUMPDEST PUSH1 0x0 PUSH1 0x40 MLOAD DUP1 DUP4 SUB DUP2 DUP6 DUP8 GAS CALL SWAP3 POP POP POP RETURNDATASIZE DUP1 PUSH1 0x0 DUP2 EQ PUSH2 0x2798 JUMPI PUSH1 0x40 MLOAD SWAP2 POP PUSH1 0x1F NOT PUSH1 0x3F RETURNDATASIZE ADD AND DUP3 ADD PUSH1 0x40 MSTORE RETURNDATASIZE DUP3 MSTORE RETURNDATASIZE PUSH1 0x0 PUSH1 0x20 DUP5 ADD RETURNDATACOPY PUSH2 0x279D JUMP JUMPDEST PUSH1 0x60 SWAP2 POP JUMPDEST POP SWAP2 POP SWAP2 POP PUSH2 0x27AD DUP3 DUP3 DUP7 PUSH2 0x27B8 JUMP JUMPDEST SWAP8 SWAP7 POP POP POP POP POP POP POP JUMP JUMPDEST PUSH1 0x60 DUP4 ISZERO PUSH2 0x27C7 JUMPI POP DUP2 PUSH2 0x1579 JUMP JUMPDEST DUP3 MLOAD ISZERO PUSH2 0x27D7 JUMPI DUP3 MLOAD DUP1 DUP5 PUSH1 0x20 ADD REVERT JUMPDEST DUP2 PUSH1 0x40 MLOAD PUSH3 0x461BCD PUSH1 0xE5 SHL DUP2 MSTORE PUSH1 0x4 ADD PUSH2 0x545 SWAP2 SWAP1 PUSH2 0x3046 JUMP JUMPDEST DUP3 DUP1 SLOAD DUP3 DUP3 SSTORE SWAP1 PUSH1 0x0 MSTORE PUSH1 0x20 PUSH1 0x0 KECCAK256 SWAP1 DUP2 ADD SWAP3 DUP3 ISZERO PUSH2 0x2846 JUMPI SWAP2 PUSH1 0x20 MUL DUP3 ADD JUMPDEST DUP3 DUP2 GT ISZERO PUSH2 0x2846 JUMPI DUP3 MLOAD DUP3 SLOAD PUSH1 0x1 PUSH1 0x1 PUSH1 0xA0 SHL SUB NOT AND PUSH1 0x1 PUSH1 0x1 PUSH1 0xA0 SHL SUB SWAP1 SWAP2 AND OR DUP3 SSTORE PUSH1 0x20 SWAP1 SWAP3 ADD SWAP2 PUSH1 0x1 SWAP1 SWAP2 ADD SWAP1 PUSH2 0x2811 JUMP JUMPDEST POP PUSH2 0x2852 SWAP3 SWAP2 POP PUSH2 0x2891 JUMP JUMPDEST POP SWAP1 JUMP JUMPDEST DUP3 DUP1 SLOAD DUP3 DUP3 SSTORE SWAP1 PUSH1 0x0 MSTORE PUSH1 0x20 PUSH1 0x0 KECCAK256 SWAP1 DUP2 ADD SWAP3 DUP3 ISZERO PUSH2 0x2846 JUMPI SWAP2 PUSH1 0x20 MUL DUP3 ADD JUMPDEST DUP3 DUP2 GT ISZERO PUSH2 0x2846 JUMPI DUP3 MLOAD DUP3 SSTORE SWAP2 PUSH1 0x20 ADD SWAP2 SWAP1 PUSH1 0x1 ADD SWAP1 PUSH2 0x2876 JUMP JUMPDEST JUMPDEST DUP1 DUP3 GT ISZERO PUSH2 0x2852 JUMPI PUSH1 0x0 DUP2 SSTORE PUSH1 0x1 ADD PUSH2 0x2892 JUMP JUMPDEST PUSH1 0x0 PUSH1 0x1 PUSH1 0x1 PUSH1 0x40 SHL SUB DUP4 GT ISZERO PUSH2 0x28BF JUMPI PUSH2 0x28BF PUSH2 0x3B66 JUMP JUMPDEST PUSH2 0x28D2 PUSH1 0x1F DUP5 ADD PUSH1 0x1F NOT AND PUSH1 0x20 ADD PUSH2 0x391B JUMP JUMPDEST SWAP1 POP DUP3 DUP2 MSTORE DUP4 DUP4 DUP4 ADD GT ISZERO PUSH2 0x28E6 JUMPI PUSH1 0x0 DUP1 REVERT JUMPDEST DUP3 DUP3 PUSH1 0x20 DUP4 ADD CALLDATACOPY PUSH1 0x0 PUSH1 0x20 DUP5 DUP4 ADD ADD MSTORE SWAP4 SWAP3 POP POP POP JUMP JUMPDEST DUP1 CALLDATALOAD PUSH2 0x1095 DUP2 PUSH2 0x3B7C JUMP JUMPDEST PUSH1 0x0 DUP3 PUSH1 0x1F DUP4 ADD SLT PUSH2 0x2918 JUMPI DUP1 DUP2 REVERT JUMPDEST DUP2 CALLDATALOAD PUSH1 0x20 PUSH2 0x292D PUSH2 0x2928 DUP4 PUSH2 0x3944 JUMP JUMPDEST PUSH2 0x391B JUMP JUMPDEST DUP3 DUP2 MSTORE DUP2 DUP2 ADD SWAP1 DUP6 DUP4 ADD DUP4 DUP6 MUL DUP8 ADD DUP5 ADD DUP9 LT ISZERO PUSH2 0x2949 JUMPI DUP6 DUP7 REVERT JUMPDEST DUP6 JUMPDEST DUP6 DUP2 LT ISZERO PUSH2 0x2970 JUMPI DUP2 CALLDATALOAD PUSH2 0x295E DUP2 PUSH2 0x3B7C JUMP JUMPDEST DUP5 MSTORE SWAP3 DUP5 ADD SWAP3 SWAP1 DUP5 ADD SWAP1 PUSH1 0x1 ADD PUSH2 0x294B JUMP JUMPDEST POP SWAP1 SWAP8 SWAP7 POP POP POP POP POP POP POP JUMP JUMPDEST PUSH1 0x0 DUP1 DUP4 PUSH1 0x1F DUP5 ADD SLT PUSH2 0x298E JUMPI DUP2 DUP3 REVERT JUMPDEST POP DUP2 CALLDATALOAD PUSH1 0x1 PUSH1 0x1 PUSH1 0x40 SHL SUB DUP2 GT ISZERO PUSH2 0x29A4 JUMPI DUP2 DUP3 REVERT JUMPDEST PUSH1 0x20 DUP4 ADD SWAP2 POP DUP4 PUSH1 0x20 DUP1 DUP4 MUL DUP6 ADD ADD GT ISZERO PUSH2 0x29BE JUMPI PUSH1 0x0 DUP1 REVERT JUMPDEST SWAP3 POP SWAP3 SWAP1 POP JUMP JUMPDEST PUSH1 0x0 DUP3 PUSH1 0x1F DUP4 ADD SLT PUSH2 0x29D5 JUMPI DUP1 DUP2 REVERT JUMPDEST DUP2 CALLDATALOAD PUSH1 0x20 PUSH2 0x29E5 PUSH2 0x2928 DUP4 PUSH2 0x3944 JUMP JUMPDEST DUP3 DUP2 MSTORE DUP2 DUP2 ADD SWAP1 DUP6 DUP4 ADD DUP4 DUP6 MUL DUP8 ADD DUP5 ADD DUP9 LT ISZERO PUSH2 0x2A01 JUMPI DUP6 DUP7 REVERT JUMPDEST DUP6 JUMPDEST DUP6 DUP2 LT ISZERO PUSH2 0x2970 JUMPI PUSH2 0x2A14 DUP3 PUSH2 0x2A45 JUMP JUMPDEST DUP5 MSTORE SWAP3 DUP5 ADD SWAP3 SWAP1 DUP5 ADD SWAP1 PUSH1 0x1 ADD PUSH2 0x2A03 JUMP JUMPDEST PUSH1 0x0 DUP3 PUSH1 0x1F DUP4 ADD SLT PUSH2 0x2A36 JUMPI DUP1 DUP2 REVERT JUMPDEST PUSH2 0x8FB DUP4 DUP4 CALLDATALOAD PUSH1 0x20 DUP6 ADD PUSH2 0x28A6 JUMP JUMPDEST DUP1 CALLDATALOAD PUSH1 0xFF DUP2 AND DUP2 EQ PUSH2 0x1095 JUMPI PUSH1 0x0 DUP1 REVERT JUMPDEST PUSH1 0x0 PUSH1 0x20 DUP3 DUP5 SUB SLT ISZERO PUSH2 0x2A67 JUMPI DUP1 DUP2 REVERT JUMPDEST DUP2 CALLDATALOAD PUSH2 0x8FB DUP2 PUSH2 0x3B7C JUMP JUMPDEST PUSH1 0x0 DUP1 PUSH1 0x0 DUP1 PUSH1 0x80 DUP6 DUP8 SUB SLT ISZERO PUSH2 0x2A87 JUMPI DUP3 DUP4 REVERT JUMPDEST DUP5 CALLDATALOAD PUSH2 0x2A92 DUP2 PUSH2 0x3B7C JUMP JUMPDEST SWAP4 POP PUSH1 0x20 DUP6 ADD CALLDATALOAD PUSH2 0x2AA2 DUP2 PUSH2 0x3B7C JUMP JUMPDEST SWAP3 POP PUSH1 0x40 DUP6 ADD CALLDATALOAD SWAP2 POP PUSH1 0x60 DUP6 ADD CALLDATALOAD PUSH1 0x1 PUSH1 0x1 PUSH1 0x40 SHL SUB DUP2 GT ISZERO PUSH2 0x2AC3 JUMPI DUP2 DUP3 REVERT JUMPDEST DUP6 ADD PUSH1 0x1F DUP2 ADD DUP8 SGT PUSH2 0x2AD3 JUMPI DUP2 DUP3 REVERT JUMPDEST PUSH2 0x2AE2 DUP8 DUP3 CALLDATALOAD PUSH1 0x20 DUP5 ADD PUSH2 0x28A6 JUMP JUMPDEST SWAP2 POP POP SWAP3 SWAP6 SWAP2 SWAP5 POP SWAP3 POP JUMP JUMPDEST PUSH1 0x0 DUP1 PUSH1 0x0 DUP1 PUSH1 0x0 DUP1 PUSH1 0x0 DUP1 PUSH2 0x100 DUP10 DUP12 SUB SLT ISZERO PUSH2 0x2B0A JUMPI DUP4 DUP5 REVERT JUMPDEST DUP9 CALLDATALOAD PUSH1 0x1 PUSH1 0x1 PUSH1 0x40 SHL SUB DUP1 DUP3 GT ISZERO PUSH2 0x2B20 JUMPI DUP6 DUP7 REVERT JUMPDEST PUSH2 0x2B2C DUP13 DUP4 DUP14 ADD PUSH2 0x2908 JUMP JUMPDEST SWAP10 POP PUSH1 0x20 DUP12 ADD CALLDATALOAD SWAP2 POP DUP1 DUP3 GT ISZERO PUSH2 0x2B41 JUMPI DUP6 DUP7 REVERT JUMPDEST PUSH2 0x2B4D DUP13 DUP4 DUP14 ADD PUSH2 0x29C5 JUMP JUMPDEST SWAP9 POP PUSH1 0x40 DUP12 ADD CALLDATALOAD SWAP2 POP DUP1 DUP3 GT ISZERO PUSH2 0x2B62 JUMPI DUP6 DUP7 REVERT JUMPDEST PUSH2 0x2B6E DUP13 DUP4 DUP14 ADD PUSH2 0x2A26 JUMP JUMPDEST SWAP8 POP PUSH1 0x60 DUP12 ADD CALLDATALOAD SWAP2 POP DUP1 DUP3 GT ISZERO PUSH2 0x2B83 JUMPI DUP6 DUP7 REVERT JUMPDEST POP PUSH2 0x2B90 DUP12 DUP3 DUP13 ADD PUSH2 0x2A26 JUMP JUMPDEST SWAP6 POP POP PUSH1 0x80 DUP10 ADD CALLDATALOAD SWAP4 POP PUSH1 0xA0 DUP10 ADD CALLDATALOAD SWAP3 POP PUSH1 0xC0 DUP10 ADD CALLDATALOAD SWAP2 POP PUSH2 0x2BB4 PUSH1 0xE0 DUP11 ADD PUSH2 0x28FD JUMP JUMPDEST SWAP1 POP SWAP3 SWAP6 SWAP9 POP SWAP3 SWAP6 SWAP9 SWAP1 SWAP4 SWAP7 POP JUMP JUMPDEST PUSH1 0x0 DUP1 PUSH1 0x0 PUSH1 0x40 DUP5 DUP7 SUB SLT ISZERO PUSH2 0x2BD7 JUMPI DUP3 DUP4 REVERT JUMPDEST DUP4 CALLDATALOAD PUSH1 0x1 PUSH1 0x1 PUSH1 0x40 SHL SUB DUP2 GT ISZERO PUSH2 0x2BEC JUMPI DUP4 DUP5 REVERT JUMPDEST PUSH2 0x2BF8 DUP7 DUP3 DUP8 ADD PUSH2 0x297D JUMP JUMPDEST SWAP1 SWAP5 POP SWAP3 POP POP PUSH1 0x20 DUP5 ADD CALLDATALOAD PUSH2 0x2C0C DUP2 PUSH2 0x3B91 JUMP JUMPDEST DUP1 SWAP2 POP POP SWAP3 POP SWAP3 POP SWAP3 JUMP JUMPDEST PUSH1 0x0 DUP1 PUSH1 0x0 DUP1 PUSH1 0x60 DUP6 DUP8 SUB SLT ISZERO PUSH2 0x2C2C JUMPI DUP2 DUP3 REVERT JUMPDEST DUP5 CALLDATALOAD PUSH1 0x1 PUSH1 0x1 PUSH1 0x40 SHL SUB DUP2 GT ISZERO PUSH2 0x2C41 JUMPI DUP3 DUP4 REVERT JUMPDEST PUSH2 0x2C4D DUP8 DUP3 DUP9 ADD PUSH2 0x297D JUMP JUMPDEST SWAP1 SWAP9 SWAP1 SWAP8 POP PUSH1 0x20 DUP8 ADD CALLDATALOAD SWAP7 PUSH1 0x40 ADD CALLDATALOAD SWAP6 POP SWAP4 POP POP POP POP JUMP JUMPDEST PUSH1 0x0 PUSH1 0x20 DUP1 DUP4 DUP6 SUB SLT ISZERO PUSH2 0x2C77 JUMPI DUP2 DUP3 REVERT JUMPDEST DUP3 MLOAD PUSH1 0x1 PUSH1 0x1 PUSH1 0x40 SHL SUB DUP2 GT ISZERO PUSH2 0x2C8C JUMPI DUP3 DUP4 REVERT JUMPDEST DUP4 ADD PUSH1 0x1F DUP2 ADD DUP6 SGT PUSH2 0x2C9C JUMPI DUP3 DUP4 REVERT JUMPDEST DUP1 MLOAD PUSH2 0x2CAA PUSH2 0x2928 DUP3 PUSH2 0x3944 JUMP JUMPDEST DUP2 DUP2 MSTORE DUP4 DUP2 ADD SWAP1 DUP4 DUP6 ADD DUP6 DUP5 MUL DUP6 ADD DUP7 ADD DUP10 LT ISZERO PUSH2 0x2CC6 JUMPI DUP7 DUP8 REVERT JUMPDEST DUP7 SWAP5 POP JUMPDEST DUP4 DUP6 LT ISZERO PUSH2 0x2CE8 JUMPI DUP1 MLOAD DUP4 MSTORE PUSH1 0x1 SWAP5 SWAP1 SWAP5 ADD SWAP4 SWAP2 DUP6 ADD SWAP2 DUP6 ADD PUSH2 0x2CCA JUMP JUMPDEST POP SWAP8 SWAP7 POP POP POP POP POP POP POP JUMP JUMPDEST PUSH1 0x0 PUSH1 0x20 DUP3 DUP5 SUB SLT ISZERO PUSH2 0x2D05 JUMPI DUP1 DUP2 REVERT JUMPDEST DUP2 CALLDATALOAD PUSH2 0x8FB DUP2 PUSH2 0x3B91 JUMP JUMPDEST PUSH1 0x0 PUSH1 0x20 DUP3 DUP5 SUB SLT ISZERO PUSH2 0x2D21 JUMPI DUP1 DUP2 REVERT JUMPDEST DUP2 MLOAD PUSH2 0x8FB DUP2 PUSH2 0x3B91 JUMP JUMPDEST PUSH1 0x0 PUSH1 0x20 DUP3 DUP5 SUB SLT ISZERO PUSH2 0x2D3D JUMPI DUP1 DUP2 REVERT JUMPDEST POP CALLDATALOAD SWAP2 SWAP1 POP JUMP JUMPDEST PUSH1 0x0 PUSH1 0x20 DUP3 DUP5 SUB SLT ISZERO PUSH2 0x2D55 JUMPI DUP1 DUP2 REVERT JUMPDEST POP MLOAD SWAP2 SWAP1 POP JUMP JUMPDEST PUSH1 0x0 DUP1 PUSH1 0x0 DUP1 PUSH1 0x60 DUP6 DUP8 SUB SLT ISZERO PUSH2 0x2D71 JUMPI DUP2 DUP3 REVERT JUMPDEST DUP5 CALLDATALOAD SWAP4 POP PUSH1 0x20 DUP6 ADD CALLDATALOAD PUSH1 0x1 PUSH1 0x1 PUSH1 0x40 SHL SUB DUP2 GT ISZERO PUSH2 0x2D8D JUMPI DUP3 DUP4 REVERT JUMPDEST PUSH2 0x2D99 DUP8 DUP3 DUP9 ADD PUSH2 0x297D JUMP JUMPDEST SWAP6 SWAP9 SWAP1 SWAP8 POP SWAP5 SWAP6 PUSH1 0x40 ADD CALLDATALOAD SWAP5 SWAP4 POP POP POP POP JUMP JUMPDEST PUSH1 0x0 DUP1 PUSH1 0x40 DUP4 DUP6 SUB SLT ISZERO PUSH2 0x2DBE JUMPI DUP2 DUP3 REVERT JUMPDEST POP POP DUP1 CALLDATALOAD SWAP3 PUSH1 0x20 SWAP1 SWAP2 ADD CALLDATALOAD SWAP2 POP JUMP JUMPDEST PUSH1 0x0 DUP1 PUSH1 0x40 DUP4 DUP6 SUB SLT ISZERO PUSH2 0x2DDF JUMPI DUP2 DUP3 REVERT JUMPDEST DUP3 CALLDATALOAD SWAP2 POP PUSH2 0x2DEF PUSH1 0x20 DUP5 ADD PUSH2 0x2A45 JUMP JUMPDEST SWAP1 POP SWAP3 POP SWAP3 SWAP1 POP JUMP JUMPDEST PUSH1 0x0 DUP1 PUSH1 0x0 DUP1 PUSH1 0x80 DUP6 DUP8 SUB SLT ISZERO PUSH2 0x2E0D JUMPI DUP2 DUP3 REVERT JUMPDEST DUP5 CALLDATALOAD SWAP4 POP PUSH2 0x2E1D PUSH1 0x20 DUP7 ADD PUSH2 0x2A45 JUMP JUMPDEST SWAP4 SWAP7 SWAP4 SWAP6 POP POP POP POP PUSH1 0x40 DUP3 ADD CALLDATALOAD SWAP2 PUSH1 0x60 ADD CALLDATALOAD SWAP1 JUMP JUMPDEST PUSH1 0x0 PUSH1 0x20 DUP3 DUP5 SUB SLT ISZERO PUSH2 0x2E43 JUMPI DUP1 DUP2 REVERT JUMPDEST PUSH2 0x8FB DUP3 PUSH2 0x2A45 JUMP JUMPDEST PUSH1 0x0 DUP1 PUSH1 0x0 PUSH1 0x60 DUP5 DUP7 SUB SLT ISZERO PUSH2 0x2E60 JUMPI DUP1 DUP2 REVERT JUMPDEST PUSH2 0x2E69 DUP5 PUSH2 0x2A45 JUMP JUMPDEST SWAP3 POP PUSH2 0x2E77 PUSH1 0x20 DUP6 ADD PUSH2 0x2A45 JUMP JUMPDEST SWAP2 POP PUSH1 0x40 DUP5 ADD CALLDATALOAD SWAP1 POP SWAP3 POP SWAP3 POP SWAP3 JUMP JUMPDEST PUSH1 0x0 DUP1 PUSH1 0x0 DUP1 PUSH1 0x0 PUSH1 0xA0 DUP7 DUP9 SUB SLT ISZERO PUSH2 0x2E9E JUMPI DUP3 DUP4 REVERT JUMPDEST PUSH2 0x2EA7 DUP7 PUSH2 0x2A45 JUMP JUMPDEST SWAP5 POP PUSH2 0x2EB5 PUSH1 0x20 DUP8 ADD PUSH2 0x2A45 JUMP JUMPDEST SWAP5 SWAP8 SWAP5 SWAP7 POP POP POP POP PUSH1 0x40 DUP4 ADD CALLDATALOAD SWAP3 PUSH1 0x60 DUP2 ADD CALLDATALOAD SWAP3 PUSH1 0x80 SWAP1 SWAP2 ADD CALLDATALOAD SWAP2 POP JUMP JUMPDEST DUP2 DUP4 MSTORE PUSH1 0x0 PUSH1 0x1 PUSH1 0x1 PUSH1 0xFB SHL SUB DUP4 GT ISZERO PUSH2 0x2EEB JUMPI DUP1 DUP2 REVERT JUMPDEST PUSH1 0x20 DUP4 MUL DUP1 DUP4 PUSH1 0x20 DUP8 ADD CALLDATACOPY SWAP4 SWAP1 SWAP4 ADD PUSH1 0x20 ADD SWAP3 DUP4 MSTORE POP SWAP1 SWAP2 SWAP1 POP JUMP JUMPDEST PUSH1 0x0 DUP2 MLOAD DUP1 DUP5 MSTORE PUSH2 0x2F1F DUP2 PUSH1 0x20 DUP7 ADD PUSH1 0x20 DUP7 ADD PUSH2 0x3AE9 JUMP JUMPDEST PUSH1 0x1F ADD PUSH1 0x1F NOT AND SWAP3 SWAP1 SWAP3 ADD PUSH1 0x20 ADD SWAP3 SWAP2 POP POP JUMP JUMPDEST PUSH1 0x0 DUP3 MLOAD PUSH2 0x2F45 DUP2 DUP5 PUSH1 0x20 DUP8 ADD PUSH2 0x3AE9 JUMP JUMPDEST SWAP2 SWAP1 SWAP2 ADD SWAP3 SWAP2 POP POP JUMP JUMPDEST PUSH1 0x1 PUSH1 0x1 PUSH1 0xA0 SHL SUB SWAP2 SWAP1 SWAP2 AND DUP2 MSTORE PUSH1 0x20 ADD SWAP1 JUMP JUMPDEST PUSH1 0x1 PUSH1 0x1 PUSH1 0xA0 SHL SUB DUP7 DUP2 AND DUP3 MSTORE DUP6 AND PUSH1 0x20 DUP3 ADD MSTORE PUSH1 0x40 DUP2 ADD DUP5 SWAP1 MSTORE PUSH1 0x60 DUP2 ADD DUP4 SWAP1 MSTORE PUSH1 0xA0 PUSH1 0x80 DUP3 ADD DUP2 SWAP1 MSTORE PUSH1 0x0 SWAP1 PUSH2 0x27AD SWAP1 DUP4 ADD DUP5 PUSH2 0x2F07 JUMP JUMPDEST PUSH1 0x1 PUSH1 0x1 PUSH1 0xA0 SHL SUB SWAP3 SWAP1 SWAP3 AND DUP3 MSTORE PUSH1 0x20 DUP3 ADD MSTORE PUSH1 0x40 ADD SWAP1 JUMP JUMPDEST PUSH1 0x20 DUP1 DUP3 MSTORE DUP3 MLOAD DUP3 DUP3 ADD DUP2 SWAP1 MSTORE PUSH1 0x0 SWAP2 SWAP1 DUP5 DUP3 ADD SWAP1 PUSH1 0x40 DUP6 ADD SWAP1 DUP5 JUMPDEST DUP2 DUP2 LT ISZERO PUSH2 0x2FF7 JUMPI DUP4 MLOAD PUSH1 0x1 PUSH1 0x1 PUSH1 0xA0 SHL SUB AND DUP4 MSTORE SWAP3 DUP5 ADD SWAP3 SWAP2 DUP5 ADD SWAP2 PUSH1 0x1 ADD PUSH2 0x2FD2 JUMP JUMPDEST POP SWAP1 SWAP7 SWAP6 POP POP POP POP POP POP JUMP JUMPDEST PUSH1 0x20 DUP1 DUP3 MSTORE DUP3 MLOAD DUP3 DUP3 ADD DUP2 SWAP1 MSTORE PUSH1 0x0 SWAP2 SWAP1 DUP5 DUP3 ADD SWAP1 PUSH1 0x40 DUP6 ADD SWAP1 DUP5 JUMPDEST DUP2 DUP2 LT ISZERO PUSH2 0x2FF7 JUMPI DUP4 MLOAD DUP4 MSTORE SWAP3 DUP5 ADD SWAP3 SWAP2 DUP5 ADD SWAP2 PUSH1 0x1 ADD PUSH2 0x301F JUMP JUMPDEST SWAP1 ISZERO ISZERO DUP2 MSTORE PUSH1 0x20 ADD SWAP1 JUMP JUMPDEST PUSH1 0x0 PUSH1 0x20 DUP3 MSTORE PUSH2 0x8FB PUSH1 0x20 DUP4 ADD DUP5 PUSH2 0x2F07 JUMP JUMPDEST PUSH1 0x0 PUSH1 0x40 DUP3 MSTORE PUSH2 0x306C PUSH1 0x40 DUP4 ADD DUP6 PUSH2 0x2F07 JUMP JUMPDEST DUP3 DUP2 SUB PUSH1 0x20 DUP5 ADD MSTORE PUSH2 0x307E DUP2 DUP6 PUSH2 0x2F07 JUMP JUMPDEST SWAP6 SWAP5 POP POP POP POP POP JUMP JUMPDEST PUSH1 0x20 DUP1 DUP3 MSTORE PUSH1 0x14 SWAP1 DUP3 ADD MSTORE PUSH20 0x14185D5CD8589B194E881B9BDD081C185D5CD959 PUSH1 0x62 SHL PUSH1 0x40 DUP3 ADD MSTORE PUSH1 0x60 ADD SWAP1 JUMP JUMPDEST PUSH1 0x20 DUP1 DUP3 MSTORE PUSH1 0x26 SWAP1 DUP3 ADD MSTORE PUSH32 0x4F776E61626C653A206E6577206F776E657220697320746865207A65726F2061 PUSH1 0x40 DUP3 ADD MSTORE PUSH6 0x646472657373 PUSH1 0xD0 SHL PUSH1 0x60 DUP3 ADD MSTORE PUSH1 0x80 ADD SWAP1 JUMP JUMPDEST PUSH1 0x20 DUP1 DUP3 MSTORE PUSH1 0x1B SWAP1 DUP3 ADD MSTORE PUSH32 0x536166654D6174683A206164646974696F6E206F766572666C6F770000000000 PUSH1 0x40 DUP3 ADD MSTORE PUSH1 0x60 ADD SWAP1 JUMP JUMPDEST PUSH1 0x20 DUP1 DUP3 MSTORE PUSH1 0x1A SWAP1 DUP3 ADD MSTORE PUSH32 0x546F6B656E20646563696D616C732065786365656473206D6178000000000000 PUSH1 0x40 DUP3 ADD MSTORE PUSH1 0x60 ADD SWAP1 JUMP JUMPDEST PUSH1 0x20 DUP1 DUP3 MSTORE PUSH1 0xE SWAP1 DUP3 ADD MSTORE PUSH14 0x1A5B9D985B1A5908185B5BDD5B9D PUSH1 0x92 SHL PUSH1 0x40 DUP3 ADD MSTORE PUSH1 0x60 ADD SWAP1 JUMP JUMPDEST PUSH1 0x20 DUP1 DUP3 MSTORE PUSH1 0x10 SWAP1 DUP3 ADD MSTORE PUSH16 0x4475706C696361746520746F6B656E73 PUSH1 0x80 SHL PUSH1 0x40 DUP3 ADD MSTORE PUSH1 0x60 ADD SWAP1 JUMP JUMPDEST PUSH1 0x20 DUP1 DUP3 MSTORE PUSH1 0x1E SWAP1 DUP3 ADD MSTORE PUSH32 0x536166654D6174683A207375627472616374696F6E206F766572666C6F770000 PUSH1 0x40 DUP3 ADD MSTORE PUSH1 0x60 ADD SWAP1 JUMP JUMPDEST PUSH1 0x20 DUP1 DUP3 MSTORE PUSH1 0x14 SWAP1 DUP3 ADD MSTORE PUSH20 0x151BDAD95B88191BD95CC81B9BDD08195E1A5CDD PUSH1 0x62 SHL PUSH1 0x40 DUP3 ADD MSTORE PUSH1 0x60 ADD SWAP1 JUMP JUMPDEST PUSH1 0x20 DUP1 DUP3 MSTORE PUSH1 0x26 SWAP1 DUP3 ADD MSTORE PUSH32 0x416464726573733A20696E73756666696369656E742062616C616E636520666F PUSH1 0x40 DUP3 ADD MSTORE PUSH6 0x1C8818D85B1B PUSH1 0xD2 SHL PUSH1 0x60 DUP3 ADD MSTORE PUSH1 0x80 ADD SWAP1 JUMP JUMPDEST PUSH1 0x20 DUP1 DUP3 MSTORE PUSH1 0x1A SWAP1 DUP3 ADD MSTORE PUSH32 0x536166654D6174683A206469766973696F6E206279207A65726F000000000000 PUSH1 0x40 DUP3 ADD MSTORE PUSH1 0x60 ADD SWAP1 JUMP JUMPDEST PUSH1 0x20 DUP1 DUP3 MSTORE PUSH1 0x18 SWAP1 DUP3 ADD MSTORE PUSH32 0x666C6173684C6F616E20666565206973206E6F74206D65740000000000000000 PUSH1 0x40 DUP3 ADD MSTORE PUSH1 0x60 ADD SWAP1 JUMP JUMPDEST PUSH1 0x20 DUP1 DUP3 MSTORE PUSH1 0x1B SWAP1 DUP3 ADD MSTORE PUSH32 0x6665657320617265206E6F7420696E2076616C69642072616E67650000000000 PUSH1 0x40 DUP3 ADD MSTORE PUSH1 0x60 ADD SWAP1 JUMP JUMPDEST PUSH1 0x20 DUP1 DUP3 MSTORE PUSH1 0x19 SWAP1 DUP3 ADD MSTORE PUSH32 0x5F706F6F6C6564546F6B656E732E6C656E677468203E20333200000000000000 PUSH1 0x40 DUP3 ADD MSTORE PUSH1 0x60 ADD SWAP1 JUMP JUMPDEST PUSH1 0x20 DUP1 DUP3 MSTORE PUSH1 0x19 SWAP1 DUP3 ADD MSTORE PUSH32 0x5F61646D696E4665652065786365656473206D6178696D756D00000000000000 PUSH1 0x40 DUP3 ADD MSTORE PUSH1 0x60 ADD SWAP1 JUMP JUMPDEST PUSH1 0x20 DUP1 DUP3 MSTORE PUSH1 0x10 SWAP1 DUP3 ADD MSTORE PUSH16 0x14185D5CD8589B194E881C185D5CD959 PUSH1 0x82 SHL PUSH1 0x40 DUP3 ADD MSTORE PUSH1 0x60 ADD SWAP1 JUMP JUMPDEST PUSH1 0x20 DUP1 DUP3 MSTORE PUSH1 0x16 SWAP1 DUP3 ADD MSTORE PUSH22 0x115490CC4C4D8DCE8818DC99585D194819985A5B1959 PUSH1 0x52 SHL PUSH1 0x40 DUP3 ADD MSTORE PUSH1 0x60 ADD SWAP1 JUMP JUMPDEST PUSH1 0x20 DUP1 DUP3 MSTORE PUSH1 0x12 SWAP1 DUP3 ADD MSTORE PUSH18 0x5F612065786365656473206D6178696D756D PUSH1 0x70 SHL PUSH1 0x40 DUP3 ADD MSTORE PUSH1 0x60 ADD SWAP1 JUMP JUMPDEST PUSH1 0x20 DUP1 DUP3 MSTORE PUSH1 0x2E SWAP1 DUP3 ADD MSTORE PUSH32 0x496E697469616C697A61626C653A20636F6E747261637420697320616C726561 PUSH1 0x40 DUP3 ADD MSTORE PUSH14 0x191E481A5B9A5D1A585B1A5E9959 PUSH1 0x92 SHL PUSH1 0x60 DUP3 ADD MSTORE PUSH1 0x80 ADD SWAP1 JUMP JUMPDEST PUSH1 0x20 DUP1 DUP3 MSTORE PUSH1 0x1F SWAP1 DUP3 ADD MSTORE PUSH32 0x616D6F756E7420697320736D616C6C20666F72206120666C6173684C6F616E00 PUSH1 0x40 DUP3 ADD MSTORE PUSH1 0x60 ADD SWAP1 JUMP JUMPDEST PUSH1 0x20 DUP1 DUP3 MSTORE PUSH1 0x21 SWAP1 DUP3 ADD MSTORE PUSH32 0x536166654D6174683A206D756C7469706C69636174696F6E206F766572666C6F PUSH1 0x40 DUP3 ADD MSTORE PUSH1 0x77 PUSH1 0xF8 SHL PUSH1 0x60 DUP3 ADD MSTORE PUSH1 0x80 ADD SWAP1 JUMP JUMPDEST PUSH1 0x20 DUP1 DUP3 MSTORE PUSH1 0x1F SWAP1 DUP3 ADD MSTORE PUSH32 0x5F706F6F6C6564546F6B656E7320646563696D616C73206D69736D6174636800 PUSH1 0x40 DUP3 ADD MSTORE PUSH1 0x60 ADD SWAP1 JUMP JUMPDEST PUSH1 0x20 DUP1 DUP3 MSTORE PUSH1 0x19 SWAP1 DUP3 ADD MSTORE PUSH32 0x5F706F6F6C6564546F6B656E732E6C656E677468203C3D203100000000000000 PUSH1 0x40 DUP3 ADD MSTORE PUSH1 0x60 ADD SWAP1 JUMP JUMPDEST PUSH1 0x20 DUP1 DUP3 MSTORE DUP2 DUP2 ADD MSTORE PUSH32 0x4F776E61626C653A2063616C6C6572206973206E6F7420746865206F776E6572 PUSH1 0x40 DUP3 ADD MSTORE PUSH1 0x60 ADD SWAP1 JUMP JUMPDEST PUSH1 0x20 DUP1 DUP3 MSTORE PUSH1 0x10 SWAP1 DUP3 ADD MSTORE PUSH16 0x111958591B1A5B99481B9BDD081B595D PUSH1 0x82 SHL PUSH1 0x40 DUP3 ADD MSTORE PUSH1 0x60 ADD SWAP1 JUMP JUMPDEST PUSH1 0x20 DUP1 DUP3 MSTORE PUSH1 0x1C SWAP1 DUP3 ADD MSTORE PUSH32 0x466C6173686C6F616E206973206E6F7420656E61626C65642079657400000000 PUSH1 0x40 DUP3 ADD MSTORE PUSH1 0x60 ADD SWAP1 JUMP JUMPDEST PUSH1 0x20 DUP1 DUP3 MSTORE PUSH1 0x1D SWAP1 DUP3 ADD MSTORE PUSH32 0x546865203020616464726573732069736E277420616E204552432D3230000000 PUSH1 0x40 DUP3 ADD MSTORE PUSH1 0x60 ADD SWAP1 JUMP JUMPDEST PUSH1 0x20 DUP1 DUP3 MSTORE PUSH1 0x14 SWAP1 DUP3 ADD MSTORE PUSH20 0x5F6665652065786365656473206D6178696D756D PUSH1 0x60 SHL PUSH1 0x40 DUP3 ADD MSTORE PUSH1 0x60 ADD SWAP1 JUMP JUMPDEST PUSH1 0x20 DUP1 DUP3 MSTORE PUSH1 0xC SWAP1 DUP3 ADD MSTORE PUSH12 0x4F7574206F662072616E6765 PUSH1 0xA0 SHL PUSH1 0x40 DUP3 ADD MSTORE PUSH1 0x60 ADD SWAP1 JUMP JUMPDEST PUSH1 0x20 DUP1 DUP3 MSTORE PUSH1 0x12 SWAP1 DUP3 ADD MSTORE PUSH18 0x496E646578206F7574206F662072616E6765 PUSH1 0x70 SHL PUSH1 0x40 DUP3 ADD MSTORE PUSH1 0x60 ADD SWAP1 JUMP JUMPDEST PUSH1 0x20 DUP1 DUP3 MSTORE PUSH1 0x1D SWAP1 DUP3 ADD MSTORE PUSH32 0x416464726573733A2063616C6C20746F206E6F6E2D636F6E7472616374000000 PUSH1 0x40 DUP3 ADD MSTORE PUSH1 0x60 ADD SWAP1 JUMP JUMPDEST PUSH1 0x20 DUP1 DUP3 MSTORE PUSH1 0x2A SWAP1 DUP3 ADD MSTORE PUSH32 0x5361666545524332303A204552433230206F7065726174696F6E20646964206E PUSH1 0x40 DUP3 ADD MSTORE PUSH10 0x1BDD081CDD58D8D95959 PUSH1 0xB2 SHL PUSH1 0x60 DUP3 ADD MSTORE PUSH1 0x80 ADD SWAP1 JUMP JUMPDEST PUSH1 0x20 DUP1 DUP3 MSTORE PUSH1 0x1F SWAP1 DUP3 ADD MSTORE PUSH32 0x5265656E7472616E637947756172643A207265656E7472616E742063616C6C00 PUSH1 0x40 DUP3 ADD MSTORE PUSH1 0x60 ADD SWAP1 JUMP JUMPDEST PUSH1 0x20 DUP1 DUP3 MSTORE PUSH1 0x1C SWAP1 DUP3 ADD MSTORE PUSH32 0x636F756C64206E6F7420696E6974206C70546F6B656E20636C6F6E6500000000 PUSH1 0x40 DUP3 ADD MSTORE PUSH1 0x60 ADD SWAP1 JUMP JUMPDEST SWAP1 DUP2 MSTORE PUSH1 0x20 ADD SWAP1 JUMP JUMPDEST SWAP2 DUP3 MSTORE PUSH1 0x1 PUSH1 0x1 PUSH1 0xA0 SHL SUB AND PUSH1 0x20 DUP3 ADD MSTORE PUSH1 0x40 ADD SWAP1 JUMP JUMPDEST PUSH1 0x0 DUP6 DUP3 MSTORE PUSH1 0x60 PUSH1 0x20 DUP4 ADD MSTORE PUSH2 0x37A9 PUSH1 0x60 DUP4 ADD DUP6 DUP8 PUSH2 0x2ED3 JUMP JUMPDEST SWAP1 POP DUP3 ISZERO ISZERO PUSH1 0x40 DUP4 ADD MSTORE SWAP6 SWAP5 POP POP POP POP POP JUMP JUMPDEST PUSH1 0x0 DUP6 DUP3 MSTORE PUSH1 0x60 PUSH1 0x20 DUP4 ADD MSTORE PUSH2 0x37D6 PUSH1 0x60 DUP4 ADD DUP6 DUP8 PUSH2 0x2ED3 JUMP JUMPDEST SWAP1 POP DUP3 PUSH1 0x40 DUP4 ADD MSTORE SWAP6 SWAP5 POP POP POP POP POP JUMP JUMPDEST SWAP2 DUP3 MSTORE PUSH1 0x20 DUP3 ADD MSTORE PUSH1 0x40 ADD SWAP1 JUMP JUMPDEST PUSH1 0x0 DUP6 DUP3 MSTORE DUP5 PUSH1 0x20 DUP4 ADD MSTORE PUSH1 0x60 PUSH1 0x40 DUP4 ADD MSTORE PUSH2 0x3815 PUSH1 0x60 DUP4 ADD DUP5 DUP7 PUSH2 0x2ED3 JUMP JUMPDEST SWAP7 SWAP6 POP POP POP POP POP POP JUMP JUMPDEST SWAP3 DUP4 MSTORE PUSH1 0x20 DUP4 ADD SWAP2 SWAP1 SWAP2 MSTORE PUSH1 0x40 DUP3 ADD MSTORE PUSH1 0x60 ADD SWAP1 JUMP JUMPDEST SWAP3 DUP4 MSTORE PUSH1 0x20 DUP4 ADD SWAP2 SWAP1 SWAP2 MSTORE PUSH1 0xFF AND PUSH1 0x40 DUP3 ADD MSTORE PUSH1 0x60 ADD SWAP1 JUMP JUMPDEST SWAP4 DUP5 MSTORE PUSH1 0x20 DUP5 ADD SWAP3 SWAP1 SWAP3 MSTORE PUSH1 0xFF AND PUSH1 0x40 DUP4 ADD MSTORE PUSH1 0x60 DUP3 ADD MSTORE PUSH1 0x80 ADD SWAP1 JUMP JUMPDEST SWAP4 DUP5 MSTORE PUSH1 0xFF SWAP3 DUP4 AND PUSH1 0x20 DUP6 ADD MSTORE SWAP2 AND PUSH1 0x40 DUP4 ADD MSTORE PUSH1 0x60 DUP3 ADD MSTORE PUSH1 0x80 ADD SWAP1 JUMP JUMPDEST SWAP5 DUP6 MSTORE PUSH1 0xFF SWAP4 DUP5 AND PUSH1 0x20 DUP7 ADD MSTORE SWAP2 SWAP1 SWAP3 AND PUSH1 0x40 DUP5 ADD MSTORE PUSH1 0x60 DUP4 ADD SWAP2 SWAP1 SWAP2 MSTORE PUSH1 0x80 DUP3 ADD MSTORE PUSH1 0xA0 ADD SWAP1 JUMP JUMPDEST SWAP7 DUP8 MSTORE PUSH1 0x20 DUP8 ADD SWAP6 SWAP1 SWAP6 MSTORE PUSH1 0x40 DUP7 ADD SWAP4 SWAP1 SWAP4 MSTORE PUSH1 0x60 DUP6 ADD SWAP2 SWAP1 SWAP2 MSTORE PUSH1 0x80 DUP5 ADD MSTORE PUSH1 0xA0 DUP4 ADD MSTORE PUSH1 0x1 PUSH1 0x1 PUSH1 0xA0 SHL SUB AND PUSH1 0xC0 DUP3 ADD MSTORE PUSH1 0xE0 ADD SWAP1 JUMP JUMPDEST PUSH1 0xFF SWAP2 SWAP1 SWAP2 AND DUP2 MSTORE PUSH1 0x20 ADD SWAP1 JUMP JUMPDEST PUSH1 0xFF SWAP5 SWAP1 SWAP5 AND DUP5 MSTORE PUSH1 0x20 DUP5 ADD SWAP3 SWAP1 SWAP3 MSTORE PUSH1 0x40 DUP4 ADD MSTORE PUSH1 0x60 DUP3 ADD MSTORE PUSH1 0x80 ADD SWAP1 JUMP JUMPDEST PUSH1 0x40 MLOAD DUP2 DUP2 ADD PUSH1 0x1 PUSH1 0x1 PUSH1 0x40 SHL SUB DUP2 GT DUP3 DUP3 LT OR ISZERO PUSH2 0x393C JUMPI PUSH2 0x393C PUSH2 0x3B66 JUMP JUMPDEST PUSH1 0x40 MSTORE SWAP2 SWAP1 POP JUMP JUMPDEST PUSH1 0x0 PUSH1 0x1 PUSH1 0x1 PUSH1 0x40 SHL SUB DUP3 GT ISZERO PUSH2 0x395D JUMPI PUSH2 0x395D PUSH2 0x3B66 JUMP JUMPDEST POP PUSH1 0x20 SWAP1 DUP2 MUL ADD SWAP1 JUMP JUMPDEST PUSH1 0x0 DUP3 NOT DUP3 GT ISZERO PUSH2 0x397A JUMPI PUSH2 0x397A PUSH2 0x3B50 JUMP JUMPDEST POP ADD SWAP1 JUMP JUMPDEST PUSH1 0x0 DUP3 PUSH2 0x399A JUMPI PUSH4 0x4E487B71 PUSH1 0xE0 SHL DUP2 MSTORE PUSH1 0x12 PUSH1 0x4 MSTORE PUSH1 0x24 DUP2 REVERT JUMPDEST POP DIV SWAP1 JUMP JUMPDEST DUP1 DUP3 JUMPDEST PUSH1 0x1 DUP1 DUP7 GT PUSH2 0x39B1 JUMPI POP PUSH2 0x39DC JUMP JUMPDEST DUP2 DUP8 DIV DUP3 GT ISZERO PUSH2 0x39C3 JUMPI PUSH2 0x39C3 PUSH2 0x3B50 JUMP JUMPDEST DUP1 DUP7 AND ISZERO PUSH2 0x39D0 JUMPI SWAP2 DUP2 MUL SWAP2 JUMPDEST SWAP5 SWAP1 SWAP5 SHR SWAP4 DUP1 MUL PUSH2 0x39A2 JUMP JUMPDEST SWAP5 POP SWAP5 SWAP3 POP POP POP JUMP JUMPDEST PUSH1 0x0 PUSH2 0x8FB PUSH1 0x0 NOT DUP5 DUP5 PUSH1 0x0 DUP3 PUSH2 0x39FE JUMPI POP PUSH1 0x1 PUSH2 0x1579 JUMP JUMPDEST DUP2 PUSH2 0x3A0B JUMPI POP PUSH1 0x0 PUSH2 0x1579 JUMP JUMPDEST DUP2 PUSH1 0x1 DUP2 EQ PUSH2 0x3A21 JUMPI PUSH1 0x2 DUP2 EQ PUSH2 0x3A2B JUMPI PUSH2 0x3A58 JUMP JUMPDEST PUSH1 0x1 SWAP2 POP POP PUSH2 0x1579 JUMP JUMPDEST PUSH1 0xFF DUP5 GT ISZERO PUSH2 0x3A3C JUMPI PUSH2 0x3A3C PUSH2 0x3B50 JUMP JUMPDEST PUSH1 0x1 DUP5 SHL SWAP2 POP DUP5 DUP3 GT ISZERO PUSH2 0x3A52 JUMPI PUSH2 0x3A52 PUSH2 0x3B50 JUMP JUMPDEST POP PUSH2 0x1579 JUMP JUMPDEST POP PUSH1 0x20 DUP4 LT PUSH2 0x133 DUP4 LT AND PUSH1 0x4E DUP5 LT PUSH1 0xB DUP5 LT AND OR ISZERO PUSH2 0x3A8B JUMPI POP DUP2 DUP2 EXP DUP4 DUP2 GT ISZERO PUSH2 0x3A86 JUMPI PUSH2 0x3A86 PUSH2 0x3B50 JUMP JUMPDEST PUSH2 0x1579 JUMP JUMPDEST PUSH2 0x3A98 DUP5 DUP5 DUP5 PUSH1 0x1 PUSH2 0x399F JUMP JUMPDEST DUP1 DUP7 DIV DUP3 GT ISZERO PUSH2 0x3AAA JUMPI PUSH2 0x3AAA PUSH2 0x3B50 JUMP JUMPDEST MUL SWAP5 SWAP4 POP POP POP POP JUMP JUMPDEST PUSH1 0x0 DUP2 PUSH1 0x0 NOT DIV DUP4 GT DUP3 ISZERO ISZERO AND ISZERO PUSH2 0x3ACD JUMPI PUSH2 0x3ACD PUSH2 0x3B50 JUMP JUMPDEST POP MUL SWAP1 JUMP JUMPDEST PUSH1 0x0 DUP3 DUP3 LT ISZERO PUSH2 0x3AE4 JUMPI PUSH2 0x3AE4 PUSH2 0x3B50 JUMP JUMPDEST POP SUB SWAP1 JUMP JUMPDEST PUSH1 0x0 JUMPDEST DUP4 DUP2 LT ISZERO PUSH2 0x3B04 JUMPI DUP2 DUP2 ADD MLOAD DUP4 DUP3 ADD MSTORE PUSH1 0x20 ADD PUSH2 0x3AEC JUMP JUMPDEST DUP4 DUP2 GT ISZERO PUSH2 0x5BB JUMPI POP POP PUSH1 0x0 SWAP2 ADD MSTORE JUMP JUMPDEST PUSH1 0x0 PUSH1 0x0 NOT DUP3 EQ ISZERO PUSH2 0x3B29 JUMPI PUSH2 0x3B29 PUSH2 0x3B50 JUMP JUMPDEST POP PUSH1 0x1 ADD SWAP1 JUMP JUMPDEST PUSH1 0x0 PUSH1 0xFF DUP3 AND PUSH1 0xFF DUP2 EQ ISZERO PUSH2 0x3B47 JUMPI PUSH2 0x3B47 PUSH2 0x3B50 JUMP JUMPDEST PUSH1 0x1 ADD SWAP3 SWAP2 POP POP JUMP JUMPDEST PUSH4 0x4E487B71 PUSH1 0xE0 SHL PUSH1 0x0 MSTORE PUSH1 0x11 PUSH1 0x4 MSTORE PUSH1 0x24 PUSH1 0x0 REVERT JUMPDEST PUSH4 0x4E487B71 PUSH1 0xE0 SHL PUSH1 0x0 MSTORE PUSH1 0x41 PUSH1 0x4 MSTORE PUSH1 0x24 PUSH1 0x0 REVERT JUMPDEST PUSH1 0x1 PUSH1 0x1 PUSH1 0xA0 SHL SUB DUP2 AND DUP2 EQ PUSH2 0x2393 JUMPI PUSH1 0x0 DUP1 REVERT JUMPDEST DUP1 ISZERO ISZERO DUP2 EQ PUSH2 0x2393 JUMPI PUSH1 0x0 DUP1 REVERT INVALID LOG2 PUSH5 0x6970667358 0x22 SLT KECCAK256 PUSH11 0x24EED70C4B2A7DF2A7B08E PUSH29 0xDC669113984EBDB24036EFF270318EB106E05664736F6C634300080000 CALLER "
		},
		"gasEstimates": {
			"creation": {
				"codeDepositCost": "3063400",
				"executionCost": "24191",
				"totalCost": "3087591"
			},
			"external": {
				"MAX_BPS()": "382",
				"addLiquidity(uint256[],uint256,uint256)": "infinite",
				"calculateRemoveLiquidity(uint256)": "infinite",
				"calculateRemoveLiquidityOneToken(uint256,uint8)": "infinite",
				"calculateSwap(uint8,uint8,uint256)": "infinite",
				"calculateTokenAmount(uint256[],bool)": "infinite",
				"flashLoan(address,address,uint256,bytes)": "infinite",
				"flashLoanFeeBPS()": "1095",
				"getA()": "infinite",
				"getAPrecise()": "infinite",
				"getAdminBalance(uint256)": "infinite",
				"getAdminBalances()": "infinite",
				"getLpToken()": "1159",
				"getNumberOfTokens()": "1116",
				"getToken(uint8)": "3068",
				"getTokenBalance(uint8)": "3024",
				"getTokenBalances()": "infinite",
				"getTokenIndex(address)": "4102",
				"getTokenPrecisionMultipliers()": "infinite",
				"getTokens()": "infinite",
				"getVirtualPrice()": "infinite",
				"initialize(address[],uint8[],string,string,uint256,uint256,uint256,address)": "infinite",
				"isFlashLoanEnabled()": "1129",
				"owner()": "1138",
				"pause()": "infinite",
				"paused()": "1108",
				"protocolFeeShareBPS()": "1161",
				"rampA(uint256,uint256)": "infinite",
				"removeLiquidity(uint256,uint256[],uint256)": "infinite",
				"removeLiquidityImbalance(uint256[],uint256,uint256)": "infinite",
				"removeLiquidityOneToken(uint256,uint8,uint256,uint256)": "infinite",
				"renounceOwnership()": "24297",
				"setAdminFee(uint256)": "infinite",
				"setFlashLoanFees(uint256,uint256)": "41346",
				"setSwapFee(uint256)": "infinite",
				"stopRampA()": "infinite",
				"swap(uint8,uint8,uint256,uint256,uint256)": "infinite",
				"swapStorage()": "6129",
				"toggleFlashLoan(bool)": "22169",
				"transferOwnership(address)": "24620",
				"unpause()": "infinite",
				"withdrawAdminFees()": "infinite"
			}
		},
		"methodIdentifiers": {
			"MAX_BPS()": "fd967f47",
			"addLiquidity(uint256[],uint256,uint256)": "4d49e87d",
			"calculateRemoveLiquidity(uint256)": "f2fad2b6",
			"calculateRemoveLiquidityOneToken(uint256,uint8)": "342a87a1",
			"calculateSwap(uint8,uint8,uint256)": "a95b089f",
			"calculateTokenAmount(uint256[],bool)": "e6ab2806",
			"flashLoan(address,address,uint256,bytes)": "5cffe9de",
			"flashLoanFeeBPS()": "7f1c825a",
			"getA()": "d46300fd",
			"getAPrecise()": "0ba81959",
			"getAdminBalance(uint256)": "ef0a712f",
			"getAdminBalances()": "18f52ce2",
			"getLpToken()": "8214f5a4",
			"getNumberOfTokens()": "efeecb51",
			"getToken(uint8)": "82b86600",
			"getTokenBalance(uint8)": "91ceb3eb",
			"getTokenBalances()": "a1dc9031",
			"getTokenIndex(address)": "66c0bd24",
			"getTokenPrecisionMultipliers()": "d41f6568",
			"getTokens()": "aa6ca808",
			"getVirtualPrice()": "e25aa5fa",
			"initialize(address[],uint8[],string,string,uint256,uint256,uint256,address)": "b28cb6dc",
			"isFlashLoanEnabled()": "ae3fcb1f",
			"owner()": "8da5cb5b",
			"pause()": "8456cb59",
			"paused()": "5c975abb",
			"protocolFeeShareBPS()": "e8cc7fb6",
			"rampA(uint256,uint256)": "593d132c",
			"removeLiquidity(uint256,uint256[],uint256)": "31cd52b0",
			"removeLiquidityImbalance(uint256[],uint256,uint256)": "84cdd9bc",
			"removeLiquidityOneToken(uint256,uint8,uint256,uint256)": "3e3a1560",
			"renounceOwnership()": "715018a6",
			"setAdminFee(uint256)": "8beb60b6",
			"setFlashLoanFees(uint256,uint256)": "ef815967",
			"setSwapFee(uint256)": "34e19907",
			"stopRampA()": "c4db7fa0",
			"swap(uint8,uint8,uint256,uint256,uint256)": "91695586",
			"swapStorage()": "5fd65f0f",
			"toggleFlashLoan(bool)": "4bcdafac",
			"transferOwnership(address)": "f2fde38b",
			"unpause()": "3f4ba83a",
			"withdrawAdminFees()": "0419b45a"
		}
	},
	"abi": [
		{
			"anonymous": false,
			"inputs": [
				{
					"indexed": true,
					"internalType": "address",
					"name": "provider",
					"type": "address"
				},
				{
					"indexed": false,
					"internalType": "uint256[]",
					"name": "tokenAmounts",
					"type": "uint256[]"
				},
				{
					"indexed": false,
					"internalType": "uint256[]",
					"name": "fees",
					"type": "uint256[]"
				},
				{
					"indexed": false,
					"internalType": "uint256",
					"name": "invariant",
					"type": "uint256"
				},
				{
					"indexed": false,
					"internalType": "uint256",
					"name": "lpTokenSupply",
					"type": "uint256"
				}
			],
			"name": "AddLiquidity",
			"type": "event"
		},
		{
			"anonymous": false,
			"inputs": [
				{
					"indexed": true,
					"internalType": "address",
					"name": "receiver",
					"type": "address"
				},
				{
					"indexed": false,
					"internalType": "uint8",
					"name": "tokenIndex",
					"type": "uint8"
				},
				{
					"indexed": false,
					"internalType": "uint256",
					"name": "amount",
					"type": "uint256"
				},
				{
					"indexed": false,
					"internalType": "uint256",
					"name": "amountFee",
					"type": "uint256"
				},
				{
					"indexed": false,
					"internalType": "uint256",
					"name": "protocolFee",
					"type": "uint256"
				}
			],
			"name": "FlashLoan",
			"type": "event"
		},
		{
			"anonymous": false,
			"inputs": [
				{
					"indexed": false,
					"internalType": "uint256",
					"name": "newAdminFee",
					"type": "uint256"
				}
			],
			"name": "NewAdminFee",
			"type": "event"
		},
		{
			"anonymous": false,
			"inputs": [
				{
					"indexed": false,
					"internalType": "uint256",
					"name": "newSwapFee",
					"type": "uint256"
				}
			],
			"name": "NewSwapFee",
			"type": "event"
		},
		{
			"anonymous": false,
			"inputs": [
				{
					"indexed": true,
					"internalType": "address",
					"name": "previousOwner",
					"type": "address"
				},
				{
					"indexed": true,
					"internalType": "address",
					"name": "newOwner",
					"type": "address"
				}
			],
			"name": "OwnershipTransferred",
			"type": "event"
		},
		{
			"anonymous": false,
			"inputs": [
				{
					"indexed": false,
					"internalType": "address",
					"name": "account",
					"type": "address"
				}
			],
			"name": "Paused",
			"type": "event"
		},
		{
			"anonymous": false,
			"inputs": [
				{
					"indexed": false,
					"internalType": "uint256",
					"name": "oldA",
					"type": "uint256"
				},
				{
					"indexed": false,
					"internalType": "uint256",
					"name": "newA",
					"type": "uint256"
				},
				{
					"indexed": false,
					"internalType": "uint256",
					"name": "initialTime",
					"type": "uint256"
				},
				{
					"indexed": false,
					"internalType": "uint256",
					"name": "futureTime",
					"type": "uint256"
				}
			],
			"name": "RampA",
			"type": "event"
		},
		{
			"anonymous": false,
			"inputs": [
				{
					"indexed": true,
					"internalType": "address",
					"name": "provider",
					"type": "address"
				},
				{
					"indexed": false,
					"internalType": "uint256[]",
					"name": "tokenAmounts",
					"type": "uint256[]"
				},
				{
					"indexed": false,
					"internalType": "uint256",
					"name": "lpTokenSupply",
					"type": "uint256"
				}
			],
			"name": "RemoveLiquidity",
			"type": "event"
		},
		{
			"anonymous": false,
			"inputs": [
				{
					"indexed": true,
					"internalType": "address",
					"name": "provider",
					"type": "address"
				},
				{
					"indexed": false,
					"internalType": "uint256[]",
					"name": "tokenAmounts",
					"type": "uint256[]"
				},
				{
					"indexed": false,
					"internalType": "uint256[]",
					"name": "fees",
					"type": "uint256[]"
				},
				{
					"indexed": false,
					"internalType": "uint256",
					"name": "invariant",
					"type": "uint256"
				},
				{
					"indexed": false,
					"internalType": "uint256",
					"name": "lpTokenSupply",
					"type": "uint256"
				}
			],
			"name": "RemoveLiquidityImbalance",
			"type": "event"
		},
		{
			"anonymous": false,
			"inputs": [
				{
					"indexed": true,
					"internalType": "address",
					"name": "provider",
					"type": "address"
				},
				{
					"indexed": false,
					"internalType": "uint256",
					"name": "lpTokenAmount",
					"type": "uint256"
				},
				{
					"indexed": false,
					"internalType": "uint256",
					"name": "lpTokenSupply",
					"type": "uint256"
				},
				{
					"indexed": false,
					"internalType": "uint256",
					"name": "boughtId",
					"type": "uint256"
				},
				{
					"indexed": false,
					"internalType": "uint256",
					"name": "tokensBought",
					"type": "uint256"
				}
			],
			"name": "RemoveLiquidityOne",
			"type": "event"
		},
		{
			"anonymous": false,
			"inputs": [
				{
					"indexed": false,
					"internalType": "uint256",
					"name": "currentA",
					"type": "uint256"
				},
				{
					"indexed": false,
					"internalType": "uint256",
					"name": "time",
					"type": "uint256"
				}
			],
			"name": "StopRampA",
			"type": "event"
		},
		{
			"anonymous": false,
			"inputs": [
				{
					"indexed": true,
					"internalType": "address",
					"name": "buyer",
					"type": "address"
				},
				{
					"indexed": false,
					"internalType": "uint256",
					"name": "tokensSold",
					"type": "uint256"
				},
				{
					"indexed": false,
					"internalType": "uint256",
					"name": "tokensBought",
					"type": "uint256"
				},
				{
					"indexed": false,
					"internalType": "uint128",
					"name": "soldId",
					"type": "uint128"
				},
				{
					"indexed": false,
					"internalType": "uint128",
					"name": "boughtId",
					"type": "uint128"
				}
			],
			"name": "TokenSwap",
			"type": "event"
		},
		{
			"anonymous": false,
			"inputs": [
				{
					"indexed": false,
					"internalType": "address",
					"name": "account",
					"type": "address"
				}
			],
			"name": "Unpaused",
			"type": "event"
		},
		{
			"inputs": [],
			"name": "MAX_BPS",
			"outputs": [
				{
					"internalType": "uint256",
					"name": "",
					"type": "uint256"
				}
			],
			"stateMutability": "view",
			"type": "function"
		},
		{
			"inputs": [
				{
					"internalType": "uint256[]",
					"name": "amounts",
					"type": "uint256[]"
				},
				{
					"internalType": "uint256",
					"name": "minToMint",
					"type": "uint256"
				},
				{
					"internalType": "uint256",
					"name": "deadline",
					"type": "uint256"
				}
			],
			"name": "addLiquidity",
			"outputs": [
				{
					"internalType": "uint256",
					"name": "",
					"type": "uint256"
				}
			],
			"stateMutability": "nonpayable",
			"type": "function"
		},
		{
			"inputs": [
				{
					"internalType": "uint256",
					"name": "amount",
					"type": "uint256"
				}
			],
			"name": "calculateRemoveLiquidity",
			"outputs": [
				{
					"internalType": "uint256[]",
					"name": "",
					"type": "uint256[]"
				}
			],
			"stateMutability": "view",
			"type": "function"
		},
		{
			"inputs": [
				{
					"internalType": "uint256",
					"name": "tokenAmount",
					"type": "uint256"
				},
				{
					"internalType": "uint8",
					"name": "tokenIndex",
					"type": "uint8"
				}
			],
			"name": "calculateRemoveLiquidityOneToken",
			"outputs": [
				{
					"internalType": "uint256",
					"name": "availableTokenAmount",
					"type": "uint256"
				}
			],
			"stateMutability": "view",
			"type": "function"
		},
		{
			"inputs": [
				{
					"internalType": "uint8",
					"name": "tokenIndexFrom",
					"type": "uint8"
				},
				{
					"internalType": "uint8",
					"name": "tokenIndexTo",
					"type": "uint8"
				},
				{
					"internalType": "uint256",
					"name": "dx",
					"type": "uint256"
				}
			],
			"name": "calculateSwap",
			"outputs": [
				{
					"internalType": "uint256",
					"name": "",
					"type": "uint256"
				}
			],
			"stateMutability": "view",
			"type": "function"
		},
		{
			"inputs": [
				{
					"internalType": "uint256[]",
					"name": "amounts",
					"type": "uint256[]"
				},
				{
					"internalType": "bool",
					"name": "deposit",
					"type": "bool"
				}
			],
			"name": "calculateTokenAmount",
			"outputs": [
				{
					"internalType": "uint256",
					"name": "",
					"type": "uint256"
				}
			],
			"stateMutability": "view",
			"type": "function"
		},
		{
			"inputs": [
				{
					"internalType": "address",
					"name": "receiver",
					"type": "address"
				},
				{
					"internalType": "contract IERC20",
					"name": "token",
					"type": "address"
				},
				{
					"internalType": "uint256",
					"name": "amount",
					"type": "uint256"
				},
				{
					"internalType": "bytes",
					"name": "params",
					"type": "bytes"
				}
			],
			"name": "flashLoan",
			"outputs": [],
			"stateMutability": "nonpayable",
			"type": "function"
		},
		{
			"inputs": [],
			"name": "flashLoanFeeBPS",
			"outputs": [
				{
					"internalType": "uint256",
					"name": "",
					"type": "uint256"
				}
			],
			"stateMutability": "view",
			"type": "function"
		},
		{
			"inputs": [],
			"name": "getA",
			"outputs": [
				{
					"internalType": "uint256",
					"name": "",
					"type": "uint256"
				}
			],
			"stateMutability": "view",
			"type": "function"
		},
		{
			"inputs": [],
			"name": "getAPrecise",
			"outputs": [
				{
					"internalType": "uint256",
					"name": "",
					"type": "uint256"
				}
			],
			"stateMutability": "view",
			"type": "function"
		},
		{
			"inputs": [
				{
					"internalType": "uint256",
					"name": "index",
					"type": "uint256"
				}
			],
			"name": "getAdminBalance",
			"outputs": [
				{
					"internalType": "uint256",
					"name": "",
					"type": "uint256"
				}
			],
			"stateMutability": "view",
			"type": "function"
		},
		{
			"inputs": [],
			"name": "getAdminBalances",
			"outputs": [
				{
					"internalType": "uint256[]",
					"name": "adminBalances",
					"type": "uint256[]"
				}
			],
			"stateMutability": "view",
			"type": "function"
		},
		{
			"inputs": [],
			"name": "getLpToken",
			"outputs": [
				{
					"internalType": "contract LPToken",
					"name": "",
					"type": "address"
				}
			],
			"stateMutability": "view",
			"type": "function"
		},
		{
			"inputs": [],
			"name": "getNumberOfTokens",
			"outputs": [
				{
					"internalType": "uint256",
					"name": "",
					"type": "uint256"
				}
			],
			"stateMutability": "view",
			"type": "function"
		},
		{
			"inputs": [
				{
					"internalType": "uint8",
					"name": "index",
					"type": "uint8"
				}
			],
			"name": "getToken",
			"outputs": [
				{
					"internalType": "contract IERC20",
					"name": "",
					"type": "address"
				}
			],
			"stateMutability": "view",
			"type": "function"
		},
		{
			"inputs": [
				{
					"internalType": "uint8",
					"name": "index",
					"type": "uint8"
				}
			],
			"name": "getTokenBalance",
			"outputs": [
				{
					"internalType": "uint256",
					"name": "",
					"type": "uint256"
				}
			],
			"stateMutability": "view",
			"type": "function"
		},
		{
			"inputs": [],
			"name": "getTokenBalances",
			"outputs": [
				{
					"internalType": "uint256[]",
					"name": "",
					"type": "uint256[]"
				}
			],
			"stateMutability": "view",
			"type": "function"
		},
		{
			"inputs": [
				{
					"internalType": "address",
					"name": "tokenAddress",
					"type": "address"
				}
			],
			"name": "getTokenIndex",
			"outputs": [
				{
					"internalType": "uint8",
					"name": "",
					"type": "uint8"
				}
			],
			"stateMutability": "view",
			"type": "function"
		},
		{
			"inputs": [],
			"name": "getTokenPrecisionMultipliers",
			"outputs": [
				{
					"internalType": "uint256[]",
					"name": "",
					"type": "uint256[]"
				}
			],
			"stateMutability": "view",
			"type": "function"
		},
		{
			"inputs": [],
			"name": "getTokens",
			"outputs": [
				{
					"internalType": "contract IERC20[]",
					"name": "",
					"type": "address[]"
				}
			],
			"stateMutability": "view",
			"type": "function"
		},
		{
			"inputs": [],
			"name": "getVirtualPrice",
			"outputs": [
				{
					"internalType": "uint256",
					"name": "",
					"type": "uint256"
				}
			],
			"stateMutability": "view",
			"type": "function"
		},
		{
			"inputs": [
				{
					"internalType": "contract IERC20[]",
					"name": "_pooledTokens",
					"type": "address[]"
				},
				{
					"internalType": "uint8[]",
					"name": "decimals",
					"type": "uint8[]"
				},
				{
					"internalType": "string",
					"name": "lpTokenName",
					"type": "string"
				},
				{
					"internalType": "string",
					"name": "lpTokenSymbol",
					"type": "string"
				},
				{
					"internalType": "uint256",
					"name": "_a",
					"type": "uint256"
				},
				{
					"internalType": "uint256",
					"name": "_fee",
					"type": "uint256"
				},
				{
					"internalType": "uint256",
					"name": "_adminFee",
					"type": "uint256"
				},
				{
					"internalType": "address",
					"name": "lpTokenTargetAddress",
					"type": "address"
				}
			],
			"name": "initialize",
			"outputs": [],
			"stateMutability": "nonpayable",
			"type": "function"
		},
		{
			"inputs": [],
			"name": "isFlashLoanEnabled",
			"outputs": [
				{
					"internalType": "bool",
					"name": "",
					"type": "bool"
				}
			],
			"stateMutability": "view",
			"type": "function"
		},
		{
			"inputs": [],
			"name": "owner",
			"outputs": [
				{
					"internalType": "address",
					"name": "",
					"type": "address"
				}
			],
			"stateMutability": "view",
			"type": "function"
		},
		{
			"inputs": [],
			"name": "pause",
			"outputs": [],
			"stateMutability": "nonpayable",
			"type": "function"
		},
		{
			"inputs": [],
			"name": "paused",
			"outputs": [
				{
					"internalType": "bool",
					"name": "",
					"type": "bool"
				}
			],
			"stateMutability": "view",
			"type": "function"
		},
		{
			"inputs": [],
			"name": "protocolFeeShareBPS",
			"outputs": [
				{
					"internalType": "uint256",
					"name": "",
					"type": "uint256"
				}
			],
			"stateMutability": "view",
			"type": "function"
		},
		{
			"inputs": [
				{
					"internalType": "uint256",
					"name": "futureA",
					"type": "uint256"
				},
				{
					"internalType": "uint256",
					"name": "futureTime",
					"type": "uint256"
				}
			],
			"name": "rampA",
			"outputs": [],
			"stateMutability": "nonpayable",
			"type": "function"
		},
		{
			"inputs": [
				{
					"internalType": "uint256",
					"name": "amount",
					"type": "uint256"
				},
				{
					"internalType": "uint256[]",
					"name": "minAmounts",
					"type": "uint256[]"
				},
				{
					"internalType": "uint256",
					"name": "deadline",
					"type": "uint256"
				}
			],
			"name": "removeLiquidity",
			"outputs": [
				{
					"internalType": "uint256[]",
					"name": "",
					"type": "uint256[]"
				}
			],
			"stateMutability": "nonpayable",
			"type": "function"
		},
		{
			"inputs": [
				{
					"internalType": "uint256[]",
					"name": "amounts",
					"type": "uint256[]"
				},
				{
					"internalType": "uint256",
					"name": "maxBurnAmount",
					"type": "uint256"
				},
				{
					"internalType": "uint256",
					"name": "deadline",
					"type": "uint256"
				}
			],
			"name": "removeLiquidityImbalance",
			"outputs": [
				{
					"internalType": "uint256",
					"name": "",
					"type": "uint256"
				}
			],
			"stateMutability": "nonpayable",
			"type": "function"
		},
		{
			"inputs": [
				{
					"internalType": "uint256",
					"name": "tokenAmount",
					"type": "uint256"
				},
				{
					"internalType": "uint8",
					"name": "tokenIndex",
					"type": "uint8"
				},
				{
					"internalType": "uint256",
					"name": "minAmount",
					"type": "uint256"
				},
				{
					"internalType": "uint256",
					"name": "deadline",
					"type": "uint256"
				}
			],
			"name": "removeLiquidityOneToken",
			"outputs": [
				{
					"internalType": "uint256",
					"name": "",
					"type": "uint256"
				}
			],
			"stateMutability": "nonpayable",
			"type": "function"
		},
		{
			"inputs": [],
			"name": "renounceOwnership",
			"outputs": [],
			"stateMutability": "nonpayable",
			"type": "function"
		},
		{
			"inputs": [
				{
					"internalType": "uint256",
					"name": "newAdminFee",
					"type": "uint256"
				}
			],
			"name": "setAdminFee",
			"outputs": [],
			"stateMutability": "nonpayable",
			"type": "function"
		},
		{
			"inputs": [
				{
					"internalType": "uint256",
					"name": "newFlashLoanFeeBPS",
					"type": "uint256"
				},
				{
					"internalType": "uint256",
					"name": "newProtocolFeeShareBPS",
					"type": "uint256"
				}
			],
			"name": "setFlashLoanFees",
			"outputs": [],
			"stateMutability": "nonpayable",
			"type": "function"
		},
		{
			"inputs": [
				{
					"internalType": "uint256",
					"name": "newSwapFee",
					"type": "uint256"
				}
			],
			"name": "setSwapFee",
			"outputs": [],
			"stateMutability": "nonpayable",
			"type": "function"
		},
		{
			"inputs": [],
			"name": "stopRampA",
			"outputs": [],
			"stateMutability": "nonpayable",
			"type": "function"
		},
		{
			"inputs": [
				{
					"internalType": "uint8",
					"name": "tokenIndexFrom",
					"type": "uint8"
				},
				{
					"internalType": "uint8",
					"name": "tokenIndexTo",
					"type": "uint8"
				},
				{
					"internalType": "uint256",
					"name": "dx",
					"type": "uint256"
				},
				{
					"internalType": "uint256",
					"name": "minDy",
					"type": "uint256"
				},
				{
					"internalType": "uint256",
					"name": "deadline",
					"type": "uint256"
				}
			],
			"name": "swap",
			"outputs": [
				{
					"internalType": "uint256",
					"name": "",
					"type": "uint256"
				}
			],
			"stateMutability": "nonpayable",
			"type": "function"
		},
		{
			"inputs": [],
			"name": "swapStorage",
			"outputs": [
				{
					"internalType": "uint256",
					"name": "initialA",
					"type": "uint256"
				},
				{
					"internalType": "uint256",
					"name": "futureA",
					"type": "uint256"
				},
				{
					"internalType": "uint256",
					"name": "initialATime",
					"type": "uint256"
				},
				{
					"internalType": "uint256",
					"name": "futureATime",
					"type": "uint256"
				},
				{
					"internalType": "uint256",
					"name": "swapFee",
					"type": "uint256"
				},
				{
					"internalType": "uint256",
					"name": "adminFee",
					"type": "uint256"
				},
				{
					"internalType": "contract LPToken",
					"name": "lpToken",
					"type": "address"
				}
			],
			"stateMutability": "view",
			"type": "function"
		},
		{
			"inputs": [
				{
					"internalType": "bool",
					"name": "enableFlashLoan",
					"type": "bool"
				}
			],
			"name": "toggleFlashLoan",
			"outputs": [],
			"stateMutability": "nonpayable",
			"type": "function"
		},
		{
			"inputs": [
				{
					"internalType": "address",
					"name": "newOwner",
					"type": "address"
				}
			],
			"name": "transferOwnership",
			"outputs": [],
			"stateMutability": "nonpayable",
			"type": "function"
		},
		{
			"inputs": [],
			"name": "unpause",
			"outputs": [],
			"stateMutability": "nonpayable",
			"type": "function"
		},
		{
			"inputs": [],
			"name": "withdrawAdminFees",
			"outputs": [],
			"stateMutability": "nonpayable",
			"type": "function"
		}
	]
}