{
	"data": {
		"bytecode": {
			"linkReferences": {},
			"object": "61477561003a600b82828239805160001a60731461002d57634e487b7160e01b600052600060045260246000fd5b30600052607381538281f3fe73000000000000000000000000000000000000000030146080604052600436106101155760003560e01c806371906c2c116100ac578063a5397b221161007b578063a5397b2214610273578063ab3d854414610293578063e06927421461029b578063e7a4db81146102ae578063f3de0362146102ce57610115565b806371906c2c1461021a57806373fd6b3e1461022d5780637d0481601461024d578063834b49101461026057610115565b8063467e186c116100e8578063467e186c146101a75780634b23603c146101c757806370467276146101da57806370703e4a146101fa57610115565b80630296ab501461011a57806324c5c7511461013857806340370edf1461015a57806341b91c2614610187575b600080fd5b6101226102d6565b60405161012f9190614511565b60405180910390f35b81801561014457600080fd5b50610158610153366004613a33565b6102db565b005b81801561016657600080fd5b5061017a610175366004613aca565b610460565b60405161012f91906144c9565b81801561019357600080fd5b5061017a6101a2366004613aca565b610e07565b8180156101b357600080fd5b506101586101c2366004613b98565b61161e565b61017a6101d5366004613c7a565b611685565b8180156101e657600080fd5b506101586101f5366004613b98565b6116f0565b61020d610208366004613b98565b61174c565b60405161012f9190613db9565b61017a610228366004613a1b565b61183b565b81801561023957600080fd5b5061020d610248366004613bb9565b61191b565b61017a61025b366004613b98565b611d06565b61017a61026e366004613a6d565b611db9565b81801561027f57600080fd5b5061017a61028e366004613cad565b6120a8565b61017a612482565b61017a6102a9366004613c0a565b61248a565b8180156102ba57600080fd5b5061017a6102c9366004613c3e565b612520565b61017a612873565b601281565b60008260070180548060200260200160405190810160405280929190818152602001828054801561033557602002820191906000526020600020905b81546001600160a01b03168152600190910190602001808311610317575b5050505050905060005b815181101561045a57600082828151811061036a57634e487b7160e01b600052603260045260246000fd5b60200260200101519050600061042986600901848154811061039c57634e487b7160e01b600052603260045260246000fd5b9060005260206000200154836001600160a01b03166370a08231306040518263ffffffff1660e01b81526004016103d39190613d68565b60206040518083038186803b1580156103eb57600080fd5b505afa1580156103ff573d6000803e3d6000fd5b505050506040513d601f19601f820116820180604052508101906104239190613cfa565b9061287c565b90508015610445576104456001600160a01b03831686836128a8565b50508080610452906146c4565b91505061033f565b50505050565b600080846007018054806020026020016040519081016040528092919081815260200182805480156104bb57602002820191906000526020600020905b81546001600160a01b0316815260019091019060200180831161049d575b5050505050905080518451146104ec5760405162461bcd60e51b81526004016104e390613e8b565b60405180910390fd5b600060405180610100016040528060008152602001600081526020016000815260200161051888612903565b81526020018760060160009054906101000a90046001600160a01b03166001600160a01b03168152602001600081526020018760090180548060200260200160405190810160405280929190818152602001828054801561059857602002820191906000526020600020905b815481526020019060010190808311610584575b50505050508152602001876008018054806020026020016040519081016040528092919081815260200182805480156105f057602002820191906000526020600020905b8154815260200190600101908083116105dc575b5050505050815250905080608001516001600160a01b03166318160ddd6040518163ffffffff1660e01b815260040160206040518083038186803b15801561063757600080fd5b505afa15801561064b573d6000803e3d6000fd5b505050506040513d601f19601f8201168201806040525081019061066f9190613cfa565b60a082018190521561069d5761069a6106908260c001518360e0015161290e565b8260600151612a25565b81525b6000825167ffffffffffffffff8111156106c757634e487b7160e01b600052604160045260246000fd5b6040519080825280602002602001820160405280156106f0578160200160208202803683370190505b50905060005b83518110156109bf5760a08301511515806107385750600087828151811061072e57634e487b7160e01b600052603260045260246000fd5b6020026020010151115b6107545760405162461bcd60e51b81526004016104e390613f56565b86818151811061077457634e487b7160e01b600052603260045260246000fd5b602002602001015160001461091d5760008482815181106107a557634e487b7160e01b600052603260045260246000fd5b60200260200101516001600160a01b03166370a08231306040518263ffffffff1660e01b81526004016107d89190613d68565b60206040518083038186803b1580156107f057600080fd5b505afa158015610804573d6000803e3d6000fd5b505050506040513d601f19601f820116820180604052508101906108289190613cfa565b905061089833308a858151811061084f57634e487b7160e01b600052603260045260246000fd5b602002602001015188868151811061087757634e487b7160e01b600052603260045260246000fd5b60200260200101516001600160a01b0316612ba2909392919063ffffffff16565b6108ef818684815181106108bc57634e487b7160e01b600052603260045260246000fd5b60200260200101516001600160a01b03166370a08231306040518263ffffffff1660e01b81526004016103d39190613d68565b88838151811061090f57634e487b7160e01b600052603260045260246000fd5b602002602001018181525050505b61098287828151811061094057634e487b7160e01b600052603260045260246000fd5b60200260200101518460c00151838151811061096c57634e487b7160e01b600052603260045260246000fd5b6020026020010151612bc390919063ffffffff16565b8282815181106109a257634e487b7160e01b600052603260045260246000fd5b6020908102919091010152806109b7816146c4565b9150506106f6565b506109db6109d1828460e0015161290e565b8360600151612a25565b60208301819052825110610a015760405162461bcd60e51b81526004016104e39061424c565b60208201516040830152825160009067ffffffffffffffff811115610a3657634e487b7160e01b600052604160045260246000fd5b604051908082528060200260200182016040528015610a5f578160200160208202803683370190505b5090508260a00151600014610cbb576000610a7f89600401548651612bf2565b905060005b8551811015610c94576000610adf8660000151610ad98860c001518581518110610abe57634e487b7160e01b600052603260045260246000fd5b60200260200101518960200151612c0d90919063ffffffff16565b90612c52565b9050610b2e6402540be400610ad9610b27888681518110610b1057634e487b7160e01b600052603260045260246000fd5b602002602001015185612c7d90919063ffffffff16565b8690612c0d565b848381518110610b4e57634e487b7160e01b600052603260045260246000fd5b602002602001018181525050610bda610ba46402540be400610ad98e60050154888781518110610b8e57634e487b7160e01b600052603260045260246000fd5b6020026020010151612c0d90919063ffffffff16565b868481518110610bc457634e487b7160e01b600052603260045260246000fd5b602002602001015161287c90919063ffffffff16565b8b6009018381548110610bfd57634e487b7160e01b600052603260045260246000fd5b9060005260206000200181905550610c56848381518110610c2e57634e487b7160e01b600052603260045260246000fd5b6020026020010151868481518110610bc457634e487b7160e01b600052603260045260246000fd5b858381518110610c7657634e487b7160e01b600052603260045260246000fd5b60209081029190910101525080610c8c816146c4565b915050610a84565b50610cb0610ca6848660e0015161290e565b8560600151612a25565b604085015250610cd2565b8151610cd09060098a01906020850190613945565b505b60008360a0015160001415610cec57506020830151610d14565b835160a08501516040860151610d119291610ad991610d0b908461287c565b90612c0d565b90505b86811015610d345760405162461bcd60e51b81526004016104e390614108565b83608001516001600160a01b03166340c10f1933836040518363ffffffff1660e01b8152600401610d66929190613da0565b600060405180830381600087803b158015610d8057600080fd5b505af1158015610d94573d6000803e3d6000fd5b50505050336001600160a01b03167f189c623b666b1b45b83d7178f39b8c087cb09774317ca2f53c2d3c3726f222a289848760200151610de1868a60a00151612bc390919063ffffffff16565b604051610df19493929190613dfd565b60405180910390a29450505050505b9392505050565b600080604051806101000160405280600081526020016000815260200160008152602001610e3487612903565b81526020018660060160009054906101000a90046001600160a01b03166001600160a01b031681526020016000815260200186600901805480602002602001604051908101604052809291908181526020018280548015610eb457602002820191906000526020600020905b815481526020019060010190808311610ea0575b5050505050815260200186600801805480602002602001604051908101604052809291908181526020018280548015610f0c57602002820191906000526020600020905b815481526020019060010190808311610ef8575b5050505050815250905080608001516001600160a01b03166318160ddd6040518163ffffffff1660e01b815260040160206040518083038186803b158015610f5357600080fd5b505afa158015610f67573d6000803e3d6000fd5b505050506040513d601f19601f82011682018060405250810190610f8b9190613cfa565b60a08201526007850180546040805160208084028201810190925282815260009390929091830182828015610fe957602002820191906000526020600020905b81546001600160a01b03168152600190910190602001808311610fcb575b5050505050905080518551146110115760405162461bcd60e51b81526004016104e390614436565b81608001516001600160a01b03166370a08231336040518263ffffffff1660e01b81526004016110419190613d68565b60206040518083038186803b15801561105957600080fd5b505afa15801561106d573d6000803e3d6000fd5b505050506040513d601f19601f820116820180604052508101906110919190613cfa565b841115801561109f57508315155b6110bb5760405162461bcd60e51b81526004016104e39061446b565b60006110cc87600401548351612bf2565b90506000825167ffffffffffffffff8111156110f857634e487b7160e01b600052604160045260246000fd5b604051908082528060200260200182016040528015611121578160200160208202803683370190505b5090506000835167ffffffffffffffff81111561114e57634e487b7160e01b600052604160045260246000fd5b604051908082528060200260200182016040528015611177578160200160208202803683370190505b50905061119961118f8660c001518760e0015161290e565b8660600151612a25565b855260005b8451811015611263576112268982815181106111ca57634e487b7160e01b600052603260045260246000fd5b602002602001015160405180606001604052806023815260200161471d602391398860c00151848151811061120f57634e487b7160e01b600052603260045260246000fd5b6020026020010151612ca29092919063ffffffff16565b82828151811061124657634e487b7160e01b600052603260045260246000fd5b60209081029190910101528061125b816146c4565b91505061119e565b5061127561118f828760e0015161290e565b602086015260005b84518110156114625760006112d28760000151610ad98960c0015185815181106112b757634e487b7160e01b600052603260045260246000fd5b60200260200101518a60200151612c0d90919063ffffffff16565b905060006113108484815181106112f957634e487b7160e01b600052603260045260246000fd5b602002602001015183612c7d90919063ffffffff16565b90506113256402540be400610ad98884612c0d565b85848151811061134557634e487b7160e01b600052603260045260246000fd5b6020026020010181815250506113a56113856402540be400610ad98f60050154898881518110610b8e57634e487b7160e01b600052603260045260246000fd5b858581518110610bc457634e487b7160e01b600052603260045260246000fd5b8c60090184815481106113c857634e487b7160e01b600052603260045260246000fd5b90600052602060002001819055506114218584815181106113f957634e487b7160e01b600052603260045260246000fd5b6020026020010151858581518110610bc457634e487b7160e01b600052603260045260246000fd5b84848151811061144157634e487b7160e01b600052603260045260246000fd5b6020026020010181815250505050808061145a906146c4565b91505061127d565b5061147461118f828760e0015161290e565b60408601819052855160a08701516000935061149a92610ad99190610d0b90849061287c565b9050806114b95760405162461bcd60e51b81526004016104e3906141de565b6114c4816001612bc3565b9050868111156114e65760405162461bcd60e51b81526004016104e390614215565b84608001516001600160a01b03166379cc679033836040518363ffffffff1660e01b8152600401611518929190613da0565b600060405180830381600087803b15801561153257600080fd5b505af1158015611546573d6000803e3d6000fd5b5050505060005b84518110156115d4576115c2338a838151811061157a57634e487b7160e01b600052603260045260246000fd5b60200260200101518784815181106115a257634e487b7160e01b600052603260045260246000fd5b60200260200101516001600160a01b03166128a89092919063ffffffff16565b806115cc816146c4565b91505061154d565b50336001600160a01b03167f3631c28b1f9dd213e0319fb167b554d76b6c283a41143eb400a0d1adb1af175589848860200151610de1868b60a0015161287c90919063ffffffff16565b6305f5e1008111156116425760405162461bcd60e51b81526004016104e39061413f565b600482018190556040517fd88ea5155021c6f8dafa1a741e173f595cdf77ce7c17d43342131d7f06afdfe5906116799083906144c9565b60405180910390a15050565b60006116e685858585896009018054806020026020016040519081016040528092919081815260200182805480156116dc57602002820191906000526020600020905b8154815260200190600101908083116116c8575b5050505050612cd1565b5095945050505050565b6402540be4008111156117155760405162461bcd60e51b81526004016104e39061413f565b600582018190556040517fab599d640ca80cde2b09b128a4154a8dfe608cb80f4c9399c8b954b01fd35f38906116799083906144c9565b60606118328360090180548060200260200160405190810160405280929190818152602001828054801561179f57602002820191906000526020600020905b81548152602001906001019080831161178b575b5050505050838560060160009054906101000a90046001600160a01b03166001600160a01b03166318160ddd6040518163ffffffff1660e01b815260040160206040518083038186803b1580156117f557600080fd5b505afa158015611809573d6000803e3d6000fd5b505050506040513d601f19601f8201168201806040525081019061182d9190613cfa565b612e94565b90505b92915050565b60008061185861184a84612f7d565b61185385612903565b612a25565b905060008360060160009054906101000a90046001600160a01b031690506000816001600160a01b03166318160ddd6040518163ffffffff1660e01b815260040160206040518083038186803b1580156118b157600080fd5b505afa1580156118c5573d6000803e3d6000fd5b505050506040513d601f19601f820116820180604052508101906118e99190613cfa565b9050801561190e5761190481610ad9610b276012600a614594565b9350505050611916565b600093505050505b919050565b6006840154600785018054604080516020808402820181019092528281526060946001600160a01b031693600093919290919083018282801561198757602002820191906000526020600020905b81546001600160a01b03168152600190910190602001808311611969575b50506040516370a0823160e01b8152939450506001600160a01b038516926370a0823192506119bb91503390600401613d68565b60206040518083038186803b1580156119d357600080fd5b505afa1580156119e7573d6000803e3d6000fd5b505050506040513d601f19601f82011682018060405250810190611a0b9190613cfa565b861115611a2a5760405162461bcd60e51b81526004016104e39061446b565b80518414611a4a5760405162461bcd60e51b81526004016104e390614277565b600087600901805480602002602001604051908101604052809291908181526020018280548015611a9a57602002820191906000526020600020905b815481526020019060010190808311611a86575b505050505090506000836001600160a01b03166318160ddd6040518163ffffffff1660e01b815260040160206040518083038186803b158015611adc57600080fd5b505afa158015611af0573d6000803e3d6000fd5b505050506040513d601f19601f82011682018060405250810190611b149190613cfa565b90506000611b23838a84612e94565b905060005b8151811015611c5057888882818110611b5157634e487b7160e01b600052603260045260246000fd5b90506020020135828281518110611b7857634e487b7160e01b600052603260045260246000fd5b60200260200101511015611b9e5760405162461bcd60e51b81526004016104e390614492565b611be9828281518110611bc157634e487b7160e01b600052603260045260246000fd5b6020026020010151858381518110610bc457634e487b7160e01b600052603260045260246000fd5b8b6009018281548110611c0c57634e487b7160e01b600052603260045260246000fd5b9060005260206000200181905550611c3e3383838151811061157a57634e487b7160e01b600052603260045260246000fd5b80611c48816146c4565b915050611b28565b5060405163079cc67960e41b81526001600160a01b038616906379cc679090611c7f9033908d90600401613da0565b600060405180830381600087803b158015611c9957600080fd5b505af1158015611cad573d6000803e3d6000fd5b503392507f88d38ed598fdd809c2bf01ee49cd24b7fdabf379a83d29567952b60324d58cef9150839050611ce1858d61287c565b604051611cef929190613e36565b60405180910390a29450505050505b949350505050565b60078201546000908210611d2c5760405162461bcd60e51b81526004016104e390613fed565b611832836009018381548110611d5257634e487b7160e01b600052603260045260246000fd5b9060005260206000200154846007018481548110611d8057634e487b7160e01b600052603260045260246000fd5b6000918252602090912001546040516370a0823160e01b81526001600160a01b03909116906370a08231906103d3903090600401613d68565b600080611dc586612903565b9050600086600901805480602002602001604051908101604052809291908181526020018280548015611e1757602002820191906000526020600020905b815481526020019060010190808311611e03575b50505050509050600087600801805480602002602001604051908101604052809291908181526020018280548015611e6e57602002820191906000526020600020905b815481526020019060010190808311611e5a575b505050505090506000611e8a611e84848461290e565b85612a25565b905060005b8351811015611fbb578615611f1957611ee8898983818110611ec157634e487b7160e01b600052603260045260246000fd5b9050602002013585838151811061096c57634e487b7160e01b600052603260045260246000fd5b848281518110611f0857634e487b7160e01b600052603260045260246000fd5b602002602001018181525050611fa9565b611f7c898983818110611f3c57634e487b7160e01b600052603260045260246000fd5b9050602002013560405180606001604052806023815260200161471d6023913986848151811061120f57634e487b7160e01b600052603260045260246000fd5b848281518110611f9c57634e487b7160e01b600052603260045260246000fd5b6020026020010181815250505b80611fb3816146c4565b915050611e8f565b506000611fd1611fcb858561290e565b86612a25565b905060008a60060160009054906101000a90046001600160a01b03166001600160a01b03166318160ddd6040518163ffffffff1660e01b815260040160206040518083038186803b15801561202557600080fd5b505afa158015612039573d6000803e3d6000fd5b505050506040513d601f19601f8201168201806040525081019061205d9190613cfa565b90508061207157509450611cfe9350505050565b87156120965761208983610ad983610d0b868461287c565b9650505050505050611cfe565b61208983610ad983610d0b838761287c565b600080866007018660ff16815481106120d157634e487b7160e01b600052603260045260246000fd5b6000918252602090912001546040516370a0823160e01b81526001600160a01b03909116915081906370a082319061210d903390600401613d68565b60206040518083038186803b15801561212557600080fd5b505afa158015612139573d6000803e3d6000fd5b505050506040513d601f19601f8201168201806040525081019061215d9190613cfa565b84111561217c5760405162461bcd60e51b81526004016104e3906140d1565b6040516370a0823160e01b81526000906001600160a01b038316906370a08231906121ab903090600401613d68565b60206040518083038186803b1580156121c357600080fd5b505afa1580156121d7573d6000803e3d6000fd5b505050506040513d601f19601f820116820180604052508101906121fb9190613cfa565b90506122126001600160a01b038316333088612ba2565b61224281836001600160a01b03166370a08231306040518263ffffffff1660e01b81526004016103d39190613d68565b9450505060008060008860090180548060200260200160405190810160405280929190818152602001828054801561229957602002820191906000526020600020905b815481526020019060010190808311612285575b505050505090506122ad8989898985612cd1565b9093509150848310156122d25760405162461bcd60e51b81526004016104e390614168565b60006123288a6008018960ff16815481106122fd57634e487b7160e01b600052603260045260246000fd5b9060005260206000200154610ad96402540be400610ad98e6005015488612c0d90919063ffffffff16565b905061235187838b60ff168151811061096c57634e487b7160e01b600052603260045260246000fd5b8a6009018a60ff168154811061237757634e487b7160e01b600052603260045260246000fd5b90600052602060002001819055506123b08161042386858c60ff1681518110610bc457634e487b7160e01b600052603260045260246000fd5b8a6009018960ff16815481106123d657634e487b7160e01b600052603260045260246000fd5b906000526020600020018190555061242b33858c6007018b60ff168154811061240f57634e487b7160e01b600052603260045260246000fd5b6000918252602090912001546001600160a01b031691906128a8565b336001600160a01b03167fc6c1e0630dbe9130cc068028486c0d118ddcea348550819defd5cb8c257f8a3888868c8c60405161246a94939291906144f0565b60405180910390a25091925050505b95945050505050565b6305f5e10081565b6000806116e68585858860060160009054906101000a90046001600160a01b03166001600160a01b03166318160ddd6040518163ffffffff1660e01b815260040160206040518083038186803b1580156124e357600080fd5b505afa1580156124f7573d6000803e3d6000fd5b505050506040513d601f19601f8201168201806040525081019061251b9190613cfa565b61302d565b6006840154600785018054604080516020808402820181019092528281526000946001600160a01b0316938593919290919083018282801561258b57602002820191906000526020600020905b81546001600160a01b0316815260019091019060200180831161256d575b50506040516370a0823160e01b8152939450506001600160a01b038516926370a0823192506125bf91503390600401613d68565b60206040518083038186803b1580156125d757600080fd5b505afa1580156125eb573d6000803e3d6000fd5b505050506040513d601f19601f8201168201806040525081019061260f9190613cfa565b86111561262e5760405162461bcd60e51b81526004016104e39061446b565b80518560ff16106126515760405162461bcd60e51b81526004016104e390613f8d565b6000826001600160a01b03166318160ddd6040518163ffffffff1660e01b815260040160206040518083038186803b15801561268c57600080fd5b505afa1580156126a0573d6000803e3d6000fd5b505050506040513d601f19601f820116820180604052508101906126c49190613cfa565b90506000806126d58a8a8a8661302d565b91509150868210156126f95760405162461bcd60e51b81526004016104e390613f2e565b61276561272661271f6402540be400610ad98e6005015486612c0d90919063ffffffff16565b8490612bc3565b8b6009018a60ff168154811061274c57634e487b7160e01b600052603260045260246000fd5b906000526020600020015461287c90919063ffffffff16565b8a6009018960ff168154811061278b57634e487b7160e01b600052603260045260246000fd5b60009182526020909120015560405163079cc67960e41b81526001600160a01b038616906379cc6790906127c59033908d90600401613da0565b600060405180830381600087803b1580156127df57600080fd5b505af11580156127f3573d6000803e3d6000fd5b5050505061281f3383868b60ff16815181106115a257634e487b7160e01b600052603260045260246000fd5b336001600160a01b03167f43fb02998f4e03da2e0e6fff53fdbf0c40a9f45f145dc377fc30615d7d7a8a648a858b8660405161285e94939291906144d2565b60405180910390a25098975050505050505050565b6402540be40081565b60008282111561289e5760405162461bcd60e51b81526004016104e390613fb6565b6118328284614681565b6128fe8363a9059cbb60e01b84846040516024016128c7929190613da0565b60408051601f198184030181529190526020810180516001600160e01b03166001600160e01b0319909316929092179091526130a5565b505050565b600061183582613134565b815181516060919081146129345760405162461bcd60e51b81526004016104e390613ec0565b60008167ffffffffffffffff81111561295d57634e487b7160e01b600052604160045260246000fd5b604051908082528060200260200182016040528015612986578160200160208202803683370190505b50905060005b82811015612a1c576129df8582815181106129b757634e487b7160e01b600052603260045260246000fd5b6020026020010151878381518110610b8e57634e487b7160e01b600052603260045260246000fd5b8282815181106129ff57634e487b7160e01b600052603260045260246000fd5b602090810291909101015280612a14816146c4565b91505061298c565b50949350505050565b815160009081805b82811015612a8357612a6f868281518110612a5857634e487b7160e01b600052603260045260246000fd5b602002602001015183612bc390919063ffffffff16565b915080612a7b816146c4565b915050612a2d565b5080612a9457600092505050611835565b60008181612aa28786612c0d565b905060005b610100811015612b89578260005b87811015612b0257612aee612ae4898d8481518110610b8e57634e487b7160e01b600052603260045260246000fd5b610ad98488612c0d565b915080612afa816146c4565b915050612ab5565b509293508392612b56612b36612b1d83610d0b8b6001612bc3565b612b306064610ad989610d0b8a8461287c565b90612bc3565b610ad986610d0b612b47868d612c0d565b612b306064610ad98b8f612c0d565b9350612b6284866131c9565b15612b765783975050505050505050611835565b5080612b81816146c4565b915050612aa7565b5060405162461bcd60e51b81526004016104e390614409565b61045a846323b872dd60e01b8585856040516024016128c793929190613d7c565b600080612bd0838561451f565b9050838110156118325760405162461bcd60e51b81526004016104e390613ef7565b6000611832612c076004610d0b85600161287c565b610ad985855b600082612c1c57506000611835565b6000612c288385614662565b905082612c358583614537565b146118325760405162461bcd60e51b81526004016104e39061419d565b6000808211612c735760405162461bcd60e51b81526004016104e39061409a565b6118328284614537565b600081831115612c9857612c918284614681565b9050611835565b6118328383614681565b60008184841115612cc65760405162461bcd60e51b81526004016104e39190613e58565b50611cfe8385614681565b600080600087600801805480602002602001604051908101604052809291908181526020018280548015612d2457602002820191906000526020600020905b815481526020019060010190808311612d10575b505050505090506000612d37858361290e565b905080518860ff16108015612d4f575080518760ff16105b612d6b5760405162461bcd60e51b81526004016104e390613fed565b6000612dd8828a60ff1681518110612d9357634e487b7160e01b600052603260045260246000fd5b6020026020010151612b30858c60ff1681518110612dc157634e487b7160e01b600052603260045260246000fd5b60200260200101518a612c0d90919063ffffffff16565b90506000612df1612de88c612903565b8b8b85876131e0565b9050612e1f600161042383868d60ff1681518110610bc457634e487b7160e01b600052603260045260246000fd5b9550612e416402540be400610ad98d6004015489612c0d90919063ffffffff16565b9450612e84848a60ff1681518110612e6957634e487b7160e01b600052603260045260246000fd5b6020026020010151610ad9878961287c90919063ffffffff16565b9550505050509550959350505050565b606081831115612eb65760405162461bcd60e51b81526004016104e3906143d2565b6000845167ffffffffffffffff811115612ee057634e487b7160e01b600052604160045260246000fd5b604051908082528060200260200182016040528015612f09578160200160208202803683370190505b50905060005b8551811015612a1c57612f4084610ad987898581518110610b8e57634e487b7160e01b600052603260045260246000fd5b828281518110612f6057634e487b7160e01b600052603260045260246000fd5b602090810291909101015280612f75816146c4565b915050612f0f565b606061183582600901805480602002602001604051908101604052809291908181526020018280548015612fd057602002820191906000526020600020905b815481526020019060010190808311612fbc575b50505050508360080180548060200260200160405190810160405280929190818152602001828054801561302357602002820191906000526020600020905b81548152602001906001019080831161300f575b505050505061290e565b600080600080600061304189888a896133af565b8093508194508295505050506000613092846104238c6008018b60ff168154811061307c57634e487b7160e01b600052603260045260246000fd5b600091825260209091200154610ad9868861287c565b9395509293505050505b94509492505050565b60006130fa826040518060400160405280602081526020017f5361666545524332303a206c6f772d6c6576656c2063616c6c206661696c6564815250856001600160a01b03166136ca9092919063ffffffff16565b8051909150156128fe578080602001905181019061311891906139ff565b6128fe5760405162461bcd60e51b81526004016104e390614388565b6003810154600182015460009190428211156131c057600284015484548083111561319257613187613180613169868561287c565b610ad9613176428761287c565b610d0b888761287c565b8290612bc3565b945050505050611916565b6131876131b96131a2868561287c565b610ad96131af428761287c565b610d0b868961287c565b829061287c565b91506119169050565b600060016131d78484612c7d565b11159392505050565b805160009060ff868116908616141561320b5760405162461bcd60e51b81526004016104e390614351565b808660ff1610801561321f5750808560ff16105b61323b5760405162461bcd60e51b81526004016104e390614024565b60006132478489612a25565b905080600080613257858c612c0d565b90506000805b868110156132ee578b60ff16811415613278578991506132b6565b8a60ff1681146132b1578881815181106132a257634e487b7160e01b600052603260045260246000fd5b602002602001015191506132b6565b6132dc565b6132c08483612bc3565b93506132d96132cf8389612c0d565b610ad98789612c0d565b94505b806132e6816146c4565b91505061325d565b5061330b6132fc8388612c0d565b610ad96064610d0b888a612c0d565b9350600061332861332184610ad9896064612c0d565b8590612bc3565b9050600086815b6101008110156133965790915081906133626133548a61042387612b30876002612c0d565b610ad98a612b308680612c0d565b915061336e82846131c9565b1561338457509850612479975050505050505050565b8061338e816146c4565b91505061332f565b5060405162461bcd60e51b81526004016104e3906142e3565b6000806000806133be88612f7d565b905080518760ff16106133e35760405162461bcd60e51b81526004016104e390613fed565b60006040518060a00160405280600081526020016000815260200160008152602001600081526020016000815250905061341c89612903565b6080820181905261342e908390612a25565b80825261344e90613446908890610ad9908b90612c0d565b82519061287c565b60208201528151829060ff8a1690811061347857634e487b7160e01b600052603260045260246000fd5b602002602001015187111561349f5760405162461bcd60e51b81526004016104e39061431a565b6134b38160800151898484602001516136d9565b6040820152815160009067ffffffffffffffff8111156134e357634e487b7160e01b600052604160045260246000fd5b60405190808252806020026020018201604052801561350c578160200160208202803683370190505b50905061351e8a600401548451612bf2565b606083015260005b835181101561360457600084828151811061355157634e487b7160e01b600052603260045260246000fd5b602002602001015190506135c66131b96402540be400610ad987606001518f60ff16871461359f57885160208a015161359a9161359391610ad9908a90612c0d565b879061287c565b610d0b565b610d0b89604001516104238b60000151610ad98d602001518b612c0d90919063ffffffff16565b8383815181106135e657634e487b7160e01b600052603260045260246000fd5b602090810291909101015250806135fc816146c4565b915050613526565b50600061364161361e84608001518c8587602001516136d9565b838c60ff1681518110610bc457634e487b7160e01b600052603260045260246000fd5b90506136838b6008018b60ff168154811061366c57634e487b7160e01b600052603260045260246000fd5b600091825260209091200154610ad983600161287c565b9050808360400151858c60ff16815181106136ae57634e487b7160e01b600052603260045260246000fd5b6020026020010151965096509650505050509450945094915050565b6060611cfe8484600085613846565b815160009060ff851681116137005760405162461bcd60e51b81526004016104e390613f8d565b8260008061370e8985612c0d565b905060005b848110156137a7578860ff1681146137955761375f88828151811061374857634e487b7160e01b600052603260045260246000fd5b602002602001015184612bc390919063ffffffff16565b9250613792613788868a8481518110610b8e57634e487b7160e01b600052603260045260246000fd5b610ad9868a612c0d565b93505b8061379f816146c4565b915050613713565b506137c46137b58286612c0d565b610ad96064610d0b878b612c0d565b925060006137da61271f83610ad98a6064612c0d565b9050600087815b6101008110156133965790915081906138146138068b61042387612b30876002612c0d565b610ad989612b308680612c0d565b915061382082846131c9565b1561383457509650611cfe95505050505050565b8061383e816146c4565b9150506137e1565b6060824710156138685760405162461bcd60e51b81526004016104e390614054565b61387185613906565b61388d5760405162461bcd60e51b81526004016104e3906142ac565b600080866001600160a01b031685876040516138a99190613d4c565b60006040518083038185875af1925050503d80600081146138e6576040519150601f19603f3d011682016040523d82523d6000602084013e6138eb565b606091505b50915091506138fb82828661390c565b979650505050505050565b3b151590565b6060831561391b575081610e00565b82511561392b5782518084602001fd5b8160405162461bcd60e51b81526004016104e39190613e58565b828054828255906000526020600020908101928215613980579160200282015b82811115613980578251825591602001919060010190613965565b5061398c929150613990565b5090565b5b8082111561398c5760008155600101613991565b60008083601f8401126139b6578081fd5b50813567ffffffffffffffff8111156139cd578182fd5b60208301915083602080830285010111156139e757600080fd5b9250929050565b803560ff8116811461191657600080fd5b600060208284031215613a10578081fd5b81516118328161470b565b600060208284031215613a2c578081fd5b5035919050565b60008060408385031215613a45578081fd5b8235915060208301356001600160a01b0381168114613a62578182fd5b809150509250929050565b60008060008060608587031215613a82578182fd5b84359350602085013567ffffffffffffffff811115613a9f578283fd5b613aab878288016139a5565b9094509250506040850135613abf8161470b565b939692955090935050565b600080600060608486031215613ade578283fd5b8335925060208085013567ffffffffffffffff80821115613afd578485fd5b818701915087601f830112613b10578485fd5b813581811115613b2257613b226146f5565b83810260405185828201018181108582111715613b4157613b416146f5565b604052828152858101935084860182860187018c1015613b5f578889fd5b8895505b83861015613b81578035855260019590950194938601938601613b63565b50979a979950505050604095909501359450505050565b60008060408385031215613baa578182fd5b50508035926020909101359150565b60008060008060608587031215613bce578384fd5b8435935060208501359250604085013567ffffffffffffffff811115613bf2578283fd5b613bfe878288016139a5565b95989497509550505050565b600080600060608486031215613c1e578283fd5b8335925060208401359150613c35604085016139ee565b90509250925092565b60008060008060808587031215613c53578384fd5b8435935060208501359250613c6a604086016139ee565b9396929550929360600135925050565b60008060008060808587031215613c8f578384fd5b84359350613c9f602086016139ee565b9250613c6a604086016139ee565b600080600080600060a08688031215613cc4578283fd5b85359450613cd4602087016139ee565b9350613ce2604087016139ee565b94979396509394606081013594506080013592915050565b600060208284031215613d0b578081fd5b5051919050565b6000815180845260208085019450808401835b83811015613d4157815187529582019590820190600101613d25565b509495945050505050565b60008251613d5e818460208701614698565b9190910192915050565b6001600160a01b0391909116815260200190565b6001600160a01b039384168152919092166020820152604081019190915260600190565b6001600160a01b03929092168252602082015260400190565b6020808252825182820181905260009190848201906040850190845b81811015613df157835183529284019291840191600101613dd5565b50909695505050505050565b600060808252613e106080830187613d12565b8281036020840152613e228187613d12565b604084019590955250506060015292915050565b600060408252613e496040830185613d12565b90508260208301529392505050565b6000602082528251806020840152613e77816040850160208701614698565b601f01601f19169190910160400192915050565b6020808252818101527f416d6f756e7473206d757374206d6174636820706f6f6c656420746f6b656e73604082015260600190565b6020808252601f908201527f42616c616e636573206d757374206d61746368206d756c7469706c6965727300604082015260600190565b6020808252601b908201527f536166654d6174683a206164646974696f6e206f766572666c6f770000000000604082015260600190565b6020808252600e908201526d191e480f081b5a5b905b5bdd5b9d60921b604082015260600190565b6020808252601e908201527f4d75737420737570706c7920616c6c20746f6b656e7320696e20706f6f6c0000604082015260600190565b6020808252600f908201526e151bdad95b881b9bdd08199bdd5b99608a1b604082015260600190565b6020808252601e908201527f536166654d6174683a207375627472616374696f6e206f766572666c6f770000604082015260600190565b60208082526018908201527f546f6b656e20696e646578206f7574206f662072616e67650000000000000000604082015260600190565b602080825260169082015275151bdad95b9cc81b5d5cdd081899481a5b881c1bdbdb60521b604082015260600190565b60208082526026908201527f416464726573733a20696e73756666696369656e742062616c616e636520666f6040820152651c8818d85b1b60d21b606082015260800190565b6020808252601a908201527f536166654d6174683a206469766973696f6e206279207a65726f000000000000604082015260600190565b6020808252601d908201527f43616e6e6f742073776170206d6f7265207468616e20796f75206f776e000000604082015260600190565b6020808252601b908201527f436f756c646e2774206d696e74206d696e207265717565737465640000000000604082015260600190565b6020808252600f908201526e08ccaca40d2e640e8dede40d0d2ced608b1b604082015260600190565b6020808252818101527f53776170206469646e277420726573756c7420696e206d696e20746f6b656e73604082015260600190565b60208082526021908201527f536166654d6174683a206d756c7469706c69636174696f6e206f766572666c6f6040820152607760f81b606082015260800190565b6020808252601b908201527f4275726e7420616d6f756e742063616e6e6f74206265207a65726f0000000000604082015260600190565b6020808252601b908201527f746f6b656e416d6f756e74203e206d61784275726e416d6f756e740000000000604082015260600190565b602080825260119082015270442073686f756c6420696e63726561736560781b604082015260600190565b6020808252818101527f6d696e416d6f756e7473206d757374206d6174636820706f6f6c546f6b656e73604082015260600190565b6020808252601d908201527f416464726573733a2063616c6c20746f206e6f6e2d636f6e7472616374000000604082015260600190565b6020808252601e908201527f417070726f78696d6174696f6e20646964206e6f7420636f6e76657267650000604082015260600190565b6020808252601a908201527f5769746864726177206578636565647320617661696c61626c65000000000000604082015260600190565b6020808252601d908201527f43616e277420636f6d7061726520746f6b656e20746f20697473656c66000000604082015260600190565b6020808252602a908201527f5361666545524332303a204552433230206f7065726174696f6e20646964206e6040820152691bdd081cdd58d8d9595960b21b606082015260800190565b6020808252601a908201527f43616e6e6f742065786365656420746f74616c20737570706c79000000000000604082015260600190565b6020808252601390820152724420646f6573206e6f7420636f6e766572676560681b604082015260600190565b6020808252818101527f416d6f756e74732073686f756c64206d6174636820706f6f6c20746f6b656e73604082015260600190565b6020808252600d908201526c1f2628173130b630b731b2a7b360991b604082015260600190565b6020808252601a908201527f616d6f756e74735b695d203c206d696e416d6f756e74735b695d000000000000604082015260600190565b90815260200190565b938452602084019290925260ff166040830152606082015260800190565b938452602084019290925260ff908116604084015216606082015260800190565b60ff91909116815260200190565b60008219821115614532576145326146df565b500190565b60008261455257634e487b7160e01b81526012600452602481fd5b500490565b80825b6001808611614569575061309c565b81870482111561457b5761457b6146df565b8086161561458857918102915b9490941c93800261455a565b600061183260001984846000826145ad57506001610e00565b816145ba57506000610e00565b81600181146145d057600281146145da57614607565b6001915050610e00565b60ff8411156145eb576145eb6146df565b6001841b915084821115614601576146016146df565b50610e00565b5060208310610133831016604e8410600b841016171561463a575081810a83811115614635576146356146df565b610e00565b6146478484846001614557565b808604821115614659576146596146df565b02949350505050565b600081600019048311821515161561467c5761467c6146df565b500290565b600082821015614693576146936146df565b500390565b60005b838110156146b357818101518382015260200161469b565b8381111561045a5750506000910152565b60006000198214156146d8576146d86146df565b5060010190565b634e487b7160e01b600052601160045260246000fd5b634e487b7160e01b600052604160045260246000fd5b801515811461471957600080fd5b5056fe43616e6e6f74207769746864726177206d6f7265207468616e20617661696c61626c65a264697066735822122033d6be34383820d56b1b08240a515c99b0ee5efc938db2db1b57f3137f44db7e64736f6c63430008000033",
			"opcodes": "PUSH2 0x4775 PUSH2 0x3A PUSH1 0xB DUP3 DUP3 DUP3 CODECOPY DUP1 MLOAD PUSH1 0x0 BYTE PUSH1 0x73 EQ PUSH2 0x2D JUMPI PUSH4 0x4E487B71 PUSH1 0xE0 SHL PUSH1 0x0 MSTORE PUSH1 0x0 PUSH1 0x4 MSTORE PUSH1 0x24 PUSH1 0x0 REVERT JUMPDEST ADDRESS PUSH1 0x0 MSTORE PUSH1 0x73 DUP2 MSTORE8 DUP3 DUP2 RETURN INVALID PUSH20 0x0 ADDRESS EQ PUSH1 0x80 PUSH1 0x40 MSTORE PUSH1 0x4 CALLDATASIZE LT PUSH2 0x115 JUMPI PUSH1 0x0 CALLDATALOAD PUSH1 0xE0 SHR DUP1 PUSH4 0x71906C2C GT PUSH2 0xAC JUMPI DUP1 PUSH4 0xA5397B22 GT PUSH2 0x7B JUMPI DUP1 PUSH4 0xA5397B22 EQ PUSH2 0x273 JUMPI DUP1 PUSH4 0xAB3D8544 EQ PUSH2 0x293 JUMPI DUP1 PUSH4 0xE0692742 EQ PUSH2 0x29B JUMPI DUP1 PUSH4 0xE7A4DB81 EQ PUSH2 0x2AE JUMPI DUP1 PUSH4 0xF3DE0362 EQ PUSH2 0x2CE JUMPI PUSH2 0x115 JUMP JUMPDEST DUP1 PUSH4 0x71906C2C EQ PUSH2 0x21A JUMPI DUP1 PUSH4 0x73FD6B3E EQ PUSH2 0x22D JUMPI DUP1 PUSH4 0x7D048160 EQ PUSH2 0x24D JUMPI DUP1 PUSH4 0x834B4910 EQ PUSH2 0x260 JUMPI PUSH2 0x115 JUMP JUMPDEST DUP1 PUSH4 0x467E186C GT PUSH2 0xE8 JUMPI DUP1 PUSH4 0x467E186C EQ PUSH2 0x1A7 JUMPI DUP1 PUSH4 0x4B23603C EQ PUSH2 0x1C7 JUMPI DUP1 PUSH4 0x70467276 EQ PUSH2 0x1DA JUMPI DUP1 PUSH4 0x70703E4A EQ PUSH2 0x1FA JUMPI PUSH2 0x115 JUMP JUMPDEST DUP1 PUSH4 0x296AB50 EQ PUSH2 0x11A JUMPI DUP1 PUSH4 0x24C5C751 EQ PUSH2 0x138 JUMPI DUP1 PUSH4 0x40370EDF EQ PUSH2 0x15A JUMPI DUP1 PUSH4 0x41B91C26 EQ PUSH2 0x187 JUMPI JUMPDEST PUSH1 0x0 DUP1 REVERT JUMPDEST PUSH2 0x122 PUSH2 0x2D6 JUMP JUMPDEST PUSH1 0x40 MLOAD PUSH2 0x12F SWAP2 SWAP1 PUSH2 0x4511 JUMP JUMPDEST PUSH1 0x40 MLOAD DUP1 SWAP2 SUB SWAP1 RETURN JUMPDEST DUP2 DUP1 ISZERO PUSH2 0x144 JUMPI PUSH1 0x0 DUP1 REVERT JUMPDEST POP PUSH2 0x158 PUSH2 0x153 CALLDATASIZE PUSH1 0x4 PUSH2 0x3A33 JUMP JUMPDEST PUSH2 0x2DB JUMP JUMPDEST STOP JUMPDEST DUP2 DUP1 ISZERO PUSH2 0x166 JUMPI PUSH1 0x0 DUP1 REVERT JUMPDEST POP PUSH2 0x17A PUSH2 0x175 CALLDATASIZE PUSH1 0x4 PUSH2 0x3ACA JUMP JUMPDEST PUSH2 0x460 JUMP JUMPDEST PUSH1 0x40 MLOAD PUSH2 0x12F SWAP2 SWAP1 PUSH2 0x44C9 JUMP JUMPDEST DUP2 DUP1 ISZERO PUSH2 0x193 JUMPI PUSH1 0x0 DUP1 REVERT JUMPDEST POP PUSH2 0x17A PUSH2 0x1A2 CALLDATASIZE PUSH1 0x4 PUSH2 0x3ACA JUMP JUMPDEST PUSH2 0xE07 JUMP JUMPDEST DUP2 DUP1 ISZERO PUSH2 0x1B3 JUMPI PUSH1 0x0 DUP1 REVERT JUMPDEST POP PUSH2 0x158 PUSH2 0x1C2 CALLDATASIZE PUSH1 0x4 PUSH2 0x3B98 JUMP JUMPDEST PUSH2 0x161E JUMP JUMPDEST PUSH2 0x17A PUSH2 0x1D5 CALLDATASIZE PUSH1 0x4 PUSH2 0x3C7A JUMP JUMPDEST PUSH2 0x1685 JUMP JUMPDEST DUP2 DUP1 ISZERO PUSH2 0x1E6 JUMPI PUSH1 0x0 DUP1 REVERT JUMPDEST POP PUSH2 0x158 PUSH2 0x1F5 CALLDATASIZE PUSH1 0x4 PUSH2 0x3B98 JUMP JUMPDEST PUSH2 0x16F0 JUMP JUMPDEST PUSH2 0x20D PUSH2 0x208 CALLDATASIZE PUSH1 0x4 PUSH2 0x3B98 JUMP JUMPDEST PUSH2 0x174C JUMP JUMPDEST PUSH1 0x40 MLOAD PUSH2 0x12F SWAP2 SWAP1 PUSH2 0x3DB9 JUMP JUMPDEST PUSH2 0x17A PUSH2 0x228 CALLDATASIZE PUSH1 0x4 PUSH2 0x3A1B JUMP JUMPDEST PUSH2 0x183B JUMP JUMPDEST DUP2 DUP1 ISZERO PUSH2 0x239 JUMPI PUSH1 0x0 DUP1 REVERT JUMPDEST POP PUSH2 0x20D PUSH2 0x248 CALLDATASIZE PUSH1 0x4 PUSH2 0x3BB9 JUMP JUMPDEST PUSH2 0x191B JUMP JUMPDEST PUSH2 0x17A PUSH2 0x25B CALLDATASIZE PUSH1 0x4 PUSH2 0x3B98 JUMP JUMPDEST PUSH2 0x1D06 JUMP JUMPDEST PUSH2 0x17A PUSH2 0x26E CALLDATASIZE PUSH1 0x4 PUSH2 0x3A6D JUMP JUMPDEST PUSH2 0x1DB9 JUMP JUMPDEST DUP2 DUP1 ISZERO PUSH2 0x27F JUMPI PUSH1 0x0 DUP1 REVERT JUMPDEST POP PUSH2 0x17A PUSH2 0x28E CALLDATASIZE PUSH1 0x4 PUSH2 0x3CAD JUMP JUMPDEST PUSH2 0x20A8 JUMP JUMPDEST PUSH2 0x17A PUSH2 0x2482 JUMP JUMPDEST PUSH2 0x17A PUSH2 0x2A9 CALLDATASIZE PUSH1 0x4 PUSH2 0x3C0A JUMP JUMPDEST PUSH2 0x248A JUMP JUMPDEST DUP2 DUP1 ISZERO PUSH2 0x2BA JUMPI PUSH1 0x0 DUP1 REVERT JUMPDEST POP PUSH2 0x17A PUSH2 0x2C9 CALLDATASIZE PUSH1 0x4 PUSH2 0x3C3E JUMP JUMPDEST PUSH2 0x2520 JUMP JUMPDEST PUSH2 0x17A PUSH2 0x2873 JUMP JUMPDEST PUSH1 0x12 DUP2 JUMP JUMPDEST PUSH1 0x0 DUP3 PUSH1 0x7 ADD DUP1 SLOAD DUP1 PUSH1 0x20 MUL PUSH1 0x20 ADD PUSH1 0x40 MLOAD SWAP1 DUP2 ADD PUSH1 0x40 MSTORE DUP1 SWAP3 SWAP2 SWAP1 DUP2 DUP2 MSTORE PUSH1 0x20 ADD DUP3 DUP1 SLOAD DUP1 ISZERO PUSH2 0x335 JUMPI PUSH1 0x20 MUL DUP3 ADD SWAP2 SWAP1 PUSH1 0x0 MSTORE PUSH1 0x20 PUSH1 0x0 KECCAK256 SWAP1 JUMPDEST DUP2 SLOAD PUSH1 0x1 PUSH1 0x1 PUSH1 0xA0 SHL SUB AND DUP2 MSTORE PUSH1 0x1 SWAP1 SWAP2 ADD SWAP1 PUSH1 0x20 ADD DUP1 DUP4 GT PUSH2 0x317 JUMPI JUMPDEST POP POP POP POP POP SWAP1 POP PUSH1 0x0 JUMPDEST DUP2 MLOAD DUP2 LT ISZERO PUSH2 0x45A JUMPI PUSH1 0x0 DUP3 DUP3 DUP2 MLOAD DUP2 LT PUSH2 0x36A JUMPI PUSH4 0x4E487B71 PUSH1 0xE0 SHL PUSH1 0x0 MSTORE PUSH1 0x32 PUSH1 0x4 MSTORE PUSH1 0x24 PUSH1 0x0 REVERT JUMPDEST PUSH1 0x20 MUL PUSH1 0x20 ADD ADD MLOAD SWAP1 POP PUSH1 0x0 PUSH2 0x429 DUP7 PUSH1 0x9 ADD DUP5 DUP2 SLOAD DUP2 LT PUSH2 0x39C JUMPI PUSH4 0x4E487B71 PUSH1 0xE0 SHL PUSH1 0x0 MSTORE PUSH1 0x32 PUSH1 0x4 MSTORE PUSH1 0x24 PUSH1 0x0 REVERT JUMPDEST SWAP1 PUSH1 0x0 MSTORE PUSH1 0x20 PUSH1 0x0 KECCAK256 ADD SLOAD DUP4 PUSH1 0x1 PUSH1 0x1 PUSH1 0xA0 SHL SUB AND PUSH4 0x70A08231 ADDRESS PUSH1 0x40 MLOAD DUP3 PUSH4 0xFFFFFFFF AND PUSH1 0xE0 SHL DUP2 MSTORE PUSH1 0x4 ADD PUSH2 0x3D3 SWAP2 SWAP1 PUSH2 0x3D68 JUMP JUMPDEST PUSH1 0x20 PUSH1 0x40 MLOAD DUP1 DUP4 SUB DUP2 DUP7 DUP1 EXTCODESIZE ISZERO DUP1 ISZERO PUSH2 0x3EB JUMPI PUSH1 0x0 DUP1 REVERT JUMPDEST POP GAS STATICCALL ISZERO DUP1 ISZERO PUSH2 0x3FF JUMPI RETURNDATASIZE PUSH1 0x0 DUP1 RETURNDATACOPY RETURNDATASIZE PUSH1 0x0 REVERT JUMPDEST POP POP POP POP PUSH1 0x40 MLOAD RETURNDATASIZE PUSH1 0x1F NOT PUSH1 0x1F DUP3 ADD AND DUP3 ADD DUP1 PUSH1 0x40 MSTORE POP DUP2 ADD SWAP1 PUSH2 0x423 SWAP2 SWAP1 PUSH2 0x3CFA JUMP JUMPDEST SWAP1 PUSH2 0x287C JUMP JUMPDEST SWAP1 POP DUP1 ISZERO PUSH2 0x445 JUMPI PUSH2 0x445 PUSH1 0x1 PUSH1 0x1 PUSH1 0xA0 SHL SUB DUP4 AND DUP7 DUP4 PUSH2 0x28A8 JUMP JUMPDEST POP POP DUP1 DUP1 PUSH2 0x452 SWAP1 PUSH2 0x46C4 JUMP JUMPDEST SWAP2 POP POP PUSH2 0x33F JUMP JUMPDEST POP POP POP POP JUMP JUMPDEST PUSH1 0x0 DUP1 DUP5 PUSH1 0x7 ADD DUP1 SLOAD DUP1 PUSH1 0x20 MUL PUSH1 0x20 ADD PUSH1 0x40 MLOAD SWAP1 DUP2 ADD PUSH1 0x40 MSTORE DUP1 SWAP3 SWAP2 SWAP1 DUP2 DUP2 MSTORE PUSH1 0x20 ADD DUP3 DUP1 SLOAD DUP1 ISZERO PUSH2 0x4BB JUMPI PUSH1 0x20 MUL DUP3 ADD SWAP2 SWAP1 PUSH1 0x0 MSTORE PUSH1 0x20 PUSH1 0x0 KECCAK256 SWAP1 JUMPDEST DUP2 SLOAD PUSH1 0x1 PUSH1 0x1 PUSH1 0xA0 SHL SUB AND DUP2 MSTORE PUSH1 0x1 SWAP1 SWAP2 ADD SWAP1 PUSH1 0x20 ADD DUP1 DUP4 GT PUSH2 0x49D JUMPI JUMPDEST POP POP POP POP POP SWAP1 POP DUP1 MLOAD DUP5 MLOAD EQ PUSH2 0x4EC JUMPI PUSH1 0x40 MLOAD PUSH3 0x461BCD PUSH1 0xE5 SHL DUP2 MSTORE PUSH1 0x4 ADD PUSH2 0x4E3 SWAP1 PUSH2 0x3E8B JUMP JUMPDEST PUSH1 0x40 MLOAD DUP1 SWAP2 SUB SWAP1 REVERT JUMPDEST PUSH1 0x0 PUSH1 0x40 MLOAD DUP1 PUSH2 0x100 ADD PUSH1 0x40 MSTORE DUP1 PUSH1 0x0 DUP2 MSTORE PUSH1 0x20 ADD PUSH1 0x0 DUP2 MSTORE PUSH1 0x20 ADD PUSH1 0x0 DUP2 MSTORE PUSH1 0x20 ADD PUSH2 0x518 DUP9 PUSH2 0x2903 JUMP JUMPDEST DUP2 MSTORE PUSH1 0x20 ADD DUP8 PUSH1 0x6 ADD PUSH1 0x0 SWAP1 SLOAD SWAP1 PUSH2 0x100 EXP SWAP1 DIV PUSH1 0x1 PUSH1 0x1 PUSH1 0xA0 SHL SUB AND PUSH1 0x1 PUSH1 0x1 PUSH1 0xA0 SHL SUB AND DUP2 MSTORE PUSH1 0x20 ADD PUSH1 0x0 DUP2 MSTORE PUSH1 0x20 ADD DUP8 PUSH1 0x9 ADD DUP1 SLOAD DUP1 PUSH1 0x20 MUL PUSH1 0x20 ADD PUSH1 0x40 MLOAD SWAP1 DUP2 ADD PUSH1 0x40 MSTORE DUP1 SWAP3 SWAP2 SWAP1 DUP2 DUP2 MSTORE PUSH1 0x20 ADD DUP3 DUP1 SLOAD DUP1 ISZERO PUSH2 0x598 JUMPI PUSH1 0x20 MUL DUP3 ADD SWAP2 SWAP1 PUSH1 0x0 MSTORE PUSH1 0x20 PUSH1 0x0 KECCAK256 SWAP1 JUMPDEST DUP2 SLOAD DUP2 MSTORE PUSH1 0x20 ADD SWAP1 PUSH1 0x1 ADD SWAP1 DUP1 DUP4 GT PUSH2 0x584 JUMPI JUMPDEST POP POP POP POP POP DUP2 MSTORE PUSH1 0x20 ADD DUP8 PUSH1 0x8 ADD DUP1 SLOAD DUP1 PUSH1 0x20 MUL PUSH1 0x20 ADD PUSH1 0x40 MLOAD SWAP1 DUP2 ADD PUSH1 0x40 MSTORE DUP1 SWAP3 SWAP2 SWAP1 DUP2 DUP2 MSTORE PUSH1 0x20 ADD DUP3 DUP1 SLOAD DUP1 ISZERO PUSH2 0x5F0 JUMPI PUSH1 0x20 MUL DUP3 ADD SWAP2 SWAP1 PUSH1 0x0 MSTORE PUSH1 0x20 PUSH1 0x0 KECCAK256 SWAP1 JUMPDEST DUP2 SLOAD DUP2 MSTORE PUSH1 0x20 ADD SWAP1 PUSH1 0x1 ADD SWAP1 DUP1 DUP4 GT PUSH2 0x5DC JUMPI JUMPDEST POP POP POP POP POP DUP2 MSTORE POP SWAP1 POP DUP1 PUSH1 0x80 ADD MLOAD PUSH1 0x1 PUSH1 0x1 PUSH1 0xA0 SHL SUB AND PUSH4 0x18160DDD PUSH1 0x40 MLOAD DUP2 PUSH4 0xFFFFFFFF AND PUSH1 0xE0 SHL DUP2 MSTORE PUSH1 0x4 ADD PUSH1 0x20 PUSH1 0x40 MLOAD DUP1 DUP4 SUB DUP2 DUP7 DUP1 EXTCODESIZE ISZERO DUP1 ISZERO PUSH2 0x637 JUMPI PUSH1 0x0 DUP1 REVERT JUMPDEST POP GAS STATICCALL ISZERO DUP1 ISZERO PUSH2 0x64B JUMPI RETURNDATASIZE PUSH1 0x0 DUP1 RETURNDATACOPY RETURNDATASIZE PUSH1 0x0 REVERT JUMPDEST POP POP POP POP PUSH1 0x40 MLOAD RETURNDATASIZE PUSH1 0x1F NOT PUSH1 0x1F DUP3 ADD AND DUP3 ADD DUP1 PUSH1 0x40 MSTORE POP DUP2 ADD SWAP1 PUSH2 0x66F SWAP2 SWAP1 PUSH2 0x3CFA JUMP JUMPDEST PUSH1 0xA0 DUP3 ADD DUP2 SWAP1 MSTORE ISZERO PUSH2 0x69D JUMPI PUSH2 0x69A PUSH2 0x690 DUP3 PUSH1 0xC0 ADD MLOAD DUP4 PUSH1 0xE0 ADD MLOAD PUSH2 0x290E JUMP JUMPDEST DUP3 PUSH1 0x60 ADD MLOAD PUSH2 0x2A25 JUMP JUMPDEST DUP2 MSTORE JUMPDEST PUSH1 0x0 DUP3 MLOAD PUSH8 0xFFFFFFFFFFFFFFFF DUP2 GT ISZERO PUSH2 0x6C7 JUMPI PUSH4 0x4E487B71 PUSH1 0xE0 SHL PUSH1 0x0 MSTORE PUSH1 0x41 PUSH1 0x4 MSTORE PUSH1 0x24 PUSH1 0x0 REVERT JUMPDEST PUSH1 0x40 MLOAD SWAP1 DUP1 DUP3 MSTORE DUP1 PUSH1 0x20 MUL PUSH1 0x20 ADD DUP3 ADD PUSH1 0x40 MSTORE DUP1 ISZERO PUSH2 0x6F0 JUMPI DUP2 PUSH1 0x20 ADD PUSH1 0x20 DUP3 MUL DUP1 CALLDATASIZE DUP4 CALLDATACOPY ADD SWAP1 POP JUMPDEST POP SWAP1 POP PUSH1 0x0 JUMPDEST DUP4 MLOAD DUP2 LT ISZERO PUSH2 0x9BF JUMPI PUSH1 0xA0 DUP4 ADD MLOAD ISZERO ISZERO DUP1 PUSH2 0x738 JUMPI POP PUSH1 0x0 DUP8 DUP3 DUP2 MLOAD DUP2 LT PUSH2 0x72E JUMPI PUSH4 0x4E487B71 PUSH1 0xE0 SHL PUSH1 0x0 MSTORE PUSH1 0x32 PUSH1 0x4 MSTORE PUSH1 0x24 PUSH1 0x0 REVERT JUMPDEST PUSH1 0x20 MUL PUSH1 0x20 ADD ADD MLOAD GT JUMPDEST PUSH2 0x754 JUMPI PUSH1 0x40 MLOAD PUSH3 0x461BCD PUSH1 0xE5 SHL DUP2 MSTORE PUSH1 0x4 ADD PUSH2 0x4E3 SWAP1 PUSH2 0x3F56 JUMP JUMPDEST DUP7 DUP2 DUP2 MLOAD DUP2 LT PUSH2 0x774 JUMPI PUSH4 0x4E487B71 PUSH1 0xE0 SHL PUSH1 0x0 MSTORE PUSH1 0x32 PUSH1 0x4 MSTORE PUSH1 0x24 PUSH1 0x0 REVERT JUMPDEST PUSH1 0x20 MUL PUSH1 0x20 ADD ADD MLOAD PUSH1 0x0 EQ PUSH2 0x91D JUMPI PUSH1 0x0 DUP5 DUP3 DUP2 MLOAD DUP2 LT PUSH2 0x7A5 JUMPI PUSH4 0x4E487B71 PUSH1 0xE0 SHL PUSH1 0x0 MSTORE PUSH1 0x32 PUSH1 0x4 MSTORE PUSH1 0x24 PUSH1 0x0 REVERT JUMPDEST PUSH1 0x20 MUL PUSH1 0x20 ADD ADD MLOAD PUSH1 0x1 PUSH1 0x1 PUSH1 0xA0 SHL SUB AND PUSH4 0x70A08231 ADDRESS PUSH1 0x40 MLOAD DUP3 PUSH4 0xFFFFFFFF AND PUSH1 0xE0 SHL DUP2 MSTORE PUSH1 0x4 ADD PUSH2 0x7D8 SWAP2 SWAP1 PUSH2 0x3D68 JUMP JUMPDEST PUSH1 0x20 PUSH1 0x40 MLOAD DUP1 DUP4 SUB DUP2 DUP7 DUP1 EXTCODESIZE ISZERO DUP1 ISZERO PUSH2 0x7F0 JUMPI PUSH1 0x0 DUP1 REVERT JUMPDEST POP GAS STATICCALL ISZERO DUP1 ISZERO PUSH2 0x804 JUMPI RETURNDATASIZE PUSH1 0x0 DUP1 RETURNDATACOPY RETURNDATASIZE PUSH1 0x0 REVERT JUMPDEST POP POP POP POP PUSH1 0x40 MLOAD RETURNDATASIZE PUSH1 0x1F NOT PUSH1 0x1F DUP3 ADD AND DUP3 ADD DUP1 PUSH1 0x40 MSTORE POP DUP2 ADD SWAP1 PUSH2 0x828 SWAP2 SWAP1 PUSH2 0x3CFA JUMP JUMPDEST SWAP1 POP PUSH2 0x898 CALLER ADDRESS DUP11 DUP6 DUP2 MLOAD DUP2 LT PUSH2 0x84F JUMPI PUSH4 0x4E487B71 PUSH1 0xE0 SHL PUSH1 0x0 MSTORE PUSH1 0x32 PUSH1 0x4 MSTORE PUSH1 0x24 PUSH1 0x0 REVERT JUMPDEST PUSH1 0x20 MUL PUSH1 0x20 ADD ADD MLOAD DUP9 DUP7 DUP2 MLOAD DUP2 LT PUSH2 0x877 JUMPI PUSH4 0x4E487B71 PUSH1 0xE0 SHL PUSH1 0x0 MSTORE PUSH1 0x32 PUSH1 0x4 MSTORE PUSH1 0x24 PUSH1 0x0 REVERT JUMPDEST PUSH1 0x20 MUL PUSH1 0x20 ADD ADD MLOAD PUSH1 0x1 PUSH1 0x1 PUSH1 0xA0 SHL SUB AND PUSH2 0x2BA2 SWAP1 SWAP4 SWAP3 SWAP2 SWAP1 PUSH4 0xFFFFFFFF AND JUMP JUMPDEST PUSH2 0x8EF DUP2 DUP7 DUP5 DUP2 MLOAD DUP2 LT PUSH2 0x8BC JUMPI PUSH4 0x4E487B71 PUSH1 0xE0 SHL PUSH1 0x0 MSTORE PUSH1 0x32 PUSH1 0x4 MSTORE PUSH1 0x24 PUSH1 0x0 REVERT JUMPDEST PUSH1 0x20 MUL PUSH1 0x20 ADD ADD MLOAD PUSH1 0x1 PUSH1 0x1 PUSH1 0xA0 SHL SUB AND PUSH4 0x70A08231 ADDRESS PUSH1 0x40 MLOAD DUP3 PUSH4 0xFFFFFFFF AND PUSH1 0xE0 SHL DUP2 MSTORE PUSH1 0x4 ADD PUSH2 0x3D3 SWAP2 SWAP1 PUSH2 0x3D68 JUMP JUMPDEST DUP9 DUP4 DUP2 MLOAD DUP2 LT PUSH2 0x90F JUMPI PUSH4 0x4E487B71 PUSH1 0xE0 SHL PUSH1 0x0 MSTORE PUSH1 0x32 PUSH1 0x4 MSTORE PUSH1 0x24 PUSH1 0x0 REVERT JUMPDEST PUSH1 0x20 MUL PUSH1 0x20 ADD ADD DUP2 DUP2 MSTORE POP POP POP JUMPDEST PUSH2 0x982 DUP8 DUP3 DUP2 MLOAD DUP2 LT PUSH2 0x940 JUMPI PUSH4 0x4E487B71 PUSH1 0xE0 SHL PUSH1 0x0 MSTORE PUSH1 0x32 PUSH1 0x4 MSTORE PUSH1 0x24 PUSH1 0x0 REVERT JUMPDEST PUSH1 0x20 MUL PUSH1 0x20 ADD ADD MLOAD DUP5 PUSH1 0xC0 ADD MLOAD DUP4 DUP2 MLOAD DUP2 LT PUSH2 0x96C JUMPI PUSH4 0x4E487B71 PUSH1 0xE0 SHL PUSH1 0x0 MSTORE PUSH1 0x32 PUSH1 0x4 MSTORE PUSH1 0x24 PUSH1 0x0 REVERT JUMPDEST PUSH1 0x20 MUL PUSH1 0x20 ADD ADD MLOAD PUSH2 0x2BC3 SWAP1 SWAP2 SWAP1 PUSH4 0xFFFFFFFF AND JUMP JUMPDEST DUP3 DUP3 DUP2 MLOAD DUP2 LT PUSH2 0x9A2 JUMPI PUSH4 0x4E487B71 PUSH1 0xE0 SHL PUSH1 0x0 MSTORE PUSH1 0x32 PUSH1 0x4 MSTORE PUSH1 0x24 PUSH1 0x0 REVERT JUMPDEST PUSH1 0x20 SWAP1 DUP2 MUL SWAP2 SWAP1 SWAP2 ADD ADD MSTORE DUP1 PUSH2 0x9B7 DUP2 PUSH2 0x46C4 JUMP JUMPDEST SWAP2 POP POP PUSH2 0x6F6 JUMP JUMPDEST POP PUSH2 0x9DB PUSH2 0x9D1 DUP3 DUP5 PUSH1 0xE0 ADD MLOAD PUSH2 0x290E JUMP JUMPDEST DUP4 PUSH1 0x60 ADD MLOAD PUSH2 0x2A25 JUMP JUMPDEST PUSH1 0x20 DUP4 ADD DUP2 SWAP1 MSTORE DUP3 MLOAD LT PUSH2 0xA01 JUMPI PUSH1 0x40 MLOAD PUSH3 0x461BCD PUSH1 0xE5 SHL DUP2 MSTORE PUSH1 0x4 ADD PUSH2 0x4E3 SWAP1 PUSH2 0x424C JUMP JUMPDEST PUSH1 0x20 DUP3 ADD MLOAD PUSH1 0x40 DUP4 ADD MSTORE DUP3 MLOAD PUSH1 0x0 SWAP1 PUSH8 0xFFFFFFFFFFFFFFFF DUP2 GT ISZERO PUSH2 0xA36 JUMPI PUSH4 0x4E487B71 PUSH1 0xE0 SHL PUSH1 0x0 MSTORE PUSH1 0x41 PUSH1 0x4 MSTORE PUSH1 0x24 PUSH1 0x0 REVERT JUMPDEST PUSH1 0x40 MLOAD SWAP1 DUP1 DUP3 MSTORE DUP1 PUSH1 0x20 MUL PUSH1 0x20 ADD DUP3 ADD PUSH1 0x40 MSTORE DUP1 ISZERO PUSH2 0xA5F JUMPI DUP2 PUSH1 0x20 ADD PUSH1 0x20 DUP3 MUL DUP1 CALLDATASIZE DUP4 CALLDATACOPY ADD SWAP1 POP JUMPDEST POP SWAP1 POP DUP3 PUSH1 0xA0 ADD MLOAD PUSH1 0x0 EQ PUSH2 0xCBB JUMPI PUSH1 0x0 PUSH2 0xA7F DUP10 PUSH1 0x4 ADD SLOAD DUP7 MLOAD PUSH2 0x2BF2 JUMP JUMPDEST SWAP1 POP PUSH1 0x0 JUMPDEST DUP6 MLOAD DUP2 LT ISZERO PUSH2 0xC94 JUMPI PUSH1 0x0 PUSH2 0xADF DUP7 PUSH1 0x0 ADD MLOAD PUSH2 0xAD9 DUP9 PUSH1 0xC0 ADD MLOAD DUP6 DUP2 MLOAD DUP2 LT PUSH2 0xABE JUMPI PUSH4 0x4E487B71 PUSH1 0xE0 SHL PUSH1 0x0 MSTORE PUSH1 0x32 PUSH1 0x4 MSTORE PUSH1 0x24 PUSH1 0x0 REVERT JUMPDEST PUSH1 0x20 MUL PUSH1 0x20 ADD ADD MLOAD DUP10 PUSH1 0x20 ADD MLOAD PUSH2 0x2C0D SWAP1 SWAP2 SWAP1 PUSH4 0xFFFFFFFF AND JUMP JUMPDEST SWAP1 PUSH2 0x2C52 JUMP JUMPDEST SWAP1 POP PUSH2 0xB2E PUSH5 0x2540BE400 PUSH2 0xAD9 PUSH2 0xB27 DUP9 DUP7 DUP2 MLOAD DUP2 LT PUSH2 0xB10 JUMPI PUSH4 0x4E487B71 PUSH1 0xE0 SHL PUSH1 0x0 MSTORE PUSH1 0x32 PUSH1 0x4 MSTORE PUSH1 0x24 PUSH1 0x0 REVERT JUMPDEST PUSH1 0x20 MUL PUSH1 0x20 ADD ADD MLOAD DUP6 PUSH2 0x2C7D SWAP1 SWAP2 SWAP1 PUSH4 0xFFFFFFFF AND JUMP JUMPDEST DUP7 SWAP1 PUSH2 0x2C0D JUMP JUMPDEST DUP5 DUP4 DUP2 MLOAD DUP2 LT PUSH2 0xB4E JUMPI PUSH4 0x4E487B71 PUSH1 0xE0 SHL PUSH1 0x0 MSTORE PUSH1 0x32 PUSH1 0x4 MSTORE PUSH1 0x24 PUSH1 0x0 REVERT JUMPDEST PUSH1 0x20 MUL PUSH1 0x20 ADD ADD DUP2 DUP2 MSTORE POP POP PUSH2 0xBDA PUSH2 0xBA4 PUSH5 0x2540BE400 PUSH2 0xAD9 DUP15 PUSH1 0x5 ADD SLOAD DUP9 DUP8 DUP2 MLOAD DUP2 LT PUSH2 0xB8E JUMPI PUSH4 0x4E487B71 PUSH1 0xE0 SHL PUSH1 0x0 MSTORE PUSH1 0x32 PUSH1 0x4 MSTORE PUSH1 0x24 PUSH1 0x0 REVERT JUMPDEST PUSH1 0x20 MUL PUSH1 0x20 ADD ADD MLOAD PUSH2 0x2C0D SWAP1 SWAP2 SWAP1 PUSH4 0xFFFFFFFF AND JUMP JUMPDEST DUP7 DUP5 DUP2 MLOAD DUP2 LT PUSH2 0xBC4 JUMPI PUSH4 0x4E487B71 PUSH1 0xE0 SHL PUSH1 0x0 MSTORE PUSH1 0x32 PUSH1 0x4 MSTORE PUSH1 0x24 PUSH1 0x0 REVERT JUMPDEST PUSH1 0x20 MUL PUSH1 0x20 ADD ADD MLOAD PUSH2 0x287C SWAP1 SWAP2 SWAP1 PUSH4 0xFFFFFFFF AND JUMP JUMPDEST DUP12 PUSH1 0x9 ADD DUP4 DUP2 SLOAD DUP2 LT PUSH2 0xBFD JUMPI PUSH4 0x4E487B71 PUSH1 0xE0 SHL PUSH1 0x0 MSTORE PUSH1 0x32 PUSH1 0x4 MSTORE PUSH1 0x24 PUSH1 0x0 REVERT JUMPDEST SWAP1 PUSH1 0x0 MSTORE PUSH1 0x20 PUSH1 0x0 KECCAK256 ADD DUP2 SWAP1 SSTORE POP PUSH2 0xC56 DUP5 DUP4 DUP2 MLOAD DUP2 LT PUSH2 0xC2E JUMPI PUSH4 0x4E487B71 PUSH1 0xE0 SHL PUSH1 0x0 MSTORE PUSH1 0x32 PUSH1 0x4 MSTORE PUSH1 0x24 PUSH1 0x0 REVERT JUMPDEST PUSH1 0x20 MUL PUSH1 0x20 ADD ADD MLOAD DUP7 DUP5 DUP2 MLOAD DUP2 LT PUSH2 0xBC4 JUMPI PUSH4 0x4E487B71 PUSH1 0xE0 SHL PUSH1 0x0 MSTORE PUSH1 0x32 PUSH1 0x4 MSTORE PUSH1 0x24 PUSH1 0x0 REVERT JUMPDEST DUP6 DUP4 DUP2 MLOAD DUP2 LT PUSH2 0xC76 JUMPI PUSH4 0x4E487B71 PUSH1 0xE0 SHL PUSH1 0x0 MSTORE PUSH1 0x32 PUSH1 0x4 MSTORE PUSH1 0x24 PUSH1 0x0 REVERT JUMPDEST PUSH1 0x20 SWAP1 DUP2 MUL SWAP2 SWAP1 SWAP2 ADD ADD MSTORE POP DUP1 PUSH2 0xC8C DUP2 PUSH2 0x46C4 JUMP JUMPDEST SWAP2 POP POP PUSH2 0xA84 JUMP JUMPDEST POP PUSH2 0xCB0 PUSH2 0xCA6 DUP5 DUP7 PUSH1 0xE0 ADD MLOAD PUSH2 0x290E JUMP JUMPDEST DUP6 PUSH1 0x60 ADD MLOAD PUSH2 0x2A25 JUMP JUMPDEST PUSH1 0x40 DUP6 ADD MSTORE POP PUSH2 0xCD2 JUMP JUMPDEST DUP2 MLOAD PUSH2 0xCD0 SWAP1 PUSH1 0x9 DUP11 ADD SWAP1 PUSH1 0x20 DUP6 ADD SWAP1 PUSH2 0x3945 JUMP JUMPDEST POP JUMPDEST PUSH1 0x0 DUP4 PUSH1 0xA0 ADD MLOAD PUSH1 0x0 EQ ISZERO PUSH2 0xCEC JUMPI POP PUSH1 0x20 DUP4 ADD MLOAD PUSH2 0xD14 JUMP JUMPDEST DUP4 MLOAD PUSH1 0xA0 DUP6 ADD MLOAD PUSH1 0x40 DUP7 ADD MLOAD PUSH2 0xD11 SWAP3 SWAP2 PUSH2 0xAD9 SWAP2 PUSH2 0xD0B SWAP1 DUP5 PUSH2 0x287C JUMP JUMPDEST SWAP1 PUSH2 0x2C0D JUMP JUMPDEST SWAP1 POP JUMPDEST DUP7 DUP2 LT ISZERO PUSH2 0xD34 JUMPI PUSH1 0x40 MLOAD PUSH3 0x461BCD PUSH1 0xE5 SHL DUP2 MSTORE PUSH1 0x4 ADD PUSH2 0x4E3 SWAP1 PUSH2 0x4108 JUMP JUMPDEST DUP4 PUSH1 0x80 ADD MLOAD PUSH1 0x1 PUSH1 0x1 PUSH1 0xA0 SHL SUB AND PUSH4 0x40C10F19 CALLER DUP4 PUSH1 0x40 MLOAD DUP4 PUSH4 0xFFFFFFFF AND PUSH1 0xE0 SHL DUP2 MSTORE PUSH1 0x4 ADD PUSH2 0xD66 SWAP3 SWAP2 SWAP1 PUSH2 0x3DA0 JUMP JUMPDEST PUSH1 0x0 PUSH1 0x40 MLOAD DUP1 DUP4 SUB DUP2 PUSH1 0x0 DUP8 DUP1 EXTCODESIZE ISZERO DUP1 ISZERO PUSH2 0xD80 JUMPI PUSH1 0x0 DUP1 REVERT JUMPDEST POP GAS CALL ISZERO DUP1 ISZERO PUSH2 0xD94 JUMPI RETURNDATASIZE PUSH1 0x0 DUP1 RETURNDATACOPY RETURNDATASIZE PUSH1 0x0 REVERT JUMPDEST POP POP POP POP CALLER PUSH1 0x1 PUSH1 0x1 PUSH1 0xA0 SHL SUB AND PUSH32 0x189C623B666B1B45B83D7178F39B8C087CB09774317CA2F53C2D3C3726F222A2 DUP10 DUP5 DUP8 PUSH1 0x20 ADD MLOAD PUSH2 0xDE1 DUP7 DUP11 PUSH1 0xA0 ADD MLOAD PUSH2 0x2BC3 SWAP1 SWAP2 SWAP1 PUSH4 0xFFFFFFFF AND JUMP JUMPDEST PUSH1 0x40 MLOAD PUSH2 0xDF1 SWAP5 SWAP4 SWAP3 SWAP2 SWAP1 PUSH2 0x3DFD JUMP JUMPDEST PUSH1 0x40 MLOAD DUP1 SWAP2 SUB SWAP1 LOG2 SWAP5 POP POP POP POP POP JUMPDEST SWAP4 SWAP3 POP POP POP JUMP JUMPDEST PUSH1 0x0 DUP1 PUSH1 0x40 MLOAD DUP1 PUSH2 0x100 ADD PUSH1 0x40 MSTORE DUP1 PUSH1 0x0 DUP2 MSTORE PUSH1 0x20 ADD PUSH1 0x0 DUP2 MSTORE PUSH1 0x20 ADD PUSH1 0x0 DUP2 MSTORE PUSH1 0x20 ADD PUSH2 0xE34 DUP8 PUSH2 0x2903 JUMP JUMPDEST DUP2 MSTORE PUSH1 0x20 ADD DUP7 PUSH1 0x6 ADD PUSH1 0x0 SWAP1 SLOAD SWAP1 PUSH2 0x100 EXP SWAP1 DIV PUSH1 0x1 PUSH1 0x1 PUSH1 0xA0 SHL SUB AND PUSH1 0x1 PUSH1 0x1 PUSH1 0xA0 SHL SUB AND DUP2 MSTORE PUSH1 0x20 ADD PUSH1 0x0 DUP2 MSTORE PUSH1 0x20 ADD DUP7 PUSH1 0x9 ADD DUP1 SLOAD DUP1 PUSH1 0x20 MUL PUSH1 0x20 ADD PUSH1 0x40 MLOAD SWAP1 DUP2 ADD PUSH1 0x40 MSTORE DUP1 SWAP3 SWAP2 SWAP1 DUP2 DUP2 MSTORE PUSH1 0x20 ADD DUP3 DUP1 SLOAD DUP1 ISZERO PUSH2 0xEB4 JUMPI PUSH1 0x20 MUL DUP3 ADD SWAP2 SWAP1 PUSH1 0x0 MSTORE PUSH1 0x20 PUSH1 0x0 KECCAK256 SWAP1 JUMPDEST DUP2 SLOAD DUP2 MSTORE PUSH1 0x20 ADD SWAP1 PUSH1 0x1 ADD SWAP1 DUP1 DUP4 GT PUSH2 0xEA0 JUMPI JUMPDEST POP POP POP POP POP DUP2 MSTORE PUSH1 0x20 ADD DUP7 PUSH1 0x8 ADD DUP1 SLOAD DUP1 PUSH1 0x20 MUL PUSH1 0x20 ADD PUSH1 0x40 MLOAD SWAP1 DUP2 ADD PUSH1 0x40 MSTORE DUP1 SWAP3 SWAP2 SWAP1 DUP2 DUP2 MSTORE PUSH1 0x20 ADD DUP3 DUP1 SLOAD DUP1 ISZERO PUSH2 0xF0C JUMPI PUSH1 0x20 MUL DUP3 ADD SWAP2 SWAP1 PUSH1 0x0 MSTORE PUSH1 0x20 PUSH1 0x0 KECCAK256 SWAP1 JUMPDEST DUP2 SLOAD DUP2 MSTORE PUSH1 0x20 ADD SWAP1 PUSH1 0x1 ADD SWAP1 DUP1 DUP4 GT PUSH2 0xEF8 JUMPI JUMPDEST POP POP POP POP POP DUP2 MSTORE POP SWAP1 POP DUP1 PUSH1 0x80 ADD MLOAD PUSH1 0x1 PUSH1 0x1 PUSH1 0xA0 SHL SUB AND PUSH4 0x18160DDD PUSH1 0x40 MLOAD DUP2 PUSH4 0xFFFFFFFF AND PUSH1 0xE0 SHL DUP2 MSTORE PUSH1 0x4 ADD PUSH1 0x20 PUSH1 0x40 MLOAD DUP1 DUP4 SUB DUP2 DUP7 DUP1 EXTCODESIZE ISZERO DUP1 ISZERO PUSH2 0xF53 JUMPI PUSH1 0x0 DUP1 REVERT JUMPDEST POP GAS STATICCALL ISZERO DUP1 ISZERO PUSH2 0xF67 JUMPI RETURNDATASIZE PUSH1 0x0 DUP1 RETURNDATACOPY RETURNDATASIZE PUSH1 0x0 REVERT JUMPDEST POP POP POP POP PUSH1 0x40 MLOAD RETURNDATASIZE PUSH1 0x1F NOT PUSH1 0x1F DUP3 ADD AND DUP3 ADD DUP1 PUSH1 0x40 MSTORE POP DUP2 ADD SWAP1 PUSH2 0xF8B SWAP2 SWAP1 PUSH2 0x3CFA JUMP JUMPDEST PUSH1 0xA0 DUP3 ADD MSTORE PUSH1 0x7 DUP6 ADD DUP1 SLOAD PUSH1 0x40 DUP1 MLOAD PUSH1 0x20 DUP1 DUP5 MUL DUP3 ADD DUP2 ADD SWAP1 SWAP3 MSTORE DUP3 DUP2 MSTORE PUSH1 0x0 SWAP4 SWAP1 SWAP3 SWAP1 SWAP2 DUP4 ADD DUP3 DUP3 DUP1 ISZERO PUSH2 0xFE9 JUMPI PUSH1 0x20 MUL DUP3 ADD SWAP2 SWAP1 PUSH1 0x0 MSTORE PUSH1 0x20 PUSH1 0x0 KECCAK256 SWAP1 JUMPDEST DUP2 SLOAD PUSH1 0x1 PUSH1 0x1 PUSH1 0xA0 SHL SUB AND DUP2 MSTORE PUSH1 0x1 SWAP1 SWAP2 ADD SWAP1 PUSH1 0x20 ADD DUP1 DUP4 GT PUSH2 0xFCB JUMPI JUMPDEST POP POP POP POP POP SWAP1 POP DUP1 MLOAD DUP6 MLOAD EQ PUSH2 0x1011 JUMPI PUSH1 0x40 MLOAD PUSH3 0x461BCD PUSH1 0xE5 SHL DUP2 MSTORE PUSH1 0x4 ADD PUSH2 0x4E3 SWAP1 PUSH2 0x4436 JUMP JUMPDEST DUP2 PUSH1 0x80 ADD MLOAD PUSH1 0x1 PUSH1 0x1 PUSH1 0xA0 SHL SUB AND PUSH4 0x70A08231 CALLER PUSH1 0x40 MLOAD DUP3 PUSH4 0xFFFFFFFF AND PUSH1 0xE0 SHL DUP2 MSTORE PUSH1 0x4 ADD PUSH2 0x1041 SWAP2 SWAP1 PUSH2 0x3D68 JUMP JUMPDEST PUSH1 0x20 PUSH1 0x40 MLOAD DUP1 DUP4 SUB DUP2 DUP7 DUP1 EXTCODESIZE ISZERO DUP1 ISZERO PUSH2 0x1059 JUMPI PUSH1 0x0 DUP1 REVERT JUMPDEST POP GAS STATICCALL ISZERO DUP1 ISZERO PUSH2 0x106D JUMPI RETURNDATASIZE PUSH1 0x0 DUP1 RETURNDATACOPY RETURNDATASIZE PUSH1 0x0 REVERT JUMPDEST POP POP POP POP PUSH1 0x40 MLOAD RETURNDATASIZE PUSH1 0x1F NOT PUSH1 0x1F DUP3 ADD AND DUP3 ADD DUP1 PUSH1 0x40 MSTORE POP DUP2 ADD SWAP1 PUSH2 0x1091 SWAP2 SWAP1 PUSH2 0x3CFA JUMP JUMPDEST DUP5 GT ISZERO DUP1 ISZERO PUSH2 0x109F JUMPI POP DUP4 ISZERO ISZERO JUMPDEST PUSH2 0x10BB JUMPI PUSH1 0x40 MLOAD PUSH3 0x461BCD PUSH1 0xE5 SHL DUP2 MSTORE PUSH1 0x4 ADD PUSH2 0x4E3 SWAP1 PUSH2 0x446B JUMP JUMPDEST PUSH1 0x0 PUSH2 0x10CC DUP8 PUSH1 0x4 ADD SLOAD DUP4 MLOAD PUSH2 0x2BF2 JUMP JUMPDEST SWAP1 POP PUSH1 0x0 DUP3 MLOAD PUSH8 0xFFFFFFFFFFFFFFFF DUP2 GT ISZERO PUSH2 0x10F8 JUMPI PUSH4 0x4E487B71 PUSH1 0xE0 SHL PUSH1 0x0 MSTORE PUSH1 0x41 PUSH1 0x4 MSTORE PUSH1 0x24 PUSH1 0x0 REVERT JUMPDEST PUSH1 0x40 MLOAD SWAP1 DUP1 DUP3 MSTORE DUP1 PUSH1 0x20 MUL PUSH1 0x20 ADD DUP3 ADD PUSH1 0x40 MSTORE DUP1 ISZERO PUSH2 0x1121 JUMPI DUP2 PUSH1 0x20 ADD PUSH1 0x20 DUP3 MUL DUP1 CALLDATASIZE DUP4 CALLDATACOPY ADD SWAP1 POP JUMPDEST POP SWAP1 POP PUSH1 0x0 DUP4 MLOAD PUSH8 0xFFFFFFFFFFFFFFFF DUP2 GT ISZERO PUSH2 0x114E JUMPI PUSH4 0x4E487B71 PUSH1 0xE0 SHL PUSH1 0x0 MSTORE PUSH1 0x41 PUSH1 0x4 MSTORE PUSH1 0x24 PUSH1 0x0 REVERT JUMPDEST PUSH1 0x40 MLOAD SWAP1 DUP1 DUP3 MSTORE DUP1 PUSH1 0x20 MUL PUSH1 0x20 ADD DUP3 ADD PUSH1 0x40 MSTORE DUP1 ISZERO PUSH2 0x1177 JUMPI DUP2 PUSH1 0x20 ADD PUSH1 0x20 DUP3 MUL DUP1 CALLDATASIZE DUP4 CALLDATACOPY ADD SWAP1 POP JUMPDEST POP SWAP1 POP PUSH2 0x1199 PUSH2 0x118F DUP7 PUSH1 0xC0 ADD MLOAD DUP8 PUSH1 0xE0 ADD MLOAD PUSH2 0x290E JUMP JUMPDEST DUP7 PUSH1 0x60 ADD MLOAD PUSH2 0x2A25 JUMP JUMPDEST DUP6 MSTORE PUSH1 0x0 JUMPDEST DUP5 MLOAD DUP2 LT ISZERO PUSH2 0x1263 JUMPI PUSH2 0x1226 DUP10 DUP3 DUP2 MLOAD DUP2 LT PUSH2 0x11CA JUMPI PUSH4 0x4E487B71 PUSH1 0xE0 SHL PUSH1 0x0 MSTORE PUSH1 0x32 PUSH1 0x4 MSTORE PUSH1 0x24 PUSH1 0x0 REVERT JUMPDEST PUSH1 0x20 MUL PUSH1 0x20 ADD ADD MLOAD PUSH1 0x40 MLOAD DUP1 PUSH1 0x60 ADD PUSH1 0x40 MSTORE DUP1 PUSH1 0x23 DUP2 MSTORE PUSH1 0x20 ADD PUSH2 0x471D PUSH1 0x23 SWAP2 CODECOPY DUP9 PUSH1 0xC0 ADD MLOAD DUP5 DUP2 MLOAD DUP2 LT PUSH2 0x120F JUMPI PUSH4 0x4E487B71 PUSH1 0xE0 SHL PUSH1 0x0 MSTORE PUSH1 0x32 PUSH1 0x4 MSTORE PUSH1 0x24 PUSH1 0x0 REVERT JUMPDEST PUSH1 0x20 MUL PUSH1 0x20 ADD ADD MLOAD PUSH2 0x2CA2 SWAP1 SWAP3 SWAP2 SWAP1 PUSH4 0xFFFFFFFF AND JUMP JUMPDEST DUP3 DUP3 DUP2 MLOAD DUP2 LT PUSH2 0x1246 JUMPI PUSH4 0x4E487B71 PUSH1 0xE0 SHL PUSH1 0x0 MSTORE PUSH1 0x32 PUSH1 0x4 MSTORE PUSH1 0x24 PUSH1 0x0 REVERT JUMPDEST PUSH1 0x20 SWAP1 DUP2 MUL SWAP2 SWAP1 SWAP2 ADD ADD MSTORE DUP1 PUSH2 0x125B DUP2 PUSH2 0x46C4 JUMP JUMPDEST SWAP2 POP POP PUSH2 0x119E JUMP JUMPDEST POP PUSH2 0x1275 PUSH2 0x118F DUP3 DUP8 PUSH1 0xE0 ADD MLOAD PUSH2 0x290E JUMP JUMPDEST PUSH1 0x20 DUP7 ADD MSTORE PUSH1 0x0 JUMPDEST DUP5 MLOAD DUP2 LT ISZERO PUSH2 0x1462 JUMPI PUSH1 0x0 PUSH2 0x12D2 DUP8 PUSH1 0x0 ADD MLOAD PUSH2 0xAD9 DUP10 PUSH1 0xC0 ADD MLOAD DUP6 DUP2 MLOAD DUP2 LT PUSH2 0x12B7 JUMPI PUSH4 0x4E487B71 PUSH1 0xE0 SHL PUSH1 0x0 MSTORE PUSH1 0x32 PUSH1 0x4 MSTORE PUSH1 0x24 PUSH1 0x0 REVERT JUMPDEST PUSH1 0x20 MUL PUSH1 0x20 ADD ADD MLOAD DUP11 PUSH1 0x20 ADD MLOAD PUSH2 0x2C0D SWAP1 SWAP2 SWAP1 PUSH4 0xFFFFFFFF AND JUMP JUMPDEST SWAP1 POP PUSH1 0x0 PUSH2 0x1310 DUP5 DUP5 DUP2 MLOAD DUP2 LT PUSH2 0x12F9 JUMPI PUSH4 0x4E487B71 PUSH1 0xE0 SHL PUSH1 0x0 MSTORE PUSH1 0x32 PUSH1 0x4 MSTORE PUSH1 0x24 PUSH1 0x0 REVERT JUMPDEST PUSH1 0x20 MUL PUSH1 0x20 ADD ADD MLOAD DUP4 PUSH2 0x2C7D SWAP1 SWAP2 SWAP1 PUSH4 0xFFFFFFFF AND JUMP JUMPDEST SWAP1 POP PUSH2 0x1325 PUSH5 0x2540BE400 PUSH2 0xAD9 DUP9 DUP5 PUSH2 0x2C0D JUMP JUMPDEST DUP6 DUP5 DUP2 MLOAD DUP2 LT PUSH2 0x1345 JUMPI PUSH4 0x4E487B71 PUSH1 0xE0 SHL PUSH1 0x0 MSTORE PUSH1 0x32 PUSH1 0x4 MSTORE PUSH1 0x24 PUSH1 0x0 REVERT JUMPDEST PUSH1 0x20 MUL PUSH1 0x20 ADD ADD DUP2 DUP2 MSTORE POP POP PUSH2 0x13A5 PUSH2 0x1385 PUSH5 0x2540BE400 PUSH2 0xAD9 DUP16 PUSH1 0x5 ADD SLOAD DUP10 DUP9 DUP2 MLOAD DUP2 LT PUSH2 0xB8E JUMPI PUSH4 0x4E487B71 PUSH1 0xE0 SHL PUSH1 0x0 MSTORE PUSH1 0x32 PUSH1 0x4 MSTORE PUSH1 0x24 PUSH1 0x0 REVERT JUMPDEST DUP6 DUP6 DUP2 MLOAD DUP2 LT PUSH2 0xBC4 JUMPI PUSH4 0x4E487B71 PUSH1 0xE0 SHL PUSH1 0x0 MSTORE PUSH1 0x32 PUSH1 0x4 MSTORE PUSH1 0x24 PUSH1 0x0 REVERT JUMPDEST DUP13 PUSH1 0x9 ADD DUP5 DUP2 SLOAD DUP2 LT PUSH2 0x13C8 JUMPI PUSH4 0x4E487B71 PUSH1 0xE0 SHL PUSH1 0x0 MSTORE PUSH1 0x32 PUSH1 0x4 MSTORE PUSH1 0x24 PUSH1 0x0 REVERT JUMPDEST SWAP1 PUSH1 0x0 MSTORE PUSH1 0x20 PUSH1 0x0 KECCAK256 ADD DUP2 SWAP1 SSTORE POP PUSH2 0x1421 DUP6 DUP5 DUP2 MLOAD DUP2 LT PUSH2 0x13F9 JUMPI PUSH4 0x4E487B71 PUSH1 0xE0 SHL PUSH1 0x0 MSTORE PUSH1 0x32 PUSH1 0x4 MSTORE PUSH1 0x24 PUSH1 0x0 REVERT JUMPDEST PUSH1 0x20 MUL PUSH1 0x20 ADD ADD MLOAD DUP6 DUP6 DUP2 MLOAD DUP2 LT PUSH2 0xBC4 JUMPI PUSH4 0x4E487B71 PUSH1 0xE0 SHL PUSH1 0x0 MSTORE PUSH1 0x32 PUSH1 0x4 MSTORE PUSH1 0x24 PUSH1 0x0 REVERT JUMPDEST DUP5 DUP5 DUP2 MLOAD DUP2 LT PUSH2 0x1441 JUMPI PUSH4 0x4E487B71 PUSH1 0xE0 SHL PUSH1 0x0 MSTORE PUSH1 0x32 PUSH1 0x4 MSTORE PUSH1 0x24 PUSH1 0x0 REVERT JUMPDEST PUSH1 0x20 MUL PUSH1 0x20 ADD ADD DUP2 DUP2 MSTORE POP POP POP POP DUP1 DUP1 PUSH2 0x145A SWAP1 PUSH2 0x46C4 JUMP JUMPDEST SWAP2 POP POP PUSH2 0x127D JUMP JUMPDEST POP PUSH2 0x1474 PUSH2 0x118F DUP3 DUP8 PUSH1 0xE0 ADD MLOAD PUSH2 0x290E JUMP JUMPDEST PUSH1 0x40 DUP7 ADD DUP2 SWAP1 MSTORE DUP6 MLOAD PUSH1 0xA0 DUP8 ADD MLOAD PUSH1 0x0 SWAP4 POP PUSH2 0x149A SWAP3 PUSH2 0xAD9 SWAP2 SWAP1 PUSH2 0xD0B SWAP1 DUP5 SWAP1 PUSH2 0x287C JUMP JUMPDEST SWAP1 POP DUP1 PUSH2 0x14B9 JUMPI PUSH1 0x40 MLOAD PUSH3 0x461BCD PUSH1 0xE5 SHL DUP2 MSTORE PUSH1 0x4 ADD PUSH2 0x4E3 SWAP1 PUSH2 0x41DE JUMP JUMPDEST PUSH2 0x14C4 DUP2 PUSH1 0x1 PUSH2 0x2BC3 JUMP JUMPDEST SWAP1 POP DUP7 DUP2 GT ISZERO PUSH2 0x14E6 JUMPI PUSH1 0x40 MLOAD PUSH3 0x461BCD PUSH1 0xE5 SHL DUP2 MSTORE PUSH1 0x4 ADD PUSH2 0x4E3 SWAP1 PUSH2 0x4215 JUMP JUMPDEST DUP5 PUSH1 0x80 ADD MLOAD PUSH1 0x1 PUSH1 0x1 PUSH1 0xA0 SHL SUB AND PUSH4 0x79CC6790 CALLER DUP4 PUSH1 0x40 MLOAD DUP4 PUSH4 0xFFFFFFFF AND PUSH1 0xE0 SHL DUP2 MSTORE PUSH1 0x4 ADD PUSH2 0x1518 SWAP3 SWAP2 SWAP1 PUSH2 0x3DA0 JUMP JUMPDEST PUSH1 0x0 PUSH1 0x40 MLOAD DUP1 DUP4 SUB DUP2 PUSH1 0x0 DUP8 DUP1 EXTCODESIZE ISZERO DUP1 ISZERO PUSH2 0x1532 JUMPI PUSH1 0x0 DUP1 REVERT JUMPDEST POP GAS CALL ISZERO DUP1 ISZERO PUSH2 0x1546 JUMPI RETURNDATASIZE PUSH1 0x0 DUP1 RETURNDATACOPY RETURNDATASIZE PUSH1 0x0 REVERT JUMPDEST POP POP POP POP PUSH1 0x0 JUMPDEST DUP5 MLOAD DUP2 LT ISZERO PUSH2 0x15D4 JUMPI PUSH2 0x15C2 CALLER DUP11 DUP4 DUP2 MLOAD DUP2 LT PUSH2 0x157A JUMPI PUSH4 0x4E487B71 PUSH1 0xE0 SHL PUSH1 0x0 MSTORE PUSH1 0x32 PUSH1 0x4 MSTORE PUSH1 0x24 PUSH1 0x0 REVERT JUMPDEST PUSH1 0x20 MUL PUSH1 0x20 ADD ADD MLOAD DUP8 DUP5 DUP2 MLOAD DUP2 LT PUSH2 0x15A2 JUMPI PUSH4 0x4E487B71 PUSH1 0xE0 SHL PUSH1 0x0 MSTORE PUSH1 0x32 PUSH1 0x4 MSTORE PUSH1 0x24 PUSH1 0x0 REVERT JUMPDEST PUSH1 0x20 MUL PUSH1 0x20 ADD ADD MLOAD PUSH1 0x1 PUSH1 0x1 PUSH1 0xA0 SHL SUB AND PUSH2 0x28A8 SWAP1 SWAP3 SWAP2 SWAP1 PUSH4 0xFFFFFFFF AND JUMP JUMPDEST DUP1 PUSH2 0x15CC DUP2 PUSH2 0x46C4 JUMP JUMPDEST SWAP2 POP POP PUSH2 0x154D JUMP JUMPDEST POP CALLER PUSH1 0x1 PUSH1 0x1 PUSH1 0xA0 SHL SUB AND PUSH32 0x3631C28B1F9DD213E0319FB167B554D76B6C283A41143EB400A0D1ADB1AF1755 DUP10 DUP5 DUP9 PUSH1 0x20 ADD MLOAD PUSH2 0xDE1 DUP7 DUP12 PUSH1 0xA0 ADD MLOAD PUSH2 0x287C SWAP1 SWAP2 SWAP1 PUSH4 0xFFFFFFFF AND JUMP JUMPDEST PUSH4 0x5F5E100 DUP2 GT ISZERO PUSH2 0x1642 JUMPI PUSH1 0x40 MLOAD PUSH3 0x461BCD PUSH1 0xE5 SHL DUP2 MSTORE PUSH1 0x4 ADD PUSH2 0x4E3 SWAP1 PUSH2 0x413F JUMP JUMPDEST PUSH1 0x4 DUP3 ADD DUP2 SWAP1 SSTORE PUSH1 0x40 MLOAD PUSH32 0xD88EA5155021C6F8DAFA1A741E173F595CDF77CE7C17D43342131D7F06AFDFE5 SWAP1 PUSH2 0x1679 SWAP1 DUP4 SWAP1 PUSH2 0x44C9 JUMP JUMPDEST PUSH1 0x40 MLOAD DUP1 SWAP2 SUB SWAP1 LOG1 POP POP JUMP JUMPDEST PUSH1 0x0 PUSH2 0x16E6 DUP6 DUP6 DUP6 DUP6 DUP10 PUSH1 0x9 ADD DUP1 SLOAD DUP1 PUSH1 0x20 MUL PUSH1 0x20 ADD PUSH1 0x40 MLOAD SWAP1 DUP2 ADD PUSH1 0x40 MSTORE DUP1 SWAP3 SWAP2 SWAP1 DUP2 DUP2 MSTORE PUSH1 0x20 ADD DUP3 DUP1 SLOAD DUP1 ISZERO PUSH2 0x16DC JUMPI PUSH1 0x20 MUL DUP3 ADD SWAP2 SWAP1 PUSH1 0x0 MSTORE PUSH1 0x20 PUSH1 0x0 KECCAK256 SWAP1 JUMPDEST DUP2 SLOAD DUP2 MSTORE PUSH1 0x20 ADD SWAP1 PUSH1 0x1 ADD SWAP1 DUP1 DUP4 GT PUSH2 0x16C8 JUMPI JUMPDEST POP POP POP POP POP PUSH2 0x2CD1 JUMP JUMPDEST POP SWAP6 SWAP5 POP POP POP POP POP JUMP JUMPDEST PUSH5 0x2540BE400 DUP2 GT ISZERO PUSH2 0x1715 JUMPI PUSH1 0x40 MLOAD PUSH3 0x461BCD PUSH1 0xE5 SHL DUP2 MSTORE PUSH1 0x4 ADD PUSH2 0x4E3 SWAP1 PUSH2 0x413F JUMP JUMPDEST PUSH1 0x5 DUP3 ADD DUP2 SWAP1 SSTORE PUSH1 0x40 MLOAD PUSH32 0xAB599D640CA80CDE2B09B128A4154A8DFE608CB80F4C9399C8B954B01FD35F38 SWAP1 PUSH2 0x1679 SWAP1 DUP4 SWAP1 PUSH2 0x44C9 JUMP JUMPDEST PUSH1 0x60 PUSH2 0x1832 DUP4 PUSH1 0x9 ADD DUP1 SLOAD DUP1 PUSH1 0x20 MUL PUSH1 0x20 ADD PUSH1 0x40 MLOAD SWAP1 DUP2 ADD PUSH1 0x40 MSTORE DUP1 SWAP3 SWAP2 SWAP1 DUP2 DUP2 MSTORE PUSH1 0x20 ADD DUP3 DUP1 SLOAD DUP1 ISZERO PUSH2 0x179F JUMPI PUSH1 0x20 MUL DUP3 ADD SWAP2 SWAP1 PUSH1 0x0 MSTORE PUSH1 0x20 PUSH1 0x0 KECCAK256 SWAP1 JUMPDEST DUP2 SLOAD DUP2 MSTORE PUSH1 0x20 ADD SWAP1 PUSH1 0x1 ADD SWAP1 DUP1 DUP4 GT PUSH2 0x178B JUMPI JUMPDEST POP POP POP POP POP DUP4 DUP6 PUSH1 0x6 ADD PUSH1 0x0 SWAP1 SLOAD SWAP1 PUSH2 0x100 EXP SWAP1 DIV PUSH1 0x1 PUSH1 0x1 PUSH1 0xA0 SHL SUB AND PUSH1 0x1 PUSH1 0x1 PUSH1 0xA0 SHL SUB AND PUSH4 0x18160DDD PUSH1 0x40 MLOAD DUP2 PUSH4 0xFFFFFFFF AND PUSH1 0xE0 SHL DUP2 MSTORE PUSH1 0x4 ADD PUSH1 0x20 PUSH1 0x40 MLOAD DUP1 DUP4 SUB DUP2 DUP7 DUP1 EXTCODESIZE ISZERO DUP1 ISZERO PUSH2 0x17F5 JUMPI PUSH1 0x0 DUP1 REVERT JUMPDEST POP GAS STATICCALL ISZERO DUP1 ISZERO PUSH2 0x1809 JUMPI RETURNDATASIZE PUSH1 0x0 DUP1 RETURNDATACOPY RETURNDATASIZE PUSH1 0x0 REVERT JUMPDEST POP POP POP POP PUSH1 0x40 MLOAD RETURNDATASIZE PUSH1 0x1F NOT PUSH1 0x1F DUP3 ADD AND DUP3 ADD DUP1 PUSH1 0x40 MSTORE POP DUP2 ADD SWAP1 PUSH2 0x182D SWAP2 SWAP1 PUSH2 0x3CFA JUMP JUMPDEST PUSH2 0x2E94 JUMP JUMPDEST SWAP1 POP JUMPDEST SWAP3 SWAP2 POP POP JUMP JUMPDEST PUSH1 0x0 DUP1 PUSH2 0x1858 PUSH2 0x184A DUP5 PUSH2 0x2F7D JUMP JUMPDEST PUSH2 0x1853 DUP6 PUSH2 0x2903 JUMP JUMPDEST PUSH2 0x2A25 JUMP JUMPDEST SWAP1 POP PUSH1 0x0 DUP4 PUSH1 0x6 ADD PUSH1 0x0 SWAP1 SLOAD SWAP1 PUSH2 0x100 EXP SWAP1 DIV PUSH1 0x1 PUSH1 0x1 PUSH1 0xA0 SHL SUB AND SWAP1 POP PUSH1 0x0 DUP2 PUSH1 0x1 PUSH1 0x1 PUSH1 0xA0 SHL SUB AND PUSH4 0x18160DDD PUSH1 0x40 MLOAD DUP2 PUSH4 0xFFFFFFFF AND PUSH1 0xE0 SHL DUP2 MSTORE PUSH1 0x4 ADD PUSH1 0x20 PUSH1 0x40 MLOAD DUP1 DUP4 SUB DUP2 DUP7 DUP1 EXTCODESIZE ISZERO DUP1 ISZERO PUSH2 0x18B1 JUMPI PUSH1 0x0 DUP1 REVERT JUMPDEST POP GAS STATICCALL ISZERO DUP1 ISZERO PUSH2 0x18C5 JUMPI RETURNDATASIZE PUSH1 0x0 DUP1 RETURNDATACOPY RETURNDATASIZE PUSH1 0x0 REVERT JUMPDEST POP POP POP POP PUSH1 0x40 MLOAD RETURNDATASIZE PUSH1 0x1F NOT PUSH1 0x1F DUP3 ADD AND DUP3 ADD DUP1 PUSH1 0x40 MSTORE POP DUP2 ADD SWAP1 PUSH2 0x18E9 SWAP2 SWAP1 PUSH2 0x3CFA JUMP JUMPDEST SWAP1 POP DUP1 ISZERO PUSH2 0x190E JUMPI PUSH2 0x1904 DUP2 PUSH2 0xAD9 PUSH2 0xB27 PUSH1 0x12 PUSH1 0xA PUSH2 0x4594 JUMP JUMPDEST SWAP4 POP POP POP POP PUSH2 0x1916 JUMP JUMPDEST PUSH1 0x0 SWAP4 POP POP POP POP JUMPDEST SWAP2 SWAP1 POP JUMP JUMPDEST PUSH1 0x6 DUP5 ADD SLOAD PUSH1 0x7 DUP6 ADD DUP1 SLOAD PUSH1 0x40 DUP1 MLOAD PUSH1 0x20 DUP1 DUP5 MUL DUP3 ADD DUP2 ADD SWAP1 SWAP3 MSTORE DUP3 DUP2 MSTORE PUSH1 0x60 SWAP5 PUSH1 0x1 PUSH1 0x1 PUSH1 0xA0 SHL SUB AND SWAP4 PUSH1 0x0 SWAP4 SWAP2 SWAP3 SWAP1 SWAP2 SWAP1 DUP4 ADD DUP3 DUP3 DUP1 ISZERO PUSH2 0x1987 JUMPI PUSH1 0x20 MUL DUP3 ADD SWAP2 SWAP1 PUSH1 0x0 MSTORE PUSH1 0x20 PUSH1 0x0 KECCAK256 SWAP1 JUMPDEST DUP2 SLOAD PUSH1 0x1 PUSH1 0x1 PUSH1 0xA0 SHL SUB AND DUP2 MSTORE PUSH1 0x1 SWAP1 SWAP2 ADD SWAP1 PUSH1 0x20 ADD DUP1 DUP4 GT PUSH2 0x1969 JUMPI JUMPDEST POP POP PUSH1 0x40 MLOAD PUSH4 0x70A08231 PUSH1 0xE0 SHL DUP2 MSTORE SWAP4 SWAP5 POP POP PUSH1 0x1 PUSH1 0x1 PUSH1 0xA0 SHL SUB DUP6 AND SWAP3 PUSH4 0x70A08231 SWAP3 POP PUSH2 0x19BB SWAP2 POP CALLER SWAP1 PUSH1 0x4 ADD PUSH2 0x3D68 JUMP JUMPDEST PUSH1 0x20 PUSH1 0x40 MLOAD DUP1 DUP4 SUB DUP2 DUP7 DUP1 EXTCODESIZE ISZERO DUP1 ISZERO PUSH2 0x19D3 JUMPI PUSH1 0x0 DUP1 REVERT JUMPDEST POP GAS STATICCALL ISZERO DUP1 ISZERO PUSH2 0x19E7 JUMPI RETURNDATASIZE PUSH1 0x0 DUP1 RETURNDATACOPY RETURNDATASIZE PUSH1 0x0 REVERT JUMPDEST POP POP POP POP PUSH1 0x40 MLOAD RETURNDATASIZE PUSH1 0x1F NOT PUSH1 0x1F DUP3 ADD AND DUP3 ADD DUP1 PUSH1 0x40 MSTORE POP DUP2 ADD SWAP1 PUSH2 0x1A0B SWAP2 SWAP1 PUSH2 0x3CFA JUMP JUMPDEST DUP7 GT ISZERO PUSH2 0x1A2A JUMPI PUSH1 0x40 MLOAD PUSH3 0x461BCD PUSH1 0xE5 SHL DUP2 MSTORE PUSH1 0x4 ADD PUSH2 0x4E3 SWAP1 PUSH2 0x446B JUMP JUMPDEST DUP1 MLOAD DUP5 EQ PUSH2 0x1A4A JUMPI PUSH1 0x40 MLOAD PUSH3 0x461BCD PUSH1 0xE5 SHL DUP2 MSTORE PUSH1 0x4 ADD PUSH2 0x4E3 SWAP1 PUSH2 0x4277 JUMP JUMPDEST PUSH1 0x0 DUP8 PUSH1 0x9 ADD DUP1 SLOAD DUP1 PUSH1 0x20 MUL PUSH1 0x20 ADD PUSH1 0x40 MLOAD SWAP1 DUP2 ADD PUSH1 0x40 MSTORE DUP1 SWAP3 SWAP2 SWAP1 DUP2 DUP2 MSTORE PUSH1 0x20 ADD DUP3 DUP1 SLOAD DUP1 ISZERO PUSH2 0x1A9A JUMPI PUSH1 0x20 MUL DUP3 ADD SWAP2 SWAP1 PUSH1 0x0 MSTORE PUSH1 0x20 PUSH1 0x0 KECCAK256 SWAP1 JUMPDEST DUP2 SLOAD DUP2 MSTORE PUSH1 0x20 ADD SWAP1 PUSH1 0x1 ADD SWAP1 DUP1 DUP4 GT PUSH2 0x1A86 JUMPI JUMPDEST POP POP POP POP POP SWAP1 POP PUSH1 0x0 DUP4 PUSH1 0x1 PUSH1 0x1 PUSH1 0xA0 SHL SUB AND PUSH4 0x18160DDD PUSH1 0x40 MLOAD DUP2 PUSH4 0xFFFFFFFF AND PUSH1 0xE0 SHL DUP2 MSTORE PUSH1 0x4 ADD PUSH1 0x20 PUSH1 0x40 MLOAD DUP1 DUP4 SUB DUP2 DUP7 DUP1 EXTCODESIZE ISZERO DUP1 ISZERO PUSH2 0x1ADC JUMPI PUSH1 0x0 DUP1 REVERT JUMPDEST POP GAS STATICCALL ISZERO DUP1 ISZERO PUSH2 0x1AF0 JUMPI RETURNDATASIZE PUSH1 0x0 DUP1 RETURNDATACOPY RETURNDATASIZE PUSH1 0x0 REVERT JUMPDEST POP POP POP POP PUSH1 0x40 MLOAD RETURNDATASIZE PUSH1 0x1F NOT PUSH1 0x1F DUP3 ADD AND DUP3 ADD DUP1 PUSH1 0x40 MSTORE POP DUP2 ADD SWAP1 PUSH2 0x1B14 SWAP2 SWAP1 PUSH2 0x3CFA JUMP JUMPDEST SWAP1 POP PUSH1 0x0 PUSH2 0x1B23 DUP4 DUP11 DUP5 PUSH2 0x2E94 JUMP JUMPDEST SWAP1 POP PUSH1 0x0 JUMPDEST DUP2 MLOAD DUP2 LT ISZERO PUSH2 0x1C50 JUMPI DUP9 DUP9 DUP3 DUP2 DUP2 LT PUSH2 0x1B51 JUMPI PUSH4 0x4E487B71 PUSH1 0xE0 SHL PUSH1 0x0 MSTORE PUSH1 0x32 PUSH1 0x4 MSTORE PUSH1 0x24 PUSH1 0x0 REVERT JUMPDEST SWAP1 POP PUSH1 0x20 MUL ADD CALLDATALOAD DUP3 DUP3 DUP2 MLOAD DUP2 LT PUSH2 0x1B78 JUMPI PUSH4 0x4E487B71 PUSH1 0xE0 SHL PUSH1 0x0 MSTORE PUSH1 0x32 PUSH1 0x4 MSTORE PUSH1 0x24 PUSH1 0x0 REVERT JUMPDEST PUSH1 0x20 MUL PUSH1 0x20 ADD ADD MLOAD LT ISZERO PUSH2 0x1B9E JUMPI PUSH1 0x40 MLOAD PUSH3 0x461BCD PUSH1 0xE5 SHL DUP2 MSTORE PUSH1 0x4 ADD PUSH2 0x4E3 SWAP1 PUSH2 0x4492 JUMP JUMPDEST PUSH2 0x1BE9 DUP3 DUP3 DUP2 MLOAD DUP2 LT PUSH2 0x1BC1 JUMPI PUSH4 0x4E487B71 PUSH1 0xE0 SHL PUSH1 0x0 MSTORE PUSH1 0x32 PUSH1 0x4 MSTORE PUSH1 0x24 PUSH1 0x0 REVERT JUMPDEST PUSH1 0x20 MUL PUSH1 0x20 ADD ADD MLOAD DUP6 DUP4 DUP2 MLOAD DUP2 LT PUSH2 0xBC4 JUMPI PUSH4 0x4E487B71 PUSH1 0xE0 SHL PUSH1 0x0 MSTORE PUSH1 0x32 PUSH1 0x4 MSTORE PUSH1 0x24 PUSH1 0x0 REVERT JUMPDEST DUP12 PUSH1 0x9 ADD DUP3 DUP2 SLOAD DUP2 LT PUSH2 0x1C0C JUMPI PUSH4 0x4E487B71 PUSH1 0xE0 SHL PUSH1 0x0 MSTORE PUSH1 0x32 PUSH1 0x4 MSTORE PUSH1 0x24 PUSH1 0x0 REVERT JUMPDEST SWAP1 PUSH1 0x0 MSTORE PUSH1 0x20 PUSH1 0x0 KECCAK256 ADD DUP2 SWAP1 SSTORE POP PUSH2 0x1C3E CALLER DUP4 DUP4 DUP2 MLOAD DUP2 LT PUSH2 0x157A JUMPI PUSH4 0x4E487B71 PUSH1 0xE0 SHL PUSH1 0x0 MSTORE PUSH1 0x32 PUSH1 0x4 MSTORE PUSH1 0x24 PUSH1 0x0 REVERT JUMPDEST DUP1 PUSH2 0x1C48 DUP2 PUSH2 0x46C4 JUMP JUMPDEST SWAP2 POP POP PUSH2 0x1B28 JUMP JUMPDEST POP PUSH1 0x40 MLOAD PUSH4 0x79CC679 PUSH1 0xE4 SHL DUP2 MSTORE PUSH1 0x1 PUSH1 0x1 PUSH1 0xA0 SHL SUB DUP7 AND SWAP1 PUSH4 0x79CC6790 SWAP1 PUSH2 0x1C7F SWAP1 CALLER SWAP1 DUP14 SWAP1 PUSH1 0x4 ADD PUSH2 0x3DA0 JUMP JUMPDEST PUSH1 0x0 PUSH1 0x40 MLOAD DUP1 DUP4 SUB DUP2 PUSH1 0x0 DUP8 DUP1 EXTCODESIZE ISZERO DUP1 ISZERO PUSH2 0x1C99 JUMPI PUSH1 0x0 DUP1 REVERT JUMPDEST POP GAS CALL ISZERO DUP1 ISZERO PUSH2 0x1CAD JUMPI RETURNDATASIZE PUSH1 0x0 DUP1 RETURNDATACOPY RETURNDATASIZE PUSH1 0x0 REVERT JUMPDEST POP CALLER SWAP3 POP PUSH32 0x88D38ED598FDD809C2BF01EE49CD24B7FDABF379A83D29567952B60324D58CEF SWAP2 POP DUP4 SWAP1 POP PUSH2 0x1CE1 DUP6 DUP14 PUSH2 0x287C JUMP JUMPDEST PUSH1 0x40 MLOAD PUSH2 0x1CEF SWAP3 SWAP2 SWAP1 PUSH2 0x3E36 JUMP JUMPDEST PUSH1 0x40 MLOAD DUP1 SWAP2 SUB SWAP1 LOG2 SWAP5 POP POP POP POP POP JUMPDEST SWAP5 SWAP4 POP POP POP POP JUMP JUMPDEST PUSH1 0x7 DUP3 ADD SLOAD PUSH1 0x0 SWAP1 DUP3 LT PUSH2 0x1D2C JUMPI PUSH1 0x40 MLOAD PUSH3 0x461BCD PUSH1 0xE5 SHL DUP2 MSTORE PUSH1 0x4 ADD PUSH2 0x4E3 SWAP1 PUSH2 0x3FED JUMP JUMPDEST PUSH2 0x1832 DUP4 PUSH1 0x9 ADD DUP4 DUP2 SLOAD DUP2 LT PUSH2 0x1D52 JUMPI PUSH4 0x4E487B71 PUSH1 0xE0 SHL PUSH1 0x0 MSTORE PUSH1 0x32 PUSH1 0x4 MSTORE PUSH1 0x24 PUSH1 0x0 REVERT JUMPDEST SWAP1 PUSH1 0x0 MSTORE PUSH1 0x20 PUSH1 0x0 KECCAK256 ADD SLOAD DUP5 PUSH1 0x7 ADD DUP5 DUP2 SLOAD DUP2 LT PUSH2 0x1D80 JUMPI PUSH4 0x4E487B71 PUSH1 0xE0 SHL PUSH1 0x0 MSTORE PUSH1 0x32 PUSH1 0x4 MSTORE PUSH1 0x24 PUSH1 0x0 REVERT JUMPDEST PUSH1 0x0 SWAP2 DUP3 MSTORE PUSH1 0x20 SWAP1 SWAP2 KECCAK256 ADD SLOAD PUSH1 0x40 MLOAD PUSH4 0x70A08231 PUSH1 0xE0 SHL DUP2 MSTORE PUSH1 0x1 PUSH1 0x1 PUSH1 0xA0 SHL SUB SWAP1 SWAP2 AND SWAP1 PUSH4 0x70A08231 SWAP1 PUSH2 0x3D3 SWAP1 ADDRESS SWAP1 PUSH1 0x4 ADD PUSH2 0x3D68 JUMP JUMPDEST PUSH1 0x0 DUP1 PUSH2 0x1DC5 DUP7 PUSH2 0x2903 JUMP JUMPDEST SWAP1 POP PUSH1 0x0 DUP7 PUSH1 0x9 ADD DUP1 SLOAD DUP1 PUSH1 0x20 MUL PUSH1 0x20 ADD PUSH1 0x40 MLOAD SWAP1 DUP2 ADD PUSH1 0x40 MSTORE DUP1 SWAP3 SWAP2 SWAP1 DUP2 DUP2 MSTORE PUSH1 0x20 ADD DUP3 DUP1 SLOAD DUP1 ISZERO PUSH2 0x1E17 JUMPI PUSH1 0x20 MUL DUP3 ADD SWAP2 SWAP1 PUSH1 0x0 MSTORE PUSH1 0x20 PUSH1 0x0 KECCAK256 SWAP1 JUMPDEST DUP2 SLOAD DUP2 MSTORE PUSH1 0x20 ADD SWAP1 PUSH1 0x1 ADD SWAP1 DUP1 DUP4 GT PUSH2 0x1E03 JUMPI JUMPDEST POP POP POP POP POP SWAP1 POP PUSH1 0x0 DUP8 PUSH1 0x8 ADD DUP1 SLOAD DUP1 PUSH1 0x20 MUL PUSH1 0x20 ADD PUSH1 0x40 MLOAD SWAP1 DUP2 ADD PUSH1 0x40 MSTORE DUP1 SWAP3 SWAP2 SWAP1 DUP2 DUP2 MSTORE PUSH1 0x20 ADD DUP3 DUP1 SLOAD DUP1 ISZERO PUSH2 0x1E6E JUMPI PUSH1 0x20 MUL DUP3 ADD SWAP2 SWAP1 PUSH1 0x0 MSTORE PUSH1 0x20 PUSH1 0x0 KECCAK256 SWAP1 JUMPDEST DUP2 SLOAD DUP2 MSTORE PUSH1 0x20 ADD SWAP1 PUSH1 0x1 ADD SWAP1 DUP1 DUP4 GT PUSH2 0x1E5A JUMPI JUMPDEST POP POP POP POP POP SWAP1 POP PUSH1 0x0 PUSH2 0x1E8A PUSH2 0x1E84 DUP5 DUP5 PUSH2 0x290E JUMP JUMPDEST DUP6 PUSH2 0x2A25 JUMP JUMPDEST SWAP1 POP PUSH1 0x0 JUMPDEST DUP4 MLOAD DUP2 LT ISZERO PUSH2 0x1FBB JUMPI DUP7 ISZERO PUSH2 0x1F19 JUMPI PUSH2 0x1EE8 DUP10 DUP10 DUP4 DUP2 DUP2 LT PUSH2 0x1EC1 JUMPI PUSH4 0x4E487B71 PUSH1 0xE0 SHL PUSH1 0x0 MSTORE PUSH1 0x32 PUSH1 0x4 MSTORE PUSH1 0x24 PUSH1 0x0 REVERT JUMPDEST SWAP1 POP PUSH1 0x20 MUL ADD CALLDATALOAD DUP6 DUP4 DUP2 MLOAD DUP2 LT PUSH2 0x96C JUMPI PUSH4 0x4E487B71 PUSH1 0xE0 SHL PUSH1 0x0 MSTORE PUSH1 0x32 PUSH1 0x4 MSTORE PUSH1 0x24 PUSH1 0x0 REVERT JUMPDEST DUP5 DUP3 DUP2 MLOAD DUP2 LT PUSH2 0x1F08 JUMPI PUSH4 0x4E487B71 PUSH1 0xE0 SHL PUSH1 0x0 MSTORE PUSH1 0x32 PUSH1 0x4 MSTORE PUSH1 0x24 PUSH1 0x0 REVERT JUMPDEST PUSH1 0x20 MUL PUSH1 0x20 ADD ADD DUP2 DUP2 MSTORE POP POP PUSH2 0x1FA9 JUMP JUMPDEST PUSH2 0x1F7C DUP10 DUP10 DUP4 DUP2 DUP2 LT PUSH2 0x1F3C JUMPI PUSH4 0x4E487B71 PUSH1 0xE0 SHL PUSH1 0x0 MSTORE PUSH1 0x32 PUSH1 0x4 MSTORE PUSH1 0x24 PUSH1 0x0 REVERT JUMPDEST SWAP1 POP PUSH1 0x20 MUL ADD CALLDATALOAD PUSH1 0x40 MLOAD DUP1 PUSH1 0x60 ADD PUSH1 0x40 MSTORE DUP1 PUSH1 0x23 DUP2 MSTORE PUSH1 0x20 ADD PUSH2 0x471D PUSH1 0x23 SWAP2 CODECOPY DUP7 DUP5 DUP2 MLOAD DUP2 LT PUSH2 0x120F JUMPI PUSH4 0x4E487B71 PUSH1 0xE0 SHL PUSH1 0x0 MSTORE PUSH1 0x32 PUSH1 0x4 MSTORE PUSH1 0x24 PUSH1 0x0 REVERT JUMPDEST DUP5 DUP3 DUP2 MLOAD DUP2 LT PUSH2 0x1F9C JUMPI PUSH4 0x4E487B71 PUSH1 0xE0 SHL PUSH1 0x0 MSTORE PUSH1 0x32 PUSH1 0x4 MSTORE PUSH1 0x24 PUSH1 0x0 REVERT JUMPDEST PUSH1 0x20 MUL PUSH1 0x20 ADD ADD DUP2 DUP2 MSTORE POP POP JUMPDEST DUP1 PUSH2 0x1FB3 DUP2 PUSH2 0x46C4 JUMP JUMPDEST SWAP2 POP POP PUSH2 0x1E8F JUMP JUMPDEST POP PUSH1 0x0 PUSH2 0x1FD1 PUSH2 0x1FCB DUP6 DUP6 PUSH2 0x290E JUMP JUMPDEST DUP7 PUSH2 0x2A25 JUMP JUMPDEST SWAP1 POP PUSH1 0x0 DUP11 PUSH1 0x6 ADD PUSH1 0x0 SWAP1 SLOAD SWAP1 PUSH2 0x100 EXP SWAP1 DIV PUSH1 0x1 PUSH1 0x1 PUSH1 0xA0 SHL SUB AND PUSH1 0x1 PUSH1 0x1 PUSH1 0xA0 SHL SUB AND PUSH4 0x18160DDD PUSH1 0x40 MLOAD DUP2 PUSH4 0xFFFFFFFF AND PUSH1 0xE0 SHL DUP2 MSTORE PUSH1 0x4 ADD PUSH1 0x20 PUSH1 0x40 MLOAD DUP1 DUP4 SUB DUP2 DUP7 DUP1 EXTCODESIZE ISZERO DUP1 ISZERO PUSH2 0x2025 JUMPI PUSH1 0x0 DUP1 REVERT JUMPDEST POP GAS STATICCALL ISZERO DUP1 ISZERO PUSH2 0x2039 JUMPI RETURNDATASIZE PUSH1 0x0 DUP1 RETURNDATACOPY RETURNDATASIZE PUSH1 0x0 REVERT JUMPDEST POP POP POP POP PUSH1 0x40 MLOAD RETURNDATASIZE PUSH1 0x1F NOT PUSH1 0x1F DUP3 ADD AND DUP3 ADD DUP1 PUSH1 0x40 MSTORE POP DUP2 ADD SWAP1 PUSH2 0x205D SWAP2 SWAP1 PUSH2 0x3CFA JUMP JUMPDEST SWAP1 POP DUP1 PUSH2 0x2071 JUMPI POP SWAP5 POP PUSH2 0x1CFE SWAP4 POP POP POP POP JUMP JUMPDEST DUP8 ISZERO PUSH2 0x2096 JUMPI PUSH2 0x2089 DUP4 PUSH2 0xAD9 DUP4 PUSH2 0xD0B DUP7 DUP5 PUSH2 0x287C JUMP JUMPDEST SWAP7 POP POP POP POP POP POP POP PUSH2 0x1CFE JUMP JUMPDEST PUSH2 0x2089 DUP4 PUSH2 0xAD9 DUP4 PUSH2 0xD0B DUP4 DUP8 PUSH2 0x287C JUMP JUMPDEST PUSH1 0x0 DUP1 DUP7 PUSH1 0x7 ADD DUP7 PUSH1 0xFF AND DUP2 SLOAD DUP2 LT PUSH2 0x20D1 JUMPI PUSH4 0x4E487B71 PUSH1 0xE0 SHL PUSH1 0x0 MSTORE PUSH1 0x32 PUSH1 0x4 MSTORE PUSH1 0x24 PUSH1 0x0 REVERT JUMPDEST PUSH1 0x0 SWAP2 DUP3 MSTORE PUSH1 0x20 SWAP1 SWAP2 KECCAK256 ADD SLOAD PUSH1 0x40 MLOAD PUSH4 0x70A08231 PUSH1 0xE0 SHL DUP2 MSTORE PUSH1 0x1 PUSH1 0x1 PUSH1 0xA0 SHL SUB SWAP1 SWAP2 AND SWAP2 POP DUP2 SWAP1 PUSH4 0x70A08231 SWAP1 PUSH2 0x210D SWAP1 CALLER SWAP1 PUSH1 0x4 ADD PUSH2 0x3D68 JUMP JUMPDEST PUSH1 0x20 PUSH1 0x40 MLOAD DUP1 DUP4 SUB DUP2 DUP7 DUP1 EXTCODESIZE ISZERO DUP1 ISZERO PUSH2 0x2125 JUMPI PUSH1 0x0 DUP1 REVERT JUMPDEST POP GAS STATICCALL ISZERO DUP1 ISZERO PUSH2 0x2139 JUMPI RETURNDATASIZE PUSH1 0x0 DUP1 RETURNDATACOPY RETURNDATASIZE PUSH1 0x0 REVERT JUMPDEST POP POP POP POP PUSH1 0x40 MLOAD RETURNDATASIZE PUSH1 0x1F NOT PUSH1 0x1F DUP3 ADD AND DUP3 ADD DUP1 PUSH1 0x40 MSTORE POP DUP2 ADD SWAP1 PUSH2 0x215D SWAP2 SWAP1 PUSH2 0x3CFA JUMP JUMPDEST DUP5 GT ISZERO PUSH2 0x217C JUMPI PUSH1 0x40 MLOAD PUSH3 0x461BCD PUSH1 0xE5 SHL DUP2 MSTORE PUSH1 0x4 ADD PUSH2 0x4E3 SWAP1 PUSH2 0x40D1 JUMP JUMPDEST PUSH1 0x40 MLOAD PUSH4 0x70A08231 PUSH1 0xE0 SHL DUP2 MSTORE PUSH1 0x0 SWAP1 PUSH1 0x1 PUSH1 0x1 PUSH1 0xA0 SHL SUB DUP4 AND SWAP1 PUSH4 0x70A08231 SWAP1 PUSH2 0x21AB SWAP1 ADDRESS SWAP1 PUSH1 0x4 ADD PUSH2 0x3D68 JUMP JUMPDEST PUSH1 0x20 PUSH1 0x40 MLOAD DUP1 DUP4 SUB DUP2 DUP7 DUP1 EXTCODESIZE ISZERO DUP1 ISZERO PUSH2 0x21C3 JUMPI PUSH1 0x0 DUP1 REVERT JUMPDEST POP GAS STATICCALL ISZERO DUP1 ISZERO PUSH2 0x21D7 JUMPI RETURNDATASIZE PUSH1 0x0 DUP1 RETURNDATACOPY RETURNDATASIZE PUSH1 0x0 REVERT JUMPDEST POP POP POP POP PUSH1 0x40 MLOAD RETURNDATASIZE PUSH1 0x1F NOT PUSH1 0x1F DUP3 ADD AND DUP3 ADD DUP1 PUSH1 0x40 MSTORE POP DUP2 ADD SWAP1 PUSH2 0x21FB SWAP2 SWAP1 PUSH2 0x3CFA JUMP JUMPDEST SWAP1 POP PUSH2 0x2212 PUSH1 0x1 PUSH1 0x1 PUSH1 0xA0 SHL SUB DUP4 AND CALLER ADDRESS DUP9 PUSH2 0x2BA2 JUMP JUMPDEST PUSH2 0x2242 DUP2 DUP4 PUSH1 0x1 PUSH1 0x1 PUSH1 0xA0 SHL SUB AND PUSH4 0x70A08231 ADDRESS PUSH1 0x40 MLOAD DUP3 PUSH4 0xFFFFFFFF AND PUSH1 0xE0 SHL DUP2 MSTORE PUSH1 0x4 ADD PUSH2 0x3D3 SWAP2 SWAP1 PUSH2 0x3D68 JUMP JUMPDEST SWAP5 POP POP POP PUSH1 0x0 DUP1 PUSH1 0x0 DUP9 PUSH1 0x9 ADD DUP1 SLOAD DUP1 PUSH1 0x20 MUL PUSH1 0x20 ADD PUSH1 0x40 MLOAD SWAP1 DUP2 ADD PUSH1 0x40 MSTORE DUP1 SWAP3 SWAP2 SWAP1 DUP2 DUP2 MSTORE PUSH1 0x20 ADD DUP3 DUP1 SLOAD DUP1 ISZERO PUSH2 0x2299 JUMPI PUSH1 0x20 MUL DUP3 ADD SWAP2 SWAP1 PUSH1 0x0 MSTORE PUSH1 0x20 PUSH1 0x0 KECCAK256 SWAP1 JUMPDEST DUP2 SLOAD DUP2 MSTORE PUSH1 0x20 ADD SWAP1 PUSH1 0x1 ADD SWAP1 DUP1 DUP4 GT PUSH2 0x2285 JUMPI JUMPDEST POP POP POP POP POP SWAP1 POP PUSH2 0x22AD DUP10 DUP10 DUP10 DUP10 DUP6 PUSH2 0x2CD1 JUMP JUMPDEST SWAP1 SWAP4 POP SWAP2 POP DUP5 DUP4 LT ISZERO PUSH2 0x22D2 JUMPI PUSH1 0x40 MLOAD PUSH3 0x461BCD PUSH1 0xE5 SHL DUP2 MSTORE PUSH1 0x4 ADD PUSH2 0x4E3 SWAP1 PUSH2 0x4168 JUMP JUMPDEST PUSH1 0x0 PUSH2 0x2328 DUP11 PUSH1 0x8 ADD DUP10 PUSH1 0xFF AND DUP2 SLOAD DUP2 LT PUSH2 0x22FD JUMPI PUSH4 0x4E487B71 PUSH1 0xE0 SHL PUSH1 0x0 MSTORE PUSH1 0x32 PUSH1 0x4 MSTORE PUSH1 0x24 PUSH1 0x0 REVERT JUMPDEST SWAP1 PUSH1 0x0 MSTORE PUSH1 0x20 PUSH1 0x0 KECCAK256 ADD SLOAD PUSH2 0xAD9 PUSH5 0x2540BE400 PUSH2 0xAD9 DUP15 PUSH1 0x5 ADD SLOAD DUP9 PUSH2 0x2C0D SWAP1 SWAP2 SWAP1 PUSH4 0xFFFFFFFF AND JUMP JUMPDEST SWAP1 POP PUSH2 0x2351 DUP8 DUP4 DUP12 PUSH1 0xFF AND DUP2 MLOAD DUP2 LT PUSH2 0x96C JUMPI PUSH4 0x4E487B71 PUSH1 0xE0 SHL PUSH1 0x0 MSTORE PUSH1 0x32 PUSH1 0x4 MSTORE PUSH1 0x24 PUSH1 0x0 REVERT JUMPDEST DUP11 PUSH1 0x9 ADD DUP11 PUSH1 0xFF AND DUP2 SLOAD DUP2 LT PUSH2 0x2377 JUMPI PUSH4 0x4E487B71 PUSH1 0xE0 SHL PUSH1 0x0 MSTORE PUSH1 0x32 PUSH1 0x4 MSTORE PUSH1 0x24 PUSH1 0x0 REVERT JUMPDEST SWAP1 PUSH1 0x0 MSTORE PUSH1 0x20 PUSH1 0x0 KECCAK256 ADD DUP2 SWAP1 SSTORE POP PUSH2 0x23B0 DUP2 PUSH2 0x423 DUP7 DUP6 DUP13 PUSH1 0xFF AND DUP2 MLOAD DUP2 LT PUSH2 0xBC4 JUMPI PUSH4 0x4E487B71 PUSH1 0xE0 SHL PUSH1 0x0 MSTORE PUSH1 0x32 PUSH1 0x4 MSTORE PUSH1 0x24 PUSH1 0x0 REVERT JUMPDEST DUP11 PUSH1 0x9 ADD DUP10 PUSH1 0xFF AND DUP2 SLOAD DUP2 LT PUSH2 0x23D6 JUMPI PUSH4 0x4E487B71 PUSH1 0xE0 SHL PUSH1 0x0 MSTORE PUSH1 0x32 PUSH1 0x4 MSTORE PUSH1 0x24 PUSH1 0x0 REVERT JUMPDEST SWAP1 PUSH1 0x0 MSTORE PUSH1 0x20 PUSH1 0x0 KECCAK256 ADD DUP2 SWAP1 SSTORE POP PUSH2 0x242B CALLER DUP6 DUP13 PUSH1 0x7 ADD DUP12 PUSH1 0xFF AND DUP2 SLOAD DUP2 LT PUSH2 0x240F JUMPI PUSH4 0x4E487B71 PUSH1 0xE0 SHL PUSH1 0x0 MSTORE PUSH1 0x32 PUSH1 0x4 MSTORE PUSH1 0x24 PUSH1 0x0 REVERT JUMPDEST PUSH1 0x0 SWAP2 DUP3 MSTORE PUSH1 0x20 SWAP1 SWAP2 KECCAK256 ADD SLOAD PUSH1 0x1 PUSH1 0x1 PUSH1 0xA0 SHL SUB AND SWAP2 SWAP1 PUSH2 0x28A8 JUMP JUMPDEST CALLER PUSH1 0x1 PUSH1 0x1 PUSH1 0xA0 SHL SUB AND PUSH32 0xC6C1E0630DBE9130CC068028486C0D118DDCEA348550819DEFD5CB8C257F8A38 DUP9 DUP7 DUP13 DUP13 PUSH1 0x40 MLOAD PUSH2 0x246A SWAP5 SWAP4 SWAP3 SWAP2 SWAP1 PUSH2 0x44F0 JUMP JUMPDEST PUSH1 0x40 MLOAD DUP1 SWAP2 SUB SWAP1 LOG2 POP SWAP2 SWAP3 POP POP POP JUMPDEST SWAP6 SWAP5 POP POP POP POP POP JUMP JUMPDEST PUSH4 0x5F5E100 DUP2 JUMP JUMPDEST PUSH1 0x0 DUP1 PUSH2 0x16E6 DUP6 DUP6 DUP6 DUP9 PUSH1 0x6 ADD PUSH1 0x0 SWAP1 SLOAD SWAP1 PUSH2 0x100 EXP SWAP1 DIV PUSH1 0x1 PUSH1 0x1 PUSH1 0xA0 SHL SUB AND PUSH1 0x1 PUSH1 0x1 PUSH1 0xA0 SHL SUB AND PUSH4 0x18160DDD PUSH1 0x40 MLOAD DUP2 PUSH4 0xFFFFFFFF AND PUSH1 0xE0 SHL DUP2 MSTORE PUSH1 0x4 ADD PUSH1 0x20 PUSH1 0x40 MLOAD DUP1 DUP4 SUB DUP2 DUP7 DUP1 EXTCODESIZE ISZERO DUP1 ISZERO PUSH2 0x24E3 JUMPI PUSH1 0x0 DUP1 REVERT JUMPDEST POP GAS STATICCALL ISZERO DUP1 ISZERO PUSH2 0x24F7 JUMPI RETURNDATASIZE PUSH1 0x0 DUP1 RETURNDATACOPY RETURNDATASIZE PUSH1 0x0 REVERT JUMPDEST POP POP POP POP PUSH1 0x40 MLOAD RETURNDATASIZE PUSH1 0x1F NOT PUSH1 0x1F DUP3 ADD AND DUP3 ADD DUP1 PUSH1 0x40 MSTORE POP DUP2 ADD SWAP1 PUSH2 0x251B SWAP2 SWAP1 PUSH2 0x3CFA JUMP JUMPDEST PUSH2 0x302D JUMP JUMPDEST PUSH1 0x6 DUP5 ADD SLOAD PUSH1 0x7 DUP6 ADD DUP1 SLOAD PUSH1 0x40 DUP1 MLOAD PUSH1 0x20 DUP1 DUP5 MUL DUP3 ADD DUP2 ADD SWAP1 SWAP3 MSTORE DUP3 DUP2 MSTORE PUSH1 0x0 SWAP5 PUSH1 0x1 PUSH1 0x1 PUSH1 0xA0 SHL SUB AND SWAP4 DUP6 SWAP4 SWAP2 SWAP3 SWAP1 SWAP2 SWAP1 DUP4 ADD DUP3 DUP3 DUP1 ISZERO PUSH2 0x258B JUMPI PUSH1 0x20 MUL DUP3 ADD SWAP2 SWAP1 PUSH1 0x0 MSTORE PUSH1 0x20 PUSH1 0x0 KECCAK256 SWAP1 JUMPDEST DUP2 SLOAD PUSH1 0x1 PUSH1 0x1 PUSH1 0xA0 SHL SUB AND DUP2 MSTORE PUSH1 0x1 SWAP1 SWAP2 ADD SWAP1 PUSH1 0x20 ADD DUP1 DUP4 GT PUSH2 0x256D JUMPI JUMPDEST POP POP PUSH1 0x40 MLOAD PUSH4 0x70A08231 PUSH1 0xE0 SHL DUP2 MSTORE SWAP4 SWAP5 POP POP PUSH1 0x1 PUSH1 0x1 PUSH1 0xA0 SHL SUB DUP6 AND SWAP3 PUSH4 0x70A08231 SWAP3 POP PUSH2 0x25BF SWAP2 POP CALLER SWAP1 PUSH1 0x4 ADD PUSH2 0x3D68 JUMP JUMPDEST PUSH1 0x20 PUSH1 0x40 MLOAD DUP1 DUP4 SUB DUP2 DUP7 DUP1 EXTCODESIZE ISZERO DUP1 ISZERO PUSH2 0x25D7 JUMPI PUSH1 0x0 DUP1 REVERT JUMPDEST POP GAS STATICCALL ISZERO DUP1 ISZERO PUSH2 0x25EB JUMPI RETURNDATASIZE PUSH1 0x0 DUP1 RETURNDATACOPY RETURNDATASIZE PUSH1 0x0 REVERT JUMPDEST POP POP POP POP PUSH1 0x40 MLOAD RETURNDATASIZE PUSH1 0x1F NOT PUSH1 0x1F DUP3 ADD AND DUP3 ADD DUP1 PUSH1 0x40 MSTORE POP DUP2 ADD SWAP1 PUSH2 0x260F SWAP2 SWAP1 PUSH2 0x3CFA JUMP JUMPDEST DUP7 GT ISZERO PUSH2 0x262E JUMPI PUSH1 0x40 MLOAD PUSH3 0x461BCD PUSH1 0xE5 SHL DUP2 MSTORE PUSH1 0x4 ADD PUSH2 0x4E3 SWAP1 PUSH2 0x446B JUMP JUMPDEST DUP1 MLOAD DUP6 PUSH1 0xFF AND LT PUSH2 0x2651 JUMPI PUSH1 0x40 MLOAD PUSH3 0x461BCD PUSH1 0xE5 SHL DUP2 MSTORE PUSH1 0x4 ADD PUSH2 0x4E3 SWAP1 PUSH2 0x3F8D JUMP JUMPDEST PUSH1 0x0 DUP3 PUSH1 0x1 PUSH1 0x1 PUSH1 0xA0 SHL SUB AND PUSH4 0x18160DDD PUSH1 0x40 MLOAD DUP2 PUSH4 0xFFFFFFFF AND PUSH1 0xE0 SHL DUP2 MSTORE PUSH1 0x4 ADD PUSH1 0x20 PUSH1 0x40 MLOAD DUP1 DUP4 SUB DUP2 DUP7 DUP1 EXTCODESIZE ISZERO DUP1 ISZERO PUSH2 0x268C JUMPI PUSH1 0x0 DUP1 REVERT JUMPDEST POP GAS STATICCALL ISZERO DUP1 ISZERO PUSH2 0x26A0 JUMPI RETURNDATASIZE PUSH1 0x0 DUP1 RETURNDATACOPY RETURNDATASIZE PUSH1 0x0 REVERT JUMPDEST POP POP POP POP PUSH1 0x40 MLOAD RETURNDATASIZE PUSH1 0x1F NOT PUSH1 0x1F DUP3 ADD AND DUP3 ADD DUP1 PUSH1 0x40 MSTORE POP DUP2 ADD SWAP1 PUSH2 0x26C4 SWAP2 SWAP1 PUSH2 0x3CFA JUMP JUMPDEST SWAP1 POP PUSH1 0x0 DUP1 PUSH2 0x26D5 DUP11 DUP11 DUP11 DUP7 PUSH2 0x302D JUMP JUMPDEST SWAP2 POP SWAP2 POP DUP7 DUP3 LT ISZERO PUSH2 0x26F9 JUMPI PUSH1 0x40 MLOAD PUSH3 0x461BCD PUSH1 0xE5 SHL DUP2 MSTORE PUSH1 0x4 ADD PUSH2 0x4E3 SWAP1 PUSH2 0x3F2E JUMP JUMPDEST PUSH2 0x2765 PUSH2 0x2726 PUSH2 0x271F PUSH5 0x2540BE400 PUSH2 0xAD9 DUP15 PUSH1 0x5 ADD SLOAD DUP7 PUSH2 0x2C0D SWAP1 SWAP2 SWAP1 PUSH4 0xFFFFFFFF AND JUMP JUMPDEST DUP5 SWAP1 PUSH2 0x2BC3 JUMP JUMPDEST DUP12 PUSH1 0x9 ADD DUP11 PUSH1 0xFF AND DUP2 SLOAD DUP2 LT PUSH2 0x274C JUMPI PUSH4 0x4E487B71 PUSH1 0xE0 SHL PUSH1 0x0 MSTORE PUSH1 0x32 PUSH1 0x4 MSTORE PUSH1 0x24 PUSH1 0x0 REVERT JUMPDEST SWAP1 PUSH1 0x0 MSTORE PUSH1 0x20 PUSH1 0x0 KECCAK256 ADD SLOAD PUSH2 0x287C SWAP1 SWAP2 SWAP1 PUSH4 0xFFFFFFFF AND JUMP JUMPDEST DUP11 PUSH1 0x9 ADD DUP10 PUSH1 0xFF AND DUP2 SLOAD DUP2 LT PUSH2 0x278B JUMPI PUSH4 0x4E487B71 PUSH1 0xE0 SHL PUSH1 0x0 MSTORE PUSH1 0x32 PUSH1 0x4 MSTORE PUSH1 0x24 PUSH1 0x0 REVERT JUMPDEST PUSH1 0x0 SWAP2 DUP3 MSTORE PUSH1 0x20 SWAP1 SWAP2 KECCAK256 ADD SSTORE PUSH1 0x40 MLOAD PUSH4 0x79CC679 PUSH1 0xE4 SHL DUP2 MSTORE PUSH1 0x1 PUSH1 0x1 PUSH1 0xA0 SHL SUB DUP7 AND SWAP1 PUSH4 0x79CC6790 SWAP1 PUSH2 0x27C5 SWAP1 CALLER SWAP1 DUP14 SWAP1 PUSH1 0x4 ADD PUSH2 0x3DA0 JUMP JUMPDEST PUSH1 0x0 PUSH1 0x40 MLOAD DUP1 DUP4 SUB DUP2 PUSH1 0x0 DUP8 DUP1 EXTCODESIZE ISZERO DUP1 ISZERO PUSH2 0x27DF JUMPI PUSH1 0x0 DUP1 REVERT JUMPDEST POP GAS CALL ISZERO DUP1 ISZERO PUSH2 0x27F3 JUMPI RETURNDATASIZE PUSH1 0x0 DUP1 RETURNDATACOPY RETURNDATASIZE PUSH1 0x0 REVERT JUMPDEST POP POP POP POP PUSH2 0x281F CALLER DUP4 DUP7 DUP12 PUSH1 0xFF AND DUP2 MLOAD DUP2 LT PUSH2 0x15A2 JUMPI PUSH4 0x4E487B71 PUSH1 0xE0 SHL PUSH1 0x0 MSTORE PUSH1 0x32 PUSH1 0x4 MSTORE PUSH1 0x24 PUSH1 0x0 REVERT JUMPDEST CALLER PUSH1 0x1 PUSH1 0x1 PUSH1 0xA0 SHL SUB AND PUSH32 0x43FB02998F4E03DA2E0E6FFF53FDBF0C40A9F45F145DC377FC30615D7D7A8A64 DUP11 DUP6 DUP12 DUP7 PUSH1 0x40 MLOAD PUSH2 0x285E SWAP5 SWAP4 SWAP3 SWAP2 SWAP1 PUSH2 0x44D2 JUMP JUMPDEST PUSH1 0x40 MLOAD DUP1 SWAP2 SUB SWAP1 LOG2 POP SWAP9 SWAP8 POP POP POP POP POP POP POP POP JUMP JUMPDEST PUSH5 0x2540BE400 DUP2 JUMP JUMPDEST PUSH1 0x0 DUP3 DUP3 GT ISZERO PUSH2 0x289E JUMPI PUSH1 0x40 MLOAD PUSH3 0x461BCD PUSH1 0xE5 SHL DUP2 MSTORE PUSH1 0x4 ADD PUSH2 0x4E3 SWAP1 PUSH2 0x3FB6 JUMP JUMPDEST PUSH2 0x1832 DUP3 DUP5 PUSH2 0x4681 JUMP JUMPDEST PUSH2 0x28FE DUP4 PUSH4 0xA9059CBB PUSH1 0xE0 SHL DUP5 DUP5 PUSH1 0x40 MLOAD PUSH1 0x24 ADD PUSH2 0x28C7 SWAP3 SWAP2 SWAP1 PUSH2 0x3DA0 JUMP JUMPDEST PUSH1 0x40 DUP1 MLOAD PUSH1 0x1F NOT DUP2 DUP5 SUB ADD DUP2 MSTORE SWAP2 SWAP1 MSTORE PUSH1 0x20 DUP2 ADD DUP1 MLOAD PUSH1 0x1 PUSH1 0x1 PUSH1 0xE0 SHL SUB AND PUSH1 0x1 PUSH1 0x1 PUSH1 0xE0 SHL SUB NOT SWAP1 SWAP4 AND SWAP3 SWAP1 SWAP3 OR SWAP1 SWAP2 MSTORE PUSH2 0x30A5 JUMP JUMPDEST POP POP POP JUMP JUMPDEST PUSH1 0x0 PUSH2 0x1835 DUP3 PUSH2 0x3134 JUMP JUMPDEST DUP2 MLOAD DUP2 MLOAD PUSH1 0x60 SWAP2 SWAP1 DUP2 EQ PUSH2 0x2934 JUMPI PUSH1 0x40 MLOAD PUSH3 0x461BCD PUSH1 0xE5 SHL DUP2 MSTORE PUSH1 0x4 ADD PUSH2 0x4E3 SWAP1 PUSH2 0x3EC0 JUMP JUMPDEST PUSH1 0x0 DUP2 PUSH8 0xFFFFFFFFFFFFFFFF DUP2 GT ISZERO PUSH2 0x295D JUMPI PUSH4 0x4E487B71 PUSH1 0xE0 SHL PUSH1 0x0 MSTORE PUSH1 0x41 PUSH1 0x4 MSTORE PUSH1 0x24 PUSH1 0x0 REVERT JUMPDEST PUSH1 0x40 MLOAD SWAP1 DUP1 DUP3 MSTORE DUP1 PUSH1 0x20 MUL PUSH1 0x20 ADD DUP3 ADD PUSH1 0x40 MSTORE DUP1 ISZERO PUSH2 0x2986 JUMPI DUP2 PUSH1 0x20 ADD PUSH1 0x20 DUP3 MUL DUP1 CALLDATASIZE DUP4 CALLDATACOPY ADD SWAP1 POP JUMPDEST POP SWAP1 POP PUSH1 0x0 JUMPDEST DUP3 DUP2 LT ISZERO PUSH2 0x2A1C JUMPI PUSH2 0x29DF DUP6 DUP3 DUP2 MLOAD DUP2 LT PUSH2 0x29B7 JUMPI PUSH4 0x4E487B71 PUSH1 0xE0 SHL PUSH1 0x0 MSTORE PUSH1 0x32 PUSH1 0x4 MSTORE PUSH1 0x24 PUSH1 0x0 REVERT JUMPDEST PUSH1 0x20 MUL PUSH1 0x20 ADD ADD MLOAD DUP8 DUP4 DUP2 MLOAD DUP2 LT PUSH2 0xB8E JUMPI PUSH4 0x4E487B71 PUSH1 0xE0 SHL PUSH1 0x0 MSTORE PUSH1 0x32 PUSH1 0x4 MSTORE PUSH1 0x24 PUSH1 0x0 REVERT JUMPDEST DUP3 DUP3 DUP2 MLOAD DUP2 LT PUSH2 0x29FF JUMPI PUSH4 0x4E487B71 PUSH1 0xE0 SHL PUSH1 0x0 MSTORE PUSH1 0x32 PUSH1 0x4 MSTORE PUSH1 0x24 PUSH1 0x0 REVERT JUMPDEST PUSH1 0x20 SWAP1 DUP2 MUL SWAP2 SWAP1 SWAP2 ADD ADD MSTORE DUP1 PUSH2 0x2A14 DUP2 PUSH2 0x46C4 JUMP JUMPDEST SWAP2 POP POP PUSH2 0x298C JUMP JUMPDEST POP SWAP5 SWAP4 POP POP POP POP JUMP JUMPDEST DUP2 MLOAD PUSH1 0x0 SWAP1 DUP2 DUP1 JUMPDEST DUP3 DUP2 LT ISZERO PUSH2 0x2A83 JUMPI PUSH2 0x2A6F DUP7 DUP3 DUP2 MLOAD DUP2 LT PUSH2 0x2A58 JUMPI PUSH4 0x4E487B71 PUSH1 0xE0 SHL PUSH1 0x0 MSTORE PUSH1 0x32 PUSH1 0x4 MSTORE PUSH1 0x24 PUSH1 0x0 REVERT JUMPDEST PUSH1 0x20 MUL PUSH1 0x20 ADD ADD MLOAD DUP4 PUSH2 0x2BC3 SWAP1 SWAP2 SWAP1 PUSH4 0xFFFFFFFF AND JUMP JUMPDEST SWAP2 POP DUP1 PUSH2 0x2A7B DUP2 PUSH2 0x46C4 JUMP JUMPDEST SWAP2 POP POP PUSH2 0x2A2D JUMP JUMPDEST POP DUP1 PUSH2 0x2A94 JUMPI PUSH1 0x0 SWAP3 POP POP POP PUSH2 0x1835 JUMP JUMPDEST PUSH1 0x0 DUP2 DUP2 PUSH2 0x2AA2 DUP8 DUP7 PUSH2 0x2C0D JUMP JUMPDEST SWAP1 POP PUSH1 0x0 JUMPDEST PUSH2 0x100 DUP2 LT ISZERO PUSH2 0x2B89 JUMPI DUP3 PUSH1 0x0 JUMPDEST DUP8 DUP2 LT ISZERO PUSH2 0x2B02 JUMPI PUSH2 0x2AEE PUSH2 0x2AE4 DUP10 DUP14 DUP5 DUP2 MLOAD DUP2 LT PUSH2 0xB8E JUMPI PUSH4 0x4E487B71 PUSH1 0xE0 SHL PUSH1 0x0 MSTORE PUSH1 0x32 PUSH1 0x4 MSTORE PUSH1 0x24 PUSH1 0x0 REVERT JUMPDEST PUSH2 0xAD9 DUP5 DUP9 PUSH2 0x2C0D JUMP JUMPDEST SWAP2 POP DUP1 PUSH2 0x2AFA DUP2 PUSH2 0x46C4 JUMP JUMPDEST SWAP2 POP POP PUSH2 0x2AB5 JUMP JUMPDEST POP SWAP3 SWAP4 POP DUP4 SWAP3 PUSH2 0x2B56 PUSH2 0x2B36 PUSH2 0x2B1D DUP4 PUSH2 0xD0B DUP12 PUSH1 0x1 PUSH2 0x2BC3 JUMP JUMPDEST PUSH2 0x2B30 PUSH1 0x64 PUSH2 0xAD9 DUP10 PUSH2 0xD0B DUP11 DUP5 PUSH2 0x287C JUMP JUMPDEST SWAP1 PUSH2 0x2BC3 JUMP JUMPDEST PUSH2 0xAD9 DUP7 PUSH2 0xD0B PUSH2 0x2B47 DUP7 DUP14 PUSH2 0x2C0D JUMP JUMPDEST PUSH2 0x2B30 PUSH1 0x64 PUSH2 0xAD9 DUP12 DUP16 PUSH2 0x2C0D JUMP JUMPDEST SWAP4 POP PUSH2 0x2B62 DUP5 DUP7 PUSH2 0x31C9 JUMP JUMPDEST ISZERO PUSH2 0x2B76 JUMPI DUP4 SWAP8 POP POP POP POP POP POP POP POP PUSH2 0x1835 JUMP JUMPDEST POP DUP1 PUSH2 0x2B81 DUP2 PUSH2 0x46C4 JUMP JUMPDEST SWAP2 POP POP PUSH2 0x2AA7 JUMP JUMPDEST POP PUSH1 0x40 MLOAD PUSH3 0x461BCD PUSH1 0xE5 SHL DUP2 MSTORE PUSH1 0x4 ADD PUSH2 0x4E3 SWAP1 PUSH2 0x4409 JUMP JUMPDEST PUSH2 0x45A DUP5 PUSH4 0x23B872DD PUSH1 0xE0 SHL DUP6 DUP6 DUP6 PUSH1 0x40 MLOAD PUSH1 0x24 ADD PUSH2 0x28C7 SWAP4 SWAP3 SWAP2 SWAP1 PUSH2 0x3D7C JUMP JUMPDEST PUSH1 0x0 DUP1 PUSH2 0x2BD0 DUP4 DUP6 PUSH2 0x451F JUMP JUMPDEST SWAP1 POP DUP4 DUP2 LT ISZERO PUSH2 0x1832 JUMPI PUSH1 0x40 MLOAD PUSH3 0x461BCD PUSH1 0xE5 SHL DUP2 MSTORE PUSH1 0x4 ADD PUSH2 0x4E3 SWAP1 PUSH2 0x3EF7 JUMP JUMPDEST PUSH1 0x0 PUSH2 0x1832 PUSH2 0x2C07 PUSH1 0x4 PUSH2 0xD0B DUP6 PUSH1 0x1 PUSH2 0x287C JUMP JUMPDEST PUSH2 0xAD9 DUP6 DUP6 JUMPDEST PUSH1 0x0 DUP3 PUSH2 0x2C1C JUMPI POP PUSH1 0x0 PUSH2 0x1835 JUMP JUMPDEST PUSH1 0x0 PUSH2 0x2C28 DUP4 DUP6 PUSH2 0x4662 JUMP JUMPDEST SWAP1 POP DUP3 PUSH2 0x2C35 DUP6 DUP4 PUSH2 0x4537 JUMP JUMPDEST EQ PUSH2 0x1832 JUMPI PUSH1 0x40 MLOAD PUSH3 0x461BCD PUSH1 0xE5 SHL DUP2 MSTORE PUSH1 0x4 ADD PUSH2 0x4E3 SWAP1 PUSH2 0x419D JUMP JUMPDEST PUSH1 0x0 DUP1 DUP3 GT PUSH2 0x2C73 JUMPI PUSH1 0x40 MLOAD PUSH3 0x461BCD PUSH1 0xE5 SHL DUP2 MSTORE PUSH1 0x4 ADD PUSH2 0x4E3 SWAP1 PUSH2 0x409A JUMP JUMPDEST PUSH2 0x1832 DUP3 DUP5 PUSH2 0x4537 JUMP JUMPDEST PUSH1 0x0 DUP2 DUP4 GT ISZERO PUSH2 0x2C98 JUMPI PUSH2 0x2C91 DUP3 DUP5 PUSH2 0x4681 JUMP JUMPDEST SWAP1 POP PUSH2 0x1835 JUMP JUMPDEST PUSH2 0x1832 DUP4 DUP4 PUSH2 0x4681 JUMP JUMPDEST PUSH1 0x0 DUP2 DUP5 DUP5 GT ISZERO PUSH2 0x2CC6 JUMPI PUSH1 0x40 MLOAD PUSH3 0x461BCD PUSH1 0xE5 SHL DUP2 MSTORE PUSH1 0x4 ADD PUSH2 0x4E3 SWAP2 SWAP1 PUSH2 0x3E58 JUMP JUMPDEST POP PUSH2 0x1CFE DUP4 DUP6 PUSH2 0x4681 JUMP JUMPDEST PUSH1 0x0 DUP1 PUSH1 0x0 DUP8 PUSH1 0x8 ADD DUP1 SLOAD DUP1 PUSH1 0x20 MUL PUSH1 0x20 ADD PUSH1 0x40 MLOAD SWAP1 DUP2 ADD PUSH1 0x40 MSTORE DUP1 SWAP3 SWAP2 SWAP1 DUP2 DUP2 MSTORE PUSH1 0x20 ADD DUP3 DUP1 SLOAD DUP1 ISZERO PUSH2 0x2D24 JUMPI PUSH1 0x20 MUL DUP3 ADD SWAP2 SWAP1 PUSH1 0x0 MSTORE PUSH1 0x20 PUSH1 0x0 KECCAK256 SWAP1 JUMPDEST DUP2 SLOAD DUP2 MSTORE PUSH1 0x20 ADD SWAP1 PUSH1 0x1 ADD SWAP1 DUP1 DUP4 GT PUSH2 0x2D10 JUMPI JUMPDEST POP POP POP POP POP SWAP1 POP PUSH1 0x0 PUSH2 0x2D37 DUP6 DUP4 PUSH2 0x290E JUMP JUMPDEST SWAP1 POP DUP1 MLOAD DUP9 PUSH1 0xFF AND LT DUP1 ISZERO PUSH2 0x2D4F JUMPI POP DUP1 MLOAD DUP8 PUSH1 0xFF AND LT JUMPDEST PUSH2 0x2D6B JUMPI PUSH1 0x40 MLOAD PUSH3 0x461BCD PUSH1 0xE5 SHL DUP2 MSTORE PUSH1 0x4 ADD PUSH2 0x4E3 SWAP1 PUSH2 0x3FED JUMP JUMPDEST PUSH1 0x0 PUSH2 0x2DD8 DUP3 DUP11 PUSH1 0xFF AND DUP2 MLOAD DUP2 LT PUSH2 0x2D93 JUMPI PUSH4 0x4E487B71 PUSH1 0xE0 SHL PUSH1 0x0 MSTORE PUSH1 0x32 PUSH1 0x4 MSTORE PUSH1 0x24 PUSH1 0x0 REVERT JUMPDEST PUSH1 0x20 MUL PUSH1 0x20 ADD ADD MLOAD PUSH2 0x2B30 DUP6 DUP13 PUSH1 0xFF AND DUP2 MLOAD DUP2 LT PUSH2 0x2DC1 JUMPI PUSH4 0x4E487B71 PUSH1 0xE0 SHL PUSH1 0x0 MSTORE PUSH1 0x32 PUSH1 0x4 MSTORE PUSH1 0x24 PUSH1 0x0 REVERT JUMPDEST PUSH1 0x20 MUL PUSH1 0x20 ADD ADD MLOAD DUP11 PUSH2 0x2C0D SWAP1 SWAP2 SWAP1 PUSH4 0xFFFFFFFF AND JUMP JUMPDEST SWAP1 POP PUSH1 0x0 PUSH2 0x2DF1 PUSH2 0x2DE8 DUP13 PUSH2 0x2903 JUMP JUMPDEST DUP12 DUP12 DUP6 DUP8 PUSH2 0x31E0 JUMP JUMPDEST SWAP1 POP PUSH2 0x2E1F PUSH1 0x1 PUSH2 0x423 DUP4 DUP7 DUP14 PUSH1 0xFF AND DUP2 MLOAD DUP2 LT PUSH2 0xBC4 JUMPI PUSH4 0x4E487B71 PUSH1 0xE0 SHL PUSH1 0x0 MSTORE PUSH1 0x32 PUSH1 0x4 MSTORE PUSH1 0x24 PUSH1 0x0 REVERT JUMPDEST SWAP6 POP PUSH2 0x2E41 PUSH5 0x2540BE400 PUSH2 0xAD9 DUP14 PUSH1 0x4 ADD SLOAD DUP10 PUSH2 0x2C0D SWAP1 SWAP2 SWAP1 PUSH4 0xFFFFFFFF AND JUMP JUMPDEST SWAP5 POP PUSH2 0x2E84 DUP5 DUP11 PUSH1 0xFF AND DUP2 MLOAD DUP2 LT PUSH2 0x2E69 JUMPI PUSH4 0x4E487B71 PUSH1 0xE0 SHL PUSH1 0x0 MSTORE PUSH1 0x32 PUSH1 0x4 MSTORE PUSH1 0x24 PUSH1 0x0 REVERT JUMPDEST PUSH1 0x20 MUL PUSH1 0x20 ADD ADD MLOAD PUSH2 0xAD9 DUP8 DUP10 PUSH2 0x287C SWAP1 SWAP2 SWAP1 PUSH4 0xFFFFFFFF AND JUMP JUMPDEST SWAP6 POP POP POP POP POP SWAP6 POP SWAP6 SWAP4 POP POP POP POP JUMP JUMPDEST PUSH1 0x60 DUP2 DUP4 GT ISZERO PUSH2 0x2EB6 JUMPI PUSH1 0x40 MLOAD PUSH3 0x461BCD PUSH1 0xE5 SHL DUP2 MSTORE PUSH1 0x4 ADD PUSH2 0x4E3 SWAP1 PUSH2 0x43D2 JUMP JUMPDEST PUSH1 0x0 DUP5 MLOAD PUSH8 0xFFFFFFFFFFFFFFFF DUP2 GT ISZERO PUSH2 0x2EE0 JUMPI PUSH4 0x4E487B71 PUSH1 0xE0 SHL PUSH1 0x0 MSTORE PUSH1 0x41 PUSH1 0x4 MSTORE PUSH1 0x24 PUSH1 0x0 REVERT JUMPDEST PUSH1 0x40 MLOAD SWAP1 DUP1 DUP3 MSTORE DUP1 PUSH1 0x20 MUL PUSH1 0x20 ADD DUP3 ADD PUSH1 0x40 MSTORE DUP1 ISZERO PUSH2 0x2F09 JUMPI DUP2 PUSH1 0x20 ADD PUSH1 0x20 DUP3 MUL DUP1 CALLDATASIZE DUP4 CALLDATACOPY ADD SWAP1 POP JUMPDEST POP SWAP1 POP PUSH1 0x0 JUMPDEST DUP6 MLOAD DUP2 LT ISZERO PUSH2 0x2A1C JUMPI PUSH2 0x2F40 DUP5 PUSH2 0xAD9 DUP8 DUP10 DUP6 DUP2 MLOAD DUP2 LT PUSH2 0xB8E JUMPI PUSH4 0x4E487B71 PUSH1 0xE0 SHL PUSH1 0x0 MSTORE PUSH1 0x32 PUSH1 0x4 MSTORE PUSH1 0x24 PUSH1 0x0 REVERT JUMPDEST DUP3 DUP3 DUP2 MLOAD DUP2 LT PUSH2 0x2F60 JUMPI PUSH4 0x4E487B71 PUSH1 0xE0 SHL PUSH1 0x0 MSTORE PUSH1 0x32 PUSH1 0x4 MSTORE PUSH1 0x24 PUSH1 0x0 REVERT JUMPDEST PUSH1 0x20 SWAP1 DUP2 MUL SWAP2 SWAP1 SWAP2 ADD ADD MSTORE DUP1 PUSH2 0x2F75 DUP2 PUSH2 0x46C4 JUMP JUMPDEST SWAP2 POP POP PUSH2 0x2F0F JUMP JUMPDEST PUSH1 0x60 PUSH2 0x1835 DUP3 PUSH1 0x9 ADD DUP1 SLOAD DUP1 PUSH1 0x20 MUL PUSH1 0x20 ADD PUSH1 0x40 MLOAD SWAP1 DUP2 ADD PUSH1 0x40 MSTORE DUP1 SWAP3 SWAP2 SWAP1 DUP2 DUP2 MSTORE PUSH1 0x20 ADD DUP3 DUP1 SLOAD DUP1 ISZERO PUSH2 0x2FD0 JUMPI PUSH1 0x20 MUL DUP3 ADD SWAP2 SWAP1 PUSH1 0x0 MSTORE PUSH1 0x20 PUSH1 0x0 KECCAK256 SWAP1 JUMPDEST DUP2 SLOAD DUP2 MSTORE PUSH1 0x20 ADD SWAP1 PUSH1 0x1 ADD SWAP1 DUP1 DUP4 GT PUSH2 0x2FBC JUMPI JUMPDEST POP POP POP POP POP DUP4 PUSH1 0x8 ADD DUP1 SLOAD DUP1 PUSH1 0x20 MUL PUSH1 0x20 ADD PUSH1 0x40 MLOAD SWAP1 DUP2 ADD PUSH1 0x40 MSTORE DUP1 SWAP3 SWAP2 SWAP1 DUP2 DUP2 MSTORE PUSH1 0x20 ADD DUP3 DUP1 SLOAD DUP1 ISZERO PUSH2 0x3023 JUMPI PUSH1 0x20 MUL DUP3 ADD SWAP2 SWAP1 PUSH1 0x0 MSTORE PUSH1 0x20 PUSH1 0x0 KECCAK256 SWAP1 JUMPDEST DUP2 SLOAD DUP2 MSTORE PUSH1 0x20 ADD SWAP1 PUSH1 0x1 ADD SWAP1 DUP1 DUP4 GT PUSH2 0x300F JUMPI JUMPDEST POP POP POP POP POP PUSH2 0x290E JUMP JUMPDEST PUSH1 0x0 DUP1 PUSH1 0x0 DUP1 PUSH1 0x0 PUSH2 0x3041 DUP10 DUP9 DUP11 DUP10 PUSH2 0x33AF JUMP JUMPDEST DUP1 SWAP4 POP DUP2 SWAP5 POP DUP3 SWAP6 POP POP POP POP PUSH1 0x0 PUSH2 0x3092 DUP5 PUSH2 0x423 DUP13 PUSH1 0x8 ADD DUP12 PUSH1 0xFF AND DUP2 SLOAD DUP2 LT PUSH2 0x307C JUMPI PUSH4 0x4E487B71 PUSH1 0xE0 SHL PUSH1 0x0 MSTORE PUSH1 0x32 PUSH1 0x4 MSTORE PUSH1 0x24 PUSH1 0x0 REVERT JUMPDEST PUSH1 0x0 SWAP2 DUP3 MSTORE PUSH1 0x20 SWAP1 SWAP2 KECCAK256 ADD SLOAD PUSH2 0xAD9 DUP7 DUP9 PUSH2 0x287C JUMP JUMPDEST SWAP4 SWAP6 POP SWAP3 SWAP4 POP POP POP POP JUMPDEST SWAP5 POP SWAP5 SWAP3 POP POP POP JUMP JUMPDEST PUSH1 0x0 PUSH2 0x30FA DUP3 PUSH1 0x40 MLOAD DUP1 PUSH1 0x40 ADD PUSH1 0x40 MSTORE DUP1 PUSH1 0x20 DUP2 MSTORE PUSH1 0x20 ADD PUSH32 0x5361666545524332303A206C6F772D6C6576656C2063616C6C206661696C6564 DUP2 MSTORE POP DUP6 PUSH1 0x1 PUSH1 0x1 PUSH1 0xA0 SHL SUB AND PUSH2 0x36CA SWAP1 SWAP3 SWAP2 SWAP1 PUSH4 0xFFFFFFFF AND JUMP JUMPDEST DUP1 MLOAD SWAP1 SWAP2 POP ISZERO PUSH2 0x28FE JUMPI DUP1 DUP1 PUSH1 0x20 ADD SWAP1 MLOAD DUP2 ADD SWAP1 PUSH2 0x3118 SWAP2 SWAP1 PUSH2 0x39FF JUMP JUMPDEST PUSH2 0x28FE JUMPI PUSH1 0x40 MLOAD PUSH3 0x461BCD PUSH1 0xE5 SHL DUP2 MSTORE PUSH1 0x4 ADD PUSH2 0x4E3 SWAP1 PUSH2 0x4388 JUMP JUMPDEST PUSH1 0x3 DUP2 ADD SLOAD PUSH1 0x1 DUP3 ADD SLOAD PUSH1 0x0 SWAP2 SWAP1 TIMESTAMP DUP3 GT ISZERO PUSH2 0x31C0 JUMPI PUSH1 0x2 DUP5 ADD SLOAD DUP5 SLOAD DUP1 DUP4 GT ISZERO PUSH2 0x3192 JUMPI PUSH2 0x3187 PUSH2 0x3180 PUSH2 0x3169 DUP7 DUP6 PUSH2 0x287C JUMP JUMPDEST PUSH2 0xAD9 PUSH2 0x3176 TIMESTAMP DUP8 PUSH2 0x287C JUMP JUMPDEST PUSH2 0xD0B DUP9 DUP8 PUSH2 0x287C JUMP JUMPDEST DUP3 SWAP1 PUSH2 0x2BC3 JUMP JUMPDEST SWAP5 POP POP POP POP POP PUSH2 0x1916 JUMP JUMPDEST PUSH2 0x3187 PUSH2 0x31B9 PUSH2 0x31A2 DUP7 DUP6 PUSH2 0x287C JUMP JUMPDEST PUSH2 0xAD9 PUSH2 0x31AF TIMESTAMP DUP8 PUSH2 0x287C JUMP JUMPDEST PUSH2 0xD0B DUP7 DUP10 PUSH2 0x287C JUMP JUMPDEST DUP3 SWAP1 PUSH2 0x287C JUMP JUMPDEST SWAP2 POP PUSH2 0x1916 SWAP1 POP JUMP JUMPDEST PUSH1 0x0 PUSH1 0x1 PUSH2 0x31D7 DUP5 DUP5 PUSH2 0x2C7D JUMP JUMPDEST GT ISZERO SWAP4 SWAP3 POP POP POP JUMP JUMPDEST DUP1 MLOAD PUSH1 0x0 SWAP1 PUSH1 0xFF DUP7 DUP2 AND SWAP1 DUP7 AND EQ ISZERO PUSH2 0x320B JUMPI PUSH1 0x40 MLOAD PUSH3 0x461BCD PUSH1 0xE5 SHL DUP2 MSTORE PUSH1 0x4 ADD PUSH2 0x4E3 SWAP1 PUSH2 0x4351 JUMP JUMPDEST DUP1 DUP7 PUSH1 0xFF AND LT DUP1 ISZERO PUSH2 0x321F JUMPI POP DUP1 DUP6 PUSH1 0xFF AND LT JUMPDEST PUSH2 0x323B JUMPI PUSH1 0x40 MLOAD PUSH3 0x461BCD PUSH1 0xE5 SHL DUP2 MSTORE PUSH1 0x4 ADD PUSH2 0x4E3 SWAP1 PUSH2 0x4024 JUMP JUMPDEST PUSH1 0x0 PUSH2 0x3247 DUP5 DUP10 PUSH2 0x2A25 JUMP JUMPDEST SWAP1 POP DUP1 PUSH1 0x0 DUP1 PUSH2 0x3257 DUP6 DUP13 PUSH2 0x2C0D JUMP JUMPDEST SWAP1 POP PUSH1 0x0 DUP1 JUMPDEST DUP7 DUP2 LT ISZERO PUSH2 0x32EE JUMPI DUP12 PUSH1 0xFF AND DUP2 EQ ISZERO PUSH2 0x3278 JUMPI DUP10 SWAP2 POP PUSH2 0x32B6 JUMP JUMPDEST DUP11 PUSH1 0xFF AND DUP2 EQ PUSH2 0x32B1 JUMPI DUP9 DUP2 DUP2 MLOAD DUP2 LT PUSH2 0x32A2 JUMPI PUSH4 0x4E487B71 PUSH1 0xE0 SHL PUSH1 0x0 MSTORE PUSH1 0x32 PUSH1 0x4 MSTORE PUSH1 0x24 PUSH1 0x0 REVERT JUMPDEST PUSH1 0x20 MUL PUSH1 0x20 ADD ADD MLOAD SWAP2 POP PUSH2 0x32B6 JUMP JUMPDEST PUSH2 0x32DC JUMP JUMPDEST PUSH2 0x32C0 DUP5 DUP4 PUSH2 0x2BC3 JUMP JUMPDEST SWAP4 POP PUSH2 0x32D9 PUSH2 0x32CF DUP4 DUP10 PUSH2 0x2C0D JUMP JUMPDEST PUSH2 0xAD9 DUP8 DUP10 PUSH2 0x2C0D JUMP JUMPDEST SWAP5 POP JUMPDEST DUP1 PUSH2 0x32E6 DUP2 PUSH2 0x46C4 JUMP JUMPDEST SWAP2 POP POP PUSH2 0x325D JUMP JUMPDEST POP PUSH2 0x330B PUSH2 0x32FC DUP4 DUP9 PUSH2 0x2C0D JUMP JUMPDEST PUSH2 0xAD9 PUSH1 0x64 PUSH2 0xD0B DUP9 DUP11 PUSH2 0x2C0D JUMP JUMPDEST SWAP4 POP PUSH1 0x0 PUSH2 0x3328 PUSH2 0x3321 DUP5 PUSH2 0xAD9 DUP10 PUSH1 0x64 PUSH2 0x2C0D JUMP JUMPDEST DUP6 SWAP1 PUSH2 0x2BC3 JUMP JUMPDEST SWAP1 POP PUSH1 0x0 DUP7 DUP2 JUMPDEST PUSH2 0x100 DUP2 LT ISZERO PUSH2 0x3396 JUMPI SWAP1 SWAP2 POP DUP2 SWAP1 PUSH2 0x3362 PUSH2 0x3354 DUP11 PUSH2 0x423 DUP8 PUSH2 0x2B30 DUP8 PUSH1 0x2 PUSH2 0x2C0D JUMP JUMPDEST PUSH2 0xAD9 DUP11 PUSH2 0x2B30 DUP7 DUP1 PUSH2 0x2C0D JUMP JUMPDEST SWAP2 POP PUSH2 0x336E DUP3 DUP5 PUSH2 0x31C9 JUMP JUMPDEST ISZERO PUSH2 0x3384 JUMPI POP SWAP9 POP PUSH2 0x2479 SWAP8 POP POP POP POP POP POP POP POP JUMP JUMPDEST DUP1 PUSH2 0x338E DUP2 PUSH2 0x46C4 JUMP JUMPDEST SWAP2 POP POP PUSH2 0x332F JUMP JUMPDEST POP PUSH1 0x40 MLOAD PUSH3 0x461BCD PUSH1 0xE5 SHL DUP2 MSTORE PUSH1 0x4 ADD PUSH2 0x4E3 SWAP1 PUSH2 0x42E3 JUMP JUMPDEST PUSH1 0x0 DUP1 PUSH1 0x0 DUP1 PUSH2 0x33BE DUP9 PUSH2 0x2F7D JUMP JUMPDEST SWAP1 POP DUP1 MLOAD DUP8 PUSH1 0xFF AND LT PUSH2 0x33E3 JUMPI PUSH1 0x40 MLOAD PUSH3 0x461BCD PUSH1 0xE5 SHL DUP2 MSTORE PUSH1 0x4 ADD PUSH2 0x4E3 SWAP1 PUSH2 0x3FED JUMP JUMPDEST PUSH1 0x0 PUSH1 0x40 MLOAD DUP1 PUSH1 0xA0 ADD PUSH1 0x40 MSTORE DUP1 PUSH1 0x0 DUP2 MSTORE PUSH1 0x20 ADD PUSH1 0x0 DUP2 MSTORE PUSH1 0x20 ADD PUSH1 0x0 DUP2 MSTORE PUSH1 0x20 ADD PUSH1 0x0 DUP2 MSTORE PUSH1 0x20 ADD PUSH1 0x0 DUP2 MSTORE POP SWAP1 POP PUSH2 0x341C DUP10 PUSH2 0x2903 JUMP JUMPDEST PUSH1 0x80 DUP3 ADD DUP2 SWAP1 MSTORE PUSH2 0x342E SWAP1 DUP4 SWAP1 PUSH2 0x2A25 JUMP JUMPDEST DUP1 DUP3 MSTORE PUSH2 0x344E SWAP1 PUSH2 0x3446 SWAP1 DUP9 SWAP1 PUSH2 0xAD9 SWAP1 DUP12 SWAP1 PUSH2 0x2C0D JUMP JUMPDEST DUP3 MLOAD SWAP1 PUSH2 0x287C JUMP JUMPDEST PUSH1 0x20 DUP3 ADD MSTORE DUP2 MLOAD DUP3 SWAP1 PUSH1 0xFF DUP11 AND SWAP1 DUP2 LT PUSH2 0x3478 JUMPI PUSH4 0x4E487B71 PUSH1 0xE0 SHL PUSH1 0x0 MSTORE PUSH1 0x32 PUSH1 0x4 MSTORE PUSH1 0x24 PUSH1 0x0 REVERT JUMPDEST PUSH1 0x20 MUL PUSH1 0x20 ADD ADD MLOAD DUP8 GT ISZERO PUSH2 0x349F JUMPI PUSH1 0x40 MLOAD PUSH3 0x461BCD PUSH1 0xE5 SHL DUP2 MSTORE PUSH1 0x4 ADD PUSH2 0x4E3 SWAP1 PUSH2 0x431A JUMP JUMPDEST PUSH2 0x34B3 DUP2 PUSH1 0x80 ADD MLOAD DUP10 DUP5 DUP5 PUSH1 0x20 ADD MLOAD PUSH2 0x36D9 JUMP JUMPDEST PUSH1 0x40 DUP3 ADD MSTORE DUP2 MLOAD PUSH1 0x0 SWAP1 PUSH8 0xFFFFFFFFFFFFFFFF DUP2 GT ISZERO PUSH2 0x34E3 JUMPI PUSH4 0x4E487B71 PUSH1 0xE0 SHL PUSH1 0x0 MSTORE PUSH1 0x41 PUSH1 0x4 MSTORE PUSH1 0x24 PUSH1 0x0 REVERT JUMPDEST PUSH1 0x40 MLOAD SWAP1 DUP1 DUP3 MSTORE DUP1 PUSH1 0x20 MUL PUSH1 0x20 ADD DUP3 ADD PUSH1 0x40 MSTORE DUP1 ISZERO PUSH2 0x350C JUMPI DUP2 PUSH1 0x20 ADD PUSH1 0x20 DUP3 MUL DUP1 CALLDATASIZE DUP4 CALLDATACOPY ADD SWAP1 POP JUMPDEST POP SWAP1 POP PUSH2 0x351E DUP11 PUSH1 0x4 ADD SLOAD DUP5 MLOAD PUSH2 0x2BF2 JUMP JUMPDEST PUSH1 0x60 DUP4 ADD MSTORE PUSH1 0x0 JUMPDEST DUP4 MLOAD DUP2 LT ISZERO PUSH2 0x3604 JUMPI PUSH1 0x0 DUP5 DUP3 DUP2 MLOAD DUP2 LT PUSH2 0x3551 JUMPI PUSH4 0x4E487B71 PUSH1 0xE0 SHL PUSH1 0x0 MSTORE PUSH1 0x32 PUSH1 0x4 MSTORE PUSH1 0x24 PUSH1 0x0 REVERT JUMPDEST PUSH1 0x20 MUL PUSH1 0x20 ADD ADD MLOAD SWAP1 POP PUSH2 0x35C6 PUSH2 0x31B9 PUSH5 0x2540BE400 PUSH2 0xAD9 DUP8 PUSH1 0x60 ADD MLOAD DUP16 PUSH1 0xFF AND DUP8 EQ PUSH2 0x359F JUMPI DUP9 MLOAD PUSH1 0x20 DUP11 ADD MLOAD PUSH2 0x359A SWAP2 PUSH2 0x3593 SWAP2 PUSH2 0xAD9 SWAP1 DUP11 SWAP1 PUSH2 0x2C0D JUMP JUMPDEST DUP8 SWAP1 PUSH2 0x287C JUMP JUMPDEST PUSH2 0xD0B JUMP JUMPDEST PUSH2 0xD0B DUP10 PUSH1 0x40 ADD MLOAD PUSH2 0x423 DUP12 PUSH1 0x0 ADD MLOAD PUSH2 0xAD9 DUP14 PUSH1 0x20 ADD MLOAD DUP12 PUSH2 0x2C0D SWAP1 SWAP2 SWAP1 PUSH4 0xFFFFFFFF AND JUMP JUMPDEST DUP4 DUP4 DUP2 MLOAD DUP2 LT PUSH2 0x35E6 JUMPI PUSH4 0x4E487B71 PUSH1 0xE0 SHL PUSH1 0x0 MSTORE PUSH1 0x32 PUSH1 0x4 MSTORE PUSH1 0x24 PUSH1 0x0 REVERT JUMPDEST PUSH1 0x20 SWAP1 DUP2 MUL SWAP2 SWAP1 SWAP2 ADD ADD MSTORE POP DUP1 PUSH2 0x35FC DUP2 PUSH2 0x46C4 JUMP JUMPDEST SWAP2 POP POP PUSH2 0x3526 JUMP JUMPDEST POP PUSH1 0x0 PUSH2 0x3641 PUSH2 0x361E DUP5 PUSH1 0x80 ADD MLOAD DUP13 DUP6 DUP8 PUSH1 0x20 ADD MLOAD PUSH2 0x36D9 JUMP JUMPDEST DUP4 DUP13 PUSH1 0xFF AND DUP2 MLOAD DUP2 LT PUSH2 0xBC4 JUMPI PUSH4 0x4E487B71 PUSH1 0xE0 SHL PUSH1 0x0 MSTORE PUSH1 0x32 PUSH1 0x4 MSTORE PUSH1 0x24 PUSH1 0x0 REVERT JUMPDEST SWAP1 POP PUSH2 0x3683 DUP12 PUSH1 0x8 ADD DUP12 PUSH1 0xFF AND DUP2 SLOAD DUP2 LT PUSH2 0x366C JUMPI PUSH4 0x4E487B71 PUSH1 0xE0 SHL PUSH1 0x0 MSTORE PUSH1 0x32 PUSH1 0x4 MSTORE PUSH1 0x24 PUSH1 0x0 REVERT JUMPDEST PUSH1 0x0 SWAP2 DUP3 MSTORE PUSH1 0x20 SWAP1 SWAP2 KECCAK256 ADD SLOAD PUSH2 0xAD9 DUP4 PUSH1 0x1 PUSH2 0x287C JUMP JUMPDEST SWAP1 POP DUP1 DUP4 PUSH1 0x40 ADD MLOAD DUP6 DUP13 PUSH1 0xFF AND DUP2 MLOAD DUP2 LT PUSH2 0x36AE JUMPI PUSH4 0x4E487B71 PUSH1 0xE0 SHL PUSH1 0x0 MSTORE PUSH1 0x32 PUSH1 0x4 MSTORE PUSH1 0x24 PUSH1 0x0 REVERT JUMPDEST PUSH1 0x20 MUL PUSH1 0x20 ADD ADD MLOAD SWAP7 POP SWAP7 POP SWAP7 POP POP POP POP POP SWAP5 POP SWAP5 POP SWAP5 SWAP2 POP POP JUMP JUMPDEST PUSH1 0x60 PUSH2 0x1CFE DUP5 DUP5 PUSH1 0x0 DUP6 PUSH2 0x3846 JUMP JUMPDEST DUP2 MLOAD PUSH1 0x0 SWAP1 PUSH1 0xFF DUP6 AND DUP2 GT PUSH2 0x3700 JUMPI PUSH1 0x40 MLOAD PUSH3 0x461BCD PUSH1 0xE5 SHL DUP2 MSTORE PUSH1 0x4 ADD PUSH2 0x4E3 SWAP1 PUSH2 0x3F8D JUMP JUMPDEST DUP3 PUSH1 0x0 DUP1 PUSH2 0x370E DUP10 DUP6 PUSH2 0x2C0D JUMP JUMPDEST SWAP1 POP PUSH1 0x0 JUMPDEST DUP5 DUP2 LT ISZERO PUSH2 0x37A7 JUMPI DUP9 PUSH1 0xFF AND DUP2 EQ PUSH2 0x3795 JUMPI PUSH2 0x375F DUP9 DUP3 DUP2 MLOAD DUP2 LT PUSH2 0x3748 JUMPI PUSH4 0x4E487B71 PUSH1 0xE0 SHL PUSH1 0x0 MSTORE PUSH1 0x32 PUSH1 0x4 MSTORE PUSH1 0x24 PUSH1 0x0 REVERT JUMPDEST PUSH1 0x20 MUL PUSH1 0x20 ADD ADD MLOAD DUP5 PUSH2 0x2BC3 SWAP1 SWAP2 SWAP1 PUSH4 0xFFFFFFFF AND JUMP JUMPDEST SWAP3 POP PUSH2 0x3792 PUSH2 0x3788 DUP7 DUP11 DUP5 DUP2 MLOAD DUP2 LT PUSH2 0xB8E JUMPI PUSH4 0x4E487B71 PUSH1 0xE0 SHL PUSH1 0x0 MSTORE PUSH1 0x32 PUSH1 0x4 MSTORE PUSH1 0x24 PUSH1 0x0 REVERT JUMPDEST PUSH2 0xAD9 DUP7 DUP11 PUSH2 0x2C0D JUMP JUMPDEST SWAP4 POP JUMPDEST DUP1 PUSH2 0x379F DUP2 PUSH2 0x46C4 JUMP JUMPDEST SWAP2 POP POP PUSH2 0x3713 JUMP JUMPDEST POP PUSH2 0x37C4 PUSH2 0x37B5 DUP3 DUP7 PUSH2 0x2C0D JUMP JUMPDEST PUSH2 0xAD9 PUSH1 0x64 PUSH2 0xD0B DUP8 DUP12 PUSH2 0x2C0D JUMP JUMPDEST SWAP3 POP PUSH1 0x0 PUSH2 0x37DA PUSH2 0x271F DUP4 PUSH2 0xAD9 DUP11 PUSH1 0x64 PUSH2 0x2C0D JUMP JUMPDEST SWAP1 POP PUSH1 0x0 DUP8 DUP2 JUMPDEST PUSH2 0x100 DUP2 LT ISZERO PUSH2 0x3396 JUMPI SWAP1 SWAP2 POP DUP2 SWAP1 PUSH2 0x3814 PUSH2 0x3806 DUP12 PUSH2 0x423 DUP8 PUSH2 0x2B30 DUP8 PUSH1 0x2 PUSH2 0x2C0D JUMP JUMPDEST PUSH2 0xAD9 DUP10 PUSH2 0x2B30 DUP7 DUP1 PUSH2 0x2C0D JUMP JUMPDEST SWAP2 POP PUSH2 0x3820 DUP3 DUP5 PUSH2 0x31C9 JUMP JUMPDEST ISZERO PUSH2 0x3834 JUMPI POP SWAP7 POP PUSH2 0x1CFE SWAP6 POP POP POP POP POP POP JUMP JUMPDEST DUP1 PUSH2 0x383E DUP2 PUSH2 0x46C4 JUMP JUMPDEST SWAP2 POP POP PUSH2 0x37E1 JUMP JUMPDEST PUSH1 0x60 DUP3 SELFBALANCE LT ISZERO PUSH2 0x3868 JUMPI PUSH1 0x40 MLOAD PUSH3 0x461BCD PUSH1 0xE5 SHL DUP2 MSTORE PUSH1 0x4 ADD PUSH2 0x4E3 SWAP1 PUSH2 0x4054 JUMP JUMPDEST PUSH2 0x3871 DUP6 PUSH2 0x3906 JUMP JUMPDEST PUSH2 0x388D JUMPI PUSH1 0x40 MLOAD PUSH3 0x461BCD PUSH1 0xE5 SHL DUP2 MSTORE PUSH1 0x4 ADD PUSH2 0x4E3 SWAP1 PUSH2 0x42AC JUMP JUMPDEST PUSH1 0x0 DUP1 DUP7 PUSH1 0x1 PUSH1 0x1 PUSH1 0xA0 SHL SUB AND DUP6 DUP8 PUSH1 0x40 MLOAD PUSH2 0x38A9 SWAP2 SWAP1 PUSH2 0x3D4C JUMP JUMPDEST PUSH1 0x0 PUSH1 0x40 MLOAD DUP1 DUP4 SUB DUP2 DUP6 DUP8 GAS CALL SWAP3 POP POP POP RETURNDATASIZE DUP1 PUSH1 0x0 DUP2 EQ PUSH2 0x38E6 JUMPI PUSH1 0x40 MLOAD SWAP2 POP PUSH1 0x1F NOT PUSH1 0x3F RETURNDATASIZE ADD AND DUP3 ADD PUSH1 0x40 MSTORE RETURNDATASIZE DUP3 MSTORE RETURNDATASIZE PUSH1 0x0 PUSH1 0x20 DUP5 ADD RETURNDATACOPY PUSH2 0x38EB JUMP JUMPDEST PUSH1 0x60 SWAP2 POP JUMPDEST POP SWAP2 POP SWAP2 POP PUSH2 0x38FB DUP3 DUP3 DUP7 PUSH2 0x390C JUMP JUMPDEST SWAP8 SWAP7 POP POP POP POP POP POP POP JUMP JUMPDEST EXTCODESIZE ISZERO ISZERO SWAP1 JUMP JUMPDEST PUSH1 0x60 DUP4 ISZERO PUSH2 0x391B JUMPI POP DUP2 PUSH2 0xE00 JUMP JUMPDEST DUP3 MLOAD ISZERO PUSH2 0x392B JUMPI DUP3 MLOAD DUP1 DUP5 PUSH1 0x20 ADD REVERT JUMPDEST DUP2 PUSH1 0x40 MLOAD PUSH3 0x461BCD PUSH1 0xE5 SHL DUP2 MSTORE PUSH1 0x4 ADD PUSH2 0x4E3 SWAP2 SWAP1 PUSH2 0x3E58 JUMP JUMPDEST DUP3 DUP1 SLOAD DUP3 DUP3 SSTORE SWAP1 PUSH1 0x0 MSTORE PUSH1 0x20 PUSH1 0x0 KECCAK256 SWAP1 DUP2 ADD SWAP3 DUP3 ISZERO PUSH2 0x3980 JUMPI SWAP2 PUSH1 0x20 MUL DUP3 ADD JUMPDEST DUP3 DUP2 GT ISZERO PUSH2 0x3980 JUMPI DUP3 MLOAD DUP3 SSTORE SWAP2 PUSH1 0x20 ADD SWAP2 SWAP1 PUSH1 0x1 ADD SWAP1 PUSH2 0x3965 JUMP JUMPDEST POP PUSH2 0x398C SWAP3 SWAP2 POP PUSH2 0x3990 JUMP JUMPDEST POP SWAP1 JUMP JUMPDEST JUMPDEST DUP1 DUP3 GT ISZERO PUSH2 0x398C JUMPI PUSH1 0x0 DUP2 SSTORE PUSH1 0x1 ADD PUSH2 0x3991 JUMP JUMPDEST PUSH1 0x0 DUP1 DUP4 PUSH1 0x1F DUP5 ADD SLT PUSH2 0x39B6 JUMPI DUP1 DUP2 REVERT JUMPDEST POP DUP2 CALLDATALOAD PUSH8 0xFFFFFFFFFFFFFFFF DUP2 GT ISZERO PUSH2 0x39CD JUMPI DUP2 DUP3 REVERT JUMPDEST PUSH1 0x20 DUP4 ADD SWAP2 POP DUP4 PUSH1 0x20 DUP1 DUP4 MUL DUP6 ADD ADD GT ISZERO PUSH2 0x39E7 JUMPI PUSH1 0x0 DUP1 REVERT JUMPDEST SWAP3 POP SWAP3 SWAP1 POP JUMP JUMPDEST DUP1 CALLDATALOAD PUSH1 0xFF DUP2 AND DUP2 EQ PUSH2 0x1916 JUMPI PUSH1 0x0 DUP1 REVERT JUMPDEST PUSH1 0x0 PUSH1 0x20 DUP3 DUP5 SUB SLT ISZERO PUSH2 0x3A10 JUMPI DUP1 DUP2 REVERT JUMPDEST DUP2 MLOAD PUSH2 0x1832 DUP2 PUSH2 0x470B JUMP JUMPDEST PUSH1 0x0 PUSH1 0x20 DUP3 DUP5 SUB SLT ISZERO PUSH2 0x3A2C JUMPI DUP1 DUP2 REVERT JUMPDEST POP CALLDATALOAD SWAP2 SWAP1 POP JUMP JUMPDEST PUSH1 0x0 DUP1 PUSH1 0x40 DUP4 DUP6 SUB SLT ISZERO PUSH2 0x3A45 JUMPI DUP1 DUP2 REVERT JUMPDEST DUP3 CALLDATALOAD SWAP2 POP PUSH1 0x20 DUP4 ADD CALLDATALOAD PUSH1 0x1 PUSH1 0x1 PUSH1 0xA0 SHL SUB DUP2 AND DUP2 EQ PUSH2 0x3A62 JUMPI DUP2 DUP3 REVERT JUMPDEST DUP1 SWAP2 POP POP SWAP3 POP SWAP3 SWAP1 POP JUMP JUMPDEST PUSH1 0x0 DUP1 PUSH1 0x0 DUP1 PUSH1 0x60 DUP6 DUP8 SUB SLT ISZERO PUSH2 0x3A82 JUMPI DUP2 DUP3 REVERT JUMPDEST DUP5 CALLDATALOAD SWAP4 POP PUSH1 0x20 DUP6 ADD CALLDATALOAD PUSH8 0xFFFFFFFFFFFFFFFF DUP2 GT ISZERO PUSH2 0x3A9F JUMPI DUP3 DUP4 REVERT JUMPDEST PUSH2 0x3AAB DUP8 DUP3 DUP9 ADD PUSH2 0x39A5 JUMP JUMPDEST SWAP1 SWAP5 POP SWAP3 POP POP PUSH1 0x40 DUP6 ADD CALLDATALOAD PUSH2 0x3ABF DUP2 PUSH2 0x470B JUMP JUMPDEST SWAP4 SWAP7 SWAP3 SWAP6 POP SWAP1 SWAP4 POP POP JUMP JUMPDEST PUSH1 0x0 DUP1 PUSH1 0x0 PUSH1 0x60 DUP5 DUP7 SUB SLT ISZERO PUSH2 0x3ADE JUMPI DUP3 DUP4 REVERT JUMPDEST DUP4 CALLDATALOAD SWAP3 POP PUSH1 0x20 DUP1 DUP6 ADD CALLDATALOAD PUSH8 0xFFFFFFFFFFFFFFFF DUP1 DUP3 GT ISZERO PUSH2 0x3AFD JUMPI DUP5 DUP6 REVERT JUMPDEST DUP2 DUP8 ADD SWAP2 POP DUP8 PUSH1 0x1F DUP4 ADD SLT PUSH2 0x3B10 JUMPI DUP5 DUP6 REVERT JUMPDEST DUP2 CALLDATALOAD DUP2 DUP2 GT ISZERO PUSH2 0x3B22 JUMPI PUSH2 0x3B22 PUSH2 0x46F5 JUMP JUMPDEST DUP4 DUP2 MUL PUSH1 0x40 MLOAD DUP6 DUP3 DUP3 ADD ADD DUP2 DUP2 LT DUP6 DUP3 GT OR ISZERO PUSH2 0x3B41 JUMPI PUSH2 0x3B41 PUSH2 0x46F5 JUMP JUMPDEST PUSH1 0x40 MSTORE DUP3 DUP2 MSTORE DUP6 DUP2 ADD SWAP4 POP DUP5 DUP7 ADD DUP3 DUP7 ADD DUP8 ADD DUP13 LT ISZERO PUSH2 0x3B5F JUMPI DUP9 DUP10 REVERT JUMPDEST DUP9 SWAP6 POP JUMPDEST DUP4 DUP7 LT ISZERO PUSH2 0x3B81 JUMPI DUP1 CALLDATALOAD DUP6 MSTORE PUSH1 0x1 SWAP6 SWAP1 SWAP6 ADD SWAP5 SWAP4 DUP7 ADD SWAP4 DUP7 ADD PUSH2 0x3B63 JUMP JUMPDEST POP SWAP8 SWAP11 SWAP8 SWAP10 POP POP POP POP PUSH1 0x40 SWAP6 SWAP1 SWAP6 ADD CALLDATALOAD SWAP5 POP POP POP POP JUMP JUMPDEST PUSH1 0x0 DUP1 PUSH1 0x40 DUP4 DUP6 SUB SLT ISZERO PUSH2 0x3BAA JUMPI DUP2 DUP3 REVERT JUMPDEST POP POP DUP1 CALLDATALOAD SWAP3 PUSH1 0x20 SWAP1 SWAP2 ADD CALLDATALOAD SWAP2 POP JUMP JUMPDEST PUSH1 0x0 DUP1 PUSH1 0x0 DUP1 PUSH1 0x60 DUP6 DUP8 SUB SLT ISZERO PUSH2 0x3BCE JUMPI DUP4 DUP5 REVERT JUMPDEST DUP5 CALLDATALOAD SWAP4 POP PUSH1 0x20 DUP6 ADD CALLDATALOAD SWAP3 POP PUSH1 0x40 DUP6 ADD CALLDATALOAD PUSH8 0xFFFFFFFFFFFFFFFF DUP2 GT ISZERO PUSH2 0x3BF2 JUMPI DUP3 DUP4 REVERT JUMPDEST PUSH2 0x3BFE DUP8 DUP3 DUP9 ADD PUSH2 0x39A5 JUMP JUMPDEST SWAP6 SWAP9 SWAP5 SWAP8 POP SWAP6 POP POP POP POP JUMP JUMPDEST PUSH1 0x0 DUP1 PUSH1 0x0 PUSH1 0x60 DUP5 DUP7 SUB SLT ISZERO PUSH2 0x3C1E JUMPI DUP3 DUP4 REVERT JUMPDEST DUP4 CALLDATALOAD SWAP3 POP PUSH1 0x20 DUP5 ADD CALLDATALOAD SWAP2 POP PUSH2 0x3C35 PUSH1 0x40 DUP6 ADD PUSH2 0x39EE JUMP JUMPDEST SWAP1 POP SWAP3 POP SWAP3 POP SWAP3 JUMP JUMPDEST PUSH1 0x0 DUP1 PUSH1 0x0 DUP1 PUSH1 0x80 DUP6 DUP8 SUB SLT ISZERO PUSH2 0x3C53 JUMPI DUP4 DUP5 REVERT JUMPDEST DUP5 CALLDATALOAD SWAP4 POP PUSH1 0x20 DUP6 ADD CALLDATALOAD SWAP3 POP PUSH2 0x3C6A PUSH1 0x40 DUP7 ADD PUSH2 0x39EE JUMP JUMPDEST SWAP4 SWAP7 SWAP3 SWAP6 POP SWAP3 SWAP4 PUSH1 0x60 ADD CALLDATALOAD SWAP3 POP POP JUMP JUMPDEST PUSH1 0x0 DUP1 PUSH1 0x0 DUP1 PUSH1 0x80 DUP6 DUP8 SUB SLT ISZERO PUSH2 0x3C8F JUMPI DUP4 DUP5 REVERT JUMPDEST DUP5 CALLDATALOAD SWAP4 POP PUSH2 0x3C9F PUSH1 0x20 DUP7 ADD PUSH2 0x39EE JUMP JUMPDEST SWAP3 POP PUSH2 0x3C6A PUSH1 0x40 DUP7 ADD PUSH2 0x39EE JUMP JUMPDEST PUSH1 0x0 DUP1 PUSH1 0x0 DUP1 PUSH1 0x0 PUSH1 0xA0 DUP7 DUP9 SUB SLT ISZERO PUSH2 0x3CC4 JUMPI DUP3 DUP4 REVERT JUMPDEST DUP6 CALLDATALOAD SWAP5 POP PUSH2 0x3CD4 PUSH1 0x20 DUP8 ADD PUSH2 0x39EE JUMP JUMPDEST SWAP4 POP PUSH2 0x3CE2 PUSH1 0x40 DUP8 ADD PUSH2 0x39EE JUMP JUMPDEST SWAP5 SWAP8 SWAP4 SWAP7 POP SWAP4 SWAP5 PUSH1 0x60 DUP2 ADD CALLDATALOAD SWAP5 POP PUSH1 0x80 ADD CALLDATALOAD SWAP3 SWAP2 POP POP JUMP JUMPDEST PUSH1 0x0 PUSH1 0x20 DUP3 DUP5 SUB SLT ISZERO PUSH2 0x3D0B JUMPI DUP1 DUP2 REVERT JUMPDEST POP MLOAD SWAP2 SWAP1 POP JUMP JUMPDEST PUSH1 0x0 DUP2 MLOAD DUP1 DUP5 MSTORE PUSH1 0x20 DUP1 DUP6 ADD SWAP5 POP DUP1 DUP5 ADD DUP4 JUMPDEST DUP4 DUP2 LT ISZERO PUSH2 0x3D41 JUMPI DUP2 MLOAD DUP8 MSTORE SWAP6 DUP3 ADD SWAP6 SWAP1 DUP3 ADD SWAP1 PUSH1 0x1 ADD PUSH2 0x3D25 JUMP JUMPDEST POP SWAP5 SWAP6 SWAP5 POP POP POP POP POP JUMP JUMPDEST PUSH1 0x0 DUP3 MLOAD PUSH2 0x3D5E DUP2 DUP5 PUSH1 0x20 DUP8 ADD PUSH2 0x4698 JUMP JUMPDEST SWAP2 SWAP1 SWAP2 ADD SWAP3 SWAP2 POP POP JUMP JUMPDEST PUSH1 0x1 PUSH1 0x1 PUSH1 0xA0 SHL SUB SWAP2 SWAP1 SWAP2 AND DUP2 MSTORE PUSH1 0x20 ADD SWAP1 JUMP JUMPDEST PUSH1 0x1 PUSH1 0x1 PUSH1 0xA0 SHL SUB SWAP4 DUP5 AND DUP2 MSTORE SWAP2 SWAP1 SWAP3 AND PUSH1 0x20 DUP3 ADD MSTORE PUSH1 0x40 DUP2 ADD SWAP2 SWAP1 SWAP2 MSTORE PUSH1 0x60 ADD SWAP1 JUMP JUMPDEST PUSH1 0x1 PUSH1 0x1 PUSH1 0xA0 SHL SUB SWAP3 SWAP1 SWAP3 AND DUP3 MSTORE PUSH1 0x20 DUP3 ADD MSTORE PUSH1 0x40 ADD SWAP1 JUMP JUMPDEST PUSH1 0x20 DUP1 DUP3 MSTORE DUP3 MLOAD DUP3 DUP3 ADD DUP2 SWAP1 MSTORE PUSH1 0x0 SWAP2 SWAP1 DUP5 DUP3 ADD SWAP1 PUSH1 0x40 DUP6 ADD SWAP1 DUP5 JUMPDEST DUP2 DUP2 LT ISZERO PUSH2 0x3DF1 JUMPI DUP4 MLOAD DUP4 MSTORE SWAP3 DUP5 ADD SWAP3 SWAP2 DUP5 ADD SWAP2 PUSH1 0x1 ADD PUSH2 0x3DD5 JUMP JUMPDEST POP SWAP1 SWAP7 SWAP6 POP POP POP POP POP POP JUMP JUMPDEST PUSH1 0x0 PUSH1 0x80 DUP3 MSTORE PUSH2 0x3E10 PUSH1 0x80 DUP4 ADD DUP8 PUSH2 0x3D12 JUMP JUMPDEST DUP3 DUP2 SUB PUSH1 0x20 DUP5 ADD MSTORE PUSH2 0x3E22 DUP2 DUP8 PUSH2 0x3D12 JUMP JUMPDEST PUSH1 0x40 DUP5 ADD SWAP6 SWAP1 SWAP6 MSTORE POP POP PUSH1 0x60 ADD MSTORE SWAP3 SWAP2 POP POP JUMP JUMPDEST PUSH1 0x0 PUSH1 0x40 DUP3 MSTORE PUSH2 0x3E49 PUSH1 0x40 DUP4 ADD DUP6 PUSH2 0x3D12 JUMP JUMPDEST SWAP1 POP DUP3 PUSH1 0x20 DUP4 ADD MSTORE SWAP4 SWAP3 POP POP POP JUMP JUMPDEST PUSH1 0x0 PUSH1 0x20 DUP3 MSTORE DUP3 MLOAD DUP1 PUSH1 0x20 DUP5 ADD MSTORE PUSH2 0x3E77 DUP2 PUSH1 0x40 DUP6 ADD PUSH1 0x20 DUP8 ADD PUSH2 0x4698 JUMP JUMPDEST PUSH1 0x1F ADD PUSH1 0x1F NOT AND SWAP2 SWAP1 SWAP2 ADD PUSH1 0x40 ADD SWAP3 SWAP2 POP POP JUMP JUMPDEST PUSH1 0x20 DUP1 DUP3 MSTORE DUP2 DUP2 ADD MSTORE PUSH32 0x416D6F756E7473206D757374206D6174636820706F6F6C656420746F6B656E73 PUSH1 0x40 DUP3 ADD MSTORE PUSH1 0x60 ADD SWAP1 JUMP JUMPDEST PUSH1 0x20 DUP1 DUP3 MSTORE PUSH1 0x1F SWAP1 DUP3 ADD MSTORE PUSH32 0x42616C616E636573206D757374206D61746368206D756C7469706C6965727300 PUSH1 0x40 DUP3 ADD MSTORE PUSH1 0x60 ADD SWAP1 JUMP JUMPDEST PUSH1 0x20 DUP1 DUP3 MSTORE PUSH1 0x1B SWAP1 DUP3 ADD MSTORE PUSH32 0x536166654D6174683A206164646974696F6E206F766572666C6F770000000000 PUSH1 0x40 DUP3 ADD MSTORE PUSH1 0x60 ADD SWAP1 JUMP JUMPDEST PUSH1 0x20 DUP1 DUP3 MSTORE PUSH1 0xE SWAP1 DUP3 ADD MSTORE PUSH14 0x191E480F081B5A5B905B5BDD5B9D PUSH1 0x92 SHL PUSH1 0x40 DUP3 ADD MSTORE PUSH1 0x60 ADD SWAP1 JUMP JUMPDEST PUSH1 0x20 DUP1 DUP3 MSTORE PUSH1 0x1E SWAP1 DUP3 ADD MSTORE PUSH32 0x4D75737420737570706C7920616C6C20746F6B656E7320696E20706F6F6C0000 PUSH1 0x40 DUP3 ADD MSTORE PUSH1 0x60 ADD SWAP1 JUMP JUMPDEST PUSH1 0x20 DUP1 DUP3 MSTORE PUSH1 0xF SWAP1 DUP3 ADD MSTORE PUSH15 0x151BDAD95B881B9BDD08199BDD5B99 PUSH1 0x8A SHL PUSH1 0x40 DUP3 ADD MSTORE PUSH1 0x60 ADD SWAP1 JUMP JUMPDEST PUSH1 0x20 DUP1 DUP3 MSTORE PUSH1 0x1E SWAP1 DUP3 ADD MSTORE PUSH32 0x536166654D6174683A207375627472616374696F6E206F766572666C6F770000 PUSH1 0x40 DUP3 ADD MSTORE PUSH1 0x60 ADD SWAP1 JUMP JUMPDEST PUSH1 0x20 DUP1 DUP3 MSTORE PUSH1 0x18 SWAP1 DUP3 ADD MSTORE PUSH32 0x546F6B656E20696E646578206F7574206F662072616E67650000000000000000 PUSH1 0x40 DUP3 ADD MSTORE PUSH1 0x60 ADD SWAP1 JUMP JUMPDEST PUSH1 0x20 DUP1 DUP3 MSTORE PUSH1 0x16 SWAP1 DUP3 ADD MSTORE PUSH22 0x151BDAD95B9CC81B5D5CDD081899481A5B881C1BDBDB PUSH1 0x52 SHL PUSH1 0x40 DUP3 ADD MSTORE PUSH1 0x60 ADD SWAP1 JUMP JUMPDEST PUSH1 0x20 DUP1 DUP3 MSTORE PUSH1 0x26 SWAP1 DUP3 ADD MSTORE PUSH32 0x416464726573733A20696E73756666696369656E742062616C616E636520666F PUSH1 0x40 DUP3 ADD MSTORE PUSH6 0x1C8818D85B1B PUSH1 0xD2 SHL PUSH1 0x60 DUP3 ADD MSTORE PUSH1 0x80 ADD SWAP1 JUMP JUMPDEST PUSH1 0x20 DUP1 DUP3 MSTORE PUSH1 0x1A SWAP1 DUP3 ADD MSTORE PUSH32 0x536166654D6174683A206469766973696F6E206279207A65726F000000000000 PUSH1 0x40 DUP3 ADD MSTORE PUSH1 0x60 ADD SWAP1 JUMP JUMPDEST PUSH1 0x20 DUP1 DUP3 MSTORE PUSH1 0x1D SWAP1 DUP3 ADD MSTORE PUSH32 0x43616E6E6F742073776170206D6F7265207468616E20796F75206F776E000000 PUSH1 0x40 DUP3 ADD MSTORE PUSH1 0x60 ADD SWAP1 JUMP JUMPDEST PUSH1 0x20 DUP1 DUP3 MSTORE PUSH1 0x1B SWAP1 DUP3 ADD MSTORE PUSH32 0x436F756C646E2774206D696E74206D696E207265717565737465640000000000 PUSH1 0x40 DUP3 ADD MSTORE PUSH1 0x60 ADD SWAP1 JUMP JUMPDEST PUSH1 0x20 DUP1 DUP3 MSTORE PUSH1 0xF SWAP1 DUP3 ADD MSTORE PUSH15 0x8CCACA40D2E640E8DEDE40D0D2CED PUSH1 0x8B SHL PUSH1 0x40 DUP3 ADD MSTORE PUSH1 0x60 ADD SWAP1 JUMP JUMPDEST PUSH1 0x20 DUP1 DUP3 MSTORE DUP2 DUP2 ADD MSTORE PUSH32 0x53776170206469646E277420726573756C7420696E206D696E20746F6B656E73 PUSH1 0x40 DUP3 ADD MSTORE PUSH1 0x60 ADD SWAP1 JUMP JUMPDEST PUSH1 0x20 DUP1 DUP3 MSTORE PUSH1 0x21 SWAP1 DUP3 ADD MSTORE PUSH32 0x536166654D6174683A206D756C7469706C69636174696F6E206F766572666C6F PUSH1 0x40 DUP3 ADD MSTORE PUSH1 0x77 PUSH1 0xF8 SHL PUSH1 0x60 DUP3 ADD MSTORE PUSH1 0x80 ADD SWAP1 JUMP JUMPDEST PUSH1 0x20 DUP1 DUP3 MSTORE PUSH1 0x1B SWAP1 DUP3 ADD MSTORE PUSH32 0x4275726E7420616D6F756E742063616E6E6F74206265207A65726F0000000000 PUSH1 0x40 DUP3 ADD MSTORE PUSH1 0x60 ADD SWAP1 JUMP JUMPDEST PUSH1 0x20 DUP1 DUP3 MSTORE PUSH1 0x1B SWAP1 DUP3 ADD MSTORE PUSH32 0x746F6B656E416D6F756E74203E206D61784275726E416D6F756E740000000000 PUSH1 0x40 DUP3 ADD MSTORE PUSH1 0x60 ADD SWAP1 JUMP JUMPDEST PUSH1 0x20 DUP1 DUP3 MSTORE PUSH1 0x11 SWAP1 DUP3 ADD MSTORE PUSH17 0x442073686F756C6420696E637265617365 PUSH1 0x78 SHL PUSH1 0x40 DUP3 ADD MSTORE PUSH1 0x60 ADD SWAP1 JUMP JUMPDEST PUSH1 0x20 DUP1 DUP3 MSTORE DUP2 DUP2 ADD MSTORE PUSH32 0x6D696E416D6F756E7473206D757374206D6174636820706F6F6C546F6B656E73 PUSH1 0x40 DUP3 ADD MSTORE PUSH1 0x60 ADD SWAP1 JUMP JUMPDEST PUSH1 0x20 DUP1 DUP3 MSTORE PUSH1 0x1D SWAP1 DUP3 ADD MSTORE PUSH32 0x416464726573733A2063616C6C20746F206E6F6E2D636F6E7472616374000000 PUSH1 0x40 DUP3 ADD MSTORE PUSH1 0x60 ADD SWAP1 JUMP JUMPDEST PUSH1 0x20 DUP1 DUP3 MSTORE PUSH1 0x1E SWAP1 DUP3 ADD MSTORE PUSH32 0x417070726F78696D6174696F6E20646964206E6F7420636F6E76657267650000 PUSH1 0x40 DUP3 ADD MSTORE PUSH1 0x60 ADD SWAP1 JUMP JUMPDEST PUSH1 0x20 DUP1 DUP3 MSTORE PUSH1 0x1A SWAP1 DUP3 ADD MSTORE PUSH32 0x5769746864726177206578636565647320617661696C61626C65000000000000 PUSH1 0x40 DUP3 ADD MSTORE PUSH1 0x60 ADD SWAP1 JUMP JUMPDEST PUSH1 0x20 DUP1 DUP3 MSTORE PUSH1 0x1D SWAP1 DUP3 ADD MSTORE PUSH32 0x43616E277420636F6D7061726520746F6B656E20746F20697473656C66000000 PUSH1 0x40 DUP3 ADD MSTORE PUSH1 0x60 ADD SWAP1 JUMP JUMPDEST PUSH1 0x20 DUP1 DUP3 MSTORE PUSH1 0x2A SWAP1 DUP3 ADD MSTORE PUSH32 0x5361666545524332303A204552433230206F7065726174696F6E20646964206E PUSH1 0x40 DUP3 ADD MSTORE PUSH10 0x1BDD081CDD58D8D95959 PUSH1 0xB2 SHL PUSH1 0x60 DUP3 ADD MSTORE PUSH1 0x80 ADD SWAP1 JUMP JUMPDEST PUSH1 0x20 DUP1 DUP3 MSTORE PUSH1 0x1A SWAP1 DUP3 ADD MSTORE PUSH32 0x43616E6E6F742065786365656420746F74616C20737570706C79000000000000 PUSH1 0x40 DUP3 ADD MSTORE PUSH1 0x60 ADD SWAP1 JUMP JUMPDEST PUSH1 0x20 DUP1 DUP3 MSTORE PUSH1 0x13 SWAP1 DUP3 ADD MSTORE PUSH19 0x4420646F6573206E6F7420636F6E7665726765 PUSH1 0x68 SHL PUSH1 0x40 DUP3 ADD MSTORE PUSH1 0x60 ADD SWAP1 JUMP JUMPDEST PUSH1 0x20 DUP1 DUP3 MSTORE DUP2 DUP2 ADD MSTORE PUSH32 0x416D6F756E74732073686F756C64206D6174636820706F6F6C20746F6B656E73 PUSH1 0x40 DUP3 ADD MSTORE PUSH1 0x60 ADD SWAP1 JUMP JUMPDEST PUSH1 0x20 DUP1 DUP3 MSTORE PUSH1 0xD SWAP1 DUP3 ADD MSTORE PUSH13 0x1F2628173130B630B731B2A7B3 PUSH1 0x99 SHL PUSH1 0x40 DUP3 ADD MSTORE PUSH1 0x60 ADD SWAP1 JUMP JUMPDEST PUSH1 0x20 DUP1 DUP3 MSTORE PUSH1 0x1A SWAP1 DUP3 ADD MSTORE PUSH32 0x616D6F756E74735B695D203C206D696E416D6F756E74735B695D000000000000 PUSH1 0x40 DUP3 ADD MSTORE PUSH1 0x60 ADD SWAP1 JUMP JUMPDEST SWAP1 DUP2 MSTORE PUSH1 0x20 ADD SWAP1 JUMP JUMPDEST SWAP4 DUP5 MSTORE PUSH1 0x20 DUP5 ADD SWAP3 SWAP1 SWAP3 MSTORE PUSH1 0xFF AND PUSH1 0x40 DUP4 ADD MSTORE PUSH1 0x60 DUP3 ADD MSTORE PUSH1 0x80 ADD SWAP1 JUMP JUMPDEST SWAP4 DUP5 MSTORE PUSH1 0x20 DUP5 ADD SWAP3 SWAP1 SWAP3 MSTORE PUSH1 0xFF SWAP1 DUP2 AND PUSH1 0x40 DUP5 ADD MSTORE AND PUSH1 0x60 DUP3 ADD MSTORE PUSH1 0x80 ADD SWAP1 JUMP JUMPDEST PUSH1 0xFF SWAP2 SWAP1 SWAP2 AND DUP2 MSTORE PUSH1 0x20 ADD SWAP1 JUMP JUMPDEST PUSH1 0x0 DUP3 NOT DUP3 GT ISZERO PUSH2 0x4532 JUMPI PUSH2 0x4532 PUSH2 0x46DF JUMP JUMPDEST POP ADD SWAP1 JUMP JUMPDEST PUSH1 0x0 DUP3 PUSH2 0x4552 JUMPI PUSH4 0x4E487B71 PUSH1 0xE0 SHL DUP2 MSTORE PUSH1 0x12 PUSH1 0x4 MSTORE PUSH1 0x24 DUP2 REVERT JUMPDEST POP DIV SWAP1 JUMP JUMPDEST DUP1 DUP3 JUMPDEST PUSH1 0x1 DUP1 DUP7 GT PUSH2 0x4569 JUMPI POP PUSH2 0x309C JUMP JUMPDEST DUP2 DUP8 DIV DUP3 GT ISZERO PUSH2 0x457B JUMPI PUSH2 0x457B PUSH2 0x46DF JUMP JUMPDEST DUP1 DUP7 AND ISZERO PUSH2 0x4588 JUMPI SWAP2 DUP2 MUL SWAP2 JUMPDEST SWAP5 SWAP1 SWAP5 SHR SWAP4 DUP1 MUL PUSH2 0x455A JUMP JUMPDEST PUSH1 0x0 PUSH2 0x1832 PUSH1 0x0 NOT DUP5 DUP5 PUSH1 0x0 DUP3 PUSH2 0x45AD JUMPI POP PUSH1 0x1 PUSH2 0xE00 JUMP JUMPDEST DUP2 PUSH2 0x45BA JUMPI POP PUSH1 0x0 PUSH2 0xE00 JUMP JUMPDEST DUP2 PUSH1 0x1 DUP2 EQ PUSH2 0x45D0 JUMPI PUSH1 0x2 DUP2 EQ PUSH2 0x45DA JUMPI PUSH2 0x4607 JUMP JUMPDEST PUSH1 0x1 SWAP2 POP POP PUSH2 0xE00 JUMP JUMPDEST PUSH1 0xFF DUP5 GT ISZERO PUSH2 0x45EB JUMPI PUSH2 0x45EB PUSH2 0x46DF JUMP JUMPDEST PUSH1 0x1 DUP5 SHL SWAP2 POP DUP5 DUP3 GT ISZERO PUSH2 0x4601 JUMPI PUSH2 0x4601 PUSH2 0x46DF JUMP JUMPDEST POP PUSH2 0xE00 JUMP JUMPDEST POP PUSH1 0x20 DUP4 LT PUSH2 0x133 DUP4 LT AND PUSH1 0x4E DUP5 LT PUSH1 0xB DUP5 LT AND OR ISZERO PUSH2 0x463A JUMPI POP DUP2 DUP2 EXP DUP4 DUP2 GT ISZERO PUSH2 0x4635 JUMPI PUSH2 0x4635 PUSH2 0x46DF JUMP JUMPDEST PUSH2 0xE00 JUMP JUMPDEST PUSH2 0x4647 DUP5 DUP5 DUP5 PUSH1 0x1 PUSH2 0x4557 JUMP JUMPDEST DUP1 DUP7 DIV DUP3 GT ISZERO PUSH2 0x4659 JUMPI PUSH2 0x4659 PUSH2 0x46DF JUMP JUMPDEST MUL SWAP5 SWAP4 POP POP POP POP JUMP JUMPDEST PUSH1 0x0 DUP2 PUSH1 0x0 NOT DIV DUP4 GT DUP3 ISZERO ISZERO AND ISZERO PUSH2 0x467C JUMPI PUSH2 0x467C PUSH2 0x46DF JUMP JUMPDEST POP MUL SWAP1 JUMP JUMPDEST PUSH1 0x0 DUP3 DUP3 LT ISZERO PUSH2 0x4693 JUMPI PUSH2 0x4693 PUSH2 0x46DF JUMP JUMPDEST POP SUB SWAP1 JUMP JUMPDEST PUSH1 0x0 JUMPDEST DUP4 DUP2 LT ISZERO PUSH2 0x46B3 JUMPI DUP2 DUP2 ADD MLOAD DUP4 DUP3 ADD MSTORE PUSH1 0x20 ADD PUSH2 0x469B JUMP JUMPDEST DUP4 DUP2 GT ISZERO PUSH2 0x45A JUMPI POP POP PUSH1 0x0 SWAP2 ADD MSTORE JUMP JUMPDEST PUSH1 0x0 PUSH1 0x0 NOT DUP3 EQ ISZERO PUSH2 0x46D8 JUMPI PUSH2 0x46D8 PUSH2 0x46DF JUMP JUMPDEST POP PUSH1 0x1 ADD SWAP1 JUMP JUMPDEST PUSH4 0x4E487B71 PUSH1 0xE0 SHL PUSH1 0x0 MSTORE PUSH1 0x11 PUSH1 0x4 MSTORE PUSH1 0x24 PUSH1 0x0 REVERT JUMPDEST PUSH4 0x4E487B71 PUSH1 0xE0 SHL PUSH1 0x0 MSTORE PUSH1 0x41 PUSH1 0x4 MSTORE PUSH1 0x24 PUSH1 0x0 REVERT JUMPDEST DUP1 ISZERO ISZERO DUP2 EQ PUSH2 0x4719 JUMPI PUSH1 0x0 DUP1 REVERT JUMPDEST POP JUMP INVALID NUMBER PUSH2 0x6E6E PUSH16 0x74207769746864726177206D6F726520 PUSH21 0x68616E20617661696C61626C65A264697066735822 SLT KECCAK256 CALLER 0xD6 0xBE CALLVALUE CODESIZE CODESIZE KECCAK256 0xD5 PUSH12 0x1B08240A515C99B0EE5EFC93 DUP14 0xB2 0xDB SHL JUMPI RETURN SGT PUSH32 0x44DB7E64736F6C63430008000033000000000000000000000000000000000000 "
		},
		"gasEstimates": {
			"creation": {
				"codeDepositCost": "3658600",
				"executionCost": "4153",
				"totalCost": "3662753"
			},
			"external": {
				"MAX_ADMIN_FEE()": "322",
				"MAX_SWAP_FEE()": "256",
				"POOL_PRECISION_DECIMALS()": "248",
				"addLiquidity(SwapUtils.Swap storage,uint256[],uint256)": "infinite",
				"calculateRemoveLiquidity(SwapUtils.Swap storage,uint256)": "infinite",
				"calculateSwap(SwapUtils.Swap storage,uint8,uint8,uint256)": "infinite",
				"calculateTokenAmount(SwapUtils.Swap storage,uint256[],bool)": "infinite",
				"calculateWithdrawOneToken(SwapUtils.Swap storage,uint256,uint8)": "infinite",
				"getAdminBalance(SwapUtils.Swap storage,uint256)": "infinite",
				"getVirtualPrice(SwapUtils.Swap storage)": "infinite",
				"removeLiquidity(SwapUtils.Swap storage,uint256,uint256[])": "infinite",
				"removeLiquidityImbalance(SwapUtils.Swap storage,uint256[],uint256)": "infinite",
				"removeLiquidityOneToken(SwapUtils.Swap storage,uint256,uint8,uint256)": "infinite",
				"setAdminFee(SwapUtils.Swap storage,uint256)": "21458",
				"setSwapFee(SwapUtils.Swap storage,uint256)": "21414",
				"swap(SwapUtils.Swap storage,uint8,uint8,uint256,uint256)": "infinite",
				"withdrawAdminFees(SwapUtils.Swap storage,address)": "infinite"
			},
			"internal": {
				"_calculateRemoveLiquidity(uint256[] memory,uint256,uint256)": "infinite",
				"_calculateSwap(struct SwapUtils.Swap storage pointer,uint8,uint8,uint256,uint256[] memory)": "infinite",
				"_calculateWithdrawOneToken(struct SwapUtils.Swap storage pointer,uint256,uint8,uint256)": "infinite",
				"_feePerToken(uint256,uint256)": "infinite",
				"_getAPrecise(struct SwapUtils.Swap storage pointer)": "infinite",
				"_xp(struct SwapUtils.Swap storage pointer)": "infinite",
				"_xp(uint256[] memory,uint256[] memory)": "infinite",
				"calculateWithdrawOneTokenDY(struct SwapUtils.Swap storage pointer,uint8,uint256,uint256)": "infinite",
				"getD(uint256[] memory,uint256)": "infinite",
				"getY(uint256,uint8,uint8,uint256,uint256[] memory)": "infinite",
				"getYD(uint256,uint8,uint256[] memory,uint256)": "infinite"
			}
		},
		"methodIdentifiers": {
			"MAX_ADMIN_FEE()": "f3de0362",
			"MAX_SWAP_FEE()": "ab3d8544",
			"POOL_PRECISION_DECIMALS()": "0296ab50",
			"addLiquidity(SwapUtils.Swap storage,uint256[],uint256)": "40370edf",
			"calculateRemoveLiquidity(SwapUtils.Swap storage,uint256)": "70703e4a",
			"calculateSwap(SwapUtils.Swap storage,uint8,uint8,uint256)": "4b23603c",
			"calculateTokenAmount(SwapUtils.Swap storage,uint256[],bool)": "834b4910",
			"calculateWithdrawOneToken(SwapUtils.Swap storage,uint256,uint8)": "e0692742",
			"getAdminBalance(SwapUtils.Swap storage,uint256)": "7d048160",
			"getVirtualPrice(SwapUtils.Swap storage)": "71906c2c",
			"removeLiquidity(SwapUtils.Swap storage,uint256,uint256[])": "73fd6b3e",
			"removeLiquidityImbalance(SwapUtils.Swap storage,uint256[],uint256)": "41b91c26",
			"removeLiquidityOneToken(SwapUtils.Swap storage,uint256,uint8,uint256)": "e7a4db81",
			"setAdminFee(SwapUtils.Swap storage,uint256)": "70467276",
			"setSwapFee(SwapUtils.Swap storage,uint256)": "467e186c",
			"swap(SwapUtils.Swap storage,uint8,uint8,uint256,uint256)": "a5397b22",
			"withdrawAdminFees(SwapUtils.Swap storage,address)": "24c5c751"
		}
	},
	"abi": [
		{
			"anonymous": false,
			"inputs": [
				{
					"indexed": true,
					"internalType": "address",
					"name": "provider",
					"type": "address"
				},
				{
					"indexed": false,
					"internalType": "uint256[]",
					"name": "tokenAmounts",
					"type": "uint256[]"
				},
				{
					"indexed": false,
					"internalType": "uint256[]",
					"name": "fees",
					"type": "uint256[]"
				},
				{
					"indexed": false,
					"internalType": "uint256",
					"name": "invariant",
					"type": "uint256"
				},
				{
					"indexed": false,
					"internalType": "uint256",
					"name": "lpTokenSupply",
					"type": "uint256"
				}
			],
			"name": "AddLiquidity",
			"type": "event"
		},
		{
			"anonymous": false,
			"inputs": [
				{
					"indexed": false,
					"internalType": "uint256",
					"name": "newAdminFee",
					"type": "uint256"
				}
			],
			"name": "NewAdminFee",
			"type": "event"
		},
		{
			"anonymous": false,
			"inputs": [
				{
					"indexed": false,
					"internalType": "uint256",
					"name": "newSwapFee",
					"type": "uint256"
				}
			],
			"name": "NewSwapFee",
			"type": "event"
		},
		{
			"anonymous": false,
			"inputs": [
				{
					"indexed": true,
					"internalType": "address",
					"name": "provider",
					"type": "address"
				},
				{
					"indexed": false,
					"internalType": "uint256[]",
					"name": "tokenAmounts",
					"type": "uint256[]"
				},
				{
					"indexed": false,
					"internalType": "uint256",
					"name": "lpTokenSupply",
					"type": "uint256"
				}
			],
			"name": "RemoveLiquidity",
			"type": "event"
		},
		{
			"anonymous": false,
			"inputs": [
				{
					"indexed": true,
					"internalType": "address",
					"name": "provider",
					"type": "address"
				},
				{
					"indexed": false,
					"internalType": "uint256[]",
					"name": "tokenAmounts",
					"type": "uint256[]"
				},
				{
					"indexed": false,
					"internalType": "uint256[]",
					"name": "fees",
					"type": "uint256[]"
				},
				{
					"indexed": false,
					"internalType": "uint256",
					"name": "invariant",
					"type": "uint256"
				},
				{
					"indexed": false,
					"internalType": "uint256",
					"name": "lpTokenSupply",
					"type": "uint256"
				}
			],
			"name": "RemoveLiquidityImbalance",
			"type": "event"
		},
		{
			"anonymous": false,
			"inputs": [
				{
					"indexed": true,
					"internalType": "address",
					"name": "provider",
					"type": "address"
				},
				{
					"indexed": false,
					"internalType": "uint256",
					"name": "lpTokenAmount",
					"type": "uint256"
				},
				{
					"indexed": false,
					"internalType": "uint256",
					"name": "lpTokenSupply",
					"type": "uint256"
				},
				{
					"indexed": false,
					"internalType": "uint256",
					"name": "boughtId",
					"type": "uint256"
				},
				{
					"indexed": false,
					"internalType": "uint256",
					"name": "tokensBought",
					"type": "uint256"
				}
			],
			"name": "RemoveLiquidityOne",
			"type": "event"
		},
		{
			"anonymous": false,
			"inputs": [
				{
					"indexed": true,
					"internalType": "address",
					"name": "buyer",
					"type": "address"
				},
				{
					"indexed": false,
					"internalType": "uint256",
					"name": "tokensSold",
					"type": "uint256"
				},
				{
					"indexed": false,
					"internalType": "uint256",
					"name": "tokensBought",
					"type": "uint256"
				},
				{
					"indexed": false,
					"internalType": "uint128",
					"name": "soldId",
					"type": "uint128"
				},
				{
					"indexed": false,
					"internalType": "uint128",
					"name": "boughtId",
					"type": "uint128"
				}
			],
			"name": "TokenSwap",
			"type": "event"
		},
		{
			"inputs": [],
			"name": "MAX_ADMIN_FEE",
			"outputs": [
				{
					"internalType": "uint256",
					"name": "",
					"type": "uint256"
				}
			],
			"stateMutability": "view",
			"type": "function"
		},
		{
			"inputs": [],
			"name": "MAX_SWAP_FEE",
			"outputs": [
				{
					"internalType": "uint256",
					"name": "",
					"type": "uint256"
				}
			],
			"stateMutability": "view",
			"type": "function"
		},
		{
			"inputs": [],
			"name": "POOL_PRECISION_DECIMALS",
			"outputs": [
				{
					"internalType": "uint8",
					"name": "",
					"type": "uint8"
				}
			],
			"stateMutability": "view",
			"type": "function"
		}
	]
}