{
	"data": {
		"bytecode": {
			"linkReferences": {
				"src/AmplificationUtils.sol": {
					"AmplificationUtils": [
						{
							"length": 20,
							"start": 1357
						},
						{
							"length": 20,
							"start": 2926
						},
						{
							"length": 20,
							"start": 6072
						},
						{
							"length": 20,
							"start": 6220
						}
					]
				},
				"src/SwapUtils.sol": {
					"SwapUtils": [
						{
							"length": 20,
							"start": 1226
						},
						{
							"length": 20,
							"start": 1598
						},
						{
							"length": 20,
							"start": 1877
						},
						{
							"length": 20,
							"start": 2041
						},
						{
							"length": 20,
							"start": 2253
						},
						{
							"length": 20,
							"start": 2474
						},
						{
							"length": 20,
							"start": 2801
						},
						{
							"length": 20,
							"start": 3606
						},
						{
							"length": 20,
							"start": 3731
						},
						{
							"length": 20,
							"start": 3916
						},
						{
							"length": 20,
							"start": 4264
						},
						{
							"length": 20,
							"start": 6279
						},
						{
							"length": 20,
							"start": 6338
						},
						{
							"length": 20,
							"start": 6403
						},
						{
							"length": 20,
							"start": 6550
						}
					]
				}
			},
			"object": "608060405234801561001057600080fd5b50613042806100206000396000f3fe608060405234801561001057600080fd5b50600436106102115760003560e01c806384cdd9bc11610125578063c4db7fa0116100ad578063e6ab28061161007c578063e6ab28061461040c578063ef0a712f1461041f578063efeecb5114610432578063f2fad2b61461043a578063f2fde38b1461044d57610211565b8063c4db7fa0146103ec578063d41f6568146103f4578063d46300fd146103fc578063e25aa5fa1461040457610211565b806391ceb3eb116100f457806391ceb3eb14610396578063a1dc9031146103a9578063a95b089f146103b1578063aa6ca808146103c4578063b28cb6dc146103d957610211565b806384cdd9bc146103555780638beb60b6146103685780638da5cb5b1461037b578063916955861461038357610211565b80634d49e87d116101a857806366c0bd241161017757806366c0bd24146102fd578063715018a61461031d5780638214f5a41461032557806382b866001461033a5780638456cb591461034d57610211565b80634d49e87d146102a7578063593d132c146102ba5780635c975abb146102cd5780635fd65f0f146102e257610211565b8063342a87a1116101e4578063342a87a11461026657806334e19907146102795780633e3a15601461028c5780633f4ba83a1461029f57610211565b80630419b45a146102165780630ba819591461022057806318f52ce21461023e57806331cd52b014610253575b600080fd5b61021e610460565b005b61022861051b565b6040516102359190612c3e565b60405180910390f35b6102466105ab565b604051610235919061271e565b6102466102613660046124c6565b6106db565b610228610274366004612538565b6107c7565b61021e610287366004612496565b61085f565b61022861029a366004612563565b61090b565b61021e610a09565b6102286102b536600461239b565b610a52565b61021e6102c8366004612517565b610b00565b6102d5610baf565b6040516102359190612756565b6102ea610bb8565b6040516102359796959493929190612d83565b61031061030b366004612254565b610bd9565b6040516102359190612dbc565b61021e610c31565b61032d610cba565b60405161023591906126bd565b61032d61034836600461259d565b610cc9565b61021e610d30565b61022861036336600461239b565b610d77565b61021e610376366004612496565b610e25565b61032d610e9e565b6102286103913660046125f2565b610ead565b6102286103a436600461259d565b610fbd565b61024661101b565b6102286103bf3660046125b7565b611076565b6103cc611111565b60405161023591906126d1565b61021e6103e7366004612270565b611175565b61021e61174a565b6102466117c1565b61022861181a565b610228611855565b61022861041a366004612346565b611890565b61022861042d366004612496565b6118d1565b61022861195e565b610246610448366004612496565b611964565b61021e61045b366004612254565b6119f5565b610468611ab6565b6001600160a01b0316610479610e9e565b6001600160a01b0316146104a85760405162461bcd60e51b815260040161049f90612aba565b60405180910390fd5b73__$892bb870cba8df26b5d6cd3a584e1d10df$__6324c5c75160c96104cc610e9e565b6040518363ffffffff1660e01b81526004016104e9929190612c47565b60006040518083038186803b15801561050157600080fd5b505af4158015610515573d6000803e3d6000fd5b50505050565b60405163c9b64dcb60e01b815260009073__$80ddb8a79fc565350c83212369544ca930$__9063c9b64dcb906105569060c990600401612c3e565b60206040518083038186803b15801561056e57600080fd5b505af4158015610582573d6000803e3d6000fd5b505050506040513d601f19601f820116820180604052508101906105a691906124ae565b905090565b60d0546060908067ffffffffffffffff8111156105d857634e487b7160e01b600052604160045260246000fd5b604051908082528060200260200182016040528015610601578160200160208202803683370190505b50915060005b818110156106d6576040516303e8240b60e51b815273__$892bb870cba8df26b5d6cd3a584e1d10df$__90637d048160906106499060c9908590600401612cb6565b60206040518083038186803b15801561066157600080fd5b505af4158015610675573d6000803e3d6000fd5b505050506040513d601f19601f8201168201806040525081019061069991906124ae565b8382815181106106b957634e487b7160e01b600052603260045260246000fd5b6020908102919091010152806106ce81612f82565b915050610607565b505090565b6060600260975414156107005760405162461bcd60e51b815260040161049f90612bd0565b600260975581428110156107265760405162461bcd60e51b815260040161049f90612aef565b6040516339feb59f60e11b815273__$892bb870cba8df26b5d6cd3a584e1d10df$__906373fd6b3e906107649060c9908a908a908a90600401612cc4565b60006040518083038186803b15801561077c57600080fd5b505af4158015610790573d6000803e3d6000fd5b505050506040513d6000823e601f3d908101601f191682016040526107b891908101906123ea565b60016097559695505050505050565b60405163703493a160e11b815260009073__$892bb870cba8df26b5d6cd3a584e1d10df$__9063e0692742906108069060c99087908790600401612d04565b60206040518083038186803b15801561081e57600080fd5b505af4158015610832573d6000803e3d6000fd5b505050506040513d601f19601f8201168201806040525081019061085691906124ae565b90505b92915050565b610867611ab6565b6001600160a01b0316610878610e9e565b6001600160a01b03161461089e5760405162461bcd60e51b815260040161049f90612aba565b60405163119f861b60e21b815273__$892bb870cba8df26b5d6cd3a584e1d10df$__9063467e186c906108d89060c9908590600401612cb6565b60006040518083038186803b1580156108f057600080fd5b505af4158015610904573d6000803e3d6000fd5b5050505050565b6000600260975414156109305760405162461bcd60e51b815260040161049f90612bd0565b600260975561093d610baf565b1561095a5760405162461bcd60e51b815260040161049f90612937565b818042111561097b5760405162461bcd60e51b815260040161049f90612aef565b60405163e7a4db8160e01b815273__$892bb870cba8df26b5d6cd3a584e1d10df$__9063e7a4db81906109b99060c9908a908a908a90600401612d1d565b60206040518083038186803b1580156109d157600080fd5b505af41580156109e5573d6000803e3d6000fd5b505050506040513d601f19601f820116820180604052508101906107b891906124ae565b610a11611ab6565b6001600160a01b0316610a22610e9e565b6001600160a01b031614610a485760405162461bcd60e51b815260040161049f90612aba565b610a50611aba565b565b600060026097541415610a775760405162461bcd60e51b815260040161049f90612bd0565b6002609755610a84610baf565b15610aa15760405162461bcd60e51b815260040161049f90612937565b8180421115610ac25760405162461bcd60e51b815260040161049f90612aef565b6040516340370edf60e01b815273__$892bb870cba8df26b5d6cd3a584e1d10df$__906340370edf906109b99060c9908a908a908a90600401612c8b565b610b08611ab6565b6001600160a01b0316610b19610e9e565b6001600160a01b031614610b3f5760405162461bcd60e51b815260040161049f90612aba565b6040516358fdd79b60e01b815273__$80ddb8a79fc565350c83212369544ca930$__906358fdd79b90610b7b9060c99086908690600401612cee565b60006040518083038186803b158015610b9357600080fd5b505af4158015610ba7573d6000803e3d6000fd5b505050505050565b60655460ff1690565b60c95460ca5460cb5460cc5460cd5460ce5460cf546001600160a01b031687565b6001600160a01b038116600081815260d36020526040812054909160ff90911690610c0382610cc9565b6001600160a01b031614610c295760405162461bcd60e51b815260040161049f9061289b565b90505b919050565b610c39611ab6565b6001600160a01b0316610c4a610e9e565b6001600160a01b031614610c705760405162461bcd60e51b815260040161049f90612aba565b6033546040516000916001600160a01b0316907f8be0079c531659141344cd1fd0a4f28419497f9722a3daafe3b4186f6b6457e0908390a3603380546001600160a01b0319169055565b60cf546001600160a01b031690565b60d05460009060ff831610610cf05760405162461bcd60e51b815260040161049f90612b7e565b60d0805460ff8416908110610d1557634e487b7160e01b600052603260045260246000fd5b6000918252602090912001546001600160a01b031692915050565b610d38611ab6565b6001600160a01b0316610d49610e9e565b6001600160a01b031614610d6f5760405162461bcd60e51b815260040161049f90612aba565b610a50611b28565b600060026097541415610d9c5760405162461bcd60e51b815260040161049f90612bd0565b6002609755610da9610baf565b15610dc65760405162461bcd60e51b815260040161049f90612937565b8180421115610de75760405162461bcd60e51b815260040161049f90612aef565b6040516320dc8e1360e11b815273__$892bb870cba8df26b5d6cd3a584e1d10df$__906341b91c26906109b99060c9908a908a908a90600401612c8b565b610e2d611ab6565b6001600160a01b0316610e3e610e9e565b6001600160a01b031614610e645760405162461bcd60e51b815260040161049f90612aba565b604051633823393b60e11b815273__$892bb870cba8df26b5d6cd3a584e1d10df$__906370467276906108d89060c9908590600401612cb6565b6033546001600160a01b031690565b600060026097541415610ed25760405162461bcd60e51b815260040161049f90612bd0565b6002609755610edf610baf565b15610efc5760405162461bcd60e51b815260040161049f90612937565b8180421115610f1d5760405162461bcd60e51b815260040161049f90612aef565b60405163529cbd9160e11b815273__$892bb870cba8df26b5d6cd3a584e1d10df$__9063a5397b2290610f5d9060c9908b908b908b908b90600401612d5a565b60206040518083038186803b158015610f7557600080fd5b505af4158015610f89573d6000803e3d6000fd5b505050506040513d601f19601f82011682018060405250810190610fad91906124ae565b6001609755979650505050505050565b60d05460009060ff831610610fe45760405162461bcd60e51b815260040161049f90612ba4565b60d2805460ff841690811061100957634e487b7160e01b600052603260045260246000fd5b90600052602060002001549050919050565b606060c960090180548060200260200160405190810160405280929190818152602001828054801561106c57602002820191906000526020600020905b815481526020019060010190808311611058575b5050505050905090565b6040516312c8d80f60e21b815260009073__$892bb870cba8df26b5d6cd3a584e1d10df$__90634b23603c906110b79060c990889088908890600401612d3b565b60206040518083038186803b1580156110cf57600080fd5b505af41580156110e3573d6000803e3d6000fd5b505050506040513d601f19601f8201168201806040525081019061110791906124ae565b90505b9392505050565b606060c960070180548060200260200160405190810160405280929190818152602001828054801561106c57602002820191906000526020600020905b81546001600160a01b0316815260019091019060200180831161114e575050505050905090565b600054610100900460ff168061118e575061118e611b83565b8061119c575060005460ff16155b6111b85760405162461bcd60e51b815260040161049f906129bd565b600054610100900460ff161580156111e3576000805460ff1961ff0019909116610100171660011790555b6111eb611b94565b6111f3611c2f565b60018951116112145760405162461bcd60e51b815260040161049f90612a83565b6020895111156112365760405162461bcd60e51b815260040161049f906128c9565b87518951146112575760405162461bcd60e51b815260040161049f90612a4c565b6000885167ffffffffffffffff81111561128157634e487b7160e01b600052604160045260246000fd5b6040519080825280602002602001820160405280156112aa578160200160208202803683370190505b50905060005b8a518160ff1610156115475760ff8116156113a05760d360008c8360ff16815181106112ec57634e487b7160e01b600052603260045260246000fd5b6020908102919091018101516001600160a01b031682528101919091526040016000205460ff1615801561138457508a8160ff168151811061133e57634e487b7160e01b600052603260045260246000fd5b60200260200101516001600160a01b03168b60008151811061137057634e487b7160e01b600052603260045260246000fd5b60200260200101516001600160a01b031614155b6113a05760405162461bcd60e51b815260040161049f9061283a565b60006001600160a01b03168b8260ff16815181106113ce57634e487b7160e01b600052603260045260246000fd5b60200260200101516001600160a01b031614156113fd5760405162461bcd60e51b815260040161049f90612b19565b601260ff168a8260ff168151811061142557634e487b7160e01b600052603260045260246000fd5b602002602001015160ff16111561144e5760405162461bcd60e51b815260040161049f90612803565b6114928a8260ff168151811061147457634e487b7160e01b600052603260045260246000fd5b602002602001015160ff16601260ff16611ca590919063ffffffff16565b61149d90600a612e7e565b828260ff16815181106114c057634e487b7160e01b600052603260045260246000fd5b6020026020010181815250508060d360008d8460ff16815181106114f457634e487b7160e01b600052603260045260246000fd5b60200260200101516001600160a01b03166001600160a01b0316815260200190815260200160002060006101000a81548160ff021916908360ff160217905550808061153f90612f9d565b9150506112b0565b50620f4240861061156a5760405162461bcd60e51b815260040161049f90612991565b6305f5e100851061158d5760405162461bcd60e51b815260040161049f90612b50565b6402540be40084106115b15760405162461bcd60e51b815260040161049f90612900565b60006115bc84611cd1565b60405163266c45bb60e11b81529091506001600160a01b03821690634cd88b76906115ed908c908c90600401612761565b602060405180830381600087803b15801561160757600080fd5b505af115801561161b573d6000803e3d6000fd5b505050506040513d601f19601f8201168201806040525081019061163f919061247a565b61165b5760405162461bcd60e51b815260040161049f90612c07565b60cf80546001600160a01b0319166001600160a01b0383161790558a516116899060d09060208e0190611ff9565b50815161169d9060d190602085019061205e565b508a5167ffffffffffffffff8111156116c657634e487b7160e01b600052604160045260246000fd5b6040519080825280602002602001820160405280156116ef578160200160208202803683370190505b5080516117049160d29160209091019061205e565b50611710876064611d40565b60c95561171e876064611d40565b60ca55505060cd84905560ce839055801561173f576000805461ff00191690555b505050505050505050565b611752611ab6565b6001600160a01b0316611763610e9e565b6001600160a01b0316146117895760405162461bcd60e51b815260040161049f90612aba565b6040516378a7108f60e11b815273__$80ddb8a79fc565350c83212369544ca930$__9063f14e211e906104e99060c990600401612c3e565b606060c960080180548060200260200160405190810160405280929190818152602001828054801561106c5760200282019190600052602060002090815481526020019060010190808311611058575050505050905090565b604051632c28533f60e21b815260009073__$80ddb8a79fc565350c83212369544ca930$__9063b0a14cfc906105569060c990600401612c3e565b604051631c641b0b60e21b815260009073__$892bb870cba8df26b5d6cd3a584e1d10df$__906371906c2c906105569060c990600401612c3e565b604051630834b49160e41b815260009073__$892bb870cba8df26b5d6cd3a584e1d10df$__9063834b4910906110b79060c990889088908890600401612c5e565b6040516303e8240b60e51b815260009073__$892bb870cba8df26b5d6cd3a584e1d10df$__90637d0481609061190e9060c9908690600401612cb6565b60206040518083038186803b15801561192657600080fd5b505af415801561193a573d6000803e3d6000fd5b505050506040513d601f19601f82011682018060405250810190610c2991906124ae565b60d05490565b6040516338381f2560e11b815260609073__$892bb870cba8df26b5d6cd3a584e1d10df$__906370703e4a906119a19060c9908690600401612cb6565b60006040518083038186803b1580156119b957600080fd5b505af41580156119cd573d6000803e3d6000fd5b505050506040513d6000823e601f3d908101601f19168201604052610c2991908101906123ea565b6119fd611ab6565b6001600160a01b0316611a0e610e9e565b6001600160a01b031614611a345760405162461bcd60e51b815260040161049f90612aba565b6001600160a01b038116611a5a5760405162461bcd60e51b815260040161049f906127bd565b6033546040516001600160a01b038084169216907f8be0079c531659141344cd1fd0a4f28419497f9722a3daafe3b4186f6b6457e090600090a3603380546001600160a01b0319166001600160a01b0392909216919091179055565b3390565b611ac2610baf565b611ade5760405162461bcd60e51b815260040161049f9061278f565b6065805460ff191690557f5db9ee0a495bf2e6ff9c91a7834c1ba4fdd244a5e8aa4e537bd38aeae4b073aa611b11611ab6565b604051611b1e91906126bd565b60405180910390a1565b611b30610baf565b15611b4d5760405162461bcd60e51b815260040161049f90612937565b6065805460ff191660011790557f62e78cea01bee320cd4e420270b5ea74000d11b0c9f74754ebdbfc544b05a258611b11611ab6565b6000611b8e30611d85565b15905090565b600054610100900460ff1680611bad5750611bad611b83565b80611bbb575060005460ff16155b611bd75760405162461bcd60e51b815260040161049f906129bd565b600054610100900460ff16158015611c02576000805460ff1961ff0019909116610100171660011790555b611c0a611d8b565b611c12611e0c565b611c1a611ee6565b8015611c2c576000805461ff00191690555b50565b600054610100900460ff1680611c485750611c48611b83565b80611c56575060005460ff16155b611c725760405162461bcd60e51b815260040161049f906129bd565b600054610100900460ff16158015611c9d576000805460ff1961ff0019909116610100171660011790555b611c1a611f72565b600082821115611cc75760405162461bcd60e51b815260040161049f90612864565b6108568284612f6b565b6000604051733d602d80600a3d3981f3363d3d373d3d3d363d7360601b81528260601b60148201526e5af43d82803e903d91602b57fd5bf360881b60288201526037816000f09150506001600160a01b038116610c2c5760405162461bcd60e51b815260040161049f90612961565b600082611d4f57506000610859565b6000611d5b8385612f4c565b905082611d688583612e18565b146108565760405162461bcd60e51b815260040161049f90612a0b565b3b151590565b600054610100900460ff1680611da45750611da4611b83565b80611db2575060005460ff16155b611dce5760405162461bcd60e51b815260040161049f906129bd565b600054610100900460ff16158015611c1a576000805460ff1961ff0019909116610100171660011790558015611c2c576000805461ff001916905550565b600054610100900460ff1680611e255750611e25611b83565b80611e33575060005460ff16155b611e4f5760405162461bcd60e51b815260040161049f906129bd565b600054610100900460ff16158015611e7a576000805460ff1961ff0019909116610100171660011790555b6000611e84611ab6565b603380546001600160a01b0319166001600160a01b038316908117909155604051919250906000907f8be0079c531659141344cd1fd0a4f28419497f9722a3daafe3b4186f6b6457e0908290a3508015611c2c576000805461ff001916905550565b600054610100900460ff1680611eff5750611eff611b83565b80611f0d575060005460ff16155b611f295760405162461bcd60e51b815260040161049f906129bd565b600054610100900460ff16158015611f54576000805460ff1961ff0019909116610100171660011790555b6065805460ff191690558015611c2c576000805461ff001916905550565b600054610100900460ff1680611f8b5750611f8b611b83565b80611f99575060005460ff16155b611fb55760405162461bcd60e51b815260040161049f906129bd565b600054610100900460ff16158015611fe0576000805460ff1961ff0019909116610100171660011790555b60016097558015611c2c576000805461ff001916905550565b82805482825590600052602060002090810192821561204e579160200282015b8281111561204e57825182546001600160a01b0319166001600160a01b03909116178255602090920191600190910190612019565b5061205a929150612099565b5090565b82805482825590600052602060002090810192821561204e579160200282015b8281111561204e57825182559160200191906001019061207e565b5b8082111561205a576000815560010161209a565b8035610c2c81612fe9565b600082601f8301126120c9578081fd5b813560206120de6120d983612df4565b612dca565b82815281810190858301838502870184018810156120fa578586fd5b855b8581101561212157813561210f81612fe9565b845292840192908401906001016120fc565b5090979650505050505050565b60008083601f84011261213f578182fd5b50813567ffffffffffffffff811115612156578182fd5b602083019150836020808302850101111561217057600080fd5b9250929050565b600082601f830112612187578081fd5b813560206121976120d983612df4565b82815281810190858301838502870184018810156121b3578586fd5b855b85811015612121576121c682612243565b845292840192908401906001016121b5565b600082601f8301126121e8578081fd5b813567ffffffffffffffff81111561220257612202612fd3565b612215601f8201601f1916602001612dca565b818152846020838601011115612229578283fd5b816020850160208301379081016020019190915292915050565b803560ff81168114610c2c57600080fd5b600060208284031215612265578081fd5b813561085681612fe9565b600080600080600080600080610100898b03121561228c578384fd5b883567ffffffffffffffff808211156122a3578586fd5b6122af8c838d016120b9565b995060208b01359150808211156122c4578586fd5b6122d08c838d01612177565b985060408b01359150808211156122e5578586fd5b6122f18c838d016121d8565b975060608b0135915080821115612306578586fd5b506123138b828c016121d8565b9550506080890135935060a0890135925060c0890135915061233760e08a016120ae565b90509295985092959890939650565b60008060006040848603121561235a578283fd5b833567ffffffffffffffff811115612370578384fd5b61237c8682870161212e565b909450925050602084013561239081612ffe565b809150509250925092565b600080600080606085870312156123b0578384fd5b843567ffffffffffffffff8111156123c6578485fd5b6123d28782880161212e565b90989097506020870135966040013595509350505050565b600060208083850312156123fc578182fd5b825167ffffffffffffffff811115612412578283fd5b8301601f81018513612422578283fd5b80516124306120d982612df4565b818152838101908385018584028501860189101561244c578687fd5b8694505b8385101561246e578051835260019490940193918501918501612450565b50979650505050505050565b60006020828403121561248b578081fd5b815161085681612ffe565b6000602082840312156124a7578081fd5b5035919050565b6000602082840312156124bf578081fd5b5051919050565b600080600080606085870312156124db578182fd5b84359350602085013567ffffffffffffffff8111156124f8578283fd5b6125048782880161212e565b9598909750949560400135949350505050565b60008060408385031215612529578182fd5b50508035926020909101359150565b6000806040838503121561254a578182fd5b8235915061255a60208401612243565b90509250929050565b60008060008060808587031215612578578182fd5b8435935061258860208601612243565b93969395505050506040820135916060013590565b6000602082840312156125ae578081fd5b61085682612243565b6000806000606084860312156125cb578081fd5b6125d484612243565b92506125e260208501612243565b9150604084013590509250925092565b600080600080600060a08688031215612609578283fd5b61261286612243565b945061262060208701612243565b94979496505050506040830135926060810135926080909101359150565b81835260006001600160fb1b03831115612656578081fd5b6020830280836020870137939093016020019283525090919050565b60008151808452815b818110156126975760208185018101518683018201520161267b565b818111156126a85782602083870101525b50601f01601f19169290920160200192915050565b6001600160a01b0391909116815260200190565b6020808252825182820181905260009190848201906040850190845b818110156127125783516001600160a01b0316835292840192918401916001016126ed565b50909695505050505050565b6020808252825182820181905260009190848201906040850190845b818110156127125783518352928401929184019160010161273a565b901515815260200190565b6000604082526127746040830185612672565b82810360208401526127868185612672565b95945050505050565b60208082526014908201527314185d5cd8589b194e881b9bdd081c185d5cd95960621b604082015260600190565b60208082526026908201527f4f776e61626c653a206e6577206f776e657220697320746865207a65726f206160408201526564647265737360d01b606082015260800190565b6020808252601a908201527f546f6b656e20646563696d616c732065786365656473206d6178000000000000604082015260600190565b60208082526010908201526f4475706c696361746520746f6b656e7360801b604082015260600190565b6020808252601e908201527f536166654d6174683a207375627472616374696f6e206f766572666c6f770000604082015260600190565b602080825260149082015273151bdad95b88191bd95cc81b9bdd08195e1a5cdd60621b604082015260600190565b60208082526019908201527f5f706f6f6c6564546f6b656e732e6c656e677468203e20333200000000000000604082015260600190565b60208082526019908201527f5f61646d696e4665652065786365656473206d6178696d756d00000000000000604082015260600190565b60208082526010908201526f14185d5cd8589b194e881c185d5cd95960821b604082015260600190565b602080825260169082015275115490cc4c4d8dce8818dc99585d194819985a5b195960521b604082015260600190565b6020808252601290820152715f612065786365656473206d6178696d756d60701b604082015260600190565b6020808252602e908201527f496e697469616c697a61626c653a20636f6e747261637420697320616c72656160408201526d191e481a5b9a5d1a585b1a5e995960921b606082015260800190565b60208082526021908201527f536166654d6174683a206d756c7469706c69636174696f6e206f766572666c6f6040820152607760f81b606082015260800190565b6020808252601f908201527f5f706f6f6c6564546f6b656e7320646563696d616c73206d69736d6174636800604082015260600190565b60208082526019908201527f5f706f6f6c6564546f6b656e732e6c656e677468203c3d203100000000000000604082015260600190565b6020808252818101527f4f776e61626c653a2063616c6c6572206973206e6f7420746865206f776e6572604082015260600190565b60208082526010908201526f111958591b1a5b99481b9bdd081b595d60821b604082015260600190565b6020808252601d908201527f546865203020616464726573732069736e277420616e204552432d3230000000604082015260600190565b6020808252601490820152735f6665652065786365656473206d6178696d756d60601b604082015260600190565b6020808252600c908201526b4f7574206f662072616e676560a01b604082015260600190565b602080825260129082015271496e646578206f7574206f662072616e676560701b604082015260600190565b6020808252601f908201527f5265656e7472616e637947756172643a207265656e7472616e742063616c6c00604082015260600190565b6020808252601c908201527f636f756c64206e6f7420696e6974206c70546f6b656e20636c6f6e6500000000604082015260600190565b90815260200190565b9182526001600160a01b0316602082015260400190565b600085825260606020830152612c7860608301858761263e565b9050821515604083015295945050505050565b600085825260606020830152612ca560608301858761263e565b905082604083015295945050505050565b918252602082015260400190565b600085825284602083015260606040830152612ce460608301848661263e565b9695505050505050565b9283526020830191909152604082015260600190565b928352602083019190915260ff16604082015260600190565b938452602084019290925260ff166040830152606082015260800190565b93845260ff928316602085015291166040830152606082015260800190565b94855260ff93841660208601529190921660408401526060830191909152608082015260a00190565b968752602087019590955260408601939093526060850191909152608084015260a08301526001600160a01b031660c082015260e00190565b60ff91909116815260200190565b60405181810167ffffffffffffffff81118282101715612dec57612dec612fd3565b604052919050565b600067ffffffffffffffff821115612e0e57612e0e612fd3565b5060209081020190565b600082612e3357634e487b7160e01b81526012600452602481fd5b500490565b80825b6001808611612e4a5750612e75565b818704821115612e5c57612e5c612fbd565b80861615612e6957918102915b9490941c938002612e3b565b94509492505050565b60006108566000198484600082612e975750600161110a565b81612ea45750600061110a565b8160018114612eba5760028114612ec457612ef1565b600191505061110a565b60ff841115612ed557612ed5612fbd565b6001841b915084821115612eeb57612eeb612fbd565b5061110a565b5060208310610133831016604e8410600b8410161715612f24575081810a83811115612f1f57612f1f612fbd565b61110a565b612f318484846001612e38565b808604821115612f4357612f43612fbd565b02949350505050565b6000816000190483118215151615612f6657612f66612fbd565b500290565b600082821015612f7d57612f7d612fbd565b500390565b6000600019821415612f9657612f96612fbd565b5060010190565b600060ff821660ff811415612fb457612fb4612fbd565b60010192915050565b634e487b7160e01b600052601160045260246000fd5b634e487b7160e01b600052604160045260246000fd5b6001600160a01b0381168114611c2c57600080fd5b8015158114611c2c57600080fdfea26469706673582212204dbe39566a0938888b30077aa3312a215887298e9b239894095ec9cdeac453a064736f6c63430008000033",
			"opcodes": "PUSH1 0x80 PUSH1 0x40 MSTORE CALLVALUE DUP1 ISZERO PUSH2 0x10 JUMPI PUSH1 0x0 DUP1 REVERT JUMPDEST POP PUSH2 0x3042 DUP1 PUSH2 0x20 PUSH1 0x0 CODECOPY PUSH1 0x0 RETURN INVALID PUSH1 0x80 PUSH1 0x40 MSTORE CALLVALUE DUP1 ISZERO PUSH2 0x10 JUMPI PUSH1 0x0 DUP1 REVERT JUMPDEST POP PUSH1 0x4 CALLDATASIZE LT PUSH2 0x211 JUMPI PUSH1 0x0 CALLDATALOAD PUSH1 0xE0 SHR DUP1 PUSH4 0x84CDD9BC GT PUSH2 0x125 JUMPI DUP1 PUSH4 0xC4DB7FA0 GT PUSH2 0xAD JUMPI DUP1 PUSH4 0xE6AB2806 GT PUSH2 0x7C JUMPI DUP1 PUSH4 0xE6AB2806 EQ PUSH2 0x40C JUMPI DUP1 PUSH4 0xEF0A712F EQ PUSH2 0x41F JUMPI DUP1 PUSH4 0xEFEECB51 EQ PUSH2 0x432 JUMPI DUP1 PUSH4 0xF2FAD2B6 EQ PUSH2 0x43A JUMPI DUP1 PUSH4 0xF2FDE38B EQ PUSH2 0x44D JUMPI PUSH2 0x211 JUMP JUMPDEST DUP1 PUSH4 0xC4DB7FA0 EQ PUSH2 0x3EC JUMPI DUP1 PUSH4 0xD41F6568 EQ PUSH2 0x3F4 JUMPI DUP1 PUSH4 0xD46300FD EQ PUSH2 0x3FC JUMPI DUP1 PUSH4 0xE25AA5FA EQ PUSH2 0x404 JUMPI PUSH2 0x211 JUMP JUMPDEST DUP1 PUSH4 0x91CEB3EB GT PUSH2 0xF4 JUMPI DUP1 PUSH4 0x91CEB3EB EQ PUSH2 0x396 JUMPI DUP1 PUSH4 0xA1DC9031 EQ PUSH2 0x3A9 JUMPI DUP1 PUSH4 0xA95B089F EQ PUSH2 0x3B1 JUMPI DUP1 PUSH4 0xAA6CA808 EQ PUSH2 0x3C4 JUMPI DUP1 PUSH4 0xB28CB6DC EQ PUSH2 0x3D9 JUMPI PUSH2 0x211 JUMP JUMPDEST DUP1 PUSH4 0x84CDD9BC EQ PUSH2 0x355 JUMPI DUP1 PUSH4 0x8BEB60B6 EQ PUSH2 0x368 JUMPI DUP1 PUSH4 0x8DA5CB5B EQ PUSH2 0x37B JUMPI DUP1 PUSH4 0x91695586 EQ PUSH2 0x383 JUMPI PUSH2 0x211 JUMP JUMPDEST DUP1 PUSH4 0x4D49E87D GT PUSH2 0x1A8 JUMPI DUP1 PUSH4 0x66C0BD24 GT PUSH2 0x177 JUMPI DUP1 PUSH4 0x66C0BD24 EQ PUSH2 0x2FD JUMPI DUP1 PUSH4 0x715018A6 EQ PUSH2 0x31D JUMPI DUP1 PUSH4 0x8214F5A4 EQ PUSH2 0x325 JUMPI DUP1 PUSH4 0x82B86600 EQ PUSH2 0x33A JUMPI DUP1 PUSH4 0x8456CB59 EQ PUSH2 0x34D JUMPI PUSH2 0x211 JUMP JUMPDEST DUP1 PUSH4 0x4D49E87D EQ PUSH2 0x2A7 JUMPI DUP1 PUSH4 0x593D132C EQ PUSH2 0x2BA JUMPI DUP1 PUSH4 0x5C975ABB EQ PUSH2 0x2CD JUMPI DUP1 PUSH4 0x5FD65F0F EQ PUSH2 0x2E2 JUMPI PUSH2 0x211 JUMP JUMPDEST DUP1 PUSH4 0x342A87A1 GT PUSH2 0x1E4 JUMPI DUP1 PUSH4 0x342A87A1 EQ PUSH2 0x266 JUMPI DUP1 PUSH4 0x34E19907 EQ PUSH2 0x279 JUMPI DUP1 PUSH4 0x3E3A1560 EQ PUSH2 0x28C JUMPI DUP1 PUSH4 0x3F4BA83A EQ PUSH2 0x29F JUMPI PUSH2 0x211 JUMP JUMPDEST DUP1 PUSH4 0x419B45A EQ PUSH2 0x216 JUMPI DUP1 PUSH4 0xBA81959 EQ PUSH2 0x220 JUMPI DUP1 PUSH4 0x18F52CE2 EQ PUSH2 0x23E JUMPI DUP1 PUSH4 0x31CD52B0 EQ PUSH2 0x253 JUMPI JUMPDEST PUSH1 0x0 DUP1 REVERT JUMPDEST PUSH2 0x21E PUSH2 0x460 JUMP JUMPDEST STOP JUMPDEST PUSH2 0x228 PUSH2 0x51B JUMP JUMPDEST PUSH1 0x40 MLOAD PUSH2 0x235 SWAP2 SWAP1 PUSH2 0x2C3E JUMP JUMPDEST PUSH1 0x40 MLOAD DUP1 SWAP2 SUB SWAP1 RETURN JUMPDEST PUSH2 0x246 PUSH2 0x5AB JUMP JUMPDEST PUSH1 0x40 MLOAD PUSH2 0x235 SWAP2 SWAP1 PUSH2 0x271E JUMP JUMPDEST PUSH2 0x246 PUSH2 0x261 CALLDATASIZE PUSH1 0x4 PUSH2 0x24C6 JUMP JUMPDEST PUSH2 0x6DB JUMP JUMPDEST PUSH2 0x228 PUSH2 0x274 CALLDATASIZE PUSH1 0x4 PUSH2 0x2538 JUMP JUMPDEST PUSH2 0x7C7 JUMP JUMPDEST PUSH2 0x21E PUSH2 0x287 CALLDATASIZE PUSH1 0x4 PUSH2 0x2496 JUMP JUMPDEST PUSH2 0x85F JUMP JUMPDEST PUSH2 0x228 PUSH2 0x29A CALLDATASIZE PUSH1 0x4 PUSH2 0x2563 JUMP JUMPDEST PUSH2 0x90B JUMP JUMPDEST PUSH2 0x21E PUSH2 0xA09 JUMP JUMPDEST PUSH2 0x228 PUSH2 0x2B5 CALLDATASIZE PUSH1 0x4 PUSH2 0x239B JUMP JUMPDEST PUSH2 0xA52 JUMP JUMPDEST PUSH2 0x21E PUSH2 0x2C8 CALLDATASIZE PUSH1 0x4 PUSH2 0x2517 JUMP JUMPDEST PUSH2 0xB00 JUMP JUMPDEST PUSH2 0x2D5 PUSH2 0xBAF JUMP JUMPDEST PUSH1 0x40 MLOAD PUSH2 0x235 SWAP2 SWAP1 PUSH2 0x2756 JUMP JUMPDEST PUSH2 0x2EA PUSH2 0xBB8 JUMP JUMPDEST PUSH1 0x40 MLOAD PUSH2 0x235 SWAP8 SWAP7 SWAP6 SWAP5 SWAP4 SWAP3 SWAP2 SWAP1 PUSH2 0x2D83 JUMP JUMPDEST PUSH2 0x310 PUSH2 0x30B CALLDATASIZE PUSH1 0x4 PUSH2 0x2254 JUMP JUMPDEST PUSH2 0xBD9 JUMP JUMPDEST PUSH1 0x40 MLOAD PUSH2 0x235 SWAP2 SWAP1 PUSH2 0x2DBC JUMP JUMPDEST PUSH2 0x21E PUSH2 0xC31 JUMP JUMPDEST PUSH2 0x32D PUSH2 0xCBA JUMP JUMPDEST PUSH1 0x40 MLOAD PUSH2 0x235 SWAP2 SWAP1 PUSH2 0x26BD JUMP JUMPDEST PUSH2 0x32D PUSH2 0x348 CALLDATASIZE PUSH1 0x4 PUSH2 0x259D JUMP JUMPDEST PUSH2 0xCC9 JUMP JUMPDEST PUSH2 0x21E PUSH2 0xD30 JUMP JUMPDEST PUSH2 0x228 PUSH2 0x363 CALLDATASIZE PUSH1 0x4 PUSH2 0x239B JUMP JUMPDEST PUSH2 0xD77 JUMP JUMPDEST PUSH2 0x21E PUSH2 0x376 CALLDATASIZE PUSH1 0x4 PUSH2 0x2496 JUMP JUMPDEST PUSH2 0xE25 JUMP JUMPDEST PUSH2 0x32D PUSH2 0xE9E JUMP JUMPDEST PUSH2 0x228 PUSH2 0x391 CALLDATASIZE PUSH1 0x4 PUSH2 0x25F2 JUMP JUMPDEST PUSH2 0xEAD JUMP JUMPDEST PUSH2 0x228 PUSH2 0x3A4 CALLDATASIZE PUSH1 0x4 PUSH2 0x259D JUMP JUMPDEST PUSH2 0xFBD JUMP JUMPDEST PUSH2 0x246 PUSH2 0x101B JUMP JUMPDEST PUSH2 0x228 PUSH2 0x3BF CALLDATASIZE PUSH1 0x4 PUSH2 0x25B7 JUMP JUMPDEST PUSH2 0x1076 JUMP JUMPDEST PUSH2 0x3CC PUSH2 0x1111 JUMP JUMPDEST PUSH1 0x40 MLOAD PUSH2 0x235 SWAP2 SWAP1 PUSH2 0x26D1 JUMP JUMPDEST PUSH2 0x21E PUSH2 0x3E7 CALLDATASIZE PUSH1 0x4 PUSH2 0x2270 JUMP JUMPDEST PUSH2 0x1175 JUMP JUMPDEST PUSH2 0x21E PUSH2 0x174A JUMP JUMPDEST PUSH2 0x246 PUSH2 0x17C1 JUMP JUMPDEST PUSH2 0x228 PUSH2 0x181A JUMP JUMPDEST PUSH2 0x228 PUSH2 0x1855 JUMP JUMPDEST PUSH2 0x228 PUSH2 0x41A CALLDATASIZE PUSH1 0x4 PUSH2 0x2346 JUMP JUMPDEST PUSH2 0x1890 JUMP JUMPDEST PUSH2 0x228 PUSH2 0x42D CALLDATASIZE PUSH1 0x4 PUSH2 0x2496 JUMP JUMPDEST PUSH2 0x18D1 JUMP JUMPDEST PUSH2 0x228 PUSH2 0x195E JUMP JUMPDEST PUSH2 0x246 PUSH2 0x448 CALLDATASIZE PUSH1 0x4 PUSH2 0x2496 JUMP JUMPDEST PUSH2 0x1964 JUMP JUMPDEST PUSH2 0x21E PUSH2 0x45B CALLDATASIZE PUSH1 0x4 PUSH2 0x2254 JUMP JUMPDEST PUSH2 0x19F5 JUMP JUMPDEST PUSH2 0x468 PUSH2 0x1AB6 JUMP JUMPDEST PUSH1 0x1 PUSH1 0x1 PUSH1 0xA0 SHL SUB AND PUSH2 0x479 PUSH2 0xE9E JUMP JUMPDEST PUSH1 0x1 PUSH1 0x1 PUSH1 0xA0 SHL SUB AND EQ PUSH2 0x4A8 JUMPI PUSH1 0x40 MLOAD PUSH3 0x461BCD PUSH1 0xE5 SHL DUP2 MSTORE PUSH1 0x4 ADD PUSH2 0x49F SWAP1 PUSH2 0x2ABA JUMP JUMPDEST PUSH1 0x40 MLOAD DUP1 SWAP2 SUB SWAP1 REVERT JUMPDEST PUSH20 0x0 PUSH4 0x24C5C751 PUSH1 0xC9 PUSH2 0x4CC PUSH2 0xE9E JUMP JUMPDEST PUSH1 0x40 MLOAD DUP4 PUSH4 0xFFFFFFFF AND PUSH1 0xE0 SHL DUP2 MSTORE PUSH1 0x4 ADD PUSH2 0x4E9 SWAP3 SWAP2 SWAP1 PUSH2 0x2C47 JUMP JUMPDEST PUSH1 0x0 PUSH1 0x40 MLOAD DUP1 DUP4 SUB DUP2 DUP7 DUP1 EXTCODESIZE ISZERO DUP1 ISZERO PUSH2 0x501 JUMPI PUSH1 0x0 DUP1 REVERT JUMPDEST POP GAS DELEGATECALL ISZERO DUP1 ISZERO PUSH2 0x515 JUMPI RETURNDATASIZE PUSH1 0x0 DUP1 RETURNDATACOPY RETURNDATASIZE PUSH1 0x0 REVERT JUMPDEST POP POP POP POP JUMP JUMPDEST PUSH1 0x40 MLOAD PUSH4 0xC9B64DCB PUSH1 0xE0 SHL DUP2 MSTORE PUSH1 0x0 SWAP1 PUSH20 0x0 SWAP1 PUSH4 0xC9B64DCB SWAP1 PUSH2 0x556 SWAP1 PUSH1 0xC9 SWAP1 PUSH1 0x4 ADD PUSH2 0x2C3E JUMP JUMPDEST PUSH1 0x20 PUSH1 0x40 MLOAD DUP1 DUP4 SUB DUP2 DUP7 DUP1 EXTCODESIZE ISZERO DUP1 ISZERO PUSH2 0x56E JUMPI PUSH1 0x0 DUP1 REVERT JUMPDEST POP GAS DELEGATECALL ISZERO DUP1 ISZERO PUSH2 0x582 JUMPI RETURNDATASIZE PUSH1 0x0 DUP1 RETURNDATACOPY RETURNDATASIZE PUSH1 0x0 REVERT JUMPDEST POP POP POP POP PUSH1 0x40 MLOAD RETURNDATASIZE PUSH1 0x1F NOT PUSH1 0x1F DUP3 ADD AND DUP3 ADD DUP1 PUSH1 0x40 MSTORE POP DUP2 ADD SWAP1 PUSH2 0x5A6 SWAP2 SWAP1 PUSH2 0x24AE JUMP JUMPDEST SWAP1 POP SWAP1 JUMP JUMPDEST PUSH1 0xD0 SLOAD PUSH1 0x60 SWAP1 DUP1 PUSH8 0xFFFFFFFFFFFFFFFF DUP2 GT ISZERO PUSH2 0x5D8 JUMPI PUSH4 0x4E487B71 PUSH1 0xE0 SHL PUSH1 0x0 MSTORE PUSH1 0x41 PUSH1 0x4 MSTORE PUSH1 0x24 PUSH1 0x0 REVERT JUMPDEST PUSH1 0x40 MLOAD SWAP1 DUP1 DUP3 MSTORE DUP1 PUSH1 0x20 MUL PUSH1 0x20 ADD DUP3 ADD PUSH1 0x40 MSTORE DUP1 ISZERO PUSH2 0x601 JUMPI DUP2 PUSH1 0x20 ADD PUSH1 0x20 DUP3 MUL DUP1 CALLDATASIZE DUP4 CALLDATACOPY ADD SWAP1 POP JUMPDEST POP SWAP2 POP PUSH1 0x0 JUMPDEST DUP2 DUP2 LT ISZERO PUSH2 0x6D6 JUMPI PUSH1 0x40 MLOAD PUSH4 0x3E8240B PUSH1 0xE5 SHL DUP2 MSTORE PUSH20 0x0 SWAP1 PUSH4 0x7D048160 SWAP1 PUSH2 0x649 SWAP1 PUSH1 0xC9 SWAP1 DUP6 SWAP1 PUSH1 0x4 ADD PUSH2 0x2CB6 JUMP JUMPDEST PUSH1 0x20 PUSH1 0x40 MLOAD DUP1 DUP4 SUB DUP2 DUP7 DUP1 EXTCODESIZE ISZERO DUP1 ISZERO PUSH2 0x661 JUMPI PUSH1 0x0 DUP1 REVERT JUMPDEST POP GAS DELEGATECALL ISZERO DUP1 ISZERO PUSH2 0x675 JUMPI RETURNDATASIZE PUSH1 0x0 DUP1 RETURNDATACOPY RETURNDATASIZE PUSH1 0x0 REVERT JUMPDEST POP POP POP POP PUSH1 0x40 MLOAD RETURNDATASIZE PUSH1 0x1F NOT PUSH1 0x1F DUP3 ADD AND DUP3 ADD DUP1 PUSH1 0x40 MSTORE POP DUP2 ADD SWAP1 PUSH2 0x699 SWAP2 SWAP1 PUSH2 0x24AE JUMP JUMPDEST DUP4 DUP3 DUP2 MLOAD DUP2 LT PUSH2 0x6B9 JUMPI PUSH4 0x4E487B71 PUSH1 0xE0 SHL PUSH1 0x0 MSTORE PUSH1 0x32 PUSH1 0x4 MSTORE PUSH1 0x24 PUSH1 0x0 REVERT JUMPDEST PUSH1 0x20 SWAP1 DUP2 MUL SWAP2 SWAP1 SWAP2 ADD ADD MSTORE DUP1 PUSH2 0x6CE DUP2 PUSH2 0x2F82 JUMP JUMPDEST SWAP2 POP POP PUSH2 0x607 JUMP JUMPDEST POP POP SWAP1 JUMP JUMPDEST PUSH1 0x60 PUSH1 0x2 PUSH1 0x97 SLOAD EQ ISZERO PUSH2 0x700 JUMPI PUSH1 0x40 MLOAD PUSH3 0x461BCD PUSH1 0xE5 SHL DUP2 MSTORE PUSH1 0x4 ADD PUSH2 0x49F SWAP1 PUSH2 0x2BD0 JUMP JUMPDEST PUSH1 0x2 PUSH1 0x97 SSTORE DUP2 TIMESTAMP DUP2 LT ISZERO PUSH2 0x726 JUMPI PUSH1 0x40 MLOAD PUSH3 0x461BCD PUSH1 0xE5 SHL DUP2 MSTORE PUSH1 0x4 ADD PUSH2 0x49F SWAP1 PUSH2 0x2AEF JUMP JUMPDEST PUSH1 0x40 MLOAD PUSH4 0x39FEB59F PUSH1 0xE1 SHL DUP2 MSTORE PUSH20 0x0 SWAP1 PUSH4 0x73FD6B3E SWAP1 PUSH2 0x764 SWAP1 PUSH1 0xC9 SWAP1 DUP11 SWAP1 DUP11 SWAP1 DUP11 SWAP1 PUSH1 0x4 ADD PUSH2 0x2CC4 JUMP JUMPDEST PUSH1 0x0 PUSH1 0x40 MLOAD DUP1 DUP4 SUB DUP2 DUP7 DUP1 EXTCODESIZE ISZERO DUP1 ISZERO PUSH2 0x77C JUMPI PUSH1 0x0 DUP1 REVERT JUMPDEST POP GAS DELEGATECALL ISZERO DUP1 ISZERO PUSH2 0x790 JUMPI RETURNDATASIZE PUSH1 0x0 DUP1 RETURNDATACOPY RETURNDATASIZE PUSH1 0x0 REVERT JUMPDEST POP POP POP POP PUSH1 0x40 MLOAD RETURNDATASIZE PUSH1 0x0 DUP3 RETURNDATACOPY PUSH1 0x1F RETURNDATASIZE SWAP1 DUP2 ADD PUSH1 0x1F NOT AND DUP3 ADD PUSH1 0x40 MSTORE PUSH2 0x7B8 SWAP2 SWAP1 DUP2 ADD SWAP1 PUSH2 0x23EA JUMP JUMPDEST PUSH1 0x1 PUSH1 0x97 SSTORE SWAP7 SWAP6 POP POP POP POP POP POP JUMP JUMPDEST PUSH1 0x40 MLOAD PUSH4 0x703493A1 PUSH1 0xE1 SHL DUP2 MSTORE PUSH1 0x0 SWAP1 PUSH20 0x0 SWAP1 PUSH4 0xE0692742 SWAP1 PUSH2 0x806 SWAP1 PUSH1 0xC9 SWAP1 DUP8 SWAP1 DUP8 SWAP1 PUSH1 0x4 ADD PUSH2 0x2D04 JUMP JUMPDEST PUSH1 0x20 PUSH1 0x40 MLOAD DUP1 DUP4 SUB DUP2 DUP7 DUP1 EXTCODESIZE ISZERO DUP1 ISZERO PUSH2 0x81E JUMPI PUSH1 0x0 DUP1 REVERT JUMPDEST POP GAS DELEGATECALL ISZERO DUP1 ISZERO PUSH2 0x832 JUMPI RETURNDATASIZE PUSH1 0x0 DUP1 RETURNDATACOPY RETURNDATASIZE PUSH1 0x0 REVERT JUMPDEST POP POP POP POP PUSH1 0x40 MLOAD RETURNDATASIZE PUSH1 0x1F NOT PUSH1 0x1F DUP3 ADD AND DUP3 ADD DUP1 PUSH1 0x40 MSTORE POP DUP2 ADD SWAP1 PUSH2 0x856 SWAP2 SWAP1 PUSH2 0x24AE JUMP JUMPDEST SWAP1 POP JUMPDEST SWAP3 SWAP2 POP POP JUMP JUMPDEST PUSH2 0x867 PUSH2 0x1AB6 JUMP JUMPDEST PUSH1 0x1 PUSH1 0x1 PUSH1 0xA0 SHL SUB AND PUSH2 0x878 PUSH2 0xE9E JUMP JUMPDEST PUSH1 0x1 PUSH1 0x1 PUSH1 0xA0 SHL SUB AND EQ PUSH2 0x89E JUMPI PUSH1 0x40 MLOAD PUSH3 0x461BCD PUSH1 0xE5 SHL DUP2 MSTORE PUSH1 0x4 ADD PUSH2 0x49F SWAP1 PUSH2 0x2ABA JUMP JUMPDEST PUSH1 0x40 MLOAD PUSH4 0x119F861B PUSH1 0xE2 SHL DUP2 MSTORE PUSH20 0x0 SWAP1 PUSH4 0x467E186C SWAP1 PUSH2 0x8D8 SWAP1 PUSH1 0xC9 SWAP1 DUP6 SWAP1 PUSH1 0x4 ADD PUSH2 0x2CB6 JUMP JUMPDEST PUSH1 0x0 PUSH1 0x40 MLOAD DUP1 DUP4 SUB DUP2 DUP7 DUP1 EXTCODESIZE ISZERO DUP1 ISZERO PUSH2 0x8F0 JUMPI PUSH1 0x0 DUP1 REVERT JUMPDEST POP GAS DELEGATECALL ISZERO DUP1 ISZERO PUSH2 0x904 JUMPI RETURNDATASIZE PUSH1 0x0 DUP1 RETURNDATACOPY RETURNDATASIZE PUSH1 0x0 REVERT JUMPDEST POP POP POP POP POP JUMP JUMPDEST PUSH1 0x0 PUSH1 0x2 PUSH1 0x97 SLOAD EQ ISZERO PUSH2 0x930 JUMPI PUSH1 0x40 MLOAD PUSH3 0x461BCD PUSH1 0xE5 SHL DUP2 MSTORE PUSH1 0x4 ADD PUSH2 0x49F SWAP1 PUSH2 0x2BD0 JUMP JUMPDEST PUSH1 0x2 PUSH1 0x97 SSTORE PUSH2 0x93D PUSH2 0xBAF JUMP JUMPDEST ISZERO PUSH2 0x95A JUMPI PUSH1 0x40 MLOAD PUSH3 0x461BCD PUSH1 0xE5 SHL DUP2 MSTORE PUSH1 0x4 ADD PUSH2 0x49F SWAP1 PUSH2 0x2937 JUMP JUMPDEST DUP2 DUP1 TIMESTAMP GT ISZERO PUSH2 0x97B JUMPI PUSH1 0x40 MLOAD PUSH3 0x461BCD PUSH1 0xE5 SHL DUP2 MSTORE PUSH1 0x4 ADD PUSH2 0x49F SWAP1 PUSH2 0x2AEF JUMP JUMPDEST PUSH1 0x40 MLOAD PUSH4 0xE7A4DB81 PUSH1 0xE0 SHL DUP2 MSTORE PUSH20 0x0 SWAP1 PUSH4 0xE7A4DB81 SWAP1 PUSH2 0x9B9 SWAP1 PUSH1 0xC9 SWAP1 DUP11 SWAP1 DUP11 SWAP1 DUP11 SWAP1 PUSH1 0x4 ADD PUSH2 0x2D1D JUMP JUMPDEST PUSH1 0x20 PUSH1 0x40 MLOAD DUP1 DUP4 SUB DUP2 DUP7 DUP1 EXTCODESIZE ISZERO DUP1 ISZERO PUSH2 0x9D1 JUMPI PUSH1 0x0 DUP1 REVERT JUMPDEST POP GAS DELEGATECALL ISZERO DUP1 ISZERO PUSH2 0x9E5 JUMPI RETURNDATASIZE PUSH1 0x0 DUP1 RETURNDATACOPY RETURNDATASIZE PUSH1 0x0 REVERT JUMPDEST POP POP POP POP PUSH1 0x40 MLOAD RETURNDATASIZE PUSH1 0x1F NOT PUSH1 0x1F DUP3 ADD AND DUP3 ADD DUP1 PUSH1 0x40 MSTORE POP DUP2 ADD SWAP1 PUSH2 0x7B8 SWAP2 SWAP1 PUSH2 0x24AE JUMP JUMPDEST PUSH2 0xA11 PUSH2 0x1AB6 JUMP JUMPDEST PUSH1 0x1 PUSH1 0x1 PUSH1 0xA0 SHL SUB AND PUSH2 0xA22 PUSH2 0xE9E JUMP JUMPDEST PUSH1 0x1 PUSH1 0x1 PUSH1 0xA0 SHL SUB AND EQ PUSH2 0xA48 JUMPI PUSH1 0x40 MLOAD PUSH3 0x461BCD PUSH1 0xE5 SHL DUP2 MSTORE PUSH1 0x4 ADD PUSH2 0x49F SWAP1 PUSH2 0x2ABA JUMP JUMPDEST PUSH2 0xA50 PUSH2 0x1ABA JUMP JUMPDEST JUMP JUMPDEST PUSH1 0x0 PUSH1 0x2 PUSH1 0x97 SLOAD EQ ISZERO PUSH2 0xA77 JUMPI PUSH1 0x40 MLOAD PUSH3 0x461BCD PUSH1 0xE5 SHL DUP2 MSTORE PUSH1 0x4 ADD PUSH2 0x49F SWAP1 PUSH2 0x2BD0 JUMP JUMPDEST PUSH1 0x2 PUSH1 0x97 SSTORE PUSH2 0xA84 PUSH2 0xBAF JUMP JUMPDEST ISZERO PUSH2 0xAA1 JUMPI PUSH1 0x40 MLOAD PUSH3 0x461BCD PUSH1 0xE5 SHL DUP2 MSTORE PUSH1 0x4 ADD PUSH2 0x49F SWAP1 PUSH2 0x2937 JUMP JUMPDEST DUP2 DUP1 TIMESTAMP GT ISZERO PUSH2 0xAC2 JUMPI PUSH1 0x40 MLOAD PUSH3 0x461BCD PUSH1 0xE5 SHL DUP2 MSTORE PUSH1 0x4 ADD PUSH2 0x49F SWAP1 PUSH2 0x2AEF JUMP JUMPDEST PUSH1 0x40 MLOAD PUSH4 0x40370EDF PUSH1 0xE0 SHL DUP2 MSTORE PUSH20 0x0 SWAP1 PUSH4 0x40370EDF SWAP1 PUSH2 0x9B9 SWAP1 PUSH1 0xC9 SWAP1 DUP11 SWAP1 DUP11 SWAP1 DUP11 SWAP1 PUSH1 0x4 ADD PUSH2 0x2C8B JUMP JUMPDEST PUSH2 0xB08 PUSH2 0x1AB6 JUMP JUMPDEST PUSH1 0x1 PUSH1 0x1 PUSH1 0xA0 SHL SUB AND PUSH2 0xB19 PUSH2 0xE9E JUMP JUMPDEST PUSH1 0x1 PUSH1 0x1 PUSH1 0xA0 SHL SUB AND EQ PUSH2 0xB3F JUMPI PUSH1 0x40 MLOAD PUSH3 0x461BCD PUSH1 0xE5 SHL DUP2 MSTORE PUSH1 0x4 ADD PUSH2 0x49F SWAP1 PUSH2 0x2ABA JUMP JUMPDEST PUSH1 0x40 MLOAD PUSH4 0x58FDD79B PUSH1 0xE0 SHL DUP2 MSTORE PUSH20 0x0 SWAP1 PUSH4 0x58FDD79B SWAP1 PUSH2 0xB7B SWAP1 PUSH1 0xC9 SWAP1 DUP7 SWAP1 DUP7 SWAP1 PUSH1 0x4 ADD PUSH2 0x2CEE JUMP JUMPDEST PUSH1 0x0 PUSH1 0x40 MLOAD DUP1 DUP4 SUB DUP2 DUP7 DUP1 EXTCODESIZE ISZERO DUP1 ISZERO PUSH2 0xB93 JUMPI PUSH1 0x0 DUP1 REVERT JUMPDEST POP GAS DELEGATECALL ISZERO DUP1 ISZERO PUSH2 0xBA7 JUMPI RETURNDATASIZE PUSH1 0x0 DUP1 RETURNDATACOPY RETURNDATASIZE PUSH1 0x0 REVERT JUMPDEST POP POP POP POP POP POP JUMP JUMPDEST PUSH1 0x65 SLOAD PUSH1 0xFF AND SWAP1 JUMP JUMPDEST PUSH1 0xC9 SLOAD PUSH1 0xCA SLOAD PUSH1 0xCB SLOAD PUSH1 0xCC SLOAD PUSH1 0xCD SLOAD PUSH1 0xCE SLOAD PUSH1 0xCF SLOAD PUSH1 0x1 PUSH1 0x1 PUSH1 0xA0 SHL SUB AND DUP8 JUMP JUMPDEST PUSH1 0x1 PUSH1 0x1 PUSH1 0xA0 SHL SUB DUP2 AND PUSH1 0x0 DUP2 DUP2 MSTORE PUSH1 0xD3 PUSH1 0x20 MSTORE PUSH1 0x40 DUP2 KECCAK256 SLOAD SWAP1 SWAP2 PUSH1 0xFF SWAP1 SWAP2 AND SWAP1 PUSH2 0xC03 DUP3 PUSH2 0xCC9 JUMP JUMPDEST PUSH1 0x1 PUSH1 0x1 PUSH1 0xA0 SHL SUB AND EQ PUSH2 0xC29 JUMPI PUSH1 0x40 MLOAD PUSH3 0x461BCD PUSH1 0xE5 SHL DUP2 MSTORE PUSH1 0x4 ADD PUSH2 0x49F SWAP1 PUSH2 0x289B JUMP JUMPDEST SWAP1 POP JUMPDEST SWAP2 SWAP1 POP JUMP JUMPDEST PUSH2 0xC39 PUSH2 0x1AB6 JUMP JUMPDEST PUSH1 0x1 PUSH1 0x1 PUSH1 0xA0 SHL SUB AND PUSH2 0xC4A PUSH2 0xE9E JUMP JUMPDEST PUSH1 0x1 PUSH1 0x1 PUSH1 0xA0 SHL SUB AND EQ PUSH2 0xC70 JUMPI PUSH1 0x40 MLOAD PUSH3 0x461BCD PUSH1 0xE5 SHL DUP2 MSTORE PUSH1 0x4 ADD PUSH2 0x49F SWAP1 PUSH2 0x2ABA JUMP JUMPDEST PUSH1 0x33 SLOAD PUSH1 0x40 MLOAD PUSH1 0x0 SWAP2 PUSH1 0x1 PUSH1 0x1 PUSH1 0xA0 SHL SUB AND SWAP1 PUSH32 0x8BE0079C531659141344CD1FD0A4F28419497F9722A3DAAFE3B4186F6B6457E0 SWAP1 DUP4 SWAP1 LOG3 PUSH1 0x33 DUP1 SLOAD PUSH1 0x1 PUSH1 0x1 PUSH1 0xA0 SHL SUB NOT AND SWAP1 SSTORE JUMP JUMPDEST PUSH1 0xCF SLOAD PUSH1 0x1 PUSH1 0x1 PUSH1 0xA0 SHL SUB AND SWAP1 JUMP JUMPDEST PUSH1 0xD0 SLOAD PUSH1 0x0 SWAP1 PUSH1 0xFF DUP4 AND LT PUSH2 0xCF0 JUMPI PUSH1 0x40 MLOAD PUSH3 0x461BCD PUSH1 0xE5 SHL DUP2 MSTORE PUSH1 0x4 ADD PUSH2 0x49F SWAP1 PUSH2 0x2B7E JUMP JUMPDEST PUSH1 0xD0 DUP1 SLOAD PUSH1 0xFF DUP5 AND SWAP1 DUP2 LT PUSH2 0xD15 JUMPI PUSH4 0x4E487B71 PUSH1 0xE0 SHL PUSH1 0x0 MSTORE PUSH1 0x32 PUSH1 0x4 MSTORE PUSH1 0x24 PUSH1 0x0 REVERT JUMPDEST PUSH1 0x0 SWAP2 DUP3 MSTORE PUSH1 0x20 SWAP1 SWAP2 KECCAK256 ADD SLOAD PUSH1 0x1 PUSH1 0x1 PUSH1 0xA0 SHL SUB AND SWAP3 SWAP2 POP POP JUMP JUMPDEST PUSH2 0xD38 PUSH2 0x1AB6 JUMP JUMPDEST PUSH1 0x1 PUSH1 0x1 PUSH1 0xA0 SHL SUB AND PUSH2 0xD49 PUSH2 0xE9E JUMP JUMPDEST PUSH1 0x1 PUSH1 0x1 PUSH1 0xA0 SHL SUB AND EQ PUSH2 0xD6F JUMPI PUSH1 0x40 MLOAD PUSH3 0x461BCD PUSH1 0xE5 SHL DUP2 MSTORE PUSH1 0x4 ADD PUSH2 0x49F SWAP1 PUSH2 0x2ABA JUMP JUMPDEST PUSH2 0xA50 PUSH2 0x1B28 JUMP JUMPDEST PUSH1 0x0 PUSH1 0x2 PUSH1 0x97 SLOAD EQ ISZERO PUSH2 0xD9C JUMPI PUSH1 0x40 MLOAD PUSH3 0x461BCD PUSH1 0xE5 SHL DUP2 MSTORE PUSH1 0x4 ADD PUSH2 0x49F SWAP1 PUSH2 0x2BD0 JUMP JUMPDEST PUSH1 0x2 PUSH1 0x97 SSTORE PUSH2 0xDA9 PUSH2 0xBAF JUMP JUMPDEST ISZERO PUSH2 0xDC6 JUMPI PUSH1 0x40 MLOAD PUSH3 0x461BCD PUSH1 0xE5 SHL DUP2 MSTORE PUSH1 0x4 ADD PUSH2 0x49F SWAP1 PUSH2 0x2937 JUMP JUMPDEST DUP2 DUP1 TIMESTAMP GT ISZERO PUSH2 0xDE7 JUMPI PUSH1 0x40 MLOAD PUSH3 0x461BCD PUSH1 0xE5 SHL DUP2 MSTORE PUSH1 0x4 ADD PUSH2 0x49F SWAP1 PUSH2 0x2AEF JUMP JUMPDEST PUSH1 0x40 MLOAD PUSH4 0x20DC8E13 PUSH1 0xE1 SHL DUP2 MSTORE PUSH20 0x0 SWAP1 PUSH4 0x41B91C26 SWAP1 PUSH2 0x9B9 SWAP1 PUSH1 0xC9 SWAP1 DUP11 SWAP1 DUP11 SWAP1 DUP11 SWAP1 PUSH1 0x4 ADD PUSH2 0x2C8B JUMP JUMPDEST PUSH2 0xE2D PUSH2 0x1AB6 JUMP JUMPDEST PUSH1 0x1 PUSH1 0x1 PUSH1 0xA0 SHL SUB AND PUSH2 0xE3E PUSH2 0xE9E JUMP JUMPDEST PUSH1 0x1 PUSH1 0x1 PUSH1 0xA0 SHL SUB AND EQ PUSH2 0xE64 JUMPI PUSH1 0x40 MLOAD PUSH3 0x461BCD PUSH1 0xE5 SHL DUP2 MSTORE PUSH1 0x4 ADD PUSH2 0x49F SWAP1 PUSH2 0x2ABA JUMP JUMPDEST PUSH1 0x40 MLOAD PUSH4 0x3823393B PUSH1 0xE1 SHL DUP2 MSTORE PUSH20 0x0 SWAP1 PUSH4 0x70467276 SWAP1 PUSH2 0x8D8 SWAP1 PUSH1 0xC9 SWAP1 DUP6 SWAP1 PUSH1 0x4 ADD PUSH2 0x2CB6 JUMP JUMPDEST PUSH1 0x33 SLOAD PUSH1 0x1 PUSH1 0x1 PUSH1 0xA0 SHL SUB AND SWAP1 JUMP JUMPDEST PUSH1 0x0 PUSH1 0x2 PUSH1 0x97 SLOAD EQ ISZERO PUSH2 0xED2 JUMPI PUSH1 0x40 MLOAD PUSH3 0x461BCD PUSH1 0xE5 SHL DUP2 MSTORE PUSH1 0x4 ADD PUSH2 0x49F SWAP1 PUSH2 0x2BD0 JUMP JUMPDEST PUSH1 0x2 PUSH1 0x97 SSTORE PUSH2 0xEDF PUSH2 0xBAF JUMP JUMPDEST ISZERO PUSH2 0xEFC JUMPI PUSH1 0x40 MLOAD PUSH3 0x461BCD PUSH1 0xE5 SHL DUP2 MSTORE PUSH1 0x4 ADD PUSH2 0x49F SWAP1 PUSH2 0x2937 JUMP JUMPDEST DUP2 DUP1 TIMESTAMP GT ISZERO PUSH2 0xF1D JUMPI PUSH1 0x40 MLOAD PUSH3 0x461BCD PUSH1 0xE5 SHL DUP2 MSTORE PUSH1 0x4 ADD PUSH2 0x49F SWAP1 PUSH2 0x2AEF JUMP JUMPDEST PUSH1 0x40 MLOAD PUSH4 0x529CBD91 PUSH1 0xE1 SHL DUP2 MSTORE PUSH20 0x0 SWAP1 PUSH4 0xA5397B22 SWAP1 PUSH2 0xF5D SWAP1 PUSH1 0xC9 SWAP1 DUP12 SWAP1 DUP12 SWAP1 DUP12 SWAP1 DUP12 SWAP1 PUSH1 0x4 ADD PUSH2 0x2D5A JUMP JUMPDEST PUSH1 0x20 PUSH1 0x40 MLOAD DUP1 DUP4 SUB DUP2 DUP7 DUP1 EXTCODESIZE ISZERO DUP1 ISZERO PUSH2 0xF75 JUMPI PUSH1 0x0 DUP1 REVERT JUMPDEST POP GAS DELEGATECALL ISZERO DUP1 ISZERO PUSH2 0xF89 JUMPI RETURNDATASIZE PUSH1 0x0 DUP1 RETURNDATACOPY RETURNDATASIZE PUSH1 0x0 REVERT JUMPDEST POP POP POP POP PUSH1 0x40 MLOAD RETURNDATASIZE PUSH1 0x1F NOT PUSH1 0x1F DUP3 ADD AND DUP3 ADD DUP1 PUSH1 0x40 MSTORE POP DUP2 ADD SWAP1 PUSH2 0xFAD SWAP2 SWAP1 PUSH2 0x24AE JUMP JUMPDEST PUSH1 0x1 PUSH1 0x97 SSTORE SWAP8 SWAP7 POP POP POP POP POP POP POP JUMP JUMPDEST PUSH1 0xD0 SLOAD PUSH1 0x0 SWAP1 PUSH1 0xFF DUP4 AND LT PUSH2 0xFE4 JUMPI PUSH1 0x40 MLOAD PUSH3 0x461BCD PUSH1 0xE5 SHL DUP2 MSTORE PUSH1 0x4 ADD PUSH2 0x49F SWAP1 PUSH2 0x2BA4 JUMP JUMPDEST PUSH1 0xD2 DUP1 SLOAD PUSH1 0xFF DUP5 AND SWAP1 DUP2 LT PUSH2 0x1009 JUMPI PUSH4 0x4E487B71 PUSH1 0xE0 SHL PUSH1 0x0 MSTORE PUSH1 0x32 PUSH1 0x4 MSTORE PUSH1 0x24 PUSH1 0x0 REVERT JUMPDEST SWAP1 PUSH1 0x0 MSTORE PUSH1 0x20 PUSH1 0x0 KECCAK256 ADD SLOAD SWAP1 POP SWAP2 SWAP1 POP JUMP JUMPDEST PUSH1 0x60 PUSH1 0xC9 PUSH1 0x9 ADD DUP1 SLOAD DUP1 PUSH1 0x20 MUL PUSH1 0x20 ADD PUSH1 0x40 MLOAD SWAP1 DUP2 ADD PUSH1 0x40 MSTORE DUP1 SWAP3 SWAP2 SWAP1 DUP2 DUP2 MSTORE PUSH1 0x20 ADD DUP3 DUP1 SLOAD DUP1 ISZERO PUSH2 0x106C JUMPI PUSH1 0x20 MUL DUP3 ADD SWAP2 SWAP1 PUSH1 0x0 MSTORE PUSH1 0x20 PUSH1 0x0 KECCAK256 SWAP1 JUMPDEST DUP2 SLOAD DUP2 MSTORE PUSH1 0x20 ADD SWAP1 PUSH1 0x1 ADD SWAP1 DUP1 DUP4 GT PUSH2 0x1058 JUMPI JUMPDEST POP POP POP POP POP SWAP1 POP SWAP1 JUMP JUMPDEST PUSH1 0x40 MLOAD PUSH4 0x12C8D80F PUSH1 0xE2 SHL DUP2 MSTORE PUSH1 0x0 SWAP1 PUSH20 0x0 SWAP1 PUSH4 0x4B23603C SWAP1 PUSH2 0x10B7 SWAP1 PUSH1 0xC9 SWAP1 DUP9 SWAP1 DUP9 SWAP1 DUP9 SWAP1 PUSH1 0x4 ADD PUSH2 0x2D3B JUMP JUMPDEST PUSH1 0x20 PUSH1 0x40 MLOAD DUP1 DUP4 SUB DUP2 DUP7 DUP1 EXTCODESIZE ISZERO DUP1 ISZERO PUSH2 0x10CF JUMPI PUSH1 0x0 DUP1 REVERT JUMPDEST POP GAS DELEGATECALL ISZERO DUP1 ISZERO PUSH2 0x10E3 JUMPI RETURNDATASIZE PUSH1 0x0 DUP1 RETURNDATACOPY RETURNDATASIZE PUSH1 0x0 REVERT JUMPDEST POP POP POP POP PUSH1 0x40 MLOAD RETURNDATASIZE PUSH1 0x1F NOT PUSH1 0x1F DUP3 ADD AND DUP3 ADD DUP1 PUSH1 0x40 MSTORE POP DUP2 ADD SWAP1 PUSH2 0x1107 SWAP2 SWAP1 PUSH2 0x24AE JUMP JUMPDEST SWAP1 POP JUMPDEST SWAP4 SWAP3 POP POP POP JUMP JUMPDEST PUSH1 0x60 PUSH1 0xC9 PUSH1 0x7 ADD DUP1 SLOAD DUP1 PUSH1 0x20 MUL PUSH1 0x20 ADD PUSH1 0x40 MLOAD SWAP1 DUP2 ADD PUSH1 0x40 MSTORE DUP1 SWAP3 SWAP2 SWAP1 DUP2 DUP2 MSTORE PUSH1 0x20 ADD DUP3 DUP1 SLOAD DUP1 ISZERO PUSH2 0x106C JUMPI PUSH1 0x20 MUL DUP3 ADD SWAP2 SWAP1 PUSH1 0x0 MSTORE PUSH1 0x20 PUSH1 0x0 KECCAK256 SWAP1 JUMPDEST DUP2 SLOAD PUSH1 0x1 PUSH1 0x1 PUSH1 0xA0 SHL SUB AND DUP2 MSTORE PUSH1 0x1 SWAP1 SWAP2 ADD SWAP1 PUSH1 0x20 ADD DUP1 DUP4 GT PUSH2 0x114E JUMPI POP POP POP POP POP SWAP1 POP SWAP1 JUMP JUMPDEST PUSH1 0x0 SLOAD PUSH2 0x100 SWAP1 DIV PUSH1 0xFF AND DUP1 PUSH2 0x118E JUMPI POP PUSH2 0x118E PUSH2 0x1B83 JUMP JUMPDEST DUP1 PUSH2 0x119C JUMPI POP PUSH1 0x0 SLOAD PUSH1 0xFF AND ISZERO JUMPDEST PUSH2 0x11B8 JUMPI PUSH1 0x40 MLOAD PUSH3 0x461BCD PUSH1 0xE5 SHL DUP2 MSTORE PUSH1 0x4 ADD PUSH2 0x49F SWAP1 PUSH2 0x29BD JUMP JUMPDEST PUSH1 0x0 SLOAD PUSH2 0x100 SWAP1 DIV PUSH1 0xFF AND ISZERO DUP1 ISZERO PUSH2 0x11E3 JUMPI PUSH1 0x0 DUP1 SLOAD PUSH1 0xFF NOT PUSH2 0xFF00 NOT SWAP1 SWAP2 AND PUSH2 0x100 OR AND PUSH1 0x1 OR SWAP1 SSTORE JUMPDEST PUSH2 0x11EB PUSH2 0x1B94 JUMP JUMPDEST PUSH2 0x11F3 PUSH2 0x1C2F JUMP JUMPDEST PUSH1 0x1 DUP10 MLOAD GT PUSH2 0x1214 JUMPI PUSH1 0x40 MLOAD PUSH3 0x461BCD PUSH1 0xE5 SHL DUP2 MSTORE PUSH1 0x4 ADD PUSH2 0x49F SWAP1 PUSH2 0x2A83 JUMP JUMPDEST PUSH1 0x20 DUP10 MLOAD GT ISZERO PUSH2 0x1236 JUMPI PUSH1 0x40 MLOAD PUSH3 0x461BCD PUSH1 0xE5 SHL DUP2 MSTORE PUSH1 0x4 ADD PUSH2 0x49F SWAP1 PUSH2 0x28C9 JUMP JUMPDEST DUP8 MLOAD DUP10 MLOAD EQ PUSH2 0x1257 JUMPI PUSH1 0x40 MLOAD PUSH3 0x461BCD PUSH1 0xE5 SHL DUP2 MSTORE PUSH1 0x4 ADD PUSH2 0x49F SWAP1 PUSH2 0x2A4C JUMP JUMPDEST PUSH1 0x0 DUP9 MLOAD PUSH8 0xFFFFFFFFFFFFFFFF DUP2 GT ISZERO PUSH2 0x1281 JUMPI PUSH4 0x4E487B71 PUSH1 0xE0 SHL PUSH1 0x0 MSTORE PUSH1 0x41 PUSH1 0x4 MSTORE PUSH1 0x24 PUSH1 0x0 REVERT JUMPDEST PUSH1 0x40 MLOAD SWAP1 DUP1 DUP3 MSTORE DUP1 PUSH1 0x20 MUL PUSH1 0x20 ADD DUP3 ADD PUSH1 0x40 MSTORE DUP1 ISZERO PUSH2 0x12AA JUMPI DUP2 PUSH1 0x20 ADD PUSH1 0x20 DUP3 MUL DUP1 CALLDATASIZE DUP4 CALLDATACOPY ADD SWAP1 POP JUMPDEST POP SWAP1 POP PUSH1 0x0 JUMPDEST DUP11 MLOAD DUP2 PUSH1 0xFF AND LT ISZERO PUSH2 0x1547 JUMPI PUSH1 0xFF DUP2 AND ISZERO PUSH2 0x13A0 JUMPI PUSH1 0xD3 PUSH1 0x0 DUP13 DUP4 PUSH1 0xFF AND DUP2 MLOAD DUP2 LT PUSH2 0x12EC JUMPI PUSH4 0x4E487B71 PUSH1 0xE0 SHL PUSH1 0x0 MSTORE PUSH1 0x32 PUSH1 0x4 MSTORE PUSH1 0x24 PUSH1 0x0 REVERT JUMPDEST PUSH1 0x20 SWAP1 DUP2 MUL SWAP2 SWAP1 SWAP2 ADD DUP2 ADD MLOAD PUSH1 0x1 PUSH1 0x1 PUSH1 0xA0 SHL SUB AND DUP3 MSTORE DUP2 ADD SWAP2 SWAP1 SWAP2 MSTORE PUSH1 0x40 ADD PUSH1 0x0 KECCAK256 SLOAD PUSH1 0xFF AND ISZERO DUP1 ISZERO PUSH2 0x1384 JUMPI POP DUP11 DUP2 PUSH1 0xFF AND DUP2 MLOAD DUP2 LT PUSH2 0x133E JUMPI PUSH4 0x4E487B71 PUSH1 0xE0 SHL PUSH1 0x0 MSTORE PUSH1 0x32 PUSH1 0x4 MSTORE PUSH1 0x24 PUSH1 0x0 REVERT JUMPDEST PUSH1 0x20 MUL PUSH1 0x20 ADD ADD MLOAD PUSH1 0x1 PUSH1 0x1 PUSH1 0xA0 SHL SUB AND DUP12 PUSH1 0x0 DUP2 MLOAD DUP2 LT PUSH2 0x1370 JUMPI PUSH4 0x4E487B71 PUSH1 0xE0 SHL PUSH1 0x0 MSTORE PUSH1 0x32 PUSH1 0x4 MSTORE PUSH1 0x24 PUSH1 0x0 REVERT JUMPDEST PUSH1 0x20 MUL PUSH1 0x20 ADD ADD MLOAD PUSH1 0x1 PUSH1 0x1 PUSH1 0xA0 SHL SUB AND EQ ISZERO JUMPDEST PUSH2 0x13A0 JUMPI PUSH1 0x40 MLOAD PUSH3 0x461BCD PUSH1 0xE5 SHL DUP2 MSTORE PUSH1 0x4 ADD PUSH2 0x49F SWAP1 PUSH2 0x283A JUMP JUMPDEST PUSH1 0x0 PUSH1 0x1 PUSH1 0x1 PUSH1 0xA0 SHL SUB AND DUP12 DUP3 PUSH1 0xFF AND DUP2 MLOAD DUP2 LT PUSH2 0x13CE JUMPI PUSH4 0x4E487B71 PUSH1 0xE0 SHL PUSH1 0x0 MSTORE PUSH1 0x32 PUSH1 0x4 MSTORE PUSH1 0x24 PUSH1 0x0 REVERT JUMPDEST PUSH1 0x20 MUL PUSH1 0x20 ADD ADD MLOAD PUSH1 0x1 PUSH1 0x1 PUSH1 0xA0 SHL SUB AND EQ ISZERO PUSH2 0x13FD JUMPI PUSH1 0x40 MLOAD PUSH3 0x461BCD PUSH1 0xE5 SHL DUP2 MSTORE PUSH1 0x4 ADD PUSH2 0x49F SWAP1 PUSH2 0x2B19 JUMP JUMPDEST PUSH1 0x12 PUSH1 0xFF AND DUP11 DUP3 PUSH1 0xFF AND DUP2 MLOAD DUP2 LT PUSH2 0x1425 JUMPI PUSH4 0x4E487B71 PUSH1 0xE0 SHL PUSH1 0x0 MSTORE PUSH1 0x32 PUSH1 0x4 MSTORE PUSH1 0x24 PUSH1 0x0 REVERT JUMPDEST PUSH1 0x20 MUL PUSH1 0x20 ADD ADD MLOAD PUSH1 0xFF AND GT ISZERO PUSH2 0x144E JUMPI PUSH1 0x40 MLOAD PUSH3 0x461BCD PUSH1 0xE5 SHL DUP2 MSTORE PUSH1 0x4 ADD PUSH2 0x49F SWAP1 PUSH2 0x2803 JUMP JUMPDEST PUSH2 0x1492 DUP11 DUP3 PUSH1 0xFF AND DUP2 MLOAD DUP2 LT PUSH2 0x1474 JUMPI PUSH4 0x4E487B71 PUSH1 0xE0 SHL PUSH1 0x0 MSTORE PUSH1 0x32 PUSH1 0x4 MSTORE PUSH1 0x24 PUSH1 0x0 REVERT JUMPDEST PUSH1 0x20 MUL PUSH1 0x20 ADD ADD MLOAD PUSH1 0xFF AND PUSH1 0x12 PUSH1 0xFF AND PUSH2 0x1CA5 SWAP1 SWAP2 SWAP1 PUSH4 0xFFFFFFFF AND JUMP JUMPDEST PUSH2 0x149D SWAP1 PUSH1 0xA PUSH2 0x2E7E JUMP JUMPDEST DUP3 DUP3 PUSH1 0xFF AND DUP2 MLOAD DUP2 LT PUSH2 0x14C0 JUMPI PUSH4 0x4E487B71 PUSH1 0xE0 SHL PUSH1 0x0 MSTORE PUSH1 0x32 PUSH1 0x4 MSTORE PUSH1 0x24 PUSH1 0x0 REVERT JUMPDEST PUSH1 0x20 MUL PUSH1 0x20 ADD ADD DUP2 DUP2 MSTORE POP POP DUP1 PUSH1 0xD3 PUSH1 0x0 DUP14 DUP5 PUSH1 0xFF AND DUP2 MLOAD DUP2 LT PUSH2 0x14F4 JUMPI PUSH4 0x4E487B71 PUSH1 0xE0 SHL PUSH1 0x0 MSTORE PUSH1 0x32 PUSH1 0x4 MSTORE PUSH1 0x24 PUSH1 0x0 REVERT JUMPDEST PUSH1 0x20 MUL PUSH1 0x20 ADD ADD MLOAD PUSH1 0x1 PUSH1 0x1 PUSH1 0xA0 SHL SUB AND PUSH1 0x1 PUSH1 0x1 PUSH1 0xA0 SHL SUB AND DUP2 MSTORE PUSH1 0x20 ADD SWAP1 DUP2 MSTORE PUSH1 0x20 ADD PUSH1 0x0 KECCAK256 PUSH1 0x0 PUSH2 0x100 EXP DUP2 SLOAD DUP2 PUSH1 0xFF MUL NOT AND SWAP1 DUP4 PUSH1 0xFF AND MUL OR SWAP1 SSTORE POP DUP1 DUP1 PUSH2 0x153F SWAP1 PUSH2 0x2F9D JUMP JUMPDEST SWAP2 POP POP PUSH2 0x12B0 JUMP JUMPDEST POP PUSH3 0xF4240 DUP7 LT PUSH2 0x156A JUMPI PUSH1 0x40 MLOAD PUSH3 0x461BCD PUSH1 0xE5 SHL DUP2 MSTORE PUSH1 0x4 ADD PUSH2 0x49F SWAP1 PUSH2 0x2991 JUMP JUMPDEST PUSH4 0x5F5E100 DUP6 LT PUSH2 0x158D JUMPI PUSH1 0x40 MLOAD PUSH3 0x461BCD PUSH1 0xE5 SHL DUP2 MSTORE PUSH1 0x4 ADD PUSH2 0x49F SWAP1 PUSH2 0x2B50 JUMP JUMPDEST PUSH5 0x2540BE400 DUP5 LT PUSH2 0x15B1 JUMPI PUSH1 0x40 MLOAD PUSH3 0x461BCD PUSH1 0xE5 SHL DUP2 MSTORE PUSH1 0x4 ADD PUSH2 0x49F SWAP1 PUSH2 0x2900 JUMP JUMPDEST PUSH1 0x0 PUSH2 0x15BC DUP5 PUSH2 0x1CD1 JUMP JUMPDEST PUSH1 0x40 MLOAD PUSH4 0x266C45BB PUSH1 0xE1 SHL DUP2 MSTORE SWAP1 SWAP2 POP PUSH1 0x1 PUSH1 0x1 PUSH1 0xA0 SHL SUB DUP3 AND SWAP1 PUSH4 0x4CD88B76 SWAP1 PUSH2 0x15ED SWAP1 DUP13 SWAP1 DUP13 SWAP1 PUSH1 0x4 ADD PUSH2 0x2761 JUMP JUMPDEST PUSH1 0x20 PUSH1 0x40 MLOAD DUP1 DUP4 SUB DUP2 PUSH1 0x0 DUP8 DUP1 EXTCODESIZE ISZERO DUP1 ISZERO PUSH2 0x1607 JUMPI PUSH1 0x0 DUP1 REVERT JUMPDEST POP GAS CALL ISZERO DUP1 ISZERO PUSH2 0x161B JUMPI RETURNDATASIZE PUSH1 0x0 DUP1 RETURNDATACOPY RETURNDATASIZE PUSH1 0x0 REVERT JUMPDEST POP POP POP POP PUSH1 0x40 MLOAD RETURNDATASIZE PUSH1 0x1F NOT PUSH1 0x1F DUP3 ADD AND DUP3 ADD DUP1 PUSH1 0x40 MSTORE POP DUP2 ADD SWAP1 PUSH2 0x163F SWAP2 SWAP1 PUSH2 0x247A JUMP JUMPDEST PUSH2 0x165B JUMPI PUSH1 0x40 MLOAD PUSH3 0x461BCD PUSH1 0xE5 SHL DUP2 MSTORE PUSH1 0x4 ADD PUSH2 0x49F SWAP1 PUSH2 0x2C07 JUMP JUMPDEST PUSH1 0xCF DUP1 SLOAD PUSH1 0x1 PUSH1 0x1 PUSH1 0xA0 SHL SUB NOT AND PUSH1 0x1 PUSH1 0x1 PUSH1 0xA0 SHL SUB DUP4 AND OR SWAP1 SSTORE DUP11 MLOAD PUSH2 0x1689 SWAP1 PUSH1 0xD0 SWAP1 PUSH1 0x20 DUP15 ADD SWAP1 PUSH2 0x1FF9 JUMP JUMPDEST POP DUP2 MLOAD PUSH2 0x169D SWAP1 PUSH1 0xD1 SWAP1 PUSH1 0x20 DUP6 ADD SWAP1 PUSH2 0x205E JUMP JUMPDEST POP DUP11 MLOAD PUSH8 0xFFFFFFFFFFFFFFFF DUP2 GT ISZERO PUSH2 0x16C6 JUMPI PUSH4 0x4E487B71 PUSH1 0xE0 SHL PUSH1 0x0 MSTORE PUSH1 0x41 PUSH1 0x4 MSTORE PUSH1 0x24 PUSH1 0x0 REVERT JUMPDEST PUSH1 0x40 MLOAD SWAP1 DUP1 DUP3 MSTORE DUP1 PUSH1 0x20 MUL PUSH1 0x20 ADD DUP3 ADD PUSH1 0x40 MSTORE DUP1 ISZERO PUSH2 0x16EF JUMPI DUP2 PUSH1 0x20 ADD PUSH1 0x20 DUP3 MUL DUP1 CALLDATASIZE DUP4 CALLDATACOPY ADD SWAP1 POP JUMPDEST POP DUP1 MLOAD PUSH2 0x1704 SWAP2 PUSH1 0xD2 SWAP2 PUSH1 0x20 SWAP1 SWAP2 ADD SWAP1 PUSH2 0x205E JUMP JUMPDEST POP PUSH2 0x1710 DUP8 PUSH1 0x64 PUSH2 0x1D40 JUMP JUMPDEST PUSH1 0xC9 SSTORE PUSH2 0x171E DUP8 PUSH1 0x64 PUSH2 0x1D40 JUMP JUMPDEST PUSH1 0xCA SSTORE POP POP PUSH1 0xCD DUP5 SWAP1 SSTORE PUSH1 0xCE DUP4 SWAP1 SSTORE DUP1 ISZERO PUSH2 0x173F JUMPI PUSH1 0x0 DUP1 SLOAD PUSH2 0xFF00 NOT AND SWAP1 SSTORE JUMPDEST POP POP POP POP POP POP POP POP POP JUMP JUMPDEST PUSH2 0x1752 PUSH2 0x1AB6 JUMP JUMPDEST PUSH1 0x1 PUSH1 0x1 PUSH1 0xA0 SHL SUB AND PUSH2 0x1763 PUSH2 0xE9E JUMP JUMPDEST PUSH1 0x1 PUSH1 0x1 PUSH1 0xA0 SHL SUB AND EQ PUSH2 0x1789 JUMPI PUSH1 0x40 MLOAD PUSH3 0x461BCD PUSH1 0xE5 SHL DUP2 MSTORE PUSH1 0x4 ADD PUSH2 0x49F SWAP1 PUSH2 0x2ABA JUMP JUMPDEST PUSH1 0x40 MLOAD PUSH4 0x78A7108F PUSH1 0xE1 SHL DUP2 MSTORE PUSH20 0x0 SWAP1 PUSH4 0xF14E211E SWAP1 PUSH2 0x4E9 SWAP1 PUSH1 0xC9 SWAP1 PUSH1 0x4 ADD PUSH2 0x2C3E JUMP JUMPDEST PUSH1 0x60 PUSH1 0xC9 PUSH1 0x8 ADD DUP1 SLOAD DUP1 PUSH1 0x20 MUL PUSH1 0x20 ADD PUSH1 0x40 MLOAD SWAP1 DUP2 ADD PUSH1 0x40 MSTORE DUP1 SWAP3 SWAP2 SWAP1 DUP2 DUP2 MSTORE PUSH1 0x20 ADD DUP3 DUP1 SLOAD DUP1 ISZERO PUSH2 0x106C JUMPI PUSH1 0x20 MUL DUP3 ADD SWAP2 SWAP1 PUSH1 0x0 MSTORE PUSH1 0x20 PUSH1 0x0 KECCAK256 SWAP1 DUP2 SLOAD DUP2 MSTORE PUSH1 0x20 ADD SWAP1 PUSH1 0x1 ADD SWAP1 DUP1 DUP4 GT PUSH2 0x1058 JUMPI POP POP POP POP POP SWAP1 POP SWAP1 JUMP JUMPDEST PUSH1 0x40 MLOAD PUSH4 0x2C28533F PUSH1 0xE2 SHL DUP2 MSTORE PUSH1 0x0 SWAP1 PUSH20 0x0 SWAP1 PUSH4 0xB0A14CFC SWAP1 PUSH2 0x556 SWAP1 PUSH1 0xC9 SWAP1 PUSH1 0x4 ADD PUSH2 0x2C3E JUMP JUMPDEST PUSH1 0x40 MLOAD PUSH4 0x1C641B0B PUSH1 0xE2 SHL DUP2 MSTORE PUSH1 0x0 SWAP1 PUSH20 0x0 SWAP1 PUSH4 0x71906C2C SWAP1 PUSH2 0x556 SWAP1 PUSH1 0xC9 SWAP1 PUSH1 0x4 ADD PUSH2 0x2C3E JUMP JUMPDEST PUSH1 0x40 MLOAD PUSH4 0x834B491 PUSH1 0xE4 SHL DUP2 MSTORE PUSH1 0x0 SWAP1 PUSH20 0x0 SWAP1 PUSH4 0x834B4910 SWAP1 PUSH2 0x10B7 SWAP1 PUSH1 0xC9 SWAP1 DUP9 SWAP1 DUP9 SWAP1 DUP9 SWAP1 PUSH1 0x4 ADD PUSH2 0x2C5E JUMP JUMPDEST PUSH1 0x40 MLOAD PUSH4 0x3E8240B PUSH1 0xE5 SHL DUP2 MSTORE PUSH1 0x0 SWAP1 PUSH20 0x0 SWAP1 PUSH4 0x7D048160 SWAP1 PUSH2 0x190E SWAP1 PUSH1 0xC9 SWAP1 DUP7 SWAP1 PUSH1 0x4 ADD PUSH2 0x2CB6 JUMP JUMPDEST PUSH1 0x20 PUSH1 0x40 MLOAD DUP1 DUP4 SUB DUP2 DUP7 DUP1 EXTCODESIZE ISZERO DUP1 ISZERO PUSH2 0x1926 JUMPI PUSH1 0x0 DUP1 REVERT JUMPDEST POP GAS DELEGATECALL ISZERO DUP1 ISZERO PUSH2 0x193A JUMPI RETURNDATASIZE PUSH1 0x0 DUP1 RETURNDATACOPY RETURNDATASIZE PUSH1 0x0 REVERT JUMPDEST POP POP POP POP PUSH1 0x40 MLOAD RETURNDATASIZE PUSH1 0x1F NOT PUSH1 0x1F DUP3 ADD AND DUP3 ADD DUP1 PUSH1 0x40 MSTORE POP DUP2 ADD SWAP1 PUSH2 0xC29 SWAP2 SWAP1 PUSH2 0x24AE JUMP JUMPDEST PUSH1 0xD0 SLOAD SWAP1 JUMP JUMPDEST PUSH1 0x40 MLOAD PUSH4 0x38381F25 PUSH1 0xE1 SHL DUP2 MSTORE PUSH1 0x60 SWAP1 PUSH20 0x0 SWAP1 PUSH4 0x70703E4A SWAP1 PUSH2 0x19A1 SWAP1 PUSH1 0xC9 SWAP1 DUP7 SWAP1 PUSH1 0x4 ADD PUSH2 0x2CB6 JUMP JUMPDEST PUSH1 0x0 PUSH1 0x40 MLOAD DUP1 DUP4 SUB DUP2 DUP7 DUP1 EXTCODESIZE ISZERO DUP1 ISZERO PUSH2 0x19B9 JUMPI PUSH1 0x0 DUP1 REVERT JUMPDEST POP GAS DELEGATECALL ISZERO DUP1 ISZERO PUSH2 0x19CD JUMPI RETURNDATASIZE PUSH1 0x0 DUP1 RETURNDATACOPY RETURNDATASIZE PUSH1 0x0 REVERT JUMPDEST POP POP POP POP PUSH1 0x40 MLOAD RETURNDATASIZE PUSH1 0x0 DUP3 RETURNDATACOPY PUSH1 0x1F RETURNDATASIZE SWAP1 DUP2 ADD PUSH1 0x1F NOT AND DUP3 ADD PUSH1 0x40 MSTORE PUSH2 0xC29 SWAP2 SWAP1 DUP2 ADD SWAP1 PUSH2 0x23EA JUMP JUMPDEST PUSH2 0x19FD PUSH2 0x1AB6 JUMP JUMPDEST PUSH1 0x1 PUSH1 0x1 PUSH1 0xA0 SHL SUB AND PUSH2 0x1A0E PUSH2 0xE9E JUMP JUMPDEST PUSH1 0x1 PUSH1 0x1 PUSH1 0xA0 SHL SUB AND EQ PUSH2 0x1A34 JUMPI PUSH1 0x40 MLOAD PUSH3 0x461BCD PUSH1 0xE5 SHL DUP2 MSTORE PUSH1 0x4 ADD PUSH2 0x49F SWAP1 PUSH2 0x2ABA JUMP JUMPDEST PUSH1 0x1 PUSH1 0x1 PUSH1 0xA0 SHL SUB DUP2 AND PUSH2 0x1A5A JUMPI PUSH1 0x40 MLOAD PUSH3 0x461BCD PUSH1 0xE5 SHL DUP2 MSTORE PUSH1 0x4 ADD PUSH2 0x49F SWAP1 PUSH2 0x27BD JUMP JUMPDEST PUSH1 0x33 SLOAD PUSH1 0x40 MLOAD PUSH1 0x1 PUSH1 0x1 PUSH1 0xA0 SHL SUB DUP1 DUP5 AND SWAP3 AND SWAP1 PUSH32 0x8BE0079C531659141344CD1FD0A4F28419497F9722A3DAAFE3B4186F6B6457E0 SWAP1 PUSH1 0x0 SWAP1 LOG3 PUSH1 0x33 DUP1 SLOAD PUSH1 0x1 PUSH1 0x1 PUSH1 0xA0 SHL SUB NOT AND PUSH1 0x1 PUSH1 0x1 PUSH1 0xA0 SHL SUB SWAP3 SWAP1 SWAP3 AND SWAP2 SWAP1 SWAP2 OR SWAP1 SSTORE JUMP JUMPDEST CALLER SWAP1 JUMP JUMPDEST PUSH2 0x1AC2 PUSH2 0xBAF JUMP JUMPDEST PUSH2 0x1ADE JUMPI PUSH1 0x40 MLOAD PUSH3 0x461BCD PUSH1 0xE5 SHL DUP2 MSTORE PUSH1 0x4 ADD PUSH2 0x49F SWAP1 PUSH2 0x278F JUMP JUMPDEST PUSH1 0x65 DUP1 SLOAD PUSH1 0xFF NOT AND SWAP1 SSTORE PUSH32 0x5DB9EE0A495BF2E6FF9C91A7834C1BA4FDD244A5E8AA4E537BD38AEAE4B073AA PUSH2 0x1B11 PUSH2 0x1AB6 JUMP JUMPDEST PUSH1 0x40 MLOAD PUSH2 0x1B1E SWAP2 SWAP1 PUSH2 0x26BD JUMP JUMPDEST PUSH1 0x40 MLOAD DUP1 SWAP2 SUB SWAP1 LOG1 JUMP JUMPDEST PUSH2 0x1B30 PUSH2 0xBAF JUMP JUMPDEST ISZERO PUSH2 0x1B4D JUMPI PUSH1 0x40 MLOAD PUSH3 0x461BCD PUSH1 0xE5 SHL DUP2 MSTORE PUSH1 0x4 ADD PUSH2 0x49F SWAP1 PUSH2 0x2937 JUMP JUMPDEST PUSH1 0x65 DUP1 SLOAD PUSH1 0xFF NOT AND PUSH1 0x1 OR SWAP1 SSTORE PUSH32 0x62E78CEA01BEE320CD4E420270B5EA74000D11B0C9F74754EBDBFC544B05A258 PUSH2 0x1B11 PUSH2 0x1AB6 JUMP JUMPDEST PUSH1 0x0 PUSH2 0x1B8E ADDRESS PUSH2 0x1D85 JUMP JUMPDEST ISZERO SWAP1 POP SWAP1 JUMP JUMPDEST PUSH1 0x0 SLOAD PUSH2 0x100 SWAP1 DIV PUSH1 0xFF AND DUP1 PUSH2 0x1BAD JUMPI POP PUSH2 0x1BAD PUSH2 0x1B83 JUMP JUMPDEST DUP1 PUSH2 0x1BBB JUMPI POP PUSH1 0x0 SLOAD PUSH1 0xFF AND ISZERO JUMPDEST PUSH2 0x1BD7 JUMPI PUSH1 0x40 MLOAD PUSH3 0x461BCD PUSH1 0xE5 SHL DUP2 MSTORE PUSH1 0x4 ADD PUSH2 0x49F SWAP1 PUSH2 0x29BD JUMP JUMPDEST PUSH1 0x0 SLOAD PUSH2 0x100 SWAP1 DIV PUSH1 0xFF AND ISZERO DUP1 ISZERO PUSH2 0x1C02 JUMPI PUSH1 0x0 DUP1 SLOAD PUSH1 0xFF NOT PUSH2 0xFF00 NOT SWAP1 SWAP2 AND PUSH2 0x100 OR AND PUSH1 0x1 OR SWAP1 SSTORE JUMPDEST PUSH2 0x1C0A PUSH2 0x1D8B JUMP JUMPDEST PUSH2 0x1C12 PUSH2 0x1E0C JUMP JUMPDEST PUSH2 0x1C1A PUSH2 0x1EE6 JUMP JUMPDEST DUP1 ISZERO PUSH2 0x1C2C JUMPI PUSH1 0x0 DUP1 SLOAD PUSH2 0xFF00 NOT AND SWAP1 SSTORE JUMPDEST POP JUMP JUMPDEST PUSH1 0x0 SLOAD PUSH2 0x100 SWAP1 DIV PUSH1 0xFF AND DUP1 PUSH2 0x1C48 JUMPI POP PUSH2 0x1C48 PUSH2 0x1B83 JUMP JUMPDEST DUP1 PUSH2 0x1C56 JUMPI POP PUSH1 0x0 SLOAD PUSH1 0xFF AND ISZERO JUMPDEST PUSH2 0x1C72 JUMPI PUSH1 0x40 MLOAD PUSH3 0x461BCD PUSH1 0xE5 SHL DUP2 MSTORE PUSH1 0x4 ADD PUSH2 0x49F SWAP1 PUSH2 0x29BD JUMP JUMPDEST PUSH1 0x0 SLOAD PUSH2 0x100 SWAP1 DIV PUSH1 0xFF AND ISZERO DUP1 ISZERO PUSH2 0x1C9D JUMPI PUSH1 0x0 DUP1 SLOAD PUSH1 0xFF NOT PUSH2 0xFF00 NOT SWAP1 SWAP2 AND PUSH2 0x100 OR AND PUSH1 0x1 OR SWAP1 SSTORE JUMPDEST PUSH2 0x1C1A PUSH2 0x1F72 JUMP JUMPDEST PUSH1 0x0 DUP3 DUP3 GT ISZERO PUSH2 0x1CC7 JUMPI PUSH1 0x40 MLOAD PUSH3 0x461BCD PUSH1 0xE5 SHL DUP2 MSTORE PUSH1 0x4 ADD PUSH2 0x49F SWAP1 PUSH2 0x2864 JUMP JUMPDEST PUSH2 0x856 DUP3 DUP5 PUSH2 0x2F6B JUMP JUMPDEST PUSH1 0x0 PUSH1 0x40 MLOAD PUSH20 0x3D602D80600A3D3981F3363D3D373D3D3D363D73 PUSH1 0x60 SHL DUP2 MSTORE DUP3 PUSH1 0x60 SHL PUSH1 0x14 DUP3 ADD MSTORE PUSH15 0x5AF43D82803E903D91602B57FD5BF3 PUSH1 0x88 SHL PUSH1 0x28 DUP3 ADD MSTORE PUSH1 0x37 DUP2 PUSH1 0x0 CREATE SWAP2 POP POP PUSH1 0x1 PUSH1 0x1 PUSH1 0xA0 SHL SUB DUP2 AND PUSH2 0xC2C JUMPI PUSH1 0x40 MLOAD PUSH3 0x461BCD PUSH1 0xE5 SHL DUP2 MSTORE PUSH1 0x4 ADD PUSH2 0x49F SWAP1 PUSH2 0x2961 JUMP JUMPDEST PUSH1 0x0 DUP3 PUSH2 0x1D4F JUMPI POP PUSH1 0x0 PUSH2 0x859 JUMP JUMPDEST PUSH1 0x0 PUSH2 0x1D5B DUP4 DUP6 PUSH2 0x2F4C JUMP JUMPDEST SWAP1 POP DUP3 PUSH2 0x1D68 DUP6 DUP4 PUSH2 0x2E18 JUMP JUMPDEST EQ PUSH2 0x856 JUMPI PUSH1 0x40 MLOAD PUSH3 0x461BCD PUSH1 0xE5 SHL DUP2 MSTORE PUSH1 0x4 ADD PUSH2 0x49F SWAP1 PUSH2 0x2A0B JUMP JUMPDEST EXTCODESIZE ISZERO ISZERO SWAP1 JUMP JUMPDEST PUSH1 0x0 SLOAD PUSH2 0x100 SWAP1 DIV PUSH1 0xFF AND DUP1 PUSH2 0x1DA4 JUMPI POP PUSH2 0x1DA4 PUSH2 0x1B83 JUMP JUMPDEST DUP1 PUSH2 0x1DB2 JUMPI POP PUSH1 0x0 SLOAD PUSH1 0xFF AND ISZERO JUMPDEST PUSH2 0x1DCE JUMPI PUSH1 0x40 MLOAD PUSH3 0x461BCD PUSH1 0xE5 SHL DUP2 MSTORE PUSH1 0x4 ADD PUSH2 0x49F SWAP1 PUSH2 0x29BD JUMP JUMPDEST PUSH1 0x0 SLOAD PUSH2 0x100 SWAP1 DIV PUSH1 0xFF AND ISZERO DUP1 ISZERO PUSH2 0x1C1A JUMPI PUSH1 0x0 DUP1 SLOAD PUSH1 0xFF NOT PUSH2 0xFF00 NOT SWAP1 SWAP2 AND PUSH2 0x100 OR AND PUSH1 0x1 OR SWAP1 SSTORE DUP1 ISZERO PUSH2 0x1C2C JUMPI PUSH1 0x0 DUP1 SLOAD PUSH2 0xFF00 NOT AND SWAP1 SSTORE POP JUMP JUMPDEST PUSH1 0x0 SLOAD PUSH2 0x100 SWAP1 DIV PUSH1 0xFF AND DUP1 PUSH2 0x1E25 JUMPI POP PUSH2 0x1E25 PUSH2 0x1B83 JUMP JUMPDEST DUP1 PUSH2 0x1E33 JUMPI POP PUSH1 0x0 SLOAD PUSH1 0xFF AND ISZERO JUMPDEST PUSH2 0x1E4F JUMPI PUSH1 0x40 MLOAD PUSH3 0x461BCD PUSH1 0xE5 SHL DUP2 MSTORE PUSH1 0x4 ADD PUSH2 0x49F SWAP1 PUSH2 0x29BD JUMP JUMPDEST PUSH1 0x0 SLOAD PUSH2 0x100 SWAP1 DIV PUSH1 0xFF AND ISZERO DUP1 ISZERO PUSH2 0x1E7A JUMPI PUSH1 0x0 DUP1 SLOAD PUSH1 0xFF NOT PUSH2 0xFF00 NOT SWAP1 SWAP2 AND PUSH2 0x100 OR AND PUSH1 0x1 OR SWAP1 SSTORE JUMPDEST PUSH1 0x0 PUSH2 0x1E84 PUSH2 0x1AB6 JUMP JUMPDEST PUSH1 0x33 DUP1 SLOAD PUSH1 0x1 PUSH1 0x1 PUSH1 0xA0 SHL SUB NOT AND PUSH1 0x1 PUSH1 0x1 PUSH1 0xA0 SHL SUB DUP4 AND SWAP1 DUP2 OR SWAP1 SWAP2 SSTORE PUSH1 0x40 MLOAD SWAP2 SWAP3 POP SWAP1 PUSH1 0x0 SWAP1 PUSH32 0x8BE0079C531659141344CD1FD0A4F28419497F9722A3DAAFE3B4186F6B6457E0 SWAP1 DUP3 SWAP1 LOG3 POP DUP1 ISZERO PUSH2 0x1C2C JUMPI PUSH1 0x0 DUP1 SLOAD PUSH2 0xFF00 NOT AND SWAP1 SSTORE POP JUMP JUMPDEST PUSH1 0x0 SLOAD PUSH2 0x100 SWAP1 DIV PUSH1 0xFF AND DUP1 PUSH2 0x1EFF JUMPI POP PUSH2 0x1EFF PUSH2 0x1B83 JUMP JUMPDEST DUP1 PUSH2 0x1F0D JUMPI POP PUSH1 0x0 SLOAD PUSH1 0xFF AND ISZERO JUMPDEST PUSH2 0x1F29 JUMPI PUSH1 0x40 MLOAD PUSH3 0x461BCD PUSH1 0xE5 SHL DUP2 MSTORE PUSH1 0x4 ADD PUSH2 0x49F SWAP1 PUSH2 0x29BD JUMP JUMPDEST PUSH1 0x0 SLOAD PUSH2 0x100 SWAP1 DIV PUSH1 0xFF AND ISZERO DUP1 ISZERO PUSH2 0x1F54 JUMPI PUSH1 0x0 DUP1 SLOAD PUSH1 0xFF NOT PUSH2 0xFF00 NOT SWAP1 SWAP2 AND PUSH2 0x100 OR AND PUSH1 0x1 OR SWAP1 SSTORE JUMPDEST PUSH1 0x65 DUP1 SLOAD PUSH1 0xFF NOT AND SWAP1 SSTORE DUP1 ISZERO PUSH2 0x1C2C JUMPI PUSH1 0x0 DUP1 SLOAD PUSH2 0xFF00 NOT AND SWAP1 SSTORE POP JUMP JUMPDEST PUSH1 0x0 SLOAD PUSH2 0x100 SWAP1 DIV PUSH1 0xFF AND DUP1 PUSH2 0x1F8B JUMPI POP PUSH2 0x1F8B PUSH2 0x1B83 JUMP JUMPDEST DUP1 PUSH2 0x1F99 JUMPI POP PUSH1 0x0 SLOAD PUSH1 0xFF AND ISZERO JUMPDEST PUSH2 0x1FB5 JUMPI PUSH1 0x40 MLOAD PUSH3 0x461BCD PUSH1 0xE5 SHL DUP2 MSTORE PUSH1 0x4 ADD PUSH2 0x49F SWAP1 PUSH2 0x29BD JUMP JUMPDEST PUSH1 0x0 SLOAD PUSH2 0x100 SWAP1 DIV PUSH1 0xFF AND ISZERO DUP1 ISZERO PUSH2 0x1FE0 JUMPI PUSH1 0x0 DUP1 SLOAD PUSH1 0xFF NOT PUSH2 0xFF00 NOT SWAP1 SWAP2 AND PUSH2 0x100 OR AND PUSH1 0x1 OR SWAP1 SSTORE JUMPDEST PUSH1 0x1 PUSH1 0x97 SSTORE DUP1 ISZERO PUSH2 0x1C2C JUMPI PUSH1 0x0 DUP1 SLOAD PUSH2 0xFF00 NOT AND SWAP1 SSTORE POP JUMP JUMPDEST DUP3 DUP1 SLOAD DUP3 DUP3 SSTORE SWAP1 PUSH1 0x0 MSTORE PUSH1 0x20 PUSH1 0x0 KECCAK256 SWAP1 DUP2 ADD SWAP3 DUP3 ISZERO PUSH2 0x204E JUMPI SWAP2 PUSH1 0x20 MUL DUP3 ADD JUMPDEST DUP3 DUP2 GT ISZERO PUSH2 0x204E JUMPI DUP3 MLOAD DUP3 SLOAD PUSH1 0x1 PUSH1 0x1 PUSH1 0xA0 SHL SUB NOT AND PUSH1 0x1 PUSH1 0x1 PUSH1 0xA0 SHL SUB SWAP1 SWAP2 AND OR DUP3 SSTORE PUSH1 0x20 SWAP1 SWAP3 ADD SWAP2 PUSH1 0x1 SWAP1 SWAP2 ADD SWAP1 PUSH2 0x2019 JUMP JUMPDEST POP PUSH2 0x205A SWAP3 SWAP2 POP PUSH2 0x2099 JUMP JUMPDEST POP SWAP1 JUMP JUMPDEST DUP3 DUP1 SLOAD DUP3 DUP3 SSTORE SWAP1 PUSH1 0x0 MSTORE PUSH1 0x20 PUSH1 0x0 KECCAK256 SWAP1 DUP2 ADD SWAP3 DUP3 ISZERO PUSH2 0x204E JUMPI SWAP2 PUSH1 0x20 MUL DUP3 ADD JUMPDEST DUP3 DUP2 GT ISZERO PUSH2 0x204E JUMPI DUP3 MLOAD DUP3 SSTORE SWAP2 PUSH1 0x20 ADD SWAP2 SWAP1 PUSH1 0x1 ADD SWAP1 PUSH2 0x207E JUMP JUMPDEST JUMPDEST DUP1 DUP3 GT ISZERO PUSH2 0x205A JUMPI PUSH1 0x0 DUP2 SSTORE PUSH1 0x1 ADD PUSH2 0x209A JUMP JUMPDEST DUP1 CALLDATALOAD PUSH2 0xC2C DUP2 PUSH2 0x2FE9 JUMP JUMPDEST PUSH1 0x0 DUP3 PUSH1 0x1F DUP4 ADD SLT PUSH2 0x20C9 JUMPI DUP1 DUP2 REVERT JUMPDEST DUP2 CALLDATALOAD PUSH1 0x20 PUSH2 0x20DE PUSH2 0x20D9 DUP4 PUSH2 0x2DF4 JUMP JUMPDEST PUSH2 0x2DCA JUMP JUMPDEST DUP3 DUP2 MSTORE DUP2 DUP2 ADD SWAP1 DUP6 DUP4 ADD DUP4 DUP6 MUL DUP8 ADD DUP5 ADD DUP9 LT ISZERO PUSH2 0x20FA JUMPI DUP6 DUP7 REVERT JUMPDEST DUP6 JUMPDEST DUP6 DUP2 LT ISZERO PUSH2 0x2121 JUMPI DUP2 CALLDATALOAD PUSH2 0x210F DUP2 PUSH2 0x2FE9 JUMP JUMPDEST DUP5 MSTORE SWAP3 DUP5 ADD SWAP3 SWAP1 DUP5 ADD SWAP1 PUSH1 0x1 ADD PUSH2 0x20FC JUMP JUMPDEST POP SWAP1 SWAP8 SWAP7 POP POP POP POP POP POP POP JUMP JUMPDEST PUSH1 0x0 DUP1 DUP4 PUSH1 0x1F DUP5 ADD SLT PUSH2 0x213F JUMPI DUP2 DUP3 REVERT JUMPDEST POP DUP2 CALLDATALOAD PUSH8 0xFFFFFFFFFFFFFFFF DUP2 GT ISZERO PUSH2 0x2156 JUMPI DUP2 DUP3 REVERT JUMPDEST PUSH1 0x20 DUP4 ADD SWAP2 POP DUP4 PUSH1 0x20 DUP1 DUP4 MUL DUP6 ADD ADD GT ISZERO PUSH2 0x2170 JUMPI PUSH1 0x0 DUP1 REVERT JUMPDEST SWAP3 POP SWAP3 SWAP1 POP JUMP JUMPDEST PUSH1 0x0 DUP3 PUSH1 0x1F DUP4 ADD SLT PUSH2 0x2187 JUMPI DUP1 DUP2 REVERT JUMPDEST DUP2 CALLDATALOAD PUSH1 0x20 PUSH2 0x2197 PUSH2 0x20D9 DUP4 PUSH2 0x2DF4 JUMP JUMPDEST DUP3 DUP2 MSTORE DUP2 DUP2 ADD SWAP1 DUP6 DUP4 ADD DUP4 DUP6 MUL DUP8 ADD DUP5 ADD DUP9 LT ISZERO PUSH2 0x21B3 JUMPI DUP6 DUP7 REVERT JUMPDEST DUP6 JUMPDEST DUP6 DUP2 LT ISZERO PUSH2 0x2121 JUMPI PUSH2 0x21C6 DUP3 PUSH2 0x2243 JUMP JUMPDEST DUP5 MSTORE SWAP3 DUP5 ADD SWAP3 SWAP1 DUP5 ADD SWAP1 PUSH1 0x1 ADD PUSH2 0x21B5 JUMP JUMPDEST PUSH1 0x0 DUP3 PUSH1 0x1F DUP4 ADD SLT PUSH2 0x21E8 JUMPI DUP1 DUP2 REVERT JUMPDEST DUP2 CALLDATALOAD PUSH8 0xFFFFFFFFFFFFFFFF DUP2 GT ISZERO PUSH2 0x2202 JUMPI PUSH2 0x2202 PUSH2 0x2FD3 JUMP JUMPDEST PUSH2 0x2215 PUSH1 0x1F DUP3 ADD PUSH1 0x1F NOT AND PUSH1 0x20 ADD PUSH2 0x2DCA JUMP JUMPDEST DUP2 DUP2 MSTORE DUP5 PUSH1 0x20 DUP4 DUP7 ADD ADD GT ISZERO PUSH2 0x2229 JUMPI DUP3 DUP4 REVERT JUMPDEST DUP2 PUSH1 0x20 DUP6 ADD PUSH1 0x20 DUP4 ADD CALLDATACOPY SWAP1 DUP2 ADD PUSH1 0x20 ADD SWAP2 SWAP1 SWAP2 MSTORE SWAP3 SWAP2 POP POP JUMP JUMPDEST DUP1 CALLDATALOAD PUSH1 0xFF DUP2 AND DUP2 EQ PUSH2 0xC2C JUMPI PUSH1 0x0 DUP1 REVERT JUMPDEST PUSH1 0x0 PUSH1 0x20 DUP3 DUP5 SUB SLT ISZERO PUSH2 0x2265 JUMPI DUP1 DUP2 REVERT JUMPDEST DUP2 CALLDATALOAD PUSH2 0x856 DUP2 PUSH2 0x2FE9 JUMP JUMPDEST PUSH1 0x0 DUP1 PUSH1 0x0 DUP1 PUSH1 0x0 DUP1 PUSH1 0x0 DUP1 PUSH2 0x100 DUP10 DUP12 SUB SLT ISZERO PUSH2 0x228C JUMPI DUP4 DUP5 REVERT JUMPDEST DUP9 CALLDATALOAD PUSH8 0xFFFFFFFFFFFFFFFF DUP1 DUP3 GT ISZERO PUSH2 0x22A3 JUMPI DUP6 DUP7 REVERT JUMPDEST PUSH2 0x22AF DUP13 DUP4 DUP14 ADD PUSH2 0x20B9 JUMP JUMPDEST SWAP10 POP PUSH1 0x20 DUP12 ADD CALLDATALOAD SWAP2 POP DUP1 DUP3 GT ISZERO PUSH2 0x22C4 JUMPI DUP6 DUP7 REVERT JUMPDEST PUSH2 0x22D0 DUP13 DUP4 DUP14 ADD PUSH2 0x2177 JUMP JUMPDEST SWAP9 POP PUSH1 0x40 DUP12 ADD CALLDATALOAD SWAP2 POP DUP1 DUP3 GT ISZERO PUSH2 0x22E5 JUMPI DUP6 DUP7 REVERT JUMPDEST PUSH2 0x22F1 DUP13 DUP4 DUP14 ADD PUSH2 0x21D8 JUMP JUMPDEST SWAP8 POP PUSH1 0x60 DUP12 ADD CALLDATALOAD SWAP2 POP DUP1 DUP3 GT ISZERO PUSH2 0x2306 JUMPI DUP6 DUP7 REVERT JUMPDEST POP PUSH2 0x2313 DUP12 DUP3 DUP13 ADD PUSH2 0x21D8 JUMP JUMPDEST SWAP6 POP POP PUSH1 0x80 DUP10 ADD CALLDATALOAD SWAP4 POP PUSH1 0xA0 DUP10 ADD CALLDATALOAD SWAP3 POP PUSH1 0xC0 DUP10 ADD CALLDATALOAD SWAP2 POP PUSH2 0x2337 PUSH1 0xE0 DUP11 ADD PUSH2 0x20AE JUMP JUMPDEST SWAP1 POP SWAP3 SWAP6 SWAP9 POP SWAP3 SWAP6 SWAP9 SWAP1 SWAP4 SWAP7 POP JUMP JUMPDEST PUSH1 0x0 DUP1 PUSH1 0x0 PUSH1 0x40 DUP5 DUP7 SUB SLT ISZERO PUSH2 0x235A JUMPI DUP3 DUP4 REVERT JUMPDEST DUP4 CALLDATALOAD PUSH8 0xFFFFFFFFFFFFFFFF DUP2 GT ISZERO PUSH2 0x2370 JUMPI DUP4 DUP5 REVERT JUMPDEST PUSH2 0x237C DUP7 DUP3 DUP8 ADD PUSH2 0x212E JUMP JUMPDEST SWAP1 SWAP5 POP SWAP3 POP POP PUSH1 0x20 DUP5 ADD CALLDATALOAD PUSH2 0x2390 DUP2 PUSH2 0x2FFE JUMP JUMPDEST DUP1 SWAP2 POP POP SWAP3 POP SWAP3 POP SWAP3 JUMP JUMPDEST PUSH1 0x0 DUP1 PUSH1 0x0 DUP1 PUSH1 0x60 DUP6 DUP8 SUB SLT ISZERO PUSH2 0x23B0 JUMPI DUP4 DUP5 REVERT JUMPDEST DUP5 CALLDATALOAD PUSH8 0xFFFFFFFFFFFFFFFF DUP2 GT ISZERO PUSH2 0x23C6 JUMPI DUP5 DUP6 REVERT JUMPDEST PUSH2 0x23D2 DUP8 DUP3 DUP9 ADD PUSH2 0x212E JUMP JUMPDEST SWAP1 SWAP9 SWAP1 SWAP8 POP PUSH1 0x20 DUP8 ADD CALLDATALOAD SWAP7 PUSH1 0x40 ADD CALLDATALOAD SWAP6 POP SWAP4 POP POP POP POP JUMP JUMPDEST PUSH1 0x0 PUSH1 0x20 DUP1 DUP4 DUP6 SUB SLT ISZERO PUSH2 0x23FC JUMPI DUP2 DUP3 REVERT JUMPDEST DUP3 MLOAD PUSH8 0xFFFFFFFFFFFFFFFF DUP2 GT ISZERO PUSH2 0x2412 JUMPI DUP3 DUP4 REVERT JUMPDEST DUP4 ADD PUSH1 0x1F DUP2 ADD DUP6 SGT PUSH2 0x2422 JUMPI DUP3 DUP4 REVERT JUMPDEST DUP1 MLOAD PUSH2 0x2430 PUSH2 0x20D9 DUP3 PUSH2 0x2DF4 JUMP JUMPDEST DUP2 DUP2 MSTORE DUP4 DUP2 ADD SWAP1 DUP4 DUP6 ADD DUP6 DUP5 MUL DUP6 ADD DUP7 ADD DUP10 LT ISZERO PUSH2 0x244C JUMPI DUP7 DUP8 REVERT JUMPDEST DUP7 SWAP5 POP JUMPDEST DUP4 DUP6 LT ISZERO PUSH2 0x246E JUMPI DUP1 MLOAD DUP4 MSTORE PUSH1 0x1 SWAP5 SWAP1 SWAP5 ADD SWAP4 SWAP2 DUP6 ADD SWAP2 DUP6 ADD PUSH2 0x2450 JUMP JUMPDEST POP SWAP8 SWAP7 POP POP POP POP POP POP POP JUMP JUMPDEST PUSH1 0x0 PUSH1 0x20 DUP3 DUP5 SUB SLT ISZERO PUSH2 0x248B JUMPI DUP1 DUP2 REVERT JUMPDEST DUP2 MLOAD PUSH2 0x856 DUP2 PUSH2 0x2FFE JUMP JUMPDEST PUSH1 0x0 PUSH1 0x20 DUP3 DUP5 SUB SLT ISZERO PUSH2 0x24A7 JUMPI DUP1 DUP2 REVERT JUMPDEST POP CALLDATALOAD SWAP2 SWAP1 POP JUMP JUMPDEST PUSH1 0x0 PUSH1 0x20 DUP3 DUP5 SUB SLT ISZERO PUSH2 0x24BF JUMPI DUP1 DUP2 REVERT JUMPDEST POP MLOAD SWAP2 SWAP1 POP JUMP JUMPDEST PUSH1 0x0 DUP1 PUSH1 0x0 DUP1 PUSH1 0x60 DUP6 DUP8 SUB SLT ISZERO PUSH2 0x24DB JUMPI DUP2 DUP3 REVERT JUMPDEST DUP5 CALLDATALOAD SWAP4 POP PUSH1 0x20 DUP6 ADD CALLDATALOAD PUSH8 0xFFFFFFFFFFFFFFFF DUP2 GT ISZERO PUSH2 0x24F8 JUMPI DUP3 DUP4 REVERT JUMPDEST PUSH2 0x2504 DUP8 DUP3 DUP9 ADD PUSH2 0x212E JUMP JUMPDEST SWAP6 SWAP9 SWAP1 SWAP8 POP SWAP5 SWAP6 PUSH1 0x40 ADD CALLDATALOAD SWAP5 SWAP4 POP POP POP POP JUMP JUMPDEST PUSH1 0x0 DUP1 PUSH1 0x40 DUP4 DUP6 SUB SLT ISZERO PUSH2 0x2529 JUMPI DUP2 DUP3 REVERT JUMPDEST POP POP DUP1 CALLDATALOAD SWAP3 PUSH1 0x20 SWAP1 SWAP2 ADD CALLDATALOAD SWAP2 POP JUMP JUMPDEST PUSH1 0x0 DUP1 PUSH1 0x40 DUP4 DUP6 SUB SLT ISZERO PUSH2 0x254A JUMPI DUP2 DUP3 REVERT JUMPDEST DUP3 CALLDATALOAD SWAP2 POP PUSH2 0x255A PUSH1 0x20 DUP5 ADD PUSH2 0x2243 JUMP JUMPDEST SWAP1 POP SWAP3 POP SWAP3 SWAP1 POP JUMP JUMPDEST PUSH1 0x0 DUP1 PUSH1 0x0 DUP1 PUSH1 0x80 DUP6 DUP8 SUB SLT ISZERO PUSH2 0x2578 JUMPI DUP2 DUP3 REVERT JUMPDEST DUP5 CALLDATALOAD SWAP4 POP PUSH2 0x2588 PUSH1 0x20 DUP7 ADD PUSH2 0x2243 JUMP JUMPDEST SWAP4 SWAP7 SWAP4 SWAP6 POP POP POP POP PUSH1 0x40 DUP3 ADD CALLDATALOAD SWAP2 PUSH1 0x60 ADD CALLDATALOAD SWAP1 JUMP JUMPDEST PUSH1 0x0 PUSH1 0x20 DUP3 DUP5 SUB SLT ISZERO PUSH2 0x25AE JUMPI DUP1 DUP2 REVERT JUMPDEST PUSH2 0x856 DUP3 PUSH2 0x2243 JUMP JUMPDEST PUSH1 0x0 DUP1 PUSH1 0x0 PUSH1 0x60 DUP5 DUP7 SUB SLT ISZERO PUSH2 0x25CB JUMPI DUP1 DUP2 REVERT JUMPDEST PUSH2 0x25D4 DUP5 PUSH2 0x2243 JUMP JUMPDEST SWAP3 POP PUSH2 0x25E2 PUSH1 0x20 DUP6 ADD PUSH2 0x2243 JUMP JUMPDEST SWAP2 POP PUSH1 0x40 DUP5 ADD CALLDATALOAD SWAP1 POP SWAP3 POP SWAP3 POP SWAP3 JUMP JUMPDEST PUSH1 0x0 DUP1 PUSH1 0x0 DUP1 PUSH1 0x0 PUSH1 0xA0 DUP7 DUP9 SUB SLT ISZERO PUSH2 0x2609 JUMPI DUP3 DUP4 REVERT JUMPDEST PUSH2 0x2612 DUP7 PUSH2 0x2243 JUMP JUMPDEST SWAP5 POP PUSH2 0x2620 PUSH1 0x20 DUP8 ADD PUSH2 0x2243 JUMP JUMPDEST SWAP5 SWAP8 SWAP5 SWAP7 POP POP POP POP PUSH1 0x40 DUP4 ADD CALLDATALOAD SWAP3 PUSH1 0x60 DUP2 ADD CALLDATALOAD SWAP3 PUSH1 0x80 SWAP1 SWAP2 ADD CALLDATALOAD SWAP2 POP JUMP JUMPDEST DUP2 DUP4 MSTORE PUSH1 0x0 PUSH1 0x1 PUSH1 0x1 PUSH1 0xFB SHL SUB DUP4 GT ISZERO PUSH2 0x2656 JUMPI DUP1 DUP2 REVERT JUMPDEST PUSH1 0x20 DUP4 MUL DUP1 DUP4 PUSH1 0x20 DUP8 ADD CALLDATACOPY SWAP4 SWAP1 SWAP4 ADD PUSH1 0x20 ADD SWAP3 DUP4 MSTORE POP SWAP1 SWAP2 SWAP1 POP JUMP JUMPDEST PUSH1 0x0 DUP2 MLOAD DUP1 DUP5 MSTORE DUP2 JUMPDEST DUP2 DUP2 LT ISZERO PUSH2 0x2697 JUMPI PUSH1 0x20 DUP2 DUP6 ADD DUP2 ADD MLOAD DUP7 DUP4 ADD DUP3 ADD MSTORE ADD PUSH2 0x267B JUMP JUMPDEST DUP2 DUP2 GT ISZERO PUSH2 0x26A8 JUMPI DUP3 PUSH1 0x20 DUP4 DUP8 ADD ADD MSTORE JUMPDEST POP PUSH1 0x1F ADD PUSH1 0x1F NOT AND SWAP3 SWAP1 SWAP3 ADD PUSH1 0x20 ADD SWAP3 SWAP2 POP POP JUMP JUMPDEST PUSH1 0x1 PUSH1 0x1 PUSH1 0xA0 SHL SUB SWAP2 SWAP1 SWAP2 AND DUP2 MSTORE PUSH1 0x20 ADD SWAP1 JUMP JUMPDEST PUSH1 0x20 DUP1 DUP3 MSTORE DUP3 MLOAD DUP3 DUP3 ADD DUP2 SWAP1 MSTORE PUSH1 0x0 SWAP2 SWAP1 DUP5 DUP3 ADD SWAP1 PUSH1 0x40 DUP6 ADD SWAP1 DUP5 JUMPDEST DUP2 DUP2 LT ISZERO PUSH2 0x2712 JUMPI DUP4 MLOAD PUSH1 0x1 PUSH1 0x1 PUSH1 0xA0 SHL SUB AND DUP4 MSTORE SWAP3 DUP5 ADD SWAP3 SWAP2 DUP5 ADD SWAP2 PUSH1 0x1 ADD PUSH2 0x26ED JUMP JUMPDEST POP SWAP1 SWAP7 SWAP6 POP POP POP POP POP POP JUMP JUMPDEST PUSH1 0x20 DUP1 DUP3 MSTORE DUP3 MLOAD DUP3 DUP3 ADD DUP2 SWAP1 MSTORE PUSH1 0x0 SWAP2 SWAP1 DUP5 DUP3 ADD SWAP1 PUSH1 0x40 DUP6 ADD SWAP1 DUP5 JUMPDEST DUP2 DUP2 LT ISZERO PUSH2 0x2712 JUMPI DUP4 MLOAD DUP4 MSTORE SWAP3 DUP5 ADD SWAP3 SWAP2 DUP5 ADD SWAP2 PUSH1 0x1 ADD PUSH2 0x273A JUMP JUMPDEST SWAP1 ISZERO ISZERO DUP2 MSTORE PUSH1 0x20 ADD SWAP1 JUMP JUMPDEST PUSH1 0x0 PUSH1 0x40 DUP3 MSTORE PUSH2 0x2774 PUSH1 0x40 DUP4 ADD DUP6 PUSH2 0x2672 JUMP JUMPDEST DUP3 DUP2 SUB PUSH1 0x20 DUP5 ADD MSTORE PUSH2 0x2786 DUP2 DUP6 PUSH2 0x2672 JUMP JUMPDEST SWAP6 SWAP5 POP POP POP POP POP JUMP JUMPDEST PUSH1 0x20 DUP1 DUP3 MSTORE PUSH1 0x14 SWAP1 DUP3 ADD MSTORE PUSH20 0x14185D5CD8589B194E881B9BDD081C185D5CD959 PUSH1 0x62 SHL PUSH1 0x40 DUP3 ADD MSTORE PUSH1 0x60 ADD SWAP1 JUMP JUMPDEST PUSH1 0x20 DUP1 DUP3 MSTORE PUSH1 0x26 SWAP1 DUP3 ADD MSTORE PUSH32 0x4F776E61626C653A206E6577206F776E657220697320746865207A65726F2061 PUSH1 0x40 DUP3 ADD MSTORE PUSH6 0x646472657373 PUSH1 0xD0 SHL PUSH1 0x60 DUP3 ADD MSTORE PUSH1 0x80 ADD SWAP1 JUMP JUMPDEST PUSH1 0x20 DUP1 DUP3 MSTORE PUSH1 0x1A SWAP1 DUP3 ADD MSTORE PUSH32 0x546F6B656E20646563696D616C732065786365656473206D6178000000000000 PUSH1 0x40 DUP3 ADD MSTORE PUSH1 0x60 ADD SWAP1 JUMP JUMPDEST PUSH1 0x20 DUP1 DUP3 MSTORE PUSH1 0x10 SWAP1 DUP3 ADD MSTORE PUSH16 0x4475706C696361746520746F6B656E73 PUSH1 0x80 SHL PUSH1 0x40 DUP3 ADD MSTORE PUSH1 0x60 ADD SWAP1 JUMP JUMPDEST PUSH1 0x20 DUP1 DUP3 MSTORE PUSH1 0x1E SWAP1 DUP3 ADD MSTORE PUSH32 0x536166654D6174683A207375627472616374696F6E206F766572666C6F770000 PUSH1 0x40 DUP3 ADD MSTORE PUSH1 0x60 ADD SWAP1 JUMP JUMPDEST PUSH1 0x20 DUP1 DUP3 MSTORE PUSH1 0x14 SWAP1 DUP3 ADD MSTORE PUSH20 0x151BDAD95B88191BD95CC81B9BDD08195E1A5CDD PUSH1 0x62 SHL PUSH1 0x40 DUP3 ADD MSTORE PUSH1 0x60 ADD SWAP1 JUMP JUMPDEST PUSH1 0x20 DUP1 DUP3 MSTORE PUSH1 0x19 SWAP1 DUP3 ADD MSTORE PUSH32 0x5F706F6F6C6564546F6B656E732E6C656E677468203E20333200000000000000 PUSH1 0x40 DUP3 ADD MSTORE PUSH1 0x60 ADD SWAP1 JUMP JUMPDEST PUSH1 0x20 DUP1 DUP3 MSTORE PUSH1 0x19 SWAP1 DUP3 ADD MSTORE PUSH32 0x5F61646D696E4665652065786365656473206D6178696D756D00000000000000 PUSH1 0x40 DUP3 ADD MSTORE PUSH1 0x60 ADD SWAP1 JUMP JUMPDEST PUSH1 0x20 DUP1 DUP3 MSTORE PUSH1 0x10 SWAP1 DUP3 ADD MSTORE PUSH16 0x14185D5CD8589B194E881C185D5CD959 PUSH1 0x82 SHL PUSH1 0x40 DUP3 ADD MSTORE PUSH1 0x60 ADD SWAP1 JUMP JUMPDEST PUSH1 0x20 DUP1 DUP3 MSTORE PUSH1 0x16 SWAP1 DUP3 ADD MSTORE PUSH22 0x115490CC4C4D8DCE8818DC99585D194819985A5B1959 PUSH1 0x52 SHL PUSH1 0x40 DUP3 ADD MSTORE PUSH1 0x60 ADD SWAP1 JUMP JUMPDEST PUSH1 0x20 DUP1 DUP3 MSTORE PUSH1 0x12 SWAP1 DUP3 ADD MSTORE PUSH18 0x5F612065786365656473206D6178696D756D PUSH1 0x70 SHL PUSH1 0x40 DUP3 ADD MSTORE PUSH1 0x60 ADD SWAP1 JUMP JUMPDEST PUSH1 0x20 DUP1 DUP3 MSTORE PUSH1 0x2E SWAP1 DUP3 ADD MSTORE PUSH32 0x496E697469616C697A61626C653A20636F6E747261637420697320616C726561 PUSH1 0x40 DUP3 ADD MSTORE PUSH14 0x191E481A5B9A5D1A585B1A5E9959 PUSH1 0x92 SHL PUSH1 0x60 DUP3 ADD MSTORE PUSH1 0x80 ADD SWAP1 JUMP JUMPDEST PUSH1 0x20 DUP1 DUP3 MSTORE PUSH1 0x21 SWAP1 DUP3 ADD MSTORE PUSH32 0x536166654D6174683A206D756C7469706C69636174696F6E206F766572666C6F PUSH1 0x40 DUP3 ADD MSTORE PUSH1 0x77 PUSH1 0xF8 SHL PUSH1 0x60 DUP3 ADD MSTORE PUSH1 0x80 ADD SWAP1 JUMP JUMPDEST PUSH1 0x20 DUP1 DUP3 MSTORE PUSH1 0x1F SWAP1 DUP3 ADD MSTORE PUSH32 0x5F706F6F6C6564546F6B656E7320646563696D616C73206D69736D6174636800 PUSH1 0x40 DUP3 ADD MSTORE PUSH1 0x60 ADD SWAP1 JUMP JUMPDEST PUSH1 0x20 DUP1 DUP3 MSTORE PUSH1 0x19 SWAP1 DUP3 ADD MSTORE PUSH32 0x5F706F6F6C6564546F6B656E732E6C656E677468203C3D203100000000000000 PUSH1 0x40 DUP3 ADD MSTORE PUSH1 0x60 ADD SWAP1 JUMP JUMPDEST PUSH1 0x20 DUP1 DUP3 MSTORE DUP2 DUP2 ADD MSTORE PUSH32 0x4F776E61626C653A2063616C6C6572206973206E6F7420746865206F776E6572 PUSH1 0x40 DUP3 ADD MSTORE PUSH1 0x60 ADD SWAP1 JUMP JUMPDEST PUSH1 0x20 DUP1 DUP3 MSTORE PUSH1 0x10 SWAP1 DUP3 ADD MSTORE PUSH16 0x111958591B1A5B99481B9BDD081B595D PUSH1 0x82 SHL PUSH1 0x40 DUP3 ADD MSTORE PUSH1 0x60 ADD SWAP1 JUMP JUMPDEST PUSH1 0x20 DUP1 DUP3 MSTORE PUSH1 0x1D SWAP1 DUP3 ADD MSTORE PUSH32 0x546865203020616464726573732069736E277420616E204552432D3230000000 PUSH1 0x40 DUP3 ADD MSTORE PUSH1 0x60 ADD SWAP1 JUMP JUMPDEST PUSH1 0x20 DUP1 DUP3 MSTORE PUSH1 0x14 SWAP1 DUP3 ADD MSTORE PUSH20 0x5F6665652065786365656473206D6178696D756D PUSH1 0x60 SHL PUSH1 0x40 DUP3 ADD MSTORE PUSH1 0x60 ADD SWAP1 JUMP JUMPDEST PUSH1 0x20 DUP1 DUP3 MSTORE PUSH1 0xC SWAP1 DUP3 ADD MSTORE PUSH12 0x4F7574206F662072616E6765 PUSH1 0xA0 SHL PUSH1 0x40 DUP3 ADD MSTORE PUSH1 0x60 ADD SWAP1 JUMP JUMPDEST PUSH1 0x20 DUP1 DUP3 MSTORE PUSH1 0x12 SWAP1 DUP3 ADD MSTORE PUSH18 0x496E646578206F7574206F662072616E6765 PUSH1 0x70 SHL PUSH1 0x40 DUP3 ADD MSTORE PUSH1 0x60 ADD SWAP1 JUMP JUMPDEST PUSH1 0x20 DUP1 DUP3 MSTORE PUSH1 0x1F SWAP1 DUP3 ADD MSTORE PUSH32 0x5265656E7472616E637947756172643A207265656E7472616E742063616C6C00 PUSH1 0x40 DUP3 ADD MSTORE PUSH1 0x60 ADD SWAP1 JUMP JUMPDEST PUSH1 0x20 DUP1 DUP3 MSTORE PUSH1 0x1C SWAP1 DUP3 ADD MSTORE PUSH32 0x636F756C64206E6F7420696E6974206C70546F6B656E20636C6F6E6500000000 PUSH1 0x40 DUP3 ADD MSTORE PUSH1 0x60 ADD SWAP1 JUMP JUMPDEST SWAP1 DUP2 MSTORE PUSH1 0x20 ADD SWAP1 JUMP JUMPDEST SWAP2 DUP3 MSTORE PUSH1 0x1 PUSH1 0x1 PUSH1 0xA0 SHL SUB AND PUSH1 0x20 DUP3 ADD MSTORE PUSH1 0x40 ADD SWAP1 JUMP JUMPDEST PUSH1 0x0 DUP6 DUP3 MSTORE PUSH1 0x60 PUSH1 0x20 DUP4 ADD MSTORE PUSH2 0x2C78 PUSH1 0x60 DUP4 ADD DUP6 DUP8 PUSH2 0x263E JUMP JUMPDEST SWAP1 POP DUP3 ISZERO ISZERO PUSH1 0x40 DUP4 ADD MSTORE SWAP6 SWAP5 POP POP POP POP POP JUMP JUMPDEST PUSH1 0x0 DUP6 DUP3 MSTORE PUSH1 0x60 PUSH1 0x20 DUP4 ADD MSTORE PUSH2 0x2CA5 PUSH1 0x60 DUP4 ADD DUP6 DUP8 PUSH2 0x263E JUMP JUMPDEST SWAP1 POP DUP3 PUSH1 0x40 DUP4 ADD MSTORE SWAP6 SWAP5 POP POP POP POP POP JUMP JUMPDEST SWAP2 DUP3 MSTORE PUSH1 0x20 DUP3 ADD MSTORE PUSH1 0x40 ADD SWAP1 JUMP JUMPDEST PUSH1 0x0 DUP6 DUP3 MSTORE DUP5 PUSH1 0x20 DUP4 ADD MSTORE PUSH1 0x60 PUSH1 0x40 DUP4 ADD MSTORE PUSH2 0x2CE4 PUSH1 0x60 DUP4 ADD DUP5 DUP7 PUSH2 0x263E JUMP JUMPDEST SWAP7 SWAP6 POP POP POP POP POP POP JUMP JUMPDEST SWAP3 DUP4 MSTORE PUSH1 0x20 DUP4 ADD SWAP2 SWAP1 SWAP2 MSTORE PUSH1 0x40 DUP3 ADD MSTORE PUSH1 0x60 ADD SWAP1 JUMP JUMPDEST SWAP3 DUP4 MSTORE PUSH1 0x20 DUP4 ADD SWAP2 SWAP1 SWAP2 MSTORE PUSH1 0xFF AND PUSH1 0x40 DUP3 ADD MSTORE PUSH1 0x60 ADD SWAP1 JUMP JUMPDEST SWAP4 DUP5 MSTORE PUSH1 0x20 DUP5 ADD SWAP3 SWAP1 SWAP3 MSTORE PUSH1 0xFF AND PUSH1 0x40 DUP4 ADD MSTORE PUSH1 0x60 DUP3 ADD MSTORE PUSH1 0x80 ADD SWAP1 JUMP JUMPDEST SWAP4 DUP5 MSTORE PUSH1 0xFF SWAP3 DUP4 AND PUSH1 0x20 DUP6 ADD MSTORE SWAP2 AND PUSH1 0x40 DUP4 ADD MSTORE PUSH1 0x60 DUP3 ADD MSTORE PUSH1 0x80 ADD SWAP1 JUMP JUMPDEST SWAP5 DUP6 MSTORE PUSH1 0xFF SWAP4 DUP5 AND PUSH1 0x20 DUP7 ADD MSTORE SWAP2 SWAP1 SWAP3 AND PUSH1 0x40 DUP5 ADD MSTORE PUSH1 0x60 DUP4 ADD SWAP2 SWAP1 SWAP2 MSTORE PUSH1 0x80 DUP3 ADD MSTORE PUSH1 0xA0 ADD SWAP1 JUMP JUMPDEST SWAP7 DUP8 MSTORE PUSH1 0x20 DUP8 ADD SWAP6 SWAP1 SWAP6 MSTORE PUSH1 0x40 DUP7 ADD SWAP4 SWAP1 SWAP4 MSTORE PUSH1 0x60 DUP6 ADD SWAP2 SWAP1 SWAP2 MSTORE PUSH1 0x80 DUP5 ADD MSTORE PUSH1 0xA0 DUP4 ADD MSTORE PUSH1 0x1 PUSH1 0x1 PUSH1 0xA0 SHL SUB AND PUSH1 0xC0 DUP3 ADD MSTORE PUSH1 0xE0 ADD SWAP1 JUMP JUMPDEST PUSH1 0xFF SWAP2 SWAP1 SWAP2 AND DUP2 MSTORE PUSH1 0x20 ADD SWAP1 JUMP JUMPDEST PUSH1 0x40 MLOAD DUP2 DUP2 ADD PUSH8 0xFFFFFFFFFFFFFFFF DUP2 GT DUP3 DUP3 LT OR ISZERO PUSH2 0x2DEC JUMPI PUSH2 0x2DEC PUSH2 0x2FD3 JUMP JUMPDEST PUSH1 0x40 MSTORE SWAP2 SWAP1 POP JUMP JUMPDEST PUSH1 0x0 PUSH8 0xFFFFFFFFFFFFFFFF DUP3 GT ISZERO PUSH2 0x2E0E JUMPI PUSH2 0x2E0E PUSH2 0x2FD3 JUMP JUMPDEST POP PUSH1 0x20 SWAP1 DUP2 MUL ADD SWAP1 JUMP JUMPDEST PUSH1 0x0 DUP3 PUSH2 0x2E33 JUMPI PUSH4 0x4E487B71 PUSH1 0xE0 SHL DUP2 MSTORE PUSH1 0x12 PUSH1 0x4 MSTORE PUSH1 0x24 DUP2 REVERT JUMPDEST POP DIV SWAP1 JUMP JUMPDEST DUP1 DUP3 JUMPDEST PUSH1 0x1 DUP1 DUP7 GT PUSH2 0x2E4A JUMPI POP PUSH2 0x2E75 JUMP JUMPDEST DUP2 DUP8 DIV DUP3 GT ISZERO PUSH2 0x2E5C JUMPI PUSH2 0x2E5C PUSH2 0x2FBD JUMP JUMPDEST DUP1 DUP7 AND ISZERO PUSH2 0x2E69 JUMPI SWAP2 DUP2 MUL SWAP2 JUMPDEST SWAP5 SWAP1 SWAP5 SHR SWAP4 DUP1 MUL PUSH2 0x2E3B JUMP JUMPDEST SWAP5 POP SWAP5 SWAP3 POP POP POP JUMP JUMPDEST PUSH1 0x0 PUSH2 0x856 PUSH1 0x0 NOT DUP5 DUP5 PUSH1 0x0 DUP3 PUSH2 0x2E97 JUMPI POP PUSH1 0x1 PUSH2 0x110A JUMP JUMPDEST DUP2 PUSH2 0x2EA4 JUMPI POP PUSH1 0x0 PUSH2 0x110A JUMP JUMPDEST DUP2 PUSH1 0x1 DUP2 EQ PUSH2 0x2EBA JUMPI PUSH1 0x2 DUP2 EQ PUSH2 0x2EC4 JUMPI PUSH2 0x2EF1 JUMP JUMPDEST PUSH1 0x1 SWAP2 POP POP PUSH2 0x110A JUMP JUMPDEST PUSH1 0xFF DUP5 GT ISZERO PUSH2 0x2ED5 JUMPI PUSH2 0x2ED5 PUSH2 0x2FBD JUMP JUMPDEST PUSH1 0x1 DUP5 SHL SWAP2 POP DUP5 DUP3 GT ISZERO PUSH2 0x2EEB JUMPI PUSH2 0x2EEB PUSH2 0x2FBD JUMP JUMPDEST POP PUSH2 0x110A JUMP JUMPDEST POP PUSH1 0x20 DUP4 LT PUSH2 0x133 DUP4 LT AND PUSH1 0x4E DUP5 LT PUSH1 0xB DUP5 LT AND OR ISZERO PUSH2 0x2F24 JUMPI POP DUP2 DUP2 EXP DUP4 DUP2 GT ISZERO PUSH2 0x2F1F JUMPI PUSH2 0x2F1F PUSH2 0x2FBD JUMP JUMPDEST PUSH2 0x110A JUMP JUMPDEST PUSH2 0x2F31 DUP5 DUP5 DUP5 PUSH1 0x1 PUSH2 0x2E38 JUMP JUMPDEST DUP1 DUP7 DIV DUP3 GT ISZERO PUSH2 0x2F43 JUMPI PUSH2 0x2F43 PUSH2 0x2FBD JUMP JUMPDEST MUL SWAP5 SWAP4 POP POP POP POP JUMP JUMPDEST PUSH1 0x0 DUP2 PUSH1 0x0 NOT DIV DUP4 GT DUP3 ISZERO ISZERO AND ISZERO PUSH2 0x2F66 JUMPI PUSH2 0x2F66 PUSH2 0x2FBD JUMP JUMPDEST POP MUL SWAP1 JUMP JUMPDEST PUSH1 0x0 DUP3 DUP3 LT ISZERO PUSH2 0x2F7D JUMPI PUSH2 0x2F7D PUSH2 0x2FBD JUMP JUMPDEST POP SUB SWAP1 JUMP JUMPDEST PUSH1 0x0 PUSH1 0x0 NOT DUP3 EQ ISZERO PUSH2 0x2F96 JUMPI PUSH2 0x2F96 PUSH2 0x2FBD JUMP JUMPDEST POP PUSH1 0x1 ADD SWAP1 JUMP JUMPDEST PUSH1 0x0 PUSH1 0xFF DUP3 AND PUSH1 0xFF DUP2 EQ ISZERO PUSH2 0x2FB4 JUMPI PUSH2 0x2FB4 PUSH2 0x2FBD JUMP JUMPDEST PUSH1 0x1 ADD SWAP3 SWAP2 POP POP JUMP JUMPDEST PUSH4 0x4E487B71 PUSH1 0xE0 SHL PUSH1 0x0 MSTORE PUSH1 0x11 PUSH1 0x4 MSTORE PUSH1 0x24 PUSH1 0x0 REVERT JUMPDEST PUSH4 0x4E487B71 PUSH1 0xE0 SHL PUSH1 0x0 MSTORE PUSH1 0x41 PUSH1 0x4 MSTORE PUSH1 0x24 PUSH1 0x0 REVERT JUMPDEST PUSH1 0x1 PUSH1 0x1 PUSH1 0xA0 SHL SUB DUP2 AND DUP2 EQ PUSH2 0x1C2C JUMPI PUSH1 0x0 DUP1 REVERT JUMPDEST DUP1 ISZERO ISZERO DUP2 EQ PUSH2 0x1C2C JUMPI PUSH1 0x0 DUP1 REVERT INVALID LOG2 PUSH5 0x6970667358 0x22 SLT KECCAK256 0x4D 0xBE CODECOPY JUMP PUSH11 0x938888B30077AA3312A21 PC DUP8 0x29 DUP15 SWAP12 0x23 SWAP9 SWAP5 MULMOD 0x5E 0xC9 0xCD 0xEA 0xC4 MSTORE8 LOG0 PUSH5 0x736F6C6343 STOP ADDMOD STOP STOP CALLER "
		},
		"gasEstimates": {
			"creation": {
				"codeDepositCost": "2470800",
				"executionCost": "2665",
				"totalCost": "2473465"
			},
			"external": {
				"addLiquidity(uint256[],uint256,uint256)": "infinite",
				"calculateRemoveLiquidity(uint256)": "infinite",
				"calculateRemoveLiquidityOneToken(uint256,uint8)": "infinite",
				"calculateSwap(uint8,uint8,uint256)": "infinite",
				"calculateTokenAmount(uint256[],bool)": "infinite",
				"getA()": "infinite",
				"getAPrecise()": "infinite",
				"getAdminBalance(uint256)": "infinite",
				"getAdminBalances()": "infinite",
				"getLpToken()": "1159",
				"getNumberOfTokens()": "1116",
				"getToken(uint8)": "3068",
				"getTokenBalance(uint8)": "2957",
				"getTokenBalances()": "infinite",
				"getTokenIndex(address)": "4013",
				"getTokenPrecisionMultipliers()": "infinite",
				"getTokens()": "infinite",
				"getVirtualPrice()": "infinite",
				"initialize(address[],uint8[],string,string,uint256,uint256,uint256,address)": "infinite",
				"owner()": "1160",
				"pause()": "infinite",
				"paused()": "1130",
				"rampA(uint256,uint256)": "infinite",
				"removeLiquidity(uint256,uint256[],uint256)": "infinite",
				"removeLiquidityImbalance(uint256[],uint256,uint256)": "infinite",
				"removeLiquidityOneToken(uint256,uint8,uint256,uint256)": "infinite",
				"renounceOwnership()": "24319",
				"setAdminFee(uint256)": "infinite",
				"setSwapFee(uint256)": "infinite",
				"stopRampA()": "infinite",
				"swap(uint8,uint8,uint256,uint256,uint256)": "infinite",
				"swapStorage()": "6129",
				"transferOwnership(address)": "24620",
				"unpause()": "infinite",
				"withdrawAdminFees()": "infinite"
			}
		},
		"methodIdentifiers": {
			"addLiquidity(uint256[],uint256,uint256)": "4d49e87d",
			"calculateRemoveLiquidity(uint256)": "f2fad2b6",
			"calculateRemoveLiquidityOneToken(uint256,uint8)": "342a87a1",
			"calculateSwap(uint8,uint8,uint256)": "a95b089f",
			"calculateTokenAmount(uint256[],bool)": "e6ab2806",
			"getA()": "d46300fd",
			"getAPrecise()": "0ba81959",
			"getAdminBalance(uint256)": "ef0a712f",
			"getAdminBalances()": "18f52ce2",
			"getLpToken()": "8214f5a4",
			"getNumberOfTokens()": "efeecb51",
			"getToken(uint8)": "82b86600",
			"getTokenBalance(uint8)": "91ceb3eb",
			"getTokenBalances()": "a1dc9031",
			"getTokenIndex(address)": "66c0bd24",
			"getTokenPrecisionMultipliers()": "d41f6568",
			"getTokens()": "aa6ca808",
			"getVirtualPrice()": "e25aa5fa",
			"initialize(address[],uint8[],string,string,uint256,uint256,uint256,address)": "b28cb6dc",
			"owner()": "8da5cb5b",
			"pause()": "8456cb59",
			"paused()": "5c975abb",
			"rampA(uint256,uint256)": "593d132c",
			"removeLiquidity(uint256,uint256[],uint256)": "31cd52b0",
			"removeLiquidityImbalance(uint256[],uint256,uint256)": "84cdd9bc",
			"removeLiquidityOneToken(uint256,uint8,uint256,uint256)": "3e3a1560",
			"renounceOwnership()": "715018a6",
			"setAdminFee(uint256)": "8beb60b6",
			"setSwapFee(uint256)": "34e19907",
			"stopRampA()": "c4db7fa0",
			"swap(uint8,uint8,uint256,uint256,uint256)": "91695586",
			"swapStorage()": "5fd65f0f",
			"transferOwnership(address)": "f2fde38b",
			"unpause()": "3f4ba83a",
			"withdrawAdminFees()": "0419b45a"
		}
	},
	"abi": [
		{
			"anonymous": false,
			"inputs": [
				{
					"indexed": true,
					"internalType": "address",
					"name": "provider",
					"type": "address"
				},
				{
					"indexed": false,
					"internalType": "uint256[]",
					"name": "tokenAmounts",
					"type": "uint256[]"
				},
				{
					"indexed": false,
					"internalType": "uint256[]",
					"name": "fees",
					"type": "uint256[]"
				},
				{
					"indexed": false,
					"internalType": "uint256",
					"name": "invariant",
					"type": "uint256"
				},
				{
					"indexed": false,
					"internalType": "uint256",
					"name": "lpTokenSupply",
					"type": "uint256"
				}
			],
			"name": "AddLiquidity",
			"type": "event"
		},
		{
			"anonymous": false,
			"inputs": [
				{
					"indexed": false,
					"internalType": "uint256",
					"name": "newAdminFee",
					"type": "uint256"
				}
			],
			"name": "NewAdminFee",
			"type": "event"
		},
		{
			"anonymous": false,
			"inputs": [
				{
					"indexed": false,
					"internalType": "uint256",
					"name": "newSwapFee",
					"type": "uint256"
				}
			],
			"name": "NewSwapFee",
			"type": "event"
		},
		{
			"anonymous": false,
			"inputs": [
				{
					"indexed": true,
					"internalType": "address",
					"name": "previousOwner",
					"type": "address"
				},
				{
					"indexed": true,
					"internalType": "address",
					"name": "newOwner",
					"type": "address"
				}
			],
			"name": "OwnershipTransferred",
			"type": "event"
		},
		{
			"anonymous": false,
			"inputs": [
				{
					"indexed": false,
					"internalType": "address",
					"name": "account",
					"type": "address"
				}
			],
			"name": "Paused",
			"type": "event"
		},
		{
			"anonymous": false,
			"inputs": [
				{
					"indexed": false,
					"internalType": "uint256",
					"name": "oldA",
					"type": "uint256"
				},
				{
					"indexed": false,
					"internalType": "uint256",
					"name": "newA",
					"type": "uint256"
				},
				{
					"indexed": false,
					"internalType": "uint256",
					"name": "initialTime",
					"type": "uint256"
				},
				{
					"indexed": false,
					"internalType": "uint256",
					"name": "futureTime",
					"type": "uint256"
				}
			],
			"name": "RampA",
			"type": "event"
		},
		{
			"anonymous": false,
			"inputs": [
				{
					"indexed": true,
					"internalType": "address",
					"name": "provider",
					"type": "address"
				},
				{
					"indexed": false,
					"internalType": "uint256[]",
					"name": "tokenAmounts",
					"type": "uint256[]"
				},
				{
					"indexed": false,
					"internalType": "uint256",
					"name": "lpTokenSupply",
					"type": "uint256"
				}
			],
			"name": "RemoveLiquidity",
			"type": "event"
		},
		{
			"anonymous": false,
			"inputs": [
				{
					"indexed": true,
					"internalType": "address",
					"name": "provider",
					"type": "address"
				},
				{
					"indexed": false,
					"internalType": "uint256[]",
					"name": "tokenAmounts",
					"type": "uint256[]"
				},
				{
					"indexed": false,
					"internalType": "uint256[]",
					"name": "fees",
					"type": "uint256[]"
				},
				{
					"indexed": false,
					"internalType": "uint256",
					"name": "invariant",
					"type": "uint256"
				},
				{
					"indexed": false,
					"internalType": "uint256",
					"name": "lpTokenSupply",
					"type": "uint256"
				}
			],
			"name": "RemoveLiquidityImbalance",
			"type": "event"
		},
		{
			"anonymous": false,
			"inputs": [
				{
					"indexed": true,
					"internalType": "address",
					"name": "provider",
					"type": "address"
				},
				{
					"indexed": false,
					"internalType": "uint256",
					"name": "lpTokenAmount",
					"type": "uint256"
				},
				{
					"indexed": false,
					"internalType": "uint256",
					"name": "lpTokenSupply",
					"type": "uint256"
				},
				{
					"indexed": false,
					"internalType": "uint256",
					"name": "boughtId",
					"type": "uint256"
				},
				{
					"indexed": false,
					"internalType": "uint256",
					"name": "tokensBought",
					"type": "uint256"
				}
			],
			"name": "RemoveLiquidityOne",
			"type": "event"
		},
		{
			"anonymous": false,
			"inputs": [
				{
					"indexed": false,
					"internalType": "uint256",
					"name": "currentA",
					"type": "uint256"
				},
				{
					"indexed": false,
					"internalType": "uint256",
					"name": "time",
					"type": "uint256"
				}
			],
			"name": "StopRampA",
			"type": "event"
		},
		{
			"anonymous": false,
			"inputs": [
				{
					"indexed": true,
					"internalType": "address",
					"name": "buyer",
					"type": "address"
				},
				{
					"indexed": false,
					"internalType": "uint256",
					"name": "tokensSold",
					"type": "uint256"
				},
				{
					"indexed": false,
					"internalType": "uint256",
					"name": "tokensBought",
					"type": "uint256"
				},
				{
					"indexed": false,
					"internalType": "uint128",
					"name": "soldId",
					"type": "uint128"
				},
				{
					"indexed": false,
					"internalType": "uint128",
					"name": "boughtId",
					"type": "uint128"
				}
			],
			"name": "TokenSwap",
			"type": "event"
		},
		{
			"anonymous": false,
			"inputs": [
				{
					"indexed": false,
					"internalType": "address",
					"name": "account",
					"type": "address"
				}
			],
			"name": "Unpaused",
			"type": "event"
		},
		{
			"inputs": [
				{
					"internalType": "uint256[]",
					"name": "amounts",
					"type": "uint256[]"
				},
				{
					"internalType": "uint256",
					"name": "minToMint",
					"type": "uint256"
				},
				{
					"internalType": "uint256",
					"name": "deadline",
					"type": "uint256"
				}
			],
			"name": "addLiquidity",
			"outputs": [
				{
					"internalType": "uint256",
					"name": "",
					"type": "uint256"
				}
			],
			"stateMutability": "nonpayable",
			"type": "function"
		},
		{
			"inputs": [
				{
					"internalType": "uint256",
					"name": "amount",
					"type": "uint256"
				}
			],
			"name": "calculateRemoveLiquidity",
			"outputs": [
				{
					"internalType": "uint256[]",
					"name": "",
					"type": "uint256[]"
				}
			],
			"stateMutability": "view",
			"type": "function"
		},
		{
			"inputs": [
				{
					"internalType": "uint256",
					"name": "tokenAmount",
					"type": "uint256"
				},
				{
					"internalType": "uint8",
					"name": "tokenIndex",
					"type": "uint8"
				}
			],
			"name": "calculateRemoveLiquidityOneToken",
			"outputs": [
				{
					"internalType": "uint256",
					"name": "availableTokenAmount",
					"type": "uint256"
				}
			],
			"stateMutability": "view",
			"type": "function"
		},
		{
			"inputs": [
				{
					"internalType": "uint8",
					"name": "tokenIndexFrom",
					"type": "uint8"
				},
				{
					"internalType": "uint8",
					"name": "tokenIndexTo",
					"type": "uint8"
				},
				{
					"internalType": "uint256",
					"name": "dx",
					"type": "uint256"
				}
			],
			"name": "calculateSwap",
			"outputs": [
				{
					"internalType": "uint256",
					"name": "",
					"type": "uint256"
				}
			],
			"stateMutability": "view",
			"type": "function"
		},
		{
			"inputs": [
				{
					"internalType": "uint256[]",
					"name": "amounts",
					"type": "uint256[]"
				},
				{
					"internalType": "bool",
					"name": "deposit",
					"type": "bool"
				}
			],
			"name": "calculateTokenAmount",
			"outputs": [
				{
					"internalType": "uint256",
					"name": "",
					"type": "uint256"
				}
			],
			"stateMutability": "view",
			"type": "function"
		},
		{
			"inputs": [],
			"name": "getA",
			"outputs": [
				{
					"internalType": "uint256",
					"name": "",
					"type": "uint256"
				}
			],
			"stateMutability": "view",
			"type": "function"
		},
		{
			"inputs": [],
			"name": "getAPrecise",
			"outputs": [
				{
					"internalType": "uint256",
					"name": "",
					"type": "uint256"
				}
			],
			"stateMutability": "view",
			"type": "function"
		},
		{
			"inputs": [
				{
					"internalType": "uint256",
					"name": "index",
					"type": "uint256"
				}
			],
			"name": "getAdminBalance",
			"outputs": [
				{
					"internalType": "uint256",
					"name": "",
					"type": "uint256"
				}
			],
			"stateMutability": "view",
			"type": "function"
		},
		{
			"inputs": [],
			"name": "getAdminBalances",
			"outputs": [
				{
					"internalType": "uint256[]",
					"name": "adminBalances",
					"type": "uint256[]"
				}
			],
			"stateMutability": "view",
			"type": "function"
		},
		{
			"inputs": [],
			"name": "getLpToken",
			"outputs": [
				{
					"internalType": "contract LPToken",
					"name": "",
					"type": "address"
				}
			],
			"stateMutability": "view",
			"type": "function"
		},
		{
			"inputs": [],
			"name": "getNumberOfTokens",
			"outputs": [
				{
					"internalType": "uint256",
					"name": "",
					"type": "uint256"
				}
			],
			"stateMutability": "view",
			"type": "function"
		},
		{
			"inputs": [
				{
					"internalType": "uint8",
					"name": "index",
					"type": "uint8"
				}
			],
			"name": "getToken",
			"outputs": [
				{
					"internalType": "contract IERC20",
					"name": "",
					"type": "address"
				}
			],
			"stateMutability": "view",
			"type": "function"
		},
		{
			"inputs": [
				{
					"internalType": "uint8",
					"name": "index",
					"type": "uint8"
				}
			],
			"name": "getTokenBalance",
			"outputs": [
				{
					"internalType": "uint256",
					"name": "",
					"type": "uint256"
				}
			],
			"stateMutability": "view",
			"type": "function"
		},
		{
			"inputs": [],
			"name": "getTokenBalances",
			"outputs": [
				{
					"internalType": "uint256[]",
					"name": "",
					"type": "uint256[]"
				}
			],
			"stateMutability": "view",
			"type": "function"
		},
		{
			"inputs": [
				{
					"internalType": "address",
					"name": "tokenAddress",
					"type": "address"
				}
			],
			"name": "getTokenIndex",
			"outputs": [
				{
					"internalType": "uint8",
					"name": "",
					"type": "uint8"
				}
			],
			"stateMutability": "view",
			"type": "function"
		},
		{
			"inputs": [],
			"name": "getTokenPrecisionMultipliers",
			"outputs": [
				{
					"internalType": "uint256[]",
					"name": "",
					"type": "uint256[]"
				}
			],
			"stateMutability": "view",
			"type": "function"
		},
		{
			"inputs": [],
			"name": "getTokens",
			"outputs": [
				{
					"internalType": "contract IERC20[]",
					"name": "",
					"type": "address[]"
				}
			],
			"stateMutability": "view",
			"type": "function"
		},
		{
			"inputs": [],
			"name": "getVirtualPrice",
			"outputs": [
				{
					"internalType": "uint256",
					"name": "",
					"type": "uint256"
				}
			],
			"stateMutability": "view",
			"type": "function"
		},
		{
			"inputs": [
				{
					"internalType": "contract IERC20[]",
					"name": "_pooledTokens",
					"type": "address[]"
				},
				{
					"internalType": "uint8[]",
					"name": "decimals",
					"type": "uint8[]"
				},
				{
					"internalType": "string",
					"name": "lpTokenName",
					"type": "string"
				},
				{
					"internalType": "string",
					"name": "lpTokenSymbol",
					"type": "string"
				},
				{
					"internalType": "uint256",
					"name": "_a",
					"type": "uint256"
				},
				{
					"internalType": "uint256",
					"name": "_fee",
					"type": "uint256"
				},
				{
					"internalType": "uint256",
					"name": "_adminFee",
					"type": "uint256"
				},
				{
					"internalType": "address",
					"name": "lpTokenTargetAddress",
					"type": "address"
				}
			],
			"name": "initialize",
			"outputs": [],
			"stateMutability": "nonpayable",
			"type": "function"
		},
		{
			"inputs": [],
			"name": "owner",
			"outputs": [
				{
					"internalType": "address",
					"name": "",
					"type": "address"
				}
			],
			"stateMutability": "view",
			"type": "function"
		},
		{
			"inputs": [],
			"name": "pause",
			"outputs": [],
			"stateMutability": "nonpayable",
			"type": "function"
		},
		{
			"inputs": [],
			"name": "paused",
			"outputs": [
				{
					"internalType": "bool",
					"name": "",
					"type": "bool"
				}
			],
			"stateMutability": "view",
			"type": "function"
		},
		{
			"inputs": [
				{
					"internalType": "uint256",
					"name": "futureA",
					"type": "uint256"
				},
				{
					"internalType": "uint256",
					"name": "futureTime",
					"type": "uint256"
				}
			],
			"name": "rampA",
			"outputs": [],
			"stateMutability": "nonpayable",
			"type": "function"
		},
		{
			"inputs": [
				{
					"internalType": "uint256",
					"name": "amount",
					"type": "uint256"
				},
				{
					"internalType": "uint256[]",
					"name": "minAmounts",
					"type": "uint256[]"
				},
				{
					"internalType": "uint256",
					"name": "deadline",
					"type": "uint256"
				}
			],
			"name": "removeLiquidity",
			"outputs": [
				{
					"internalType": "uint256[]",
					"name": "",
					"type": "uint256[]"
				}
			],
			"stateMutability": "nonpayable",
			"type": "function"
		},
		{
			"inputs": [
				{
					"internalType": "uint256[]",
					"name": "amounts",
					"type": "uint256[]"
				},
				{
					"internalType": "uint256",
					"name": "maxBurnAmount",
					"type": "uint256"
				},
				{
					"internalType": "uint256",
					"name": "deadline",
					"type": "uint256"
				}
			],
			"name": "removeLiquidityImbalance",
			"outputs": [
				{
					"internalType": "uint256",
					"name": "",
					"type": "uint256"
				}
			],
			"stateMutability": "nonpayable",
			"type": "function"
		},
		{
			"inputs": [
				{
					"internalType": "uint256",
					"name": "tokenAmount",
					"type": "uint256"
				},
				{
					"internalType": "uint8",
					"name": "tokenIndex",
					"type": "uint8"
				},
				{
					"internalType": "uint256",
					"name": "minAmount",
					"type": "uint256"
				},
				{
					"internalType": "uint256",
					"name": "deadline",
					"type": "uint256"
				}
			],
			"name": "removeLiquidityOneToken",
			"outputs": [
				{
					"internalType": "uint256",
					"name": "",
					"type": "uint256"
				}
			],
			"stateMutability": "nonpayable",
			"type": "function"
		},
		{
			"inputs": [],
			"name": "renounceOwnership",
			"outputs": [],
			"stateMutability": "nonpayable",
			"type": "function"
		},
		{
			"inputs": [
				{
					"internalType": "uint256",
					"name": "newAdminFee",
					"type": "uint256"
				}
			],
			"name": "setAdminFee",
			"outputs": [],
			"stateMutability": "nonpayable",
			"type": "function"
		},
		{
			"inputs": [
				{
					"internalType": "uint256",
					"name": "newSwapFee",
					"type": "uint256"
				}
			],
			"name": "setSwapFee",
			"outputs": [],
			"stateMutability": "nonpayable",
			"type": "function"
		},
		{
			"inputs": [],
			"name": "stopRampA",
			"outputs": [],
			"stateMutability": "nonpayable",
			"type": "function"
		},
		{
			"inputs": [
				{
					"internalType": "uint8",
					"name": "tokenIndexFrom",
					"type": "uint8"
				},
				{
					"internalType": "uint8",
					"name": "tokenIndexTo",
					"type": "uint8"
				},
				{
					"internalType": "uint256",
					"name": "dx",
					"type": "uint256"
				},
				{
					"internalType": "uint256",
					"name": "minDy",
					"type": "uint256"
				},
				{
					"internalType": "uint256",
					"name": "deadline",
					"type": "uint256"
				}
			],
			"name": "swap",
			"outputs": [
				{
					"internalType": "uint256",
					"name": "",
					"type": "uint256"
				}
			],
			"stateMutability": "nonpayable",
			"type": "function"
		},
		{
			"inputs": [],
			"name": "swapStorage",
			"outputs": [
				{
					"internalType": "uint256",
					"name": "initialA",
					"type": "uint256"
				},
				{
					"internalType": "uint256",
					"name": "futureA",
					"type": "uint256"
				},
				{
					"internalType": "uint256",
					"name": "initialATime",
					"type": "uint256"
				},
				{
					"internalType": "uint256",
					"name": "futureATime",
					"type": "uint256"
				},
				{
					"internalType": "uint256",
					"name": "swapFee",
					"type": "uint256"
				},
				{
					"internalType": "uint256",
					"name": "adminFee",
					"type": "uint256"
				},
				{
					"internalType": "contract LPToken",
					"name": "lpToken",
					"type": "address"
				}
			],
			"stateMutability": "view",
			"type": "function"
		},
		{
			"inputs": [
				{
					"internalType": "address",
					"name": "newOwner",
					"type": "address"
				}
			],
			"name": "transferOwnership",
			"outputs": [],
			"stateMutability": "nonpayable",
			"type": "function"
		},
		{
			"inputs": [],
			"name": "unpause",
			"outputs": [],
			"stateMutability": "nonpayable",
			"type": "function"
		},
		{
			"inputs": [],
			"name": "withdrawAdminFees",
			"outputs": [],
			"stateMutability": "nonpayable",
			"type": "function"
		}
	]
}